{
  "_format": "hh-sol-artifact-1",
  "contractName": "ZkMLVerifier",
  "sourceName": "src/templates/ZkMLVerifier.sol",
  "abi": [
    {
      "inputs": [],
      "stateMutability": "nonpayable",
      "type": "constructor"
    },
    {
      "inputs": [
        {
          "internalType": "address",
          "name": "owner",
          "type": "address"
        }
      ],
      "name": "OwnableInvalidOwner",
      "type": "error"
    },
    {
      "inputs": [
        {
          "internalType": "address",
          "name": "account",
          "type": "address"
        }
      ],
      "name": "OwnableUnauthorizedAccount",
      "type": "error"
    },
    {
      "anonymous": false,
      "inputs": [
        {
          "indexed": false,
          "internalType": "bool",
          "name": "enabled",
          "type": "bool"
        }
      ],
      "name": "DevModeToggled",
      "type": "event"
    },
    {
      "anonymous": false,
      "inputs": [
        {
          "indexed": true,
          "internalType": "bytes32",
          "name": "imageId",
          "type": "bytes32"
        }
      ],
      "name": "ImageRevoked",
      "type": "event"
    },
    {
      "anonymous": false,
      "inputs": [
        {
          "indexed": true,
          "internalType": "bytes32",
          "name": "imageId",
          "type": "bytes32"
        }
      ],
      "name": "ImageTrusted",
      "type": "event"
    },
    {
      "anonymous": false,
      "inputs": [
        {
          "indexed": true,
          "internalType": "address",
          "name": "previousOwner",
          "type": "address"
        },
        {
          "indexed": true,
          "internalType": "address",
          "name": "newOwner",
          "type": "address"
        }
      ],
      "name": "OwnershipTransferred",
      "type": "event"
    },
    {
      "anonymous": false,
      "inputs": [
        {
          "indexed": true,
          "internalType": "bytes32",
          "name": "proofHash",
          "type": "bytes32"
        },
        {
          "indexed": true,
          "internalType": "bytes32",
          "name": "imageId",
          "type": "bytes32"
        },
        {
          "indexed": false,
          "internalType": "address",
          "name": "verifier",
          "type": "address"
        },
        {
          "indexed": false,
          "internalType": "bool",
          "name": "isValid",
          "type": "bool"
        }
      ],
      "name": "ProofVerified",
      "type": "event"
    },
    {
      "inputs": [],
      "name": "PROOF_TYPE_DEV",
      "outputs": [
        {
          "internalType": "uint8",
          "name": "",
          "type": "uint8"
        }
      ],
      "stateMutability": "view",
      "type": "function"
    },
    {
      "inputs": [],
      "name": "PROOF_TYPE_GROTH16",
      "outputs": [
        {
          "internalType": "uint8",
          "name": "",
          "type": "uint8"
        }
      ],
      "stateMutability": "view",
      "type": "function"
    },
    {
      "inputs": [],
      "name": "PROOF_TYPE_STARK",
      "outputs": [
        {
          "internalType": "uint8",
          "name": "",
          "type": "uint8"
        }
      ],
      "stateMutability": "view",
      "type": "function"
    },
    {
      "inputs": [],
      "name": "RISC0_VERIFIER",
      "outputs": [
        {
          "internalType": "address",
          "name": "",
          "type": "address"
        }
      ],
      "stateMutability": "view",
      "type": "function"
    },
    {
      "inputs": [
        {
          "internalType": "bytes32",
          "name": "imageId",
          "type": "bytes32"
        },
        {
          "internalType": "bytes",
          "name": "journal",
          "type": "bytes"
        },
        {
          "internalType": "bytes",
          "name": "seal",
          "type": "bytes"
        }
      ],
      "name": "computeProofHash",
      "outputs": [
        {
          "internalType": "bytes32",
          "name": "",
          "type": "bytes32"
        }
      ],
      "stateMutability": "pure",
      "type": "function"
    },
    {
      "inputs": [],
      "name": "devModeEnabled",
      "outputs": [
        {
          "internalType": "bool",
          "name": "",
          "type": "bool"
        }
      ],
      "stateMutability": "view",
      "type": "function"
    },
    {
      "inputs": [
        {
          "internalType": "bytes32",
          "name": "proofHash",
          "type": "bytes32"
        }
      ],
      "name": "getVerification",
      "outputs": [
        {
          "components": [
            {
              "internalType": "bytes32",
              "name": "imageId",
              "type": "bytes32"
            },
            {
              "internalType": "bytes32",
              "name": "journalHash",
              "type": "bytes32"
            },
            {
              "internalType": "address",
              "name": "verifier",
              "type": "address"
            },
            {
              "internalType": "uint256",
              "name": "verifiedAt",
              "type": "uint256"
            },
            {
              "internalType": "bool",
              "name": "isValid",
              "type": "bool"
            }
          ],
          "internalType": "struct ZkMLVerifier.VerifiedProof",
          "name": "",
          "type": "tuple"
        }
      ],
      "stateMutability": "view",
      "type": "function"
    },
    {
      "inputs": [
        {
          "internalType": "bytes32",
          "name": "imageId",
          "type": "bytes32"
        }
      ],
      "name": "isImageTrusted",
      "outputs": [
        {
          "internalType": "bool",
          "name": "",
          "type": "bool"
        }
      ],
      "stateMutability": "view",
      "type": "function"
    },
    {
      "inputs": [],
      "name": "maxProofAge",
      "outputs": [
        {
          "internalType": "uint256",
          "name": "",
          "type": "uint256"
        }
      ],
      "stateMutability": "view",
      "type": "function"
    },
    {
      "inputs": [],
      "name": "owner",
      "outputs": [
        {
          "internalType": "address",
          "name": "",
          "type": "address"
        }
      ],
      "stateMutability": "view",
      "type": "function"
    },
    {
      "inputs": [],
      "name": "renounceOwnership",
      "outputs": [],
      "stateMutability": "nonpayable",
      "type": "function"
    },
    {
      "inputs": [
        {
          "internalType": "bytes32",
          "name": "imageId",
          "type": "bytes32"
        }
      ],
      "name": "revokeImage",
      "outputs": [],
      "stateMutability": "nonpayable",
      "type": "function"
    },
    {
      "inputs": [
        {
          "internalType": "bool",
          "name": "enabled",
          "type": "bool"
        }
      ],
      "name": "setDevMode",
      "outputs": [],
      "stateMutability": "nonpayable",
      "type": "function"
    },
    {
      "inputs": [
        {
          "internalType": "uint256",
          "name": "age",
          "type": "uint256"
        }
      ],
      "name": "setMaxProofAge",
      "outputs": [],
      "stateMutability": "nonpayable",
      "type": "function"
    },
    {
      "inputs": [
        {
          "internalType": "address",
          "name": "newOwner",
          "type": "address"
        }
      ],
      "name": "transferOwnership",
      "outputs": [],
      "stateMutability": "nonpayable",
      "type": "function"
    },
    {
      "inputs": [
        {
          "internalType": "bytes32",
          "name": "imageId",
          "type": "bytes32"
        }
      ],
      "name": "trustImage",
      "outputs": [],
      "stateMutability": "nonpayable",
      "type": "function"
    },
    {
      "inputs": [
        {
          "internalType": "bytes32[]",
          "name": "imageIds",
          "type": "bytes32[]"
        }
      ],
      "name": "trustImages",
      "outputs": [],
      "stateMutability": "nonpayable",
      "type": "function"
    },
    {
      "inputs": [
        {
          "internalType": "bytes32",
          "name": "",
          "type": "bytes32"
        }
      ],
      "name": "trustedImages",
      "outputs": [
        {
          "internalType": "bool",
          "name": "",
          "type": "bool"
        }
      ],
      "stateMutability": "view",
      "type": "function"
    },
    {
      "inputs": [
        {
          "internalType": "bytes32",
          "name": "",
          "type": "bytes32"
        }
      ],
      "name": "verifiedProofs",
      "outputs": [
        {
          "internalType": "bytes32",
          "name": "imageId",
          "type": "bytes32"
        },
        {
          "internalType": "bytes32",
          "name": "journalHash",
          "type": "bytes32"
        },
        {
          "internalType": "address",
          "name": "verifier",
          "type": "address"
        },
        {
          "internalType": "uint256",
          "name": "verifiedAt",
          "type": "uint256"
        },
        {
          "internalType": "bool",
          "name": "isValid",
          "type": "bool"
        }
      ],
      "stateMutability": "view",
      "type": "function"
    },
    {
      "inputs": [
        {
          "internalType": "bytes",
          "name": "proofData",
          "type": "bytes"
        }
      ],
      "name": "verify",
      "outputs": [
        {
          "internalType": "bool",
          "name": "isValid",
          "type": "bool"
        },
        {
          "internalType": "bytes32",
          "name": "journalHash",
          "type": "bytes32"
        }
      ],
      "stateMutability": "nonpayable",
      "type": "function"
    },
    {
      "inputs": [
        {
          "internalType": "bytes32",
          "name": "imageId",
          "type": "bytes32"
        },
        {
          "internalType": "bytes",
          "name": "journal",
          "type": "bytes"
        },
        {
          "internalType": "bytes",
          "name": "seal",
          "type": "bytes"
        },
        {
          "internalType": "uint8",
          "name": "proofType",
          "type": "uint8"
        }
      ],
      "name": "verifyProof",
      "outputs": [
        {
          "internalType": "bool",
          "name": "isValid",
          "type": "bool"
        },
        {
          "internalType": "bytes32",
          "name": "journalHash",
          "type": "bytes32"
        }
      ],
      "stateMutability": "nonpayable",
      "type": "function"
    }
  ],
  "bytecode": "0x6080806040523461008d5733156100775760008054336001600160a01b03198216811783556040519290916001600160a01b0316907f8be0079c531659141344cd1fd0a4f28419497f9722a3daafe3b4186f6b6457e09080a3600160ff196003541617600355610e1060045561126090816100938239f35b631e4fbdf760e01b815260006004820152602490fd5b600080fdfe6080604052600436101561001257600080fd5b60003560e01c8063176d80c4146101625780631bddcb191461015d5780632c5d696c1461015857806343f9405f146101535780634ee9f2d1146101535780635bb4aefd1461014e5780636f5b6b2014610149578063715018a6146101445780637c897da21461013f5780637d4ba4fe1461013a5780638bbd8fe5146101355780638da5cb5b146101305780638e760afe1461012b57806394ef244014610126578063965a572b14610121578063a9c6dc031461011c578063b0e00c2114610117578063e2dd674514610112578063f08b224c1461010d578063f2fde38b146101085763fa592e3f1461010357600080fd5b610936565b6108ab565b61088e565b6107f8565b61070b565b6106b1565b610654565b610583565b6104b6565b61048d565b6103de565b61038d565b61032b565b6102c3565b6102a5565b610289565b610258565b61023c565b6101cb565b346101c65760203660031901126101c657600435600052600260205260a06040600020805490600181015490600180851b0360028201541660ff60046003840154930154169260405194855260208501526040840152606083015215156080820152f35b600080fd5b346101c65760203660031901126101c6576004356101e7610952565b603c8110158061022f575b156101fc57600455005b60405162461bcd60e51b815260206004820152600b60248201526a496e76616c69642061676560a81b6044820152606490fd5b50620151808111156101f2565b346101c65760003660031901126101c657602060405160028152f35b346101c65760203660031901126101c6576004356000526001602052602060ff604060002054166040519015158152f35b346101c65760003660031901126101c657602060405160018152f35b346101c65760003660031901126101c6576020600454604051908152f35b346101c65760008060031936011261031e576102dd610952565b80546001600160a01b03198116825581906001600160a01b03167f8be0079c531659141344cd1fd0a4f28419497f9722a3daafe3b4186f6b6457e08280a380f35b80fd5b801515036101c657565b346101c65760203660031901126101c6577fc337d6f45251ec06523ece720baa068bf4eb00bfaa211df09f4e981072170d91602060043561036b81610321565b610373610952565b151560ff196003541660ff821617600355604051908152a1005b346101c65760003660031901126101c657602060ff600354166040519015158152f35b9181601f840112156101c65782359167ffffffffffffffff83116101c657602083818601950101116101c657565b346101c65760603660031901126101c65767ffffffffffffffff6024358181116101c6576104109036906004016103b0565b906044359283116101c657610476606061043e6104346104899636906004016103b0565b9490953691610a3a565b6020815191012093836040519485926020840197600435895260408501528484013781016000838201520360408101845201826109ed565b5190206040519081529081906020820190565b0390f35b346101c65760003660031901126101c6576000546040516001600160a01b039091168152602090f35b346101c65760203660031901126101c65767ffffffffffffffff6004358181116101c6576104e89036906004016103b0565b8101906020818303126101c6578035908382116101c65701916080838303126101c6576040519161051883610994565b8335835260208401358281116101c65781610534918601610a71565b602084015260408401359182116101c6578361055a6060926105659461056f9701610a71565b6040850152016107ea565b6060820152610b17565b604080519215158352602083019190915290f35b346101c65760203660031901126101c657610489604080608081516105a7816109b5565b60009181838093528260208201528285820152826060820152015260043581526002602052209060ff60048251936105de856109b5565b805485526001810154602086015260018060a01b03600282015416848601526003810154606086015201541615156080830152519182918291909160808060a0830194805184526020810151602085015260018060a01b0360408201511660408501526060810151606085015201511515910152565b346101c65760203660031901126101c657600435610670610952565b600090808252600160205260408220600160ff198254161790557fcea99d9506d3ccdf6d16ab2b79aa5ed14f544362f4a09cc5a8e3da196c75fea28280a280f35b346101c65760203660031901126101c6576004356106cd610952565b6000818152600160205260408120805460ff19169055907fae0cbfb48e0a7a904df88eec3a0bbe8eb58ba3558a9d53f7d94208b2c1c7279e8280a280f35b346101c6576020806003193601126101c65760043567ffffffffffffffff918282116101c657366023830112156101c65781600401359283116101c6576024820191602436918560051b0101116101c657610764610952565b60005b83811061077057005b61077b818585611204565b35600052600180835260406000209060ff1982541617905561079e818585611204565b357fcea99d9506d3ccdf6d16ab2b79aa5ed14f544362f4a09cc5a8e3da196c75fea2600080a260001981146107d557600101610767565b6110ca565b6064359060ff821682036101c657565b359060ff821682036101c657565b346101c65760803660031901126101c65767ffffffffffffffff6024358181116101c65761082a9036906004016103b0565b90916044359081116101c65761056f9261087e61084d60ff9336906004016103b0565b6108726108586107da565b946040519761086689610994565b60043589523691610a3a565b60208701523691610a3a565b6040840152166060820152610b17565b346101c65760003660031901126101c65760206040516101008152f35b346101c65760203660031901126101c6576001600160a01b03600435818116908190036101c6576108da610952565b801561091d57600080546001600160a01b03198116831782559092167f8be0079c531659141344cd1fd0a4f28419497f9722a3daafe3b4186f6b6457e08380a380f35b604051631e4fbdf760e01b815260006004820152602490fd5b346101c65760003660031901126101c657602060405160008152f35b6000546001600160a01b0316330361096657565b60405163118cdaa760e01b8152336004820152602490fd5b634e487b7160e01b600052604160045260246000fd5b6080810190811067ffffffffffffffff8211176109b057604052565b61097e565b60a0810190811067ffffffffffffffff8211176109b057604052565b6040810190811067ffffffffffffffff8211176109b057604052565b90601f8019910116810190811067ffffffffffffffff8211176109b057604052565b60405190610a1c826109b5565b565b67ffffffffffffffff81116109b057601f01601f191660200190565b929192610a4682610a1e565b91610a5460405193846109ed565b8294818452818301116101c6578281602093846000960137010152565b9080601f830112156101c657816020610a8c93359101610a3a565b90565b15610a9657565b60405162461bcd60e51b8152602060048201526011602482015270125b5859d9481b9bdd081d1c9d5cdd1959607a1b6044820152606490fd5b60005b838110610ae25750506000910152565b8181015183820152602001610ad2565b90916040939282526020820152610b128251809360208685019101610acf565b010190565b90610b3f610b3a610b3384516000526001602052604060002090565b5460ff1690565b610a8f565b602082015160208151910120918051610b6b610b79604084015160405192839188602084019687610af2565b03601f1981018352826109ed565b5190206003610b92826000526002602052604060002090565b0154610cee5760ff610ba8606084015160ff1690565b1660028103610c8f5750610bbb82610d2d565b915b610c548151610bca610a0f565b908152602081018790523360408201524260608201528415156080820152610bfc846000526002602052604060002090565b600460809183518155602084015160018201556002810160018060a01b036040860151166bffffffffffffffffffffffff60a01b8254161790556060840151600382015501910151151560ff80198354169116179055565b516040805133815284151560208201529192917fa63c74b8ff7c46b7e5e577ea9c355079dbf254f2beb1d31043043a51e507e3f29190a39190565b80610ca45750610c9e82610e72565b91610bbd565b600103610cb457610c9e8261100d565b60405162461bcd60e51b8152602060048201526012602482015271556e6b6e6f776e2070726f6f66207479706560701b6044820152606490fd5b610d119150610d096004916000526002602052604060002090565b015460ff1690565b9190565b602092918152610b1282518093858085019101610acf565b60ff6003541615610da457806040610d55925160208301518251948591602083019384610d15565b0393610d69601f19958681018352826109ed565b5190209101516020815191012091610d9d6040519182610d9160208201958660209181520190565b039081018352826109ed565b5190201490565b60405162461bcd60e51b815260206004820152601160248201527011195d881b5bd91948191a5cd8589b1959607a1b6044820152606490fd5b90602091610df681518092818552858086019101610acf565b601f01601f1916010190565b91610e1f90610a8c94928452606060208501526060840190610ddd565b916040818403910152610ddd565b3d15610e58573d90610e3e82610a1e565b91610e4c60405193846109ed565b82523d6000602084013e565b606090565b908160209103126101c65751610a8c81610321565b6040810180519060209283835110610efb5761010090813b610e9e575050905051908151910120151590565b600093849350610ec0868351930151610b6b6040519384928a84019687610e02565b51915afa610ecc610e2d565b90158015610ef1575b610eea5781610a8c9282518301019101610e5d565b5050600090565b5081815110610ed5565b50505050600090565b60405190610f11826109d1565b6040368337565b604051906020820182811067ffffffffffffffff8211176109b0576040526020368337565b6040908151610f4b816109d1565b809260005b818110610f5c57505050565b6020908251610f6a816109d1565b833682378185015201610f50565b6000915b60028310610f8957505050565b600190825181526020809101920192019190610f7c565b906000905b60028210610fb257505050565b6020604082610fc46001948751610f78565b01930191019091610fa5565b92610ffe90610ff461100994610fea876101809996610f78565b6040870190610fa0565b60c0850190610f78565b610100830190610fa0565b0190565b6101008060408301515110610eea57611024610f04565b916110a661108a611033610f3d565b94606061103e610f04565b940151946020958681015183526040810151878401526080810151885260608101518789015260c0810151604089015260a0810151606089015260e081015186520151858501526110e0565b93610b6b61109661113b565b6040519485938785019889610fd0565b6110ae610f18565b928391519060085afa90816110c1575090565b60019150511490565b634e487b7160e01b600052601160045260246000fd5b604080516110ed816109d1565b3690376020604051916110ff836109d1565b805183527f30644e72e131a029b85045b68181585d97816a916871ca8d3c208c16d87cfd4791829101510681039081116107d557602082015290565b611143610f3d565b50604051611150816109d1565b60405161115c816109d1565b7f198e9393920d483a7260bfb731fb5d25f1aa493335a9e71297e485b7aef312c281527f1800deef121f1e76426a00665e5c4479674322d4f75edadd46debd5cd992f6ed602082015281526040516111b3816109d1565b7f090689d0585ff075ec9e99ad690c3395bc4b313370b38ef355acdadcd122975b81527f12c85ea5db8c6deb4aab71808dcb408fe3d1e7690c43d37b4ce6cc0166fa7daa6020820152602082015290565b91908110156112145760051b0190565b634e487b7160e01b600052603260045260246000fdfea2646970667358221220e115690214ca9057e4c97d914338224bcd5acd3fd60e414f7ed86f8ec0d89a6064736f6c63430008140033",
  "linkReferences": {},
  "deployedLinkReferences": {}
}