{
  "_format": "hh-sol-artifact-1",
  "contractName": "LuxNFT",
  "sourceName": "src/templates/LuxNFT.sol",
  "abi": [
    {
      "inputs": [
        {
          "internalType": "string",
          "name": "name",
          "type": "string"
        },
        {
          "internalType": "string",
          "name": "symbol",
          "type": "string"
        },
        {
          "internalType": "uint256",
          "name": "_maxSupply",
          "type": "uint256"
        },
        {
          "internalType": "uint256",
          "name": "_mintPrice",
          "type": "uint256"
        }
      ],
      "stateMutability": "nonpayable",
      "type": "constructor"
    },
    {
      "inputs": [
        {
          "internalType": "address",
          "name": "sender",
          "type": "address"
        },
        {
          "internalType": "uint256",
          "name": "tokenId",
          "type": "uint256"
        },
        {
          "internalType": "address",
          "name": "owner",
          "type": "address"
        }
      ],
      "name": "ERC721IncorrectOwner",
      "type": "error"
    },
    {
      "inputs": [
        {
          "internalType": "address",
          "name": "operator",
          "type": "address"
        },
        {
          "internalType": "uint256",
          "name": "tokenId",
          "type": "uint256"
        }
      ],
      "name": "ERC721InsufficientApproval",
      "type": "error"
    },
    {
      "inputs": [
        {
          "internalType": "address",
          "name": "approver",
          "type": "address"
        }
      ],
      "name": "ERC721InvalidApprover",
      "type": "error"
    },
    {
      "inputs": [
        {
          "internalType": "address",
          "name": "operator",
          "type": "address"
        }
      ],
      "name": "ERC721InvalidOperator",
      "type": "error"
    },
    {
      "inputs": [
        {
          "internalType": "address",
          "name": "owner",
          "type": "address"
        }
      ],
      "name": "ERC721InvalidOwner",
      "type": "error"
    },
    {
      "inputs": [
        {
          "internalType": "address",
          "name": "receiver",
          "type": "address"
        }
      ],
      "name": "ERC721InvalidReceiver",
      "type": "error"
    },
    {
      "inputs": [
        {
          "internalType": "address",
          "name": "sender",
          "type": "address"
        }
      ],
      "name": "ERC721InvalidSender",
      "type": "error"
    },
    {
      "inputs": [
        {
          "internalType": "uint256",
          "name": "tokenId",
          "type": "uint256"
        }
      ],
      "name": "ERC721NonexistentToken",
      "type": "error"
    },
    {
      "inputs": [],
      "name": "EnforcedPause",
      "type": "error"
    },
    {
      "inputs": [],
      "name": "ExpectedPause",
      "type": "error"
    },
    {
      "inputs": [
        {
          "internalType": "address",
          "name": "owner",
          "type": "address"
        }
      ],
      "name": "OwnableInvalidOwner",
      "type": "error"
    },
    {
      "inputs": [
        {
          "internalType": "address",
          "name": "account",
          "type": "address"
        }
      ],
      "name": "OwnableUnauthorizedAccount",
      "type": "error"
    },
    {
      "anonymous": false,
      "inputs": [
        {
          "indexed": true,
          "internalType": "uint256",
          "name": "tokenId",
          "type": "uint256"
        },
        {
          "indexed": true,
          "internalType": "address",
          "name": "owner",
          "type": "address"
        },
        {
          "indexed": false,
          "internalType": "string",
          "name": "prompt",
          "type": "string"
        },
        {
          "indexed": false,
          "internalType": "bytes32",
          "name": "modelHash",
          "type": "bytes32"
        }
      ],
      "name": "AIGenerated",
      "type": "event"
    },
    {
      "anonymous": false,
      "inputs": [
        {
          "indexed": true,
          "internalType": "address",
          "name": "owner",
          "type": "address"
        },
        {
          "indexed": true,
          "internalType": "address",
          "name": "approved",
          "type": "address"
        },
        {
          "indexed": true,
          "internalType": "uint256",
          "name": "tokenId",
          "type": "uint256"
        }
      ],
      "name": "Approval",
      "type": "event"
    },
    {
      "anonymous": false,
      "inputs": [
        {
          "indexed": true,
          "internalType": "address",
          "name": "owner",
          "type": "address"
        },
        {
          "indexed": true,
          "internalType": "address",
          "name": "operator",
          "type": "address"
        },
        {
          "indexed": false,
          "internalType": "bool",
          "name": "approved",
          "type": "bool"
        }
      ],
      "name": "ApprovalForAll",
      "type": "event"
    },
    {
      "anonymous": false,
      "inputs": [
        {
          "indexed": false,
          "internalType": "uint256",
          "name": "_fromTokenId",
          "type": "uint256"
        },
        {
          "indexed": false,
          "internalType": "uint256",
          "name": "_toTokenId",
          "type": "uint256"
        }
      ],
      "name": "BatchMetadataUpdate",
      "type": "event"
    },
    {
      "anonymous": false,
      "inputs": [
        {
          "indexed": false,
          "internalType": "uint256",
          "name": "_tokenId",
          "type": "uint256"
        }
      ],
      "name": "MetadataUpdate",
      "type": "event"
    },
    {
      "anonymous": false,
      "inputs": [
        {
          "indexed": true,
          "internalType": "address",
          "name": "previousOwner",
          "type": "address"
        },
        {
          "indexed": true,
          "internalType": "address",
          "name": "newOwner",
          "type": "address"
        }
      ],
      "name": "OwnershipTransferred",
      "type": "event"
    },
    {
      "anonymous": false,
      "inputs": [
        {
          "indexed": false,
          "internalType": "address",
          "name": "account",
          "type": "address"
        }
      ],
      "name": "Paused",
      "type": "event"
    },
    {
      "anonymous": false,
      "inputs": [
        {
          "indexed": true,
          "internalType": "address",
          "name": "from",
          "type": "address"
        },
        {
          "indexed": true,
          "internalType": "address",
          "name": "to",
          "type": "address"
        },
        {
          "indexed": true,
          "internalType": "uint256",
          "name": "tokenId",
          "type": "uint256"
        }
      ],
      "name": "Transfer",
      "type": "event"
    },
    {
      "anonymous": false,
      "inputs": [
        {
          "indexed": false,
          "internalType": "address",
          "name": "account",
          "type": "address"
        }
      ],
      "name": "Unpaused",
      "type": "event"
    },
    {
      "inputs": [
        {
          "internalType": "address",
          "name": "to",
          "type": "address"
        },
        {
          "internalType": "uint256",
          "name": "tokenId",
          "type": "uint256"
        }
      ],
      "name": "approve",
      "outputs": [],
      "stateMutability": "nonpayable",
      "type": "function"
    },
    {
      "inputs": [
        {
          "internalType": "address",
          "name": "owner",
          "type": "address"
        }
      ],
      "name": "balanceOf",
      "outputs": [
        {
          "internalType": "uint256",
          "name": "",
          "type": "uint256"
        }
      ],
      "stateMutability": "view",
      "type": "function"
    },
    {
      "inputs": [
        {
          "internalType": "uint256",
          "name": "tokenId",
          "type": "uint256"
        }
      ],
      "name": "burn",
      "outputs": [],
      "stateMutability": "nonpayable",
      "type": "function"
    },
    {
      "inputs": [
        {
          "internalType": "uint256",
          "name": "tokenId",
          "type": "uint256"
        }
      ],
      "name": "getApproved",
      "outputs": [
        {
          "internalType": "address",
          "name": "",
          "type": "address"
        }
      ],
      "stateMutability": "view",
      "type": "function"
    },
    {
      "inputs": [
        {
          "internalType": "address",
          "name": "owner",
          "type": "address"
        },
        {
          "internalType": "address",
          "name": "operator",
          "type": "address"
        }
      ],
      "name": "isApprovedForAll",
      "outputs": [
        {
          "internalType": "bool",
          "name": "",
          "type": "bool"
        }
      ],
      "stateMutability": "view",
      "type": "function"
    },
    {
      "inputs": [],
      "name": "maxSupply",
      "outputs": [
        {
          "internalType": "uint256",
          "name": "",
          "type": "uint256"
        }
      ],
      "stateMutability": "view",
      "type": "function"
    },
    {
      "inputs": [
        {
          "internalType": "address",
          "name": "to",
          "type": "address"
        },
        {
          "internalType": "string",
          "name": "uri",
          "type": "string"
        }
      ],
      "name": "mint",
      "outputs": [
        {
          "internalType": "uint256",
          "name": "",
          "type": "uint256"
        }
      ],
      "stateMutability": "payable",
      "type": "function"
    },
    {
      "inputs": [],
      "name": "mintPrice",
      "outputs": [
        {
          "internalType": "uint256",
          "name": "",
          "type": "uint256"
        }
      ],
      "stateMutability": "view",
      "type": "function"
    },
    {
      "inputs": [
        {
          "internalType": "address",
          "name": "to",
          "type": "address"
        },
        {
          "internalType": "string",
          "name": "uri",
          "type": "string"
        },
        {
          "internalType": "string",
          "name": "prompt",
          "type": "string"
        },
        {
          "internalType": "bytes32",
          "name": "modelHash",
          "type": "bytes32"
        }
      ],
      "name": "mintWithAI",
      "outputs": [
        {
          "internalType": "uint256",
          "name": "",
          "type": "uint256"
        }
      ],
      "stateMutability": "payable",
      "type": "function"
    },
    {
      "inputs": [],
      "name": "name",
      "outputs": [
        {
          "internalType": "string",
          "name": "",
          "type": "string"
        }
      ],
      "stateMutability": "view",
      "type": "function"
    },
    {
      "inputs": [],
      "name": "owner",
      "outputs": [
        {
          "internalType": "address",
          "name": "",
          "type": "address"
        }
      ],
      "stateMutability": "view",
      "type": "function"
    },
    {
      "inputs": [
        {
          "internalType": "address",
          "name": "to",
          "type": "address"
        },
        {
          "internalType": "string",
          "name": "uri",
          "type": "string"
        }
      ],
      "name": "ownerMint",
      "outputs": [
        {
          "internalType": "uint256",
          "name": "",
          "type": "uint256"
        }
      ],
      "stateMutability": "nonpayable",
      "type": "function"
    },
    {
      "inputs": [
        {
          "internalType": "uint256",
          "name": "tokenId",
          "type": "uint256"
        }
      ],
      "name": "ownerOf",
      "outputs": [
        {
          "internalType": "address",
          "name": "",
          "type": "address"
        }
      ],
      "stateMutability": "view",
      "type": "function"
    },
    {
      "inputs": [],
      "name": "pause",
      "outputs": [],
      "stateMutability": "nonpayable",
      "type": "function"
    },
    {
      "inputs": [],
      "name": "paused",
      "outputs": [
        {
          "internalType": "bool",
          "name": "",
          "type": "bool"
        }
      ],
      "stateMutability": "view",
      "type": "function"
    },
    {
      "inputs": [],
      "name": "renounceOwnership",
      "outputs": [],
      "stateMutability": "nonpayable",
      "type": "function"
    },
    {
      "inputs": [
        {
          "internalType": "address",
          "name": "from",
          "type": "address"
        },
        {
          "internalType": "address",
          "name": "to",
          "type": "address"
        },
        {
          "internalType": "uint256",
          "name": "tokenId",
          "type": "uint256"
        }
      ],
      "name": "safeTransferFrom",
      "outputs": [],
      "stateMutability": "nonpayable",
      "type": "function"
    },
    {
      "inputs": [
        {
          "internalType": "address",
          "name": "from",
          "type": "address"
        },
        {
          "internalType": "address",
          "name": "to",
          "type": "address"
        },
        {
          "internalType": "uint256",
          "name": "tokenId",
          "type": "uint256"
        },
        {
          "internalType": "bytes",
          "name": "data",
          "type": "bytes"
        }
      ],
      "name": "safeTransferFrom",
      "outputs": [],
      "stateMutability": "nonpayable",
      "type": "function"
    },
    {
      "inputs": [
        {
          "internalType": "address",
          "name": "operator",
          "type": "address"
        },
        {
          "internalType": "bool",
          "name": "approved",
          "type": "bool"
        }
      ],
      "name": "setApprovalForAll",
      "outputs": [],
      "stateMutability": "nonpayable",
      "type": "function"
    },
    {
      "inputs": [
        {
          "internalType": "string",
          "name": "baseURI",
          "type": "string"
        }
      ],
      "name": "setBaseURI",
      "outputs": [],
      "stateMutability": "nonpayable",
      "type": "function"
    },
    {
      "inputs": [
        {
          "internalType": "uint256",
          "name": "_mintPrice",
          "type": "uint256"
        }
      ],
      "name": "setMintPrice",
      "outputs": [],
      "stateMutability": "nonpayable",
      "type": "function"
    },
    {
      "inputs": [
        {
          "internalType": "bytes4",
          "name": "interfaceId",
          "type": "bytes4"
        }
      ],
      "name": "supportsInterface",
      "outputs": [
        {
          "internalType": "bool",
          "name": "",
          "type": "bool"
        }
      ],
      "stateMutability": "view",
      "type": "function"
    },
    {
      "inputs": [],
      "name": "symbol",
      "outputs": [
        {
          "internalType": "string",
          "name": "",
          "type": "string"
        }
      ],
      "stateMutability": "view",
      "type": "function"
    },
    {
      "inputs": [
        {
          "internalType": "uint256",
          "name": "",
          "type": "uint256"
        }
      ],
      "name": "tokenModelHash",
      "outputs": [
        {
          "internalType": "bytes32",
          "name": "",
          "type": "bytes32"
        }
      ],
      "stateMutability": "view",
      "type": "function"
    },
    {
      "inputs": [
        {
          "internalType": "uint256",
          "name": "",
          "type": "uint256"
        }
      ],
      "name": "tokenPrompts",
      "outputs": [
        {
          "internalType": "string",
          "name": "",
          "type": "string"
        }
      ],
      "stateMutability": "view",
      "type": "function"
    },
    {
      "inputs": [
        {
          "internalType": "uint256",
          "name": "tokenId",
          "type": "uint256"
        }
      ],
      "name": "tokenURI",
      "outputs": [
        {
          "internalType": "string",
          "name": "",
          "type": "string"
        }
      ],
      "stateMutability": "view",
      "type": "function"
    },
    {
      "inputs": [],
      "name": "totalMinted",
      "outputs": [
        {
          "internalType": "uint256",
          "name": "",
          "type": "uint256"
        }
      ],
      "stateMutability": "view",
      "type": "function"
    },
    {
      "inputs": [
        {
          "internalType": "address",
          "name": "from",
          "type": "address"
        },
        {
          "internalType": "address",
          "name": "to",
          "type": "address"
        },
        {
          "internalType": "uint256",
          "name": "tokenId",
          "type": "uint256"
        }
      ],
      "name": "transferFrom",
      "outputs": [],
      "stateMutability": "nonpayable",
      "type": "function"
    },
    {
      "inputs": [
        {
          "internalType": "address",
          "name": "newOwner",
          "type": "address"
        }
      ],
      "name": "transferOwnership",
      "outputs": [],
      "stateMutability": "nonpayable",
      "type": "function"
    },
    {
      "inputs": [],
      "name": "unpause",
      "outputs": [],
      "stateMutability": "nonpayable",
      "type": "function"
    },
    {
      "inputs": [],
      "name": "withdraw",
      "outputs": [],
      "stateMutability": "nonpayable",
      "type": "function"
    }
  ],
  "bytecode": "0x608060405234620003a95762002207803803806200001d81620003ae565b928339810190608081830312620003a95780516001600160401b039190828111620003a9578362000050918301620003d4565b6020938483015190848211620003a9576200006d918401620003d4565b92606060408401519301519382519082821162000393576000968754926001958685811c9516801562000388575b8386101462000374578190601f9586811162000321575b508390868311600114620002bd578b92620002b1575b5050600019600383901b1c191690861b1788555b81519384116200029d5784548581811c9116801562000292575b828210146200027e57908184869594931162000227575b5080928411600114620001bf57508792620001b3575b5050600019600383901b1c191690821b1790555b33156200019a5760078054336001600160a01b031982168117909255604051946001600160a01b03909116907f8be0079c531659141344cd1fd0a4f28419497f9722a3daafe3b4186f6b6457e09080a3600955600a55611dc09081620004478239f35b604051631e4fbdf760e01b815260048101849052602490fd5b01519050388062000123565b9190859450601f198416858a52838a20938a905b8282106200020d5750508411620001f3575b505050811b01905562000137565b015160001960f88460031b161c19169055388080620001e5565b8484015186558897909501949384019390810190620001d3565b90919293508589528189208480870160051c82019284881062000274575b9187968992969594930160051c01915b828110620002655750506200010d565b8b815587965088910162000255565b9250819262000245565b634e487b7160e01b89526022600452602489fd5b90607f1690620000f6565b634e487b7160e01b88526041600452602488fd5b015190503880620000c8565b8b8052848c208994509190601f1984168d5b878282106200030a5750508411620002f0575b505050811b018855620000dc565b015160001960f88460031b161c19169055388080620002e2565b8385015186558c97909501949384019301620002cf565b9091508a8052838b208680850160051c8201928686106200036a575b918a91869594930160051c01915b8281106200035b575050620000b2565b8d81558594508a91016200034b565b925081926200033d565b634e487b7160e01b8a52602260045260248afd5b94607f16946200009b565b634e487b7160e01b600052604160045260246000fd5b600080fd5b6040519190601f01601f191682016001600160401b038111838210176200039357604052565b919080601f84011215620003a95782516001600160401b03811162000393576020906200040a601f8201601f19168301620003ae565b92818452828287010111620003a95760005b8181106200043257508260009394955001015290565b85810183015184820184015282016200041c56fe60806040908082526004908136101561001757600080fd5b600092833560e01c91826301ffc9a714610fac5750816306fdde0314610f04578163081812fc14610ec7578163095ea7b314610deb57816323b872dd14610dd35781633ccfd60b14610d255781633f4ba83a14610cb457816341d5b80314610c5257816342842e0e14610c2357816342966c6814610ad357816355f804b31461095657816357349a961461092b5781635c975abb146109045781636352211e146108d25781636817c76c146108b357816370a082311461085d578163715018a6146108005781638456cb591461079f5781638da5cb5b1461077657816395d89b4114610693578163a22cb465146105f2578163a2309ff8146105d3578163b88d4fde14610560578163c70a7ee214610537578163c87b56dd146104fb578163d0def521146104df578163d5abeb01146104c0578163e1e152a914610282578163e985e9c514610234578163f2fde38b1461019f575063f4a0a5281461017b57600080fd5b3461019b57602036600319011261019b57610194611381565b35600a5580f35b5080fd5b91905034610230576020366003190112610230576101bb61107a565b906101c4611381565b6001600160a01b0391821692831561021a575050600754826bffffffffffffffffffffffff60a01b821617600755167f8be0079c531659141344cd1fd0a4f28419497f9722a3daafe3b4186f6b6457e08380a380f35b51631e4fbdf760e01b8152908101849052602490fd5b8280fd5b83903461019b578060031936011261019b5760ff8160209361025461107a565b61025c611095565b6001600160a01b0391821683526005875283832091168252855220549151911615158152f35b905060803660031901126102305761029861107a565b67ffffffffffffffff9360243585811161019b576102b99036908601611187565b91604435868111610230576102d19036908701611187565b916102e7606435946102e1611b47565b836116d3565b95868252602097600c89528683209185519182116104ad5750879493928288926103128995546111e5565b601f811161044d575b508b601f82116001146103af579181849261038a9896947f6d12c77a47c09c3ac7079de39279f81b148851afeafe00ff719b90bfbc7b2fae9a9896916103a4575b508160011b916000199060031b1c19161790555b878152600d8c522055865192839288845288840190611055565b828a01969096526001600160a01b0316940390a351908152f35b90508701513861035c565b8284528c842090989796959493929190601f198216848f5b82821061042d575050916001917f6d12c77a47c09c3ac7079de39279f81b148851afeafe00ff719b90bfbc7b2fae9a9b8261038a9b9a999897969510610414575b5050811b019055610370565b89015160001960f88460031b161c191690553880610408565b8a8d015184559b8c019b8f9b508d98508e9750600190930192018f6103c7565b929596975092508093508452898420601f830160051c8101918b84106104a3575b928a97969592899592601f8c960160051c01905b81811061048f575061031b565b8481558c99508a96508b9550600101610482565b909150819061046e565b634e487b7160e01b845260419052602483fd5b83903461019b578160031936011261019b576020906009549051908152f35b6020906104f46104ee366111a5565b906116d3565b9051908152f35b90508234610534576020366003190112610534575061051d6105309235611ba9565b9051918291602083526020830190611055565b0390f35b80fd5b91905034610230576020366003190112610230576020928291358152600d845220549051908152f35b50503461019b57608036600319011261019b5761057b61107a565b610583611095565b6044359060643567ffffffffffffffff81116105cf57366023820112156105cf576105cc948160246105ba93369301359101611150565b926105c68383836113ad565b336115b7565b80f35b8580fd5b83903461019b578160031936011261019b576020906008549051908152f35b90503461023057806003193601126102305761060c61107a565b906024359182151580930361068f576001600160a01b031692831561067a5750338452600560205280842083855260205280842060ff1981541660ff8416179055519081527f17307eab39ab6107e8899845ad3d59bd9653f200f220920489ca2b5937696c3160203392a380f35b836024925191630b61174360e31b8352820152fd5b8480fd5b83903461019b578160031936011261019b578051908260018054916106b7836111e5565b8086529282811690811561074e57506001146106f2575b5050506106e082610530940383611112565b51918291602083526020830190611055565b94508085527fb10e2d527612073b26eecdfd717e6a320cf44b4afac2b0732d9fcbe2b7fa0cf65b828610610736575050506106e082602061053095820101946106ce565b80546020878701810191909152909501948101610719565b6105309750869350602092506106e094915060ff191682840152151560051b820101946106ce565b83903461019b578160031936011261019b5760075490516001600160a01b039091168152602090f35b83903461019b578160031936011261019b5760207f62e78cea01bee320cd4e420270b5ea74000d11b0c9f74754ebdbfc544b05a258916107dd611381565b6107e5611b47565b6007805460ff60a01b1916600160a01b17905551338152a180f35b8334610534578060031936011261053457610819611381565b600780546001600160a01b0319811690915581906001600160a01b03167f8be0079c531659141344cd1fd0a4f28419497f9722a3daafe3b4186f6b6457e08280a380f35b90508234610534576020366003190112610534576001600160a01b0361088161107a565b1692831561089e5750806020938392526003845220549051908152f35b91516322718ad960e21b815291820152602490fd5b83903461019b578160031936011261019b57602090600a549051908152f35b9050823461053457602036600319011261053457506108f36020923561154c565b90516001600160a01b039091168152f35b83903461019b578160031936011261019b5760209060ff60075460a01c1690519015158152f35b9190503461023057602036600319011261023057816105309361051d92358152600c602052206112dd565b8284346105345760208060031936011261019b5767ffffffffffffffff908335828111610acf5761098a9036908601611187565b93610993611381565b84519283116104ad57506109a8600b546111e5565b601f8111610a6d575b5080601f83116001146109ec575082938293926109e1575b50508160011b916000199060031b1c191617600b5580f35b0151905083806109c9565b600b8452601f198316947f0175b7a638427703f0dbe7bb9bbf987a2551717b34e79f33b5b1008d1fa01db9929185905b878210610a55575050836001959610610a3c575b505050811b01600b5580f35b015160001960f88460031b161c19169055838080610a30565b80600185968294968601518155019501930190610a1c565b600b84527f0175b7a638427703f0dbe7bb9bbf987a2551717b34e79f33b5b1008d1fa01db9601f840160051c810191838510610ac5575b601f0160051c01905b818110610aba57506109b1565b848155600101610aad565b9091508190610aa4565b8380fd5b83833461019b5760209081600319360112610230578035808452600283528484205490926001600160a01b039182169290913315159081610b8e575b505050936002849583959495610b5b575b85855252822080546001600160a01b03191690557fddf252ad1be2c89b69c2b068fc378daa952ba7f163c4a11628f55a4df523b3ef8280a480f35b600086815260046020526040902080546001600160a01b0319169055838552600381528285208054600019019055610b20565b81610bd7575b5015610ba1578080610b0f565b935050610bbc576024925191637e27328960e01b8352820152fd5b604492519163177e802f60e01b835233908301526024820152fd5b33851491508115610c06575b8115610bf1575b5087610b94565b85875282845287872054163314905087610bea565b8487526005845287872033885284528787205460ff169150610be3565b83903461019b576105cc90610c37366110ab565b91925192610c44846110e0565b8584526105c68383836113ad565b8334610534576020610c9b83610c67366111a5565b610c72939193611381565b60095480610ca1575b50610c956008548095610c8d826117a7565b6008556117cc565b836119d1565b51908152f35b610cae9060085410611766565b85610c7b565b91905034610230578260031936011261023057610ccf611381565b6007549060ff8260a01c1615610d17575060ff60a01b1916600755513381527f5db9ee0a495bf2e6ff9c91a7834c1ba4fdd244a5e8aa4e537bd38aeae4b073aa90602090a180f35b8251638dfc202b60e01b8152fd5b905034610230578260031936011261023057610d3f611381565b478015610da35760075484918291829182916001600160a01b03165af1610d64611587565b5015610d6e578280f35b906020606492519162461bcd60e51b8352820152600f60248201526e151c985b9cd9995c8819985a5b1959608a1b6044820152fd5b815162461bcd60e51b8152602081850152600a6024820152694e6f2062616c616e636560b01b6044820152606490fd5b8334610534576105cc610de5366110ab565b916113ad565b905034610230578060031936011261023057610e0561107a565b91602435610e128161154c565b33151580610eb4575b80610e8b575b610e75576001600160a01b039485169482918691167f8c5be1e5ebec7d5bd14f71427d1e84f3dd0314c0f7b2291e5b200ac8c7c3b9258880a48452602052822080546001600160a01b031916909117905580f35b835163a9fbf51f60e01b81523381850152602490fd5b506001600160a01b03811686526005602090815284872033885290528386205460ff1615610e21565b506001600160a01b038116331415610e1b565b9190503461023057602036600319011261023057918260209335610eea8161154c565b50825283528190205490516001600160a01b039091168152f35b83903461019b578160031936011261019b57805190828054610f25816111e5565b8085529160019180831690811561074e5750600114610f50575050506106e082610530940383611112565b80809650527f290decd9548b62a8d60345a988386fc84ba6bc95484008f6362f93160ef3e5635b828610610f94575050506106e082602061053095820101946106ce565b80546020878701810191909152909501948101610f77565b84908434610230576020366003190112610230573563ffffffff60e01b81168091036102305760209250632483248360e11b8114908115610fef575b5015158152f35b6380ac58cd60e01b811491508115611021575b8115611010575b5083610fe8565b6301ffc9a760e01b14905083611009565b635b5e139f60e01b81149150611002565b60005b8381106110455750506000910152565b8181015183820152602001611035565b9060209161106e81518092818552858086019101611032565b601f01601f1916010190565b600435906001600160a01b038216820361109057565b600080fd5b602435906001600160a01b038216820361109057565b6060906003190112611090576001600160a01b0390600435828116810361109057916024359081168103611090579060443590565b6020810190811067ffffffffffffffff8211176110fc57604052565b634e487b7160e01b600052604160045260246000fd5b90601f8019910116810190811067ffffffffffffffff8211176110fc57604052565b67ffffffffffffffff81116110fc57601f01601f191660200190565b92919261115c82611134565b9161116a6040519384611112565b829481845281830111611090578281602093846000960137010152565b9080601f83011215611090578160206111a293359101611150565b90565b906040600319830112611090576004356001600160a01b038116810361109057916024359067ffffffffffffffff8211611090576111a291600401611187565b90600182811c92168015611215575b60208310146111ff57565b634e487b7160e01b600052602260045260246000fd5b91607f16916111f4565b60405190600082600b5491611233836111e5565b808352926001908181169081156112bb575060011461125c575b5061125a92500383611112565b565b600b600090815291507f0175b7a638427703f0dbe7bb9bbf987a2551717b34e79f33b5b1008d1fa01db95b8483106112a0575061125a93505081016020013861124d565b81935090816020925483858a01015201910190918592611287565b90506020925061125a94915060ff191682840152151560051b8201013861124d565b90604051918260008254926112f1846111e5565b90818452600194858116908160001461135e575060011461131b575b505061125a92500383611112565b9093915060005260209081600020936000915b81831061134657505061125a9350820101388061130d565b8554888401850152948501948794509183019161132e565b91505061125a94506020925060ff191682840152151560051b820101388061130d565b6007546001600160a01b0316330361139557565b60405163118cdaa760e01b8152336004820152602490fd5b6001600160a01b0391821692909183156115335760009282845282602095600287526040968488882054169687913315158061149d575b509060027fddf252ad1be2c89b69c2b068fc378daa952ba7f163c4a11628f55a4df523b3ef928461146a575b858352600381528b8320805460010190558683525289812080546001600160a01b0319168517905580a416928383036114495750505050565b6064945051926364283d7b60e01b8452600484015260248301526044820152fd5b600087815260046020526040902080546001600160a01b0319169055848352600381528b83208054600019019055611410565b919394509150806114f2575b156114b9578592918791386113e4565b8786886114d6576024915190637e27328960e01b82526004820152fd5b604491519063177e802f60e01b82523360048301526024820152fd5b503387148015611517575b806114a957508582526004815233858984205416146114a9565b5086825260058152878220338352815260ff88832054166114fd565b604051633250574960e11b815260006004820152602490fd5b6000818152600260205260409020546001600160a01b031690811561156f575090565b60249060405190637e27328960e01b82526004820152fd5b3d156115b2573d9061159882611134565b916115a66040519384611112565b82523d6000602084013e565b606090565b9293823b6115c7575b5050505050565b61160b9060018060a01b038094169560405194859481630a85bd0160e11b988988521660048701521660248501526044840152608060648401526084830190611055565b03906020816000938185885af19082908261168b575b50506116595782611630611587565b805191908261165257604051633250574960e11b815260048101839052602490fd5b6020915001fd5b6001600160e01b03191603611673575038808080806115c0565b60249060405190633250574960e11b82526004820152fd5b909192506020813d82116116cb575b816116a760209383611112565b8101031261019b5751906001600160e01b0319821682036105345750903880611621565b3d915061169a565b906116dc611b47565b600a548061171e575b506111a2906009548061170b575b506117056008548094610c8d826117a7565b826119d1565b6117189060085410611766565b386116f3565b341061172a57386116e5565b60405162461bcd60e51b8152602060048201526014602482015273125b9cdd59999a58da595b9d081c185e5b595b9d60621b6044820152606490fd5b1561176d57565b60405162461bcd60e51b815260206004820152601260248201527113585e081cdd5c1c1b1e481c995858da195960721b6044820152606490fd5b60001981146117b65760010190565b634e487b7160e01b600052601160045260246000fd5b60408051926117da846110e0565b60008085526001600160a01b03948486169485156119b95783835260209660028852858420541684878215159283611986575b81875260038b528887208054600101905582875260028b5288872080546001600160a01b031916831790557fddf252ad1be2c89b69c2b068fc378daa952ba7f163c4a11628f55a4df523b3ef8780a461196e573b61186e575b505050505050565b856118ab9185969798955180938192630a85bd0160e11b978884523360048501528760248501526044840152608060648401526084830190611055565b0381858a5af19082908261192a575b50506118f2575050506118cb611587565b80519390846118ec578251633250574960e11b815260048101859052602490fd5b84925001fd5b9194506001600160e01b031990911603611913575050388080808080611866565b602492505190633250574960e11b82526004820152fd5b909192508781813d8311611967575b6119438183611112565b8101031261019b5751906001600160e01b03198216820361053457509038806118ba565b503d611939565b84516339e3563760e11b815260048101849052602490fd5b600083815260046020526040902080546001600160a01b031916905580875260038b52888720805460001901905561180d565b8451633250574960e11b815260048101849052602490fd5b91909160009080825260209160068352604081209085519067ffffffffffffffff8211611b3357611a0283546111e5565b601f8111611af0575b508490601f8311600114611a6c57907ff8e1a15aba9398e019f0b49df1a4fde98ee17ae345cb5f6b5e2c27f5033e8ce7969783611a61575b50508160011b916000199060031b1c19161790555b604051908152a1565b015190503880611a43565b9196601f198816848452868420935b818110611ad957509160019391897ff8e1a15aba9398e019f0b49df1a4fde98ee17ae345cb5f6b5e2c27f5033e8ce7999a9410611ac0575b505050811b019055611a58565b015160001960f88460031b161c19169055388080611ab3565b929387600181928786015181550195019301611a7b565b838252858220601f840160051c810191878510611b29575b601f0160051c01905b818110611b1e5750611a0b565b828155600101611b11565b9091508190611b08565b634e487b7160e01b81526041600452602490fd5b60ff60075460a01c16611b5657565b60405163d93c066560e01b8152600490fd5b602061125a919392936040519481611b898793518092868087019101611032565b8201611b9d82518093868085019101611032565b01038085520183611112565b611bb28161154c565b5060008181526006602052611bc9604082206112dd565b611bd161121f565b805115611d83578151611d76575050611be98261154c565b50611bf261121f565b805190929015611d625780827a184f03e93ff9f4daa797ed6e38ed64bf6a1f0100000000000000008281811015611d54575b50506d04ee2d6d415b85acef810000000080841015611d47575b50662386f26fc1000080841015611d3a575b506305f5e10080841015611d2d575b5061271080841015611d20575b506064831015611d12575b600a80931015611d0a575b90602191600192818480930196611c9888611134565b97611ca6604051998a611112565b808952611cb5601f1991611134565b013660208a013750860101905b611cd4575b505050506111a291611b68565b600019019083906f181899199a1a9b1b9c1cb0b131b232b360811b8282061a835304918215611d0557919082611cc2565b611cc7565b600101611c82565b916064600291049201611c77565b6004919304920138611c6c565b6008919304920138611c5f565b6010919304920138611c50565b6020919304920138611c3e565b049250604090503880611c24565b506040519150611d71826110e0565b815290565b9091506111a29250611b68565b509150509056fea26469706673582212206cc7f4f0ef78bc32954a0fcfc1823a9a106aff30eaeb7341b45a5cde9f5ae3d564736f6c63430008140033",
  "linkReferences": {},
  "deployedLinkReferences": {}
}