{
  "_format": "hh-sol-artifact-1",
  "contractName": "LuxNFT",
  "sourceName": "src/templates/LuxNFT.sol",
  "abi": [
    {
      "inputs": [
        {
          "internalType": "string",
          "name": "name",
          "type": "string"
        },
        {
          "internalType": "string",
          "name": "symbol",
          "type": "string"
        },
        {
          "internalType": "uint256",
          "name": "_maxSupply",
          "type": "uint256"
        },
        {
          "internalType": "uint256",
          "name": "_mintPrice",
          "type": "uint256"
        }
      ],
      "stateMutability": "nonpayable",
      "type": "constructor"
    },
    {
      "inputs": [
        {
          "internalType": "address",
          "name": "sender",
          "type": "address"
        },
        {
          "internalType": "uint256",
          "name": "tokenId",
          "type": "uint256"
        },
        {
          "internalType": "address",
          "name": "owner",
          "type": "address"
        }
      ],
      "name": "ERC721IncorrectOwner",
      "type": "error"
    },
    {
      "inputs": [
        {
          "internalType": "address",
          "name": "operator",
          "type": "address"
        },
        {
          "internalType": "uint256",
          "name": "tokenId",
          "type": "uint256"
        }
      ],
      "name": "ERC721InsufficientApproval",
      "type": "error"
    },
    {
      "inputs": [
        {
          "internalType": "address",
          "name": "approver",
          "type": "address"
        }
      ],
      "name": "ERC721InvalidApprover",
      "type": "error"
    },
    {
      "inputs": [
        {
          "internalType": "address",
          "name": "operator",
          "type": "address"
        }
      ],
      "name": "ERC721InvalidOperator",
      "type": "error"
    },
    {
      "inputs": [
        {
          "internalType": "address",
          "name": "owner",
          "type": "address"
        }
      ],
      "name": "ERC721InvalidOwner",
      "type": "error"
    },
    {
      "inputs": [
        {
          "internalType": "address",
          "name": "receiver",
          "type": "address"
        }
      ],
      "name": "ERC721InvalidReceiver",
      "type": "error"
    },
    {
      "inputs": [
        {
          "internalType": "address",
          "name": "sender",
          "type": "address"
        }
      ],
      "name": "ERC721InvalidSender",
      "type": "error"
    },
    {
      "inputs": [
        {
          "internalType": "uint256",
          "name": "tokenId",
          "type": "uint256"
        }
      ],
      "name": "ERC721NonexistentToken",
      "type": "error"
    },
    {
      "inputs": [
        {
          "internalType": "address",
          "name": "owner",
          "type": "address"
        }
      ],
      "name": "OwnableInvalidOwner",
      "type": "error"
    },
    {
      "inputs": [
        {
          "internalType": "address",
          "name": "account",
          "type": "address"
        }
      ],
      "name": "OwnableUnauthorizedAccount",
      "type": "error"
    },
    {
      "anonymous": false,
      "inputs": [
        {
          "indexed": true,
          "internalType": "uint256",
          "name": "tokenId",
          "type": "uint256"
        },
        {
          "indexed": true,
          "internalType": "address",
          "name": "owner",
          "type": "address"
        },
        {
          "indexed": false,
          "internalType": "string",
          "name": "prompt",
          "type": "string"
        },
        {
          "indexed": false,
          "internalType": "bytes32",
          "name": "modelHash",
          "type": "bytes32"
        }
      ],
      "name": "AIGenerated",
      "type": "event"
    },
    {
      "anonymous": false,
      "inputs": [
        {
          "indexed": true,
          "internalType": "address",
          "name": "owner",
          "type": "address"
        },
        {
          "indexed": true,
          "internalType": "address",
          "name": "approved",
          "type": "address"
        },
        {
          "indexed": true,
          "internalType": "uint256",
          "name": "tokenId",
          "type": "uint256"
        }
      ],
      "name": "Approval",
      "type": "event"
    },
    {
      "anonymous": false,
      "inputs": [
        {
          "indexed": true,
          "internalType": "address",
          "name": "owner",
          "type": "address"
        },
        {
          "indexed": true,
          "internalType": "address",
          "name": "operator",
          "type": "address"
        },
        {
          "indexed": false,
          "internalType": "bool",
          "name": "approved",
          "type": "bool"
        }
      ],
      "name": "ApprovalForAll",
      "type": "event"
    },
    {
      "anonymous": false,
      "inputs": [
        {
          "indexed": false,
          "internalType": "uint256",
          "name": "_fromTokenId",
          "type": "uint256"
        },
        {
          "indexed": false,
          "internalType": "uint256",
          "name": "_toTokenId",
          "type": "uint256"
        }
      ],
      "name": "BatchMetadataUpdate",
      "type": "event"
    },
    {
      "anonymous": false,
      "inputs": [
        {
          "indexed": false,
          "internalType": "uint256",
          "name": "_tokenId",
          "type": "uint256"
        }
      ],
      "name": "MetadataUpdate",
      "type": "event"
    },
    {
      "anonymous": false,
      "inputs": [
        {
          "indexed": true,
          "internalType": "address",
          "name": "previousOwner",
          "type": "address"
        },
        {
          "indexed": true,
          "internalType": "address",
          "name": "newOwner",
          "type": "address"
        }
      ],
      "name": "OwnershipTransferred",
      "type": "event"
    },
    {
      "anonymous": false,
      "inputs": [
        {
          "indexed": true,
          "internalType": "address",
          "name": "from",
          "type": "address"
        },
        {
          "indexed": true,
          "internalType": "address",
          "name": "to",
          "type": "address"
        },
        {
          "indexed": true,
          "internalType": "uint256",
          "name": "tokenId",
          "type": "uint256"
        }
      ],
      "name": "Transfer",
      "type": "event"
    },
    {
      "inputs": [
        {
          "internalType": "address",
          "name": "to",
          "type": "address"
        },
        {
          "internalType": "uint256",
          "name": "tokenId",
          "type": "uint256"
        }
      ],
      "name": "approve",
      "outputs": [],
      "stateMutability": "nonpayable",
      "type": "function"
    },
    {
      "inputs": [
        {
          "internalType": "address",
          "name": "owner",
          "type": "address"
        }
      ],
      "name": "balanceOf",
      "outputs": [
        {
          "internalType": "uint256",
          "name": "",
          "type": "uint256"
        }
      ],
      "stateMutability": "view",
      "type": "function"
    },
    {
      "inputs": [
        {
          "internalType": "uint256",
          "name": "tokenId",
          "type": "uint256"
        }
      ],
      "name": "burn",
      "outputs": [],
      "stateMutability": "nonpayable",
      "type": "function"
    },
    {
      "inputs": [
        {
          "internalType": "uint256",
          "name": "tokenId",
          "type": "uint256"
        }
      ],
      "name": "getApproved",
      "outputs": [
        {
          "internalType": "address",
          "name": "",
          "type": "address"
        }
      ],
      "stateMutability": "view",
      "type": "function"
    },
    {
      "inputs": [
        {
          "internalType": "address",
          "name": "owner",
          "type": "address"
        },
        {
          "internalType": "address",
          "name": "operator",
          "type": "address"
        }
      ],
      "name": "isApprovedForAll",
      "outputs": [
        {
          "internalType": "bool",
          "name": "",
          "type": "bool"
        }
      ],
      "stateMutability": "view",
      "type": "function"
    },
    {
      "inputs": [],
      "name": "maxSupply",
      "outputs": [
        {
          "internalType": "uint256",
          "name": "",
          "type": "uint256"
        }
      ],
      "stateMutability": "view",
      "type": "function"
    },
    {
      "inputs": [
        {
          "internalType": "address",
          "name": "to",
          "type": "address"
        },
        {
          "internalType": "string",
          "name": "uri",
          "type": "string"
        }
      ],
      "name": "mint",
      "outputs": [
        {
          "internalType": "uint256",
          "name": "",
          "type": "uint256"
        }
      ],
      "stateMutability": "payable",
      "type": "function"
    },
    {
      "inputs": [],
      "name": "mintPrice",
      "outputs": [
        {
          "internalType": "uint256",
          "name": "",
          "type": "uint256"
        }
      ],
      "stateMutability": "view",
      "type": "function"
    },
    {
      "inputs": [
        {
          "internalType": "address",
          "name": "to",
          "type": "address"
        },
        {
          "internalType": "string",
          "name": "uri",
          "type": "string"
        },
        {
          "internalType": "string",
          "name": "prompt",
          "type": "string"
        },
        {
          "internalType": "bytes32",
          "name": "modelHash",
          "type": "bytes32"
        }
      ],
      "name": "mintWithAI",
      "outputs": [
        {
          "internalType": "uint256",
          "name": "",
          "type": "uint256"
        }
      ],
      "stateMutability": "payable",
      "type": "function"
    },
    {
      "inputs": [],
      "name": "name",
      "outputs": [
        {
          "internalType": "string",
          "name": "",
          "type": "string"
        }
      ],
      "stateMutability": "view",
      "type": "function"
    },
    {
      "inputs": [],
      "name": "owner",
      "outputs": [
        {
          "internalType": "address",
          "name": "",
          "type": "address"
        }
      ],
      "stateMutability": "view",
      "type": "function"
    },
    {
      "inputs": [
        {
          "internalType": "address",
          "name": "to",
          "type": "address"
        },
        {
          "internalType": "string",
          "name": "uri",
          "type": "string"
        }
      ],
      "name": "ownerMint",
      "outputs": [
        {
          "internalType": "uint256",
          "name": "",
          "type": "uint256"
        }
      ],
      "stateMutability": "nonpayable",
      "type": "function"
    },
    {
      "inputs": [
        {
          "internalType": "uint256",
          "name": "tokenId",
          "type": "uint256"
        }
      ],
      "name": "ownerOf",
      "outputs": [
        {
          "internalType": "address",
          "name": "",
          "type": "address"
        }
      ],
      "stateMutability": "view",
      "type": "function"
    },
    {
      "inputs": [],
      "name": "renounceOwnership",
      "outputs": [],
      "stateMutability": "nonpayable",
      "type": "function"
    },
    {
      "inputs": [
        {
          "internalType": "address",
          "name": "from",
          "type": "address"
        },
        {
          "internalType": "address",
          "name": "to",
          "type": "address"
        },
        {
          "internalType": "uint256",
          "name": "tokenId",
          "type": "uint256"
        }
      ],
      "name": "safeTransferFrom",
      "outputs": [],
      "stateMutability": "nonpayable",
      "type": "function"
    },
    {
      "inputs": [
        {
          "internalType": "address",
          "name": "from",
          "type": "address"
        },
        {
          "internalType": "address",
          "name": "to",
          "type": "address"
        },
        {
          "internalType": "uint256",
          "name": "tokenId",
          "type": "uint256"
        },
        {
          "internalType": "bytes",
          "name": "data",
          "type": "bytes"
        }
      ],
      "name": "safeTransferFrom",
      "outputs": [],
      "stateMutability": "nonpayable",
      "type": "function"
    },
    {
      "inputs": [
        {
          "internalType": "address",
          "name": "operator",
          "type": "address"
        },
        {
          "internalType": "bool",
          "name": "approved",
          "type": "bool"
        }
      ],
      "name": "setApprovalForAll",
      "outputs": [],
      "stateMutability": "nonpayable",
      "type": "function"
    },
    {
      "inputs": [
        {
          "internalType": "string",
          "name": "baseURI",
          "type": "string"
        }
      ],
      "name": "setBaseURI",
      "outputs": [],
      "stateMutability": "nonpayable",
      "type": "function"
    },
    {
      "inputs": [
        {
          "internalType": "uint256",
          "name": "_mintPrice",
          "type": "uint256"
        }
      ],
      "name": "setMintPrice",
      "outputs": [],
      "stateMutability": "nonpayable",
      "type": "function"
    },
    {
      "inputs": [
        {
          "internalType": "bytes4",
          "name": "interfaceId",
          "type": "bytes4"
        }
      ],
      "name": "supportsInterface",
      "outputs": [
        {
          "internalType": "bool",
          "name": "",
          "type": "bool"
        }
      ],
      "stateMutability": "view",
      "type": "function"
    },
    {
      "inputs": [],
      "name": "symbol",
      "outputs": [
        {
          "internalType": "string",
          "name": "",
          "type": "string"
        }
      ],
      "stateMutability": "view",
      "type": "function"
    },
    {
      "inputs": [
        {
          "internalType": "uint256",
          "name": "",
          "type": "uint256"
        }
      ],
      "name": "tokenModelHash",
      "outputs": [
        {
          "internalType": "bytes32",
          "name": "",
          "type": "bytes32"
        }
      ],
      "stateMutability": "view",
      "type": "function"
    },
    {
      "inputs": [
        {
          "internalType": "uint256",
          "name": "",
          "type": "uint256"
        }
      ],
      "name": "tokenPrompts",
      "outputs": [
        {
          "internalType": "string",
          "name": "",
          "type": "string"
        }
      ],
      "stateMutability": "view",
      "type": "function"
    },
    {
      "inputs": [
        {
          "internalType": "uint256",
          "name": "tokenId",
          "type": "uint256"
        }
      ],
      "name": "tokenURI",
      "outputs": [
        {
          "internalType": "string",
          "name": "",
          "type": "string"
        }
      ],
      "stateMutability": "view",
      "type": "function"
    },
    {
      "inputs": [],
      "name": "totalMinted",
      "outputs": [
        {
          "internalType": "uint256",
          "name": "",
          "type": "uint256"
        }
      ],
      "stateMutability": "view",
      "type": "function"
    },
    {
      "inputs": [
        {
          "internalType": "address",
          "name": "from",
          "type": "address"
        },
        {
          "internalType": "address",
          "name": "to",
          "type": "address"
        },
        {
          "internalType": "uint256",
          "name": "tokenId",
          "type": "uint256"
        }
      ],
      "name": "transferFrom",
      "outputs": [],
      "stateMutability": "nonpayable",
      "type": "function"
    },
    {
      "inputs": [
        {
          "internalType": "address",
          "name": "newOwner",
          "type": "address"
        }
      ],
      "name": "transferOwnership",
      "outputs": [],
      "stateMutability": "nonpayable",
      "type": "function"
    },
    {
      "inputs": [],
      "name": "withdraw",
      "outputs": [],
      "stateMutability": "nonpayable",
      "type": "function"
    }
  ],
  "bytecode": "0x608060405234620003a957620020bc803803806200001d81620003ae565b928339810190608081830312620003a95780516001600160401b039190828111620003a9578362000050918301620003d4565b6020938483015190848211620003a9576200006d918401620003d4565b92606060408401519301519382519082821162000393576000968754926001958685811c9516801562000388575b8386101462000374578190601f9586811162000321575b508390868311600114620002bd578b92620002b1575b5050600019600383901b1c191690861b1788555b81519384116200029d5784548581811c9116801562000292575b828210146200027e57908184869594931162000227575b5080928411600114620001bf57508792620001b3575b5050600019600383901b1c191690821b1790555b33156200019a5760078054336001600160a01b031982168117909255604051946001600160a01b03909116907f8be0079c531659141344cd1fd0a4f28419497f9722a3daafe3b4186f6b6457e09080a3600955600a55611c759081620004478239f35b604051631e4fbdf760e01b815260048101849052602490fd5b01519050388062000123565b9190859450601f198416858a52838a20938a905b8282106200020d5750508411620001f3575b505050811b01905562000137565b015160001960f88460031b161c19169055388080620001e5565b8484015186558897909501949384019390810190620001d3565b90919293508589528189208480870160051c82019284881062000274575b9187968992969594930160051c01915b828110620002655750506200010d565b8b815587965088910162000255565b9250819262000245565b634e487b7160e01b89526022600452602489fd5b90607f1690620000f6565b634e487b7160e01b88526041600452602488fd5b015190503880620000c8565b8b8052848c208994509190601f1984168d5b878282106200030a5750508411620002f0575b505050811b018855620000dc565b015160001960f88460031b161c19169055388080620002e2565b8385015186558c97909501949384019301620002cf565b9091508a8052838b208680850160051c8201928686106200036a575b918a91869594930160051c01915b8281106200035b575050620000b2565b8d81558594508a91016200034b565b925081926200033d565b634e487b7160e01b8a52602260045260248afd5b94607f16946200009b565b634e487b7160e01b600052604160045260246000fd5b600080fd5b6040519190601f01601f191682016001600160401b038111838210176200039357604052565b919080601f84011215620003a95782516001600160401b03811162000393576020906200040a601f8201601f19168301620003ae565b92818452828287010111620003a95760005b8181106200043257508260009394955001015290565b85810183015184820184015282016200041c56fe60806040908082526004908136101561001757600080fd5b600092833560e01c91826301ffc9a714610e8a5750816306fdde0314610de2578163081812fc14610da5578163095ea7b314610cc957816323b872dd14610cb15781633ccfd60b14610c0357816341d5b80314610ba157816342842e0e14610b7257816342966c6814610a2257816355f804b3146108a557816357349a961461087a5781636352211e146108485781636817c76c1461082957816370a08231146107d3578163715018a6146107765781638da5cb5b1461074d57816395d89b411461066a578163a22cb465146105c9578163a2309ff8146105aa578163b88d4fde14610537578163c70a7ee21461050e578163c87b56dd146104d2578163d0def521146104b6578163d5abeb0114610497578163e1e152a914610261578163e985e9c514610213578163f2fde38b1461017e575063f4a0a5281461015a57600080fd5b3461017a57602036600319011261017a5761017361125f565b35600a5580f35b5080fd5b9190503461020f57602036600319011261020f5761019a610f58565b906101a361125f565b6001600160a01b039182169283156101f9575050600754826bffffffffffffffffffffffff60a01b821617600755167f8be0079c531659141344cd1fd0a4f28419497f9722a3daafe3b4186f6b6457e08380a380f35b51631e4fbdf760e01b8152908101849052602490fd5b8280fd5b83903461017a578060031936011261017a5760ff81602093610233610f58565b61023b610f73565b6001600160a01b0391821683526005875283832091168252855220549151911615158152f35b9050608036600319011261020f57610277610f58565b67ffffffffffffffff9360243585811161017a576102989036908601611065565b9160443586811161020f576102b09036908701611065565b916102be6064359483611617565b95868252602097600c89528683209185519182116104845750879493928288926102e98995546110c3565b601f8111610424575b508b601f821160011461038657918184926103619896947f6d12c77a47c09c3ac7079de39279f81b148851afeafe00ff719b90bfbc7b2fae9a98969161037b575b508160011b916000199060031b1c19161790555b878152600d8c522055865192839288845288840190610f33565b828a01969096526001600160a01b0316940390a351908152f35b905087015138610333565b8284528c842090989796959493929190601f198216848f5b828210610404575050916001917f6d12c77a47c09c3ac7079de39279f81b148851afeafe00ff719b90bfbc7b2fae9a9b826103619b9a9998979695106103eb575b5050811b019055610347565b89015160001960f88460031b161c1916905538806103df565b8a8d015184559b8c019b8f9b508d98508e9750600190930192018f61039e565b929596975092508093508452898420601f830160051c8101918b841061047a575b928a97969592899592601f8c960160051c01905b81811061046657506102f2565b8481558c99508a96508b9550600101610459565b9091508190610445565b634e487b7160e01b845260419052602483fd5b83903461017a578160031936011261017a576020906009549051908152f35b6020906104cb6104c536611083565b90611617565b9051908152f35b9050823461050b57602036600319011261050b57506104f46105079235611a5e565b9051918291602083526020830190610f33565b0390f35b80fd5b9190503461020f57602036600319011261020f576020928291358152600d845220549051908152f35b50503461017a57608036600319011261017a57610552610f58565b61055a610f73565b6044359060643567ffffffffffffffff81116105a657366023820112156105a6576105a3948160246105919336930135910161102e565b9261059d83838361128b565b33611495565b80f35b8580fd5b83903461017a578160031936011261017a576020906008549051908152f35b90503461020f578060031936011261020f576105e3610f58565b9060243591821515809303610666576001600160a01b03169283156106515750338452600560205280842083855260205280842060ff1981541660ff8416179055519081527f17307eab39ab6107e8899845ad3d59bd9653f200f220920489ca2b5937696c3160203392a380f35b836024925191630b61174360e31b8352820152fd5b8480fd5b83903461017a578160031936011261017a5780519082600180549161068e836110c3565b8086529282811690811561072557506001146106c9575b5050506106b782610507940383610ff0565b51918291602083526020830190610f33565b94508085527fb10e2d527612073b26eecdfd717e6a320cf44b4afac2b0732d9fcbe2b7fa0cf65b82861061070d575050506106b782602061050795820101946106a5565b805460208787018101919091529095019481016106f0565b6105079750869350602092506106b794915060ff191682840152151560051b820101946106a5565b83903461017a578160031936011261017a5760075490516001600160a01b039091168152602090f35b833461050b578060031936011261050b5761078f61125f565b600780546001600160a01b0319811690915581906001600160a01b03167f8be0079c531659141344cd1fd0a4f28419497f9722a3daafe3b4186f6b6457e08280a380f35b9050823461050b57602036600319011261050b576001600160a01b036107f7610f58565b169283156108145750806020938392526003845220549051908152f35b91516322718ad960e21b815291820152602490fd5b83903461017a578160031936011261017a57602090600a549051908152f35b9050823461050b57602036600319011261050b57506108696020923561142a565b90516001600160a01b039091168152f35b9190503461020f57602036600319011261020f5781610507936104f492358152600c602052206111bb565b82843461050b5760208060031936011261017a5767ffffffffffffffff908335828111610a1e576108d99036908601611065565b936108e261125f565b845192831161048457506108f7600b546110c3565b601f81116109bc575b5080601f831160011461093b57508293829392610930575b50508160011b916000199060031b1c191617600b5580f35b015190508380610918565b600b8452601f198316947f0175b7a638427703f0dbe7bb9bbf987a2551717b34e79f33b5b1008d1fa01db9929185905b8782106109a457505083600195961061098b575b505050811b01600b5580f35b015160001960f88460031b161c1916905583808061097f565b8060018596829496860151815501950193019061096b565b600b84527f0175b7a638427703f0dbe7bb9bbf987a2551717b34e79f33b5b1008d1fa01db9601f840160051c810191838510610a14575b601f0160051c01905b818110610a095750610900565b8481556001016109fc565b90915081906109f3565b8380fd5b83833461017a576020908160031936011261020f578035808452600283528484205490926001600160a01b039182169290913315159081610add575b505050936002849583959495610aaa575b85855252822080546001600160a01b03191690557fddf252ad1be2c89b69c2b068fc378daa952ba7f163c4a11628f55a4df523b3ef8280a480f35b600086815260046020526040902080546001600160a01b0319169055838552600381528285208054600019019055610a6f565b81610b26575b5015610af0578080610a5e565b935050610b0b576024925191637e27328960e01b8352820152fd5b604492519163177e802f60e01b835233908301526024820152fd5b33851491508115610b55575b8115610b40575b5087610ae3565b85875282845287872054163314905087610b39565b8487526005845287872033885284528787205460ff169150610b32565b83903461017a576105a390610b8636610f89565b91925192610b9384610fbe565b85845261059d83838361128b565b833461050b576020610bea83610bb636611083565b610bc193919361125f565b60095480610bf0575b50610be46008548095610bdc826115f2565b6008556116a2565b836118a7565b51908152f35b610bfd90600854106115b1565b85610bca565b90503461020f578260031936011261020f57610c1d61125f565b478015610c815760075484918291829182916001600160a01b03165af1610c42611465565b5015610c4c578280f35b906020606492519162461bcd60e51b8352820152600f60248201526e151c985b9cd9995c8819985a5b1959608a1b6044820152fd5b815162461bcd60e51b8152602081850152600a6024820152694e6f2062616c616e636560b01b6044820152606490fd5b833461050b576105a3610cc336610f89565b9161128b565b90503461020f578060031936011261020f57610ce3610f58565b91602435610cf08161142a565b33151580610d92575b80610d69575b610d53576001600160a01b039485169482918691167f8c5be1e5ebec7d5bd14f71427d1e84f3dd0314c0f7b2291e5b200ac8c7c3b9258880a48452602052822080546001600160a01b031916909117905580f35b835163a9fbf51f60e01b81523381850152602490fd5b506001600160a01b03811686526005602090815284872033885290528386205460ff1615610cff565b506001600160a01b038116331415610cf9565b9190503461020f57602036600319011261020f57918260209335610dc88161142a565b50825283528190205490516001600160a01b039091168152f35b83903461017a578160031936011261017a57805190828054610e03816110c3565b808552916001918083169081156107255750600114610e2e575050506106b782610507940383610ff0565b80809650527f290decd9548b62a8d60345a988386fc84ba6bc95484008f6362f93160ef3e5635b828610610e72575050506106b782602061050795820101946106a5565b80546020878701810191909152909501948101610e55565b8490843461020f57602036600319011261020f573563ffffffff60e01b811680910361020f5760209250632483248360e11b8114908115610ecd575b5015158152f35b6380ac58cd60e01b811491508115610eff575b8115610eee575b5083610ec6565b6301ffc9a760e01b14905083610ee7565b635b5e139f60e01b81149150610ee0565b60005b838110610f235750506000910152565b8181015183820152602001610f13565b90602091610f4c81518092818552858086019101610f10565b601f01601f1916010190565b600435906001600160a01b0382168203610f6e57565b600080fd5b602435906001600160a01b0382168203610f6e57565b6060906003190112610f6e576001600160a01b03906004358281168103610f6e57916024359081168103610f6e579060443590565b6020810190811067ffffffffffffffff821117610fda57604052565b634e487b7160e01b600052604160045260246000fd5b90601f8019910116810190811067ffffffffffffffff821117610fda57604052565b67ffffffffffffffff8111610fda57601f01601f191660200190565b92919261103a82611012565b916110486040519384610ff0565b829481845281830111610f6e578281602093846000960137010152565b9080601f83011215610f6e578160206110809335910161102e565b90565b906040600319830112610f6e576004356001600160a01b0381168103610f6e57916024359067ffffffffffffffff8211610f6e5761108091600401611065565b90600182811c921680156110f3575b60208310146110dd57565b634e487b7160e01b600052602260045260246000fd5b91607f16916110d2565b60405190600082600b5491611111836110c3565b80835292600190818116908115611199575060011461113a575b5061113892500383610ff0565b565b600b600090815291507f0175b7a638427703f0dbe7bb9bbf987a2551717b34e79f33b5b1008d1fa01db95b84831061117e575061113893505081016020013861112b565b81935090816020925483858a01015201910190918592611165565b90506020925061113894915060ff191682840152151560051b8201013861112b565b90604051918260008254926111cf846110c3565b90818452600194858116908160001461123c57506001146111f9575b505061113892500383610ff0565b9093915060005260209081600020936000915b818310611224575050611138935082010138806111eb565b8554888401850152948501948794509183019161120c565b91505061113894506020925060ff191682840152151560051b82010138806111eb565b6007546001600160a01b0316330361127357565b60405163118cdaa760e01b8152336004820152602490fd5b6001600160a01b0391821692909183156114115760009282845282602095600287526040968488882054169687913315158061137b575b509060027fddf252ad1be2c89b69c2b068fc378daa952ba7f163c4a11628f55a4df523b3ef9284611348575b858352600381528b8320805460010190558683525289812080546001600160a01b0319168517905580a416928383036113275750505050565b6064945051926364283d7b60e01b8452600484015260248301526044820152fd5b600087815260046020526040902080546001600160a01b0319169055848352600381528b832080546000190190556112ee565b919394509150806113d0575b15611397578592918791386112c2565b8786886113b4576024915190637e27328960e01b82526004820152fd5b604491519063177e802f60e01b82523360048301526024820152fd5b5033871480156113f5575b806113875750858252600481523385898420541614611387565b5086825260058152878220338352815260ff88832054166113db565b604051633250574960e11b815260006004820152602490fd5b6000818152600260205260409020546001600160a01b031690811561144d575090565b60249060405190637e27328960e01b82526004820152fd5b3d15611490573d9061147682611012565b916114846040519384610ff0565b82523d6000602084013e565b606090565b9293823b6114a5575b5050505050565b6114e99060018060a01b038094169560405194859481630a85bd0160e11b988988521660048701521660248501526044840152608060648401526084830190610f33565b03906020816000938185885af190829082611569575b5050611537578261150e611465565b805191908261153057604051633250574960e11b815260048101839052602490fd5b6020915001fd5b6001600160e01b031916036115515750388080808061149e565b60249060405190633250574960e11b82526004820152fd5b909192506020813d82116115a9575b8161158560209383610ff0565b8101031261017a5751906001600160e01b03198216820361050b57509038806114ff565b3d9150611578565b156115b857565b60405162461bcd60e51b815260206004820152601260248201527113585e081cdd5c1c1b1e481c995858da195960721b6044820152606490fd5b60001981146116015760010190565b634e487b7160e01b600052601160045260246000fd5b90600a548061165a575b506110809060095480611647575b506116416008548094610bdc826115f2565b826118a7565b61165490600854106115b1565b3861162f565b34106116665738611621565b60405162461bcd60e51b8152602060048201526014602482015273125b9cdd59999a58da595b9d081c185e5b595b9d60621b6044820152606490fd5b60408051926116b084610fbe565b60008085526001600160a01b039484861694851561188f578383526020966002885285842054168487821515928361185c575b81875260038b528887208054600101905582875260028b5288872080546001600160a01b031916831790557fddf252ad1be2c89b69c2b068fc378daa952ba7f163c4a11628f55a4df523b3ef8780a4611844573b611744575b505050505050565b856117819185969798955180938192630a85bd0160e11b978884523360048501528760248501526044840152608060648401526084830190610f33565b0381858a5af190829082611800575b50506117c8575050506117a1611465565b80519390846117c2578251633250574960e11b815260048101859052602490fd5b84925001fd5b9194506001600160e01b0319909116036117e957505038808080808061173c565b602492505190633250574960e11b82526004820152fd5b909192508781813d831161183d575b6118198183610ff0565b8101031261017a5751906001600160e01b03198216820361050b5750903880611790565b503d61180f565b84516339e3563760e11b815260048101849052602490fd5b600083815260046020526040902080546001600160a01b031916905580875260038b5288872080546000190190556116e3565b8451633250574960e11b815260048101849052602490fd5b91909160009080825260209160068352604081209085519067ffffffffffffffff8211611a09576118d883546110c3565b601f81116119c6575b508490601f831160011461194257907ff8e1a15aba9398e019f0b49df1a4fde98ee17ae345cb5f6b5e2c27f5033e8ce7969783611937575b50508160011b916000199060031b1c19161790555b604051908152a1565b015190503880611919565b9196601f198816848452868420935b8181106119af57509160019391897ff8e1a15aba9398e019f0b49df1a4fde98ee17ae345cb5f6b5e2c27f5033e8ce7999a9410611996575b505050811b01905561192e565b015160001960f88460031b161c19169055388080611989565b929387600181928786015181550195019301611951565b838252858220601f840160051c8101918785106119ff575b601f0160051c01905b8181106119f457506118e1565b8281556001016119e7565b90915081906119de565b634e487b7160e01b81526041600452602490fd5b6020611138919392936040519481611a3e8793518092868087019101610f10565b8201611a5282518093868085019101610f10565b01038085520183610ff0565b611a678161142a565b5060008181526006602052611a7e604082206111bb565b611a866110fd565b805115611c38578151611c2b575050611a9e8261142a565b50611aa76110fd565b805190929015611c175780827a184f03e93ff9f4daa797ed6e38ed64bf6a1f0100000000000000008281811015611c09575b50506d04ee2d6d415b85acef810000000080841015611bfc575b50662386f26fc1000080841015611bef575b506305f5e10080841015611be2575b5061271080841015611bd5575b506064831015611bc7575b600a80931015611bbf575b90602191600192818480930196611b4d88611012565b97611b5b604051998a610ff0565b808952611b6a601f1991611012565b013660208a013750860101905b611b89575b5050505061108091611a1d565b600019019083906f181899199a1a9b1b9c1cb0b131b232b360811b8282061a835304918215611bba57919082611b77565b611b7c565b600101611b37565b916064600291049201611b2c565b6004919304920138611b21565b6008919304920138611b14565b6010919304920138611b05565b6020919304920138611af3565b049250604090503880611ad9565b506040519150611c2682610fbe565b815290565b9091506110809250611a1d565b509150509056fea2646970667358221220121a619b8dbfda29aa02487f1765e554d2843470d4ec48325727f66eb1d9f01264736f6c63430008140033",
  "linkReferences": {},
  "deployedLinkReferences": {}
}