{
  "_format": "hh-sol-artifact-1",
  "contractName": "LuxNFT",
  "sourceName": "src/templates/LuxNFT.sol",
  "abi": [
    {
      "inputs": [
        {
          "internalType": "string",
          "name": "name",
          "type": "string"
        },
        {
          "internalType": "string",
          "name": "symbol",
          "type": "string"
        },
        {
          "internalType": "uint256",
          "name": "_maxSupply",
          "type": "uint256"
        },
        {
          "internalType": "uint256",
          "name": "_mintPrice",
          "type": "uint256"
        }
      ],
      "stateMutability": "nonpayable",
      "type": "constructor"
    },
    {
      "inputs": [
        {
          "internalType": "address",
          "name": "sender",
          "type": "address"
        },
        {
          "internalType": "uint256",
          "name": "tokenId",
          "type": "uint256"
        },
        {
          "internalType": "address",
          "name": "owner",
          "type": "address"
        }
      ],
      "name": "ERC721IncorrectOwner",
      "type": "error"
    },
    {
      "inputs": [
        {
          "internalType": "address",
          "name": "operator",
          "type": "address"
        },
        {
          "internalType": "uint256",
          "name": "tokenId",
          "type": "uint256"
        }
      ],
      "name": "ERC721InsufficientApproval",
      "type": "error"
    },
    {
      "inputs": [
        {
          "internalType": "address",
          "name": "approver",
          "type": "address"
        }
      ],
      "name": "ERC721InvalidApprover",
      "type": "error"
    },
    {
      "inputs": [
        {
          "internalType": "address",
          "name": "operator",
          "type": "address"
        }
      ],
      "name": "ERC721InvalidOperator",
      "type": "error"
    },
    {
      "inputs": [
        {
          "internalType": "address",
          "name": "owner",
          "type": "address"
        }
      ],
      "name": "ERC721InvalidOwner",
      "type": "error"
    },
    {
      "inputs": [
        {
          "internalType": "address",
          "name": "receiver",
          "type": "address"
        }
      ],
      "name": "ERC721InvalidReceiver",
      "type": "error"
    },
    {
      "inputs": [
        {
          "internalType": "address",
          "name": "sender",
          "type": "address"
        }
      ],
      "name": "ERC721InvalidSender",
      "type": "error"
    },
    {
      "inputs": [
        {
          "internalType": "uint256",
          "name": "tokenId",
          "type": "uint256"
        }
      ],
      "name": "ERC721NonexistentToken",
      "type": "error"
    },
    {
      "inputs": [
        {
          "internalType": "address",
          "name": "owner",
          "type": "address"
        }
      ],
      "name": "OwnableInvalidOwner",
      "type": "error"
    },
    {
      "inputs": [
        {
          "internalType": "address",
          "name": "account",
          "type": "address"
        }
      ],
      "name": "OwnableUnauthorizedAccount",
      "type": "error"
    },
    {
      "anonymous": false,
      "inputs": [
        {
          "indexed": true,
          "internalType": "uint256",
          "name": "tokenId",
          "type": "uint256"
        },
        {
          "indexed": true,
          "internalType": "address",
          "name": "owner",
          "type": "address"
        },
        {
          "indexed": false,
          "internalType": "string",
          "name": "prompt",
          "type": "string"
        },
        {
          "indexed": false,
          "internalType": "bytes32",
          "name": "modelHash",
          "type": "bytes32"
        }
      ],
      "name": "AIGenerated",
      "type": "event"
    },
    {
      "anonymous": false,
      "inputs": [
        {
          "indexed": true,
          "internalType": "address",
          "name": "owner",
          "type": "address"
        },
        {
          "indexed": true,
          "internalType": "address",
          "name": "approved",
          "type": "address"
        },
        {
          "indexed": true,
          "internalType": "uint256",
          "name": "tokenId",
          "type": "uint256"
        }
      ],
      "name": "Approval",
      "type": "event"
    },
    {
      "anonymous": false,
      "inputs": [
        {
          "indexed": true,
          "internalType": "address",
          "name": "owner",
          "type": "address"
        },
        {
          "indexed": true,
          "internalType": "address",
          "name": "operator",
          "type": "address"
        },
        {
          "indexed": false,
          "internalType": "bool",
          "name": "approved",
          "type": "bool"
        }
      ],
      "name": "ApprovalForAll",
      "type": "event"
    },
    {
      "anonymous": false,
      "inputs": [
        {
          "indexed": false,
          "internalType": "uint256",
          "name": "_fromTokenId",
          "type": "uint256"
        },
        {
          "indexed": false,
          "internalType": "uint256",
          "name": "_toTokenId",
          "type": "uint256"
        }
      ],
      "name": "BatchMetadataUpdate",
      "type": "event"
    },
    {
      "anonymous": false,
      "inputs": [
        {
          "indexed": false,
          "internalType": "uint256",
          "name": "_tokenId",
          "type": "uint256"
        }
      ],
      "name": "MetadataUpdate",
      "type": "event"
    },
    {
      "anonymous": false,
      "inputs": [
        {
          "indexed": true,
          "internalType": "address",
          "name": "previousOwner",
          "type": "address"
        },
        {
          "indexed": true,
          "internalType": "address",
          "name": "newOwner",
          "type": "address"
        }
      ],
      "name": "OwnershipTransferred",
      "type": "event"
    },
    {
      "anonymous": false,
      "inputs": [
        {
          "indexed": true,
          "internalType": "address",
          "name": "from",
          "type": "address"
        },
        {
          "indexed": true,
          "internalType": "address",
          "name": "to",
          "type": "address"
        },
        {
          "indexed": true,
          "internalType": "uint256",
          "name": "tokenId",
          "type": "uint256"
        }
      ],
      "name": "Transfer",
      "type": "event"
    },
    {
      "inputs": [
        {
          "internalType": "address",
          "name": "to",
          "type": "address"
        },
        {
          "internalType": "uint256",
          "name": "tokenId",
          "type": "uint256"
        }
      ],
      "name": "approve",
      "outputs": [],
      "stateMutability": "nonpayable",
      "type": "function"
    },
    {
      "inputs": [
        {
          "internalType": "address",
          "name": "owner",
          "type": "address"
        }
      ],
      "name": "balanceOf",
      "outputs": [
        {
          "internalType": "uint256",
          "name": "",
          "type": "uint256"
        }
      ],
      "stateMutability": "view",
      "type": "function"
    },
    {
      "inputs": [
        {
          "internalType": "uint256",
          "name": "tokenId",
          "type": "uint256"
        }
      ],
      "name": "burn",
      "outputs": [],
      "stateMutability": "nonpayable",
      "type": "function"
    },
    {
      "inputs": [
        {
          "internalType": "uint256",
          "name": "tokenId",
          "type": "uint256"
        }
      ],
      "name": "getApproved",
      "outputs": [
        {
          "internalType": "address",
          "name": "",
          "type": "address"
        }
      ],
      "stateMutability": "view",
      "type": "function"
    },
    {
      "inputs": [
        {
          "internalType": "address",
          "name": "owner",
          "type": "address"
        },
        {
          "internalType": "address",
          "name": "operator",
          "type": "address"
        }
      ],
      "name": "isApprovedForAll",
      "outputs": [
        {
          "internalType": "bool",
          "name": "",
          "type": "bool"
        }
      ],
      "stateMutability": "view",
      "type": "function"
    },
    {
      "inputs": [],
      "name": "maxSupply",
      "outputs": [
        {
          "internalType": "uint256",
          "name": "",
          "type": "uint256"
        }
      ],
      "stateMutability": "view",
      "type": "function"
    },
    {
      "inputs": [
        {
          "internalType": "address",
          "name": "to",
          "type": "address"
        },
        {
          "internalType": "string",
          "name": "uri",
          "type": "string"
        }
      ],
      "name": "mint",
      "outputs": [
        {
          "internalType": "uint256",
          "name": "",
          "type": "uint256"
        }
      ],
      "stateMutability": "payable",
      "type": "function"
    },
    {
      "inputs": [],
      "name": "mintPrice",
      "outputs": [
        {
          "internalType": "uint256",
          "name": "",
          "type": "uint256"
        }
      ],
      "stateMutability": "view",
      "type": "function"
    },
    {
      "inputs": [
        {
          "internalType": "address",
          "name": "to",
          "type": "address"
        },
        {
          "internalType": "string",
          "name": "uri",
          "type": "string"
        },
        {
          "internalType": "string",
          "name": "prompt",
          "type": "string"
        },
        {
          "internalType": "bytes32",
          "name": "modelHash",
          "type": "bytes32"
        }
      ],
      "name": "mintWithAI",
      "outputs": [
        {
          "internalType": "uint256",
          "name": "",
          "type": "uint256"
        }
      ],
      "stateMutability": "payable",
      "type": "function"
    },
    {
      "inputs": [],
      "name": "name",
      "outputs": [
        {
          "internalType": "string",
          "name": "",
          "type": "string"
        }
      ],
      "stateMutability": "view",
      "type": "function"
    },
    {
      "inputs": [],
      "name": "owner",
      "outputs": [
        {
          "internalType": "address",
          "name": "",
          "type": "address"
        }
      ],
      "stateMutability": "view",
      "type": "function"
    },
    {
      "inputs": [
        {
          "internalType": "address",
          "name": "to",
          "type": "address"
        },
        {
          "internalType": "string",
          "name": "uri",
          "type": "string"
        }
      ],
      "name": "ownerMint",
      "outputs": [
        {
          "internalType": "uint256",
          "name": "",
          "type": "uint256"
        }
      ],
      "stateMutability": "nonpayable",
      "type": "function"
    },
    {
      "inputs": [
        {
          "internalType": "uint256",
          "name": "tokenId",
          "type": "uint256"
        }
      ],
      "name": "ownerOf",
      "outputs": [
        {
          "internalType": "address",
          "name": "",
          "type": "address"
        }
      ],
      "stateMutability": "view",
      "type": "function"
    },
    {
      "inputs": [],
      "name": "renounceOwnership",
      "outputs": [],
      "stateMutability": "nonpayable",
      "type": "function"
    },
    {
      "inputs": [
        {
          "internalType": "address",
          "name": "from",
          "type": "address"
        },
        {
          "internalType": "address",
          "name": "to",
          "type": "address"
        },
        {
          "internalType": "uint256",
          "name": "tokenId",
          "type": "uint256"
        }
      ],
      "name": "safeTransferFrom",
      "outputs": [],
      "stateMutability": "nonpayable",
      "type": "function"
    },
    {
      "inputs": [
        {
          "internalType": "address",
          "name": "from",
          "type": "address"
        },
        {
          "internalType": "address",
          "name": "to",
          "type": "address"
        },
        {
          "internalType": "uint256",
          "name": "tokenId",
          "type": "uint256"
        },
        {
          "internalType": "bytes",
          "name": "data",
          "type": "bytes"
        }
      ],
      "name": "safeTransferFrom",
      "outputs": [],
      "stateMutability": "nonpayable",
      "type": "function"
    },
    {
      "inputs": [
        {
          "internalType": "address",
          "name": "operator",
          "type": "address"
        },
        {
          "internalType": "bool",
          "name": "approved",
          "type": "bool"
        }
      ],
      "name": "setApprovalForAll",
      "outputs": [],
      "stateMutability": "nonpayable",
      "type": "function"
    },
    {
      "inputs": [
        {
          "internalType": "string",
          "name": "baseURI",
          "type": "string"
        }
      ],
      "name": "setBaseURI",
      "outputs": [],
      "stateMutability": "nonpayable",
      "type": "function"
    },
    {
      "inputs": [
        {
          "internalType": "uint256",
          "name": "_mintPrice",
          "type": "uint256"
        }
      ],
      "name": "setMintPrice",
      "outputs": [],
      "stateMutability": "nonpayable",
      "type": "function"
    },
    {
      "inputs": [
        {
          "internalType": "bytes4",
          "name": "interfaceId",
          "type": "bytes4"
        }
      ],
      "name": "supportsInterface",
      "outputs": [
        {
          "internalType": "bool",
          "name": "",
          "type": "bool"
        }
      ],
      "stateMutability": "view",
      "type": "function"
    },
    {
      "inputs": [],
      "name": "symbol",
      "outputs": [
        {
          "internalType": "string",
          "name": "",
          "type": "string"
        }
      ],
      "stateMutability": "view",
      "type": "function"
    },
    {
      "inputs": [
        {
          "internalType": "uint256",
          "name": "",
          "type": "uint256"
        }
      ],
      "name": "tokenModelHash",
      "outputs": [
        {
          "internalType": "bytes32",
          "name": "",
          "type": "bytes32"
        }
      ],
      "stateMutability": "view",
      "type": "function"
    },
    {
      "inputs": [
        {
          "internalType": "uint256",
          "name": "",
          "type": "uint256"
        }
      ],
      "name": "tokenPrompts",
      "outputs": [
        {
          "internalType": "string",
          "name": "",
          "type": "string"
        }
      ],
      "stateMutability": "view",
      "type": "function"
    },
    {
      "inputs": [
        {
          "internalType": "uint256",
          "name": "tokenId",
          "type": "uint256"
        }
      ],
      "name": "tokenURI",
      "outputs": [
        {
          "internalType": "string",
          "name": "",
          "type": "string"
        }
      ],
      "stateMutability": "view",
      "type": "function"
    },
    {
      "inputs": [],
      "name": "totalMinted",
      "outputs": [
        {
          "internalType": "uint256",
          "name": "",
          "type": "uint256"
        }
      ],
      "stateMutability": "view",
      "type": "function"
    },
    {
      "inputs": [
        {
          "internalType": "address",
          "name": "from",
          "type": "address"
        },
        {
          "internalType": "address",
          "name": "to",
          "type": "address"
        },
        {
          "internalType": "uint256",
          "name": "tokenId",
          "type": "uint256"
        }
      ],
      "name": "transferFrom",
      "outputs": [],
      "stateMutability": "nonpayable",
      "type": "function"
    },
    {
      "inputs": [
        {
          "internalType": "address",
          "name": "newOwner",
          "type": "address"
        }
      ],
      "name": "transferOwnership",
      "outputs": [],
      "stateMutability": "nonpayable",
      "type": "function"
    },
    {
      "inputs": [],
      "name": "withdraw",
      "outputs": [],
      "stateMutability": "nonpayable",
      "type": "function"
    }
  ],
  "bytecode": "0x60806040523480156200001157600080fd5b5060405162001e4138038062001e418339810160408190526200003491620001bb565b3384846000620000458382620002c4565b506001620000548282620002c4565b5050506001600160a01b0381166200008657604051631e4fbdf760e01b81526000600482015260240160405180910390fd5b6200009181620000a4565b50600991909155600a5550620003909050565b600780546001600160a01b038381166001600160a01b0319831681179093556040519116919082907f8be0079c531659141344cd1fd0a4f28419497f9722a3daafe3b4186f6b6457e090600090a35050565b634e487b7160e01b600052604160045260246000fd5b600082601f8301126200011e57600080fd5b81516001600160401b03808211156200013b576200013b620000f6565b604051601f8301601f19908116603f01168101908282118183101715620001665762000166620000f6565b816040528381526020925086838588010111156200018357600080fd5b600091505b83821015620001a7578582018301518183018401529082019062000188565b600093810190920192909252949350505050565b60008060008060808587031215620001d257600080fd5b84516001600160401b0380821115620001ea57600080fd5b620001f8888389016200010c565b955060208701519150808211156200020f57600080fd5b506200021e878288016200010c565b604087015160609097015195989097509350505050565b600181811c908216806200024a57607f821691505b6020821081036200026b57634e487b7160e01b600052602260045260246000fd5b50919050565b601f821115620002bf57600081815260208120601f850160051c810160208610156200029a5750805b601f850160051c820191505b81811015620002bb57828155600101620002a6565b5050505b505050565b81516001600160401b03811115620002e057620002e0620000f6565b620002f881620002f1845462000235565b8462000271565b602080601f831160018114620003305760008415620003175750858301515b600019600386901b1c1916600185901b178555620002bb565b600085815260208120601f198616915b82811015620003615788860151825594840194600190910190840162000340565b5085821015620003805787850151600019600388901b60f8161c191681555b5050505050600190811b01905550565b611aa180620003a06000396000f3fe6080604052600436106101b75760003560e01c8063715018a6116100ec578063c87b56dd1161008a578063e1e152a911610064578063e1e152a9146104b9578063e985e9c5146104cc578063f2fde38b146104ec578063f4a0a5281461050c57600080fd5b8063c87b56dd14610470578063d0def52114610490578063d5abeb01146104a357600080fd5b8063a22cb465116100c6578063a22cb465146103ee578063a2309ff81461040e578063b88d4fde14610423578063c70a7ee21461044357600080fd5b8063715018a6146103a65780638da5cb5b146103bb57806395d89b41146103d957600080fd5b806342842e0e1161015957806357349a961161013357806357349a96146103305780636352211e146103505780636817c76c1461037057806370a082311461038657600080fd5b806342842e0e146102d057806342966c68146102f057806355f804b31461031057600080fd5b8063095ea7b311610195578063095ea7b31461024b57806323b872dd1461026d5780633ccfd60b1461028d57806341d5b803146102a257600080fd5b806301ffc9a7146101bc57806306fdde03146101f1578063081812fc14610213575b600080fd5b3480156101c857600080fd5b506101dc6101d736600461148d565b61052c565b60405190151581526020015b60405180910390f35b3480156101fd57600080fd5b5061020661053d565b6040516101e891906114fa565b34801561021f57600080fd5b5061023361022e36600461150d565b6105cf565b6040516001600160a01b0390911681526020016101e8565b34801561025757600080fd5b5061026b610266366004611542565b6105f8565b005b34801561027957600080fd5b5061026b61028836600461156c565b610607565b34801561029957600080fd5b5061026b610697565b3480156102ae57600080fd5b506102c26102bd366004611654565b610780565b6040519081526020016101e8565b3480156102dc57600080fd5b5061026b6102eb36600461156c565b61080c565b3480156102fc57600080fd5b5061026b61030b36600461150d565b61082c565b34801561031c57600080fd5b5061026b61032b3660046116a2565b610838565b34801561033c57600080fd5b5061020661034b36600461150d565b61084c565b34801561035c57600080fd5b5061023361036b36600461150d565b6108e6565b34801561037c57600080fd5b506102c2600a5481565b34801561039257600080fd5b506102c26103a13660046116d7565b6108f1565b3480156103b257600080fd5b5061026b610939565b3480156103c757600080fd5b506007546001600160a01b0316610233565b3480156103e557600080fd5b5061020661094d565b3480156103fa57600080fd5b5061026b6104093660046116f2565b61095c565b34801561041a57600080fd5b506008546102c2565b34801561042f57600080fd5b5061026b61043e36600461172e565b610967565b34801561044f57600080fd5b506102c261045e36600461150d565b600d6020526000908152604090205481565b34801561047c57600080fd5b5061020661048b36600461150d565b61097f565b6102c261049e366004611654565b61098a565b3480156104af57600080fd5b506102c260095481565b6102c26104c73660046117aa565b6109de565b3480156104d857600080fd5b506101dc6104e7366004611826565b610a68565b3480156104f857600080fd5b5061026b6105073660046116d7565b610a96565b34801561051857600080fd5b5061026b61052736600461150d565b610ad4565b600061053782610ae1565b92915050565b60606000805461054c90611859565b80601f016020809104026020016040519081016040528092919081815260200182805461057890611859565b80156105c55780601f1061059a576101008083540402835291602001916105c5565b820191906000526020600020905b8154815290600101906020018083116105a857829003601f168201915b5050505050905090565b60006105da82610b06565b506000828152600460205260409020546001600160a01b0316610537565b610603828233610b3f565b5050565b6001600160a01b03821661063657604051633250574960e11b8152600060048201526024015b60405180910390fd5b6000610643838333610b4c565b9050836001600160a01b0316816001600160a01b031614610691576040516364283d7b60e01b81526001600160a01b038086166004830152602482018490528216604482015260640161062d565b50505050565b61069f610c45565b47806106da5760405162461bcd60e51b815260206004820152600a6024820152694e6f2062616c616e636560b01b604482015260640161062d565b60006106ee6007546001600160a01b031690565b6001600160a01b03168260405160006040518083038185875af1925050503d8060008114610738576040519150601f19603f3d011682016040523d82523d6000602084013e61073d565b606091505b50509050806106035760405162461bcd60e51b815260206004820152600f60248201526e151c985b9cd9995c8819985a5b1959608a1b604482015260640161062d565b600061078a610c45565b600954156107da57600954600854106107da5760405162461bcd60e51b815260206004820152601260248201527113585e081cdd5c1c1b1e481c995858da195960721b604482015260640161062d565b60088054600091826107eb83611893565b9190505590506107fb8482610c72565b6108058184610c8c565b9392505050565b61082783838360405180602001604052806000815250610967565b505050565b61060360008233610b4c565b610840610c45565b600b6106038282611900565b600c602052600090815260409020805461086590611859565b80601f016020809104026020016040519081016040528092919081815260200182805461089190611859565b80156108de5780601f106108b3576101008083540402835291602001916108de565b820191906000526020600020905b8154815290600101906020018083116108c157829003601f168201915b505050505081565b600061053782610b06565b60006001600160a01b03821661091d576040516322718ad960e21b81526000600482015260240161062d565b506001600160a01b031660009081526003602052604090205490565b610941610c45565b61094b6000610cdc565b565b60606001805461054c90611859565b610603338383610d2e565b610972848484610607565b6106913385858585610dcd565b606061053782610ef8565b600a546000901561078a57600a5434101561078a5760405162461bcd60e51b8152602060048201526014602482015273125b9cdd59999a58da595b9d081c185e5b595b9d60621b604482015260640161062d565b6000806109eb868661098a565b6000818152600c60205260409020909150610a068582611900565b506000818152600d602052604090819020849055516001600160a01b0387169082907f6d12c77a47c09c3ac7079de39279f81b148851afeafe00ff719b90bfbc7b2fae90610a5790889088906119c0565b60405180910390a395945050505050565b6001600160a01b03918216600090815260056020908152604080832093909416825291909152205460ff1690565b610a9e610c45565b6001600160a01b038116610ac857604051631e4fbdf760e01b81526000600482015260240161062d565b610ad181610cdc565b50565b610adc610c45565b600a55565b60006001600160e01b03198216632483248360e11b1480610537575061053782610ffc565b6000818152600260205260408120546001600160a01b03168061053757604051637e27328960e01b81526004810184905260240161062d565b610827838383600161104c565b6000828152600260205260408120546001600160a01b0390811690831615610b7957610b79818486611152565b6001600160a01b03811615610bb757610b9660008560008061104c565b6001600160a01b038116600090815260036020526040902080546000190190555b6001600160a01b03851615610be6576001600160a01b0385166000908152600360205260409020805460010190555b60008481526002602052604080822080546001600160a01b0319166001600160a01b0389811691821790925591518793918516917fddf252ad1be2c89b69c2b068fc378daa952ba7f163c4a11628f55a4df523b3ef91a4949350505050565b6007546001600160a01b0316331461094b5760405163118cdaa760e01b815233600482015260240161062d565b6106038282604051806020016040528060008152506111b6565b6000828152600660205260409020610ca48282611900565b506040518281527ff8e1a15aba9398e019f0b49df1a4fde98ee17ae345cb5f6b5e2c27f5033e8ce79060200160405180910390a15050565b600780546001600160a01b038381166001600160a01b0319831681179093556040519116919082907f8be0079c531659141344cd1fd0a4f28419497f9722a3daafe3b4186f6b6457e090600090a35050565b6001600160a01b038216610d6057604051630b61174360e31b81526001600160a01b038316600482015260240161062d565b6001600160a01b03838116600081815260056020908152604080832094871680845294825291829020805460ff191686151590811790915591519182527f17307eab39ab6107e8899845ad3d59bd9653f200f220920489ca2b5937696c31910160405180910390a3505050565b6001600160a01b0383163b15610ef157604051630a85bd0160e11b81526001600160a01b0384169063150b7a0290610e0f9088908890879087906004016119e2565b6020604051808303816000875af1925050508015610e4a575060408051601f3d908101601f19168201909252610e4791810190611a1f565b60015b610eb3573d808015610e78576040519150601f19603f3d011682016040523d82523d6000602084013e610e7d565b606091505b508051600003610eab57604051633250574960e11b81526001600160a01b038516600482015260240161062d565b805160208201fd5b6001600160e01b03198116630a85bd0160e11b14610eef57604051633250574960e11b81526001600160a01b038516600482015260240161062d565b505b5050505050565b6060610f0382610b06565b5060008281526006602052604081208054610f1d90611859565b80601f0160208091040260200160405190810160405280929190818152602001828054610f4990611859565b8015610f965780601f10610f6b57610100808354040283529160200191610f96565b820191906000526020600020905b815481529060010190602001808311610f7957829003601f168201915b505050505090506000610fa76111ce565b90508051600003610fb9575092915050565b815115610feb578082604051602001610fd3929190611a3c565b60405160208183030381529060405292505050919050565b610ff4846111dd565b949350505050565b60006001600160e01b031982166380ac58cd60e01b148061102d57506001600160e01b03198216635b5e139f60e01b145b8061053757506301ffc9a760e01b6001600160e01b0319831614610537565b808061106057506001600160a01b03821615155b1561112257600061107084610b06565b90506001600160a01b0383161580159061109c5750826001600160a01b0316816001600160a01b031614155b80156110af57506110ad8184610a68565b155b156110d85760405163a9fbf51f60e01b81526001600160a01b038416600482015260240161062d565b81156111205783856001600160a01b0316826001600160a01b03167f8c5be1e5ebec7d5bd14f71427d1e84f3dd0314c0f7b2291e5b200ac8c7c3b92560405160405180910390a45b505b5050600090815260046020526040902080546001600160a01b0319166001600160a01b0392909216919091179055565b61115d838383611244565b610827576001600160a01b03831661118b57604051637e27328960e01b81526004810182905260240161062d565b60405163177e802f60e01b81526001600160a01b03831660048201526024810182905260440161062d565b6111c083836112a7565b610827336000858585610dcd565b6060600b805461054c90611859565b60606111e882610b06565b5060006111f36111ce565b905060008151116112135760405180602001604052806000815250610805565b8061121d8461130c565b60405160200161122e929190611a3c565b6040516020818303038152906040529392505050565b60006001600160a01b03831615801590610ff45750826001600160a01b0316846001600160a01b0316148061127e575061127e8484610a68565b80610ff45750506000908152600460205260409020546001600160a01b03908116911614919050565b6001600160a01b0382166112d157604051633250574960e11b81526000600482015260240161062d565b60006112df83836000610b4c565b90506001600160a01b03811615610827576040516339e3563760e11b81526000600482015260240161062d565b606060006113198361139f565b600101905060008167ffffffffffffffff811115611339576113396115a8565b6040519080825280601f01601f191660200182016040528015611363576020820181803683370190505b5090508181016020015b600019016f181899199a1a9b1b9c1cb0b131b232b360811b600a86061a8153600a850494508461136d57509392505050565b60008072184f03e93ff9f4daa797ed6e38ed64bf6a1f0160401b83106113de5772184f03e93ff9f4daa797ed6e38ed64bf6a1f0160401b830492506040015b6d04ee2d6d415b85acef8100000000831061140a576d04ee2d6d415b85acef8100000000830492506020015b662386f26fc10000831061142857662386f26fc10000830492506010015b6305f5e1008310611440576305f5e100830492506008015b612710831061145457612710830492506004015b60648310611466576064830492506002015b600a83106105375760010192915050565b6001600160e01b031981168114610ad157600080fd5b60006020828403121561149f57600080fd5b813561080581611477565b60005b838110156114c55781810151838201526020016114ad565b50506000910152565b600081518084526114e68160208601602086016114aa565b601f01601f19169290920160200192915050565b60208152600061080560208301846114ce565b60006020828403121561151f57600080fd5b5035919050565b80356001600160a01b038116811461153d57600080fd5b919050565b6000806040838503121561155557600080fd5b61155e83611526565b946020939093013593505050565b60008060006060848603121561158157600080fd5b61158a84611526565b925061159860208501611526565b9150604084013590509250925092565b634e487b7160e01b600052604160045260246000fd5b600067ffffffffffffffff808411156115d9576115d96115a8565b604051601f8501601f19908116603f01168101908282118183101715611601576116016115a8565b8160405280935085815286868601111561161a57600080fd5b858560208301376000602087830101525050509392505050565b600082601f83011261164557600080fd5b610805838335602085016115be565b6000806040838503121561166757600080fd5b61167083611526565b9150602083013567ffffffffffffffff81111561168c57600080fd5b61169885828601611634565b9150509250929050565b6000602082840312156116b457600080fd5b813567ffffffffffffffff8111156116cb57600080fd5b610ff484828501611634565b6000602082840312156116e957600080fd5b61080582611526565b6000806040838503121561170557600080fd5b61170e83611526565b91506020830135801515811461172357600080fd5b809150509250929050565b6000806000806080858703121561174457600080fd5b61174d85611526565b935061175b60208601611526565b925060408501359150606085013567ffffffffffffffff81111561177e57600080fd5b8501601f8101871361178f57600080fd5b61179e878235602084016115be565b91505092959194509250565b600080600080608085870312156117c057600080fd5b6117c985611526565b9350602085013567ffffffffffffffff808211156117e657600080fd5b6117f288838901611634565b9450604087013591508082111561180857600080fd5b5061181587828801611634565b949793965093946060013593505050565b6000806040838503121561183957600080fd5b61184283611526565b915061185060208401611526565b90509250929050565b600181811c9082168061186d57607f821691505b60208210810361188d57634e487b7160e01b600052602260045260246000fd5b50919050565b6000600182016118b357634e487b7160e01b600052601160045260246000fd5b5060010190565b601f82111561082757600081815260208120601f850160051c810160208610156118e15750805b601f850160051c820191505b81811015610eef578281556001016118ed565b815167ffffffffffffffff81111561191a5761191a6115a8565b61192e816119288454611859565b846118ba565b602080601f831160018114611963576000841561194b5750858301515b600019600386901b1c1916600185901b178555610eef565b600085815260208120601f198616915b8281101561199257888601518255948401946001909101908401611973565b50858210156119b05787850151600019600388901b60f8161c191681555b5050505050600190811b01905550565b6040815260006119d360408301856114ce565b90508260208301529392505050565b6001600160a01b0385811682528416602082015260408101839052608060608201819052600090611a15908301846114ce565b9695505050505050565b600060208284031215611a3157600080fd5b815161080581611477565b60008351611a4e8184602088016114aa565b835190830190611a628183602088016114aa565b0194935050505056fea264697066735822122068537abf7deea07e71b50e62563bd1d72c8635c32cc7078c28db65e5b97b12c164736f6c63430008140033",
  "linkReferences": {},
  "deployedLinkReferences": {}
}