{"src/templates/ExampleGame.sol":{"ExampleGame":{"abi":[{"inputs":[{"internalType":"address","name":"_aiOracle","type":"address"},{"internalType":"bytes32","name":"_modelHash","type":"bytes32"}],"stateMutability":"nonpayable","type":"constructor"},{"anonymous":false,"inputs":[{"indexed":true,"internalType":"address","name":"player","type":"address"},{"indexed":false,"internalType":"uint256","name":"score","type":"uint256"},{"indexed":true,"internalType":"bytes32","name":"requestId","type":"bytes32"}],"name":"GameCompleted","type":"event"},{"anonymous":false,"inputs":[{"indexed":true,"internalType":"address","name":"player","type":"address"},{"indexed":true,"internalType":"bytes32","name":"requestId","type":"bytes32"}],"name":"GameFailed","type":"event"},{"anonymous":false,"inputs":[{"indexed":true,"internalType":"address","name":"player","type":"address"},{"indexed":true,"internalType":"bytes32","name":"requestId","type":"bytes32"}],"name":"GameRequested","type":"event"},{"inputs":[],"name":"aiOracle","outputs":[{"internalType":"contract AIOracle","name":"","type":"address"}],"stateMutability":"view","type":"function"},{"inputs":[{"internalType":"bytes32","name":"requestId","type":"bytes32"}],"name":"claimResult","outputs":[],"stateMutability":"nonpayable","type":"function"},{"inputs":[],"name":"gameModelHash","outputs":[{"internalType":"bytes32","name":"","type":"bytes32"}],"stateMutability":"view","type":"function"},{"inputs":[{"internalType":"bytes32","name":"requestId","type":"bytes32"}],"name":"getGameStatus","outputs":[{"internalType":"address","name":"player","type":"address"},{"internalType":"bool","name":"completed","type":"bool"}],"stateMutability":"view","type":"function"},{"inputs":[{"internalType":"address","name":"player","type":"address"}],"name":"getScore","outputs":[{"internalType":"uint256","name":"","type":"uint256"}],"stateMutability":"view","type":"function"},{"inputs":[{"internalType":"bytes32","name":"","type":"bytes32"}],"name":"pendingGames","outputs":[{"internalType":"address","name":"","type":"address"}],"stateMutability":"view","type":"function"},{"inputs":[{"internalType":"bytes","name":"playerMove","type":"bytes"}],"name":"play","outputs":[{"internalType":"bytes32","name":"","type":"bytes32"}],"stateMutability":"payable","type":"function"},{"inputs":[{"internalType":"address","name":"","type":"address"}],"name":"scores","outputs":[{"internalType":"uint256","name":"","type":"uint256"}],"stateMutability":"view","type":"function"},{"inputs":[],"name":"totalGames","outputs":[{"internalType":"uint256","name":"","type":"uint256"}],"stateMutability":"view","type":"function"},{"inputs":[{"internalType":"bytes32","name":"newModelHash","type":"bytes32"}],"name":"updateModel","outputs":[],"stateMutability":"nonpayable","type":"function"}],"evm":{"bytecode":{"linkReferences":{},"object":"60803461007c57601f6107cc38819003918201601f19168301916001600160401b0383118484101761008157808492604094855283398101031261007c5780516001600160a01b038116919082900361007c5760200151600080546001600160a01b03191690921790915560015560405161073490816100988239f35b600080fd5b634e487b7160e01b600052604160045260246000fdfe6080604081815260048036101561001557600080fd5b600092833560e01c908163146c638d1461057157508063226e52271461037d578063242cd2ca146103635780632c4e591b1461034657806331b221cd1461031e57806376dd110f146102e5578063a11ae76b146102b3578063c386cfe214610294578063cf0d56f4146100cd5763d47875d01461009157600080fd5b346100c95760203660031901126100c957356001600160a01b038116908190036100c957828291602094526002845220549051908152f35b8280fd5b5091903461029057602090816003193601126100c9578335808452600383528184205490926001600160a01b03918216929091831561025b573384036102285785602491815416835192838092632b7531e160e21b8252898c8301525afa801561021e57869187916101fa575b50156101c257610149906106da565b90838652600283528086208054908382018092116101af577fa8746280378f2628365c975fe01ab2d4d260003d0c3a5ab9433f4e787ce28067959697985055858752600383528087206bffffffffffffffffffffffff60a01b815416905551908152a380f35b634e487b7160e01b885260118952602488fd5b815162461bcd60e51b8152808801849052601260248201527111d85b59481b9bdd0818dbdb5c1b195d195960721b6044820152606490fd5b905061021891503d8088833e61021081836105fd565b810190610658565b3861013a565b82513d88823e3d90fd5b815162461bcd60e51b8152808801849052600d60248201526c4e6f7420796f75722067616d6560981b6044820152606490fd5b815162461bcd60e51b8152808801849052600f60248201526e155b9adb9bdddb881c995c5d595cdd608a1b6044820152606490fd5b5080fd5b5050346102905781600319360112610290576020906001549051908152f35b50346100c95760203660031901126100c95735825260036020908152918190205490516001600160a01b039091168152f35b50346100c95760203660031901126100c957356001600160a01b038116908190036100c957828291602094526002845220549051908152f35b505034610290578160031936011261029057905490516001600160a01b039091168152602090f35b50346100c957826003193601126100c95760209250549051908152f35b838234610290576020366003190112610290573560015580f35b508290602092836003193601126100c95781359167ffffffffffffffff80841161056d573660238501121561056d578382013590811161056d57366024828601011161056d5766038d7ea4c6800034106105325761046a601f879261042760c0875183819460248984019c8d33905260808d8601528260a086015201848401378b8382840101524360608301524260808301528519958691011681010360a08101845201826105fd565b608460018060a01b038954169260015490601f89519a8b9788968795630c4544a760e21b87528c8701526060602487015251809281606488015287870190610635565b8c60448501520116810103019134905af19283156105285784936104f5575b508284526003855281842080546001600160a01b03191633179055805460001981146104e25760010190555191819033907f341c593e0cefc3a29826c9a8e347a3a42699e66aa7e010bc99d34e97b479f4819080a38152f35b634e487b7160e01b855260118252602485fd5b9092508481813d8311610521575b61050d81836105fd565b8101031261051d57519185610489565b8380fd5b503d610503565b82513d86823e3d90fd5b5084606492519162461bcd60e51b83528201526016602482015275135a5b9a5b5d5b481cdd185ad9481c995c5d5a5c995960521b6044820152fd5b8480fd5b84915034610290576020366003190112610290578181602481863596878552600360205260018060a01b0397888a872054169886541691632b7531e160e21b84528301525afa9182156105f25780926105d5575b5050825191825215156020820152f35b6105e992503d8091833e61021081836105fd565b905083806105c5565b8451903d90823e3d90fd5b90601f8019910116810190811067ffffffffffffffff82111761061f57604052565b634e487b7160e01b600052604160045260246000fd5b60005b8381106106485750506000910152565b8181015183820152602001610638565b91906040838203126106d55782519067ffffffffffffffff918281116106d557840181601f820112156106d557805192831161061f57604051916106a6601f8501601f1916602001846105fd565b838352602084830101116106d5576020926106c691848085019101610635565b92015180151581036106d55790565b600080fd5b8051602081106106f75781602091810103126106d5576020015190565b5050600a9056fea2646970667358221220ea48339606561add2d7aadc7ac8b58168f5fabcc5d77d4a5e08dab487cce3c3464736f6c63430008140033","opcodes":"PUSH1 0x80 CALLVALUE PUSH2 0x7C JUMPI PUSH1 0x1F PUSH2 0x7CC CODESIZE DUP2 SWAP1 SUB SWAP2 DUP3 ADD PUSH1 0x1F NOT AND DUP4 ADD SWAP2 PUSH1 0x1 PUSH1 0x1 PUSH1 0x40 SHL SUB DUP4 GT DUP5 DUP5 LT OR PUSH2 0x81 JUMPI DUP1 DUP5 SWAP3 PUSH1 0x40 SWAP5 DUP6 MSTORE DUP4 CODECOPY DUP2 ADD SUB SLT PUSH2 0x7C JUMPI DUP1 MLOAD PUSH1 0x1 PUSH1 0x1 PUSH1 0xA0 SHL SUB DUP2 AND SWAP2 SWAP1 DUP3 SWAP1 SUB PUSH2 0x7C JUMPI PUSH1 0x20 ADD MLOAD PUSH1 0x0 DUP1 SLOAD PUSH1 0x1 PUSH1 0x1 PUSH1 0xA0 SHL SUB NOT AND SWAP1 SWAP3 OR SWAP1 SWAP2 SSTORE PUSH1 0x1 SSTORE PUSH1 0x40 MLOAD PUSH2 0x734 SWAP1 DUP2 PUSH2 0x98 DUP3 CODECOPY RETURN JUMPDEST PUSH1 0x0 DUP1 REVERT JUMPDEST PUSH4 0x4E487B71 PUSH1 0xE0 SHL PUSH1 0x0 MSTORE PUSH1 0x41 PUSH1 0x4 MSTORE PUSH1 0x24 PUSH1 0x0 REVERT INVALID PUSH1 0x80 PUSH1 0x40 DUP2 DUP2 MSTORE PUSH1 0x4 DUP1 CALLDATASIZE LT ISZERO PUSH2 0x15 JUMPI PUSH1 0x0 DUP1 REVERT JUMPDEST PUSH1 0x0 SWAP3 DUP4 CALLDATALOAD PUSH1 0xE0 SHR SWAP1 DUP2 PUSH4 0x146C638D EQ PUSH2 0x571 JUMPI POP DUP1 PUSH4 0x226E5227 EQ PUSH2 0x37D JUMPI DUP1 PUSH4 0x242CD2CA EQ PUSH2 0x363 JUMPI DUP1 PUSH4 0x2C4E591B EQ PUSH2 0x346 JUMPI DUP1 PUSH4 0x31B221CD EQ PUSH2 0x31E JUMPI DUP1 PUSH4 0x76DD110F EQ PUSH2 0x2E5 JUMPI DUP1 PUSH4 0xA11AE76B EQ PUSH2 0x2B3 JUMPI DUP1 PUSH4 0xC386CFE2 EQ PUSH2 0x294 JUMPI DUP1 PUSH4 0xCF0D56F4 EQ PUSH2 0xCD JUMPI PUSH4 0xD47875D0 EQ PUSH2 0x91 JUMPI PUSH1 0x0 DUP1 REVERT JUMPDEST CALLVALUE PUSH2 0xC9 JUMPI PUSH1 0x20 CALLDATASIZE PUSH1 0x3 NOT ADD SLT PUSH2 0xC9 JUMPI CALLDATALOAD PUSH1 0x1 PUSH1 0x1 PUSH1 0xA0 SHL SUB DUP2 AND SWAP1 DUP2 SWAP1 SUB PUSH2 0xC9 JUMPI DUP3 DUP3 SWAP2 PUSH1 0x20 SWAP5 MSTORE PUSH1 0x2 DUP5 MSTORE KECCAK256 SLOAD SWAP1 MLOAD SWAP1 DUP2 MSTORE RETURN JUMPDEST DUP3 DUP1 REVERT JUMPDEST POP SWAP2 SWAP1 CALLVALUE PUSH2 0x290 JUMPI PUSH1 0x20 SWAP1 DUP2 PUSH1 0x3 NOT CALLDATASIZE ADD SLT PUSH2 0xC9 JUMPI DUP4 CALLDATALOAD DUP1 DUP5 MSTORE PUSH1 0x3 DUP4 MSTORE DUP2 DUP5 KECCAK256 SLOAD SWAP1 SWAP3 PUSH1 0x1 PUSH1 0x1 PUSH1 0xA0 SHL SUB SWAP2 DUP3 AND SWAP3 SWAP1 SWAP2 DUP4 ISZERO PUSH2 0x25B JUMPI CALLER DUP5 SUB PUSH2 0x228 JUMPI DUP6 PUSH1 0x24 SWAP2 DUP2 SLOAD AND DUP4 MLOAD SWAP3 DUP4 DUP1 SWAP3 PUSH4 0x2B7531E1 PUSH1 0xE2 SHL DUP3 MSTORE DUP10 DUP13 DUP4 ADD MSTORE GAS STATICCALL DUP1 ISZERO PUSH2 0x21E JUMPI DUP7 SWAP2 DUP8 SWAP2 PUSH2 0x1FA JUMPI JUMPDEST POP ISZERO PUSH2 0x1C2 JUMPI PUSH2 0x149 SWAP1 PUSH2 0x6DA JUMP JUMPDEST SWAP1 DUP4 DUP7 MSTORE PUSH1 0x2 DUP4 MSTORE DUP1 DUP7 KECCAK256 DUP1 SLOAD SWAP1 DUP4 DUP3 ADD DUP1 SWAP3 GT PUSH2 0x1AF JUMPI PUSH32 0xA8746280378F2628365C975FE01AB2D4D260003D0C3A5AB9433F4E787CE28067 SWAP6 SWAP7 SWAP8 SWAP9 POP SSTORE DUP6 DUP8 MSTORE PUSH1 0x3 DUP4 MSTORE DUP1 DUP8 KECCAK256 PUSH12 0xFFFFFFFFFFFFFFFFFFFFFFFF PUSH1 0xA0 SHL DUP2 SLOAD AND SWAP1 SSTORE MLOAD SWAP1 DUP2 MSTORE LOG3 DUP1 RETURN JUMPDEST PUSH4 0x4E487B71 PUSH1 0xE0 SHL DUP9 MSTORE PUSH1 0x11 DUP10 MSTORE PUSH1 0x24 DUP9 REVERT JUMPDEST DUP2 MLOAD PUSH3 0x461BCD PUSH1 0xE5 SHL DUP2 MSTORE DUP1 DUP9 ADD DUP5 SWAP1 MSTORE PUSH1 0x12 PUSH1 0x24 DUP3 ADD MSTORE PUSH18 0x11D85B59481B9BDD0818DBDB5C1B195D1959 PUSH1 0x72 SHL PUSH1 0x44 DUP3 ADD MSTORE PUSH1 0x64 SWAP1 REVERT JUMPDEST SWAP1 POP PUSH2 0x218 SWAP2 POP RETURNDATASIZE DUP1 DUP9 DUP4 RETURNDATACOPY PUSH2 0x210 DUP2 DUP4 PUSH2 0x5FD JUMP JUMPDEST DUP2 ADD SWAP1 PUSH2 0x658 JUMP JUMPDEST CODESIZE PUSH2 0x13A JUMP JUMPDEST DUP3 MLOAD RETURNDATASIZE DUP9 DUP3 RETURNDATACOPY RETURNDATASIZE SWAP1 REVERT JUMPDEST DUP2 MLOAD PUSH3 0x461BCD PUSH1 0xE5 SHL DUP2 MSTORE DUP1 DUP9 ADD DUP5 SWAP1 MSTORE PUSH1 0xD PUSH1 0x24 DUP3 ADD MSTORE PUSH13 0x4E6F7420796F75722067616D65 PUSH1 0x98 SHL PUSH1 0x44 DUP3 ADD MSTORE PUSH1 0x64 SWAP1 REVERT JUMPDEST DUP2 MLOAD PUSH3 0x461BCD PUSH1 0xE5 SHL DUP2 MSTORE DUP1 DUP9 ADD DUP5 SWAP1 MSTORE PUSH1 0xF PUSH1 0x24 DUP3 ADD MSTORE PUSH15 0x155B9ADB9BDDDB881C995C5D595CDD PUSH1 0x8A SHL PUSH1 0x44 DUP3 ADD MSTORE PUSH1 0x64 SWAP1 REVERT JUMPDEST POP DUP1 REVERT JUMPDEST POP POP CALLVALUE PUSH2 0x290 JUMPI DUP2 PUSH1 0x3 NOT CALLDATASIZE ADD SLT PUSH2 0x290 JUMPI PUSH1 0x20 SWAP1 PUSH1 0x1 SLOAD SWAP1 MLOAD SWAP1 DUP2 MSTORE RETURN JUMPDEST POP CALLVALUE PUSH2 0xC9 JUMPI PUSH1 0x20 CALLDATASIZE PUSH1 0x3 NOT ADD SLT PUSH2 0xC9 JUMPI CALLDATALOAD DUP3 MSTORE PUSH1 0x3 PUSH1 0x20 SWAP1 DUP2 MSTORE SWAP2 DUP2 SWAP1 KECCAK256 SLOAD SWAP1 MLOAD PUSH1 0x1 PUSH1 0x1 PUSH1 0xA0 SHL SUB SWAP1 SWAP2 AND DUP2 MSTORE RETURN JUMPDEST POP CALLVALUE PUSH2 0xC9 JUMPI PUSH1 0x20 CALLDATASIZE PUSH1 0x3 NOT ADD SLT PUSH2 0xC9 JUMPI CALLDATALOAD PUSH1 0x1 PUSH1 0x1 PUSH1 0xA0 SHL SUB DUP2 AND SWAP1 DUP2 SWAP1 SUB PUSH2 0xC9 JUMPI DUP3 DUP3 SWAP2 PUSH1 0x20 SWAP5 MSTORE PUSH1 0x2 DUP5 MSTORE KECCAK256 SLOAD SWAP1 MLOAD SWAP1 DUP2 MSTORE RETURN JUMPDEST POP POP CALLVALUE PUSH2 0x290 JUMPI DUP2 PUSH1 0x3 NOT CALLDATASIZE ADD SLT PUSH2 0x290 JUMPI SWAP1 SLOAD SWAP1 MLOAD PUSH1 0x1 PUSH1 0x1 PUSH1 0xA0 SHL SUB SWAP1 SWAP2 AND DUP2 MSTORE PUSH1 0x20 SWAP1 RETURN JUMPDEST POP CALLVALUE PUSH2 0xC9 JUMPI DUP3 PUSH1 0x3 NOT CALLDATASIZE ADD SLT PUSH2 0xC9 JUMPI PUSH1 0x20 SWAP3 POP SLOAD SWAP1 MLOAD SWAP1 DUP2 MSTORE RETURN JUMPDEST DUP4 DUP3 CALLVALUE PUSH2 0x290 JUMPI PUSH1 0x20 CALLDATASIZE PUSH1 0x3 NOT ADD SLT PUSH2 0x290 JUMPI CALLDATALOAD PUSH1 0x1 SSTORE DUP1 RETURN JUMPDEST POP DUP3 SWAP1 PUSH1 0x20 SWAP3 DUP4 PUSH1 0x3 NOT CALLDATASIZE ADD SLT PUSH2 0xC9 JUMPI DUP2 CALLDATALOAD SWAP2 PUSH8 0xFFFFFFFFFFFFFFFF DUP1 DUP5 GT PUSH2 0x56D JUMPI CALLDATASIZE PUSH1 0x23 DUP6 ADD SLT ISZERO PUSH2 0x56D JUMPI DUP4 DUP3 ADD CALLDATALOAD SWAP1 DUP2 GT PUSH2 0x56D JUMPI CALLDATASIZE PUSH1 0x24 DUP3 DUP7 ADD ADD GT PUSH2 0x56D JUMPI PUSH7 0x38D7EA4C68000 CALLVALUE LT PUSH2 0x532 JUMPI PUSH2 0x46A PUSH1 0x1F DUP8 SWAP3 PUSH2 0x427 PUSH1 0xC0 DUP8 MLOAD DUP4 DUP2 SWAP5 PUSH1 0x24 DUP10 DUP5 ADD SWAP13 DUP14 CALLER SWAP1 MSTORE PUSH1 0x80 DUP14 DUP7 ADD MSTORE DUP3 PUSH1 0xA0 DUP7 ADD MSTORE ADD DUP5 DUP5 ADD CALLDATACOPY DUP12 DUP4 DUP3 DUP5 ADD ADD MSTORE NUMBER PUSH1 0x60 DUP4 ADD MSTORE TIMESTAMP PUSH1 0x80 DUP4 ADD MSTORE DUP6 NOT SWAP6 DUP7 SWAP2 ADD AND DUP2 ADD SUB PUSH1 0xA0 DUP2 ADD DUP5 MSTORE ADD DUP3 PUSH2 0x5FD JUMP JUMPDEST PUSH1 0x84 PUSH1 0x1 DUP1 PUSH1 0xA0 SHL SUB DUP10 SLOAD AND SWAP3 PUSH1 0x1 SLOAD SWAP1 PUSH1 0x1F DUP10 MLOAD SWAP11 DUP12 SWAP8 DUP9 SWAP7 DUP8 SWAP6 PUSH4 0xC4544A7 PUSH1 0xE2 SHL DUP8 MSTORE DUP13 DUP8 ADD MSTORE PUSH1 0x60 PUSH1 0x24 DUP8 ADD MSTORE MLOAD DUP1 SWAP3 DUP2 PUSH1 0x64 DUP9 ADD MSTORE DUP8 DUP8 ADD SWAP1 PUSH2 0x635 JUMP JUMPDEST DUP13 PUSH1 0x44 DUP6 ADD MSTORE ADD AND DUP2 ADD SUB ADD SWAP2 CALLVALUE SWAP1 GAS CALL SWAP3 DUP4 ISZERO PUSH2 0x528 JUMPI DUP5 SWAP4 PUSH2 0x4F5 JUMPI JUMPDEST POP DUP3 DUP5 MSTORE PUSH1 0x3 DUP6 MSTORE DUP2 DUP5 KECCAK256 DUP1 SLOAD PUSH1 0x1 PUSH1 0x1 PUSH1 0xA0 SHL SUB NOT AND CALLER OR SWAP1 SSTORE DUP1 SLOAD PUSH1 0x0 NOT DUP2 EQ PUSH2 0x4E2 JUMPI PUSH1 0x1 ADD SWAP1 SSTORE MLOAD SWAP2 DUP2 SWAP1 CALLER SWAP1 PUSH32 0x341C593E0CEFC3A29826C9A8E347A3A42699E66AA7E010BC99D34E97B479F481 SWAP1 DUP1 LOG3 DUP2 MSTORE RETURN JUMPDEST PUSH4 0x4E487B71 PUSH1 0xE0 SHL DUP6 MSTORE PUSH1 0x11 DUP3 MSTORE PUSH1 0x24 DUP6 REVERT JUMPDEST SWAP1 SWAP3 POP DUP5 DUP2 DUP2 RETURNDATASIZE DUP4 GT PUSH2 0x521 JUMPI JUMPDEST PUSH2 0x50D DUP2 DUP4 PUSH2 0x5FD JUMP JUMPDEST DUP2 ADD SUB SLT PUSH2 0x51D JUMPI MLOAD SWAP2 DUP6 PUSH2 0x489 JUMP JUMPDEST DUP4 DUP1 REVERT JUMPDEST POP RETURNDATASIZE PUSH2 0x503 JUMP JUMPDEST DUP3 MLOAD RETURNDATASIZE DUP7 DUP3 RETURNDATACOPY RETURNDATASIZE SWAP1 REVERT JUMPDEST POP DUP5 PUSH1 0x64 SWAP3 MLOAD SWAP2 PUSH3 0x461BCD PUSH1 0xE5 SHL DUP4 MSTORE DUP3 ADD MSTORE PUSH1 0x16 PUSH1 0x24 DUP3 ADD MSTORE PUSH22 0x135A5B9A5B5D5B481CDD185AD9481C995C5D5A5C9959 PUSH1 0x52 SHL PUSH1 0x44 DUP3 ADD MSTORE REVERT JUMPDEST DUP5 DUP1 REVERT JUMPDEST DUP5 SWAP2 POP CALLVALUE PUSH2 0x290 JUMPI PUSH1 0x20 CALLDATASIZE PUSH1 0x3 NOT ADD SLT PUSH2 0x290 JUMPI DUP2 DUP2 PUSH1 0x24 DUP2 DUP7 CALLDATALOAD SWAP7 DUP8 DUP6 MSTORE PUSH1 0x3 PUSH1 0x20 MSTORE PUSH1 0x1 DUP1 PUSH1 0xA0 SHL SUB SWAP8 DUP9 DUP11 DUP8 KECCAK256 SLOAD AND SWAP9 DUP7 SLOAD AND SWAP2 PUSH4 0x2B7531E1 PUSH1 0xE2 SHL DUP5 MSTORE DUP4 ADD MSTORE GAS STATICCALL SWAP2 DUP3 ISZERO PUSH2 0x5F2 JUMPI DUP1 SWAP3 PUSH2 0x5D5 JUMPI JUMPDEST POP POP DUP3 MLOAD SWAP2 DUP3 MSTORE ISZERO ISZERO PUSH1 0x20 DUP3 ADD MSTORE RETURN JUMPDEST PUSH2 0x5E9 SWAP3 POP RETURNDATASIZE DUP1 SWAP2 DUP4 RETURNDATACOPY PUSH2 0x210 DUP2 DUP4 PUSH2 0x5FD JUMP JUMPDEST SWAP1 POP DUP4 DUP1 PUSH2 0x5C5 JUMP JUMPDEST DUP5 MLOAD SWAP1 RETURNDATASIZE SWAP1 DUP3 RETURNDATACOPY RETURNDATASIZE SWAP1 REVERT JUMPDEST SWAP1 PUSH1 0x1F DUP1 NOT SWAP2 ADD AND DUP2 ADD SWAP1 DUP2 LT PUSH8 0xFFFFFFFFFFFFFFFF DUP3 GT OR PUSH2 0x61F JUMPI PUSH1 0x40 MSTORE JUMP JUMPDEST PUSH4 0x4E487B71 PUSH1 0xE0 SHL PUSH1 0x0 MSTORE PUSH1 0x41 PUSH1 0x4 MSTORE PUSH1 0x24 PUSH1 0x0 REVERT JUMPDEST PUSH1 0x0 JUMPDEST DUP4 DUP2 LT PUSH2 0x648 JUMPI POP POP PUSH1 0x0 SWAP2 ADD MSTORE JUMP JUMPDEST DUP2 DUP2 ADD MLOAD DUP4 DUP3 ADD MSTORE PUSH1 0x20 ADD PUSH2 0x638 JUMP JUMPDEST SWAP2 SWAP1 PUSH1 0x40 DUP4 DUP3 SUB SLT PUSH2 0x6D5 JUMPI DUP3 MLOAD SWAP1 PUSH8 0xFFFFFFFFFFFFFFFF SWAP2 DUP3 DUP2 GT PUSH2 0x6D5 JUMPI DUP5 ADD DUP2 PUSH1 0x1F DUP3 ADD SLT ISZERO PUSH2 0x6D5 JUMPI DUP1 MLOAD SWAP3 DUP4 GT PUSH2 0x61F JUMPI PUSH1 0x40 MLOAD SWAP2 PUSH2 0x6A6 PUSH1 0x1F DUP6 ADD PUSH1 0x1F NOT AND PUSH1 0x20 ADD DUP5 PUSH2 0x5FD JUMP JUMPDEST DUP4 DUP4 MSTORE PUSH1 0x20 DUP5 DUP4 ADD ADD GT PUSH2 0x6D5 JUMPI PUSH1 0x20 SWAP3 PUSH2 0x6C6 SWAP2 DUP5 DUP1 DUP6 ADD SWAP2 ADD PUSH2 0x635 JUMP JUMPDEST SWAP3 ADD MLOAD DUP1 ISZERO ISZERO DUP2 SUB PUSH2 0x6D5 JUMPI SWAP1 JUMP JUMPDEST PUSH1 0x0 DUP1 REVERT JUMPDEST DUP1 MLOAD PUSH1 0x20 DUP2 LT PUSH2 0x6F7 JUMPI DUP2 PUSH1 0x20 SWAP2 DUP2 ADD SUB SLT PUSH2 0x6D5 JUMPI PUSH1 0x20 ADD MLOAD SWAP1 JUMP JUMPDEST POP POP PUSH1 0xA SWAP1 JUMP INVALID LOG2 PUSH5 0x6970667358 0x22 SLT KECCAK256 0xEA BASEFEE CALLER SWAP7 MOD JUMP BYTE 0xDD 0x2D PUSH27 0xADC7AC8B58168F5FABCC5D77D4A5E08DAB487CCE3C3464736F6C63 NUMBER STOP ADDMOD EQ STOP CALLER "},"methodIdentifiers":{"aiOracle()":"31b221cd","claimResult(bytes32)":"cf0d56f4","gameModelHash()":"c386cfe2","getGameStatus(bytes32)":"146c638d","getScore(address)":"d47875d0","pendingGames(bytes32)":"a11ae76b","play(bytes)":"226e5227","scores(address)":"76dd110f","totalGames()":"2c4e591b","updateModel(bytes32)":"242cd2ca"}}}}}