{"src/templates/AIOracle.sol":{"AIOracle":{"abi":[{"inputs":[],"stateMutability":"nonpayable","type":"constructor"},{"inputs":[{"internalType":"address","name":"owner","type":"address"}],"name":"OwnableInvalidOwner","type":"error"},{"inputs":[{"internalType":"address","name":"account","type":"address"}],"name":"OwnableUnauthorizedAccount","type":"error"},{"inputs":[],"name":"ReentrancyGuardReentrantCall","type":"error"},{"anonymous":false,"inputs":[{"indexed":true,"internalType":"bytes32","name":"requestId","type":"bytes32"}],"name":"AIRequestCancelled","type":"event"},{"anonymous":false,"inputs":[{"indexed":true,"internalType":"bytes32","name":"requestId","type":"bytes32"},{"indexed":true,"internalType":"address","name":"requester","type":"address"},{"indexed":false,"internalType":"bytes32","name":"modelHash","type":"bytes32"},{"indexed":false,"internalType":"uint256","name":"reward","type":"uint256"}],"name":"AIRequestCreated","type":"event"},{"anonymous":false,"inputs":[{"indexed":true,"internalType":"bytes32","name":"requestId","type":"bytes32"}],"name":"AIRequestExpired","type":"event"},{"anonymous":false,"inputs":[{"indexed":true,"internalType":"bytes32","name":"requestId","type":"bytes32"},{"indexed":true,"internalType":"address","name":"fulfiller","type":"address"},{"indexed":false,"internalType":"bytes32","name":"proofHash","type":"bytes32"}],"name":"AIRequestFulfilled","type":"event"},{"anonymous":false,"inputs":[{"indexed":true,"internalType":"bytes32","name":"modelHash","type":"bytes32"}],"name":"ModelApproved","type":"event"},{"anonymous":false,"inputs":[{"indexed":true,"internalType":"bytes32","name":"modelHash","type":"bytes32"}],"name":"ModelRevoked","type":"event"},{"anonymous":false,"inputs":[{"indexed":true,"internalType":"address","name":"previousOwner","type":"address"},{"indexed":true,"internalType":"address","name":"newOwner","type":"address"}],"name":"OwnershipTransferred","type":"event"},{"inputs":[],"name":"accumulatedFees","outputs":[{"internalType":"uint256","name":"","type":"uint256"}],"stateMutability":"view","type":"function"},{"inputs":[{"internalType":"bytes32","name":"modelHash","type":"bytes32"}],"name":"approveModel","outputs":[],"stateMutability":"nonpayable","type":"function"},{"inputs":[{"internalType":"bytes32","name":"","type":"bytes32"}],"name":"approvedModels","outputs":[{"internalType":"bool","name":"","type":"bool"}],"stateMutability":"view","type":"function"},{"inputs":[{"internalType":"bytes32","name":"requestId","type":"bytes32"}],"name":"cancelRequest","outputs":[],"stateMutability":"nonpayable","type":"function"},{"inputs":[],"name":"defaultTimeout","outputs":[{"internalType":"uint256","name":"","type":"uint256"}],"stateMutability":"view","type":"function"},{"inputs":[{"internalType":"bytes32","name":"requestId","type":"bytes32"},{"internalType":"bytes","name":"result","type":"bytes"},{"internalType":"bytes32","name":"proofHash","type":"bytes32"}],"name":"fulfillRequest","outputs":[],"stateMutability":"nonpayable","type":"function"},{"inputs":[{"internalType":"bytes32","name":"requestId","type":"bytes32"}],"name":"getRequest","outputs":[{"components":[{"internalType":"address","name":"requester","type":"address"},{"internalType":"bytes32","name":"modelHash","type":"bytes32"},{"internalType":"bytes","name":"inputData","type":"bytes"},{"internalType":"uint256","name":"reward","type":"uint256"},{"internalType":"uint256","name":"createdAt","type":"uint256"},{"internalType":"uint256","name":"deadline","type":"uint256"},{"internalType":"enum AIOracle.RequestStatus","name":"status","type":"uint8"},{"internalType":"bytes","name":"result","type":"bytes"},{"internalType":"address","name":"fulfiller","type":"address"},{"internalType":"bytes32","name":"proofHash","type":"bytes32"}],"internalType":"struct AIOracle.AIRequest","name":"","type":"tuple"}],"stateMutability":"view","type":"function"},{"inputs":[{"internalType":"bytes32","name":"requestId","type":"bytes32"}],"name":"getResult","outputs":[{"internalType":"bytes","name":"result","type":"bytes"},{"internalType":"bool","name":"completed","type":"bool"}],"stateMutability":"view","type":"function"},{"inputs":[{"internalType":"address","name":"user","type":"address"}],"name":"getUserRequests","outputs":[{"internalType":"bytes32[]","name":"","type":"bytes32[]"}],"stateMutability":"view","type":"function"},{"inputs":[{"internalType":"bytes32","name":"modelHash","type":"bytes32"}],"name":"isModelApproved","outputs":[{"internalType":"bool","name":"","type":"bool"}],"stateMutability":"view","type":"function"},{"inputs":[{"internalType":"bytes32","name":"requestId","type":"bytes32"}],"name":"markExpired","outputs":[],"stateMutability":"nonpayable","type":"function"},{"inputs":[],"name":"minFulfillerStake","outputs":[{"internalType":"uint256","name":"","type":"uint256"}],"stateMutability":"view","type":"function"},{"inputs":[],"name":"owner","outputs":[{"internalType":"address","name":"","type":"address"}],"stateMutability":"view","type":"function"},{"inputs":[],"name":"protocolFeeBps","outputs":[{"internalType":"uint256","name":"","type":"uint256"}],"stateMutability":"view","type":"function"},{"inputs":[],"name":"renounceOwnership","outputs":[],"stateMutability":"nonpayable","type":"function"},{"inputs":[{"internalType":"bytes32","name":"modelHash","type":"bytes32"},{"internalType":"bytes","name":"inputData","type":"bytes"},{"internalType":"uint256","name":"timeout","type":"uint256"}],"name":"requestAI","outputs":[{"internalType":"bytes32","name":"","type":"bytes32"}],"stateMutability":"payable","type":"function"},{"inputs":[],"name":"requestCount","outputs":[{"internalType":"uint256","name":"","type":"uint256"}],"stateMutability":"view","type":"function"},{"inputs":[{"internalType":"bytes32","name":"","type":"bytes32"}],"name":"requests","outputs":[{"internalType":"address","name":"requester","type":"address"},{"internalType":"bytes32","name":"modelHash","type":"bytes32"},{"internalType":"bytes","name":"inputData","type":"bytes"},{"internalType":"uint256","name":"reward","type":"uint256"},{"internalType":"uint256","name":"createdAt","type":"uint256"},{"internalType":"uint256","name":"deadline","type":"uint256"},{"internalType":"enum AIOracle.RequestStatus","name":"status","type":"uint8"},{"internalType":"bytes","name":"result","type":"bytes"},{"internalType":"address","name":"fulfiller","type":"address"},{"internalType":"bytes32","name":"proofHash","type":"bytes32"}],"stateMutability":"view","type":"function"},{"inputs":[{"internalType":"bytes32","name":"modelHash","type":"bytes32"}],"name":"revokeModel","outputs":[],"stateMutability":"nonpayable","type":"function"},{"inputs":[{"internalType":"uint256","name":"_timeout","type":"uint256"}],"name":"setDefaultTimeout","outputs":[],"stateMutability":"nonpayable","type":"function"},{"inputs":[{"internalType":"uint256","name":"_feeBps","type":"uint256"}],"name":"setProtocolFee","outputs":[],"stateMutability":"nonpayable","type":"function"},{"inputs":[{"internalType":"address","name":"_verifier","type":"address"}],"name":"setZkMLVerifier","outputs":[],"stateMutability":"nonpayable","type":"function"},{"inputs":[{"internalType":"address","name":"newOwner","type":"address"}],"name":"transferOwnership","outputs":[],"stateMutability":"nonpayable","type":"function"},{"inputs":[{"internalType":"address","name":"","type":"address"},{"internalType":"uint256","name":"","type":"uint256"}],"name":"userRequests","outputs":[{"internalType":"bytes32","name":"","type":"bytes32"}],"stateMutability":"view","type":"function"},{"inputs":[],"name":"withdrawFees","outputs":[],"stateMutability":"nonpayable","type":"function"},{"inputs":[],"name":"zkmlVerifier","outputs":[{"internalType":"address","name":"","type":"address"}],"stateMutability":"view","type":"function"}],"evm":{"bytecode":{"linkReferences":{},"object":"608080604052346100885733156100725760008054336001600160a01b03198216811783556040519290916001600160a01b0316907f8be0079c531659141344cd1fd0a4f28419497f9722a3daafe3b4186f6b6457e09080a360018055606460065560646007556117bb908161008e8239f35b631e4fbdf760e01b815260006004820152602490fd5b600080fdfe6080604052600436101561001257600080fd5b60003560e01c8063066655ef1461147a57806309f3f5661461145c57806321c39b361461143e578063263cb6b6146113e55780632c6c5866146113715780633115129c14610dde57806335659fb814610dc05780633c81339414610d97578063476343ee14610d4f5780634b7716e314610cf35780634b9f24d81461038b5780635012554614610c0b578063587f5ed714610bed5780635badbe4c14610bcf578063715018a614610b76578063717909b914610b1d578063787dce3d14610abf57806382ae0f97146106c057806387e0aeb2146105d05780638da5cb5b146105a75780639d866985146104d3578063add4c78414610470578063b337cf74146103bc578063da185c921461038b578063f2fde38b146103025763fb1e61ca1461013a57600080fd5b346102fd5760203660031901126102fd57600061012060405161015c81611569565b828152826020820152606060408201528260608201528260808201528260a08201528260c0820152606060e082015282610100820152015260043560005260026020526040600020604051906101b182611569565b80546001600160a01b03168252600181015460208301526101d4600282016115a8565b60408301526003810154606083015260048101546080830152600581015460a083015260ff6006820154169060048210156102e75760099160c084015261021d600782016115a8565b60e084015260018060a01b03600882015416610100840152015461012082015260405180916020825260018060a01b0381511660208301526020810151604083015260408101516101206102c96102826101409384606088015261016087019061164e565b60608501516080870152608085015160a087015260a085015160c08701526102b260c086015160e088019061168e565b60e0850151868203601f190161010088015261164e565b6101008401516001600160a01b031685830152920151908301520390f35b634e487b7160e01b600052602160045260246000fd5b600080fd5b346102fd5760203660031901126102fd5761031b6114bd565b61032361169b565b6001600160a01b0390811690811561037257600054826001600160601b0360a01b821617600055167f8be0079c531659141344cd1fd0a4f28419497f9722a3daafe3b4186f6b6457e0600080a3005b604051631e4fbdf760e01b815260006004820152602490fd5b346102fd5760203660031901126102fd576004356000526004602052602060ff604060002054166040519015158152f35b346102fd576020806003193601126102fd576001600160a01b036103de6114bd565b1660005260038152604060002060405190818382549182815201908192600052846000209060005b8682821061045c57868661041c82880383611586565b604051928392818401908285525180915260408401929160005b82811061044557505050500390f35b835185528695509381019392810192600101610436565b835485529093019260019283019201610406565b346102fd5760203660031901126102fd576004356000526002602052604060002060ff60068201541660048110156102e7576104b160076104c893016115a8565b90600160405193849360408552604085019061164e565b911460208301520390f35b346102fd5760203660031901126102fd576004356000526002602052604060002060018060a01b03908181541690600181015492610596610516600284016115a8565b916003840154906105896004860154600587015460ff6006890154169161056f600961054460078c016115a8565b9660088c0154169a0154986040519c8d9c8d5260208d015260408c61014091829101528c019061164e565b9560608b015260808a015260a089015260c088019061168e565b85820360e087015261164e565b916101008401526101208301520390f35b346102fd5760003660031901126102fd576000546040516001600160a01b039091168152602090f35b346102fd5760203660031901126102fd576004358060005260026020526040600020600681019081549160ff831660048110156102e757610611901561174b565b600582015443111561068957600080809381936002889760ff1916179055600360018060a01b0382541691015490828215610680575bf115610674577f6fe0249982ec39ff41cbe0301e6c114eca4ebb1720320066b62d957f1163cbaa600080a2005b6040513d6000823e3d90fd5b506108fc610647565b60405162461bcd60e51b815260206004820152600f60248201526e139bdd08195e1c1a5c9959081e595d608a1b6044820152606490fd5b346102fd5760603660031901126102fd57602467ffffffffffffffff60043582358281116102fd576106f6903690600401611501565b92909360443593610705611728565b8360005260209260028452604060002091600683019760ff8954166004811015610aaa57610733901561174b565b60058401544311610a74578115610a4157600a546001600160a01b031680151580610a38575b61090c575b506001988960ff19825416179055600784019282116108f75761078b82610785855461152f565b856116d4565b600090601f831160011461088f5760039493929160009183610884575b505060001982861b1c191690891b1790555b60088101336001600160601b0360a01b825416179055856009820155015460075480820290828204148215171561086f5761271090048082039282841161085b57506000809381938361081084956008546116c7565b600855839114610852575b3390f115610674577fb68acaadc409e87420a9dda716aca513f181d79ba21500902a72b44122acc5a4906040519384523393a38055005b506108fc61081b565b634e487b7160e01b60009081526011600452fd5b82634e487b7160e01b60005260116004526000fd5b013590508a806107a8565b918991949392601f1982169084600052886000209160005b8a8282106108e15750509683600398106108c9575b505050811b0190556107ba565b013560001983881b60f8161c191690558a80806108bc565b838a01358555988901988e9690940193016108a7565b84634e487b7160e01b60005260416004526000fd5b6001850154604051918a89840152888352604083019183831087841117610a2357604091839182845263e2dd674560e01b83526044860152608060648601528660c4860152868660e4870137600060e4888701015281600061098560e4601f19601f8c0116890160a08a82030160848b0152018861164e565b600260a4890152879003603f1901925af1918215610674576000926109eb575b5050156109b2578961075e565b60405162461bcd60e51b8152600481018790526012818701527124b73b30b634b2103d35a6a610383937b7b360711b6044820152606490fd5b6040809293503d8311610a1c575b610a038185611586565b810103126102fd575180151581036102fd578a806109a5565b503d6109f9565b88634e487b7160e01b60005260416004526000fd5b50881515610759565b60405162461bcd60e51b815260048101879052600c818701526b115b5c1d1e481c995cdd5b1d60a21b6044820152606490fd5b60405162461bcd60e51b815260048101879052600f818701526e14995c5d595cdd08195e1c1a5c9959608a1b6044820152606490fd5b85634e487b7160e01b60005260216004526000fd5b346102fd5760203660031901126102fd57600435610adb61169b565b6103e88111610ae957600755005b60405162461bcd60e51b815260206004820152600c60248201526b08ccaca40e8dede40d0d2ced60a31b6044820152606490fd5b346102fd5760203660031901126102fd57600435610b3961169b565b806000526004602052604060002060ff1981541690557f0ce0cd684ed1c15a1013dab20bed811fa182d3e28342b5be924d2cef7a103bb1600080a2005b346102fd5760003660031901126102fd57610b8f61169b565b600080546001600160a01b0319811682556001600160a01b03167f8be0079c531659141344cd1fd0a4f28419497f9722a3daafe3b4186f6b6457e08280a3005b346102fd5760003660031901126102fd576020600954604051908152f35b346102fd5760003660031901126102fd576020600854604051908152f35b346102fd5760203660031901126102fd57600435610c27611728565b600081815260026020526040902080546001600160a01b03163303610cbe57600681019081549160ff831660048110156102e7576000600381948294828998610c7186971561174b565b60ff19161790550154818115610cb5575b3390f115610674577f1f29b89ae1587d701cb5136665b2e833ac2fc99ddb4481e1083ade509bcfeac1600080a260018055005b506108fc610c82565b60405162461bcd60e51b815260206004820152600d60248201526c2737ba103932b8bab2b9ba32b960991b6044820152606490fd5b346102fd5760203660031901126102fd57600435610d0f61169b565b8060005260046020526040600020600160ff198254161790557f6d29aa35cc15482f5e65960776a66652041832392a7d89e3f1488b4e40d15284600080a2005b346102fd5760003660031901126102fd57610d6861169b565b60008080806008548160085560018060a01b03825416828215610d8e575bf11561067457005b506108fc610d86565b346102fd5760003660031901126102fd57600a546040516001600160a01b039091168152602090f35b346102fd5760003660031901126102fd576020600754604051908152f35b60603660031901126102fd5760243567ffffffffffffffff81116102fd57610e0a903690600401611501565b9060443590610e17611728565b341561133957600435600052600460205260ff604060002054168015611325575b156112eb5782156112b857612710831161128157600954600019811461126b576001810160095560405160208101913360601b8352600435603483015242605483015260748201526074815260a0810181811067ffffffffffffffff82111761114e5760405251902091801561125f57610eb3905b436116c7565b604051916020830183811067ffffffffffffffff82111761114e576040526000835260405194610ee286611569565b338652600435602087015267ffffffffffffffff811161114e5760405191610f14601f8301601f191660200184611586565b81835236828201116102fd57816000926020928386013783010152604085015234606085015242608085015260a0840152600060c084015260e083015260006101008301526000610120830152806000526002602052604060002060018060a01b038351166001600160601b0360a01b82541617815560208301516001820155604083015192835167ffffffffffffffff811161114e57610fc581610fbc600286015461152f565b600286016116d4565b6020601f82116001146111f05781929394956000926111e5575b50508160011b916000199060031b1c19161760028301555b606081015160038301556080810151600483015560a081015160058301556006820160c082015160048110156102e75760ff8019835416911617905560e081015180519067ffffffffffffffff821161114e576110648261105b600787015461152f565b600787016116d4565b602090601f831160011461116f5791806009949261012094600092611164575b50508160011b916000199060031b1c19161760078501555b6008840160018060a01b03610100830151166001600160601b0360a01b82541617905501519101553360005260036020526040600020908154916801000000000000000083101561114e57826110f99160016020950181556114d3565b81549060031b9083821b91600019901b191617905560405160043581523483820152817f73379e0eb0a8c43416b93a5ad73c8f23ed1b510614ad484efdad08b000e357a960403393a360018055604051908152f35b634e487b7160e01b600052604160045260246000fd5b015190508780611084565b906007850160005260206000209160005b601f19851681106111cd575092600994926001926101209583601f198116106111b4575b505050811b01600785015561109c565b015160001960f88460031b161c191690558780806111a4565b91926020600181928685015181550194019201611180565b015190508580610fdf565b6002840160005260206000209060005b601f1984168110611247575060019394959683601f1981161061122e575b505050811b016002830155610ff7565b015160001960f88460031b161c1916905585808061121e565b9091602060018192858b015181550193019101611200565b50610eb3600654610ead565b634e487b7160e01b600052601160045260246000fd5b60405162461bcd60e51b815260206004820152600f60248201526e496e70757420746f6f206c6172676560881b6044820152606490fd5b60405162461bcd60e51b815260206004820152600b60248201526a115b5c1d1e481a5b9c1d5d60aa1b6044820152606490fd5b60405162461bcd60e51b8152602060048201526012602482015271135bd9195b081b9bdd08185c1c1c9bdd995960721b6044820152606490fd5b506000546001600160a01b03163314610e38565b60405162461bcd60e51b815260206004820152601060248201526f14185e5b595b9d081c995c5d5a5c995960821b6044820152606490fd5b346102fd5760203660031901126102fd5760043561138d61169b565b600a811015806113d9575b156113a257600655005b60405162461bcd60e51b815260206004820152600f60248201526e125b9d985b1a59081d1a5b595bdd5d608a1b6044820152606490fd5b50612710811115611398565b346102fd5760403660031901126102fd576113fe6114bd565b6001600160a01b03166000908152600360205260409020805460243591908210156102fd5760209161142f916114d3565b90549060031b1c604051908152f35b346102fd5760003660031901126102fd576020600554604051908152f35b346102fd5760003660031901126102fd576020600654604051908152f35b346102fd5760203660031901126102fd576114936114bd565b61149b61169b565b600a80546001600160a01b0319166001600160a01b0392909216919091179055005b600435906001600160a01b03821682036102fd57565b80548210156114eb5760005260206000200190600090565b634e487b7160e01b600052603260045260246000fd5b9181601f840112156102fd5782359167ffffffffffffffff83116102fd57602083818601950101116102fd57565b90600182811c9216801561155f575b602083101461154957565b634e487b7160e01b600052602260045260246000fd5b91607f169161153e565b610140810190811067ffffffffffffffff82111761114e57604052565b90601f8019910116810190811067ffffffffffffffff82111761114e57604052565b90604051918260008254926115bc8461152f565b90818452600194858116908160001461162b57506001146115e8575b50506115e692500383611586565b565b9093915060005260209081600020936000915b8183106116135750506115e6935082010138806115d8565b855488840185015294850194879450918301916115fb565b9150506115e694506020925060ff191682840152151560051b82010138806115d8565b919082519283825260005b84811061167a575050826000602080949584010152601f8019910116010190565b602081830181015184830182015201611659565b9060048210156102e75752565b6000546001600160a01b031633036116af57565b60405163118cdaa760e01b8152336004820152602490fd5b9190820180921161126b57565b90601f81116116e257505050565b600091825260208220906020601f850160051c8301941061171e575b601f0160051c01915b82811061171357505050565b818155600101611707565b90925082906116fe565b600260015414611739576002600155565b604051633ee5aeb560e01b8152600490fd5b1561175257565b60405162461bcd60e51b815260206004820152600b60248201526a4e6f742070656e64696e6760a81b6044820152606490fdfea26469706673582212207c265facd623aad4d947f90682d5e62925a1ba71bffaefd4b221a378273af17d64736f6c63430008140033","opcodes":"PUSH1 0x80 DUP1 PUSH1 0x40 MSTORE CALLVALUE PUSH2 0x88 JUMPI CALLER ISZERO PUSH2 0x72 JUMPI PUSH1 0x0 DUP1 SLOAD CALLER PUSH1 0x1 PUSH1 0x1 PUSH1 0xA0 SHL SUB NOT DUP3 AND DUP2 OR DUP4 SSTORE PUSH1 0x40 MLOAD SWAP3 SWAP1 SWAP2 PUSH1 0x1 PUSH1 0x1 PUSH1 0xA0 SHL SUB AND SWAP1 PUSH32 0x8BE0079C531659141344CD1FD0A4F28419497F9722A3DAAFE3B4186F6B6457E0 SWAP1 DUP1 LOG3 PUSH1 0x1 DUP1 SSTORE PUSH1 0x64 PUSH1 0x6 SSTORE PUSH1 0x64 PUSH1 0x7 SSTORE PUSH2 0x17BB SWAP1 DUP2 PUSH2 0x8E DUP3 CODECOPY RETURN JUMPDEST PUSH4 0x1E4FBDF7 PUSH1 0xE0 SHL DUP2 MSTORE PUSH1 0x0 PUSH1 0x4 DUP3 ADD MSTORE PUSH1 0x24 SWAP1 REVERT JUMPDEST PUSH1 0x0 DUP1 REVERT INVALID PUSH1 0x80 PUSH1 0x40 MSTORE PUSH1 0x4 CALLDATASIZE LT ISZERO PUSH2 0x12 JUMPI PUSH1 0x0 DUP1 REVERT JUMPDEST PUSH1 0x0 CALLDATALOAD PUSH1 0xE0 SHR DUP1 PUSH4 0x66655EF EQ PUSH2 0x147A JUMPI DUP1 PUSH4 0x9F3F566 EQ PUSH2 0x145C JUMPI DUP1 PUSH4 0x21C39B36 EQ PUSH2 0x143E JUMPI DUP1 PUSH4 0x263CB6B6 EQ PUSH2 0x13E5 JUMPI DUP1 PUSH4 0x2C6C5866 EQ PUSH2 0x1371 JUMPI DUP1 PUSH4 0x3115129C EQ PUSH2 0xDDE JUMPI DUP1 PUSH4 0x35659FB8 EQ PUSH2 0xDC0 JUMPI DUP1 PUSH4 0x3C813394 EQ PUSH2 0xD97 JUMPI DUP1 PUSH4 0x476343EE EQ PUSH2 0xD4F JUMPI DUP1 PUSH4 0x4B7716E3 EQ PUSH2 0xCF3 JUMPI DUP1 PUSH4 0x4B9F24D8 EQ PUSH2 0x38B JUMPI DUP1 PUSH4 0x50125546 EQ PUSH2 0xC0B JUMPI DUP1 PUSH4 0x587F5ED7 EQ PUSH2 0xBED JUMPI DUP1 PUSH4 0x5BADBE4C EQ PUSH2 0xBCF JUMPI DUP1 PUSH4 0x715018A6 EQ PUSH2 0xB76 JUMPI DUP1 PUSH4 0x717909B9 EQ PUSH2 0xB1D JUMPI DUP1 PUSH4 0x787DCE3D EQ PUSH2 0xABF JUMPI DUP1 PUSH4 0x82AE0F97 EQ PUSH2 0x6C0 JUMPI DUP1 PUSH4 0x87E0AEB2 EQ PUSH2 0x5D0 JUMPI DUP1 PUSH4 0x8DA5CB5B EQ PUSH2 0x5A7 JUMPI DUP1 PUSH4 0x9D866985 EQ PUSH2 0x4D3 JUMPI DUP1 PUSH4 0xADD4C784 EQ PUSH2 0x470 JUMPI DUP1 PUSH4 0xB337CF74 EQ PUSH2 0x3BC JUMPI DUP1 PUSH4 0xDA185C92 EQ PUSH2 0x38B JUMPI DUP1 PUSH4 0xF2FDE38B EQ PUSH2 0x302 JUMPI PUSH4 0xFB1E61CA EQ PUSH2 0x13A JUMPI PUSH1 0x0 DUP1 REVERT JUMPDEST CALLVALUE PUSH2 0x2FD JUMPI PUSH1 0x20 CALLDATASIZE PUSH1 0x3 NOT ADD SLT PUSH2 0x2FD JUMPI PUSH1 0x0 PUSH2 0x120 PUSH1 0x40 MLOAD PUSH2 0x15C DUP2 PUSH2 0x1569 JUMP JUMPDEST DUP3 DUP2 MSTORE DUP3 PUSH1 0x20 DUP3 ADD MSTORE PUSH1 0x60 PUSH1 0x40 DUP3 ADD MSTORE DUP3 PUSH1 0x60 DUP3 ADD MSTORE DUP3 PUSH1 0x80 DUP3 ADD MSTORE DUP3 PUSH1 0xA0 DUP3 ADD MSTORE DUP3 PUSH1 0xC0 DUP3 ADD MSTORE PUSH1 0x60 PUSH1 0xE0 DUP3 ADD MSTORE DUP3 PUSH2 0x100 DUP3 ADD MSTORE ADD MSTORE PUSH1 0x4 CALLDATALOAD PUSH1 0x0 MSTORE PUSH1 0x2 PUSH1 0x20 MSTORE PUSH1 0x40 PUSH1 0x0 KECCAK256 PUSH1 0x40 MLOAD SWAP1 PUSH2 0x1B1 DUP3 PUSH2 0x1569 JUMP JUMPDEST DUP1 SLOAD PUSH1 0x1 PUSH1 0x1 PUSH1 0xA0 SHL SUB AND DUP3 MSTORE PUSH1 0x1 DUP2 ADD SLOAD PUSH1 0x20 DUP4 ADD MSTORE PUSH2 0x1D4 PUSH1 0x2 DUP3 ADD PUSH2 0x15A8 JUMP JUMPDEST PUSH1 0x40 DUP4 ADD MSTORE PUSH1 0x3 DUP2 ADD SLOAD PUSH1 0x60 DUP4 ADD MSTORE PUSH1 0x4 DUP2 ADD SLOAD PUSH1 0x80 DUP4 ADD MSTORE PUSH1 0x5 DUP2 ADD SLOAD PUSH1 0xA0 DUP4 ADD MSTORE PUSH1 0xFF PUSH1 0x6 DUP3 ADD SLOAD AND SWAP1 PUSH1 0x4 DUP3 LT ISZERO PUSH2 0x2E7 JUMPI PUSH1 0x9 SWAP2 PUSH1 0xC0 DUP5 ADD MSTORE PUSH2 0x21D PUSH1 0x7 DUP3 ADD PUSH2 0x15A8 JUMP JUMPDEST PUSH1 0xE0 DUP5 ADD MSTORE PUSH1 0x1 DUP1 PUSH1 0xA0 SHL SUB PUSH1 0x8 DUP3 ADD SLOAD AND PUSH2 0x100 DUP5 ADD MSTORE ADD SLOAD PUSH2 0x120 DUP3 ADD MSTORE PUSH1 0x40 MLOAD DUP1 SWAP2 PUSH1 0x20 DUP3 MSTORE PUSH1 0x1 DUP1 PUSH1 0xA0 SHL SUB DUP2 MLOAD AND PUSH1 0x20 DUP4 ADD MSTORE PUSH1 0x20 DUP2 ADD MLOAD PUSH1 0x40 DUP4 ADD MSTORE PUSH1 0x40 DUP2 ADD MLOAD PUSH2 0x120 PUSH2 0x2C9 PUSH2 0x282 PUSH2 0x140 SWAP4 DUP5 PUSH1 0x60 DUP9 ADD MSTORE PUSH2 0x160 DUP8 ADD SWAP1 PUSH2 0x164E JUMP JUMPDEST PUSH1 0x60 DUP6 ADD MLOAD PUSH1 0x80 DUP8 ADD MSTORE PUSH1 0x80 DUP6 ADD MLOAD PUSH1 0xA0 DUP8 ADD MSTORE PUSH1 0xA0 DUP6 ADD MLOAD PUSH1 0xC0 DUP8 ADD MSTORE PUSH2 0x2B2 PUSH1 0xC0 DUP7 ADD MLOAD PUSH1 0xE0 DUP9 ADD SWAP1 PUSH2 0x168E JUMP JUMPDEST PUSH1 0xE0 DUP6 ADD MLOAD DUP7 DUP3 SUB PUSH1 0x1F NOT ADD PUSH2 0x100 DUP9 ADD MSTORE PUSH2 0x164E JUMP JUMPDEST PUSH2 0x100 DUP5 ADD MLOAD PUSH1 0x1 PUSH1 0x1 PUSH1 0xA0 SHL SUB AND DUP6 DUP4 ADD MSTORE SWAP3 ADD MLOAD SWAP1 DUP4 ADD MSTORE SUB SWAP1 RETURN JUMPDEST PUSH4 0x4E487B71 PUSH1 0xE0 SHL PUSH1 0x0 MSTORE PUSH1 0x21 PUSH1 0x4 MSTORE PUSH1 0x24 PUSH1 0x0 REVERT JUMPDEST PUSH1 0x0 DUP1 REVERT JUMPDEST CALLVALUE PUSH2 0x2FD JUMPI PUSH1 0x20 CALLDATASIZE PUSH1 0x3 NOT ADD SLT PUSH2 0x2FD JUMPI PUSH2 0x31B PUSH2 0x14BD JUMP JUMPDEST PUSH2 0x323 PUSH2 0x169B JUMP JUMPDEST PUSH1 0x1 PUSH1 0x1 PUSH1 0xA0 SHL SUB SWAP1 DUP2 AND SWAP1 DUP2 ISZERO PUSH2 0x372 JUMPI PUSH1 0x0 SLOAD DUP3 PUSH1 0x1 PUSH1 0x1 PUSH1 0x60 SHL SUB PUSH1 0xA0 SHL DUP3 AND OR PUSH1 0x0 SSTORE AND PUSH32 0x8BE0079C531659141344CD1FD0A4F28419497F9722A3DAAFE3B4186F6B6457E0 PUSH1 0x0 DUP1 LOG3 STOP JUMPDEST PUSH1 0x40 MLOAD PUSH4 0x1E4FBDF7 PUSH1 0xE0 SHL DUP2 MSTORE PUSH1 0x0 PUSH1 0x4 DUP3 ADD MSTORE PUSH1 0x24 SWAP1 REVERT JUMPDEST CALLVALUE PUSH2 0x2FD JUMPI PUSH1 0x20 CALLDATASIZE PUSH1 0x3 NOT ADD SLT PUSH2 0x2FD JUMPI PUSH1 0x4 CALLDATALOAD PUSH1 0x0 MSTORE PUSH1 0x4 PUSH1 0x20 MSTORE PUSH1 0x20 PUSH1 0xFF PUSH1 0x40 PUSH1 0x0 KECCAK256 SLOAD AND PUSH1 0x40 MLOAD SWAP1 ISZERO ISZERO DUP2 MSTORE RETURN JUMPDEST CALLVALUE PUSH2 0x2FD JUMPI PUSH1 0x20 DUP1 PUSH1 0x3 NOT CALLDATASIZE ADD SLT PUSH2 0x2FD JUMPI PUSH1 0x1 PUSH1 0x1 PUSH1 0xA0 SHL SUB PUSH2 0x3DE PUSH2 0x14BD JUMP JUMPDEST AND PUSH1 0x0 MSTORE PUSH1 0x3 DUP2 MSTORE PUSH1 0x40 PUSH1 0x0 KECCAK256 PUSH1 0x40 MLOAD SWAP1 DUP2 DUP4 DUP3 SLOAD SWAP2 DUP3 DUP2 MSTORE ADD SWAP1 DUP2 SWAP3 PUSH1 0x0 MSTORE DUP5 PUSH1 0x0 KECCAK256 SWAP1 PUSH1 0x0 JUMPDEST DUP7 DUP3 DUP3 LT PUSH2 0x45C JUMPI DUP7 DUP7 PUSH2 0x41C DUP3 DUP9 SUB DUP4 PUSH2 0x1586 JUMP JUMPDEST PUSH1 0x40 MLOAD SWAP3 DUP4 SWAP3 DUP2 DUP5 ADD SWAP1 DUP3 DUP6 MSTORE MLOAD DUP1 SWAP2 MSTORE PUSH1 0x40 DUP5 ADD SWAP3 SWAP2 PUSH1 0x0 JUMPDEST DUP3 DUP2 LT PUSH2 0x445 JUMPI POP POP POP POP SUB SWAP1 RETURN JUMPDEST DUP4 MLOAD DUP6 MSTORE DUP7 SWAP6 POP SWAP4 DUP2 ADD SWAP4 SWAP3 DUP2 ADD SWAP3 PUSH1 0x1 ADD PUSH2 0x436 JUMP JUMPDEST DUP4 SLOAD DUP6 MSTORE SWAP1 SWAP4 ADD SWAP3 PUSH1 0x1 SWAP3 DUP4 ADD SWAP3 ADD PUSH2 0x406 JUMP JUMPDEST CALLVALUE PUSH2 0x2FD JUMPI PUSH1 0x20 CALLDATASIZE PUSH1 0x3 NOT ADD SLT PUSH2 0x2FD JUMPI PUSH1 0x4 CALLDATALOAD PUSH1 0x0 MSTORE PUSH1 0x2 PUSH1 0x20 MSTORE PUSH1 0x40 PUSH1 0x0 KECCAK256 PUSH1 0xFF PUSH1 0x6 DUP3 ADD SLOAD AND PUSH1 0x4 DUP2 LT ISZERO PUSH2 0x2E7 JUMPI PUSH2 0x4B1 PUSH1 0x7 PUSH2 0x4C8 SWAP4 ADD PUSH2 0x15A8 JUMP JUMPDEST SWAP1 PUSH1 0x1 PUSH1 0x40 MLOAD SWAP4 DUP5 SWAP4 PUSH1 0x40 DUP6 MSTORE PUSH1 0x40 DUP6 ADD SWAP1 PUSH2 0x164E JUMP JUMPDEST SWAP2 EQ PUSH1 0x20 DUP4 ADD MSTORE SUB SWAP1 RETURN JUMPDEST CALLVALUE PUSH2 0x2FD JUMPI PUSH1 0x20 CALLDATASIZE PUSH1 0x3 NOT ADD SLT PUSH2 0x2FD JUMPI PUSH1 0x4 CALLDATALOAD PUSH1 0x0 MSTORE PUSH1 0x2 PUSH1 0x20 MSTORE PUSH1 0x40 PUSH1 0x0 KECCAK256 PUSH1 0x1 DUP1 PUSH1 0xA0 SHL SUB SWAP1 DUP2 DUP2 SLOAD AND SWAP1 PUSH1 0x1 DUP2 ADD SLOAD SWAP3 PUSH2 0x596 PUSH2 0x516 PUSH1 0x2 DUP5 ADD PUSH2 0x15A8 JUMP JUMPDEST SWAP2 PUSH1 0x3 DUP5 ADD SLOAD SWAP1 PUSH2 0x589 PUSH1 0x4 DUP7 ADD SLOAD PUSH1 0x5 DUP8 ADD SLOAD PUSH1 0xFF PUSH1 0x6 DUP10 ADD SLOAD AND SWAP2 PUSH2 0x56F PUSH1 0x9 PUSH2 0x544 PUSH1 0x7 DUP13 ADD PUSH2 0x15A8 JUMP JUMPDEST SWAP7 PUSH1 0x8 DUP13 ADD SLOAD AND SWAP11 ADD SLOAD SWAP9 PUSH1 0x40 MLOAD SWAP13 DUP14 SWAP13 DUP14 MSTORE PUSH1 0x20 DUP14 ADD MSTORE PUSH1 0x40 DUP13 PUSH2 0x140 SWAP2 DUP3 SWAP2 ADD MSTORE DUP13 ADD SWAP1 PUSH2 0x164E JUMP JUMPDEST SWAP6 PUSH1 0x60 DUP12 ADD MSTORE PUSH1 0x80 DUP11 ADD MSTORE PUSH1 0xA0 DUP10 ADD MSTORE PUSH1 0xC0 DUP9 ADD SWAP1 PUSH2 0x168E JUMP JUMPDEST DUP6 DUP3 SUB PUSH1 0xE0 DUP8 ADD MSTORE PUSH2 0x164E JUMP JUMPDEST SWAP2 PUSH2 0x100 DUP5 ADD MSTORE PUSH2 0x120 DUP4 ADD MSTORE SUB SWAP1 RETURN JUMPDEST CALLVALUE PUSH2 0x2FD JUMPI PUSH1 0x0 CALLDATASIZE PUSH1 0x3 NOT ADD SLT PUSH2 0x2FD JUMPI PUSH1 0x0 SLOAD PUSH1 0x40 MLOAD PUSH1 0x1 PUSH1 0x1 PUSH1 0xA0 SHL SUB SWAP1 SWAP2 AND DUP2 MSTORE PUSH1 0x20 SWAP1 RETURN JUMPDEST CALLVALUE PUSH2 0x2FD JUMPI PUSH1 0x20 CALLDATASIZE PUSH1 0x3 NOT ADD SLT PUSH2 0x2FD JUMPI PUSH1 0x4 CALLDATALOAD DUP1 PUSH1 0x0 MSTORE PUSH1 0x2 PUSH1 0x20 MSTORE PUSH1 0x40 PUSH1 0x0 KECCAK256 PUSH1 0x6 DUP2 ADD SWAP1 DUP2 SLOAD SWAP2 PUSH1 0xFF DUP4 AND PUSH1 0x4 DUP2 LT ISZERO PUSH2 0x2E7 JUMPI PUSH2 0x611 SWAP1 ISZERO PUSH2 0x174B JUMP JUMPDEST PUSH1 0x5 DUP3 ADD SLOAD NUMBER GT ISZERO PUSH2 0x689 JUMPI PUSH1 0x0 DUP1 DUP1 SWAP4 DUP2 SWAP4 PUSH1 0x2 DUP9 SWAP8 PUSH1 0xFF NOT AND OR SWAP1 SSTORE PUSH1 0x3 PUSH1 0x1 DUP1 PUSH1 0xA0 SHL SUB DUP3 SLOAD AND SWAP2 ADD SLOAD SWAP1 DUP3 DUP3 ISZERO PUSH2 0x680 JUMPI JUMPDEST CALL ISZERO PUSH2 0x674 JUMPI PUSH32 0x6FE0249982EC39FF41CBE0301E6C114ECA4EBB1720320066B62D957F1163CBAA PUSH1 0x0 DUP1 LOG2 STOP JUMPDEST PUSH1 0x40 MLOAD RETURNDATASIZE PUSH1 0x0 DUP3 RETURNDATACOPY RETURNDATASIZE SWAP1 REVERT JUMPDEST POP PUSH2 0x8FC PUSH2 0x647 JUMP JUMPDEST PUSH1 0x40 MLOAD PUSH3 0x461BCD PUSH1 0xE5 SHL DUP2 MSTORE PUSH1 0x20 PUSH1 0x4 DUP3 ADD MSTORE PUSH1 0xF PUSH1 0x24 DUP3 ADD MSTORE PUSH15 0x139BDD08195E1C1A5C9959081E595D PUSH1 0x8A SHL PUSH1 0x44 DUP3 ADD MSTORE PUSH1 0x64 SWAP1 REVERT JUMPDEST CALLVALUE PUSH2 0x2FD JUMPI PUSH1 0x60 CALLDATASIZE PUSH1 0x3 NOT ADD SLT PUSH2 0x2FD JUMPI PUSH1 0x24 PUSH8 0xFFFFFFFFFFFFFFFF PUSH1 0x4 CALLDATALOAD DUP3 CALLDATALOAD DUP3 DUP2 GT PUSH2 0x2FD JUMPI PUSH2 0x6F6 SWAP1 CALLDATASIZE SWAP1 PUSH1 0x4 ADD PUSH2 0x1501 JUMP JUMPDEST SWAP3 SWAP1 SWAP4 PUSH1 0x44 CALLDATALOAD SWAP4 PUSH2 0x705 PUSH2 0x1728 JUMP JUMPDEST DUP4 PUSH1 0x0 MSTORE PUSH1 0x20 SWAP3 PUSH1 0x2 DUP5 MSTORE PUSH1 0x40 PUSH1 0x0 KECCAK256 SWAP2 PUSH1 0x6 DUP4 ADD SWAP8 PUSH1 0xFF DUP10 SLOAD AND PUSH1 0x4 DUP2 LT ISZERO PUSH2 0xAAA JUMPI PUSH2 0x733 SWAP1 ISZERO PUSH2 0x174B JUMP JUMPDEST PUSH1 0x5 DUP5 ADD SLOAD NUMBER GT PUSH2 0xA74 JUMPI DUP2 ISZERO PUSH2 0xA41 JUMPI PUSH1 0xA SLOAD PUSH1 0x1 PUSH1 0x1 PUSH1 0xA0 SHL SUB AND DUP1 ISZERO ISZERO DUP1 PUSH2 0xA38 JUMPI JUMPDEST PUSH2 0x90C JUMPI JUMPDEST POP PUSH1 0x1 SWAP9 DUP10 PUSH1 0xFF NOT DUP3 SLOAD AND OR SWAP1 SSTORE PUSH1 0x7 DUP5 ADD SWAP3 DUP3 GT PUSH2 0x8F7 JUMPI PUSH2 0x78B DUP3 PUSH2 0x785 DUP6 SLOAD PUSH2 0x152F JUMP JUMPDEST DUP6 PUSH2 0x16D4 JUMP JUMPDEST PUSH1 0x0 SWAP1 PUSH1 0x1F DUP4 GT PUSH1 0x1 EQ PUSH2 0x88F JUMPI PUSH1 0x3 SWAP5 SWAP4 SWAP3 SWAP2 PUSH1 0x0 SWAP2 DUP4 PUSH2 0x884 JUMPI JUMPDEST POP POP PUSH1 0x0 NOT DUP3 DUP7 SHL SHR NOT AND SWAP1 DUP10 SHL OR SWAP1 SSTORE JUMPDEST PUSH1 0x8 DUP2 ADD CALLER PUSH1 0x1 PUSH1 0x1 PUSH1 0x60 SHL SUB PUSH1 0xA0 SHL DUP3 SLOAD AND OR SWAP1 SSTORE DUP6 PUSH1 0x9 DUP3 ADD SSTORE ADD SLOAD PUSH1 0x7 SLOAD DUP1 DUP3 MUL SWAP1 DUP3 DUP3 DIV EQ DUP3 ISZERO OR ISZERO PUSH2 0x86F JUMPI PUSH2 0x2710 SWAP1 DIV DUP1 DUP3 SUB SWAP3 DUP3 DUP5 GT PUSH2 0x85B JUMPI POP PUSH1 0x0 DUP1 SWAP4 DUP2 SWAP4 DUP4 PUSH2 0x810 DUP5 SWAP6 PUSH1 0x8 SLOAD PUSH2 0x16C7 JUMP JUMPDEST PUSH1 0x8 SSTORE DUP4 SWAP2 EQ PUSH2 0x852 JUMPI JUMPDEST CALLER SWAP1 CALL ISZERO PUSH2 0x674 JUMPI PUSH32 0xB68ACAADC409E87420A9DDA716ACA513F181D79BA21500902A72B44122ACC5A4 SWAP1 PUSH1 0x40 MLOAD SWAP4 DUP5 MSTORE CALLER SWAP4 LOG3 DUP1 SSTORE STOP JUMPDEST POP PUSH2 0x8FC PUSH2 0x81B JUMP JUMPDEST PUSH4 0x4E487B71 PUSH1 0xE0 SHL PUSH1 0x0 SWAP1 DUP2 MSTORE PUSH1 0x11 PUSH1 0x4 MSTORE REVERT JUMPDEST DUP3 PUSH4 0x4E487B71 PUSH1 0xE0 SHL PUSH1 0x0 MSTORE PUSH1 0x11 PUSH1 0x4 MSTORE PUSH1 0x0 REVERT JUMPDEST ADD CALLDATALOAD SWAP1 POP DUP11 DUP1 PUSH2 0x7A8 JUMP JUMPDEST SWAP2 DUP10 SWAP2 SWAP5 SWAP4 SWAP3 PUSH1 0x1F NOT DUP3 AND SWAP1 DUP5 PUSH1 0x0 MSTORE DUP9 PUSH1 0x0 KECCAK256 SWAP2 PUSH1 0x0 JUMPDEST DUP11 DUP3 DUP3 LT PUSH2 0x8E1 JUMPI POP POP SWAP7 DUP4 PUSH1 0x3 SWAP9 LT PUSH2 0x8C9 JUMPI JUMPDEST POP POP POP DUP2 SHL ADD SWAP1 SSTORE PUSH2 0x7BA JUMP JUMPDEST ADD CALLDATALOAD PUSH1 0x0 NOT DUP4 DUP9 SHL PUSH1 0xF8 AND SHR NOT AND SWAP1 SSTORE DUP11 DUP1 DUP1 PUSH2 0x8BC JUMP JUMPDEST DUP4 DUP11 ADD CALLDATALOAD DUP6 SSTORE SWAP9 DUP10 ADD SWAP9 DUP15 SWAP7 SWAP1 SWAP5 ADD SWAP4 ADD PUSH2 0x8A7 JUMP JUMPDEST DUP5 PUSH4 0x4E487B71 PUSH1 0xE0 SHL PUSH1 0x0 MSTORE PUSH1 0x41 PUSH1 0x4 MSTORE PUSH1 0x0 REVERT JUMPDEST PUSH1 0x1 DUP6 ADD SLOAD PUSH1 0x40 MLOAD SWAP2 DUP11 DUP10 DUP5 ADD MSTORE DUP9 DUP4 MSTORE PUSH1 0x40 DUP4 ADD SWAP2 DUP4 DUP4 LT DUP8 DUP5 GT OR PUSH2 0xA23 JUMPI PUSH1 0x40 SWAP2 DUP4 SWAP2 DUP3 DUP5 MSTORE PUSH4 0xE2DD6745 PUSH1 0xE0 SHL DUP4 MSTORE PUSH1 0x44 DUP7 ADD MSTORE PUSH1 0x80 PUSH1 0x64 DUP7 ADD MSTORE DUP7 PUSH1 0xC4 DUP7 ADD MSTORE DUP7 DUP7 PUSH1 0xE4 DUP8 ADD CALLDATACOPY PUSH1 0x0 PUSH1 0xE4 DUP9 DUP8 ADD ADD MSTORE DUP2 PUSH1 0x0 PUSH2 0x985 PUSH1 0xE4 PUSH1 0x1F NOT PUSH1 0x1F DUP13 ADD AND DUP10 ADD PUSH1 0xA0 DUP11 DUP3 SUB ADD PUSH1 0x84 DUP12 ADD MSTORE ADD DUP9 PUSH2 0x164E JUMP JUMPDEST PUSH1 0x2 PUSH1 0xA4 DUP10 ADD MSTORE DUP8 SWAP1 SUB PUSH1 0x3F NOT ADD SWAP3 GAS CALL SWAP2 DUP3 ISZERO PUSH2 0x674 JUMPI PUSH1 0x0 SWAP3 PUSH2 0x9EB JUMPI JUMPDEST POP POP ISZERO PUSH2 0x9B2 JUMPI DUP10 PUSH2 0x75E JUMP JUMPDEST PUSH1 0x40 MLOAD PUSH3 0x461BCD PUSH1 0xE5 SHL DUP2 MSTORE PUSH1 0x4 DUP2 ADD DUP8 SWAP1 MSTORE PUSH1 0x12 DUP2 DUP8 ADD MSTORE PUSH18 0x24B73B30B634B2103D35A6A610383937B7B3 PUSH1 0x71 SHL PUSH1 0x44 DUP3 ADD MSTORE PUSH1 0x64 SWAP1 REVERT JUMPDEST PUSH1 0x40 DUP1 SWAP3 SWAP4 POP RETURNDATASIZE DUP4 GT PUSH2 0xA1C JUMPI JUMPDEST PUSH2 0xA03 DUP2 DUP6 PUSH2 0x1586 JUMP JUMPDEST DUP2 ADD SUB SLT PUSH2 0x2FD JUMPI MLOAD DUP1 ISZERO ISZERO DUP2 SUB PUSH2 0x2FD JUMPI DUP11 DUP1 PUSH2 0x9A5 JUMP JUMPDEST POP RETURNDATASIZE PUSH2 0x9F9 JUMP JUMPDEST DUP9 PUSH4 0x4E487B71 PUSH1 0xE0 SHL PUSH1 0x0 MSTORE PUSH1 0x41 PUSH1 0x4 MSTORE PUSH1 0x0 REVERT JUMPDEST POP DUP9 ISZERO ISZERO PUSH2 0x759 JUMP JUMPDEST PUSH1 0x40 MLOAD PUSH3 0x461BCD PUSH1 0xE5 SHL DUP2 MSTORE PUSH1 0x4 DUP2 ADD DUP8 SWAP1 MSTORE PUSH1 0xC DUP2 DUP8 ADD MSTORE PUSH12 0x115B5C1D1E481C995CDD5B1D PUSH1 0xA2 SHL PUSH1 0x44 DUP3 ADD MSTORE PUSH1 0x64 SWAP1 REVERT JUMPDEST PUSH1 0x40 MLOAD PUSH3 0x461BCD PUSH1 0xE5 SHL DUP2 MSTORE PUSH1 0x4 DUP2 ADD DUP8 SWAP1 MSTORE PUSH1 0xF DUP2 DUP8 ADD MSTORE PUSH15 0x14995C5D595CDD08195E1C1A5C9959 PUSH1 0x8A SHL PUSH1 0x44 DUP3 ADD MSTORE PUSH1 0x64 SWAP1 REVERT JUMPDEST DUP6 PUSH4 0x4E487B71 PUSH1 0xE0 SHL PUSH1 0x0 MSTORE PUSH1 0x21 PUSH1 0x4 MSTORE PUSH1 0x0 REVERT JUMPDEST CALLVALUE PUSH2 0x2FD JUMPI PUSH1 0x20 CALLDATASIZE PUSH1 0x3 NOT ADD SLT PUSH2 0x2FD JUMPI PUSH1 0x4 CALLDATALOAD PUSH2 0xADB PUSH2 0x169B JUMP JUMPDEST PUSH2 0x3E8 DUP2 GT PUSH2 0xAE9 JUMPI PUSH1 0x7 SSTORE STOP JUMPDEST PUSH1 0x40 MLOAD PUSH3 0x461BCD PUSH1 0xE5 SHL DUP2 MSTORE PUSH1 0x20 PUSH1 0x4 DUP3 ADD MSTORE PUSH1 0xC PUSH1 0x24 DUP3 ADD MSTORE PUSH12 0x8CCACA40E8DEDE40D0D2CED PUSH1 0xA3 SHL PUSH1 0x44 DUP3 ADD MSTORE PUSH1 0x64 SWAP1 REVERT JUMPDEST CALLVALUE PUSH2 0x2FD JUMPI PUSH1 0x20 CALLDATASIZE PUSH1 0x3 NOT ADD SLT PUSH2 0x2FD JUMPI PUSH1 0x4 CALLDATALOAD PUSH2 0xB39 PUSH2 0x169B JUMP JUMPDEST DUP1 PUSH1 0x0 MSTORE PUSH1 0x4 PUSH1 0x20 MSTORE PUSH1 0x40 PUSH1 0x0 KECCAK256 PUSH1 0xFF NOT DUP2 SLOAD AND SWAP1 SSTORE PUSH32 0xCE0CD684ED1C15A1013DAB20BED811FA182D3E28342B5BE924D2CEF7A103BB1 PUSH1 0x0 DUP1 LOG2 STOP JUMPDEST CALLVALUE PUSH2 0x2FD JUMPI PUSH1 0x0 CALLDATASIZE PUSH1 0x3 NOT ADD SLT PUSH2 0x2FD JUMPI PUSH2 0xB8F PUSH2 0x169B JUMP JUMPDEST PUSH1 0x0 DUP1 SLOAD PUSH1 0x1 PUSH1 0x1 PUSH1 0xA0 SHL SUB NOT DUP2 AND DUP3 SSTORE PUSH1 0x1 PUSH1 0x1 PUSH1 0xA0 SHL SUB AND PUSH32 0x8BE0079C531659141344CD1FD0A4F28419497F9722A3DAAFE3B4186F6B6457E0 DUP3 DUP1 LOG3 STOP JUMPDEST CALLVALUE PUSH2 0x2FD JUMPI PUSH1 0x0 CALLDATASIZE PUSH1 0x3 NOT ADD SLT PUSH2 0x2FD JUMPI PUSH1 0x20 PUSH1 0x9 SLOAD PUSH1 0x40 MLOAD SWAP1 DUP2 MSTORE RETURN JUMPDEST CALLVALUE PUSH2 0x2FD JUMPI PUSH1 0x0 CALLDATASIZE PUSH1 0x3 NOT ADD SLT PUSH2 0x2FD JUMPI PUSH1 0x20 PUSH1 0x8 SLOAD PUSH1 0x40 MLOAD SWAP1 DUP2 MSTORE RETURN JUMPDEST CALLVALUE PUSH2 0x2FD JUMPI PUSH1 0x20 CALLDATASIZE PUSH1 0x3 NOT ADD SLT PUSH2 0x2FD JUMPI PUSH1 0x4 CALLDATALOAD PUSH2 0xC27 PUSH2 0x1728 JUMP JUMPDEST PUSH1 0x0 DUP2 DUP2 MSTORE PUSH1 0x2 PUSH1 0x20 MSTORE PUSH1 0x40 SWAP1 KECCAK256 DUP1 SLOAD PUSH1 0x1 PUSH1 0x1 PUSH1 0xA0 SHL SUB AND CALLER SUB PUSH2 0xCBE JUMPI PUSH1 0x6 DUP2 ADD SWAP1 DUP2 SLOAD SWAP2 PUSH1 0xFF DUP4 AND PUSH1 0x4 DUP2 LT ISZERO PUSH2 0x2E7 JUMPI PUSH1 0x0 PUSH1 0x3 DUP2 SWAP5 DUP3 SWAP5 DUP3 DUP10 SWAP9 PUSH2 0xC71 DUP7 SWAP8 ISZERO PUSH2 0x174B JUMP JUMPDEST PUSH1 0xFF NOT AND OR SWAP1 SSTORE ADD SLOAD DUP2 DUP2 ISZERO PUSH2 0xCB5 JUMPI JUMPDEST CALLER SWAP1 CALL ISZERO PUSH2 0x674 JUMPI PUSH32 0x1F29B89AE1587D701CB5136665B2E833AC2FC99DDB4481E1083ADE509BCFEAC1 PUSH1 0x0 DUP1 LOG2 PUSH1 0x1 DUP1 SSTORE STOP JUMPDEST POP PUSH2 0x8FC PUSH2 0xC82 JUMP JUMPDEST PUSH1 0x40 MLOAD PUSH3 0x461BCD PUSH1 0xE5 SHL DUP2 MSTORE PUSH1 0x20 PUSH1 0x4 DUP3 ADD MSTORE PUSH1 0xD PUSH1 0x24 DUP3 ADD MSTORE PUSH13 0x2737BA103932B8BAB2B9BA32B9 PUSH1 0x99 SHL PUSH1 0x44 DUP3 ADD MSTORE PUSH1 0x64 SWAP1 REVERT JUMPDEST CALLVALUE PUSH2 0x2FD JUMPI PUSH1 0x20 CALLDATASIZE PUSH1 0x3 NOT ADD SLT PUSH2 0x2FD JUMPI PUSH1 0x4 CALLDATALOAD PUSH2 0xD0F PUSH2 0x169B JUMP JUMPDEST DUP1 PUSH1 0x0 MSTORE PUSH1 0x4 PUSH1 0x20 MSTORE PUSH1 0x40 PUSH1 0x0 KECCAK256 PUSH1 0x1 PUSH1 0xFF NOT DUP3 SLOAD AND OR SWAP1 SSTORE PUSH32 0x6D29AA35CC15482F5E65960776A66652041832392A7D89E3F1488B4E40D15284 PUSH1 0x0 DUP1 LOG2 STOP JUMPDEST CALLVALUE PUSH2 0x2FD JUMPI PUSH1 0x0 CALLDATASIZE PUSH1 0x3 NOT ADD SLT PUSH2 0x2FD JUMPI PUSH2 0xD68 PUSH2 0x169B JUMP JUMPDEST PUSH1 0x0 DUP1 DUP1 DUP1 PUSH1 0x8 SLOAD DUP2 PUSH1 0x8 SSTORE PUSH1 0x1 DUP1 PUSH1 0xA0 SHL SUB DUP3 SLOAD AND DUP3 DUP3 ISZERO PUSH2 0xD8E JUMPI JUMPDEST CALL ISZERO PUSH2 0x674 JUMPI STOP JUMPDEST POP PUSH2 0x8FC PUSH2 0xD86 JUMP JUMPDEST CALLVALUE PUSH2 0x2FD JUMPI PUSH1 0x0 CALLDATASIZE PUSH1 0x3 NOT ADD SLT PUSH2 0x2FD JUMPI PUSH1 0xA SLOAD PUSH1 0x40 MLOAD PUSH1 0x1 PUSH1 0x1 PUSH1 0xA0 SHL SUB SWAP1 SWAP2 AND DUP2 MSTORE PUSH1 0x20 SWAP1 RETURN JUMPDEST CALLVALUE PUSH2 0x2FD JUMPI PUSH1 0x0 CALLDATASIZE PUSH1 0x3 NOT ADD SLT PUSH2 0x2FD JUMPI PUSH1 0x20 PUSH1 0x7 SLOAD PUSH1 0x40 MLOAD SWAP1 DUP2 MSTORE RETURN JUMPDEST PUSH1 0x60 CALLDATASIZE PUSH1 0x3 NOT ADD SLT PUSH2 0x2FD JUMPI PUSH1 0x24 CALLDATALOAD PUSH8 0xFFFFFFFFFFFFFFFF DUP2 GT PUSH2 0x2FD JUMPI PUSH2 0xE0A SWAP1 CALLDATASIZE SWAP1 PUSH1 0x4 ADD PUSH2 0x1501 JUMP JUMPDEST SWAP1 PUSH1 0x44 CALLDATALOAD SWAP1 PUSH2 0xE17 PUSH2 0x1728 JUMP JUMPDEST CALLVALUE ISZERO PUSH2 0x1339 JUMPI PUSH1 0x4 CALLDATALOAD PUSH1 0x0 MSTORE PUSH1 0x4 PUSH1 0x20 MSTORE PUSH1 0xFF PUSH1 0x40 PUSH1 0x0 KECCAK256 SLOAD AND DUP1 ISZERO PUSH2 0x1325 JUMPI JUMPDEST ISZERO PUSH2 0x12EB JUMPI DUP3 ISZERO PUSH2 0x12B8 JUMPI PUSH2 0x2710 DUP4 GT PUSH2 0x1281 JUMPI PUSH1 0x9 SLOAD PUSH1 0x0 NOT DUP2 EQ PUSH2 0x126B JUMPI PUSH1 0x1 DUP2 ADD PUSH1 0x9 SSTORE PUSH1 0x40 MLOAD PUSH1 0x20 DUP2 ADD SWAP2 CALLER PUSH1 0x60 SHL DUP4 MSTORE PUSH1 0x4 CALLDATALOAD PUSH1 0x34 DUP4 ADD MSTORE TIMESTAMP PUSH1 0x54 DUP4 ADD MSTORE PUSH1 0x74 DUP3 ADD MSTORE PUSH1 0x74 DUP2 MSTORE PUSH1 0xA0 DUP2 ADD DUP2 DUP2 LT PUSH8 0xFFFFFFFFFFFFFFFF DUP3 GT OR PUSH2 0x114E JUMPI PUSH1 0x40 MSTORE MLOAD SWAP1 KECCAK256 SWAP2 DUP1 ISZERO PUSH2 0x125F JUMPI PUSH2 0xEB3 SWAP1 JUMPDEST NUMBER PUSH2 0x16C7 JUMP JUMPDEST PUSH1 0x40 MLOAD SWAP2 PUSH1 0x20 DUP4 ADD DUP4 DUP2 LT PUSH8 0xFFFFFFFFFFFFFFFF DUP3 GT OR PUSH2 0x114E JUMPI PUSH1 0x40 MSTORE PUSH1 0x0 DUP4 MSTORE PUSH1 0x40 MLOAD SWAP5 PUSH2 0xEE2 DUP7 PUSH2 0x1569 JUMP JUMPDEST CALLER DUP7 MSTORE PUSH1 0x4 CALLDATALOAD PUSH1 0x20 DUP8 ADD MSTORE PUSH8 0xFFFFFFFFFFFFFFFF DUP2 GT PUSH2 0x114E JUMPI PUSH1 0x40 MLOAD SWAP2 PUSH2 0xF14 PUSH1 0x1F DUP4 ADD PUSH1 0x1F NOT AND PUSH1 0x20 ADD DUP5 PUSH2 0x1586 JUMP JUMPDEST DUP2 DUP4 MSTORE CALLDATASIZE DUP3 DUP3 ADD GT PUSH2 0x2FD JUMPI DUP2 PUSH1 0x0 SWAP3 PUSH1 0x20 SWAP3 DUP4 DUP7 ADD CALLDATACOPY DUP4 ADD ADD MSTORE PUSH1 0x40 DUP6 ADD MSTORE CALLVALUE PUSH1 0x60 DUP6 ADD MSTORE TIMESTAMP PUSH1 0x80 DUP6 ADD MSTORE PUSH1 0xA0 DUP5 ADD MSTORE PUSH1 0x0 PUSH1 0xC0 DUP5 ADD MSTORE PUSH1 0xE0 DUP4 ADD MSTORE PUSH1 0x0 PUSH2 0x100 DUP4 ADD MSTORE PUSH1 0x0 PUSH2 0x120 DUP4 ADD MSTORE DUP1 PUSH1 0x0 MSTORE PUSH1 0x2 PUSH1 0x20 MSTORE PUSH1 0x40 PUSH1 0x0 KECCAK256 PUSH1 0x1 DUP1 PUSH1 0xA0 SHL SUB DUP4 MLOAD AND PUSH1 0x1 PUSH1 0x1 PUSH1 0x60 SHL SUB PUSH1 0xA0 SHL DUP3 SLOAD AND OR DUP2 SSTORE PUSH1 0x20 DUP4 ADD MLOAD PUSH1 0x1 DUP3 ADD SSTORE PUSH1 0x40 DUP4 ADD MLOAD SWAP3 DUP4 MLOAD PUSH8 0xFFFFFFFFFFFFFFFF DUP2 GT PUSH2 0x114E JUMPI PUSH2 0xFC5 DUP2 PUSH2 0xFBC PUSH1 0x2 DUP7 ADD SLOAD PUSH2 0x152F JUMP JUMPDEST PUSH1 0x2 DUP7 ADD PUSH2 0x16D4 JUMP JUMPDEST PUSH1 0x20 PUSH1 0x1F DUP3 GT PUSH1 0x1 EQ PUSH2 0x11F0 JUMPI DUP2 SWAP3 SWAP4 SWAP5 SWAP6 PUSH1 0x0 SWAP3 PUSH2 0x11E5 JUMPI JUMPDEST POP POP DUP2 PUSH1 0x1 SHL SWAP2 PUSH1 0x0 NOT SWAP1 PUSH1 0x3 SHL SHR NOT AND OR PUSH1 0x2 DUP4 ADD SSTORE JUMPDEST PUSH1 0x60 DUP2 ADD MLOAD PUSH1 0x3 DUP4 ADD SSTORE PUSH1 0x80 DUP2 ADD MLOAD PUSH1 0x4 DUP4 ADD SSTORE PUSH1 0xA0 DUP2 ADD MLOAD PUSH1 0x5 DUP4 ADD SSTORE PUSH1 0x6 DUP3 ADD PUSH1 0xC0 DUP3 ADD MLOAD PUSH1 0x4 DUP2 LT ISZERO PUSH2 0x2E7 JUMPI PUSH1 0xFF DUP1 NOT DUP4 SLOAD AND SWAP2 AND OR SWAP1 SSTORE PUSH1 0xE0 DUP2 ADD MLOAD DUP1 MLOAD SWAP1 PUSH8 0xFFFFFFFFFFFFFFFF DUP3 GT PUSH2 0x114E JUMPI PUSH2 0x1064 DUP3 PUSH2 0x105B PUSH1 0x7 DUP8 ADD SLOAD PUSH2 0x152F JUMP JUMPDEST PUSH1 0x7 DUP8 ADD PUSH2 0x16D4 JUMP JUMPDEST PUSH1 0x20 SWAP1 PUSH1 0x1F DUP4 GT PUSH1 0x1 EQ PUSH2 0x116F JUMPI SWAP2 DUP1 PUSH1 0x9 SWAP5 SWAP3 PUSH2 0x120 SWAP5 PUSH1 0x0 SWAP3 PUSH2 0x1164 JUMPI JUMPDEST POP POP DUP2 PUSH1 0x1 SHL SWAP2 PUSH1 0x0 NOT SWAP1 PUSH1 0x3 SHL SHR NOT AND OR PUSH1 0x7 DUP6 ADD SSTORE JUMPDEST PUSH1 0x8 DUP5 ADD PUSH1 0x1 DUP1 PUSH1 0xA0 SHL SUB PUSH2 0x100 DUP4 ADD MLOAD AND PUSH1 0x1 PUSH1 0x1 PUSH1 0x60 SHL SUB PUSH1 0xA0 SHL DUP3 SLOAD AND OR SWAP1 SSTORE ADD MLOAD SWAP2 ADD SSTORE CALLER PUSH1 0x0 MSTORE PUSH1 0x3 PUSH1 0x20 MSTORE PUSH1 0x40 PUSH1 0x0 KECCAK256 SWAP1 DUP2 SLOAD SWAP2 PUSH9 0x10000000000000000 DUP4 LT ISZERO PUSH2 0x114E JUMPI DUP3 PUSH2 0x10F9 SWAP2 PUSH1 0x1 PUSH1 0x20 SWAP6 ADD DUP2 SSTORE PUSH2 0x14D3 JUMP JUMPDEST DUP2 SLOAD SWAP1 PUSH1 0x3 SHL SWAP1 DUP4 DUP3 SHL SWAP2 PUSH1 0x0 NOT SWAP1 SHL NOT AND OR SWAP1 SSTORE PUSH1 0x40 MLOAD PUSH1 0x4 CALLDATALOAD DUP2 MSTORE CALLVALUE DUP4 DUP3 ADD MSTORE DUP2 PUSH32 0x73379E0EB0A8C43416B93A5AD73C8F23ED1B510614AD484EFDAD08B000E357A9 PUSH1 0x40 CALLER SWAP4 LOG3 PUSH1 0x1 DUP1 SSTORE PUSH1 0x40 MLOAD SWAP1 DUP2 MSTORE RETURN JUMPDEST PUSH4 0x4E487B71 PUSH1 0xE0 SHL PUSH1 0x0 MSTORE PUSH1 0x41 PUSH1 0x4 MSTORE PUSH1 0x24 PUSH1 0x0 REVERT JUMPDEST ADD MLOAD SWAP1 POP DUP8 DUP1 PUSH2 0x1084 JUMP JUMPDEST SWAP1 PUSH1 0x7 DUP6 ADD PUSH1 0x0 MSTORE PUSH1 0x20 PUSH1 0x0 KECCAK256 SWAP2 PUSH1 0x0 JUMPDEST PUSH1 0x1F NOT DUP6 AND DUP2 LT PUSH2 0x11CD JUMPI POP SWAP3 PUSH1 0x9 SWAP5 SWAP3 PUSH1 0x1 SWAP3 PUSH2 0x120 SWAP6 DUP4 PUSH1 0x1F NOT DUP2 AND LT PUSH2 0x11B4 JUMPI JUMPDEST POP POP POP DUP2 SHL ADD PUSH1 0x7 DUP6 ADD SSTORE PUSH2 0x109C JUMP JUMPDEST ADD MLOAD PUSH1 0x0 NOT PUSH1 0xF8 DUP5 PUSH1 0x3 SHL AND SHR NOT AND SWAP1 SSTORE DUP8 DUP1 DUP1 PUSH2 0x11A4 JUMP JUMPDEST SWAP2 SWAP3 PUSH1 0x20 PUSH1 0x1 DUP2 SWAP3 DUP7 DUP6 ADD MLOAD DUP2 SSTORE ADD SWAP5 ADD SWAP3 ADD PUSH2 0x1180 JUMP JUMPDEST ADD MLOAD SWAP1 POP DUP6 DUP1 PUSH2 0xFDF JUMP JUMPDEST PUSH1 0x2 DUP5 ADD PUSH1 0x0 MSTORE PUSH1 0x20 PUSH1 0x0 KECCAK256 SWAP1 PUSH1 0x0 JUMPDEST PUSH1 0x1F NOT DUP5 AND DUP2 LT PUSH2 0x1247 JUMPI POP PUSH1 0x1 SWAP4 SWAP5 SWAP6 SWAP7 DUP4 PUSH1 0x1F NOT DUP2 AND LT PUSH2 0x122E JUMPI JUMPDEST POP POP POP DUP2 SHL ADD PUSH1 0x2 DUP4 ADD SSTORE PUSH2 0xFF7 JUMP JUMPDEST ADD MLOAD PUSH1 0x0 NOT PUSH1 0xF8 DUP5 PUSH1 0x3 SHL AND SHR NOT AND SWAP1 SSTORE DUP6 DUP1 DUP1 PUSH2 0x121E JUMP JUMPDEST SWAP1 SWAP2 PUSH1 0x20 PUSH1 0x1 DUP2 SWAP3 DUP6 DUP12 ADD MLOAD DUP2 SSTORE ADD SWAP4 ADD SWAP2 ADD PUSH2 0x1200 JUMP JUMPDEST POP PUSH2 0xEB3 PUSH1 0x6 SLOAD PUSH2 0xEAD JUMP JUMPDEST PUSH4 0x4E487B71 PUSH1 0xE0 SHL PUSH1 0x0 MSTORE PUSH1 0x11 PUSH1 0x4 MSTORE PUSH1 0x24 PUSH1 0x0 REVERT JUMPDEST PUSH1 0x40 MLOAD PUSH3 0x461BCD PUSH1 0xE5 SHL DUP2 MSTORE PUSH1 0x20 PUSH1 0x4 DUP3 ADD MSTORE PUSH1 0xF PUSH1 0x24 DUP3 ADD MSTORE PUSH15 0x496E70757420746F6F206C61726765 PUSH1 0x88 SHL PUSH1 0x44 DUP3 ADD MSTORE PUSH1 0x64 SWAP1 REVERT JUMPDEST PUSH1 0x40 MLOAD PUSH3 0x461BCD PUSH1 0xE5 SHL DUP2 MSTORE PUSH1 0x20 PUSH1 0x4 DUP3 ADD MSTORE PUSH1 0xB PUSH1 0x24 DUP3 ADD MSTORE PUSH11 0x115B5C1D1E481A5B9C1D5D PUSH1 0xAA SHL PUSH1 0x44 DUP3 ADD MSTORE PUSH1 0x64 SWAP1 REVERT JUMPDEST PUSH1 0x40 MLOAD PUSH3 0x461BCD PUSH1 0xE5 SHL DUP2 MSTORE PUSH1 0x20 PUSH1 0x4 DUP3 ADD MSTORE PUSH1 0x12 PUSH1 0x24 DUP3 ADD MSTORE PUSH18 0x135BD9195B081B9BDD08185C1C1C9BDD9959 PUSH1 0x72 SHL PUSH1 0x44 DUP3 ADD MSTORE PUSH1 0x64 SWAP1 REVERT JUMPDEST POP PUSH1 0x0 SLOAD PUSH1 0x1 PUSH1 0x1 PUSH1 0xA0 SHL SUB AND CALLER EQ PUSH2 0xE38 JUMP JUMPDEST PUSH1 0x40 MLOAD PUSH3 0x461BCD PUSH1 0xE5 SHL DUP2 MSTORE PUSH1 0x20 PUSH1 0x4 DUP3 ADD MSTORE PUSH1 0x10 PUSH1 0x24 DUP3 ADD MSTORE PUSH16 0x14185E5B595B9D081C995C5D5A5C9959 PUSH1 0x82 SHL PUSH1 0x44 DUP3 ADD MSTORE PUSH1 0x64 SWAP1 REVERT JUMPDEST CALLVALUE PUSH2 0x2FD JUMPI PUSH1 0x20 CALLDATASIZE PUSH1 0x3 NOT ADD SLT PUSH2 0x2FD JUMPI PUSH1 0x4 CALLDATALOAD PUSH2 0x138D PUSH2 0x169B JUMP JUMPDEST PUSH1 0xA DUP2 LT ISZERO DUP1 PUSH2 0x13D9 JUMPI JUMPDEST ISZERO PUSH2 0x13A2 JUMPI PUSH1 0x6 SSTORE STOP JUMPDEST PUSH1 0x40 MLOAD PUSH3 0x461BCD PUSH1 0xE5 SHL DUP2 MSTORE PUSH1 0x20 PUSH1 0x4 DUP3 ADD MSTORE PUSH1 0xF PUSH1 0x24 DUP3 ADD MSTORE PUSH15 0x125B9D985B1A59081D1A5B595BDD5D PUSH1 0x8A SHL PUSH1 0x44 DUP3 ADD MSTORE PUSH1 0x64 SWAP1 REVERT JUMPDEST POP PUSH2 0x2710 DUP2 GT ISZERO PUSH2 0x1398 JUMP JUMPDEST CALLVALUE PUSH2 0x2FD JUMPI PUSH1 0x40 CALLDATASIZE PUSH1 0x3 NOT ADD SLT PUSH2 0x2FD JUMPI PUSH2 0x13FE PUSH2 0x14BD JUMP JUMPDEST PUSH1 0x1 PUSH1 0x1 PUSH1 0xA0 SHL SUB AND PUSH1 0x0 SWAP1 DUP2 MSTORE PUSH1 0x3 PUSH1 0x20 MSTORE PUSH1 0x40 SWAP1 KECCAK256 DUP1 SLOAD PUSH1 0x24 CALLDATALOAD SWAP2 SWAP1 DUP3 LT ISZERO PUSH2 0x2FD JUMPI PUSH1 0x20 SWAP2 PUSH2 0x142F SWAP2 PUSH2 0x14D3 JUMP JUMPDEST SWAP1 SLOAD SWAP1 PUSH1 0x3 SHL SHR PUSH1 0x40 MLOAD SWAP1 DUP2 MSTORE RETURN JUMPDEST CALLVALUE PUSH2 0x2FD JUMPI PUSH1 0x0 CALLDATASIZE PUSH1 0x3 NOT ADD SLT PUSH2 0x2FD JUMPI PUSH1 0x20 PUSH1 0x5 SLOAD PUSH1 0x40 MLOAD SWAP1 DUP2 MSTORE RETURN JUMPDEST CALLVALUE PUSH2 0x2FD JUMPI PUSH1 0x0 CALLDATASIZE PUSH1 0x3 NOT ADD SLT PUSH2 0x2FD JUMPI PUSH1 0x20 PUSH1 0x6 SLOAD PUSH1 0x40 MLOAD SWAP1 DUP2 MSTORE RETURN JUMPDEST CALLVALUE PUSH2 0x2FD JUMPI PUSH1 0x20 CALLDATASIZE PUSH1 0x3 NOT ADD SLT PUSH2 0x2FD JUMPI PUSH2 0x1493 PUSH2 0x14BD JUMP JUMPDEST PUSH2 0x149B PUSH2 0x169B JUMP JUMPDEST PUSH1 0xA DUP1 SLOAD PUSH1 0x1 PUSH1 0x1 PUSH1 0xA0 SHL SUB NOT AND PUSH1 0x1 PUSH1 0x1 PUSH1 0xA0 SHL SUB SWAP3 SWAP1 SWAP3 AND SWAP2 SWAP1 SWAP2 OR SWAP1 SSTORE STOP JUMPDEST PUSH1 0x4 CALLDATALOAD SWAP1 PUSH1 0x1 PUSH1 0x1 PUSH1 0xA0 SHL SUB DUP3 AND DUP3 SUB PUSH2 0x2FD JUMPI JUMP JUMPDEST DUP1 SLOAD DUP3 LT ISZERO PUSH2 0x14EB JUMPI PUSH1 0x0 MSTORE PUSH1 0x20 PUSH1 0x0 KECCAK256 ADD SWAP1 PUSH1 0x0 SWAP1 JUMP JUMPDEST PUSH4 0x4E487B71 PUSH1 0xE0 SHL PUSH1 0x0 MSTORE PUSH1 0x32 PUSH1 0x4 MSTORE PUSH1 0x24 PUSH1 0x0 REVERT JUMPDEST SWAP2 DUP2 PUSH1 0x1F DUP5 ADD SLT ISZERO PUSH2 0x2FD JUMPI DUP3 CALLDATALOAD SWAP2 PUSH8 0xFFFFFFFFFFFFFFFF DUP4 GT PUSH2 0x2FD JUMPI PUSH1 0x20 DUP4 DUP2 DUP7 ADD SWAP6 ADD ADD GT PUSH2 0x2FD JUMPI JUMP JUMPDEST SWAP1 PUSH1 0x1 DUP3 DUP2 SHR SWAP3 AND DUP1 ISZERO PUSH2 0x155F JUMPI JUMPDEST PUSH1 0x20 DUP4 LT EQ PUSH2 0x1549 JUMPI JUMP JUMPDEST PUSH4 0x4E487B71 PUSH1 0xE0 SHL PUSH1 0x0 MSTORE PUSH1 0x22 PUSH1 0x4 MSTORE PUSH1 0x24 PUSH1 0x0 REVERT JUMPDEST SWAP2 PUSH1 0x7F AND SWAP2 PUSH2 0x153E JUMP JUMPDEST PUSH2 0x140 DUP2 ADD SWAP1 DUP2 LT PUSH8 0xFFFFFFFFFFFFFFFF DUP3 GT OR PUSH2 0x114E JUMPI PUSH1 0x40 MSTORE JUMP JUMPDEST SWAP1 PUSH1 0x1F DUP1 NOT SWAP2 ADD AND DUP2 ADD SWAP1 DUP2 LT PUSH8 0xFFFFFFFFFFFFFFFF DUP3 GT OR PUSH2 0x114E JUMPI PUSH1 0x40 MSTORE JUMP JUMPDEST SWAP1 PUSH1 0x40 MLOAD SWAP2 DUP3 PUSH1 0x0 DUP3 SLOAD SWAP3 PUSH2 0x15BC DUP5 PUSH2 0x152F JUMP JUMPDEST SWAP1 DUP2 DUP5 MSTORE PUSH1 0x1 SWAP5 DUP6 DUP2 AND SWAP1 DUP2 PUSH1 0x0 EQ PUSH2 0x162B JUMPI POP PUSH1 0x1 EQ PUSH2 0x15E8 JUMPI JUMPDEST POP POP PUSH2 0x15E6 SWAP3 POP SUB DUP4 PUSH2 0x1586 JUMP JUMPDEST JUMP JUMPDEST SWAP1 SWAP4 SWAP2 POP PUSH1 0x0 MSTORE PUSH1 0x20 SWAP1 DUP2 PUSH1 0x0 KECCAK256 SWAP4 PUSH1 0x0 SWAP2 JUMPDEST DUP2 DUP4 LT PUSH2 0x1613 JUMPI POP POP PUSH2 0x15E6 SWAP4 POP DUP3 ADD ADD CODESIZE DUP1 PUSH2 0x15D8 JUMP JUMPDEST DUP6 SLOAD DUP9 DUP5 ADD DUP6 ADD MSTORE SWAP5 DUP6 ADD SWAP5 DUP8 SWAP5 POP SWAP2 DUP4 ADD SWAP2 PUSH2 0x15FB JUMP JUMPDEST SWAP2 POP POP PUSH2 0x15E6 SWAP5 POP PUSH1 0x20 SWAP3 POP PUSH1 0xFF NOT AND DUP3 DUP5 ADD MSTORE ISZERO ISZERO PUSH1 0x5 SHL DUP3 ADD ADD CODESIZE DUP1 PUSH2 0x15D8 JUMP JUMPDEST SWAP2 SWAP1 DUP3 MLOAD SWAP3 DUP4 DUP3 MSTORE PUSH1 0x0 JUMPDEST DUP5 DUP2 LT PUSH2 0x167A JUMPI POP POP DUP3 PUSH1 0x0 PUSH1 0x20 DUP1 SWAP5 SWAP6 DUP5 ADD ADD MSTORE PUSH1 0x1F DUP1 NOT SWAP2 ADD AND ADD ADD SWAP1 JUMP JUMPDEST PUSH1 0x20 DUP2 DUP4 ADD DUP2 ADD MLOAD DUP5 DUP4 ADD DUP3 ADD MSTORE ADD PUSH2 0x1659 JUMP JUMPDEST SWAP1 PUSH1 0x4 DUP3 LT ISZERO PUSH2 0x2E7 JUMPI MSTORE JUMP JUMPDEST PUSH1 0x0 SLOAD PUSH1 0x1 PUSH1 0x1 PUSH1 0xA0 SHL SUB AND CALLER SUB PUSH2 0x16AF JUMPI JUMP JUMPDEST PUSH1 0x40 MLOAD PUSH4 0x118CDAA7 PUSH1 0xE0 SHL DUP2 MSTORE CALLER PUSH1 0x4 DUP3 ADD MSTORE PUSH1 0x24 SWAP1 REVERT JUMPDEST SWAP2 SWAP1 DUP3 ADD DUP1 SWAP3 GT PUSH2 0x126B JUMPI JUMP JUMPDEST SWAP1 PUSH1 0x1F DUP2 GT PUSH2 0x16E2 JUMPI POP POP POP JUMP JUMPDEST PUSH1 0x0 SWAP2 DUP3 MSTORE PUSH1 0x20 DUP3 KECCAK256 SWAP1 PUSH1 0x20 PUSH1 0x1F DUP6 ADD PUSH1 0x5 SHR DUP4 ADD SWAP5 LT PUSH2 0x171E JUMPI JUMPDEST PUSH1 0x1F ADD PUSH1 0x5 SHR ADD SWAP2 JUMPDEST DUP3 DUP2 LT PUSH2 0x1713 JUMPI POP POP POP JUMP JUMPDEST DUP2 DUP2 SSTORE PUSH1 0x1 ADD PUSH2 0x1707 JUMP JUMPDEST SWAP1 SWAP3 POP DUP3 SWAP1 PUSH2 0x16FE JUMP JUMPDEST PUSH1 0x2 PUSH1 0x1 SLOAD EQ PUSH2 0x1739 JUMPI PUSH1 0x2 PUSH1 0x1 SSTORE JUMP JUMPDEST PUSH1 0x40 MLOAD PUSH4 0x3EE5AEB5 PUSH1 0xE0 SHL DUP2 MSTORE PUSH1 0x4 SWAP1 REVERT JUMPDEST ISZERO PUSH2 0x1752 JUMPI JUMP JUMPDEST PUSH1 0x40 MLOAD PUSH3 0x461BCD PUSH1 0xE5 SHL DUP2 MSTORE PUSH1 0x20 PUSH1 0x4 DUP3 ADD MSTORE PUSH1 0xB PUSH1 0x24 DUP3 ADD MSTORE PUSH11 0x4E6F742070656E64696E67 PUSH1 0xA8 SHL PUSH1 0x44 DUP3 ADD MSTORE PUSH1 0x64 SWAP1 REVERT INVALID LOG2 PUSH5 0x6970667358 0x22 SLT KECCAK256 PUSH29 0x265FACD623AAD4D947F90682D5E62925A1BA71BFFAEFD4B221A378273A CALL PUSH30 0x64736F6C6343000814003300000000000000000000000000000000000000 "},"methodIdentifiers":{"accumulatedFees()":"587f5ed7","approveModel(bytes32)":"4b7716e3","approvedModels(bytes32)":"da185c92","cancelRequest(bytes32)":"50125546","defaultTimeout()":"09f3f566","fulfillRequest(bytes32,bytes,bytes32)":"82ae0f97","getRequest(bytes32)":"fb1e61ca","getResult(bytes32)":"add4c784","getUserRequests(address)":"b337cf74","isModelApproved(bytes32)":"4b9f24d8","markExpired(bytes32)":"87e0aeb2","minFulfillerStake()":"21c39b36","owner()":"8da5cb5b","protocolFeeBps()":"35659fb8","renounceOwnership()":"715018a6","requestAI(bytes32,bytes,uint256)":"3115129c","requestCount()":"5badbe4c","requests(bytes32)":"9d866985","revokeModel(bytes32)":"717909b9","setDefaultTimeout(uint256)":"2c6c5866","setProtocolFee(uint256)":"787dce3d","setZkMLVerifier(address)":"066655ef","transferOwnership(address)":"f2fde38b","userRequests(address,uint256)":"263cb6b6","withdrawFees()":"476343ee","zkmlVerifier()":"3c813394"}}}}}