{"src/templates/PaymentEscrow.sol":{"PaymentEscrow":{"abi":[{"inputs":[{"internalType":"address","name":"_mdtToken","type":"address"}],"stateMutability":"nonpayable","type":"constructor"},{"inputs":[],"name":"AlreadyRefunded","type":"error"},{"inputs":[],"name":"AlreadyReleased","type":"error"},{"inputs":[],"name":"InvalidAmount","type":"error"},{"inputs":[],"name":"NotDepositor","type":"error"},{"inputs":[],"name":"NotOracle","type":"error"},{"inputs":[],"name":"NotTimedOut","type":"error"},{"inputs":[{"internalType":"address","name":"owner","type":"address"}],"name":"OwnableInvalidOwner","type":"error"},{"inputs":[{"internalType":"address","name":"account","type":"address"}],"name":"OwnableUnauthorizedAccount","type":"error"},{"inputs":[],"name":"ReentrancyGuardReentrantCall","type":"error"},{"inputs":[],"name":"RequestExists","type":"error"},{"inputs":[],"name":"RequestNotFound","type":"error"},{"inputs":[{"internalType":"address","name":"token","type":"address"}],"name":"SafeERC20FailedOperation","type":"error"},{"anonymous":false,"inputs":[{"indexed":true,"internalType":"bytes32","name":"requestId","type":"bytes32"},{"indexed":true,"internalType":"address","name":"depositor","type":"address"},{"indexed":false,"internalType":"uint256","name":"amount","type":"uint256"},{"indexed":false,"internalType":"uint256","name":"timeout","type":"uint256"}],"name":"Deposited","type":"event"},{"anonymous":false,"inputs":[{"indexed":true,"internalType":"address","name":"oldOracle","type":"address"},{"indexed":true,"internalType":"address","name":"newOracle","type":"address"}],"name":"OracleUpdated","type":"event"},{"anonymous":false,"inputs":[{"indexed":true,"internalType":"address","name":"previousOwner","type":"address"},{"indexed":true,"internalType":"address","name":"newOwner","type":"address"}],"name":"OwnershipTransferred","type":"event"},{"anonymous":false,"inputs":[{"indexed":true,"internalType":"bytes32","name":"requestId","type":"bytes32"},{"indexed":true,"internalType":"address","name":"depositor","type":"address"},{"indexed":false,"internalType":"uint256","name":"amount","type":"uint256"}],"name":"Refunded","type":"event"},{"anonymous":false,"inputs":[{"indexed":true,"internalType":"bytes32","name":"requestId","type":"bytes32"},{"indexed":true,"internalType":"address","name":"miner","type":"address"},{"indexed":false,"internalType":"uint256","name":"minerAmount","type":"uint256"},{"indexed":false,"internalType":"uint256","name":"protocolFee","type":"uint256"}],"name":"Released","type":"event"},{"inputs":[],"name":"accumulatedFees","outputs":[{"internalType":"uint256","name":"","type":"uint256"}],"stateMutability":"view","type":"function"},{"inputs":[],"name":"aiOracle","outputs":[{"internalType":"address","name":"","type":"address"}],"stateMutability":"view","type":"function"},{"inputs":[{"internalType":"bytes32","name":"requestId","type":"bytes32"}],"name":"canRefund","outputs":[{"internalType":"bool","name":"","type":"bool"}],"stateMutability":"view","type":"function"},{"inputs":[{"internalType":"bytes32","name":"requestId","type":"bytes32"},{"internalType":"uint256","name":"amount","type":"uint256"},{"internalType":"uint256","name":"timeout","type":"uint256"}],"name":"deposit","outputs":[],"stateMutability":"nonpayable","type":"function"},{"inputs":[{"internalType":"bytes32","name":"","type":"bytes32"}],"name":"escrows","outputs":[{"internalType":"address","name":"depositor","type":"address"},{"internalType":"uint256","name":"amount","type":"uint256"},{"internalType":"uint256","name":"depositedAt","type":"uint256"},{"internalType":"uint256","name":"timeout","type":"uint256"},{"internalType":"bool","name":"released","type":"bool"},{"internalType":"bool","name":"refunded","type":"bool"}],"stateMutability":"view","type":"function"},{"inputs":[{"internalType":"bytes32","name":"requestId","type":"bytes32"}],"name":"getEscrow","outputs":[{"components":[{"internalType":"address","name":"depositor","type":"address"},{"internalType":"uint256","name":"amount","type":"uint256"},{"internalType":"uint256","name":"depositedAt","type":"uint256"},{"internalType":"uint256","name":"timeout","type":"uint256"},{"internalType":"bool","name":"released","type":"bool"},{"internalType":"bool","name":"refunded","type":"bool"}],"internalType":"struct PaymentEscrow.EscrowEntry","name":"","type":"tuple"}],"stateMutability":"view","type":"function"},{"inputs":[],"name":"mdtToken","outputs":[{"internalType":"contract IERC20","name":"","type":"address"}],"stateMutability":"view","type":"function"},{"inputs":[],"name":"minTimeout","outputs":[{"internalType":"uint256","name":"","type":"uint256"}],"stateMutability":"view","type":"function"},{"inputs":[],"name":"owner","outputs":[{"internalType":"address","name":"","type":"address"}],"stateMutability":"view","type":"function"},{"inputs":[],"name":"protocolFeeBps","outputs":[{"internalType":"uint256","name":"","type":"uint256"}],"stateMutability":"view","type":"function"},{"inputs":[{"internalType":"bytes32","name":"requestId","type":"bytes32"}],"name":"refund","outputs":[],"stateMutability":"nonpayable","type":"function"},{"inputs":[{"internalType":"bytes32","name":"requestId","type":"bytes32"},{"internalType":"address","name":"miner","type":"address"}],"name":"release","outputs":[],"stateMutability":"nonpayable","type":"function"},{"inputs":[],"name":"renounceOwnership","outputs":[],"stateMutability":"nonpayable","type":"function"},{"inputs":[{"internalType":"address","name":"_aiOracle","type":"address"}],"name":"setAIOracle","outputs":[],"stateMutability":"nonpayable","type":"function"},{"inputs":[{"internalType":"uint256","name":"_feeBps","type":"uint256"}],"name":"setProtocolFee","outputs":[],"stateMutability":"nonpayable","type":"function"},{"inputs":[{"internalType":"address","name":"newOwner","type":"address"}],"name":"transferOwnership","outputs":[],"stateMutability":"nonpayable","type":"function"},{"inputs":[{"internalType":"address","name":"recipient","type":"address"}],"name":"withdrawFees","outputs":[],"stateMutability":"nonpayable","type":"function"}],"evm":{"bytecode":{"linkReferences":{},"object":"60a0346100f157601f610cb838819003918201601f19168301916001600160401b038311848410176100f6578084926020946040528339810103126100f157516001600160a01b0390818116908190036100f15733156100d8576000543360018060a01b0319821617600055604051923391167f8be0079c531659141344cd1fd0a4f28419497f9722a3daafe3b4186f6b6457e0600080a36001805560646004556032600555608052610bab908161010d823960805181818160f101528181610452015281816106da015281816108af01526109d50152f35b604051631e4fbdf760e01b815260006004820152602490fd5b600080fd5b634e487b7160e01b600052604160045260246000fdfe6040608081526004908136101561001557600080fd5b600091823560e01c908163164e68de146109a65781631aa632b31461093c5781631bbdcfd3146107d6578163278f2ab81461061d5781632d83549c146105af57816331b221cd1461058657816335659fb8146105675781634cf71be414610549578163587f5ed71461052a578163715018a6146104cd5781637249fbb614610396578163787dce3d146103355781638c8c2003146102a75781638da5cb5b1461027f578163f023b811146101af578163f2fde38b14610124575063f70b5c06146100de57600080fd5b34610120578160031936011261012057517f00000000000000000000000000000000000000000000000000000000000000006001600160a01b03168152602090f35b5080fd5b9050346101ab5760203660031901126101ab5761013f6109fc565b90610148610a17565b6001600160a01b0391821692831561019557505082546001600160a01b0319811683178455167f8be0079c531659141344cd1fd0a4f28419497f9722a3daafe3b4186f6b6457e08380a380f35b51631e4fbdf760e01b8152908101849052602490fd5b8280fd5b9050346101ab5760203660031901126101ab57818360c09460a083516101d481610a43565b828152826020820152828582015282606082015282608082015201528235815260036020522082519061020682610a43565b60018060a01b0381541693848352600182015493602084019485526002830154908285019182526003840154936060860194855201549460ff60a0608087019682891615158852019660081c161515865282519687525160208701525190850152516060840152511515608083015251151560a0820152f35b505034610120578160031936011261012057905490516001600160a01b039091168152602090f35b919050346101ab5760203660031901126101ab5781358352600360209081529281902080546001600160a01b031615159283610326575b83610314575b50826102f4575b50519015158152f35b61030a9192506003600282015491015490610b00565b43101590386102eb565b81015460081c60ff16159250386102e4565b8181015460ff161593506102de565b9050346101ab5760203660031901126101ab57803591610353610a17565b6101f4831161036457505060055580f35b906020606492519162461bcd60e51b8352820152600c60248201526b08ccaca40e8dede40d0d2ced60a31b6044820152fd5b919050346101ab5760203660031901126101ab578135906103b5610add565b818452600360205280842080546001600160a01b039081169490919085156104bf578082019081549060ff82166104b15760ff8260081c166104a3578733036104955761040b6002850154600386015490610b00565b4310610487575091602093916101007ff552ca82e113ac3c539c3d617f29fcd19c172a0c75dad017555c9e109f7fe183969461ff00191617905561047660018201978854907f0000000000000000000000000000000000000000000000000000000000000000610b23565b541694549051908152a36001805580f35b855163828630fb60e01b8152fd5b8551633cc50b4560e01b8152fd5b855163542f378d60e11b8152fd5b85516331da482760e11b8152fd5b8351632589d98f60e11b8152fd5b83346105275780600319360112610527576104e6610a17565b80546001600160a01b03198116825581906001600160a01b03167f8be0079c531659141344cd1fd0a4f28419497f9722a3daafe3b4186f6b6457e08280a380f35b80fd5b5050346101205781600319360112610120576020906006549051908152f35b9050346101ab57826003193601126101ab5760209250549051908152f35b5050346101205781600319360112610120576020906005549051908152f35b50503461012057816003193601126101205760025490516001600160a01b039091168152602090f35b919050346101ab5760203660031901126101ab578060ff9160c0948435815260036020522060018060a01b03815416936001820154926002830154916003840154930154938151968752602087015285015260608401528181161515608084015260081c16151560a0820152f35b83833461012057606036600319011261012057823560243591604435610641610add565b8084156107c6578386526003602052828620546001600160a01b03919082166107b65787548091106107ae575b5082516323b872dd60e01b60208201523360248201523060448201526064808201879052815260a0810167ffffffffffffffff81118282101761079b57886106fe869594938a937f2dcdaad87b561ba5a69835009b4c53ef9d3c41ca6cc9574049187659d6c6a71598527f0000000000000000000000000000000000000000000000000000000000000000610a75565b845161070981610a43565b33815260208101898152868201438152606083019187835260808401968688528960a08601978089528d81526003602052209451166bffffffffffffffffffffffff60a01b85541617845551600184015551600283015551600382015501915115159060ff61ff0084549251151560081b1692169061ffff191617179055815194855260208501523393a36001805580f35b634e487b7160e01b885260418952602488fd5b91508761066e565b835163756f5c2d60e11b81528890fd5b825163162908e360e11b81528790fd5b8383346101205780600319360112610120576024356001600160a01b03818116928535929091848203610938578060025416330361092857610816610add565b8386526003602052828620908154161561091857868101805460ff81166109085760ff8160081c166108f85790600180939260ff19161790550154906005548083029083820414831517156108e5576127109004908183039283116108e557906108d3837fbaa21fb6000fbb6d014fac9cd1b0726799e6f352a967157a59f4b2da8ef322119594936108aa84600654610b00565b6006557f0000000000000000000000000000000000000000000000000000000000000000610b23565b82519182526020820152a36001805580f35b634e487b7160e01b875260118852602487fd5b845163542f378d60e11b81528990fd5b84516331da482760e11b81528990fd5b8251632589d98f60e11b81528790fd5b8251631bc2178f60e01b81528790fd5b8580fd5b8334610527576020366003190112610527576109566109fc565b61095e610a17565b6002546001600160a01b0391821691829082167f078c3b417dadf69374a59793b829c52001247130433427049317bde56607b1b78580a36001600160a01b0319161760025580f35b8334610527576020366003190112610527576109f96109c36109fc565b6109cb610a17565b60065490836006557f0000000000000000000000000000000000000000000000000000000000000000610b23565b80f35b600435906001600160a01b0382168203610a1257565b600080fd5b6000546001600160a01b03163303610a2b57565b60405163118cdaa760e01b8152336004820152602490fd5b60c0810190811067ffffffffffffffff821117610a5f57604052565b634e487b7160e01b600052604160045260246000fd5b906000602091828151910182855af115610ad1576000513d610ac857506001600160a01b0381163b155b610aa65750565b604051635274afe760e01b81526001600160a01b039091166004820152602490fd5b60011415610a9f565b6040513d6000823e3d90fd5b600260015414610aee576002600155565b604051633ee5aeb560e01b8152600490fd5b91908201809211610b0d57565b634e487b7160e01b600052601160045260246000fd5b60405163a9059cbb60e01b60208201526001600160a01b039092166024830152604480830193909352918152608081019167ffffffffffffffff831182841017610a5f57610b7392604052610a75565b56fea2646970667358221220e248a71a9ad2cb5a3cafcb1d7f0cd5d47b1b616a89ab2fb3e6f53f15758f0e8f64736f6c63430008140033","opcodes":"PUSH1 0xA0 CALLVALUE PUSH2 0xF1 JUMPI PUSH1 0x1F PUSH2 0xCB8 CODESIZE DUP2 SWAP1 SUB SWAP2 DUP3 ADD PUSH1 0x1F NOT AND DUP4 ADD SWAP2 PUSH1 0x1 PUSH1 0x1 PUSH1 0x40 SHL SUB DUP4 GT DUP5 DUP5 LT OR PUSH2 0xF6 JUMPI DUP1 DUP5 SWAP3 PUSH1 0x20 SWAP5 PUSH1 0x40 MSTORE DUP4 CODECOPY DUP2 ADD SUB SLT PUSH2 0xF1 JUMPI MLOAD PUSH1 0x1 PUSH1 0x1 PUSH1 0xA0 SHL SUB SWAP1 DUP2 DUP2 AND SWAP1 DUP2 SWAP1 SUB PUSH2 0xF1 JUMPI CALLER ISZERO PUSH2 0xD8 JUMPI PUSH1 0x0 SLOAD CALLER PUSH1 0x1 DUP1 PUSH1 0xA0 SHL SUB NOT DUP3 AND OR PUSH1 0x0 SSTORE PUSH1 0x40 MLOAD SWAP3 CALLER SWAP2 AND PUSH32 0x8BE0079C531659141344CD1FD0A4F28419497F9722A3DAAFE3B4186F6B6457E0 PUSH1 0x0 DUP1 LOG3 PUSH1 0x1 DUP1 SSTORE PUSH1 0x64 PUSH1 0x4 SSTORE PUSH1 0x32 PUSH1 0x5 SSTORE PUSH1 0x80 MSTORE PUSH2 0xBAB SWAP1 DUP2 PUSH2 0x10D DUP3 CODECOPY PUSH1 0x80 MLOAD DUP2 DUP2 DUP2 PUSH1 0xF1 ADD MSTORE DUP2 DUP2 PUSH2 0x452 ADD MSTORE DUP2 DUP2 PUSH2 0x6DA ADD MSTORE DUP2 DUP2 PUSH2 0x8AF ADD MSTORE PUSH2 0x9D5 ADD MSTORE RETURN JUMPDEST PUSH1 0x40 MLOAD PUSH4 0x1E4FBDF7 PUSH1 0xE0 SHL DUP2 MSTORE PUSH1 0x0 PUSH1 0x4 DUP3 ADD MSTORE PUSH1 0x24 SWAP1 REVERT JUMPDEST PUSH1 0x0 DUP1 REVERT JUMPDEST PUSH4 0x4E487B71 PUSH1 0xE0 SHL PUSH1 0x0 MSTORE PUSH1 0x41 PUSH1 0x4 MSTORE PUSH1 0x24 PUSH1 0x0 REVERT INVALID PUSH1 0x40 PUSH1 0x80 DUP2 MSTORE PUSH1 0x4 SWAP1 DUP2 CALLDATASIZE LT ISZERO PUSH2 0x15 JUMPI PUSH1 0x0 DUP1 REVERT JUMPDEST PUSH1 0x0 SWAP2 DUP3 CALLDATALOAD PUSH1 0xE0 SHR SWAP1 DUP2 PUSH4 0x164E68DE EQ PUSH2 0x9A6 JUMPI DUP2 PUSH4 0x1AA632B3 EQ PUSH2 0x93C JUMPI DUP2 PUSH4 0x1BBDCFD3 EQ PUSH2 0x7D6 JUMPI DUP2 PUSH4 0x278F2AB8 EQ PUSH2 0x61D JUMPI DUP2 PUSH4 0x2D83549C EQ PUSH2 0x5AF JUMPI DUP2 PUSH4 0x31B221CD EQ PUSH2 0x586 JUMPI DUP2 PUSH4 0x35659FB8 EQ PUSH2 0x567 JUMPI DUP2 PUSH4 0x4CF71BE4 EQ PUSH2 0x549 JUMPI DUP2 PUSH4 0x587F5ED7 EQ PUSH2 0x52A JUMPI DUP2 PUSH4 0x715018A6 EQ PUSH2 0x4CD JUMPI DUP2 PUSH4 0x7249FBB6 EQ PUSH2 0x396 JUMPI DUP2 PUSH4 0x787DCE3D EQ PUSH2 0x335 JUMPI DUP2 PUSH4 0x8C8C2003 EQ PUSH2 0x2A7 JUMPI DUP2 PUSH4 0x8DA5CB5B EQ PUSH2 0x27F JUMPI DUP2 PUSH4 0xF023B811 EQ PUSH2 0x1AF JUMPI DUP2 PUSH4 0xF2FDE38B EQ PUSH2 0x124 JUMPI POP PUSH4 0xF70B5C06 EQ PUSH2 0xDE JUMPI PUSH1 0x0 DUP1 REVERT JUMPDEST CALLVALUE PUSH2 0x120 JUMPI DUP2 PUSH1 0x3 NOT CALLDATASIZE ADD SLT PUSH2 0x120 JUMPI MLOAD PUSH32 0x0 PUSH1 0x1 PUSH1 0x1 PUSH1 0xA0 SHL SUB AND DUP2 MSTORE PUSH1 0x20 SWAP1 RETURN JUMPDEST POP DUP1 REVERT JUMPDEST SWAP1 POP CALLVALUE PUSH2 0x1AB JUMPI PUSH1 0x20 CALLDATASIZE PUSH1 0x3 NOT ADD SLT PUSH2 0x1AB JUMPI PUSH2 0x13F PUSH2 0x9FC JUMP JUMPDEST SWAP1 PUSH2 0x148 PUSH2 0xA17 JUMP JUMPDEST PUSH1 0x1 PUSH1 0x1 PUSH1 0xA0 SHL SUB SWAP2 DUP3 AND SWAP3 DUP4 ISZERO PUSH2 0x195 JUMPI POP POP DUP3 SLOAD PUSH1 0x1 PUSH1 0x1 PUSH1 0xA0 SHL SUB NOT DUP2 AND DUP4 OR DUP5 SSTORE AND PUSH32 0x8BE0079C531659141344CD1FD0A4F28419497F9722A3DAAFE3B4186F6B6457E0 DUP4 DUP1 LOG3 DUP1 RETURN JUMPDEST MLOAD PUSH4 0x1E4FBDF7 PUSH1 0xE0 SHL DUP2 MSTORE SWAP1 DUP2 ADD DUP5 SWAP1 MSTORE PUSH1 0x24 SWAP1 REVERT JUMPDEST DUP3 DUP1 REVERT JUMPDEST SWAP1 POP CALLVALUE PUSH2 0x1AB JUMPI PUSH1 0x20 CALLDATASIZE PUSH1 0x3 NOT ADD SLT PUSH2 0x1AB JUMPI DUP2 DUP4 PUSH1 0xC0 SWAP5 PUSH1 0xA0 DUP4 MLOAD PUSH2 0x1D4 DUP2 PUSH2 0xA43 JUMP JUMPDEST DUP3 DUP2 MSTORE DUP3 PUSH1 0x20 DUP3 ADD MSTORE DUP3 DUP6 DUP3 ADD MSTORE DUP3 PUSH1 0x60 DUP3 ADD MSTORE DUP3 PUSH1 0x80 DUP3 ADD MSTORE ADD MSTORE DUP3 CALLDATALOAD DUP2 MSTORE PUSH1 0x3 PUSH1 0x20 MSTORE KECCAK256 DUP3 MLOAD SWAP1 PUSH2 0x206 DUP3 PUSH2 0xA43 JUMP JUMPDEST PUSH1 0x1 DUP1 PUSH1 0xA0 SHL SUB DUP2 SLOAD AND SWAP4 DUP5 DUP4 MSTORE PUSH1 0x1 DUP3 ADD SLOAD SWAP4 PUSH1 0x20 DUP5 ADD SWAP5 DUP6 MSTORE PUSH1 0x2 DUP4 ADD SLOAD SWAP1 DUP3 DUP6 ADD SWAP2 DUP3 MSTORE PUSH1 0x3 DUP5 ADD SLOAD SWAP4 PUSH1 0x60 DUP7 ADD SWAP5 DUP6 MSTORE ADD SLOAD SWAP5 PUSH1 0xFF PUSH1 0xA0 PUSH1 0x80 DUP8 ADD SWAP7 DUP3 DUP10 AND ISZERO ISZERO DUP9 MSTORE ADD SWAP7 PUSH1 0x8 SHR AND ISZERO ISZERO DUP7 MSTORE DUP3 MLOAD SWAP7 DUP8 MSTORE MLOAD PUSH1 0x20 DUP8 ADD MSTORE MLOAD SWAP1 DUP6 ADD MSTORE MLOAD PUSH1 0x60 DUP5 ADD MSTORE MLOAD ISZERO ISZERO PUSH1 0x80 DUP4 ADD MSTORE MLOAD ISZERO ISZERO PUSH1 0xA0 DUP3 ADD MSTORE RETURN JUMPDEST POP POP CALLVALUE PUSH2 0x120 JUMPI DUP2 PUSH1 0x3 NOT CALLDATASIZE ADD SLT PUSH2 0x120 JUMPI SWAP1 SLOAD SWAP1 MLOAD PUSH1 0x1 PUSH1 0x1 PUSH1 0xA0 SHL SUB SWAP1 SWAP2 AND DUP2 MSTORE PUSH1 0x20 SWAP1 RETURN JUMPDEST SWAP2 SWAP1 POP CALLVALUE PUSH2 0x1AB JUMPI PUSH1 0x20 CALLDATASIZE PUSH1 0x3 NOT ADD SLT PUSH2 0x1AB JUMPI DUP2 CALLDATALOAD DUP4 MSTORE PUSH1 0x3 PUSH1 0x20 SWAP1 DUP2 MSTORE SWAP3 DUP2 SWAP1 KECCAK256 DUP1 SLOAD PUSH1 0x1 PUSH1 0x1 PUSH1 0xA0 SHL SUB AND ISZERO ISZERO SWAP3 DUP4 PUSH2 0x326 JUMPI JUMPDEST DUP4 PUSH2 0x314 JUMPI JUMPDEST POP DUP3 PUSH2 0x2F4 JUMPI JUMPDEST POP MLOAD SWAP1 ISZERO ISZERO DUP2 MSTORE RETURN JUMPDEST PUSH2 0x30A SWAP2 SWAP3 POP PUSH1 0x3 PUSH1 0x2 DUP3 ADD SLOAD SWAP2 ADD SLOAD SWAP1 PUSH2 0xB00 JUMP JUMPDEST NUMBER LT ISZERO SWAP1 CODESIZE PUSH2 0x2EB JUMP JUMPDEST DUP2 ADD SLOAD PUSH1 0x8 SHR PUSH1 0xFF AND ISZERO SWAP3 POP CODESIZE PUSH2 0x2E4 JUMP JUMPDEST DUP2 DUP2 ADD SLOAD PUSH1 0xFF AND ISZERO SWAP4 POP PUSH2 0x2DE JUMP JUMPDEST SWAP1 POP CALLVALUE PUSH2 0x1AB JUMPI PUSH1 0x20 CALLDATASIZE PUSH1 0x3 NOT ADD SLT PUSH2 0x1AB JUMPI DUP1 CALLDATALOAD SWAP2 PUSH2 0x353 PUSH2 0xA17 JUMP JUMPDEST PUSH2 0x1F4 DUP4 GT PUSH2 0x364 JUMPI POP POP PUSH1 0x5 SSTORE DUP1 RETURN JUMPDEST SWAP1 PUSH1 0x20 PUSH1 0x64 SWAP3 MLOAD SWAP2 PUSH3 0x461BCD PUSH1 0xE5 SHL DUP4 MSTORE DUP3 ADD MSTORE PUSH1 0xC PUSH1 0x24 DUP3 ADD MSTORE PUSH12 0x8CCACA40E8DEDE40D0D2CED PUSH1 0xA3 SHL PUSH1 0x44 DUP3 ADD MSTORE REVERT JUMPDEST SWAP2 SWAP1 POP CALLVALUE PUSH2 0x1AB JUMPI PUSH1 0x20 CALLDATASIZE PUSH1 0x3 NOT ADD SLT PUSH2 0x1AB JUMPI DUP2 CALLDATALOAD SWAP1 PUSH2 0x3B5 PUSH2 0xADD JUMP JUMPDEST DUP2 DUP5 MSTORE PUSH1 0x3 PUSH1 0x20 MSTORE DUP1 DUP5 KECCAK256 DUP1 SLOAD PUSH1 0x1 PUSH1 0x1 PUSH1 0xA0 SHL SUB SWAP1 DUP2 AND SWAP5 SWAP1 SWAP2 SWAP1 DUP6 ISZERO PUSH2 0x4BF JUMPI DUP1 DUP3 ADD SWAP1 DUP2 SLOAD SWAP1 PUSH1 0xFF DUP3 AND PUSH2 0x4B1 JUMPI PUSH1 0xFF DUP3 PUSH1 0x8 SHR AND PUSH2 0x4A3 JUMPI DUP8 CALLER SUB PUSH2 0x495 JUMPI PUSH2 0x40B PUSH1 0x2 DUP6 ADD SLOAD PUSH1 0x3 DUP7 ADD SLOAD SWAP1 PUSH2 0xB00 JUMP JUMPDEST NUMBER LT PUSH2 0x487 JUMPI POP SWAP2 PUSH1 0x20 SWAP4 SWAP2 PUSH2 0x100 PUSH32 0xF552CA82E113AC3C539C3D617F29FCD19C172A0C75DAD017555C9E109F7FE183 SWAP7 SWAP5 PUSH2 0xFF00 NOT AND OR SWAP1 SSTORE PUSH2 0x476 PUSH1 0x1 DUP3 ADD SWAP8 DUP9 SLOAD SWAP1 PUSH32 0x0 PUSH2 0xB23 JUMP JUMPDEST SLOAD AND SWAP5 SLOAD SWAP1 MLOAD SWAP1 DUP2 MSTORE LOG3 PUSH1 0x1 DUP1 SSTORE DUP1 RETURN JUMPDEST DUP6 MLOAD PUSH4 0x828630FB PUSH1 0xE0 SHL DUP2 MSTORE REVERT JUMPDEST DUP6 MLOAD PUSH4 0x3CC50B45 PUSH1 0xE0 SHL DUP2 MSTORE REVERT JUMPDEST DUP6 MLOAD PUSH4 0x542F378D PUSH1 0xE1 SHL DUP2 MSTORE REVERT JUMPDEST DUP6 MLOAD PUSH4 0x31DA4827 PUSH1 0xE1 SHL DUP2 MSTORE REVERT JUMPDEST DUP4 MLOAD PUSH4 0x2589D98F PUSH1 0xE1 SHL DUP2 MSTORE REVERT JUMPDEST DUP4 CALLVALUE PUSH2 0x527 JUMPI DUP1 PUSH1 0x3 NOT CALLDATASIZE ADD SLT PUSH2 0x527 JUMPI PUSH2 0x4E6 PUSH2 0xA17 JUMP JUMPDEST DUP1 SLOAD PUSH1 0x1 PUSH1 0x1 PUSH1 0xA0 SHL SUB NOT DUP2 AND DUP3 SSTORE DUP2 SWAP1 PUSH1 0x1 PUSH1 0x1 PUSH1 0xA0 SHL SUB AND PUSH32 0x8BE0079C531659141344CD1FD0A4F28419497F9722A3DAAFE3B4186F6B6457E0 DUP3 DUP1 LOG3 DUP1 RETURN JUMPDEST DUP1 REVERT JUMPDEST POP POP CALLVALUE PUSH2 0x120 JUMPI DUP2 PUSH1 0x3 NOT CALLDATASIZE ADD SLT PUSH2 0x120 JUMPI PUSH1 0x20 SWAP1 PUSH1 0x6 SLOAD SWAP1 MLOAD SWAP1 DUP2 MSTORE RETURN JUMPDEST SWAP1 POP CALLVALUE PUSH2 0x1AB JUMPI DUP3 PUSH1 0x3 NOT CALLDATASIZE ADD SLT PUSH2 0x1AB JUMPI PUSH1 0x20 SWAP3 POP SLOAD SWAP1 MLOAD SWAP1 DUP2 MSTORE RETURN JUMPDEST POP POP CALLVALUE PUSH2 0x120 JUMPI DUP2 PUSH1 0x3 NOT CALLDATASIZE ADD SLT PUSH2 0x120 JUMPI PUSH1 0x20 SWAP1 PUSH1 0x5 SLOAD SWAP1 MLOAD SWAP1 DUP2 MSTORE RETURN JUMPDEST POP POP CALLVALUE PUSH2 0x120 JUMPI DUP2 PUSH1 0x3 NOT CALLDATASIZE ADD SLT PUSH2 0x120 JUMPI PUSH1 0x2 SLOAD SWAP1 MLOAD PUSH1 0x1 PUSH1 0x1 PUSH1 0xA0 SHL SUB SWAP1 SWAP2 AND DUP2 MSTORE PUSH1 0x20 SWAP1 RETURN JUMPDEST SWAP2 SWAP1 POP CALLVALUE PUSH2 0x1AB JUMPI PUSH1 0x20 CALLDATASIZE PUSH1 0x3 NOT ADD SLT PUSH2 0x1AB JUMPI DUP1 PUSH1 0xFF SWAP2 PUSH1 0xC0 SWAP5 DUP5 CALLDATALOAD DUP2 MSTORE PUSH1 0x3 PUSH1 0x20 MSTORE KECCAK256 PUSH1 0x1 DUP1 PUSH1 0xA0 SHL SUB DUP2 SLOAD AND SWAP4 PUSH1 0x1 DUP3 ADD SLOAD SWAP3 PUSH1 0x2 DUP4 ADD SLOAD SWAP2 PUSH1 0x3 DUP5 ADD SLOAD SWAP4 ADD SLOAD SWAP4 DUP2 MLOAD SWAP7 DUP8 MSTORE PUSH1 0x20 DUP8 ADD MSTORE DUP6 ADD MSTORE PUSH1 0x60 DUP5 ADD MSTORE DUP2 DUP2 AND ISZERO ISZERO PUSH1 0x80 DUP5 ADD MSTORE PUSH1 0x8 SHR AND ISZERO ISZERO PUSH1 0xA0 DUP3 ADD MSTORE RETURN JUMPDEST DUP4 DUP4 CALLVALUE PUSH2 0x120 JUMPI PUSH1 0x60 CALLDATASIZE PUSH1 0x3 NOT ADD SLT PUSH2 0x120 JUMPI DUP3 CALLDATALOAD PUSH1 0x24 CALLDATALOAD SWAP2 PUSH1 0x44 CALLDATALOAD PUSH2 0x641 PUSH2 0xADD JUMP JUMPDEST DUP1 DUP5 ISZERO PUSH2 0x7C6 JUMPI DUP4 DUP7 MSTORE PUSH1 0x3 PUSH1 0x20 MSTORE DUP3 DUP7 KECCAK256 SLOAD PUSH1 0x1 PUSH1 0x1 PUSH1 0xA0 SHL SUB SWAP2 SWAP1 DUP3 AND PUSH2 0x7B6 JUMPI DUP8 SLOAD DUP1 SWAP2 LT PUSH2 0x7AE JUMPI JUMPDEST POP DUP3 MLOAD PUSH4 0x23B872DD PUSH1 0xE0 SHL PUSH1 0x20 DUP3 ADD MSTORE CALLER PUSH1 0x24 DUP3 ADD MSTORE ADDRESS PUSH1 0x44 DUP3 ADD MSTORE PUSH1 0x64 DUP1 DUP3 ADD DUP8 SWAP1 MSTORE DUP2 MSTORE PUSH1 0xA0 DUP2 ADD PUSH8 0xFFFFFFFFFFFFFFFF DUP2 GT DUP3 DUP3 LT OR PUSH2 0x79B JUMPI DUP9 PUSH2 0x6FE DUP7 SWAP6 SWAP5 SWAP4 DUP11 SWAP4 PUSH32 0x2DCDAAD87B561BA5A69835009B4C53EF9D3C41CA6CC9574049187659D6C6A715 SWAP9 MSTORE PUSH32 0x0 PUSH2 0xA75 JUMP JUMPDEST DUP5 MLOAD PUSH2 0x709 DUP2 PUSH2 0xA43 JUMP JUMPDEST CALLER DUP2 MSTORE PUSH1 0x20 DUP2 ADD DUP10 DUP2 MSTORE DUP7 DUP3 ADD NUMBER DUP2 MSTORE PUSH1 0x60 DUP4 ADD SWAP2 DUP8 DUP4 MSTORE PUSH1 0x80 DUP5 ADD SWAP7 DUP7 DUP9 MSTORE DUP10 PUSH1 0xA0 DUP7 ADD SWAP8 DUP1 DUP10 MSTORE DUP14 DUP2 MSTORE PUSH1 0x3 PUSH1 0x20 MSTORE KECCAK256 SWAP5 MLOAD AND PUSH12 0xFFFFFFFFFFFFFFFFFFFFFFFF PUSH1 0xA0 SHL DUP6 SLOAD AND OR DUP5 SSTORE MLOAD PUSH1 0x1 DUP5 ADD SSTORE MLOAD PUSH1 0x2 DUP4 ADD SSTORE MLOAD PUSH1 0x3 DUP3 ADD SSTORE ADD SWAP2 MLOAD ISZERO ISZERO SWAP1 PUSH1 0xFF PUSH2 0xFF00 DUP5 SLOAD SWAP3 MLOAD ISZERO ISZERO PUSH1 0x8 SHL AND SWAP3 AND SWAP1 PUSH2 0xFFFF NOT AND OR OR SWAP1 SSTORE DUP2 MLOAD SWAP5 DUP6 MSTORE PUSH1 0x20 DUP6 ADD MSTORE CALLER SWAP4 LOG3 PUSH1 0x1 DUP1 SSTORE DUP1 RETURN JUMPDEST PUSH4 0x4E487B71 PUSH1 0xE0 SHL DUP9 MSTORE PUSH1 0x41 DUP10 MSTORE PUSH1 0x24 DUP9 REVERT JUMPDEST SWAP2 POP DUP8 PUSH2 0x66E JUMP JUMPDEST DUP4 MLOAD PUSH4 0x756F5C2D PUSH1 0xE1 SHL DUP2 MSTORE DUP9 SWAP1 REVERT JUMPDEST DUP3 MLOAD PUSH4 0x162908E3 PUSH1 0xE1 SHL DUP2 MSTORE DUP8 SWAP1 REVERT JUMPDEST DUP4 DUP4 CALLVALUE PUSH2 0x120 JUMPI DUP1 PUSH1 0x3 NOT CALLDATASIZE ADD SLT PUSH2 0x120 JUMPI PUSH1 0x24 CALLDATALOAD PUSH1 0x1 PUSH1 0x1 PUSH1 0xA0 SHL SUB DUP2 DUP2 AND SWAP3 DUP6 CALLDATALOAD SWAP3 SWAP1 SWAP2 DUP5 DUP3 SUB PUSH2 0x938 JUMPI DUP1 PUSH1 0x2 SLOAD AND CALLER SUB PUSH2 0x928 JUMPI PUSH2 0x816 PUSH2 0xADD JUMP JUMPDEST DUP4 DUP7 MSTORE PUSH1 0x3 PUSH1 0x20 MSTORE DUP3 DUP7 KECCAK256 SWAP1 DUP2 SLOAD AND ISZERO PUSH2 0x918 JUMPI DUP7 DUP2 ADD DUP1 SLOAD PUSH1 0xFF DUP2 AND PUSH2 0x908 JUMPI PUSH1 0xFF DUP2 PUSH1 0x8 SHR AND PUSH2 0x8F8 JUMPI SWAP1 PUSH1 0x1 DUP1 SWAP4 SWAP3 PUSH1 0xFF NOT AND OR SWAP1 SSTORE ADD SLOAD SWAP1 PUSH1 0x5 SLOAD DUP1 DUP4 MUL SWAP1 DUP4 DUP3 DIV EQ DUP4 ISZERO OR ISZERO PUSH2 0x8E5 JUMPI PUSH2 0x2710 SWAP1 DIV SWAP1 DUP2 DUP4 SUB SWAP3 DUP4 GT PUSH2 0x8E5 JUMPI SWAP1 PUSH2 0x8D3 DUP4 PUSH32 0xBAA21FB6000FBB6D014FAC9CD1B0726799E6F352A967157A59F4B2DA8EF32211 SWAP6 SWAP5 SWAP4 PUSH2 0x8AA DUP5 PUSH1 0x6 SLOAD PUSH2 0xB00 JUMP JUMPDEST PUSH1 0x6 SSTORE PUSH32 0x0 PUSH2 0xB23 JUMP JUMPDEST DUP3 MLOAD SWAP2 DUP3 MSTORE PUSH1 0x20 DUP3 ADD MSTORE LOG3 PUSH1 0x1 DUP1 SSTORE DUP1 RETURN JUMPDEST PUSH4 0x4E487B71 PUSH1 0xE0 SHL DUP8 MSTORE PUSH1 0x11 DUP9 MSTORE PUSH1 0x24 DUP8 REVERT JUMPDEST DUP5 MLOAD PUSH4 0x542F378D PUSH1 0xE1 SHL DUP2 MSTORE DUP10 SWAP1 REVERT JUMPDEST DUP5 MLOAD PUSH4 0x31DA4827 PUSH1 0xE1 SHL DUP2 MSTORE DUP10 SWAP1 REVERT JUMPDEST DUP3 MLOAD PUSH4 0x2589D98F PUSH1 0xE1 SHL DUP2 MSTORE DUP8 SWAP1 REVERT JUMPDEST DUP3 MLOAD PUSH4 0x1BC2178F PUSH1 0xE0 SHL DUP2 MSTORE DUP8 SWAP1 REVERT JUMPDEST DUP6 DUP1 REVERT JUMPDEST DUP4 CALLVALUE PUSH2 0x527 JUMPI PUSH1 0x20 CALLDATASIZE PUSH1 0x3 NOT ADD SLT PUSH2 0x527 JUMPI PUSH2 0x956 PUSH2 0x9FC JUMP JUMPDEST PUSH2 0x95E PUSH2 0xA17 JUMP JUMPDEST PUSH1 0x2 SLOAD PUSH1 0x1 PUSH1 0x1 PUSH1 0xA0 SHL SUB SWAP2 DUP3 AND SWAP2 DUP3 SWAP1 DUP3 AND PUSH32 0x78C3B417DADF69374A59793B829C52001247130433427049317BDE56607B1B7 DUP6 DUP1 LOG3 PUSH1 0x1 PUSH1 0x1 PUSH1 0xA0 SHL SUB NOT AND OR PUSH1 0x2 SSTORE DUP1 RETURN JUMPDEST DUP4 CALLVALUE PUSH2 0x527 JUMPI PUSH1 0x20 CALLDATASIZE PUSH1 0x3 NOT ADD SLT PUSH2 0x527 JUMPI PUSH2 0x9F9 PUSH2 0x9C3 PUSH2 0x9FC JUMP JUMPDEST PUSH2 0x9CB PUSH2 0xA17 JUMP JUMPDEST PUSH1 0x6 SLOAD SWAP1 DUP4 PUSH1 0x6 SSTORE PUSH32 0x0 PUSH2 0xB23 JUMP JUMPDEST DUP1 RETURN JUMPDEST PUSH1 0x4 CALLDATALOAD SWAP1 PUSH1 0x1 PUSH1 0x1 PUSH1 0xA0 SHL SUB DUP3 AND DUP3 SUB PUSH2 0xA12 JUMPI JUMP JUMPDEST PUSH1 0x0 DUP1 REVERT JUMPDEST PUSH1 0x0 SLOAD PUSH1 0x1 PUSH1 0x1 PUSH1 0xA0 SHL SUB AND CALLER SUB PUSH2 0xA2B JUMPI JUMP JUMPDEST PUSH1 0x40 MLOAD PUSH4 0x118CDAA7 PUSH1 0xE0 SHL DUP2 MSTORE CALLER PUSH1 0x4 DUP3 ADD MSTORE PUSH1 0x24 SWAP1 REVERT JUMPDEST PUSH1 0xC0 DUP2 ADD SWAP1 DUP2 LT PUSH8 0xFFFFFFFFFFFFFFFF DUP3 GT OR PUSH2 0xA5F JUMPI PUSH1 0x40 MSTORE JUMP JUMPDEST PUSH4 0x4E487B71 PUSH1 0xE0 SHL PUSH1 0x0 MSTORE PUSH1 0x41 PUSH1 0x4 MSTORE PUSH1 0x24 PUSH1 0x0 REVERT JUMPDEST SWAP1 PUSH1 0x0 PUSH1 0x20 SWAP2 DUP3 DUP2 MLOAD SWAP2 ADD DUP3 DUP6 GAS CALL ISZERO PUSH2 0xAD1 JUMPI PUSH1 0x0 MLOAD RETURNDATASIZE PUSH2 0xAC8 JUMPI POP PUSH1 0x1 PUSH1 0x1 PUSH1 0xA0 SHL SUB DUP2 AND EXTCODESIZE ISZERO JUMPDEST PUSH2 0xAA6 JUMPI POP JUMP JUMPDEST PUSH1 0x40 MLOAD PUSH4 0x5274AFE7 PUSH1 0xE0 SHL DUP2 MSTORE PUSH1 0x1 PUSH1 0x1 PUSH1 0xA0 SHL SUB SWAP1 SWAP2 AND PUSH1 0x4 DUP3 ADD MSTORE PUSH1 0x24 SWAP1 REVERT JUMPDEST PUSH1 0x1 EQ ISZERO PUSH2 0xA9F JUMP JUMPDEST PUSH1 0x40 MLOAD RETURNDATASIZE PUSH1 0x0 DUP3 RETURNDATACOPY RETURNDATASIZE SWAP1 REVERT JUMPDEST PUSH1 0x2 PUSH1 0x1 SLOAD EQ PUSH2 0xAEE JUMPI PUSH1 0x2 PUSH1 0x1 SSTORE JUMP JUMPDEST PUSH1 0x40 MLOAD PUSH4 0x3EE5AEB5 PUSH1 0xE0 SHL DUP2 MSTORE PUSH1 0x4 SWAP1 REVERT JUMPDEST SWAP2 SWAP1 DUP3 ADD DUP1 SWAP3 GT PUSH2 0xB0D JUMPI JUMP JUMPDEST PUSH4 0x4E487B71 PUSH1 0xE0 SHL PUSH1 0x0 MSTORE PUSH1 0x11 PUSH1 0x4 MSTORE PUSH1 0x24 PUSH1 0x0 REVERT JUMPDEST PUSH1 0x40 MLOAD PUSH4 0xA9059CBB PUSH1 0xE0 SHL PUSH1 0x20 DUP3 ADD MSTORE PUSH1 0x1 PUSH1 0x1 PUSH1 0xA0 SHL SUB SWAP1 SWAP3 AND PUSH1 0x24 DUP4 ADD MSTORE PUSH1 0x44 DUP1 DUP4 ADD SWAP4 SWAP1 SWAP4 MSTORE SWAP2 DUP2 MSTORE PUSH1 0x80 DUP2 ADD SWAP2 PUSH8 0xFFFFFFFFFFFFFFFF DUP4 GT DUP3 DUP5 LT OR PUSH2 0xA5F JUMPI PUSH2 0xB73 SWAP3 PUSH1 0x40 MSTORE PUSH2 0xA75 JUMP JUMPDEST JUMP INVALID LOG2 PUSH5 0x6970667358 0x22 SLT KECCAK256 0xE2 BASEFEE 0xA7 BYTE SWAP11 0xD2 0xCB GAS EXTCODECOPY 0xAF 0xCB SAR PUSH32 0xCD5D47B1B616A89AB2FB3E6F53F15758F0E8F64736F6C634300081400330000 "},"methodIdentifiers":{"accumulatedFees()":"587f5ed7","aiOracle()":"31b221cd","canRefund(bytes32)":"8c8c2003","deposit(bytes32,uint256,uint256)":"278f2ab8","escrows(bytes32)":"2d83549c","getEscrow(bytes32)":"f023b811","mdtToken()":"f70b5c06","minTimeout()":"4cf71be4","owner()":"8da5cb5b","protocolFeeBps()":"35659fb8","refund(bytes32)":"7249fbb6","release(bytes32,address)":"1bbdcfd3","renounceOwnership()":"715018a6","setAIOracle(address)":"1aa632b3","setProtocolFee(uint256)":"787dce3d","transferOwnership(address)":"f2fde38b","withdrawFees(address)":"164e68de"}}}}}