{"src/templates/ZkMLVerifier.sol":{"ZkMLVerifier":{"abi":[{"inputs":[],"stateMutability":"nonpayable","type":"constructor"},{"inputs":[{"internalType":"address","name":"owner","type":"address"}],"name":"OwnableInvalidOwner","type":"error"},{"inputs":[{"internalType":"address","name":"account","type":"address"}],"name":"OwnableUnauthorizedAccount","type":"error"},{"anonymous":false,"inputs":[{"indexed":false,"internalType":"bool","name":"enabled","type":"bool"}],"name":"DevModeToggled","type":"event"},{"anonymous":false,"inputs":[{"indexed":true,"internalType":"bytes32","name":"imageId","type":"bytes32"}],"name":"ImageRevoked","type":"event"},{"anonymous":false,"inputs":[{"indexed":true,"internalType":"bytes32","name":"imageId","type":"bytes32"}],"name":"ImageTrusted","type":"event"},{"anonymous":false,"inputs":[{"indexed":true,"internalType":"address","name":"previousOwner","type":"address"},{"indexed":true,"internalType":"address","name":"newOwner","type":"address"}],"name":"OwnershipTransferred","type":"event"},{"anonymous":false,"inputs":[{"indexed":true,"internalType":"bytes32","name":"proofHash","type":"bytes32"},{"indexed":true,"internalType":"bytes32","name":"imageId","type":"bytes32"},{"indexed":false,"internalType":"address","name":"verifier","type":"address"},{"indexed":false,"internalType":"bool","name":"isValid","type":"bool"}],"name":"ProofVerified","type":"event"},{"inputs":[],"name":"PROOF_TYPE_DEV","outputs":[{"internalType":"uint8","name":"","type":"uint8"}],"stateMutability":"view","type":"function"},{"inputs":[],"name":"PROOF_TYPE_GROTH16","outputs":[{"internalType":"uint8","name":"","type":"uint8"}],"stateMutability":"view","type":"function"},{"inputs":[],"name":"PROOF_TYPE_STARK","outputs":[{"internalType":"uint8","name":"","type":"uint8"}],"stateMutability":"view","type":"function"},{"inputs":[],"name":"RISC0_VERIFIER","outputs":[{"internalType":"address","name":"","type":"address"}],"stateMutability":"view","type":"function"},{"inputs":[{"internalType":"bytes32","name":"imageId","type":"bytes32"},{"internalType":"bytes","name":"journal","type":"bytes"},{"internalType":"bytes","name":"seal","type":"bytes"}],"name":"computeProofHash","outputs":[{"internalType":"bytes32","name":"","type":"bytes32"}],"stateMutability":"pure","type":"function"},{"inputs":[],"name":"devModeEnabled","outputs":[{"internalType":"bool","name":"","type":"bool"}],"stateMutability":"view","type":"function"},{"inputs":[{"internalType":"bytes32","name":"proofHash","type":"bytes32"}],"name":"getVerification","outputs":[{"components":[{"internalType":"bytes32","name":"imageId","type":"bytes32"},{"internalType":"bytes32","name":"journalHash","type":"bytes32"},{"internalType":"address","name":"verifier","type":"address"},{"internalType":"uint256","name":"verifiedAt","type":"uint256"},{"internalType":"bool","name":"isValid","type":"bool"}],"internalType":"struct ZkMLVerifier.VerifiedProof","name":"","type":"tuple"}],"stateMutability":"view","type":"function"},{"inputs":[{"internalType":"bytes32","name":"imageId","type":"bytes32"}],"name":"isImageTrusted","outputs":[{"internalType":"bool","name":"","type":"bool"}],"stateMutability":"view","type":"function"},{"inputs":[],"name":"maxProofAge","outputs":[{"internalType":"uint256","name":"","type":"uint256"}],"stateMutability":"view","type":"function"},{"inputs":[],"name":"owner","outputs":[{"internalType":"address","name":"","type":"address"}],"stateMutability":"view","type":"function"},{"inputs":[],"name":"renounceOwnership","outputs":[],"stateMutability":"nonpayable","type":"function"},{"inputs":[{"internalType":"bytes32","name":"imageId","type":"bytes32"}],"name":"revokeImage","outputs":[],"stateMutability":"nonpayable","type":"function"},{"inputs":[{"internalType":"bool","name":"enabled","type":"bool"}],"name":"setDevMode","outputs":[],"stateMutability":"nonpayable","type":"function"},{"inputs":[{"internalType":"uint256","name":"age","type":"uint256"}],"name":"setMaxProofAge","outputs":[],"stateMutability":"nonpayable","type":"function"},{"inputs":[{"internalType":"address","name":"newOwner","type":"address"}],"name":"transferOwnership","outputs":[],"stateMutability":"nonpayable","type":"function"},{"inputs":[{"internalType":"bytes32","name":"imageId","type":"bytes32"}],"name":"trustImage","outputs":[],"stateMutability":"nonpayable","type":"function"},{"inputs":[{"internalType":"bytes32[]","name":"imageIds","type":"bytes32[]"}],"name":"trustImages","outputs":[],"stateMutability":"nonpayable","type":"function"},{"inputs":[{"internalType":"bytes32","name":"","type":"bytes32"}],"name":"trustedImages","outputs":[{"internalType":"bool","name":"","type":"bool"}],"stateMutability":"view","type":"function"},{"inputs":[{"internalType":"bytes32","name":"","type":"bytes32"}],"name":"verifiedProofs","outputs":[{"internalType":"bytes32","name":"imageId","type":"bytes32"},{"internalType":"bytes32","name":"journalHash","type":"bytes32"},{"internalType":"address","name":"verifier","type":"address"},{"internalType":"uint256","name":"verifiedAt","type":"uint256"},{"internalType":"bool","name":"isValid","type":"bool"}],"stateMutability":"view","type":"function"},{"inputs":[{"internalType":"bytes","name":"proofData","type":"bytes"}],"name":"verify","outputs":[{"internalType":"bool","name":"isValid","type":"bool"},{"internalType":"bytes32","name":"journalHash","type":"bytes32"}],"stateMutability":"nonpayable","type":"function"},{"inputs":[{"internalType":"bytes32","name":"imageId","type":"bytes32"},{"internalType":"bytes","name":"journal","type":"bytes"},{"internalType":"bytes","name":"seal","type":"bytes"},{"internalType":"uint8","name":"proofType","type":"uint8"}],"name":"verifyProof","outputs":[{"internalType":"bool","name":"isValid","type":"bool"},{"internalType":"bytes32","name":"journalHash","type":"bytes32"}],"stateMutability":"nonpayable","type":"function"}],"evm":{"bytecode":{"linkReferences":{},"object":"6080806040523461008d5733156100775760008054336001600160a01b03198216811783556040519290916001600160a01b0316907f8be0079c531659141344cd1fd0a4f28419497f9722a3daafe3b4186f6b6457e09080a3600160ff196003541617600355610e1060045561126090816100938239f35b631e4fbdf760e01b815260006004820152602490fd5b600080fdfe6080604052600436101561001257600080fd5b60003560e01c8063176d80c4146101625780631bddcb191461015d5780632c5d696c1461015857806343f9405f146101535780634ee9f2d1146101535780635bb4aefd1461014e5780636f5b6b2014610149578063715018a6146101445780637c897da21461013f5780637d4ba4fe1461013a5780638bbd8fe5146101355780638da5cb5b146101305780638e760afe1461012b57806394ef244014610126578063965a572b14610121578063a9c6dc031461011c578063b0e00c2114610117578063e2dd674514610112578063f08b224c1461010d578063f2fde38b146101085763fa592e3f1461010357600080fd5b610936565b6108ab565b61088e565b6107f8565b61070b565b6106b1565b610654565b610583565b6104b6565b61048d565b6103de565b61038d565b61032b565b6102c3565b6102a5565b610289565b610258565b61023c565b6101cb565b346101c65760203660031901126101c657600435600052600260205260a06040600020805490600181015490600180851b0360028201541660ff60046003840154930154169260405194855260208501526040840152606083015215156080820152f35b600080fd5b346101c65760203660031901126101c6576004356101e7610952565b603c8110158061022f575b156101fc57600455005b60405162461bcd60e51b815260206004820152600b60248201526a496e76616c69642061676560a81b6044820152606490fd5b50620151808111156101f2565b346101c65760003660031901126101c657602060405160028152f35b346101c65760203660031901126101c6576004356000526001602052602060ff604060002054166040519015158152f35b346101c65760003660031901126101c657602060405160018152f35b346101c65760003660031901126101c6576020600454604051908152f35b346101c65760008060031936011261031e576102dd610952565b80546001600160a01b03198116825581906001600160a01b03167f8be0079c531659141344cd1fd0a4f28419497f9722a3daafe3b4186f6b6457e08280a380f35b80fd5b801515036101c657565b346101c65760203660031901126101c6577fc337d6f45251ec06523ece720baa068bf4eb00bfaa211df09f4e981072170d91602060043561036b81610321565b610373610952565b151560ff196003541660ff821617600355604051908152a1005b346101c65760003660031901126101c657602060ff600354166040519015158152f35b9181601f840112156101c65782359167ffffffffffffffff83116101c657602083818601950101116101c657565b346101c65760603660031901126101c65767ffffffffffffffff6024358181116101c6576104109036906004016103b0565b906044359283116101c657610476606061043e6104346104899636906004016103b0565b9490953691610a3a565b6020815191012093836040519485926020840197600435895260408501528484013781016000838201520360408101845201826109ed565b5190206040519081529081906020820190565b0390f35b346101c65760003660031901126101c6576000546040516001600160a01b039091168152602090f35b346101c65760203660031901126101c65767ffffffffffffffff6004358181116101c6576104e89036906004016103b0565b8101906020818303126101c6578035908382116101c65701916080838303126101c6576040519161051883610994565b8335835260208401358281116101c65781610534918601610a71565b602084015260408401359182116101c6578361055a6060926105659461056f9701610a71565b6040850152016107ea565b6060820152610b17565b604080519215158352602083019190915290f35b346101c65760203660031901126101c657610489604080608081516105a7816109b5565b60009181838093528260208201528285820152826060820152015260043581526002602052209060ff60048251936105de856109b5565b805485526001810154602086015260018060a01b03600282015416848601526003810154606086015201541615156080830152519182918291909160808060a0830194805184526020810151602085015260018060a01b0360408201511660408501526060810151606085015201511515910152565b346101c65760203660031901126101c657600435610670610952565b600090808252600160205260408220600160ff198254161790557fcea99d9506d3ccdf6d16ab2b79aa5ed14f544362f4a09cc5a8e3da196c75fea28280a280f35b346101c65760203660031901126101c6576004356106cd610952565b6000818152600160205260408120805460ff19169055907fae0cbfb48e0a7a904df88eec3a0bbe8eb58ba3558a9d53f7d94208b2c1c7279e8280a280f35b346101c6576020806003193601126101c65760043567ffffffffffffffff918282116101c657366023830112156101c65781600401359283116101c6576024820191602436918560051b0101116101c657610764610952565b60005b83811061077057005b61077b818585611204565b35600052600180835260406000209060ff1982541617905561079e818585611204565b357fcea99d9506d3ccdf6d16ab2b79aa5ed14f544362f4a09cc5a8e3da196c75fea2600080a260001981146107d557600101610767565b6110ca565b6064359060ff821682036101c657565b359060ff821682036101c657565b346101c65760803660031901126101c65767ffffffffffffffff6024358181116101c65761082a9036906004016103b0565b90916044359081116101c65761056f9261087e61084d60ff9336906004016103b0565b6108726108586107da565b946040519761086689610994565b60043589523691610a3a565b60208701523691610a3a565b6040840152166060820152610b17565b346101c65760003660031901126101c65760206040516101008152f35b346101c65760203660031901126101c6576001600160a01b03600435818116908190036101c6576108da610952565b801561091d57600080546001600160a01b03198116831782559092167f8be0079c531659141344cd1fd0a4f28419497f9722a3daafe3b4186f6b6457e08380a380f35b604051631e4fbdf760e01b815260006004820152602490fd5b346101c65760003660031901126101c657602060405160008152f35b6000546001600160a01b0316330361096657565b60405163118cdaa760e01b8152336004820152602490fd5b634e487b7160e01b600052604160045260246000fd5b6080810190811067ffffffffffffffff8211176109b057604052565b61097e565b60a0810190811067ffffffffffffffff8211176109b057604052565b6040810190811067ffffffffffffffff8211176109b057604052565b90601f8019910116810190811067ffffffffffffffff8211176109b057604052565b60405190610a1c826109b5565b565b67ffffffffffffffff81116109b057601f01601f191660200190565b929192610a4682610a1e565b91610a5460405193846109ed565b8294818452818301116101c6578281602093846000960137010152565b9080601f830112156101c657816020610a8c93359101610a3a565b90565b15610a9657565b60405162461bcd60e51b8152602060048201526011602482015270125b5859d9481b9bdd081d1c9d5cdd1959607a1b6044820152606490fd5b60005b838110610ae25750506000910152565b8181015183820152602001610ad2565b90916040939282526020820152610b128251809360208685019101610acf565b010190565b90610b3f610b3a610b3384516000526001602052604060002090565b5460ff1690565b610a8f565b602082015160208151910120918051610b6b610b79604084015160405192839188602084019687610af2565b03601f1981018352826109ed565b5190206003610b92826000526002602052604060002090565b0154610cee5760ff610ba8606084015160ff1690565b1660028103610c8f5750610bbb82610d2d565b915b610c548151610bca610a0f565b908152602081018790523360408201524260608201528415156080820152610bfc846000526002602052604060002090565b600460809183518155602084015160018201556002810160018060a01b036040860151166bffffffffffffffffffffffff60a01b8254161790556060840151600382015501910151151560ff80198354169116179055565b516040805133815284151560208201529192917fa63c74b8ff7c46b7e5e577ea9c355079dbf254f2beb1d31043043a51e507e3f29190a39190565b80610ca45750610c9e82610e72565b91610bbd565b600103610cb457610c9e8261100d565b60405162461bcd60e51b8152602060048201526012602482015271556e6b6e6f776e2070726f6f66207479706560701b6044820152606490fd5b610d119150610d096004916000526002602052604060002090565b015460ff1690565b9190565b602092918152610b1282518093858085019101610acf565b60ff6003541615610da457806040610d55925160208301518251948591602083019384610d15565b0393610d69601f19958681018352826109ed565b5190209101516020815191012091610d9d6040519182610d9160208201958660209181520190565b039081018352826109ed565b5190201490565b60405162461bcd60e51b815260206004820152601160248201527011195d881b5bd91948191a5cd8589b1959607a1b6044820152606490fd5b90602091610df681518092818552858086019101610acf565b601f01601f1916010190565b91610e1f90610a8c94928452606060208501526060840190610ddd565b916040818403910152610ddd565b3d15610e58573d90610e3e82610a1e565b91610e4c60405193846109ed565b82523d6000602084013e565b606090565b908160209103126101c65751610a8c81610321565b6040810180519060209283835110610efb5761010090813b610e9e575050905051908151910120151590565b600093849350610ec0868351930151610b6b6040519384928a84019687610e02565b51915afa610ecc610e2d565b90158015610ef1575b610eea5781610a8c9282518301019101610e5d565b5050600090565b5081815110610ed5565b50505050600090565b60405190610f11826109d1565b6040368337565b604051906020820182811067ffffffffffffffff8211176109b0576040526020368337565b6040908151610f4b816109d1565b809260005b818110610f5c57505050565b6020908251610f6a816109d1565b833682378185015201610f50565b6000915b60028310610f8957505050565b600190825181526020809101920192019190610f7c565b906000905b60028210610fb257505050565b6020604082610fc46001948751610f78565b01930191019091610fa5565b92610ffe90610ff461100994610fea876101809996610f78565b6040870190610fa0565b60c0850190610f78565b610100830190610fa0565b0190565b6101008060408301515110610eea57611024610f04565b916110a661108a611033610f3d565b94606061103e610f04565b940151946020958681015183526040810151878401526080810151885260608101518789015260c0810151604089015260a0810151606089015260e081015186520151858501526110e0565b93610b6b61109661113b565b6040519485938785019889610fd0565b6110ae610f18565b928391519060085afa90816110c1575090565b60019150511490565b634e487b7160e01b600052601160045260246000fd5b604080516110ed816109d1565b3690376020604051916110ff836109d1565b805183527f30644e72e131a029b85045b68181585d97816a916871ca8d3c208c16d87cfd4791829101510681039081116107d557602082015290565b611143610f3d565b50604051611150816109d1565b60405161115c816109d1565b7f198e9393920d483a7260bfb731fb5d25f1aa493335a9e71297e485b7aef312c281527f1800deef121f1e76426a00665e5c4479674322d4f75edadd46debd5cd992f6ed602082015281526040516111b3816109d1565b7f090689d0585ff075ec9e99ad690c3395bc4b313370b38ef355acdadcd122975b81527f12c85ea5db8c6deb4aab71808dcb408fe3d1e7690c43d37b4ce6cc0166fa7daa6020820152602082015290565b91908110156112145760051b0190565b634e487b7160e01b600052603260045260246000fdfea2646970667358221220e115690214ca9057e4c97d914338224bcd5acd3fd60e414f7ed86f8ec0d89a6064736f6c63430008140033","opcodes":"PUSH1 0x80 DUP1 PUSH1 0x40 MSTORE CALLVALUE PUSH2 0x8D JUMPI CALLER ISZERO PUSH2 0x77 JUMPI PUSH1 0x0 DUP1 SLOAD CALLER PUSH1 0x1 PUSH1 0x1 PUSH1 0xA0 SHL SUB NOT DUP3 AND DUP2 OR DUP4 SSTORE PUSH1 0x40 MLOAD SWAP3 SWAP1 SWAP2 PUSH1 0x1 PUSH1 0x1 PUSH1 0xA0 SHL SUB AND SWAP1 PUSH32 0x8BE0079C531659141344CD1FD0A4F28419497F9722A3DAAFE3B4186F6B6457E0 SWAP1 DUP1 LOG3 PUSH1 0x1 PUSH1 0xFF NOT PUSH1 0x3 SLOAD AND OR PUSH1 0x3 SSTORE PUSH2 0xE10 PUSH1 0x4 SSTORE PUSH2 0x1260 SWAP1 DUP2 PUSH2 0x93 DUP3 CODECOPY RETURN JUMPDEST PUSH4 0x1E4FBDF7 PUSH1 0xE0 SHL DUP2 MSTORE PUSH1 0x0 PUSH1 0x4 DUP3 ADD MSTORE PUSH1 0x24 SWAP1 REVERT JUMPDEST PUSH1 0x0 DUP1 REVERT INVALID PUSH1 0x80 PUSH1 0x40 MSTORE PUSH1 0x4 CALLDATASIZE LT ISZERO PUSH2 0x12 JUMPI PUSH1 0x0 DUP1 REVERT JUMPDEST PUSH1 0x0 CALLDATALOAD PUSH1 0xE0 SHR DUP1 PUSH4 0x176D80C4 EQ PUSH2 0x162 JUMPI DUP1 PUSH4 0x1BDDCB19 EQ PUSH2 0x15D JUMPI DUP1 PUSH4 0x2C5D696C EQ PUSH2 0x158 JUMPI DUP1 PUSH4 0x43F9405F EQ PUSH2 0x153 JUMPI DUP1 PUSH4 0x4EE9F2D1 EQ PUSH2 0x153 JUMPI DUP1 PUSH4 0x5BB4AEFD EQ PUSH2 0x14E JUMPI DUP1 PUSH4 0x6F5B6B20 EQ PUSH2 0x149 JUMPI DUP1 PUSH4 0x715018A6 EQ PUSH2 0x144 JUMPI DUP1 PUSH4 0x7C897DA2 EQ PUSH2 0x13F JUMPI DUP1 PUSH4 0x7D4BA4FE EQ PUSH2 0x13A JUMPI DUP1 PUSH4 0x8BBD8FE5 EQ PUSH2 0x135 JUMPI DUP1 PUSH4 0x8DA5CB5B EQ PUSH2 0x130 JUMPI DUP1 PUSH4 0x8E760AFE EQ PUSH2 0x12B JUMPI DUP1 PUSH4 0x94EF2440 EQ PUSH2 0x126 JUMPI DUP1 PUSH4 0x965A572B EQ PUSH2 0x121 JUMPI DUP1 PUSH4 0xA9C6DC03 EQ PUSH2 0x11C JUMPI DUP1 PUSH4 0xB0E00C21 EQ PUSH2 0x117 JUMPI DUP1 PUSH4 0xE2DD6745 EQ PUSH2 0x112 JUMPI DUP1 PUSH4 0xF08B224C EQ PUSH2 0x10D JUMPI DUP1 PUSH4 0xF2FDE38B EQ PUSH2 0x108 JUMPI PUSH4 0xFA592E3F EQ PUSH2 0x103 JUMPI PUSH1 0x0 DUP1 REVERT JUMPDEST PUSH2 0x936 JUMP JUMPDEST PUSH2 0x8AB JUMP JUMPDEST PUSH2 0x88E JUMP JUMPDEST PUSH2 0x7F8 JUMP JUMPDEST PUSH2 0x70B JUMP JUMPDEST PUSH2 0x6B1 JUMP JUMPDEST PUSH2 0x654 JUMP JUMPDEST PUSH2 0x583 JUMP JUMPDEST PUSH2 0x4B6 JUMP JUMPDEST PUSH2 0x48D JUMP JUMPDEST PUSH2 0x3DE JUMP JUMPDEST PUSH2 0x38D JUMP JUMPDEST PUSH2 0x32B JUMP JUMPDEST PUSH2 0x2C3 JUMP JUMPDEST PUSH2 0x2A5 JUMP JUMPDEST PUSH2 0x289 JUMP JUMPDEST PUSH2 0x258 JUMP JUMPDEST PUSH2 0x23C JUMP JUMPDEST PUSH2 0x1CB JUMP JUMPDEST CALLVALUE PUSH2 0x1C6 JUMPI PUSH1 0x20 CALLDATASIZE PUSH1 0x3 NOT ADD SLT PUSH2 0x1C6 JUMPI PUSH1 0x4 CALLDATALOAD PUSH1 0x0 MSTORE PUSH1 0x2 PUSH1 0x20 MSTORE PUSH1 0xA0 PUSH1 0x40 PUSH1 0x0 KECCAK256 DUP1 SLOAD SWAP1 PUSH1 0x1 DUP2 ADD SLOAD SWAP1 PUSH1 0x1 DUP1 DUP6 SHL SUB PUSH1 0x2 DUP3 ADD SLOAD AND PUSH1 0xFF PUSH1 0x4 PUSH1 0x3 DUP5 ADD SLOAD SWAP4 ADD SLOAD AND SWAP3 PUSH1 0x40 MLOAD SWAP5 DUP6 MSTORE PUSH1 0x20 DUP6 ADD MSTORE PUSH1 0x40 DUP5 ADD MSTORE PUSH1 0x60 DUP4 ADD MSTORE ISZERO ISZERO PUSH1 0x80 DUP3 ADD MSTORE RETURN JUMPDEST PUSH1 0x0 DUP1 REVERT JUMPDEST CALLVALUE PUSH2 0x1C6 JUMPI PUSH1 0x20 CALLDATASIZE PUSH1 0x3 NOT ADD SLT PUSH2 0x1C6 JUMPI PUSH1 0x4 CALLDATALOAD PUSH2 0x1E7 PUSH2 0x952 JUMP JUMPDEST PUSH1 0x3C DUP2 LT ISZERO DUP1 PUSH2 0x22F JUMPI JUMPDEST ISZERO PUSH2 0x1FC JUMPI PUSH1 0x4 SSTORE STOP JUMPDEST PUSH1 0x40 MLOAD PUSH3 0x461BCD PUSH1 0xE5 SHL DUP2 MSTORE PUSH1 0x20 PUSH1 0x4 DUP3 ADD MSTORE PUSH1 0xB PUSH1 0x24 DUP3 ADD MSTORE PUSH11 0x496E76616C696420616765 PUSH1 0xA8 SHL PUSH1 0x44 DUP3 ADD MSTORE PUSH1 0x64 SWAP1 REVERT JUMPDEST POP PUSH3 0x15180 DUP2 GT ISZERO PUSH2 0x1F2 JUMP JUMPDEST CALLVALUE PUSH2 0x1C6 JUMPI PUSH1 0x0 CALLDATASIZE PUSH1 0x3 NOT ADD SLT PUSH2 0x1C6 JUMPI PUSH1 0x20 PUSH1 0x40 MLOAD PUSH1 0x2 DUP2 MSTORE RETURN JUMPDEST CALLVALUE PUSH2 0x1C6 JUMPI PUSH1 0x20 CALLDATASIZE PUSH1 0x3 NOT ADD SLT PUSH2 0x1C6 JUMPI PUSH1 0x4 CALLDATALOAD PUSH1 0x0 MSTORE PUSH1 0x1 PUSH1 0x20 MSTORE PUSH1 0x20 PUSH1 0xFF PUSH1 0x40 PUSH1 0x0 KECCAK256 SLOAD AND PUSH1 0x40 MLOAD SWAP1 ISZERO ISZERO DUP2 MSTORE RETURN JUMPDEST CALLVALUE PUSH2 0x1C6 JUMPI PUSH1 0x0 CALLDATASIZE PUSH1 0x3 NOT ADD SLT PUSH2 0x1C6 JUMPI PUSH1 0x20 PUSH1 0x40 MLOAD PUSH1 0x1 DUP2 MSTORE RETURN JUMPDEST CALLVALUE PUSH2 0x1C6 JUMPI PUSH1 0x0 CALLDATASIZE PUSH1 0x3 NOT ADD SLT PUSH2 0x1C6 JUMPI PUSH1 0x20 PUSH1 0x4 SLOAD PUSH1 0x40 MLOAD SWAP1 DUP2 MSTORE RETURN JUMPDEST CALLVALUE PUSH2 0x1C6 JUMPI PUSH1 0x0 DUP1 PUSH1 0x3 NOT CALLDATASIZE ADD SLT PUSH2 0x31E JUMPI PUSH2 0x2DD PUSH2 0x952 JUMP JUMPDEST DUP1 SLOAD PUSH1 0x1 PUSH1 0x1 PUSH1 0xA0 SHL SUB NOT DUP2 AND DUP3 SSTORE DUP2 SWAP1 PUSH1 0x1 PUSH1 0x1 PUSH1 0xA0 SHL SUB AND PUSH32 0x8BE0079C531659141344CD1FD0A4F28419497F9722A3DAAFE3B4186F6B6457E0 DUP3 DUP1 LOG3 DUP1 RETURN JUMPDEST DUP1 REVERT JUMPDEST DUP1 ISZERO ISZERO SUB PUSH2 0x1C6 JUMPI JUMP JUMPDEST CALLVALUE PUSH2 0x1C6 JUMPI PUSH1 0x20 CALLDATASIZE PUSH1 0x3 NOT ADD SLT PUSH2 0x1C6 JUMPI PUSH32 0xC337D6F45251EC06523ECE720BAA068BF4EB00BFAA211DF09F4E981072170D91 PUSH1 0x20 PUSH1 0x4 CALLDATALOAD PUSH2 0x36B DUP2 PUSH2 0x321 JUMP JUMPDEST PUSH2 0x373 PUSH2 0x952 JUMP JUMPDEST ISZERO ISZERO PUSH1 0xFF NOT PUSH1 0x3 SLOAD AND PUSH1 0xFF DUP3 AND OR PUSH1 0x3 SSTORE PUSH1 0x40 MLOAD SWAP1 DUP2 MSTORE LOG1 STOP JUMPDEST CALLVALUE PUSH2 0x1C6 JUMPI PUSH1 0x0 CALLDATASIZE PUSH1 0x3 NOT ADD SLT PUSH2 0x1C6 JUMPI PUSH1 0x20 PUSH1 0xFF PUSH1 0x3 SLOAD AND PUSH1 0x40 MLOAD SWAP1 ISZERO ISZERO DUP2 MSTORE RETURN JUMPDEST SWAP2 DUP2 PUSH1 0x1F DUP5 ADD SLT ISZERO PUSH2 0x1C6 JUMPI DUP3 CALLDATALOAD SWAP2 PUSH8 0xFFFFFFFFFFFFFFFF DUP4 GT PUSH2 0x1C6 JUMPI PUSH1 0x20 DUP4 DUP2 DUP7 ADD SWAP6 ADD ADD GT PUSH2 0x1C6 JUMPI JUMP JUMPDEST CALLVALUE PUSH2 0x1C6 JUMPI PUSH1 0x60 CALLDATASIZE PUSH1 0x3 NOT ADD SLT PUSH2 0x1C6 JUMPI PUSH8 0xFFFFFFFFFFFFFFFF PUSH1 0x24 CALLDATALOAD DUP2 DUP2 GT PUSH2 0x1C6 JUMPI PUSH2 0x410 SWAP1 CALLDATASIZE SWAP1 PUSH1 0x4 ADD PUSH2 0x3B0 JUMP JUMPDEST SWAP1 PUSH1 0x44 CALLDATALOAD SWAP3 DUP4 GT PUSH2 0x1C6 JUMPI PUSH2 0x476 PUSH1 0x60 PUSH2 0x43E PUSH2 0x434 PUSH2 0x489 SWAP7 CALLDATASIZE SWAP1 PUSH1 0x4 ADD PUSH2 0x3B0 JUMP JUMPDEST SWAP5 SWAP1 SWAP6 CALLDATASIZE SWAP2 PUSH2 0xA3A JUMP JUMPDEST PUSH1 0x20 DUP2 MLOAD SWAP2 ADD KECCAK256 SWAP4 DUP4 PUSH1 0x40 MLOAD SWAP5 DUP6 SWAP3 PUSH1 0x20 DUP5 ADD SWAP8 PUSH1 0x4 CALLDATALOAD DUP10 MSTORE PUSH1 0x40 DUP6 ADD MSTORE DUP5 DUP5 ADD CALLDATACOPY DUP2 ADD PUSH1 0x0 DUP4 DUP3 ADD MSTORE SUB PUSH1 0x40 DUP2 ADD DUP5 MSTORE ADD DUP3 PUSH2 0x9ED JUMP JUMPDEST MLOAD SWAP1 KECCAK256 PUSH1 0x40 MLOAD SWAP1 DUP2 MSTORE SWAP1 DUP2 SWAP1 PUSH1 0x20 DUP3 ADD SWAP1 JUMP JUMPDEST SUB SWAP1 RETURN JUMPDEST CALLVALUE PUSH2 0x1C6 JUMPI PUSH1 0x0 CALLDATASIZE PUSH1 0x3 NOT ADD SLT PUSH2 0x1C6 JUMPI PUSH1 0x0 SLOAD PUSH1 0x40 MLOAD PUSH1 0x1 PUSH1 0x1 PUSH1 0xA0 SHL SUB SWAP1 SWAP2 AND DUP2 MSTORE PUSH1 0x20 SWAP1 RETURN JUMPDEST CALLVALUE PUSH2 0x1C6 JUMPI PUSH1 0x20 CALLDATASIZE PUSH1 0x3 NOT ADD SLT PUSH2 0x1C6 JUMPI PUSH8 0xFFFFFFFFFFFFFFFF PUSH1 0x4 CALLDATALOAD DUP2 DUP2 GT PUSH2 0x1C6 JUMPI PUSH2 0x4E8 SWAP1 CALLDATASIZE SWAP1 PUSH1 0x4 ADD PUSH2 0x3B0 JUMP JUMPDEST DUP2 ADD SWAP1 PUSH1 0x20 DUP2 DUP4 SUB SLT PUSH2 0x1C6 JUMPI DUP1 CALLDATALOAD SWAP1 DUP4 DUP3 GT PUSH2 0x1C6 JUMPI ADD SWAP2 PUSH1 0x80 DUP4 DUP4 SUB SLT PUSH2 0x1C6 JUMPI PUSH1 0x40 MLOAD SWAP2 PUSH2 0x518 DUP4 PUSH2 0x994 JUMP JUMPDEST DUP4 CALLDATALOAD DUP4 MSTORE PUSH1 0x20 DUP5 ADD CALLDATALOAD DUP3 DUP2 GT PUSH2 0x1C6 JUMPI DUP2 PUSH2 0x534 SWAP2 DUP7 ADD PUSH2 0xA71 JUMP JUMPDEST PUSH1 0x20 DUP5 ADD MSTORE PUSH1 0x40 DUP5 ADD CALLDATALOAD SWAP2 DUP3 GT PUSH2 0x1C6 JUMPI DUP4 PUSH2 0x55A PUSH1 0x60 SWAP3 PUSH2 0x565 SWAP5 PUSH2 0x56F SWAP8 ADD PUSH2 0xA71 JUMP JUMPDEST PUSH1 0x40 DUP6 ADD MSTORE ADD PUSH2 0x7EA JUMP JUMPDEST PUSH1 0x60 DUP3 ADD MSTORE PUSH2 0xB17 JUMP JUMPDEST PUSH1 0x40 DUP1 MLOAD SWAP3 ISZERO ISZERO DUP4 MSTORE PUSH1 0x20 DUP4 ADD SWAP2 SWAP1 SWAP2 MSTORE SWAP1 RETURN JUMPDEST CALLVALUE PUSH2 0x1C6 JUMPI PUSH1 0x20 CALLDATASIZE PUSH1 0x3 NOT ADD SLT PUSH2 0x1C6 JUMPI PUSH2 0x489 PUSH1 0x40 DUP1 PUSH1 0x80 DUP2 MLOAD PUSH2 0x5A7 DUP2 PUSH2 0x9B5 JUMP JUMPDEST PUSH1 0x0 SWAP2 DUP2 DUP4 DUP1 SWAP4 MSTORE DUP3 PUSH1 0x20 DUP3 ADD MSTORE DUP3 DUP6 DUP3 ADD MSTORE DUP3 PUSH1 0x60 DUP3 ADD MSTORE ADD MSTORE PUSH1 0x4 CALLDATALOAD DUP2 MSTORE PUSH1 0x2 PUSH1 0x20 MSTORE KECCAK256 SWAP1 PUSH1 0xFF PUSH1 0x4 DUP3 MLOAD SWAP4 PUSH2 0x5DE DUP6 PUSH2 0x9B5 JUMP JUMPDEST DUP1 SLOAD DUP6 MSTORE PUSH1 0x1 DUP2 ADD SLOAD PUSH1 0x20 DUP7 ADD MSTORE PUSH1 0x1 DUP1 PUSH1 0xA0 SHL SUB PUSH1 0x2 DUP3 ADD SLOAD AND DUP5 DUP7 ADD MSTORE PUSH1 0x3 DUP2 ADD SLOAD PUSH1 0x60 DUP7 ADD MSTORE ADD SLOAD AND ISZERO ISZERO PUSH1 0x80 DUP4 ADD MSTORE MLOAD SWAP2 DUP3 SWAP2 DUP3 SWAP2 SWAP1 SWAP2 PUSH1 0x80 DUP1 PUSH1 0xA0 DUP4 ADD SWAP5 DUP1 MLOAD DUP5 MSTORE PUSH1 0x20 DUP2 ADD MLOAD PUSH1 0x20 DUP6 ADD MSTORE PUSH1 0x1 DUP1 PUSH1 0xA0 SHL SUB PUSH1 0x40 DUP3 ADD MLOAD AND PUSH1 0x40 DUP6 ADD MSTORE PUSH1 0x60 DUP2 ADD MLOAD PUSH1 0x60 DUP6 ADD MSTORE ADD MLOAD ISZERO ISZERO SWAP2 ADD MSTORE JUMP JUMPDEST CALLVALUE PUSH2 0x1C6 JUMPI PUSH1 0x20 CALLDATASIZE PUSH1 0x3 NOT ADD SLT PUSH2 0x1C6 JUMPI PUSH1 0x4 CALLDATALOAD PUSH2 0x670 PUSH2 0x952 JUMP JUMPDEST PUSH1 0x0 SWAP1 DUP1 DUP3 MSTORE PUSH1 0x1 PUSH1 0x20 MSTORE PUSH1 0x40 DUP3 KECCAK256 PUSH1 0x1 PUSH1 0xFF NOT DUP3 SLOAD AND OR SWAP1 SSTORE PUSH32 0xCEA99D9506D3CCDF6D16AB2B79AA5ED14F544362F4A09CC5A8E3DA196C75FEA2 DUP3 DUP1 LOG2 DUP1 RETURN JUMPDEST CALLVALUE PUSH2 0x1C6 JUMPI PUSH1 0x20 CALLDATASIZE PUSH1 0x3 NOT ADD SLT PUSH2 0x1C6 JUMPI PUSH1 0x4 CALLDATALOAD PUSH2 0x6CD PUSH2 0x952 JUMP JUMPDEST PUSH1 0x0 DUP2 DUP2 MSTORE PUSH1 0x1 PUSH1 0x20 MSTORE PUSH1 0x40 DUP2 KECCAK256 DUP1 SLOAD PUSH1 0xFF NOT AND SWAP1 SSTORE SWAP1 PUSH32 0xAE0CBFB48E0A7A904DF88EEC3A0BBE8EB58BA3558A9D53F7D94208B2C1C7279E DUP3 DUP1 LOG2 DUP1 RETURN JUMPDEST CALLVALUE PUSH2 0x1C6 JUMPI PUSH1 0x20 DUP1 PUSH1 0x3 NOT CALLDATASIZE ADD SLT PUSH2 0x1C6 JUMPI PUSH1 0x4 CALLDATALOAD PUSH8 0xFFFFFFFFFFFFFFFF SWAP2 DUP3 DUP3 GT PUSH2 0x1C6 JUMPI CALLDATASIZE PUSH1 0x23 DUP4 ADD SLT ISZERO PUSH2 0x1C6 JUMPI DUP2 PUSH1 0x4 ADD CALLDATALOAD SWAP3 DUP4 GT PUSH2 0x1C6 JUMPI PUSH1 0x24 DUP3 ADD SWAP2 PUSH1 0x24 CALLDATASIZE SWAP2 DUP6 PUSH1 0x5 SHL ADD ADD GT PUSH2 0x1C6 JUMPI PUSH2 0x764 PUSH2 0x952 JUMP JUMPDEST PUSH1 0x0 JUMPDEST DUP4 DUP2 LT PUSH2 0x770 JUMPI STOP JUMPDEST PUSH2 0x77B DUP2 DUP6 DUP6 PUSH2 0x1204 JUMP JUMPDEST CALLDATALOAD PUSH1 0x0 MSTORE PUSH1 0x1 DUP1 DUP4 MSTORE PUSH1 0x40 PUSH1 0x0 KECCAK256 SWAP1 PUSH1 0xFF NOT DUP3 SLOAD AND OR SWAP1 SSTORE PUSH2 0x79E DUP2 DUP6 DUP6 PUSH2 0x1204 JUMP JUMPDEST CALLDATALOAD PUSH32 0xCEA99D9506D3CCDF6D16AB2B79AA5ED14F544362F4A09CC5A8E3DA196C75FEA2 PUSH1 0x0 DUP1 LOG2 PUSH1 0x0 NOT DUP2 EQ PUSH2 0x7D5 JUMPI PUSH1 0x1 ADD PUSH2 0x767 JUMP JUMPDEST PUSH2 0x10CA JUMP JUMPDEST PUSH1 0x64 CALLDATALOAD SWAP1 PUSH1 0xFF DUP3 AND DUP3 SUB PUSH2 0x1C6 JUMPI JUMP JUMPDEST CALLDATALOAD SWAP1 PUSH1 0xFF DUP3 AND DUP3 SUB PUSH2 0x1C6 JUMPI JUMP JUMPDEST CALLVALUE PUSH2 0x1C6 JUMPI PUSH1 0x80 CALLDATASIZE PUSH1 0x3 NOT ADD SLT PUSH2 0x1C6 JUMPI PUSH8 0xFFFFFFFFFFFFFFFF PUSH1 0x24 CALLDATALOAD DUP2 DUP2 GT PUSH2 0x1C6 JUMPI PUSH2 0x82A SWAP1 CALLDATASIZE SWAP1 PUSH1 0x4 ADD PUSH2 0x3B0 JUMP JUMPDEST SWAP1 SWAP2 PUSH1 0x44 CALLDATALOAD SWAP1 DUP2 GT PUSH2 0x1C6 JUMPI PUSH2 0x56F SWAP3 PUSH2 0x87E PUSH2 0x84D PUSH1 0xFF SWAP4 CALLDATASIZE SWAP1 PUSH1 0x4 ADD PUSH2 0x3B0 JUMP JUMPDEST PUSH2 0x872 PUSH2 0x858 PUSH2 0x7DA JUMP JUMPDEST SWAP5 PUSH1 0x40 MLOAD SWAP8 PUSH2 0x866 DUP10 PUSH2 0x994 JUMP JUMPDEST PUSH1 0x4 CALLDATALOAD DUP10 MSTORE CALLDATASIZE SWAP2 PUSH2 0xA3A JUMP JUMPDEST PUSH1 0x20 DUP8 ADD MSTORE CALLDATASIZE SWAP2 PUSH2 0xA3A JUMP JUMPDEST PUSH1 0x40 DUP5 ADD MSTORE AND PUSH1 0x60 DUP3 ADD MSTORE PUSH2 0xB17 JUMP JUMPDEST CALLVALUE PUSH2 0x1C6 JUMPI PUSH1 0x0 CALLDATASIZE PUSH1 0x3 NOT ADD SLT PUSH2 0x1C6 JUMPI PUSH1 0x20 PUSH1 0x40 MLOAD PUSH2 0x100 DUP2 MSTORE RETURN JUMPDEST CALLVALUE PUSH2 0x1C6 JUMPI PUSH1 0x20 CALLDATASIZE PUSH1 0x3 NOT ADD SLT PUSH2 0x1C6 JUMPI PUSH1 0x1 PUSH1 0x1 PUSH1 0xA0 SHL SUB PUSH1 0x4 CALLDATALOAD DUP2 DUP2 AND SWAP1 DUP2 SWAP1 SUB PUSH2 0x1C6 JUMPI PUSH2 0x8DA PUSH2 0x952 JUMP JUMPDEST DUP1 ISZERO PUSH2 0x91D JUMPI PUSH1 0x0 DUP1 SLOAD PUSH1 0x1 PUSH1 0x1 PUSH1 0xA0 SHL SUB NOT DUP2 AND DUP4 OR DUP3 SSTORE SWAP1 SWAP3 AND PUSH32 0x8BE0079C531659141344CD1FD0A4F28419497F9722A3DAAFE3B4186F6B6457E0 DUP4 DUP1 LOG3 DUP1 RETURN JUMPDEST PUSH1 0x40 MLOAD PUSH4 0x1E4FBDF7 PUSH1 0xE0 SHL DUP2 MSTORE PUSH1 0x0 PUSH1 0x4 DUP3 ADD MSTORE PUSH1 0x24 SWAP1 REVERT JUMPDEST CALLVALUE PUSH2 0x1C6 JUMPI PUSH1 0x0 CALLDATASIZE PUSH1 0x3 NOT ADD SLT PUSH2 0x1C6 JUMPI PUSH1 0x20 PUSH1 0x40 MLOAD PUSH1 0x0 DUP2 MSTORE RETURN JUMPDEST PUSH1 0x0 SLOAD PUSH1 0x1 PUSH1 0x1 PUSH1 0xA0 SHL SUB AND CALLER SUB PUSH2 0x966 JUMPI JUMP JUMPDEST PUSH1 0x40 MLOAD PUSH4 0x118CDAA7 PUSH1 0xE0 SHL DUP2 MSTORE CALLER PUSH1 0x4 DUP3 ADD MSTORE PUSH1 0x24 SWAP1 REVERT JUMPDEST PUSH4 0x4E487B71 PUSH1 0xE0 SHL PUSH1 0x0 MSTORE PUSH1 0x41 PUSH1 0x4 MSTORE PUSH1 0x24 PUSH1 0x0 REVERT JUMPDEST PUSH1 0x80 DUP2 ADD SWAP1 DUP2 LT PUSH8 0xFFFFFFFFFFFFFFFF DUP3 GT OR PUSH2 0x9B0 JUMPI PUSH1 0x40 MSTORE JUMP JUMPDEST PUSH2 0x97E JUMP JUMPDEST PUSH1 0xA0 DUP2 ADD SWAP1 DUP2 LT PUSH8 0xFFFFFFFFFFFFFFFF DUP3 GT OR PUSH2 0x9B0 JUMPI PUSH1 0x40 MSTORE JUMP JUMPDEST PUSH1 0x40 DUP2 ADD SWAP1 DUP2 LT PUSH8 0xFFFFFFFFFFFFFFFF DUP3 GT OR PUSH2 0x9B0 JUMPI PUSH1 0x40 MSTORE JUMP JUMPDEST SWAP1 PUSH1 0x1F DUP1 NOT SWAP2 ADD AND DUP2 ADD SWAP1 DUP2 LT PUSH8 0xFFFFFFFFFFFFFFFF DUP3 GT OR PUSH2 0x9B0 JUMPI PUSH1 0x40 MSTORE JUMP JUMPDEST PUSH1 0x40 MLOAD SWAP1 PUSH2 0xA1C DUP3 PUSH2 0x9B5 JUMP JUMPDEST JUMP JUMPDEST PUSH8 0xFFFFFFFFFFFFFFFF DUP2 GT PUSH2 0x9B0 JUMPI PUSH1 0x1F ADD PUSH1 0x1F NOT AND PUSH1 0x20 ADD SWAP1 JUMP JUMPDEST SWAP3 SWAP2 SWAP3 PUSH2 0xA46 DUP3 PUSH2 0xA1E JUMP JUMPDEST SWAP2 PUSH2 0xA54 PUSH1 0x40 MLOAD SWAP4 DUP5 PUSH2 0x9ED JUMP JUMPDEST DUP3 SWAP5 DUP2 DUP5 MSTORE DUP2 DUP4 ADD GT PUSH2 0x1C6 JUMPI DUP3 DUP2 PUSH1 0x20 SWAP4 DUP5 PUSH1 0x0 SWAP7 ADD CALLDATACOPY ADD ADD MSTORE JUMP JUMPDEST SWAP1 DUP1 PUSH1 0x1F DUP4 ADD SLT ISZERO PUSH2 0x1C6 JUMPI DUP2 PUSH1 0x20 PUSH2 0xA8C SWAP4 CALLDATALOAD SWAP2 ADD PUSH2 0xA3A JUMP JUMPDEST SWAP1 JUMP JUMPDEST ISZERO PUSH2 0xA96 JUMPI JUMP JUMPDEST PUSH1 0x40 MLOAD PUSH3 0x461BCD PUSH1 0xE5 SHL DUP2 MSTORE PUSH1 0x20 PUSH1 0x4 DUP3 ADD MSTORE PUSH1 0x11 PUSH1 0x24 DUP3 ADD MSTORE PUSH17 0x125B5859D9481B9BDD081D1C9D5CDD1959 PUSH1 0x7A SHL PUSH1 0x44 DUP3 ADD MSTORE PUSH1 0x64 SWAP1 REVERT JUMPDEST PUSH1 0x0 JUMPDEST DUP4 DUP2 LT PUSH2 0xAE2 JUMPI POP POP PUSH1 0x0 SWAP2 ADD MSTORE JUMP JUMPDEST DUP2 DUP2 ADD MLOAD DUP4 DUP3 ADD MSTORE PUSH1 0x20 ADD PUSH2 0xAD2 JUMP JUMPDEST SWAP1 SWAP2 PUSH1 0x40 SWAP4 SWAP3 DUP3 MSTORE PUSH1 0x20 DUP3 ADD MSTORE PUSH2 0xB12 DUP3 MLOAD DUP1 SWAP4 PUSH1 0x20 DUP7 DUP6 ADD SWAP2 ADD PUSH2 0xACF JUMP JUMPDEST ADD ADD SWAP1 JUMP JUMPDEST SWAP1 PUSH2 0xB3F PUSH2 0xB3A PUSH2 0xB33 DUP5 MLOAD PUSH1 0x0 MSTORE PUSH1 0x1 PUSH1 0x20 MSTORE PUSH1 0x40 PUSH1 0x0 KECCAK256 SWAP1 JUMP JUMPDEST SLOAD PUSH1 0xFF AND SWAP1 JUMP JUMPDEST PUSH2 0xA8F JUMP JUMPDEST PUSH1 0x20 DUP3 ADD MLOAD PUSH1 0x20 DUP2 MLOAD SWAP2 ADD KECCAK256 SWAP2 DUP1 MLOAD PUSH2 0xB6B PUSH2 0xB79 PUSH1 0x40 DUP5 ADD MLOAD PUSH1 0x40 MLOAD SWAP3 DUP4 SWAP2 DUP9 PUSH1 0x20 DUP5 ADD SWAP7 DUP8 PUSH2 0xAF2 JUMP JUMPDEST SUB PUSH1 0x1F NOT DUP2 ADD DUP4 MSTORE DUP3 PUSH2 0x9ED JUMP JUMPDEST MLOAD SWAP1 KECCAK256 PUSH1 0x3 PUSH2 0xB92 DUP3 PUSH1 0x0 MSTORE PUSH1 0x2 PUSH1 0x20 MSTORE PUSH1 0x40 PUSH1 0x0 KECCAK256 SWAP1 JUMP JUMPDEST ADD SLOAD PUSH2 0xCEE JUMPI PUSH1 0xFF PUSH2 0xBA8 PUSH1 0x60 DUP5 ADD MLOAD PUSH1 0xFF AND SWAP1 JUMP JUMPDEST AND PUSH1 0x2 DUP2 SUB PUSH2 0xC8F JUMPI POP PUSH2 0xBBB DUP3 PUSH2 0xD2D JUMP JUMPDEST SWAP2 JUMPDEST PUSH2 0xC54 DUP2 MLOAD PUSH2 0xBCA PUSH2 0xA0F JUMP JUMPDEST SWAP1 DUP2 MSTORE PUSH1 0x20 DUP2 ADD DUP8 SWAP1 MSTORE CALLER PUSH1 0x40 DUP3 ADD MSTORE TIMESTAMP PUSH1 0x60 DUP3 ADD MSTORE DUP5 ISZERO ISZERO PUSH1 0x80 DUP3 ADD MSTORE PUSH2 0xBFC DUP5 PUSH1 0x0 MSTORE PUSH1 0x2 PUSH1 0x20 MSTORE PUSH1 0x40 PUSH1 0x0 KECCAK256 SWAP1 JUMP JUMPDEST PUSH1 0x4 PUSH1 0x80 SWAP2 DUP4 MLOAD DUP2 SSTORE PUSH1 0x20 DUP5 ADD MLOAD PUSH1 0x1 DUP3 ADD SSTORE PUSH1 0x2 DUP2 ADD PUSH1 0x1 DUP1 PUSH1 0xA0 SHL SUB PUSH1 0x40 DUP7 ADD MLOAD AND PUSH12 0xFFFFFFFFFFFFFFFFFFFFFFFF PUSH1 0xA0 SHL DUP3 SLOAD AND OR SWAP1 SSTORE PUSH1 0x60 DUP5 ADD MLOAD PUSH1 0x3 DUP3 ADD SSTORE ADD SWAP2 ADD MLOAD ISZERO ISZERO PUSH1 0xFF DUP1 NOT DUP4 SLOAD AND SWAP2 AND OR SWAP1 SSTORE JUMP JUMPDEST MLOAD PUSH1 0x40 DUP1 MLOAD CALLER DUP2 MSTORE DUP5 ISZERO ISZERO PUSH1 0x20 DUP3 ADD MSTORE SWAP2 SWAP3 SWAP2 PUSH32 0xA63C74B8FF7C46B7E5E577EA9C355079DBF254F2BEB1D31043043A51E507E3F2 SWAP2 SWAP1 LOG3 SWAP2 SWAP1 JUMP JUMPDEST DUP1 PUSH2 0xCA4 JUMPI POP PUSH2 0xC9E DUP3 PUSH2 0xE72 JUMP JUMPDEST SWAP2 PUSH2 0xBBD JUMP JUMPDEST PUSH1 0x1 SUB PUSH2 0xCB4 JUMPI PUSH2 0xC9E DUP3 PUSH2 0x100D JUMP JUMPDEST PUSH1 0x40 MLOAD PUSH3 0x461BCD PUSH1 0xE5 SHL DUP2 MSTORE PUSH1 0x20 PUSH1 0x4 DUP3 ADD MSTORE PUSH1 0x12 PUSH1 0x24 DUP3 ADD MSTORE PUSH18 0x556E6B6E6F776E2070726F6F662074797065 PUSH1 0x70 SHL PUSH1 0x44 DUP3 ADD MSTORE PUSH1 0x64 SWAP1 REVERT JUMPDEST PUSH2 0xD11 SWAP2 POP PUSH2 0xD09 PUSH1 0x4 SWAP2 PUSH1 0x0 MSTORE PUSH1 0x2 PUSH1 0x20 MSTORE PUSH1 0x40 PUSH1 0x0 KECCAK256 SWAP1 JUMP JUMPDEST ADD SLOAD PUSH1 0xFF AND SWAP1 JUMP JUMPDEST SWAP2 SWAP1 JUMP JUMPDEST PUSH1 0x20 SWAP3 SWAP2 DUP2 MSTORE PUSH2 0xB12 DUP3 MLOAD DUP1 SWAP4 DUP6 DUP1 DUP6 ADD SWAP2 ADD PUSH2 0xACF JUMP JUMPDEST PUSH1 0xFF PUSH1 0x3 SLOAD AND ISZERO PUSH2 0xDA4 JUMPI DUP1 PUSH1 0x40 PUSH2 0xD55 SWAP3 MLOAD PUSH1 0x20 DUP4 ADD MLOAD DUP3 MLOAD SWAP5 DUP6 SWAP2 PUSH1 0x20 DUP4 ADD SWAP4 DUP5 PUSH2 0xD15 JUMP JUMPDEST SUB SWAP4 PUSH2 0xD69 PUSH1 0x1F NOT SWAP6 DUP7 DUP2 ADD DUP4 MSTORE DUP3 PUSH2 0x9ED JUMP JUMPDEST MLOAD SWAP1 KECCAK256 SWAP2 ADD MLOAD PUSH1 0x20 DUP2 MLOAD SWAP2 ADD KECCAK256 SWAP2 PUSH2 0xD9D PUSH1 0x40 MLOAD SWAP2 DUP3 PUSH2 0xD91 PUSH1 0x20 DUP3 ADD SWAP6 DUP7 PUSH1 0x20 SWAP2 DUP2 MSTORE ADD SWAP1 JUMP JUMPDEST SUB SWAP1 DUP2 ADD DUP4 MSTORE DUP3 PUSH2 0x9ED JUMP JUMPDEST MLOAD SWAP1 KECCAK256 EQ SWAP1 JUMP JUMPDEST PUSH1 0x40 MLOAD PUSH3 0x461BCD PUSH1 0xE5 SHL DUP2 MSTORE PUSH1 0x20 PUSH1 0x4 DUP3 ADD MSTORE PUSH1 0x11 PUSH1 0x24 DUP3 ADD MSTORE PUSH17 0x11195D881B5BD91948191A5CD8589B1959 PUSH1 0x7A SHL PUSH1 0x44 DUP3 ADD MSTORE PUSH1 0x64 SWAP1 REVERT JUMPDEST SWAP1 PUSH1 0x20 SWAP2 PUSH2 0xDF6 DUP2 MLOAD DUP1 SWAP3 DUP2 DUP6 MSTORE DUP6 DUP1 DUP7 ADD SWAP2 ADD PUSH2 0xACF JUMP JUMPDEST PUSH1 0x1F ADD PUSH1 0x1F NOT AND ADD ADD SWAP1 JUMP JUMPDEST SWAP2 PUSH2 0xE1F SWAP1 PUSH2 0xA8C SWAP5 SWAP3 DUP5 MSTORE PUSH1 0x60 PUSH1 0x20 DUP6 ADD MSTORE PUSH1 0x60 DUP5 ADD SWAP1 PUSH2 0xDDD JUMP JUMPDEST SWAP2 PUSH1 0x40 DUP2 DUP5 SUB SWAP2 ADD MSTORE PUSH2 0xDDD JUMP JUMPDEST RETURNDATASIZE ISZERO PUSH2 0xE58 JUMPI RETURNDATASIZE SWAP1 PUSH2 0xE3E DUP3 PUSH2 0xA1E JUMP JUMPDEST SWAP2 PUSH2 0xE4C PUSH1 0x40 MLOAD SWAP4 DUP5 PUSH2 0x9ED JUMP JUMPDEST DUP3 MSTORE RETURNDATASIZE PUSH1 0x0 PUSH1 0x20 DUP5 ADD RETURNDATACOPY JUMP JUMPDEST PUSH1 0x60 SWAP1 JUMP JUMPDEST SWAP1 DUP2 PUSH1 0x20 SWAP2 SUB SLT PUSH2 0x1C6 JUMPI MLOAD PUSH2 0xA8C DUP2 PUSH2 0x321 JUMP JUMPDEST PUSH1 0x40 DUP2 ADD DUP1 MLOAD SWAP1 PUSH1 0x20 SWAP3 DUP4 DUP4 MLOAD LT PUSH2 0xEFB JUMPI PUSH2 0x100 SWAP1 DUP2 EXTCODESIZE PUSH2 0xE9E JUMPI POP POP SWAP1 POP MLOAD SWAP1 DUP2 MLOAD SWAP2 ADD KECCAK256 ISZERO ISZERO SWAP1 JUMP JUMPDEST PUSH1 0x0 SWAP4 DUP5 SWAP4 POP PUSH2 0xEC0 DUP7 DUP4 MLOAD SWAP4 ADD MLOAD PUSH2 0xB6B PUSH1 0x40 MLOAD SWAP4 DUP5 SWAP3 DUP11 DUP5 ADD SWAP7 DUP8 PUSH2 0xE02 JUMP JUMPDEST MLOAD SWAP2 GAS STATICCALL PUSH2 0xECC PUSH2 0xE2D JUMP JUMPDEST SWAP1 ISZERO DUP1 ISZERO PUSH2 0xEF1 JUMPI JUMPDEST PUSH2 0xEEA JUMPI DUP2 PUSH2 0xA8C SWAP3 DUP3 MLOAD DUP4 ADD ADD SWAP2 ADD PUSH2 0xE5D JUMP JUMPDEST POP POP PUSH1 0x0 SWAP1 JUMP JUMPDEST POP DUP2 DUP2 MLOAD LT PUSH2 0xED5 JUMP JUMPDEST POP POP POP POP PUSH1 0x0 SWAP1 JUMP JUMPDEST PUSH1 0x40 MLOAD SWAP1 PUSH2 0xF11 DUP3 PUSH2 0x9D1 JUMP JUMPDEST PUSH1 0x40 CALLDATASIZE DUP4 CALLDATACOPY JUMP JUMPDEST PUSH1 0x40 MLOAD SWAP1 PUSH1 0x20 DUP3 ADD DUP3 DUP2 LT PUSH8 0xFFFFFFFFFFFFFFFF DUP3 GT OR PUSH2 0x9B0 JUMPI PUSH1 0x40 MSTORE PUSH1 0x20 CALLDATASIZE DUP4 CALLDATACOPY JUMP JUMPDEST PUSH1 0x40 SWAP1 DUP2 MLOAD PUSH2 0xF4B DUP2 PUSH2 0x9D1 JUMP JUMPDEST DUP1 SWAP3 PUSH1 0x0 JUMPDEST DUP2 DUP2 LT PUSH2 0xF5C JUMPI POP POP POP JUMP JUMPDEST PUSH1 0x20 SWAP1 DUP3 MLOAD PUSH2 0xF6A DUP2 PUSH2 0x9D1 JUMP JUMPDEST DUP4 CALLDATASIZE DUP3 CALLDATACOPY DUP2 DUP6 ADD MSTORE ADD PUSH2 0xF50 JUMP JUMPDEST PUSH1 0x0 SWAP2 JUMPDEST PUSH1 0x2 DUP4 LT PUSH2 0xF89 JUMPI POP POP POP JUMP JUMPDEST PUSH1 0x1 SWAP1 DUP3 MLOAD DUP2 MSTORE PUSH1 0x20 DUP1 SWAP2 ADD SWAP3 ADD SWAP3 ADD SWAP2 SWAP1 PUSH2 0xF7C JUMP JUMPDEST SWAP1 PUSH1 0x0 SWAP1 JUMPDEST PUSH1 0x2 DUP3 LT PUSH2 0xFB2 JUMPI POP POP POP JUMP JUMPDEST PUSH1 0x20 PUSH1 0x40 DUP3 PUSH2 0xFC4 PUSH1 0x1 SWAP5 DUP8 MLOAD PUSH2 0xF78 JUMP JUMPDEST ADD SWAP4 ADD SWAP2 ADD SWAP1 SWAP2 PUSH2 0xFA5 JUMP JUMPDEST SWAP3 PUSH2 0xFFE SWAP1 PUSH2 0xFF4 PUSH2 0x1009 SWAP5 PUSH2 0xFEA DUP8 PUSH2 0x180 SWAP10 SWAP7 PUSH2 0xF78 JUMP JUMPDEST PUSH1 0x40 DUP8 ADD SWAP1 PUSH2 0xFA0 JUMP JUMPDEST PUSH1 0xC0 DUP6 ADD SWAP1 PUSH2 0xF78 JUMP JUMPDEST PUSH2 0x100 DUP4 ADD SWAP1 PUSH2 0xFA0 JUMP JUMPDEST ADD SWAP1 JUMP JUMPDEST PUSH2 0x100 DUP1 PUSH1 0x40 DUP4 ADD MLOAD MLOAD LT PUSH2 0xEEA JUMPI PUSH2 0x1024 PUSH2 0xF04 JUMP JUMPDEST SWAP2 PUSH2 0x10A6 PUSH2 0x108A PUSH2 0x1033 PUSH2 0xF3D JUMP JUMPDEST SWAP5 PUSH1 0x60 PUSH2 0x103E PUSH2 0xF04 JUMP JUMPDEST SWAP5 ADD MLOAD SWAP5 PUSH1 0x20 SWAP6 DUP7 DUP2 ADD MLOAD DUP4 MSTORE PUSH1 0x40 DUP2 ADD MLOAD DUP8 DUP5 ADD MSTORE PUSH1 0x80 DUP2 ADD MLOAD DUP9 MSTORE PUSH1 0x60 DUP2 ADD MLOAD DUP8 DUP10 ADD MSTORE PUSH1 0xC0 DUP2 ADD MLOAD PUSH1 0x40 DUP10 ADD MSTORE PUSH1 0xA0 DUP2 ADD MLOAD PUSH1 0x60 DUP10 ADD MSTORE PUSH1 0xE0 DUP2 ADD MLOAD DUP7 MSTORE ADD MLOAD DUP6 DUP6 ADD MSTORE PUSH2 0x10E0 JUMP JUMPDEST SWAP4 PUSH2 0xB6B PUSH2 0x1096 PUSH2 0x113B JUMP JUMPDEST PUSH1 0x40 MLOAD SWAP5 DUP6 SWAP4 DUP8 DUP6 ADD SWAP9 DUP10 PUSH2 0xFD0 JUMP JUMPDEST PUSH2 0x10AE PUSH2 0xF18 JUMP JUMPDEST SWAP3 DUP4 SWAP2 MLOAD SWAP1 PUSH1 0x8 GAS STATICCALL SWAP1 DUP2 PUSH2 0x10C1 JUMPI POP SWAP1 JUMP JUMPDEST PUSH1 0x1 SWAP2 POP MLOAD EQ SWAP1 JUMP JUMPDEST PUSH4 0x4E487B71 PUSH1 0xE0 SHL PUSH1 0x0 MSTORE PUSH1 0x11 PUSH1 0x4 MSTORE PUSH1 0x24 PUSH1 0x0 REVERT JUMPDEST PUSH1 0x40 DUP1 MLOAD PUSH2 0x10ED DUP2 PUSH2 0x9D1 JUMP JUMPDEST CALLDATASIZE SWAP1 CALLDATACOPY PUSH1 0x20 PUSH1 0x40 MLOAD SWAP2 PUSH2 0x10FF DUP4 PUSH2 0x9D1 JUMP JUMPDEST DUP1 MLOAD DUP4 MSTORE PUSH32 0x30644E72E131A029B85045B68181585D97816A916871CA8D3C208C16D87CFD47 SWAP2 DUP3 SWAP2 ADD MLOAD MOD DUP2 SUB SWAP1 DUP2 GT PUSH2 0x7D5 JUMPI PUSH1 0x20 DUP3 ADD MSTORE SWAP1 JUMP JUMPDEST PUSH2 0x1143 PUSH2 0xF3D JUMP JUMPDEST POP PUSH1 0x40 MLOAD PUSH2 0x1150 DUP2 PUSH2 0x9D1 JUMP JUMPDEST PUSH1 0x40 MLOAD PUSH2 0x115C DUP2 PUSH2 0x9D1 JUMP JUMPDEST PUSH32 0x198E9393920D483A7260BFB731FB5D25F1AA493335A9E71297E485B7AEF312C2 DUP2 MSTORE PUSH32 0x1800DEEF121F1E76426A00665E5C4479674322D4F75EDADD46DEBD5CD992F6ED PUSH1 0x20 DUP3 ADD MSTORE DUP2 MSTORE PUSH1 0x40 MLOAD PUSH2 0x11B3 DUP2 PUSH2 0x9D1 JUMP JUMPDEST PUSH32 0x90689D0585FF075EC9E99AD690C3395BC4B313370B38EF355ACDADCD122975B DUP2 MSTORE PUSH32 0x12C85EA5DB8C6DEB4AAB71808DCB408FE3D1E7690C43D37B4CE6CC0166FA7DAA PUSH1 0x20 DUP3 ADD MSTORE PUSH1 0x20 DUP3 ADD MSTORE SWAP1 JUMP JUMPDEST SWAP2 SWAP1 DUP2 LT ISZERO PUSH2 0x1214 JUMPI PUSH1 0x5 SHL ADD SWAP1 JUMP JUMPDEST PUSH4 0x4E487B71 PUSH1 0xE0 SHL PUSH1 0x0 MSTORE PUSH1 0x32 PUSH1 0x4 MSTORE PUSH1 0x24 PUSH1 0x0 REVERT INVALID LOG2 PUSH5 0x6970667358 0x22 SLT KECCAK256 0xE1 ISZERO PUSH10 0x214CA9057E4C97D9143 CODESIZE 0x22 0x4B 0xCD GAS 0xCD EXTCODEHASH 0xD6 0xE COINBASE 0x4F PUSH31 0xD86F8EC0D89A6064736F6C6343000814003300000000000000000000000000 "},"methodIdentifiers":{"PROOF_TYPE_DEV()":"2c5d696c","PROOF_TYPE_GROTH16()":"5bb4aefd","PROOF_TYPE_STARK()":"fa592e3f","RISC0_VERIFIER()":"f08b224c","computeProofHash(bytes32,bytes,bytes)":"8bbd8fe5","devModeEnabled()":"7d4ba4fe","getVerification(bytes32)":"94ef2440","isImageTrusted(bytes32)":"43f9405f","maxProofAge()":"6f5b6b20","owner()":"8da5cb5b","renounceOwnership()":"715018a6","revokeImage(bytes32)":"a9c6dc03","setDevMode(bool)":"7c897da2","setMaxProofAge(uint256)":"1bddcb19","transferOwnership(address)":"f2fde38b","trustImage(bytes32)":"965a572b","trustImages(bytes32[])":"b0e00c21","trustedImages(bytes32)":"4ee9f2d1","verifiedProofs(bytes32)":"176d80c4","verify(bytes)":"8e760afe","verifyProof(bytes32,bytes,bytes,uint8)":"e2dd6745"}}}}}