{"src/MDTToken.sol":{"MDTToken":{"abi":[{"inputs":[],"stateMutability":"nonpayable","type":"constructor"},{"inputs":[],"name":"ECDSAInvalidSignature","type":"error"},{"inputs":[{"internalType":"uint256","name":"length","type":"uint256"}],"name":"ECDSAInvalidSignatureLength","type":"error"},{"inputs":[{"internalType":"bytes32","name":"s","type":"bytes32"}],"name":"ECDSAInvalidSignatureS","type":"error"},{"inputs":[{"internalType":"address","name":"spender","type":"address"},{"internalType":"uint256","name":"allowance","type":"uint256"},{"internalType":"uint256","name":"needed","type":"uint256"}],"name":"ERC20InsufficientAllowance","type":"error"},{"inputs":[{"internalType":"address","name":"sender","type":"address"},{"internalType":"uint256","name":"balance","type":"uint256"},{"internalType":"uint256","name":"needed","type":"uint256"}],"name":"ERC20InsufficientBalance","type":"error"},{"inputs":[{"internalType":"address","name":"approver","type":"address"}],"name":"ERC20InvalidApprover","type":"error"},{"inputs":[{"internalType":"address","name":"receiver","type":"address"}],"name":"ERC20InvalidReceiver","type":"error"},{"inputs":[{"internalType":"address","name":"sender","type":"address"}],"name":"ERC20InvalidSender","type":"error"},{"inputs":[{"internalType":"address","name":"spender","type":"address"}],"name":"ERC20InvalidSpender","type":"error"},{"inputs":[{"internalType":"uint256","name":"deadline","type":"uint256"}],"name":"ERC2612ExpiredSignature","type":"error"},{"inputs":[{"internalType":"address","name":"signer","type":"address"},{"internalType":"address","name":"owner","type":"address"}],"name":"ERC2612InvalidSigner","type":"error"},{"inputs":[{"internalType":"address","name":"account","type":"address"},{"internalType":"uint256","name":"currentNonce","type":"uint256"}],"name":"InvalidAccountNonce","type":"error"},{"inputs":[],"name":"InvalidShortString","type":"error"},{"inputs":[{"internalType":"address","name":"owner","type":"address"}],"name":"OwnableInvalidOwner","type":"error"},{"inputs":[{"internalType":"address","name":"account","type":"address"}],"name":"OwnableUnauthorizedAccount","type":"error"},{"inputs":[{"internalType":"string","name":"str","type":"string"}],"name":"StringTooLong","type":"error"},{"anonymous":false,"inputs":[{"indexed":true,"internalType":"address","name":"owner","type":"address"},{"indexed":true,"internalType":"address","name":"spender","type":"address"},{"indexed":false,"internalType":"uint256","name":"value","type":"uint256"}],"name":"Approval","type":"event"},{"anonymous":false,"inputs":[{"indexed":true,"internalType":"enum MDTToken.Category","name":"category","type":"uint8"},{"indexed":true,"internalType":"address","name":"to","type":"address"},{"indexed":false,"internalType":"uint256","name":"amount","type":"uint256"}],"name":"CategoryMinted","type":"event"},{"anonymous":false,"inputs":[],"name":"EIP712DomainChanged","type":"event"},{"anonymous":false,"inputs":[{"indexed":false,"internalType":"uint256","name":"timestamp","type":"uint256"}],"name":"MintingFinished","type":"event"},{"anonymous":false,"inputs":[{"indexed":true,"internalType":"address","name":"previousOwner","type":"address"},{"indexed":true,"internalType":"address","name":"newOwner","type":"address"}],"name":"OwnershipTransferred","type":"event"},{"anonymous":false,"inputs":[{"indexed":false,"internalType":"uint256","name":"timestamp","type":"uint256"},{"indexed":false,"internalType":"uint256","name":"totalMinted","type":"uint256"}],"name":"TGEExecuted","type":"event"},{"anonymous":false,"inputs":[{"indexed":true,"internalType":"address","name":"from","type":"address"},{"indexed":true,"internalType":"address","name":"to","type":"address"},{"indexed":false,"internalType":"uint256","name":"value","type":"uint256"}],"name":"Transfer","type":"event"},{"inputs":[],"name":"DOMAIN_SEPARATOR","outputs":[{"internalType":"bytes32","name":"","type":"bytes32"}],"stateMutability":"view","type":"function"},{"inputs":[],"name":"MAX_SUPPLY","outputs":[{"internalType":"uint256","name":"","type":"uint256"}],"stateMutability":"view","type":"function"},{"inputs":[],"name":"allCategoriesMinted","outputs":[{"internalType":"bool","name":"","type":"bool"}],"stateMutability":"view","type":"function"},{"inputs":[{"internalType":"address","name":"owner","type":"address"},{"internalType":"address","name":"spender","type":"address"}],"name":"allowance","outputs":[{"internalType":"uint256","name":"","type":"uint256"}],"stateMutability":"view","type":"function"},{"inputs":[{"internalType":"address","name":"spender","type":"address"},{"internalType":"uint256","name":"value","type":"uint256"}],"name":"approve","outputs":[{"internalType":"bool","name":"","type":"bool"}],"stateMutability":"nonpayable","type":"function"},{"inputs":[{"internalType":"address","name":"account","type":"address"}],"name":"balanceOf","outputs":[{"internalType":"uint256","name":"","type":"uint256"}],"stateMutability":"view","type":"function"},{"inputs":[{"internalType":"uint256","name":"value","type":"uint256"}],"name":"burn","outputs":[],"stateMutability":"nonpayable","type":"function"},{"inputs":[{"internalType":"address","name":"account","type":"address"},{"internalType":"uint256","name":"value","type":"uint256"}],"name":"burnFrom","outputs":[],"stateMutability":"nonpayable","type":"function"},{"inputs":[{"internalType":"enum MDTToken.Category","name":"","type":"uint8"}],"name":"categoryAllocation","outputs":[{"internalType":"uint256","name":"","type":"uint256"}],"stateMutability":"view","type":"function"},{"inputs":[{"internalType":"enum MDTToken.Category","name":"","type":"uint8"}],"name":"categoryMinted","outputs":[{"internalType":"uint256","name":"","type":"uint256"}],"stateMutability":"view","type":"function"},{"inputs":[],"name":"decimals","outputs":[{"internalType":"uint8","name":"","type":"uint8"}],"stateMutability":"view","type":"function"},{"inputs":[],"name":"eip712Domain","outputs":[{"internalType":"bytes1","name":"fields","type":"bytes1"},{"internalType":"string","name":"name","type":"string"},{"internalType":"string","name":"version","type":"string"},{"internalType":"uint256","name":"chainId","type":"uint256"},{"internalType":"address","name":"verifyingContract","type":"address"},{"internalType":"bytes32","name":"salt","type":"bytes32"},{"internalType":"uint256[]","name":"extensions","type":"uint256[]"}],"stateMutability":"view","type":"function"},{"inputs":[{"internalType":"enum MDTToken.Category","name":"category","type":"uint8"},{"internalType":"address","name":"to","type":"address"}],"name":"executeTGE","outputs":[],"stateMutability":"nonpayable","type":"function"},{"inputs":[],"name":"finishMinting","outputs":[],"stateMutability":"nonpayable","type":"function"},{"inputs":[],"name":"getAllocations","outputs":[{"internalType":"uint256","name":"emissionRewards","type":"uint256"},{"internalType":"uint256","name":"ecosystemGrants","type":"uint256"},{"internalType":"uint256","name":"teamCoreDev","type":"uint256"},{"internalType":"uint256","name":"privateSale","type":"uint256"},{"internalType":"uint256","name":"ido","type":"uint256"},{"internalType":"uint256","name":"daoTreasury","type":"uint256"},{"internalType":"uint256","name":"initialLiquidity","type":"uint256"},{"internalType":"uint256","name":"foundationReserve","type":"uint256"}],"stateMutability":"view","type":"function"},{"inputs":[{"internalType":"enum MDTToken.Category","name":"category","type":"uint8"},{"internalType":"address","name":"to","type":"address"},{"internalType":"uint256","name":"amount","type":"uint256"}],"name":"mintCategory","outputs":[],"stateMutability":"nonpayable","type":"function"},{"inputs":[],"name":"mintingFinished","outputs":[{"internalType":"bool","name":"","type":"bool"}],"stateMutability":"view","type":"function"},{"inputs":[],"name":"name","outputs":[{"internalType":"string","name":"","type":"string"}],"stateMutability":"view","type":"function"},{"inputs":[{"internalType":"address","name":"owner","type":"address"}],"name":"nonces","outputs":[{"internalType":"uint256","name":"","type":"uint256"}],"stateMutability":"view","type":"function"},{"inputs":[],"name":"owner","outputs":[{"internalType":"address","name":"","type":"address"}],"stateMutability":"view","type":"function"},{"inputs":[{"internalType":"address","name":"owner","type":"address"},{"internalType":"address","name":"spender","type":"address"},{"internalType":"uint256","name":"value","type":"uint256"},{"internalType":"uint256","name":"deadline","type":"uint256"},{"internalType":"uint8","name":"v","type":"uint8"},{"internalType":"bytes32","name":"r","type":"bytes32"},{"internalType":"bytes32","name":"s","type":"bytes32"}],"name":"permit","outputs":[],"stateMutability":"nonpayable","type":"function"},{"inputs":[{"internalType":"enum MDTToken.Category","name":"category","type":"uint8"}],"name":"remainingAllocation","outputs":[{"internalType":"uint256","name":"","type":"uint256"}],"stateMutability":"view","type":"function"},{"inputs":[],"name":"renounceOwnership","outputs":[],"stateMutability":"nonpayable","type":"function"},{"inputs":[],"name":"symbol","outputs":[{"internalType":"string","name":"","type":"string"}],"stateMutability":"view","type":"function"},{"inputs":[],"name":"tgeTimestamp","outputs":[{"internalType":"uint256","name":"","type":"uint256"}],"stateMutability":"view","type":"function"},{"inputs":[],"name":"totalSupply","outputs":[{"internalType":"uint256","name":"","type":"uint256"}],"stateMutability":"view","type":"function"},{"inputs":[{"internalType":"address","name":"to","type":"address"},{"internalType":"uint256","name":"value","type":"uint256"}],"name":"transfer","outputs":[{"internalType":"bool","name":"","type":"bool"}],"stateMutability":"nonpayable","type":"function"},{"inputs":[{"internalType":"address","name":"from","type":"address"},{"internalType":"address","name":"to","type":"address"},{"internalType":"uint256","name":"value","type":"uint256"}],"name":"transferFrom","outputs":[{"internalType":"bool","name":"","type":"bool"}],"stateMutability":"nonpayable","type":"function"},{"inputs":[{"internalType":"address","name":"newOwner","type":"address"}],"name":"transferOwnership","outputs":[],"stateMutability":"nonpayable","type":"function"}],"evm":{"bytecode":{"linkReferences":{},"object":"6101606040526008805460ff60a01b191690553480156200001f57600080fd5b50336040518060400160405280600c81526020016b26b7b232b9372a32b739b7b960a11b81525080604051806040016040528060018152602001603160f81b8152506040518060400160405280600c81526020016b26b7b232b9372a32b739b7b960a11b8152506040518060400160405280600381526020016213511560ea1b8152508160039081620000b39190620005c7565b506004620000c28282620005c7565b50620000d49150839050600562000454565b61012052620000e581600662000454565b61014052815160208084019190912060e052815190820120610100524660a0526200017360e05161010051604080517f8b73c3c69bb8fe3d512ecc4cf759cc79239f7b179b0ffacaa9a75d522b39400f60208201529081019290925260608201524660808201523060a082015260009060c00160405160208183030381529060405280519060200120905090565b60805250503060c052506001600160a01b038116620001ad57604051631e4fbdf760e01b8152600060048201526024015b60405180910390fd5b620001b8816200048d565b506064620001d36a115eec47f6cf7e35000000602d62000693565b620001df9190620006b9565b60008052600b6020527fdf7de25b7f1fd6d0b5205f0e18f1f35bd7b8d84cce336588d184533ce43a6f76556064620002246a115eec47f6cf7e35000000600c62000693565b620002309190620006b9565b6001600052600b6020527f72c6bfb7988af3a1efa6568f02a999bc52252641c659d85961ca3d372b57d5cf556064620002766a115eec47f6cf7e35000000600a62000693565b620002829190620006b9565b6002600052600b6020527fa50eece07c7db1631545c0069bd8f5f54d5935e215d59097edf258a44ba91634556064620002c86a115eec47f6cf7e35000000600862000693565b620002d49190620006b9565b6003600052600b6020527f64c15cc42be7899b001f818cf4433057002112c418d1d3a67cd5cb453051d33e5560646200031a6a115eec47f6cf7e35000000600562000693565b620003269190620006b9565b6004600052600b6020527f12d0c11577e2f0950f57c455c117796550b79f444811db8ba2f69c57b646c7845560646200036c6a115eec47f6cf7e35000000600a62000693565b620003789190620006b9565b60056000819052600b6020527febae6141bae5521e99e0a8d610356b0f501fea54980b59c84841db43ba7204f491909155606490620003c4906a115eec47f6cf7e350000009062000693565b620003d09190620006b9565b6006600052600b6020527f0387e9d1203691d8e3362a7e4c6723de358a4010d7f31ecbec3fbfc61d1c75fc556064620004166a115eec47f6cf7e35000000600562000693565b620004229190620006b9565b6007600052600b6020527ff5559028dc9ba50d75343c779b2f75e13a84a14662932fc67a486f263ca31a965562000751565b600060208351101562000474576200046c83620004df565b905062000487565b81620004818482620005c7565b5060ff90505b92915050565b600880546001600160a01b038381166001600160a01b0319831681179093556040519116919082907f8be0079c531659141344cd1fd0a4f28419497f9722a3daafe3b4186f6b6457e090600090a35050565b600080829050601f815111156200050d578260405163305a27a960e01b8152600401620001a49190620006dc565b80516200051a826200072c565b179392505050565b634e487b7160e01b600052604160045260246000fd5b600181811c908216806200054d57607f821691505b6020821081036200056e57634e487b7160e01b600052602260045260246000fd5b50919050565b601f821115620005c257600081815260208120601f850160051c810160208610156200059d5750805b601f850160051c820191505b81811015620005be57828155600101620005a9565b5050505b505050565b81516001600160401b03811115620005e357620005e362000522565b620005fb81620005f4845462000538565b8462000574565b602080601f8311600181146200063357600084156200061a5750858301515b600019600386901b1c1916600185901b178555620005be565b600085815260208120601f198616915b82811015620006645788860151825594840194600190910190840162000643565b5085821015620006835787850151600019600388901b60f8161c191681555b5050505050600190811b01905550565b80820281158282048414176200048757634e487b7160e01b600052601160045260246000fd5b600082620006d757634e487b7160e01b600052601260045260246000fd5b500490565b600060208083528351808285015260005b818110156200070b57858101830151858201604001528201620006ed565b506000604082860101526040601f19601f8301168501019250505092915050565b805160208083015191908110156200056e5760001960209190910360031b1b16919050565b60805160a05160c05160e051610100516101205161014051611d66620007ac600039600061149b0152600061146e0152600061138e01526000611366015260006112c1015260006112eb015260006113150152611d666000f3fe608060405234801561001057600080fd5b50600436106101cf5760003560e01c806370a082311161010457806395d89b41116100a2578063d505accf11610071578063d505accf14610513578063da6ea4d714610526578063dd62ed3e1461052e578063f2fde38b1461056757600080fd5b806395d89b41146104dc578063a4317ef4146104e4578063a9059cbb146104ed578063c0f3cb751461050057600080fd5b80637d64bcb4116100de5780637d64bcb41461048b5780637ecebe001461049357806384b0196e146104a65780638da5cb5b146104c157600080fd5b806370a0823114610447578063715018a61461047057806379cc67901461047857600080fd5b806323ecb4f1116101715780633644e5151161014b5780633644e515146102b757806342966c68146102bf578063503bf615146102d257806365ed6e23146102f257600080fd5b806323ecb4f114610283578063313ce5671461029657806332cb6b0c146102a557600080fd5b80630c086039116101ad5780630c0860391461022557806318160ddd146102535780632335ba171461025b57806323b872dd1461027057600080fd5b806305d2035b146101d457806306fdde03146101fd578063095ea7b314610212575b600080fd5b6008546101e890600160a01b900460ff1681565b60405190151581526020015b60405180910390f35b61020561057a565b6040516101f491906119ee565b6101e8610220366004611a24565b61060c565b610245610233366004611a5d565b600a6020526000908152604090205481565b6040519081526020016101f4565b600254610245565b61026e610269366004611a78565b610626565b005b6101e861027e366004611aab565b610827565b61026e610291366004611ae7565b61084b565b604051601281526020016101f4565b6102456a115eec47f6cf7e3500000081565b610245610a69565b61026e6102cd366004611b05565b610a78565b6102456102e0366004611a5d565b600b6020526000908152604090205481565b600b6020527fdf7de25b7f1fd6d0b5205f0e18f1f35bd7b8d84cce336588d184533ce43a6f76547f72c6bfb7988af3a1efa6568f02a999bc52252641c659d85961ca3d372b57d5cf547fa50eece07c7db1631545c0069bd8f5f54d5935e215d59097edf258a44ba91634547f64c15cc42be7899b001f818cf4433057002112c418d1d3a67cd5cb453051d33e547f12d0c11577e2f0950f57c455c117796550b79f444811db8ba2f69c57b646c784547febae6141bae5521e99e0a8d610356b0f501fea54980b59c84841db43ba7204f4547f0387e9d1203691d8e3362a7e4c6723de358a4010d7f31ecbec3fbfc61d1c75fc5460076000527ff5559028dc9ba50d75343c779b2f75e13a84a14662932fc67a486f263ca31a9654604080519889526020890197909752958701949094526060860192909252608085015260a084015260c083015260e0820152610100016101f4565b610245610455366004611b1e565b6001600160a01b031660009081526020819052604090205490565b61026e610a85565b61026e610486366004611a24565b610a99565b61026e610ab2565b6102456104a1366004611b1e565b610c40565b6104ae610c5e565b6040516101f49796959493929190611b39565b6008546040516001600160a01b0390911681526020016101f4565b610205610ca4565b61024560095481565b6101e86104fb366004611a24565b610cb3565b61024561050e366004611a5d565b610cc1565b61026e610521366004611bcf565b610d39565b6101e8610e73565b61024561053c366004611c42565b6001600160a01b03918216600090815260016020908152604080832093909416825291909152205490565b61026e610575366004611b1e565b611126565b60606003805461058990611c5e565b80601f01602080910402602001604051908101604052809291908181526020018280546105b590611c5e565b80156106025780601f106105d757610100808354040283529160200191610602565b820191906000526020600020905b8154815290600101906020018083116105e557829003601f168201915b5050505050905090565b60003361061a818585611161565b60019150505b92915050565b61062e611173565b600854600160a01b900460ff16156106615760405162461bcd60e51b815260040161065890611c98565b60405180910390fd5b6001600160a01b0381166106b75760405162461bcd60e51b815260206004820152601e60248201527f4d4454546f6b656e3a206d696e7420746f207a65726f206164647265737300006044820152606401610658565b600a60008360078111156106cd576106cd611cde565b60078111156106de576106de611cde565b8152602001908152602001600020546000146107465760405162461bcd60e51b815260206004820152602160248201527f4d4454546f6b656e3a2063617465676f727920616c7265616479206d696e74656044820152601960fa1b6064820152608401610658565b6000600b600084600781111561075e5761075e611cde565b600781111561076f5761076f611cde565b815260200190815260200160002054905080600a600085600781111561079757610797611cde565b60078111156107a8576107a8611cde565b81526020810191909152604001600020556107c382826111a0565b6009546000036107d257426009555b816001600160a01b03168360078111156107ee576107ee611cde565b6040518381527fd18d0b722b1799afc328cfd48dbc75998dc5e1f5c85d21be72ae6f90de992f04906020015b60405180910390a3505050565b6000336108358582856111d6565b610840858585611255565b506001949350505050565b610853611173565b600854600160a01b900460ff161561087d5760405162461bcd60e51b815260040161065890611c98565b6001600160a01b0382166108d35760405162461bcd60e51b815260206004820152601e60248201527f4d4454546f6b656e3a206d696e7420746f207a65726f206164647265737300006044820152606401610658565b600b60008460078111156108e9576108e9611cde565b60078111156108fa576108fa611cde565b81526020019081526020016000205481600a600086600781111561092057610920611cde565b600781111561093157610931611cde565b81526020019081526020016000205461094a9190611d0a565b11156109a65760405162461bcd60e51b815260206004820152602560248201527f4d4454546f6b656e3a20657863656564732063617465676f727920616c6c6f6360448201526430ba34b7b760d91b6064820152608401610658565b6a115eec47f6cf7e35000000816109bc60025490565b6109c69190611d0a565b1115610a145760405162461bcd60e51b815260206004820152601c60248201527f4d4454546f6b656e3a2065786365656473206d617820737570706c79000000006044820152606401610658565b80600a6000856007811115610a2b57610a2b611cde565b6007811115610a3c57610a3c611cde565b81526020019081526020016000206000828254610a599190611d0a565b909155506107d2905082826111a0565b6000610a736112b4565b905090565b610a8233826113df565b50565b610a8d611173565b610a976000611415565b565b610aa48233836111d6565b610aae82826113df565b5050565b610aba611173565b600854600160a01b900460ff1615610ae45760405162461bcd60e51b815260040161065890611c98565b610aec610e73565b610b445760405162461bcd60e51b815260206004820152602360248201527f4d4454546f6b656e3a206e6f7420616c6c2063617465676f72696573206d696e6044820152621d195960ea1b6064820152608401610658565b6a115eec47f6cf7e35000000610b5960025490565b14610ba65760405162461bcd60e51b815260206004820152601960248201527f4d4454546f6b656e3a20737570706c79206d69736d61746368000000000000006044820152606401610658565b6008805460ff60a01b1916600160a01b1790556040517ff6af8e1d23f8a5997a11116c1e59bd11c947226b74890b8e0fde60d95a7c076a90610beb9042815260200190565b60405180910390a17f7a1be65236fa43f4bd450d67219d65a9f1f3d51aae0d62d70758463c9a316a76600954610c2060025490565b6040805192835260208301919091520160405180910390a1610a97610a85565b6001600160a01b038116600090815260076020526040812054610620565b600060608060008060006060610c72611467565b610c7a611494565b60408051600080825260208201909252600f60f81b9b939a50919850469750309650945092509050565b60606004805461058990611c5e565b60003361061a818585611255565b6000600a6000836007811115610cd957610cd9611cde565b6007811115610cea57610cea611cde565b815260200190815260200160002054600b6000846007811115610d0f57610d0f611cde565b6007811115610d2057610d20611cde565b8152602001908152602001600020546106209190611d1d565b83421115610d5d5760405163313c898160e11b815260048101859052602401610658565b60007f6e71edae12b1b97f4d1f60370fef10105fa2faae0126114a169c64845d6126c9888888610daa8c6001600160a01b0316600090815260076020526040902080546001810190915590565b6040805160208101969096526001600160a01b0394851690860152929091166060840152608083015260a082015260c0810186905260e0016040516020818303038152906040528051906020012090506000610e05826114c1565b90506000610e15828787876114ee565b9050896001600160a01b0316816001600160a01b031614610e5c576040516325c0072360e11b81526001600160a01b0380831660048301528b166024820152604401610658565b610e678a8a8a611161565b50505050505050505050565b60008080527fdf7de25b7f1fd6d0b5205f0e18f1f35bd7b8d84cce336588d184533ce43a6f7654600a6020527f13da86008ba1c6922daee3e07db95305ef49ebced9f5467a0b8613fcc6b343e354148015610f19575060016000527f72c6bfb7988af3a1efa6568f02a999bc52252641c659d85961ca3d372b57d5cf54600a6020527fbbc70db1b6c7afd11e79c0fb0051300458f1a3acb8ee9789d9b6b26c61ad9bc754145b8015610f70575060026000527fa50eece07c7db1631545c0069bd8f5f54d5935e215d59097edf258a44ba9163454600a6020527fbff4442b8ed600beeb8e26b1279a0f0d14c6edfaec26d968ee13c86f7d4c2ba854145b8015610fc7575060036000527f64c15cc42be7899b001f818cf4433057002112c418d1d3a67cd5cb453051d33e54600a6020527fa856840544dc26124927add067d799967eac11be13e14d82cc281ea46fa3975954145b801561101e575060046000527f12d0c11577e2f0950f57c455c117796550b79f444811db8ba2f69c57b646c78454600a6020527fe1eb2b2161a492c07c5a334e48012567cba93ec021043f53c1955516a3c5a84154145b8015611075575060056000527febae6141bae5521e99e0a8d610356b0f501fea54980b59c84841db43ba7204f454600a6020527ff35035bc2b01d44bd35a1dcdc552315cffb73da35cfd60570b7b777f98036f9f54145b80156110cc575060066000527f0387e9d1203691d8e3362a7e4c6723de358a4010d7f31ecbec3fbfc61d1c75fc54600a6020527f10d9dd018e4cae503383c9f804c1c1603ada5856ee7894375d9b97cd8c8b27db54145b8015610a7357505060076000527ff5559028dc9ba50d75343c779b2f75e13a84a14662932fc67a486f263ca31a9654600a6020527f22e39f61d1e4986b4f116cea9067f62cc77d74dff1780ae9c8b5166d1dd28829541490565b61112e611173565b6001600160a01b03811661115857604051631e4fbdf760e01b815260006004820152602401610658565b610a8281611415565b61116e838383600161151c565b505050565b6008546001600160a01b03163314610a975760405163118cdaa760e01b8152336004820152602401610658565b6001600160a01b0382166111ca5760405163ec442f0560e01b815260006004820152602401610658565b610aae600083836115f1565b6001600160a01b0383811660009081526001602090815260408083209386168352929052205460001981101561124f578181101561124057604051637dc7a0d960e11b81526001600160a01b03841660048201526024810182905260448101839052606401610658565b61124f8484848403600061151c565b50505050565b6001600160a01b03831661127f57604051634b637e8f60e11b815260006004820152602401610658565b6001600160a01b0382166112a95760405163ec442f0560e01b815260006004820152602401610658565b61116e8383836115f1565b6000306001600160a01b037f00000000000000000000000000000000000000000000000000000000000000001614801561130d57507f000000000000000000000000000000000000000000000000000000000000000046145b1561133757507f000000000000000000000000000000000000000000000000000000000000000090565b610a73604080517f8b73c3c69bb8fe3d512ecc4cf759cc79239f7b179b0ffacaa9a75d522b39400f60208201527f0000000000000000000000000000000000000000000000000000000000000000918101919091527f000000000000000000000000000000000000000000000000000000000000000060608201524660808201523060a082015260009060c00160405160208183030381529060405280519060200120905090565b6001600160a01b03821661140957604051634b637e8f60e11b815260006004820152602401610658565b610aae826000836115f1565b600880546001600160a01b038381166001600160a01b0319831681179093556040519116919082907f8be0079c531659141344cd1fd0a4f28419497f9722a3daafe3b4186f6b6457e090600090a35050565b6060610a737f0000000000000000000000000000000000000000000000000000000000000000600561170e565b6060610a737f0000000000000000000000000000000000000000000000000000000000000000600661170e565b60006106206114ce6112b4565b8360405161190160f01b8152600281019290925260228201526042902090565b600080600080611500888888886117b9565b9250925092506115108282611888565b50909695505050505050565b6001600160a01b0384166115465760405163e602df0560e01b815260006004820152602401610658565b6001600160a01b03831661157057604051634a1406b160e11b815260006004820152602401610658565b6001600160a01b038085166000908152600160209081526040808320938716835292905220829055801561124f57826001600160a01b0316846001600160a01b03167f8c5be1e5ebec7d5bd14f71427d1e84f3dd0314c0f7b2291e5b200ac8c7c3b925846040516115e391815260200190565b60405180910390a350505050565b6001600160a01b03831661161c5780600260008282546116119190611d0a565b9091555061168e9050565b6001600160a01b0383166000908152602081905260409020548181101561166f5760405163391434e360e21b81526001600160a01b03851660048201526024810182905260448101839052606401610658565b6001600160a01b03841660009081526020819052604090209082900390555b6001600160a01b0382166116aa576002805482900390556116c9565b6001600160a01b03821660009081526020819052604090208054820190555b816001600160a01b0316836001600160a01b03167fddf252ad1be2c89b69c2b068fc378daa952ba7f163c4a11628f55a4df523b3ef8360405161081a91815260200190565b606060ff83146117285761172183611941565b9050610620565b81805461173490611c5e565b80601f016020809104026020016040519081016040528092919081815260200182805461176090611c5e565b80156117ad5780601f10611782576101008083540402835291602001916117ad565b820191906000526020600020905b81548152906001019060200180831161179057829003601f168201915b50505050509050610620565b600080807f7fffffffffffffffffffffffffffffff5d576e7357a4501ddfe92f46681b20a08411156117f4575060009150600390508261187e565b604080516000808252602082018084528a905260ff891692820192909252606081018790526080810186905260019060a0016020604051602081039080840390855afa158015611848573d6000803e3d6000fd5b5050604051601f1901519150506001600160a01b0381166118745750600092506001915082905061187e565b9250600091508190505b9450945094915050565b600082600381111561189c5761189c611cde565b036118a5575050565b60018260038111156118b9576118b9611cde565b036118d75760405163f645eedf60e01b815260040160405180910390fd5b60028260038111156118eb576118eb611cde565b0361190c5760405163fce698f760e01b815260048101829052602401610658565b600382600381111561192057611920611cde565b03610aae576040516335e2f38360e21b815260048101829052602401610658565b6060600061194e83611980565b604080516020808252818301909252919250600091906020820181803683375050509182525060208101929092525090565b600060ff8216601f81111561062057604051632cd44ac360e21b815260040160405180910390fd5b6000815180845260005b818110156119ce576020818501810151868301820152016119b2565b506000602082860101526020601f19601f83011685010191505092915050565b602081526000611a0160208301846119a8565b9392505050565b80356001600160a01b0381168114611a1f57600080fd5b919050565b60008060408385031215611a3757600080fd5b611a4083611a08565b946020939093013593505050565b803560088110611a1f57600080fd5b600060208284031215611a6f57600080fd5b611a0182611a4e565b60008060408385031215611a8b57600080fd5b611a9483611a4e565b9150611aa260208401611a08565b90509250929050565b600080600060608486031215611ac057600080fd5b611ac984611a08565b9250611ad760208501611a08565b9150604084013590509250925092565b600080600060608486031215611afc57600080fd5b611ac984611a4e565b600060208284031215611b1757600080fd5b5035919050565b600060208284031215611b3057600080fd5b611a0182611a08565b60ff60f81b881681526000602060e081840152611b5960e084018a6119a8565b8381036040850152611b6b818a6119a8565b606085018990526001600160a01b038816608086015260a0850187905284810360c0860152855180825283870192509083019060005b81811015611bbd57835183529284019291840191600101611ba1565b50909c9b505050505050505050505050565b600080600080600080600060e0888a031215611bea57600080fd5b611bf388611a08565b9650611c0160208901611a08565b95506040880135945060608801359350608088013560ff81168114611c2557600080fd5b9699959850939692959460a0840135945060c09093013592915050565b60008060408385031215611c5557600080fd5b611a9483611a08565b600181811c90821680611c7257607f821691505b602082108103611c9257634e487b7160e01b600052602260045260246000fd5b50919050565b60208082526026908201527f4d4454546f6b656e3a204d696e74696e67207065726d616e656e746c792066696040820152651b9a5cda195960d21b606082015260800190565b634e487b7160e01b600052602160045260246000fd5b634e487b7160e01b600052601160045260246000fd5b8082018082111561062057610620611cf4565b8181038181111561062057610620611cf456fea26469706673582212206749dbd2396e3608aa0011316315017ad645eb04d8f93a76631b296e8cccb3d364736f6c63430008140033","opcodes":"PUSH2 0x160 PUSH1 0x40 MSTORE PUSH1 0x8 DUP1 SLOAD PUSH1 0xFF PUSH1 0xA0 SHL NOT AND SWAP1 SSTORE CALLVALUE DUP1 ISZERO PUSH3 0x1F JUMPI PUSH1 0x0 DUP1 REVERT JUMPDEST POP CALLER PUSH1 0x40 MLOAD DUP1 PUSH1 0x40 ADD PUSH1 0x40 MSTORE DUP1 PUSH1 0xC DUP2 MSTORE PUSH1 0x20 ADD PUSH12 0x26B7B232B9372A32B739B7B9 PUSH1 0xA1 SHL DUP2 MSTORE POP DUP1 PUSH1 0x40 MLOAD DUP1 PUSH1 0x40 ADD PUSH1 0x40 MSTORE DUP1 PUSH1 0x1 DUP2 MSTORE PUSH1 0x20 ADD PUSH1 0x31 PUSH1 0xF8 SHL DUP2 MSTORE POP PUSH1 0x40 MLOAD DUP1 PUSH1 0x40 ADD PUSH1 0x40 MSTORE DUP1 PUSH1 0xC DUP2 MSTORE PUSH1 0x20 ADD PUSH12 0x26B7B232B9372A32B739B7B9 PUSH1 0xA1 SHL DUP2 MSTORE POP PUSH1 0x40 MLOAD DUP1 PUSH1 0x40 ADD PUSH1 0x40 MSTORE DUP1 PUSH1 0x3 DUP2 MSTORE PUSH1 0x20 ADD PUSH3 0x135115 PUSH1 0xEA SHL DUP2 MSTORE POP DUP2 PUSH1 0x3 SWAP1 DUP2 PUSH3 0xB3 SWAP2 SWAP1 PUSH3 0x5C7 JUMP JUMPDEST POP PUSH1 0x4 PUSH3 0xC2 DUP3 DUP3 PUSH3 0x5C7 JUMP JUMPDEST POP PUSH3 0xD4 SWAP2 POP DUP4 SWAP1 POP PUSH1 0x5 PUSH3 0x454 JUMP JUMPDEST PUSH2 0x120 MSTORE PUSH3 0xE5 DUP2 PUSH1 0x6 PUSH3 0x454 JUMP JUMPDEST PUSH2 0x140 MSTORE DUP2 MLOAD PUSH1 0x20 DUP1 DUP5 ADD SWAP2 SWAP1 SWAP2 KECCAK256 PUSH1 0xE0 MSTORE DUP2 MLOAD SWAP1 DUP3 ADD KECCAK256 PUSH2 0x100 MSTORE CHAINID PUSH1 0xA0 MSTORE PUSH3 0x173 PUSH1 0xE0 MLOAD PUSH2 0x100 MLOAD PUSH1 0x40 DUP1 MLOAD PUSH32 0x8B73C3C69BB8FE3D512ECC4CF759CC79239F7B179B0FFACAA9A75D522B39400F PUSH1 0x20 DUP3 ADD MSTORE SWAP1 DUP2 ADD SWAP3 SWAP1 SWAP3 MSTORE PUSH1 0x60 DUP3 ADD MSTORE CHAINID PUSH1 0x80 DUP3 ADD MSTORE ADDRESS PUSH1 0xA0 DUP3 ADD MSTORE PUSH1 0x0 SWAP1 PUSH1 0xC0 ADD PUSH1 0x40 MLOAD PUSH1 0x20 DUP2 DUP4 SUB SUB DUP2 MSTORE SWAP1 PUSH1 0x40 MSTORE DUP1 MLOAD SWAP1 PUSH1 0x20 ADD KECCAK256 SWAP1 POP SWAP1 JUMP JUMPDEST PUSH1 0x80 MSTORE POP POP ADDRESS PUSH1 0xC0 MSTORE POP PUSH1 0x1 PUSH1 0x1 PUSH1 0xA0 SHL SUB DUP2 AND PUSH3 0x1AD JUMPI PUSH1 0x40 MLOAD PUSH4 0x1E4FBDF7 PUSH1 0xE0 SHL DUP2 MSTORE PUSH1 0x0 PUSH1 0x4 DUP3 ADD MSTORE PUSH1 0x24 ADD JUMPDEST PUSH1 0x40 MLOAD DUP1 SWAP2 SUB SWAP1 REVERT JUMPDEST PUSH3 0x1B8 DUP2 PUSH3 0x48D JUMP JUMPDEST POP PUSH1 0x64 PUSH3 0x1D3 PUSH11 0x115EEC47F6CF7E35000000 PUSH1 0x2D PUSH3 0x693 JUMP JUMPDEST PUSH3 0x1DF SWAP2 SWAP1 PUSH3 0x6B9 JUMP JUMPDEST PUSH1 0x0 DUP1 MSTORE PUSH1 0xB PUSH1 0x20 MSTORE PUSH32 0xDF7DE25B7F1FD6D0B5205F0E18F1F35BD7B8D84CCE336588D184533CE43A6F76 SSTORE PUSH1 0x64 PUSH3 0x224 PUSH11 0x115EEC47F6CF7E35000000 PUSH1 0xC PUSH3 0x693 JUMP JUMPDEST PUSH3 0x230 SWAP2 SWAP1 PUSH3 0x6B9 JUMP JUMPDEST PUSH1 0x1 PUSH1 0x0 MSTORE PUSH1 0xB PUSH1 0x20 MSTORE PUSH32 0x72C6BFB7988AF3A1EFA6568F02A999BC52252641C659D85961CA3D372B57D5CF SSTORE PUSH1 0x64 PUSH3 0x276 PUSH11 0x115EEC47F6CF7E35000000 PUSH1 0xA PUSH3 0x693 JUMP JUMPDEST PUSH3 0x282 SWAP2 SWAP1 PUSH3 0x6B9 JUMP JUMPDEST PUSH1 0x2 PUSH1 0x0 MSTORE PUSH1 0xB PUSH1 0x20 MSTORE PUSH32 0xA50EECE07C7DB1631545C0069BD8F5F54D5935E215D59097EDF258A44BA91634 SSTORE PUSH1 0x64 PUSH3 0x2C8 PUSH11 0x115EEC47F6CF7E35000000 PUSH1 0x8 PUSH3 0x693 JUMP JUMPDEST PUSH3 0x2D4 SWAP2 SWAP1 PUSH3 0x6B9 JUMP JUMPDEST PUSH1 0x3 PUSH1 0x0 MSTORE PUSH1 0xB PUSH1 0x20 MSTORE PUSH32 0x64C15CC42BE7899B001F818CF4433057002112C418D1D3A67CD5CB453051D33E SSTORE PUSH1 0x64 PUSH3 0x31A PUSH11 0x115EEC47F6CF7E35000000 PUSH1 0x5 PUSH3 0x693 JUMP JUMPDEST PUSH3 0x326 SWAP2 SWAP1 PUSH3 0x6B9 JUMP JUMPDEST PUSH1 0x4 PUSH1 0x0 MSTORE PUSH1 0xB PUSH1 0x20 MSTORE PUSH32 0x12D0C11577E2F0950F57C455C117796550B79F444811DB8BA2F69C57B646C784 SSTORE PUSH1 0x64 PUSH3 0x36C PUSH11 0x115EEC47F6CF7E35000000 PUSH1 0xA PUSH3 0x693 JUMP JUMPDEST PUSH3 0x378 SWAP2 SWAP1 PUSH3 0x6B9 JUMP JUMPDEST PUSH1 0x5 PUSH1 0x0 DUP2 SWAP1 MSTORE PUSH1 0xB PUSH1 0x20 MSTORE PUSH32 0xEBAE6141BAE5521E99E0A8D610356B0F501FEA54980B59C84841DB43BA7204F4 SWAP2 SWAP1 SWAP2 SSTORE PUSH1 0x64 SWAP1 PUSH3 0x3C4 SWAP1 PUSH11 0x115EEC47F6CF7E35000000 SWAP1 PUSH3 0x693 JUMP JUMPDEST PUSH3 0x3D0 SWAP2 SWAP1 PUSH3 0x6B9 JUMP JUMPDEST PUSH1 0x6 PUSH1 0x0 MSTORE PUSH1 0xB PUSH1 0x20 MSTORE PUSH32 0x387E9D1203691D8E3362A7E4C6723DE358A4010D7F31ECBEC3FBFC61D1C75FC SSTORE PUSH1 0x64 PUSH3 0x416 PUSH11 0x115EEC47F6CF7E35000000 PUSH1 0x5 PUSH3 0x693 JUMP JUMPDEST PUSH3 0x422 SWAP2 SWAP1 PUSH3 0x6B9 JUMP JUMPDEST PUSH1 0x7 PUSH1 0x0 MSTORE PUSH1 0xB PUSH1 0x20 MSTORE PUSH32 0xF5559028DC9BA50D75343C779B2F75E13A84A14662932FC67A486F263CA31A96 SSTORE PUSH3 0x751 JUMP JUMPDEST PUSH1 0x0 PUSH1 0x20 DUP4 MLOAD LT ISZERO PUSH3 0x474 JUMPI PUSH3 0x46C DUP4 PUSH3 0x4DF JUMP JUMPDEST SWAP1 POP PUSH3 0x487 JUMP JUMPDEST DUP2 PUSH3 0x481 DUP5 DUP3 PUSH3 0x5C7 JUMP JUMPDEST POP PUSH1 0xFF SWAP1 POP JUMPDEST SWAP3 SWAP2 POP POP JUMP JUMPDEST PUSH1 0x8 DUP1 SLOAD PUSH1 0x1 PUSH1 0x1 PUSH1 0xA0 SHL SUB DUP4 DUP2 AND PUSH1 0x1 PUSH1 0x1 PUSH1 0xA0 SHL SUB NOT DUP4 AND DUP2 OR SWAP1 SWAP4 SSTORE PUSH1 0x40 MLOAD SWAP2 AND SWAP2 SWAP1 DUP3 SWAP1 PUSH32 0x8BE0079C531659141344CD1FD0A4F28419497F9722A3DAAFE3B4186F6B6457E0 SWAP1 PUSH1 0x0 SWAP1 LOG3 POP POP JUMP JUMPDEST PUSH1 0x0 DUP1 DUP3 SWAP1 POP PUSH1 0x1F DUP2 MLOAD GT ISZERO PUSH3 0x50D JUMPI DUP3 PUSH1 0x40 MLOAD PUSH4 0x305A27A9 PUSH1 0xE0 SHL DUP2 MSTORE PUSH1 0x4 ADD PUSH3 0x1A4 SWAP2 SWAP1 PUSH3 0x6DC JUMP JUMPDEST DUP1 MLOAD PUSH3 0x51A DUP3 PUSH3 0x72C JUMP JUMPDEST OR SWAP4 SWAP3 POP POP POP JUMP JUMPDEST PUSH4 0x4E487B71 PUSH1 0xE0 SHL PUSH1 0x0 MSTORE PUSH1 0x41 PUSH1 0x4 MSTORE PUSH1 0x24 PUSH1 0x0 REVERT JUMPDEST PUSH1 0x1 DUP2 DUP2 SHR SWAP1 DUP3 AND DUP1 PUSH3 0x54D JUMPI PUSH1 0x7F DUP3 AND SWAP2 POP JUMPDEST PUSH1 0x20 DUP3 LT DUP2 SUB PUSH3 0x56E JUMPI PUSH4 0x4E487B71 PUSH1 0xE0 SHL PUSH1 0x0 MSTORE PUSH1 0x22 PUSH1 0x4 MSTORE PUSH1 0x24 PUSH1 0x0 REVERT JUMPDEST POP SWAP2 SWAP1 POP JUMP JUMPDEST PUSH1 0x1F DUP3 GT ISZERO PUSH3 0x5C2 JUMPI PUSH1 0x0 DUP2 DUP2 MSTORE PUSH1 0x20 DUP2 KECCAK256 PUSH1 0x1F DUP6 ADD PUSH1 0x5 SHR DUP2 ADD PUSH1 0x20 DUP7 LT ISZERO PUSH3 0x59D JUMPI POP DUP1 JUMPDEST PUSH1 0x1F DUP6 ADD PUSH1 0x5 SHR DUP3 ADD SWAP2 POP JUMPDEST DUP2 DUP2 LT ISZERO PUSH3 0x5BE JUMPI DUP3 DUP2 SSTORE PUSH1 0x1 ADD PUSH3 0x5A9 JUMP JUMPDEST POP POP POP JUMPDEST POP POP POP JUMP JUMPDEST DUP2 MLOAD PUSH1 0x1 PUSH1 0x1 PUSH1 0x40 SHL SUB DUP2 GT ISZERO PUSH3 0x5E3 JUMPI PUSH3 0x5E3 PUSH3 0x522 JUMP JUMPDEST PUSH3 0x5FB DUP2 PUSH3 0x5F4 DUP5 SLOAD PUSH3 0x538 JUMP JUMPDEST DUP5 PUSH3 0x574 JUMP JUMPDEST PUSH1 0x20 DUP1 PUSH1 0x1F DUP4 GT PUSH1 0x1 DUP2 EQ PUSH3 0x633 JUMPI PUSH1 0x0 DUP5 ISZERO PUSH3 0x61A JUMPI POP DUP6 DUP4 ADD MLOAD JUMPDEST PUSH1 0x0 NOT PUSH1 0x3 DUP7 SWAP1 SHL SHR NOT AND PUSH1 0x1 DUP6 SWAP1 SHL OR DUP6 SSTORE PUSH3 0x5BE JUMP JUMPDEST PUSH1 0x0 DUP6 DUP2 MSTORE PUSH1 0x20 DUP2 KECCAK256 PUSH1 0x1F NOT DUP7 AND SWAP2 JUMPDEST DUP3 DUP2 LT ISZERO PUSH3 0x664 JUMPI DUP9 DUP7 ADD MLOAD DUP3 SSTORE SWAP5 DUP5 ADD SWAP5 PUSH1 0x1 SWAP1 SWAP2 ADD SWAP1 DUP5 ADD PUSH3 0x643 JUMP JUMPDEST POP DUP6 DUP3 LT ISZERO PUSH3 0x683 JUMPI DUP8 DUP6 ADD MLOAD PUSH1 0x0 NOT PUSH1 0x3 DUP9 SWAP1 SHL PUSH1 0xF8 AND SHR NOT AND DUP2 SSTORE JUMPDEST POP POP POP POP POP PUSH1 0x1 SWAP1 DUP2 SHL ADD SWAP1 SSTORE POP JUMP JUMPDEST DUP1 DUP3 MUL DUP2 ISZERO DUP3 DUP3 DIV DUP5 EQ OR PUSH3 0x487 JUMPI PUSH4 0x4E487B71 PUSH1 0xE0 SHL PUSH1 0x0 MSTORE PUSH1 0x11 PUSH1 0x4 MSTORE PUSH1 0x24 PUSH1 0x0 REVERT JUMPDEST PUSH1 0x0 DUP3 PUSH3 0x6D7 JUMPI PUSH4 0x4E487B71 PUSH1 0xE0 SHL PUSH1 0x0 MSTORE PUSH1 0x12 PUSH1 0x4 MSTORE PUSH1 0x24 PUSH1 0x0 REVERT JUMPDEST POP DIV SWAP1 JUMP JUMPDEST PUSH1 0x0 PUSH1 0x20 DUP1 DUP4 MSTORE DUP4 MLOAD DUP1 DUP3 DUP6 ADD MSTORE PUSH1 0x0 JUMPDEST DUP2 DUP2 LT ISZERO PUSH3 0x70B JUMPI DUP6 DUP2 ADD DUP4 ADD MLOAD DUP6 DUP3 ADD PUSH1 0x40 ADD MSTORE DUP3 ADD PUSH3 0x6ED JUMP JUMPDEST POP PUSH1 0x0 PUSH1 0x40 DUP3 DUP7 ADD ADD MSTORE PUSH1 0x40 PUSH1 0x1F NOT PUSH1 0x1F DUP4 ADD AND DUP6 ADD ADD SWAP3 POP POP POP SWAP3 SWAP2 POP POP JUMP JUMPDEST DUP1 MLOAD PUSH1 0x20 DUP1 DUP4 ADD MLOAD SWAP2 SWAP1 DUP2 LT ISZERO PUSH3 0x56E JUMPI PUSH1 0x0 NOT PUSH1 0x20 SWAP2 SWAP1 SWAP2 SUB PUSH1 0x3 SHL SHL AND SWAP2 SWAP1 POP JUMP JUMPDEST PUSH1 0x80 MLOAD PUSH1 0xA0 MLOAD PUSH1 0xC0 MLOAD PUSH1 0xE0 MLOAD PUSH2 0x100 MLOAD PUSH2 0x120 MLOAD PUSH2 0x140 MLOAD PUSH2 0x1D66 PUSH3 0x7AC PUSH1 0x0 CODECOPY PUSH1 0x0 PUSH2 0x149B ADD MSTORE PUSH1 0x0 PUSH2 0x146E ADD MSTORE PUSH1 0x0 PUSH2 0x138E ADD MSTORE PUSH1 0x0 PUSH2 0x1366 ADD MSTORE PUSH1 0x0 PUSH2 0x12C1 ADD MSTORE PUSH1 0x0 PUSH2 0x12EB ADD MSTORE PUSH1 0x0 PUSH2 0x1315 ADD MSTORE PUSH2 0x1D66 PUSH1 0x0 RETURN INVALID PUSH1 0x80 PUSH1 0x40 MSTORE CALLVALUE DUP1 ISZERO PUSH2 0x10 JUMPI PUSH1 0x0 DUP1 REVERT JUMPDEST POP PUSH1 0x4 CALLDATASIZE LT PUSH2 0x1CF JUMPI PUSH1 0x0 CALLDATALOAD PUSH1 0xE0 SHR DUP1 PUSH4 0x70A08231 GT PUSH2 0x104 JUMPI DUP1 PUSH4 0x95D89B41 GT PUSH2 0xA2 JUMPI DUP1 PUSH4 0xD505ACCF GT PUSH2 0x71 JUMPI DUP1 PUSH4 0xD505ACCF EQ PUSH2 0x513 JUMPI DUP1 PUSH4 0xDA6EA4D7 EQ PUSH2 0x526 JUMPI DUP1 PUSH4 0xDD62ED3E EQ PUSH2 0x52E JUMPI DUP1 PUSH4 0xF2FDE38B EQ PUSH2 0x567 JUMPI PUSH1 0x0 DUP1 REVERT JUMPDEST DUP1 PUSH4 0x95D89B41 EQ PUSH2 0x4DC JUMPI DUP1 PUSH4 0xA4317EF4 EQ PUSH2 0x4E4 JUMPI DUP1 PUSH4 0xA9059CBB EQ PUSH2 0x4ED JUMPI DUP1 PUSH4 0xC0F3CB75 EQ PUSH2 0x500 JUMPI PUSH1 0x0 DUP1 REVERT JUMPDEST DUP1 PUSH4 0x7D64BCB4 GT PUSH2 0xDE JUMPI DUP1 PUSH4 0x7D64BCB4 EQ PUSH2 0x48B JUMPI DUP1 PUSH4 0x7ECEBE00 EQ PUSH2 0x493 JUMPI DUP1 PUSH4 0x84B0196E EQ PUSH2 0x4A6 JUMPI DUP1 PUSH4 0x8DA5CB5B EQ PUSH2 0x4C1 JUMPI PUSH1 0x0 DUP1 REVERT JUMPDEST DUP1 PUSH4 0x70A08231 EQ PUSH2 0x447 JUMPI DUP1 PUSH4 0x715018A6 EQ PUSH2 0x470 JUMPI DUP1 PUSH4 0x79CC6790 EQ PUSH2 0x478 JUMPI PUSH1 0x0 DUP1 REVERT JUMPDEST DUP1 PUSH4 0x23ECB4F1 GT PUSH2 0x171 JUMPI DUP1 PUSH4 0x3644E515 GT PUSH2 0x14B JUMPI DUP1 PUSH4 0x3644E515 EQ PUSH2 0x2B7 JUMPI DUP1 PUSH4 0x42966C68 EQ PUSH2 0x2BF JUMPI DUP1 PUSH4 0x503BF615 EQ PUSH2 0x2D2 JUMPI DUP1 PUSH4 0x65ED6E23 EQ PUSH2 0x2F2 JUMPI PUSH1 0x0 DUP1 REVERT JUMPDEST DUP1 PUSH4 0x23ECB4F1 EQ PUSH2 0x283 JUMPI DUP1 PUSH4 0x313CE567 EQ PUSH2 0x296 JUMPI DUP1 PUSH4 0x32CB6B0C EQ PUSH2 0x2A5 JUMPI PUSH1 0x0 DUP1 REVERT JUMPDEST DUP1 PUSH4 0xC086039 GT PUSH2 0x1AD JUMPI DUP1 PUSH4 0xC086039 EQ PUSH2 0x225 JUMPI DUP1 PUSH4 0x18160DDD EQ PUSH2 0x253 JUMPI DUP1 PUSH4 0x2335BA17 EQ PUSH2 0x25B JUMPI DUP1 PUSH4 0x23B872DD EQ PUSH2 0x270 JUMPI PUSH1 0x0 DUP1 REVERT JUMPDEST DUP1 PUSH4 0x5D2035B EQ PUSH2 0x1D4 JUMPI DUP1 PUSH4 0x6FDDE03 EQ PUSH2 0x1FD JUMPI DUP1 PUSH4 0x95EA7B3 EQ PUSH2 0x212 JUMPI JUMPDEST PUSH1 0x0 DUP1 REVERT JUMPDEST PUSH1 0x8 SLOAD PUSH2 0x1E8 SWAP1 PUSH1 0x1 PUSH1 0xA0 SHL SWAP1 DIV PUSH1 0xFF AND DUP2 JUMP JUMPDEST PUSH1 0x40 MLOAD SWAP1 ISZERO ISZERO DUP2 MSTORE PUSH1 0x20 ADD JUMPDEST PUSH1 0x40 MLOAD DUP1 SWAP2 SUB SWAP1 RETURN JUMPDEST PUSH2 0x205 PUSH2 0x57A JUMP JUMPDEST PUSH1 0x40 MLOAD PUSH2 0x1F4 SWAP2 SWAP1 PUSH2 0x19EE JUMP JUMPDEST PUSH2 0x1E8 PUSH2 0x220 CALLDATASIZE PUSH1 0x4 PUSH2 0x1A24 JUMP JUMPDEST PUSH2 0x60C JUMP JUMPDEST PUSH2 0x245 PUSH2 0x233 CALLDATASIZE PUSH1 0x4 PUSH2 0x1A5D JUMP JUMPDEST PUSH1 0xA PUSH1 0x20 MSTORE PUSH1 0x0 SWAP1 DUP2 MSTORE PUSH1 0x40 SWAP1 KECCAK256 SLOAD DUP2 JUMP JUMPDEST PUSH1 0x40 MLOAD SWAP1 DUP2 MSTORE PUSH1 0x20 ADD PUSH2 0x1F4 JUMP JUMPDEST PUSH1 0x2 SLOAD PUSH2 0x245 JUMP JUMPDEST PUSH2 0x26E PUSH2 0x269 CALLDATASIZE PUSH1 0x4 PUSH2 0x1A78 JUMP JUMPDEST PUSH2 0x626 JUMP JUMPDEST STOP JUMPDEST PUSH2 0x1E8 PUSH2 0x27E CALLDATASIZE PUSH1 0x4 PUSH2 0x1AAB JUMP JUMPDEST PUSH2 0x827 JUMP JUMPDEST PUSH2 0x26E PUSH2 0x291 CALLDATASIZE PUSH1 0x4 PUSH2 0x1AE7 JUMP JUMPDEST PUSH2 0x84B JUMP JUMPDEST PUSH1 0x40 MLOAD PUSH1 0x12 DUP2 MSTORE PUSH1 0x20 ADD PUSH2 0x1F4 JUMP JUMPDEST PUSH2 0x245 PUSH11 0x115EEC47F6CF7E35000000 DUP2 JUMP JUMPDEST PUSH2 0x245 PUSH2 0xA69 JUMP JUMPDEST PUSH2 0x26E PUSH2 0x2CD CALLDATASIZE PUSH1 0x4 PUSH2 0x1B05 JUMP JUMPDEST PUSH2 0xA78 JUMP JUMPDEST PUSH2 0x245 PUSH2 0x2E0 CALLDATASIZE PUSH1 0x4 PUSH2 0x1A5D JUMP JUMPDEST PUSH1 0xB PUSH1 0x20 MSTORE PUSH1 0x0 SWAP1 DUP2 MSTORE PUSH1 0x40 SWAP1 KECCAK256 SLOAD DUP2 JUMP JUMPDEST PUSH1 0xB PUSH1 0x20 MSTORE PUSH32 0xDF7DE25B7F1FD6D0B5205F0E18F1F35BD7B8D84CCE336588D184533CE43A6F76 SLOAD PUSH32 0x72C6BFB7988AF3A1EFA6568F02A999BC52252641C659D85961CA3D372B57D5CF SLOAD PUSH32 0xA50EECE07C7DB1631545C0069BD8F5F54D5935E215D59097EDF258A44BA91634 SLOAD PUSH32 0x64C15CC42BE7899B001F818CF4433057002112C418D1D3A67CD5CB453051D33E SLOAD PUSH32 0x12D0C11577E2F0950F57C455C117796550B79F444811DB8BA2F69C57B646C784 SLOAD PUSH32 0xEBAE6141BAE5521E99E0A8D610356B0F501FEA54980B59C84841DB43BA7204F4 SLOAD PUSH32 0x387E9D1203691D8E3362A7E4C6723DE358A4010D7F31ECBEC3FBFC61D1C75FC SLOAD PUSH1 0x7 PUSH1 0x0 MSTORE PUSH32 0xF5559028DC9BA50D75343C779B2F75E13A84A14662932FC67A486F263CA31A96 SLOAD PUSH1 0x40 DUP1 MLOAD SWAP9 DUP10 MSTORE PUSH1 0x20 DUP10 ADD SWAP8 SWAP1 SWAP8 MSTORE SWAP6 DUP8 ADD SWAP5 SWAP1 SWAP5 MSTORE PUSH1 0x60 DUP7 ADD SWAP3 SWAP1 SWAP3 MSTORE PUSH1 0x80 DUP6 ADD MSTORE PUSH1 0xA0 DUP5 ADD MSTORE PUSH1 0xC0 DUP4 ADD MSTORE PUSH1 0xE0 DUP3 ADD MSTORE PUSH2 0x100 ADD PUSH2 0x1F4 JUMP JUMPDEST PUSH2 0x245 PUSH2 0x455 CALLDATASIZE PUSH1 0x4 PUSH2 0x1B1E JUMP JUMPDEST PUSH1 0x1 PUSH1 0x1 PUSH1 0xA0 SHL SUB AND PUSH1 0x0 SWAP1 DUP2 MSTORE PUSH1 0x20 DUP2 SWAP1 MSTORE PUSH1 0x40 SWAP1 KECCAK256 SLOAD SWAP1 JUMP JUMPDEST PUSH2 0x26E PUSH2 0xA85 JUMP JUMPDEST PUSH2 0x26E PUSH2 0x486 CALLDATASIZE PUSH1 0x4 PUSH2 0x1A24 JUMP JUMPDEST PUSH2 0xA99 JUMP JUMPDEST PUSH2 0x26E PUSH2 0xAB2 JUMP JUMPDEST PUSH2 0x245 PUSH2 0x4A1 CALLDATASIZE PUSH1 0x4 PUSH2 0x1B1E JUMP JUMPDEST PUSH2 0xC40 JUMP JUMPDEST PUSH2 0x4AE PUSH2 0xC5E JUMP JUMPDEST PUSH1 0x40 MLOAD PUSH2 0x1F4 SWAP8 SWAP7 SWAP6 SWAP5 SWAP4 SWAP3 SWAP2 SWAP1 PUSH2 0x1B39 JUMP JUMPDEST PUSH1 0x8 SLOAD PUSH1 0x40 MLOAD PUSH1 0x1 PUSH1 0x1 PUSH1 0xA0 SHL SUB SWAP1 SWAP2 AND DUP2 MSTORE PUSH1 0x20 ADD PUSH2 0x1F4 JUMP JUMPDEST PUSH2 0x205 PUSH2 0xCA4 JUMP JUMPDEST PUSH2 0x245 PUSH1 0x9 SLOAD DUP2 JUMP JUMPDEST PUSH2 0x1E8 PUSH2 0x4FB CALLDATASIZE PUSH1 0x4 PUSH2 0x1A24 JUMP JUMPDEST PUSH2 0xCB3 JUMP JUMPDEST PUSH2 0x245 PUSH2 0x50E CALLDATASIZE PUSH1 0x4 PUSH2 0x1A5D JUMP JUMPDEST PUSH2 0xCC1 JUMP JUMPDEST PUSH2 0x26E PUSH2 0x521 CALLDATASIZE PUSH1 0x4 PUSH2 0x1BCF JUMP JUMPDEST PUSH2 0xD39 JUMP JUMPDEST PUSH2 0x1E8 PUSH2 0xE73 JUMP JUMPDEST PUSH2 0x245 PUSH2 0x53C CALLDATASIZE PUSH1 0x4 PUSH2 0x1C42 JUMP JUMPDEST PUSH1 0x1 PUSH1 0x1 PUSH1 0xA0 SHL SUB SWAP2 DUP3 AND PUSH1 0x0 SWAP1 DUP2 MSTORE PUSH1 0x1 PUSH1 0x20 SWAP1 DUP2 MSTORE PUSH1 0x40 DUP1 DUP4 KECCAK256 SWAP4 SWAP1 SWAP5 AND DUP3 MSTORE SWAP2 SWAP1 SWAP2 MSTORE KECCAK256 SLOAD SWAP1 JUMP JUMPDEST PUSH2 0x26E PUSH2 0x575 CALLDATASIZE PUSH1 0x4 PUSH2 0x1B1E JUMP JUMPDEST PUSH2 0x1126 JUMP JUMPDEST PUSH1 0x60 PUSH1 0x3 DUP1 SLOAD PUSH2 0x589 SWAP1 PUSH2 0x1C5E JUMP JUMPDEST DUP1 PUSH1 0x1F ADD PUSH1 0x20 DUP1 SWAP2 DIV MUL PUSH1 0x20 ADD PUSH1 0x40 MLOAD SWAP1 DUP2 ADD PUSH1 0x40 MSTORE DUP1 SWAP3 SWAP2 SWAP1 DUP2 DUP2 MSTORE PUSH1 0x20 ADD DUP3 DUP1 SLOAD PUSH2 0x5B5 SWAP1 PUSH2 0x1C5E JUMP JUMPDEST DUP1 ISZERO PUSH2 0x602 JUMPI DUP1 PUSH1 0x1F LT PUSH2 0x5D7 JUMPI PUSH2 0x100 DUP1 DUP4 SLOAD DIV MUL DUP4 MSTORE SWAP2 PUSH1 0x20 ADD SWAP2 PUSH2 0x602 JUMP JUMPDEST DUP3 ADD SWAP2 SWAP1 PUSH1 0x0 MSTORE PUSH1 0x20 PUSH1 0x0 KECCAK256 SWAP1 JUMPDEST DUP2 SLOAD DUP2 MSTORE SWAP1 PUSH1 0x1 ADD SWAP1 PUSH1 0x20 ADD DUP1 DUP4 GT PUSH2 0x5E5 JUMPI DUP3 SWAP1 SUB PUSH1 0x1F AND DUP3 ADD SWAP2 JUMPDEST POP POP POP POP POP SWAP1 POP SWAP1 JUMP JUMPDEST PUSH1 0x0 CALLER PUSH2 0x61A DUP2 DUP6 DUP6 PUSH2 0x1161 JUMP JUMPDEST PUSH1 0x1 SWAP2 POP POP JUMPDEST SWAP3 SWAP2 POP POP JUMP JUMPDEST PUSH2 0x62E PUSH2 0x1173 JUMP JUMPDEST PUSH1 0x8 SLOAD PUSH1 0x1 PUSH1 0xA0 SHL SWAP1 DIV PUSH1 0xFF AND ISZERO PUSH2 0x661 JUMPI PUSH1 0x40 MLOAD PUSH3 0x461BCD PUSH1 0xE5 SHL DUP2 MSTORE PUSH1 0x4 ADD PUSH2 0x658 SWAP1 PUSH2 0x1C98 JUMP JUMPDEST PUSH1 0x40 MLOAD DUP1 SWAP2 SUB SWAP1 REVERT JUMPDEST PUSH1 0x1 PUSH1 0x1 PUSH1 0xA0 SHL SUB DUP2 AND PUSH2 0x6B7 JUMPI PUSH1 0x40 MLOAD PUSH3 0x461BCD PUSH1 0xE5 SHL DUP2 MSTORE PUSH1 0x20 PUSH1 0x4 DUP3 ADD MSTORE PUSH1 0x1E PUSH1 0x24 DUP3 ADD MSTORE PUSH32 0x4D4454546F6B656E3A206D696E7420746F207A65726F20616464726573730000 PUSH1 0x44 DUP3 ADD MSTORE PUSH1 0x64 ADD PUSH2 0x658 JUMP JUMPDEST PUSH1 0xA PUSH1 0x0 DUP4 PUSH1 0x7 DUP2 GT ISZERO PUSH2 0x6CD JUMPI PUSH2 0x6CD PUSH2 0x1CDE JUMP JUMPDEST PUSH1 0x7 DUP2 GT ISZERO PUSH2 0x6DE JUMPI PUSH2 0x6DE PUSH2 0x1CDE JUMP JUMPDEST DUP2 MSTORE PUSH1 0x20 ADD SWAP1 DUP2 MSTORE PUSH1 0x20 ADD PUSH1 0x0 KECCAK256 SLOAD PUSH1 0x0 EQ PUSH2 0x746 JUMPI PUSH1 0x40 MLOAD PUSH3 0x461BCD PUSH1 0xE5 SHL DUP2 MSTORE PUSH1 0x20 PUSH1 0x4 DUP3 ADD MSTORE PUSH1 0x21 PUSH1 0x24 DUP3 ADD MSTORE PUSH32 0x4D4454546F6B656E3A2063617465676F727920616C7265616479206D696E7465 PUSH1 0x44 DUP3 ADD MSTORE PUSH1 0x19 PUSH1 0xFA SHL PUSH1 0x64 DUP3 ADD MSTORE PUSH1 0x84 ADD PUSH2 0x658 JUMP JUMPDEST PUSH1 0x0 PUSH1 0xB PUSH1 0x0 DUP5 PUSH1 0x7 DUP2 GT ISZERO PUSH2 0x75E JUMPI PUSH2 0x75E PUSH2 0x1CDE JUMP JUMPDEST PUSH1 0x7 DUP2 GT ISZERO PUSH2 0x76F JUMPI PUSH2 0x76F PUSH2 0x1CDE JUMP JUMPDEST DUP2 MSTORE PUSH1 0x20 ADD SWAP1 DUP2 MSTORE PUSH1 0x20 ADD PUSH1 0x0 KECCAK256 SLOAD SWAP1 POP DUP1 PUSH1 0xA PUSH1 0x0 DUP6 PUSH1 0x7 DUP2 GT ISZERO PUSH2 0x797 JUMPI PUSH2 0x797 PUSH2 0x1CDE JUMP JUMPDEST PUSH1 0x7 DUP2 GT ISZERO PUSH2 0x7A8 JUMPI PUSH2 0x7A8 PUSH2 0x1CDE JUMP JUMPDEST DUP2 MSTORE PUSH1 0x20 DUP2 ADD SWAP2 SWAP1 SWAP2 MSTORE PUSH1 0x40 ADD PUSH1 0x0 KECCAK256 SSTORE PUSH2 0x7C3 DUP3 DUP3 PUSH2 0x11A0 JUMP JUMPDEST PUSH1 0x9 SLOAD PUSH1 0x0 SUB PUSH2 0x7D2 JUMPI TIMESTAMP PUSH1 0x9 SSTORE JUMPDEST DUP2 PUSH1 0x1 PUSH1 0x1 PUSH1 0xA0 SHL SUB AND DUP4 PUSH1 0x7 DUP2 GT ISZERO PUSH2 0x7EE JUMPI PUSH2 0x7EE PUSH2 0x1CDE JUMP JUMPDEST PUSH1 0x40 MLOAD DUP4 DUP2 MSTORE PUSH32 0xD18D0B722B1799AFC328CFD48DBC75998DC5E1F5C85D21BE72AE6F90DE992F04 SWAP1 PUSH1 0x20 ADD JUMPDEST PUSH1 0x40 MLOAD DUP1 SWAP2 SUB SWAP1 LOG3 POP POP POP JUMP JUMPDEST PUSH1 0x0 CALLER PUSH2 0x835 DUP6 DUP3 DUP6 PUSH2 0x11D6 JUMP JUMPDEST PUSH2 0x840 DUP6 DUP6 DUP6 PUSH2 0x1255 JUMP JUMPDEST POP PUSH1 0x1 SWAP5 SWAP4 POP POP POP POP JUMP JUMPDEST PUSH2 0x853 PUSH2 0x1173 JUMP JUMPDEST PUSH1 0x8 SLOAD PUSH1 0x1 PUSH1 0xA0 SHL SWAP1 DIV PUSH1 0xFF AND ISZERO PUSH2 0x87D JUMPI PUSH1 0x40 MLOAD PUSH3 0x461BCD PUSH1 0xE5 SHL DUP2 MSTORE PUSH1 0x4 ADD PUSH2 0x658 SWAP1 PUSH2 0x1C98 JUMP JUMPDEST PUSH1 0x1 PUSH1 0x1 PUSH1 0xA0 SHL SUB DUP3 AND PUSH2 0x8D3 JUMPI PUSH1 0x40 MLOAD PUSH3 0x461BCD PUSH1 0xE5 SHL DUP2 MSTORE PUSH1 0x20 PUSH1 0x4 DUP3 ADD MSTORE PUSH1 0x1E PUSH1 0x24 DUP3 ADD MSTORE PUSH32 0x4D4454546F6B656E3A206D696E7420746F207A65726F20616464726573730000 PUSH1 0x44 DUP3 ADD MSTORE PUSH1 0x64 ADD PUSH2 0x658 JUMP JUMPDEST PUSH1 0xB PUSH1 0x0 DUP5 PUSH1 0x7 DUP2 GT ISZERO PUSH2 0x8E9 JUMPI PUSH2 0x8E9 PUSH2 0x1CDE JUMP JUMPDEST PUSH1 0x7 DUP2 GT ISZERO PUSH2 0x8FA JUMPI PUSH2 0x8FA PUSH2 0x1CDE JUMP JUMPDEST DUP2 MSTORE PUSH1 0x20 ADD SWAP1 DUP2 MSTORE PUSH1 0x20 ADD PUSH1 0x0 KECCAK256 SLOAD DUP2 PUSH1 0xA PUSH1 0x0 DUP7 PUSH1 0x7 DUP2 GT ISZERO PUSH2 0x920 JUMPI PUSH2 0x920 PUSH2 0x1CDE JUMP JUMPDEST PUSH1 0x7 DUP2 GT ISZERO PUSH2 0x931 JUMPI PUSH2 0x931 PUSH2 0x1CDE JUMP JUMPDEST DUP2 MSTORE PUSH1 0x20 ADD SWAP1 DUP2 MSTORE PUSH1 0x20 ADD PUSH1 0x0 KECCAK256 SLOAD PUSH2 0x94A SWAP2 SWAP1 PUSH2 0x1D0A JUMP JUMPDEST GT ISZERO PUSH2 0x9A6 JUMPI PUSH1 0x40 MLOAD PUSH3 0x461BCD PUSH1 0xE5 SHL DUP2 MSTORE PUSH1 0x20 PUSH1 0x4 DUP3 ADD MSTORE PUSH1 0x25 PUSH1 0x24 DUP3 ADD MSTORE PUSH32 0x4D4454546F6B656E3A20657863656564732063617465676F727920616C6C6F63 PUSH1 0x44 DUP3 ADD MSTORE PUSH5 0x30BA34B7B7 PUSH1 0xD9 SHL PUSH1 0x64 DUP3 ADD MSTORE PUSH1 0x84 ADD PUSH2 0x658 JUMP JUMPDEST PUSH11 0x115EEC47F6CF7E35000000 DUP2 PUSH2 0x9BC PUSH1 0x2 SLOAD SWAP1 JUMP JUMPDEST PUSH2 0x9C6 SWAP2 SWAP1 PUSH2 0x1D0A JUMP JUMPDEST GT ISZERO PUSH2 0xA14 JUMPI PUSH1 0x40 MLOAD PUSH3 0x461BCD PUSH1 0xE5 SHL DUP2 MSTORE PUSH1 0x20 PUSH1 0x4 DUP3 ADD MSTORE PUSH1 0x1C PUSH1 0x24 DUP3 ADD MSTORE PUSH32 0x4D4454546F6B656E3A2065786365656473206D617820737570706C7900000000 PUSH1 0x44 DUP3 ADD MSTORE PUSH1 0x64 ADD PUSH2 0x658 JUMP JUMPDEST DUP1 PUSH1 0xA PUSH1 0x0 DUP6 PUSH1 0x7 DUP2 GT ISZERO PUSH2 0xA2B JUMPI PUSH2 0xA2B PUSH2 0x1CDE JUMP JUMPDEST PUSH1 0x7 DUP2 GT ISZERO PUSH2 0xA3C JUMPI PUSH2 0xA3C PUSH2 0x1CDE JUMP JUMPDEST DUP2 MSTORE PUSH1 0x20 ADD SWAP1 DUP2 MSTORE PUSH1 0x20 ADD PUSH1 0x0 KECCAK256 PUSH1 0x0 DUP3 DUP3 SLOAD PUSH2 0xA59 SWAP2 SWAP1 PUSH2 0x1D0A JUMP JUMPDEST SWAP1 SWAP2 SSTORE POP PUSH2 0x7D2 SWAP1 POP DUP3 DUP3 PUSH2 0x11A0 JUMP JUMPDEST PUSH1 0x0 PUSH2 0xA73 PUSH2 0x12B4 JUMP JUMPDEST SWAP1 POP SWAP1 JUMP JUMPDEST PUSH2 0xA82 CALLER DUP3 PUSH2 0x13DF JUMP JUMPDEST POP JUMP JUMPDEST PUSH2 0xA8D PUSH2 0x1173 JUMP JUMPDEST PUSH2 0xA97 PUSH1 0x0 PUSH2 0x1415 JUMP JUMPDEST JUMP JUMPDEST PUSH2 0xAA4 DUP3 CALLER DUP4 PUSH2 0x11D6 JUMP JUMPDEST PUSH2 0xAAE DUP3 DUP3 PUSH2 0x13DF JUMP JUMPDEST POP POP JUMP JUMPDEST PUSH2 0xABA PUSH2 0x1173 JUMP JUMPDEST PUSH1 0x8 SLOAD PUSH1 0x1 PUSH1 0xA0 SHL SWAP1 DIV PUSH1 0xFF AND ISZERO PUSH2 0xAE4 JUMPI PUSH1 0x40 MLOAD PUSH3 0x461BCD PUSH1 0xE5 SHL DUP2 MSTORE PUSH1 0x4 ADD PUSH2 0x658 SWAP1 PUSH2 0x1C98 JUMP JUMPDEST PUSH2 0xAEC PUSH2 0xE73 JUMP JUMPDEST PUSH2 0xB44 JUMPI PUSH1 0x40 MLOAD PUSH3 0x461BCD PUSH1 0xE5 SHL DUP2 MSTORE PUSH1 0x20 PUSH1 0x4 DUP3 ADD MSTORE PUSH1 0x23 PUSH1 0x24 DUP3 ADD MSTORE PUSH32 0x4D4454546F6B656E3A206E6F7420616C6C2063617465676F72696573206D696E PUSH1 0x44 DUP3 ADD MSTORE PUSH3 0x1D1959 PUSH1 0xEA SHL PUSH1 0x64 DUP3 ADD MSTORE PUSH1 0x84 ADD PUSH2 0x658 JUMP JUMPDEST PUSH11 0x115EEC47F6CF7E35000000 PUSH2 0xB59 PUSH1 0x2 SLOAD SWAP1 JUMP JUMPDEST EQ PUSH2 0xBA6 JUMPI PUSH1 0x40 MLOAD PUSH3 0x461BCD PUSH1 0xE5 SHL DUP2 MSTORE PUSH1 0x20 PUSH1 0x4 DUP3 ADD MSTORE PUSH1 0x19 PUSH1 0x24 DUP3 ADD MSTORE PUSH32 0x4D4454546F6B656E3A20737570706C79206D69736D6174636800000000000000 PUSH1 0x44 DUP3 ADD MSTORE PUSH1 0x64 ADD PUSH2 0x658 JUMP JUMPDEST PUSH1 0x8 DUP1 SLOAD PUSH1 0xFF PUSH1 0xA0 SHL NOT AND PUSH1 0x1 PUSH1 0xA0 SHL OR SWAP1 SSTORE PUSH1 0x40 MLOAD PUSH32 0xF6AF8E1D23F8A5997A11116C1E59BD11C947226B74890B8E0FDE60D95A7C076A SWAP1 PUSH2 0xBEB SWAP1 TIMESTAMP DUP2 MSTORE PUSH1 0x20 ADD SWAP1 JUMP JUMPDEST PUSH1 0x40 MLOAD DUP1 SWAP2 SUB SWAP1 LOG1 PUSH32 0x7A1BE65236FA43F4BD450D67219D65A9F1F3D51AAE0D62D70758463C9A316A76 PUSH1 0x9 SLOAD PUSH2 0xC20 PUSH1 0x2 SLOAD SWAP1 JUMP JUMPDEST PUSH1 0x40 DUP1 MLOAD SWAP3 DUP4 MSTORE PUSH1 0x20 DUP4 ADD SWAP2 SWAP1 SWAP2 MSTORE ADD PUSH1 0x40 MLOAD DUP1 SWAP2 SUB SWAP1 LOG1 PUSH2 0xA97 PUSH2 0xA85 JUMP JUMPDEST PUSH1 0x1 PUSH1 0x1 PUSH1 0xA0 SHL SUB DUP2 AND PUSH1 0x0 SWAP1 DUP2 MSTORE PUSH1 0x7 PUSH1 0x20 MSTORE PUSH1 0x40 DUP2 KECCAK256 SLOAD PUSH2 0x620 JUMP JUMPDEST PUSH1 0x0 PUSH1 0x60 DUP1 PUSH1 0x0 DUP1 PUSH1 0x0 PUSH1 0x60 PUSH2 0xC72 PUSH2 0x1467 JUMP JUMPDEST PUSH2 0xC7A PUSH2 0x1494 JUMP JUMPDEST PUSH1 0x40 DUP1 MLOAD PUSH1 0x0 DUP1 DUP3 MSTORE PUSH1 0x20 DUP3 ADD SWAP1 SWAP3 MSTORE PUSH1 0xF PUSH1 0xF8 SHL SWAP12 SWAP4 SWAP11 POP SWAP2 SWAP9 POP CHAINID SWAP8 POP ADDRESS SWAP7 POP SWAP5 POP SWAP3 POP SWAP1 POP JUMP JUMPDEST PUSH1 0x60 PUSH1 0x4 DUP1 SLOAD PUSH2 0x589 SWAP1 PUSH2 0x1C5E JUMP JUMPDEST PUSH1 0x0 CALLER PUSH2 0x61A DUP2 DUP6 DUP6 PUSH2 0x1255 JUMP JUMPDEST PUSH1 0x0 PUSH1 0xA PUSH1 0x0 DUP4 PUSH1 0x7 DUP2 GT ISZERO PUSH2 0xCD9 JUMPI PUSH2 0xCD9 PUSH2 0x1CDE JUMP JUMPDEST PUSH1 0x7 DUP2 GT ISZERO PUSH2 0xCEA JUMPI PUSH2 0xCEA PUSH2 0x1CDE JUMP JUMPDEST DUP2 MSTORE PUSH1 0x20 ADD SWAP1 DUP2 MSTORE PUSH1 0x20 ADD PUSH1 0x0 KECCAK256 SLOAD PUSH1 0xB PUSH1 0x0 DUP5 PUSH1 0x7 DUP2 GT ISZERO PUSH2 0xD0F JUMPI PUSH2 0xD0F PUSH2 0x1CDE JUMP JUMPDEST PUSH1 0x7 DUP2 GT ISZERO PUSH2 0xD20 JUMPI PUSH2 0xD20 PUSH2 0x1CDE JUMP JUMPDEST DUP2 MSTORE PUSH1 0x20 ADD SWAP1 DUP2 MSTORE PUSH1 0x20 ADD PUSH1 0x0 KECCAK256 SLOAD PUSH2 0x620 SWAP2 SWAP1 PUSH2 0x1D1D JUMP JUMPDEST DUP4 TIMESTAMP GT ISZERO PUSH2 0xD5D JUMPI PUSH1 0x40 MLOAD PUSH4 0x313C8981 PUSH1 0xE1 SHL DUP2 MSTORE PUSH1 0x4 DUP2 ADD DUP6 SWAP1 MSTORE PUSH1 0x24 ADD PUSH2 0x658 JUMP JUMPDEST PUSH1 0x0 PUSH32 0x6E71EDAE12B1B97F4D1F60370FEF10105FA2FAAE0126114A169C64845D6126C9 DUP9 DUP9 DUP9 PUSH2 0xDAA DUP13 PUSH1 0x1 PUSH1 0x1 PUSH1 0xA0 SHL SUB AND PUSH1 0x0 SWAP1 DUP2 MSTORE PUSH1 0x7 PUSH1 0x20 MSTORE PUSH1 0x40 SWAP1 KECCAK256 DUP1 SLOAD PUSH1 0x1 DUP2 ADD SWAP1 SWAP2 SSTORE SWAP1 JUMP JUMPDEST PUSH1 0x40 DUP1 MLOAD PUSH1 0x20 DUP2 ADD SWAP7 SWAP1 SWAP7 MSTORE PUSH1 0x1 PUSH1 0x1 PUSH1 0xA0 SHL SUB SWAP5 DUP6 AND SWAP1 DUP7 ADD MSTORE SWAP3 SWAP1 SWAP2 AND PUSH1 0x60 DUP5 ADD MSTORE PUSH1 0x80 DUP4 ADD MSTORE PUSH1 0xA0 DUP3 ADD MSTORE PUSH1 0xC0 DUP2 ADD DUP7 SWAP1 MSTORE PUSH1 0xE0 ADD PUSH1 0x40 MLOAD PUSH1 0x20 DUP2 DUP4 SUB SUB DUP2 MSTORE SWAP1 PUSH1 0x40 MSTORE DUP1 MLOAD SWAP1 PUSH1 0x20 ADD KECCAK256 SWAP1 POP PUSH1 0x0 PUSH2 0xE05 DUP3 PUSH2 0x14C1 JUMP JUMPDEST SWAP1 POP PUSH1 0x0 PUSH2 0xE15 DUP3 DUP8 DUP8 DUP8 PUSH2 0x14EE JUMP JUMPDEST SWAP1 POP DUP10 PUSH1 0x1 PUSH1 0x1 PUSH1 0xA0 SHL SUB AND DUP2 PUSH1 0x1 PUSH1 0x1 PUSH1 0xA0 SHL SUB AND EQ PUSH2 0xE5C JUMPI PUSH1 0x40 MLOAD PUSH4 0x25C00723 PUSH1 0xE1 SHL DUP2 MSTORE PUSH1 0x1 PUSH1 0x1 PUSH1 0xA0 SHL SUB DUP1 DUP4 AND PUSH1 0x4 DUP4 ADD MSTORE DUP12 AND PUSH1 0x24 DUP3 ADD MSTORE PUSH1 0x44 ADD PUSH2 0x658 JUMP JUMPDEST PUSH2 0xE67 DUP11 DUP11 DUP11 PUSH2 0x1161 JUMP JUMPDEST POP POP POP POP POP POP POP POP POP POP JUMP JUMPDEST PUSH1 0x0 DUP1 DUP1 MSTORE PUSH32 0xDF7DE25B7F1FD6D0B5205F0E18F1F35BD7B8D84CCE336588D184533CE43A6F76 SLOAD PUSH1 0xA PUSH1 0x20 MSTORE PUSH32 0x13DA86008BA1C6922DAEE3E07DB95305EF49EBCED9F5467A0B8613FCC6B343E3 SLOAD EQ DUP1 ISZERO PUSH2 0xF19 JUMPI POP PUSH1 0x1 PUSH1 0x0 MSTORE PUSH32 0x72C6BFB7988AF3A1EFA6568F02A999BC52252641C659D85961CA3D372B57D5CF SLOAD PUSH1 0xA PUSH1 0x20 MSTORE PUSH32 0xBBC70DB1B6C7AFD11E79C0FB0051300458F1A3ACB8EE9789D9B6B26C61AD9BC7 SLOAD EQ JUMPDEST DUP1 ISZERO PUSH2 0xF70 JUMPI POP PUSH1 0x2 PUSH1 0x0 MSTORE PUSH32 0xA50EECE07C7DB1631545C0069BD8F5F54D5935E215D59097EDF258A44BA91634 SLOAD PUSH1 0xA PUSH1 0x20 MSTORE PUSH32 0xBFF4442B8ED600BEEB8E26B1279A0F0D14C6EDFAEC26D968EE13C86F7D4C2BA8 SLOAD EQ JUMPDEST DUP1 ISZERO PUSH2 0xFC7 JUMPI POP PUSH1 0x3 PUSH1 0x0 MSTORE PUSH32 0x64C15CC42BE7899B001F818CF4433057002112C418D1D3A67CD5CB453051D33E SLOAD PUSH1 0xA PUSH1 0x20 MSTORE PUSH32 0xA856840544DC26124927ADD067D799967EAC11BE13E14D82CC281EA46FA39759 SLOAD EQ JUMPDEST DUP1 ISZERO PUSH2 0x101E JUMPI POP PUSH1 0x4 PUSH1 0x0 MSTORE PUSH32 0x12D0C11577E2F0950F57C455C117796550B79F444811DB8BA2F69C57B646C784 SLOAD PUSH1 0xA PUSH1 0x20 MSTORE PUSH32 0xE1EB2B2161A492C07C5A334E48012567CBA93EC021043F53C1955516A3C5A841 SLOAD EQ JUMPDEST DUP1 ISZERO PUSH2 0x1075 JUMPI POP PUSH1 0x5 PUSH1 0x0 MSTORE PUSH32 0xEBAE6141BAE5521E99E0A8D610356B0F501FEA54980B59C84841DB43BA7204F4 SLOAD PUSH1 0xA PUSH1 0x20 MSTORE PUSH32 0xF35035BC2B01D44BD35A1DCDC552315CFFB73DA35CFD60570B7B777F98036F9F SLOAD EQ JUMPDEST DUP1 ISZERO PUSH2 0x10CC JUMPI POP PUSH1 0x6 PUSH1 0x0 MSTORE PUSH32 0x387E9D1203691D8E3362A7E4C6723DE358A4010D7F31ECBEC3FBFC61D1C75FC SLOAD PUSH1 0xA PUSH1 0x20 MSTORE PUSH32 0x10D9DD018E4CAE503383C9F804C1C1603ADA5856EE7894375D9B97CD8C8B27DB SLOAD EQ JUMPDEST DUP1 ISZERO PUSH2 0xA73 JUMPI POP POP PUSH1 0x7 PUSH1 0x0 MSTORE PUSH32 0xF5559028DC9BA50D75343C779B2F75E13A84A14662932FC67A486F263CA31A96 SLOAD PUSH1 0xA PUSH1 0x20 MSTORE PUSH32 0x22E39F61D1E4986B4F116CEA9067F62CC77D74DFF1780AE9C8B5166D1DD28829 SLOAD EQ SWAP1 JUMP JUMPDEST PUSH2 0x112E PUSH2 0x1173 JUMP JUMPDEST PUSH1 0x1 PUSH1 0x1 PUSH1 0xA0 SHL SUB DUP2 AND PUSH2 0x1158 JUMPI PUSH1 0x40 MLOAD PUSH4 0x1E4FBDF7 PUSH1 0xE0 SHL DUP2 MSTORE PUSH1 0x0 PUSH1 0x4 DUP3 ADD MSTORE PUSH1 0x24 ADD PUSH2 0x658 JUMP JUMPDEST PUSH2 0xA82 DUP2 PUSH2 0x1415 JUMP JUMPDEST PUSH2 0x116E DUP4 DUP4 DUP4 PUSH1 0x1 PUSH2 0x151C JUMP JUMPDEST POP POP POP JUMP JUMPDEST PUSH1 0x8 SLOAD PUSH1 0x1 PUSH1 0x1 PUSH1 0xA0 SHL SUB AND CALLER EQ PUSH2 0xA97 JUMPI PUSH1 0x40 MLOAD PUSH4 0x118CDAA7 PUSH1 0xE0 SHL DUP2 MSTORE CALLER PUSH1 0x4 DUP3 ADD MSTORE PUSH1 0x24 ADD PUSH2 0x658 JUMP JUMPDEST PUSH1 0x1 PUSH1 0x1 PUSH1 0xA0 SHL SUB DUP3 AND PUSH2 0x11CA JUMPI PUSH1 0x40 MLOAD PUSH4 0xEC442F05 PUSH1 0xE0 SHL DUP2 MSTORE PUSH1 0x0 PUSH1 0x4 DUP3 ADD MSTORE PUSH1 0x24 ADD PUSH2 0x658 JUMP JUMPDEST PUSH2 0xAAE PUSH1 0x0 DUP4 DUP4 PUSH2 0x15F1 JUMP JUMPDEST PUSH1 0x1 PUSH1 0x1 PUSH1 0xA0 SHL SUB DUP4 DUP2 AND PUSH1 0x0 SWAP1 DUP2 MSTORE PUSH1 0x1 PUSH1 0x20 SWAP1 DUP2 MSTORE PUSH1 0x40 DUP1 DUP4 KECCAK256 SWAP4 DUP7 AND DUP4 MSTORE SWAP3 SWAP1 MSTORE KECCAK256 SLOAD PUSH1 0x0 NOT DUP2 LT ISZERO PUSH2 0x124F JUMPI DUP2 DUP2 LT ISZERO PUSH2 0x1240 JUMPI PUSH1 0x40 MLOAD PUSH4 0x7DC7A0D9 PUSH1 0xE1 SHL DUP2 MSTORE PUSH1 0x1 PUSH1 0x1 PUSH1 0xA0 SHL SUB DUP5 AND PUSH1 0x4 DUP3 ADD MSTORE PUSH1 0x24 DUP2 ADD DUP3 SWAP1 MSTORE PUSH1 0x44 DUP2 ADD DUP4 SWAP1 MSTORE PUSH1 0x64 ADD PUSH2 0x658 JUMP JUMPDEST PUSH2 0x124F DUP5 DUP5 DUP5 DUP5 SUB PUSH1 0x0 PUSH2 0x151C JUMP JUMPDEST POP POP POP POP JUMP JUMPDEST PUSH1 0x1 PUSH1 0x1 PUSH1 0xA0 SHL SUB DUP4 AND PUSH2 0x127F JUMPI PUSH1 0x40 MLOAD PUSH4 0x4B637E8F PUSH1 0xE1 SHL DUP2 MSTORE PUSH1 0x0 PUSH1 0x4 DUP3 ADD MSTORE PUSH1 0x24 ADD PUSH2 0x658 JUMP JUMPDEST PUSH1 0x1 PUSH1 0x1 PUSH1 0xA0 SHL SUB DUP3 AND PUSH2 0x12A9 JUMPI PUSH1 0x40 MLOAD PUSH4 0xEC442F05 PUSH1 0xE0 SHL DUP2 MSTORE PUSH1 0x0 PUSH1 0x4 DUP3 ADD MSTORE PUSH1 0x24 ADD PUSH2 0x658 JUMP JUMPDEST PUSH2 0x116E DUP4 DUP4 DUP4 PUSH2 0x15F1 JUMP JUMPDEST PUSH1 0x0 ADDRESS PUSH1 0x1 PUSH1 0x1 PUSH1 0xA0 SHL SUB PUSH32 0x0 AND EQ DUP1 ISZERO PUSH2 0x130D JUMPI POP PUSH32 0x0 CHAINID EQ JUMPDEST ISZERO PUSH2 0x1337 JUMPI POP PUSH32 0x0 SWAP1 JUMP JUMPDEST PUSH2 0xA73 PUSH1 0x40 DUP1 MLOAD PUSH32 0x8B73C3C69BB8FE3D512ECC4CF759CC79239F7B179B0FFACAA9A75D522B39400F PUSH1 0x20 DUP3 ADD MSTORE PUSH32 0x0 SWAP2 DUP2 ADD SWAP2 SWAP1 SWAP2 MSTORE PUSH32 0x0 PUSH1 0x60 DUP3 ADD MSTORE CHAINID PUSH1 0x80 DUP3 ADD MSTORE ADDRESS PUSH1 0xA0 DUP3 ADD MSTORE PUSH1 0x0 SWAP1 PUSH1 0xC0 ADD PUSH1 0x40 MLOAD PUSH1 0x20 DUP2 DUP4 SUB SUB DUP2 MSTORE SWAP1 PUSH1 0x40 MSTORE DUP1 MLOAD SWAP1 PUSH1 0x20 ADD KECCAK256 SWAP1 POP SWAP1 JUMP JUMPDEST PUSH1 0x1 PUSH1 0x1 PUSH1 0xA0 SHL SUB DUP3 AND PUSH2 0x1409 JUMPI PUSH1 0x40 MLOAD PUSH4 0x4B637E8F PUSH1 0xE1 SHL DUP2 MSTORE PUSH1 0x0 PUSH1 0x4 DUP3 ADD MSTORE PUSH1 0x24 ADD PUSH2 0x658 JUMP JUMPDEST PUSH2 0xAAE DUP3 PUSH1 0x0 DUP4 PUSH2 0x15F1 JUMP JUMPDEST PUSH1 0x8 DUP1 SLOAD PUSH1 0x1 PUSH1 0x1 PUSH1 0xA0 SHL SUB DUP4 DUP2 AND PUSH1 0x1 PUSH1 0x1 PUSH1 0xA0 SHL SUB NOT DUP4 AND DUP2 OR SWAP1 SWAP4 SSTORE PUSH1 0x40 MLOAD SWAP2 AND SWAP2 SWAP1 DUP3 SWAP1 PUSH32 0x8BE0079C531659141344CD1FD0A4F28419497F9722A3DAAFE3B4186F6B6457E0 SWAP1 PUSH1 0x0 SWAP1 LOG3 POP POP JUMP JUMPDEST PUSH1 0x60 PUSH2 0xA73 PUSH32 0x0 PUSH1 0x5 PUSH2 0x170E JUMP JUMPDEST PUSH1 0x60 PUSH2 0xA73 PUSH32 0x0 PUSH1 0x6 PUSH2 0x170E JUMP JUMPDEST PUSH1 0x0 PUSH2 0x620 PUSH2 0x14CE PUSH2 0x12B4 JUMP JUMPDEST DUP4 PUSH1 0x40 MLOAD PUSH2 0x1901 PUSH1 0xF0 SHL DUP2 MSTORE PUSH1 0x2 DUP2 ADD SWAP3 SWAP1 SWAP3 MSTORE PUSH1 0x22 DUP3 ADD MSTORE PUSH1 0x42 SWAP1 KECCAK256 SWAP1 JUMP JUMPDEST PUSH1 0x0 DUP1 PUSH1 0x0 DUP1 PUSH2 0x1500 DUP9 DUP9 DUP9 DUP9 PUSH2 0x17B9 JUMP JUMPDEST SWAP3 POP SWAP3 POP SWAP3 POP PUSH2 0x1510 DUP3 DUP3 PUSH2 0x1888 JUMP JUMPDEST POP SWAP1 SWAP7 SWAP6 POP POP POP POP POP POP JUMP JUMPDEST PUSH1 0x1 PUSH1 0x1 PUSH1 0xA0 SHL SUB DUP5 AND PUSH2 0x1546 JUMPI PUSH1 0x40 MLOAD PUSH4 0xE602DF05 PUSH1 0xE0 SHL DUP2 MSTORE PUSH1 0x0 PUSH1 0x4 DUP3 ADD MSTORE PUSH1 0x24 ADD PUSH2 0x658 JUMP JUMPDEST PUSH1 0x1 PUSH1 0x1 PUSH1 0xA0 SHL SUB DUP4 AND PUSH2 0x1570 JUMPI PUSH1 0x40 MLOAD PUSH4 0x4A1406B1 PUSH1 0xE1 SHL DUP2 MSTORE PUSH1 0x0 PUSH1 0x4 DUP3 ADD MSTORE PUSH1 0x24 ADD PUSH2 0x658 JUMP JUMPDEST PUSH1 0x1 PUSH1 0x1 PUSH1 0xA0 SHL SUB DUP1 DUP6 AND PUSH1 0x0 SWAP1 DUP2 MSTORE PUSH1 0x1 PUSH1 0x20 SWAP1 DUP2 MSTORE PUSH1 0x40 DUP1 DUP4 KECCAK256 SWAP4 DUP8 AND DUP4 MSTORE SWAP3 SWAP1 MSTORE KECCAK256 DUP3 SWAP1 SSTORE DUP1 ISZERO PUSH2 0x124F JUMPI DUP3 PUSH1 0x1 PUSH1 0x1 PUSH1 0xA0 SHL SUB AND DUP5 PUSH1 0x1 PUSH1 0x1 PUSH1 0xA0 SHL SUB AND PUSH32 0x8C5BE1E5EBEC7D5BD14F71427D1E84F3DD0314C0F7B2291E5B200AC8C7C3B925 DUP5 PUSH1 0x40 MLOAD PUSH2 0x15E3 SWAP2 DUP2 MSTORE PUSH1 0x20 ADD SWAP1 JUMP JUMPDEST PUSH1 0x40 MLOAD DUP1 SWAP2 SUB SWAP1 LOG3 POP POP POP POP JUMP JUMPDEST PUSH1 0x1 PUSH1 0x1 PUSH1 0xA0 SHL SUB DUP4 AND PUSH2 0x161C JUMPI DUP1 PUSH1 0x2 PUSH1 0x0 DUP3 DUP3 SLOAD PUSH2 0x1611 SWAP2 SWAP1 PUSH2 0x1D0A JUMP JUMPDEST SWAP1 SWAP2 SSTORE POP PUSH2 0x168E SWAP1 POP JUMP JUMPDEST PUSH1 0x1 PUSH1 0x1 PUSH1 0xA0 SHL SUB DUP4 AND PUSH1 0x0 SWAP1 DUP2 MSTORE PUSH1 0x20 DUP2 SWAP1 MSTORE PUSH1 0x40 SWAP1 KECCAK256 SLOAD DUP2 DUP2 LT ISZERO PUSH2 0x166F JUMPI PUSH1 0x40 MLOAD PUSH4 0x391434E3 PUSH1 0xE2 SHL DUP2 MSTORE PUSH1 0x1 PUSH1 0x1 PUSH1 0xA0 SHL SUB DUP6 AND PUSH1 0x4 DUP3 ADD MSTORE PUSH1 0x24 DUP2 ADD DUP3 SWAP1 MSTORE PUSH1 0x44 DUP2 ADD DUP4 SWAP1 MSTORE PUSH1 0x64 ADD PUSH2 0x658 JUMP JUMPDEST PUSH1 0x1 PUSH1 0x1 PUSH1 0xA0 SHL SUB DUP5 AND PUSH1 0x0 SWAP1 DUP2 MSTORE PUSH1 0x20 DUP2 SWAP1 MSTORE PUSH1 0x40 SWAP1 KECCAK256 SWAP1 DUP3 SWAP1 SUB SWAP1 SSTORE JUMPDEST PUSH1 0x1 PUSH1 0x1 PUSH1 0xA0 SHL SUB DUP3 AND PUSH2 0x16AA JUMPI PUSH1 0x2 DUP1 SLOAD DUP3 SWAP1 SUB SWAP1 SSTORE PUSH2 0x16C9 JUMP JUMPDEST PUSH1 0x1 PUSH1 0x1 PUSH1 0xA0 SHL SUB DUP3 AND PUSH1 0x0 SWAP1 DUP2 MSTORE PUSH1 0x20 DUP2 SWAP1 MSTORE PUSH1 0x40 SWAP1 KECCAK256 DUP1 SLOAD DUP3 ADD SWAP1 SSTORE JUMPDEST DUP2 PUSH1 0x1 PUSH1 0x1 PUSH1 0xA0 SHL SUB AND DUP4 PUSH1 0x1 PUSH1 0x1 PUSH1 0xA0 SHL SUB AND PUSH32 0xDDF252AD1BE2C89B69C2B068FC378DAA952BA7F163C4A11628F55A4DF523B3EF DUP4 PUSH1 0x40 MLOAD PUSH2 0x81A SWAP2 DUP2 MSTORE PUSH1 0x20 ADD SWAP1 JUMP JUMPDEST PUSH1 0x60 PUSH1 0xFF DUP4 EQ PUSH2 0x1728 JUMPI PUSH2 0x1721 DUP4 PUSH2 0x1941 JUMP JUMPDEST SWAP1 POP PUSH2 0x620 JUMP JUMPDEST DUP2 DUP1 SLOAD PUSH2 0x1734 SWAP1 PUSH2 0x1C5E JUMP JUMPDEST DUP1 PUSH1 0x1F ADD PUSH1 0x20 DUP1 SWAP2 DIV MUL PUSH1 0x20 ADD PUSH1 0x40 MLOAD SWAP1 DUP2 ADD PUSH1 0x40 MSTORE DUP1 SWAP3 SWAP2 SWAP1 DUP2 DUP2 MSTORE PUSH1 0x20 ADD DUP3 DUP1 SLOAD PUSH2 0x1760 SWAP1 PUSH2 0x1C5E JUMP JUMPDEST DUP1 ISZERO PUSH2 0x17AD JUMPI DUP1 PUSH1 0x1F LT PUSH2 0x1782 JUMPI PUSH2 0x100 DUP1 DUP4 SLOAD DIV MUL DUP4 MSTORE SWAP2 PUSH1 0x20 ADD SWAP2 PUSH2 0x17AD JUMP JUMPDEST DUP3 ADD SWAP2 SWAP1 PUSH1 0x0 MSTORE PUSH1 0x20 PUSH1 0x0 KECCAK256 SWAP1 JUMPDEST DUP2 SLOAD DUP2 MSTORE SWAP1 PUSH1 0x1 ADD SWAP1 PUSH1 0x20 ADD DUP1 DUP4 GT PUSH2 0x1790 JUMPI DUP3 SWAP1 SUB PUSH1 0x1F AND DUP3 ADD SWAP2 JUMPDEST POP POP POP POP POP SWAP1 POP PUSH2 0x620 JUMP JUMPDEST PUSH1 0x0 DUP1 DUP1 PUSH32 0x7FFFFFFFFFFFFFFFFFFFFFFFFFFFFFFF5D576E7357A4501DDFE92F46681B20A0 DUP5 GT ISZERO PUSH2 0x17F4 JUMPI POP PUSH1 0x0 SWAP2 POP PUSH1 0x3 SWAP1 POP DUP3 PUSH2 0x187E JUMP JUMPDEST PUSH1 0x40 DUP1 MLOAD PUSH1 0x0 DUP1 DUP3 MSTORE PUSH1 0x20 DUP3 ADD DUP1 DUP5 MSTORE DUP11 SWAP1 MSTORE PUSH1 0xFF DUP10 AND SWAP3 DUP3 ADD SWAP3 SWAP1 SWAP3 MSTORE PUSH1 0x60 DUP2 ADD DUP8 SWAP1 MSTORE PUSH1 0x80 DUP2 ADD DUP7 SWAP1 MSTORE PUSH1 0x1 SWAP1 PUSH1 0xA0 ADD PUSH1 0x20 PUSH1 0x40 MLOAD PUSH1 0x20 DUP2 SUB SWAP1 DUP1 DUP5 SUB SWAP1 DUP6 GAS STATICCALL ISZERO DUP1 ISZERO PUSH2 0x1848 JUMPI RETURNDATASIZE PUSH1 0x0 DUP1 RETURNDATACOPY RETURNDATASIZE PUSH1 0x0 REVERT JUMPDEST POP POP PUSH1 0x40 MLOAD PUSH1 0x1F NOT ADD MLOAD SWAP2 POP POP PUSH1 0x1 PUSH1 0x1 PUSH1 0xA0 SHL SUB DUP2 AND PUSH2 0x1874 JUMPI POP PUSH1 0x0 SWAP3 POP PUSH1 0x1 SWAP2 POP DUP3 SWAP1 POP PUSH2 0x187E JUMP JUMPDEST SWAP3 POP PUSH1 0x0 SWAP2 POP DUP2 SWAP1 POP JUMPDEST SWAP5 POP SWAP5 POP SWAP5 SWAP2 POP POP JUMP JUMPDEST PUSH1 0x0 DUP3 PUSH1 0x3 DUP2 GT ISZERO PUSH2 0x189C JUMPI PUSH2 0x189C PUSH2 0x1CDE JUMP JUMPDEST SUB PUSH2 0x18A5 JUMPI POP POP JUMP JUMPDEST PUSH1 0x1 DUP3 PUSH1 0x3 DUP2 GT ISZERO PUSH2 0x18B9 JUMPI PUSH2 0x18B9 PUSH2 0x1CDE JUMP JUMPDEST SUB PUSH2 0x18D7 JUMPI PUSH1 0x40 MLOAD PUSH4 0xF645EEDF PUSH1 0xE0 SHL DUP2 MSTORE PUSH1 0x4 ADD PUSH1 0x40 MLOAD DUP1 SWAP2 SUB SWAP1 REVERT JUMPDEST PUSH1 0x2 DUP3 PUSH1 0x3 DUP2 GT ISZERO PUSH2 0x18EB JUMPI PUSH2 0x18EB PUSH2 0x1CDE JUMP JUMPDEST SUB PUSH2 0x190C JUMPI PUSH1 0x40 MLOAD PUSH4 0xFCE698F7 PUSH1 0xE0 SHL DUP2 MSTORE PUSH1 0x4 DUP2 ADD DUP3 SWAP1 MSTORE PUSH1 0x24 ADD PUSH2 0x658 JUMP JUMPDEST PUSH1 0x3 DUP3 PUSH1 0x3 DUP2 GT ISZERO PUSH2 0x1920 JUMPI PUSH2 0x1920 PUSH2 0x1CDE JUMP JUMPDEST SUB PUSH2 0xAAE JUMPI PUSH1 0x40 MLOAD PUSH4 0x35E2F383 PUSH1 0xE2 SHL DUP2 MSTORE PUSH1 0x4 DUP2 ADD DUP3 SWAP1 MSTORE PUSH1 0x24 ADD PUSH2 0x658 JUMP JUMPDEST PUSH1 0x60 PUSH1 0x0 PUSH2 0x194E DUP4 PUSH2 0x1980 JUMP JUMPDEST PUSH1 0x40 DUP1 MLOAD PUSH1 0x20 DUP1 DUP3 MSTORE DUP2 DUP4 ADD SWAP1 SWAP3 MSTORE SWAP2 SWAP3 POP PUSH1 0x0 SWAP2 SWAP1 PUSH1 0x20 DUP3 ADD DUP2 DUP1 CALLDATASIZE DUP4 CALLDATACOPY POP POP POP SWAP2 DUP3 MSTORE POP PUSH1 0x20 DUP2 ADD SWAP3 SWAP1 SWAP3 MSTORE POP SWAP1 JUMP JUMPDEST PUSH1 0x0 PUSH1 0xFF DUP3 AND PUSH1 0x1F DUP2 GT ISZERO PUSH2 0x620 JUMPI PUSH1 0x40 MLOAD PUSH4 0x2CD44AC3 PUSH1 0xE2 SHL DUP2 MSTORE PUSH1 0x4 ADD PUSH1 0x40 MLOAD DUP1 SWAP2 SUB SWAP1 REVERT JUMPDEST PUSH1 0x0 DUP2 MLOAD DUP1 DUP5 MSTORE PUSH1 0x0 JUMPDEST DUP2 DUP2 LT ISZERO PUSH2 0x19CE JUMPI PUSH1 0x20 DUP2 DUP6 ADD DUP2 ADD MLOAD DUP7 DUP4 ADD DUP3 ADD MSTORE ADD PUSH2 0x19B2 JUMP JUMPDEST POP PUSH1 0x0 PUSH1 0x20 DUP3 DUP7 ADD ADD MSTORE PUSH1 0x20 PUSH1 0x1F NOT PUSH1 0x1F DUP4 ADD AND DUP6 ADD ADD SWAP2 POP POP SWAP3 SWAP2 POP POP JUMP JUMPDEST PUSH1 0x20 DUP2 MSTORE PUSH1 0x0 PUSH2 0x1A01 PUSH1 0x20 DUP4 ADD DUP5 PUSH2 0x19A8 JUMP JUMPDEST SWAP4 SWAP3 POP POP POP JUMP JUMPDEST DUP1 CALLDATALOAD PUSH1 0x1 PUSH1 0x1 PUSH1 0xA0 SHL SUB DUP2 AND DUP2 EQ PUSH2 0x1A1F JUMPI PUSH1 0x0 DUP1 REVERT JUMPDEST SWAP2 SWAP1 POP JUMP JUMPDEST PUSH1 0x0 DUP1 PUSH1 0x40 DUP4 DUP6 SUB SLT ISZERO PUSH2 0x1A37 JUMPI PUSH1 0x0 DUP1 REVERT JUMPDEST PUSH2 0x1A40 DUP4 PUSH2 0x1A08 JUMP JUMPDEST SWAP5 PUSH1 0x20 SWAP4 SWAP1 SWAP4 ADD CALLDATALOAD SWAP4 POP POP POP JUMP JUMPDEST DUP1 CALLDATALOAD PUSH1 0x8 DUP2 LT PUSH2 0x1A1F JUMPI PUSH1 0x0 DUP1 REVERT JUMPDEST PUSH1 0x0 PUSH1 0x20 DUP3 DUP5 SUB SLT ISZERO PUSH2 0x1A6F JUMPI PUSH1 0x0 DUP1 REVERT JUMPDEST PUSH2 0x1A01 DUP3 PUSH2 0x1A4E JUMP JUMPDEST PUSH1 0x0 DUP1 PUSH1 0x40 DUP4 DUP6 SUB SLT ISZERO PUSH2 0x1A8B JUMPI PUSH1 0x0 DUP1 REVERT JUMPDEST PUSH2 0x1A94 DUP4 PUSH2 0x1A4E JUMP JUMPDEST SWAP2 POP PUSH2 0x1AA2 PUSH1 0x20 DUP5 ADD PUSH2 0x1A08 JUMP JUMPDEST SWAP1 POP SWAP3 POP SWAP3 SWAP1 POP JUMP JUMPDEST PUSH1 0x0 DUP1 PUSH1 0x0 PUSH1 0x60 DUP5 DUP7 SUB SLT ISZERO PUSH2 0x1AC0 JUMPI PUSH1 0x0 DUP1 REVERT JUMPDEST PUSH2 0x1AC9 DUP5 PUSH2 0x1A08 JUMP JUMPDEST SWAP3 POP PUSH2 0x1AD7 PUSH1 0x20 DUP6 ADD PUSH2 0x1A08 JUMP JUMPDEST SWAP2 POP PUSH1 0x40 DUP5 ADD CALLDATALOAD SWAP1 POP SWAP3 POP SWAP3 POP SWAP3 JUMP JUMPDEST PUSH1 0x0 DUP1 PUSH1 0x0 PUSH1 0x60 DUP5 DUP7 SUB SLT ISZERO PUSH2 0x1AFC JUMPI PUSH1 0x0 DUP1 REVERT JUMPDEST PUSH2 0x1AC9 DUP5 PUSH2 0x1A4E JUMP JUMPDEST PUSH1 0x0 PUSH1 0x20 DUP3 DUP5 SUB SLT ISZERO PUSH2 0x1B17 JUMPI PUSH1 0x0 DUP1 REVERT JUMPDEST POP CALLDATALOAD SWAP2 SWAP1 POP JUMP JUMPDEST PUSH1 0x0 PUSH1 0x20 DUP3 DUP5 SUB SLT ISZERO PUSH2 0x1B30 JUMPI PUSH1 0x0 DUP1 REVERT JUMPDEST PUSH2 0x1A01 DUP3 PUSH2 0x1A08 JUMP JUMPDEST PUSH1 0xFF PUSH1 0xF8 SHL DUP9 AND DUP2 MSTORE PUSH1 0x0 PUSH1 0x20 PUSH1 0xE0 DUP2 DUP5 ADD MSTORE PUSH2 0x1B59 PUSH1 0xE0 DUP5 ADD DUP11 PUSH2 0x19A8 JUMP JUMPDEST DUP4 DUP2 SUB PUSH1 0x40 DUP6 ADD MSTORE PUSH2 0x1B6B DUP2 DUP11 PUSH2 0x19A8 JUMP JUMPDEST PUSH1 0x60 DUP6 ADD DUP10 SWAP1 MSTORE PUSH1 0x1 PUSH1 0x1 PUSH1 0xA0 SHL SUB DUP9 AND PUSH1 0x80 DUP7 ADD MSTORE PUSH1 0xA0 DUP6 ADD DUP8 SWAP1 MSTORE DUP5 DUP2 SUB PUSH1 0xC0 DUP7 ADD MSTORE DUP6 MLOAD DUP1 DUP3 MSTORE DUP4 DUP8 ADD SWAP3 POP SWAP1 DUP4 ADD SWAP1 PUSH1 0x0 JUMPDEST DUP2 DUP2 LT ISZERO PUSH2 0x1BBD JUMPI DUP4 MLOAD DUP4 MSTORE SWAP3 DUP5 ADD SWAP3 SWAP2 DUP5 ADD SWAP2 PUSH1 0x1 ADD PUSH2 0x1BA1 JUMP JUMPDEST POP SWAP1 SWAP13 SWAP12 POP POP POP POP POP POP POP POP POP POP POP POP JUMP JUMPDEST PUSH1 0x0 DUP1 PUSH1 0x0 DUP1 PUSH1 0x0 DUP1 PUSH1 0x0 PUSH1 0xE0 DUP9 DUP11 SUB SLT ISZERO PUSH2 0x1BEA JUMPI PUSH1 0x0 DUP1 REVERT JUMPDEST PUSH2 0x1BF3 DUP9 PUSH2 0x1A08 JUMP JUMPDEST SWAP7 POP PUSH2 0x1C01 PUSH1 0x20 DUP10 ADD PUSH2 0x1A08 JUMP JUMPDEST SWAP6 POP PUSH1 0x40 DUP9 ADD CALLDATALOAD SWAP5 POP PUSH1 0x60 DUP9 ADD CALLDATALOAD SWAP4 POP PUSH1 0x80 DUP9 ADD CALLDATALOAD PUSH1 0xFF DUP2 AND DUP2 EQ PUSH2 0x1C25 JUMPI PUSH1 0x0 DUP1 REVERT JUMPDEST SWAP7 SWAP10 SWAP6 SWAP9 POP SWAP4 SWAP7 SWAP3 SWAP6 SWAP5 PUSH1 0xA0 DUP5 ADD CALLDATALOAD SWAP5 POP PUSH1 0xC0 SWAP1 SWAP4 ADD CALLDATALOAD SWAP3 SWAP2 POP POP JUMP JUMPDEST PUSH1 0x0 DUP1 PUSH1 0x40 DUP4 DUP6 SUB SLT ISZERO PUSH2 0x1C55 JUMPI PUSH1 0x0 DUP1 REVERT JUMPDEST PUSH2 0x1A94 DUP4 PUSH2 0x1A08 JUMP JUMPDEST PUSH1 0x1 DUP2 DUP2 SHR SWAP1 DUP3 AND DUP1 PUSH2 0x1C72 JUMPI PUSH1 0x7F DUP3 AND SWAP2 POP JUMPDEST PUSH1 0x20 DUP3 LT DUP2 SUB PUSH2 0x1C92 JUMPI PUSH4 0x4E487B71 PUSH1 0xE0 SHL PUSH1 0x0 MSTORE PUSH1 0x22 PUSH1 0x4 MSTORE PUSH1 0x24 PUSH1 0x0 REVERT JUMPDEST POP SWAP2 SWAP1 POP JUMP JUMPDEST PUSH1 0x20 DUP1 DUP3 MSTORE PUSH1 0x26 SWAP1 DUP3 ADD MSTORE PUSH32 0x4D4454546F6B656E3A204D696E74696E67207065726D616E656E746C79206669 PUSH1 0x40 DUP3 ADD MSTORE PUSH6 0x1B9A5CDA1959 PUSH1 0xD2 SHL PUSH1 0x60 DUP3 ADD MSTORE PUSH1 0x80 ADD SWAP1 JUMP JUMPDEST PUSH4 0x4E487B71 PUSH1 0xE0 SHL PUSH1 0x0 MSTORE PUSH1 0x21 PUSH1 0x4 MSTORE PUSH1 0x24 PUSH1 0x0 REVERT JUMPDEST PUSH4 0x4E487B71 PUSH1 0xE0 SHL PUSH1 0x0 MSTORE PUSH1 0x11 PUSH1 0x4 MSTORE PUSH1 0x24 PUSH1 0x0 REVERT JUMPDEST DUP1 DUP3 ADD DUP1 DUP3 GT ISZERO PUSH2 0x620 JUMPI PUSH2 0x620 PUSH2 0x1CF4 JUMP JUMPDEST DUP2 DUP2 SUB DUP2 DUP2 GT ISZERO PUSH2 0x620 JUMPI PUSH2 0x620 PUSH2 0x1CF4 JUMP INVALID LOG2 PUSH5 0x6970667358 0x22 SLT KECCAK256 PUSH8 0x49DBD2396E3608AA STOP GT BALANCE PUSH4 0x15017AD6 GASLIMIT 0xEB DIV 0xD8 0xF9 GASPRICE PUSH23 0x631B296E8CCCB3D364736F6C6343000814003300000000 "},"methodIdentifiers":{"DOMAIN_SEPARATOR()":"3644e515","MAX_SUPPLY()":"32cb6b0c","allCategoriesMinted()":"da6ea4d7","allowance(address,address)":"dd62ed3e","approve(address,uint256)":"095ea7b3","balanceOf(address)":"70a08231","burn(uint256)":"42966c68","burnFrom(address,uint256)":"79cc6790","categoryAllocation(uint8)":"503bf615","categoryMinted(uint8)":"0c086039","decimals()":"313ce567","eip712Domain()":"84b0196e","executeTGE(uint8,address)":"2335ba17","finishMinting()":"7d64bcb4","getAllocations()":"65ed6e23","mintCategory(uint8,address,uint256)":"23ecb4f1","mintingFinished()":"05d2035b","name()":"06fdde03","nonces(address)":"7ecebe00","owner()":"8da5cb5b","permit(address,address,uint256,uint256,uint8,bytes32,bytes32)":"d505accf","remainingAllocation(uint8)":"c0f3cb75","renounceOwnership()":"715018a6","symbol()":"95d89b41","tgeTimestamp()":"a4317ef4","totalSupply()":"18160ddd","transfer(address,uint256)":"a9059cbb","transferFrom(address,address,uint256)":"23b872dd","transferOwnership(address)":"f2fde38b"}}}}}