{"src/TrainingEscrow.sol":{"TrainingEscrow":{"abi":[{"inputs":[{"internalType":"address","name":"_mdtToken","type":"address"},{"internalType":"address","name":"_aggregator","type":"address"}],"stateMutability":"nonpayable","type":"constructor"},{"inputs":[],"name":"InsufficientBalance","type":"error"},{"inputs":[],"name":"InsufficientStake","type":"error"},{"inputs":[],"name":"InvalidAggregator","type":"error"},{"inputs":[],"name":"NothingToClaim","type":"error"},{"inputs":[],"name":"OnlyAggregator","type":"error"},{"inputs":[{"internalType":"address","name":"owner","type":"address"}],"name":"OwnableInvalidOwner","type":"error"},{"inputs":[{"internalType":"address","name":"account","type":"address"}],"name":"OwnableUnauthorizedAccount","type":"error"},{"inputs":[],"name":"ReentrancyGuardReentrantCall","type":"error"},{"inputs":[{"internalType":"address","name":"token","type":"address"}],"name":"SafeERC20FailedOperation","type":"error"},{"anonymous":false,"inputs":[{"indexed":true,"internalType":"address","name":"recipient","type":"address"},{"indexed":false,"internalType":"uint256","name":"amount","type":"uint256"}],"name":"InsurancePayout","type":"event"},{"anonymous":false,"inputs":[{"indexed":true,"internalType":"uint256","name":"jobId","type":"uint256"},{"indexed":true,"internalType":"address","name":"funder","type":"address"},{"indexed":false,"internalType":"uint256","name":"amount","type":"uint256"}],"name":"JobFunded","type":"event"},{"anonymous":false,"inputs":[{"indexed":true,"internalType":"address","name":"previousOwner","type":"address"},{"indexed":true,"internalType":"address","name":"newOwner","type":"address"}],"name":"OwnershipTransferred","type":"event"},{"anonymous":false,"inputs":[{"indexed":true,"internalType":"uint256","name":"jobId","type":"uint256"},{"indexed":true,"internalType":"address","name":"trainer","type":"address"},{"indexed":false,"internalType":"uint256","name":"amount","type":"uint256"}],"name":"RewardClaimed","type":"event"},{"anonymous":false,"inputs":[{"indexed":true,"internalType":"address","name":"trainer","type":"address"},{"indexed":false,"internalType":"uint256","name":"amount","type":"uint256"},{"indexed":false,"internalType":"string","name":"reason","type":"string"}],"name":"Slashed","type":"event"},{"anonymous":false,"inputs":[{"indexed":true,"internalType":"address","name":"trainer","type":"address"},{"indexed":false,"internalType":"uint256","name":"amount","type":"uint256"}],"name":"Staked","type":"event"},{"anonymous":false,"inputs":[{"indexed":true,"internalType":"address","name":"trainer","type":"address"},{"indexed":false,"internalType":"uint256","name":"amount","type":"uint256"}],"name":"Unstaked","type":"event"},{"inputs":[{"internalType":"uint256","name":"jobId","type":"uint256"},{"internalType":"address","name":"trainer","type":"address"},{"internalType":"uint256","name":"amount","type":"uint256"}],"name":"distributeReward","outputs":[],"stateMutability":"nonpayable","type":"function"},{"inputs":[{"internalType":"uint256","name":"jobId","type":"uint256"},{"internalType":"uint256","name":"amount","type":"uint256"}],"name":"fundJob","outputs":[],"stateMutability":"nonpayable","type":"function"},{"inputs":[],"name":"getInsuranceFund","outputs":[{"internalType":"uint256","name":"","type":"uint256"}],"stateMutability":"view","type":"function"},{"inputs":[{"internalType":"uint256","name":"jobId","type":"uint256"}],"name":"getJobBudget","outputs":[{"internalType":"uint256","name":"","type":"uint256"}],"stateMutability":"view","type":"function"},{"inputs":[{"internalType":"address","name":"trainer","type":"address"}],"name":"getStake","outputs":[{"internalType":"uint256","name":"","type":"uint256"}],"stateMutability":"view","type":"function"},{"inputs":[],"name":"gradientAggregator","outputs":[{"internalType":"address","name":"","type":"address"}],"stateMutability":"view","type":"function"},{"inputs":[{"internalType":"address","name":"trainer","type":"address"}],"name":"hasMinStake","outputs":[{"internalType":"bool","name":"","type":"bool"}],"stateMutability":"view","type":"function"},{"inputs":[],"name":"insuranceFund","outputs":[{"internalType":"uint256","name":"","type":"uint256"}],"stateMutability":"view","type":"function"},{"inputs":[{"internalType":"uint256","name":"","type":"uint256"}],"name":"jobDeposits","outputs":[{"internalType":"uint256","name":"","type":"uint256"}],"stateMutability":"view","type":"function"},{"inputs":[{"internalType":"uint256","name":"","type":"uint256"}],"name":"jobSpent","outputs":[{"internalType":"uint256","name":"","type":"uint256"}],"stateMutability":"view","type":"function"},{"inputs":[],"name":"mdtToken","outputs":[{"internalType":"contract IERC20","name":"","type":"address"}],"stateMutability":"view","type":"function"},{"inputs":[],"name":"minStake","outputs":[{"internalType":"uint256","name":"","type":"uint256"}],"stateMutability":"view","type":"function"},{"inputs":[],"name":"owner","outputs":[{"internalType":"address","name":"","type":"address"}],"stateMutability":"view","type":"function"},{"inputs":[{"internalType":"address","name":"recipient","type":"address"},{"internalType":"uint256","name":"amount","type":"uint256"}],"name":"payoutInsurance","outputs":[],"stateMutability":"nonpayable","type":"function"},{"inputs":[],"name":"renounceOwnership","outputs":[],"stateMutability":"nonpayable","type":"function"},{"inputs":[{"internalType":"address","name":"_aggregator","type":"address"}],"name":"setAggregator","outputs":[],"stateMutability":"nonpayable","type":"function"},{"inputs":[{"internalType":"uint256","name":"_minStake","type":"uint256"}],"name":"setMinStake","outputs":[],"stateMutability":"nonpayable","type":"function"},{"inputs":[{"internalType":"uint256","name":"_percentage","type":"uint256"}],"name":"setSlashPercentage","outputs":[],"stateMutability":"nonpayable","type":"function"},{"inputs":[],"name":"slashPercentage","outputs":[{"internalType":"uint256","name":"","type":"uint256"}],"stateMutability":"view","type":"function"},{"inputs":[{"internalType":"address","name":"trainer","type":"address"},{"internalType":"string","name":"reason","type":"string"}],"name":"slashTrainer","outputs":[],"stateMutability":"nonpayable","type":"function"},{"inputs":[{"internalType":"uint256","name":"amount","type":"uint256"}],"name":"stake","outputs":[],"stateMutability":"nonpayable","type":"function"},{"inputs":[{"internalType":"address","name":"","type":"address"}],"name":"stakes","outputs":[{"internalType":"uint256","name":"","type":"uint256"}],"stateMutability":"view","type":"function"},{"inputs":[{"internalType":"address","name":"","type":"address"},{"internalType":"uint256","name":"","type":"uint256"}],"name":"trainerClaimedRounds","outputs":[{"internalType":"uint256","name":"","type":"uint256"}],"stateMutability":"view","type":"function"},{"inputs":[{"internalType":"address","name":"newOwner","type":"address"}],"name":"transferOwnership","outputs":[],"stateMutability":"nonpayable","type":"function"},{"inputs":[{"internalType":"uint256","name":"amount","type":"uint256"}],"name":"unstake","outputs":[],"stateMutability":"nonpayable","type":"function"}],"evm":{"bytecode":{"linkReferences":{},"object":"60a03461011f57601f610d7838819003918201601f19168301916001600160401b0383118484101761012457808492604094855283398101031261011f57610052602061004b8361013a565b920161013a565b33156101065760008054336001600160a01b0319808316821784556040519590946001600160a01b03949093859391908416907f8be0079c531659141344cd1fd0a4f28419497f9722a3daafe3b4186f6b6457e09080a36001805568056bc75e2d631000006003556103e86004551660805216906002541617600255610c29908161014f823960805181818161023f015281816102a4015281816103e401528181610550015281816107c801526108b70152f35b604051631e4fbdf760e01b815260006004820152602490fd5b600080fd5b634e487b7160e01b600052604160045260246000fd5b51906001600160a01b038216820361011f5756fe6040608081526004908136101561001557600080fd5b600091823560e01c80630af915ee146108915780630ca0bc4d146108685780630f373afd1461082b578063158626f71461037a57806316934fc41461058a5780632e17de7814610778578063362543a914610751578063375b3c0a14610732578063393ebbf8146106da5780633d52c5da146106465780635bcb28001461061f578063715018a6146105c25780637a7664601461058a5780638bd4522d146104dc5780638c80fd90146104ba5780638da5cb5b14610492578063a577dafd14610451578063a694fc3a146103c0578063b4824fee14610399578063b79023031461037a578063bd58199a1461035d578063f2fde38b146102d7578063f70b5c061461028f578063f8f46457146101935763f9120af61461013457600080fd5b3461018f57602036600319011261018f5761014d610924565b61015561093f565b6001600160a01b03169182156101825750506bffffffffffffffffffffffff60a01b600254161760025580f35b5163029a68ed60e41b8152fd5b8280fd5b50903461018f57606036600319011261018f576001600160a01b0360243581811693803593919085820361028b576044359360025416330361027d576101d7610a67565b8487526007602052836101f6848920546008602052858a205490610a8a565b1061026f575091602091610263827f24b5efa61dd1cfc659205a97fb8ed868f3cb8c81922bab2b96423e5de1de2cb795878a5260088652838a2061023b83825461096b565b90557f0000000000000000000000000000000000000000000000000000000000000000610a97565b51908152a36001805580f35b8251631e9acf1760e31b8152fd5b82516374ec14c960e11b8152fd5b8680fd5b5050346102d357816003193601126102d357517f00000000000000000000000000000000000000000000000000000000000000006001600160a01b03168152602090f35b5080fd5b503461018f57602036600319011261018f576102f1610924565b906102fa61093f565b6001600160a01b0391821692831561034757505082546001600160a01b0319811683178455167f8be0079c531659141344cd1fd0a4f28419497f9722a3daafe3b4186f6b6457e08380a380f35b51631e4fbdf760e01b8152908101849052602490fd5b503461018f578260031936011261018f5760209250549051908152f35b5050346102d357816003193601126102d3576020906006549051908152f35b503461018f57602036600319011261018f5760209282913581526007845220549051908152f35b503461018f57602036600319011261018f5735906103dc610a67565b6104088230337f000000000000000000000000000000000000000000000000000000000000000061098e565b338352600560205280832061041e83825461096b565b9055519081527f9e71bc8eea02a63969f509818f2dafb9254532904319f9dbda79b67bd34a5f3d60203392a26001805580f35b5050346102d357806003193601126102d35760209181906001600160a01b03610478610924565b168152600984528181206024358252845220549051908152f35b5050346102d357816003193601126102d357905490516001600160a01b039091168152602090f35b8382346102d35760203660031901126102d3576104d561093f565b3560035580f35b50903461018f578060031936011261018f576104f6610924565b906024359261050361093f565b61050b610a67565b6006549081851161026f575091602091610546857fbf2a3d4d8ec2feaa45dfd5779abcf977ed3565830ebb07bf7db66074d318252895610a8a565b60065561057485837f0000000000000000000000000000000000000000000000000000000000000000610a97565b519384526001600160a01b031692a26001805580f35b5050346102d35760203660031901126102d35760209181906001600160a01b036105b2610924565b1681526005845220549051908152f35b833461061c578060031936011261061c576105db61093f565b80546001600160a01b03198116825581906001600160a01b03167f8be0079c531659141344cd1fd0a4f28419497f9722a3daafe3b4186f6b6457e08280a380f35b80fd5b503461018f57602036600319011261018f5760209282913581526008845220549051908152f35b509190346102d357806003193601126102d357610661610924565b6024359367ffffffffffffffff928386116106d657366023870112156106d657858201359384116106d65736602485880101116106d6576002546001600160a01b031633036106c957505060246106c293946106bb610a67565b0190610b25565b6001805580f35b516374ec14c960e11b8152fd5b8480fd5b503461018f57602036600319011261018f578035916106f761093f565b611388831161070557505580f35b906020606492519162461bcd60e51b835282015260076024820152664d61782035302560c81b6044820152fd5b5050346102d357816003193601126102d3576020906003549051908152f35b50913461061c57602036600319011261061c575061077160209235610ae7565b9051908152f35b50903461018f57602036600319011261018f57813591610796610a67565b338452600560205282828520541061081d575033835260056020528083206107bf838254610a8a565b90556107ec82337f0000000000000000000000000000000000000000000000000000000000000000610a97565b519081527f0f5bb82176feb1b5e747e28471aa92156a04d9f3ab9f45f28e2d704232b93f7560203392a26001805580f35b9051631e9acf1760e31b8152fd5b5050346102d35760203660031901126102d35760209181906001600160a01b03610853610924565b16815260058452205460035411159051908152f35b5050346102d357816003193601126102d35760025490516001600160a01b039091168152602090f35b503461018f578160031936011261018f5735602435916108af610a67565b6108db8330337f000000000000000000000000000000000000000000000000000000000000000061098e565b81845260076020528084206108f184825461096b565b9055519182527fe3fbcc1ea1bdc559ec7f0347efde7655e58b5f45a30b0e4470a583c3ef5496b360203393a36001805580f35b600435906001600160a01b038216820361093a57565b600080fd5b6000546001600160a01b0316330361095357565b60405163118cdaa760e01b8152336004820152602490fd5b9190820180921161097857565b634e487b7160e01b600052601160045260246000fd5b6040516323b872dd60e01b60208201526001600160a01b03928316602482015292909116604483015260648083019390935291815260a081019181831067ffffffffffffffff8411176109e9576109e7926040526109ff565b565b634e487b7160e01b600052604160045260246000fd5b906000602091828151910182855af115610a5b576000513d610a5257506001600160a01b0381163b155b610a305750565b604051635274afe760e01b81526001600160a01b039091166004820152602490fd5b60011415610a29565b6040513d6000823e3d90fd5b600260015414610a78576002600155565b604051633ee5aeb560e01b8152600490fd5b9190820391821161097857565b60405163a9059cbb60e01b60208201526001600160a01b039092166024830152604480830193909352918152608081019167ffffffffffffffff8311828410176109e9576109e7926040526109ff565b6000526008602052604060002054600760205260406000205480911015610b1f576008602052604060002054610b1c91610a8a565b90565b50600090565b6001600160a01b0316600081815260056020526040812054919390918015610bec5760045480820291820403610bd857916060916127107f7e947095ed288d8885423bdaef4015b7420ffa9b84d62ef67c402e8bc36a8ea995940491868152600560205260408120610b98848254610a8a565b9055610ba68360065461096b565b6006558160405195869485526040602086015281604086015285850137828201840152601f01601f19168101030190a2565b634e487b7160e01b83526011600452602483fd5b505050505056fea2646970667358221220302eb575cf77978840925080f158865527c0b56edd607816a4eae6184b862d0664736f6c63430008140033","opcodes":"PUSH1 0xA0 CALLVALUE PUSH2 0x11F JUMPI PUSH1 0x1F PUSH2 0xD78 CODESIZE DUP2 SWAP1 SUB SWAP2 DUP3 ADD PUSH1 0x1F NOT AND DUP4 ADD SWAP2 PUSH1 0x1 PUSH1 0x1 PUSH1 0x40 SHL SUB DUP4 GT DUP5 DUP5 LT OR PUSH2 0x124 JUMPI DUP1 DUP5 SWAP3 PUSH1 0x40 SWAP5 DUP6 MSTORE DUP4 CODECOPY DUP2 ADD SUB SLT PUSH2 0x11F JUMPI PUSH2 0x52 PUSH1 0x20 PUSH2 0x4B DUP4 PUSH2 0x13A JUMP JUMPDEST SWAP3 ADD PUSH2 0x13A JUMP JUMPDEST CALLER ISZERO PUSH2 0x106 JUMPI PUSH1 0x0 DUP1 SLOAD CALLER PUSH1 0x1 PUSH1 0x1 PUSH1 0xA0 SHL SUB NOT DUP1 DUP4 AND DUP3 OR DUP5 SSTORE PUSH1 0x40 MLOAD SWAP6 SWAP1 SWAP5 PUSH1 0x1 PUSH1 0x1 PUSH1 0xA0 SHL SUB SWAP5 SWAP1 SWAP4 DUP6 SWAP4 SWAP2 SWAP1 DUP5 AND SWAP1 PUSH32 0x8BE0079C531659141344CD1FD0A4F28419497F9722A3DAAFE3B4186F6B6457E0 SWAP1 DUP1 LOG3 PUSH1 0x1 DUP1 SSTORE PUSH9 0x56BC75E2D63100000 PUSH1 0x3 SSTORE PUSH2 0x3E8 PUSH1 0x4 SSTORE AND PUSH1 0x80 MSTORE AND SWAP1 PUSH1 0x2 SLOAD AND OR PUSH1 0x2 SSTORE PUSH2 0xC29 SWAP1 DUP2 PUSH2 0x14F DUP3 CODECOPY PUSH1 0x80 MLOAD DUP2 DUP2 DUP2 PUSH2 0x23F ADD MSTORE DUP2 DUP2 PUSH2 0x2A4 ADD MSTORE DUP2 DUP2 PUSH2 0x3E4 ADD MSTORE DUP2 DUP2 PUSH2 0x550 ADD MSTORE DUP2 DUP2 PUSH2 0x7C8 ADD MSTORE PUSH2 0x8B7 ADD MSTORE RETURN JUMPDEST PUSH1 0x40 MLOAD PUSH4 0x1E4FBDF7 PUSH1 0xE0 SHL DUP2 MSTORE PUSH1 0x0 PUSH1 0x4 DUP3 ADD MSTORE PUSH1 0x24 SWAP1 REVERT JUMPDEST PUSH1 0x0 DUP1 REVERT JUMPDEST PUSH4 0x4E487B71 PUSH1 0xE0 SHL PUSH1 0x0 MSTORE PUSH1 0x41 PUSH1 0x4 MSTORE PUSH1 0x24 PUSH1 0x0 REVERT JUMPDEST MLOAD SWAP1 PUSH1 0x1 PUSH1 0x1 PUSH1 0xA0 SHL SUB DUP3 AND DUP3 SUB PUSH2 0x11F JUMPI JUMP INVALID PUSH1 0x40 PUSH1 0x80 DUP2 MSTORE PUSH1 0x4 SWAP1 DUP2 CALLDATASIZE LT ISZERO PUSH2 0x15 JUMPI PUSH1 0x0 DUP1 REVERT JUMPDEST PUSH1 0x0 SWAP2 DUP3 CALLDATALOAD PUSH1 0xE0 SHR DUP1 PUSH4 0xAF915EE EQ PUSH2 0x891 JUMPI DUP1 PUSH4 0xCA0BC4D EQ PUSH2 0x868 JUMPI DUP1 PUSH4 0xF373AFD EQ PUSH2 0x82B JUMPI DUP1 PUSH4 0x158626F7 EQ PUSH2 0x37A JUMPI DUP1 PUSH4 0x16934FC4 EQ PUSH2 0x58A JUMPI DUP1 PUSH4 0x2E17DE78 EQ PUSH2 0x778 JUMPI DUP1 PUSH4 0x362543A9 EQ PUSH2 0x751 JUMPI DUP1 PUSH4 0x375B3C0A EQ PUSH2 0x732 JUMPI DUP1 PUSH4 0x393EBBF8 EQ PUSH2 0x6DA JUMPI DUP1 PUSH4 0x3D52C5DA EQ PUSH2 0x646 JUMPI DUP1 PUSH4 0x5BCB2800 EQ PUSH2 0x61F JUMPI DUP1 PUSH4 0x715018A6 EQ PUSH2 0x5C2 JUMPI DUP1 PUSH4 0x7A766460 EQ PUSH2 0x58A JUMPI DUP1 PUSH4 0x8BD4522D EQ PUSH2 0x4DC JUMPI DUP1 PUSH4 0x8C80FD90 EQ PUSH2 0x4BA JUMPI DUP1 PUSH4 0x8DA5CB5B EQ PUSH2 0x492 JUMPI DUP1 PUSH4 0xA577DAFD EQ PUSH2 0x451 JUMPI DUP1 PUSH4 0xA694FC3A EQ PUSH2 0x3C0 JUMPI DUP1 PUSH4 0xB4824FEE EQ PUSH2 0x399 JUMPI DUP1 PUSH4 0xB7902303 EQ PUSH2 0x37A JUMPI DUP1 PUSH4 0xBD58199A EQ PUSH2 0x35D JUMPI DUP1 PUSH4 0xF2FDE38B EQ PUSH2 0x2D7 JUMPI DUP1 PUSH4 0xF70B5C06 EQ PUSH2 0x28F JUMPI DUP1 PUSH4 0xF8F46457 EQ PUSH2 0x193 JUMPI PUSH4 0xF9120AF6 EQ PUSH2 0x134 JUMPI PUSH1 0x0 DUP1 REVERT JUMPDEST CALLVALUE PUSH2 0x18F JUMPI PUSH1 0x20 CALLDATASIZE PUSH1 0x3 NOT ADD SLT PUSH2 0x18F JUMPI PUSH2 0x14D PUSH2 0x924 JUMP JUMPDEST PUSH2 0x155 PUSH2 0x93F JUMP JUMPDEST PUSH1 0x1 PUSH1 0x1 PUSH1 0xA0 SHL SUB AND SWAP2 DUP3 ISZERO PUSH2 0x182 JUMPI POP POP PUSH12 0xFFFFFFFFFFFFFFFFFFFFFFFF PUSH1 0xA0 SHL PUSH1 0x2 SLOAD AND OR PUSH1 0x2 SSTORE DUP1 RETURN JUMPDEST MLOAD PUSH4 0x29A68ED PUSH1 0xE4 SHL DUP2 MSTORE REVERT JUMPDEST DUP3 DUP1 REVERT JUMPDEST POP SWAP1 CALLVALUE PUSH2 0x18F JUMPI PUSH1 0x60 CALLDATASIZE PUSH1 0x3 NOT ADD SLT PUSH2 0x18F JUMPI PUSH1 0x1 PUSH1 0x1 PUSH1 0xA0 SHL SUB PUSH1 0x24 CALLDATALOAD DUP2 DUP2 AND SWAP4 DUP1 CALLDATALOAD SWAP4 SWAP2 SWAP1 DUP6 DUP3 SUB PUSH2 0x28B JUMPI PUSH1 0x44 CALLDATALOAD SWAP4 PUSH1 0x2 SLOAD AND CALLER SUB PUSH2 0x27D JUMPI PUSH2 0x1D7 PUSH2 0xA67 JUMP JUMPDEST DUP5 DUP8 MSTORE PUSH1 0x7 PUSH1 0x20 MSTORE DUP4 PUSH2 0x1F6 DUP5 DUP10 KECCAK256 SLOAD PUSH1 0x8 PUSH1 0x20 MSTORE DUP6 DUP11 KECCAK256 SLOAD SWAP1 PUSH2 0xA8A JUMP JUMPDEST LT PUSH2 0x26F JUMPI POP SWAP2 PUSH1 0x20 SWAP2 PUSH2 0x263 DUP3 PUSH32 0x24B5EFA61DD1CFC659205A97FB8ED868F3CB8C81922BAB2B96423E5DE1DE2CB7 SWAP6 DUP8 DUP11 MSTORE PUSH1 0x8 DUP7 MSTORE DUP4 DUP11 KECCAK256 PUSH2 0x23B DUP4 DUP3 SLOAD PUSH2 0x96B JUMP JUMPDEST SWAP1 SSTORE PUSH32 0x0 PUSH2 0xA97 JUMP JUMPDEST MLOAD SWAP1 DUP2 MSTORE LOG3 PUSH1 0x1 DUP1 SSTORE DUP1 RETURN JUMPDEST DUP3 MLOAD PUSH4 0x1E9ACF17 PUSH1 0xE3 SHL DUP2 MSTORE REVERT JUMPDEST DUP3 MLOAD PUSH4 0x74EC14C9 PUSH1 0xE1 SHL DUP2 MSTORE REVERT JUMPDEST DUP7 DUP1 REVERT JUMPDEST POP POP CALLVALUE PUSH2 0x2D3 JUMPI DUP2 PUSH1 0x3 NOT CALLDATASIZE ADD SLT PUSH2 0x2D3 JUMPI MLOAD PUSH32 0x0 PUSH1 0x1 PUSH1 0x1 PUSH1 0xA0 SHL SUB AND DUP2 MSTORE PUSH1 0x20 SWAP1 RETURN JUMPDEST POP DUP1 REVERT JUMPDEST POP CALLVALUE PUSH2 0x18F JUMPI PUSH1 0x20 CALLDATASIZE PUSH1 0x3 NOT ADD SLT PUSH2 0x18F JUMPI PUSH2 0x2F1 PUSH2 0x924 JUMP JUMPDEST SWAP1 PUSH2 0x2FA PUSH2 0x93F JUMP JUMPDEST PUSH1 0x1 PUSH1 0x1 PUSH1 0xA0 SHL SUB SWAP2 DUP3 AND SWAP3 DUP4 ISZERO PUSH2 0x347 JUMPI POP POP DUP3 SLOAD PUSH1 0x1 PUSH1 0x1 PUSH1 0xA0 SHL SUB NOT DUP2 AND DUP4 OR DUP5 SSTORE AND PUSH32 0x8BE0079C531659141344CD1FD0A4F28419497F9722A3DAAFE3B4186F6B6457E0 DUP4 DUP1 LOG3 DUP1 RETURN JUMPDEST MLOAD PUSH4 0x1E4FBDF7 PUSH1 0xE0 SHL DUP2 MSTORE SWAP1 DUP2 ADD DUP5 SWAP1 MSTORE PUSH1 0x24 SWAP1 REVERT JUMPDEST POP CALLVALUE PUSH2 0x18F JUMPI DUP3 PUSH1 0x3 NOT CALLDATASIZE ADD SLT PUSH2 0x18F JUMPI PUSH1 0x20 SWAP3 POP SLOAD SWAP1 MLOAD SWAP1 DUP2 MSTORE RETURN JUMPDEST POP POP CALLVALUE PUSH2 0x2D3 JUMPI DUP2 PUSH1 0x3 NOT CALLDATASIZE ADD SLT PUSH2 0x2D3 JUMPI PUSH1 0x20 SWAP1 PUSH1 0x6 SLOAD SWAP1 MLOAD SWAP1 DUP2 MSTORE RETURN JUMPDEST POP CALLVALUE PUSH2 0x18F JUMPI PUSH1 0x20 CALLDATASIZE PUSH1 0x3 NOT ADD SLT PUSH2 0x18F JUMPI PUSH1 0x20 SWAP3 DUP3 SWAP2 CALLDATALOAD DUP2 MSTORE PUSH1 0x7 DUP5 MSTORE KECCAK256 SLOAD SWAP1 MLOAD SWAP1 DUP2 MSTORE RETURN JUMPDEST POP CALLVALUE PUSH2 0x18F JUMPI PUSH1 0x20 CALLDATASIZE PUSH1 0x3 NOT ADD SLT PUSH2 0x18F JUMPI CALLDATALOAD SWAP1 PUSH2 0x3DC PUSH2 0xA67 JUMP JUMPDEST PUSH2 0x408 DUP3 ADDRESS CALLER PUSH32 0x0 PUSH2 0x98E JUMP JUMPDEST CALLER DUP4 MSTORE PUSH1 0x5 PUSH1 0x20 MSTORE DUP1 DUP4 KECCAK256 PUSH2 0x41E DUP4 DUP3 SLOAD PUSH2 0x96B JUMP JUMPDEST SWAP1 SSTORE MLOAD SWAP1 DUP2 MSTORE PUSH32 0x9E71BC8EEA02A63969F509818F2DAFB9254532904319F9DBDA79B67BD34A5F3D PUSH1 0x20 CALLER SWAP3 LOG2 PUSH1 0x1 DUP1 SSTORE DUP1 RETURN JUMPDEST POP POP CALLVALUE PUSH2 0x2D3 JUMPI DUP1 PUSH1 0x3 NOT CALLDATASIZE ADD SLT PUSH2 0x2D3 JUMPI PUSH1 0x20 SWAP2 DUP2 SWAP1 PUSH1 0x1 PUSH1 0x1 PUSH1 0xA0 SHL SUB PUSH2 0x478 PUSH2 0x924 JUMP JUMPDEST AND DUP2 MSTORE PUSH1 0x9 DUP5 MSTORE DUP2 DUP2 KECCAK256 PUSH1 0x24 CALLDATALOAD DUP3 MSTORE DUP5 MSTORE KECCAK256 SLOAD SWAP1 MLOAD SWAP1 DUP2 MSTORE RETURN JUMPDEST POP POP CALLVALUE PUSH2 0x2D3 JUMPI DUP2 PUSH1 0x3 NOT CALLDATASIZE ADD SLT PUSH2 0x2D3 JUMPI SWAP1 SLOAD SWAP1 MLOAD PUSH1 0x1 PUSH1 0x1 PUSH1 0xA0 SHL SUB SWAP1 SWAP2 AND DUP2 MSTORE PUSH1 0x20 SWAP1 RETURN JUMPDEST DUP4 DUP3 CALLVALUE PUSH2 0x2D3 JUMPI PUSH1 0x20 CALLDATASIZE PUSH1 0x3 NOT ADD SLT PUSH2 0x2D3 JUMPI PUSH2 0x4D5 PUSH2 0x93F JUMP JUMPDEST CALLDATALOAD PUSH1 0x3 SSTORE DUP1 RETURN JUMPDEST POP SWAP1 CALLVALUE PUSH2 0x18F JUMPI DUP1 PUSH1 0x3 NOT CALLDATASIZE ADD SLT PUSH2 0x18F JUMPI PUSH2 0x4F6 PUSH2 0x924 JUMP JUMPDEST SWAP1 PUSH1 0x24 CALLDATALOAD SWAP3 PUSH2 0x503 PUSH2 0x93F JUMP JUMPDEST PUSH2 0x50B PUSH2 0xA67 JUMP JUMPDEST PUSH1 0x6 SLOAD SWAP1 DUP2 DUP6 GT PUSH2 0x26F JUMPI POP SWAP2 PUSH1 0x20 SWAP2 PUSH2 0x546 DUP6 PUSH32 0xBF2A3D4D8EC2FEAA45DFD5779ABCF977ED3565830EBB07BF7DB66074D3182528 SWAP6 PUSH2 0xA8A JUMP JUMPDEST PUSH1 0x6 SSTORE PUSH2 0x574 DUP6 DUP4 PUSH32 0x0 PUSH2 0xA97 JUMP JUMPDEST MLOAD SWAP4 DUP5 MSTORE PUSH1 0x1 PUSH1 0x1 PUSH1 0xA0 SHL SUB AND SWAP3 LOG2 PUSH1 0x1 DUP1 SSTORE DUP1 RETURN JUMPDEST POP POP CALLVALUE PUSH2 0x2D3 JUMPI PUSH1 0x20 CALLDATASIZE PUSH1 0x3 NOT ADD SLT PUSH2 0x2D3 JUMPI PUSH1 0x20 SWAP2 DUP2 SWAP1 PUSH1 0x1 PUSH1 0x1 PUSH1 0xA0 SHL SUB PUSH2 0x5B2 PUSH2 0x924 JUMP JUMPDEST AND DUP2 MSTORE PUSH1 0x5 DUP5 MSTORE KECCAK256 SLOAD SWAP1 MLOAD SWAP1 DUP2 MSTORE RETURN JUMPDEST DUP4 CALLVALUE PUSH2 0x61C JUMPI DUP1 PUSH1 0x3 NOT CALLDATASIZE ADD SLT PUSH2 0x61C JUMPI PUSH2 0x5DB PUSH2 0x93F JUMP JUMPDEST DUP1 SLOAD PUSH1 0x1 PUSH1 0x1 PUSH1 0xA0 SHL SUB NOT DUP2 AND DUP3 SSTORE DUP2 SWAP1 PUSH1 0x1 PUSH1 0x1 PUSH1 0xA0 SHL SUB AND PUSH32 0x8BE0079C531659141344CD1FD0A4F28419497F9722A3DAAFE3B4186F6B6457E0 DUP3 DUP1 LOG3 DUP1 RETURN JUMPDEST DUP1 REVERT JUMPDEST POP CALLVALUE PUSH2 0x18F JUMPI PUSH1 0x20 CALLDATASIZE PUSH1 0x3 NOT ADD SLT PUSH2 0x18F JUMPI PUSH1 0x20 SWAP3 DUP3 SWAP2 CALLDATALOAD DUP2 MSTORE PUSH1 0x8 DUP5 MSTORE KECCAK256 SLOAD SWAP1 MLOAD SWAP1 DUP2 MSTORE RETURN JUMPDEST POP SWAP2 SWAP1 CALLVALUE PUSH2 0x2D3 JUMPI DUP1 PUSH1 0x3 NOT CALLDATASIZE ADD SLT PUSH2 0x2D3 JUMPI PUSH2 0x661 PUSH2 0x924 JUMP JUMPDEST PUSH1 0x24 CALLDATALOAD SWAP4 PUSH8 0xFFFFFFFFFFFFFFFF SWAP3 DUP4 DUP7 GT PUSH2 0x6D6 JUMPI CALLDATASIZE PUSH1 0x23 DUP8 ADD SLT ISZERO PUSH2 0x6D6 JUMPI DUP6 DUP3 ADD CALLDATALOAD SWAP4 DUP5 GT PUSH2 0x6D6 JUMPI CALLDATASIZE PUSH1 0x24 DUP6 DUP9 ADD ADD GT PUSH2 0x6D6 JUMPI PUSH1 0x2 SLOAD PUSH1 0x1 PUSH1 0x1 PUSH1 0xA0 SHL SUB AND CALLER SUB PUSH2 0x6C9 JUMPI POP POP PUSH1 0x24 PUSH2 0x6C2 SWAP4 SWAP5 PUSH2 0x6BB PUSH2 0xA67 JUMP JUMPDEST ADD SWAP1 PUSH2 0xB25 JUMP JUMPDEST PUSH1 0x1 DUP1 SSTORE DUP1 RETURN JUMPDEST MLOAD PUSH4 0x74EC14C9 PUSH1 0xE1 SHL DUP2 MSTORE REVERT JUMPDEST DUP5 DUP1 REVERT JUMPDEST POP CALLVALUE PUSH2 0x18F JUMPI PUSH1 0x20 CALLDATASIZE PUSH1 0x3 NOT ADD SLT PUSH2 0x18F JUMPI DUP1 CALLDATALOAD SWAP2 PUSH2 0x6F7 PUSH2 0x93F JUMP JUMPDEST PUSH2 0x1388 DUP4 GT PUSH2 0x705 JUMPI POP SSTORE DUP1 RETURN JUMPDEST SWAP1 PUSH1 0x20 PUSH1 0x64 SWAP3 MLOAD SWAP2 PUSH3 0x461BCD PUSH1 0xE5 SHL DUP4 MSTORE DUP3 ADD MSTORE PUSH1 0x7 PUSH1 0x24 DUP3 ADD MSTORE PUSH7 0x4D617820353025 PUSH1 0xC8 SHL PUSH1 0x44 DUP3 ADD MSTORE REVERT JUMPDEST POP POP CALLVALUE PUSH2 0x2D3 JUMPI DUP2 PUSH1 0x3 NOT CALLDATASIZE ADD SLT PUSH2 0x2D3 JUMPI PUSH1 0x20 SWAP1 PUSH1 0x3 SLOAD SWAP1 MLOAD SWAP1 DUP2 MSTORE RETURN JUMPDEST POP SWAP2 CALLVALUE PUSH2 0x61C JUMPI PUSH1 0x20 CALLDATASIZE PUSH1 0x3 NOT ADD SLT PUSH2 0x61C JUMPI POP PUSH2 0x771 PUSH1 0x20 SWAP3 CALLDATALOAD PUSH2 0xAE7 JUMP JUMPDEST SWAP1 MLOAD SWAP1 DUP2 MSTORE RETURN JUMPDEST POP SWAP1 CALLVALUE PUSH2 0x18F JUMPI PUSH1 0x20 CALLDATASIZE PUSH1 0x3 NOT ADD SLT PUSH2 0x18F JUMPI DUP2 CALLDATALOAD SWAP2 PUSH2 0x796 PUSH2 0xA67 JUMP JUMPDEST CALLER DUP5 MSTORE PUSH1 0x5 PUSH1 0x20 MSTORE DUP3 DUP3 DUP6 KECCAK256 SLOAD LT PUSH2 0x81D JUMPI POP CALLER DUP4 MSTORE PUSH1 0x5 PUSH1 0x20 MSTORE DUP1 DUP4 KECCAK256 PUSH2 0x7BF DUP4 DUP3 SLOAD PUSH2 0xA8A JUMP JUMPDEST SWAP1 SSTORE PUSH2 0x7EC DUP3 CALLER PUSH32 0x0 PUSH2 0xA97 JUMP JUMPDEST MLOAD SWAP1 DUP2 MSTORE PUSH32 0xF5BB82176FEB1B5E747E28471AA92156A04D9F3AB9F45F28E2D704232B93F75 PUSH1 0x20 CALLER SWAP3 LOG2 PUSH1 0x1 DUP1 SSTORE DUP1 RETURN JUMPDEST SWAP1 MLOAD PUSH4 0x1E9ACF17 PUSH1 0xE3 SHL DUP2 MSTORE REVERT JUMPDEST POP POP CALLVALUE PUSH2 0x2D3 JUMPI PUSH1 0x20 CALLDATASIZE PUSH1 0x3 NOT ADD SLT PUSH2 0x2D3 JUMPI PUSH1 0x20 SWAP2 DUP2 SWAP1 PUSH1 0x1 PUSH1 0x1 PUSH1 0xA0 SHL SUB PUSH2 0x853 PUSH2 0x924 JUMP JUMPDEST AND DUP2 MSTORE PUSH1 0x5 DUP5 MSTORE KECCAK256 SLOAD PUSH1 0x3 SLOAD GT ISZERO SWAP1 MLOAD SWAP1 DUP2 MSTORE RETURN JUMPDEST POP POP CALLVALUE PUSH2 0x2D3 JUMPI DUP2 PUSH1 0x3 NOT CALLDATASIZE ADD SLT PUSH2 0x2D3 JUMPI PUSH1 0x2 SLOAD SWAP1 MLOAD PUSH1 0x1 PUSH1 0x1 PUSH1 0xA0 SHL SUB SWAP1 SWAP2 AND DUP2 MSTORE PUSH1 0x20 SWAP1 RETURN JUMPDEST POP CALLVALUE PUSH2 0x18F JUMPI DUP2 PUSH1 0x3 NOT CALLDATASIZE ADD SLT PUSH2 0x18F JUMPI CALLDATALOAD PUSH1 0x24 CALLDATALOAD SWAP2 PUSH2 0x8AF PUSH2 0xA67 JUMP JUMPDEST PUSH2 0x8DB DUP4 ADDRESS CALLER PUSH32 0x0 PUSH2 0x98E JUMP JUMPDEST DUP2 DUP5 MSTORE PUSH1 0x7 PUSH1 0x20 MSTORE DUP1 DUP5 KECCAK256 PUSH2 0x8F1 DUP5 DUP3 SLOAD PUSH2 0x96B JUMP JUMPDEST SWAP1 SSTORE MLOAD SWAP2 DUP3 MSTORE PUSH32 0xE3FBCC1EA1BDC559EC7F0347EFDE7655E58B5F45A30B0E4470A583C3EF5496B3 PUSH1 0x20 CALLER SWAP4 LOG3 PUSH1 0x1 DUP1 SSTORE DUP1 RETURN JUMPDEST PUSH1 0x4 CALLDATALOAD SWAP1 PUSH1 0x1 PUSH1 0x1 PUSH1 0xA0 SHL SUB DUP3 AND DUP3 SUB PUSH2 0x93A JUMPI JUMP JUMPDEST PUSH1 0x0 DUP1 REVERT JUMPDEST PUSH1 0x0 SLOAD PUSH1 0x1 PUSH1 0x1 PUSH1 0xA0 SHL SUB AND CALLER SUB PUSH2 0x953 JUMPI JUMP JUMPDEST PUSH1 0x40 MLOAD PUSH4 0x118CDAA7 PUSH1 0xE0 SHL DUP2 MSTORE CALLER PUSH1 0x4 DUP3 ADD MSTORE PUSH1 0x24 SWAP1 REVERT JUMPDEST SWAP2 SWAP1 DUP3 ADD DUP1 SWAP3 GT PUSH2 0x978 JUMPI JUMP JUMPDEST PUSH4 0x4E487B71 PUSH1 0xE0 SHL PUSH1 0x0 MSTORE PUSH1 0x11 PUSH1 0x4 MSTORE PUSH1 0x24 PUSH1 0x0 REVERT JUMPDEST PUSH1 0x40 MLOAD PUSH4 0x23B872DD PUSH1 0xE0 SHL PUSH1 0x20 DUP3 ADD MSTORE PUSH1 0x1 PUSH1 0x1 PUSH1 0xA0 SHL SUB SWAP3 DUP4 AND PUSH1 0x24 DUP3 ADD MSTORE SWAP3 SWAP1 SWAP2 AND PUSH1 0x44 DUP4 ADD MSTORE PUSH1 0x64 DUP1 DUP4 ADD SWAP4 SWAP1 SWAP4 MSTORE SWAP2 DUP2 MSTORE PUSH1 0xA0 DUP2 ADD SWAP2 DUP2 DUP4 LT PUSH8 0xFFFFFFFFFFFFFFFF DUP5 GT OR PUSH2 0x9E9 JUMPI PUSH2 0x9E7 SWAP3 PUSH1 0x40 MSTORE PUSH2 0x9FF JUMP JUMPDEST JUMP JUMPDEST PUSH4 0x4E487B71 PUSH1 0xE0 SHL PUSH1 0x0 MSTORE PUSH1 0x41 PUSH1 0x4 MSTORE PUSH1 0x24 PUSH1 0x0 REVERT JUMPDEST SWAP1 PUSH1 0x0 PUSH1 0x20 SWAP2 DUP3 DUP2 MLOAD SWAP2 ADD DUP3 DUP6 GAS CALL ISZERO PUSH2 0xA5B JUMPI PUSH1 0x0 MLOAD RETURNDATASIZE PUSH2 0xA52 JUMPI POP PUSH1 0x1 PUSH1 0x1 PUSH1 0xA0 SHL SUB DUP2 AND EXTCODESIZE ISZERO JUMPDEST PUSH2 0xA30 JUMPI POP JUMP JUMPDEST PUSH1 0x40 MLOAD PUSH4 0x5274AFE7 PUSH1 0xE0 SHL DUP2 MSTORE PUSH1 0x1 PUSH1 0x1 PUSH1 0xA0 SHL SUB SWAP1 SWAP2 AND PUSH1 0x4 DUP3 ADD MSTORE PUSH1 0x24 SWAP1 REVERT JUMPDEST PUSH1 0x1 EQ ISZERO PUSH2 0xA29 JUMP JUMPDEST PUSH1 0x40 MLOAD RETURNDATASIZE PUSH1 0x0 DUP3 RETURNDATACOPY RETURNDATASIZE SWAP1 REVERT JUMPDEST PUSH1 0x2 PUSH1 0x1 SLOAD EQ PUSH2 0xA78 JUMPI PUSH1 0x2 PUSH1 0x1 SSTORE JUMP JUMPDEST PUSH1 0x40 MLOAD PUSH4 0x3EE5AEB5 PUSH1 0xE0 SHL DUP2 MSTORE PUSH1 0x4 SWAP1 REVERT JUMPDEST SWAP2 SWAP1 DUP3 SUB SWAP2 DUP3 GT PUSH2 0x978 JUMPI JUMP JUMPDEST PUSH1 0x40 MLOAD PUSH4 0xA9059CBB PUSH1 0xE0 SHL PUSH1 0x20 DUP3 ADD MSTORE PUSH1 0x1 PUSH1 0x1 PUSH1 0xA0 SHL SUB SWAP1 SWAP3 AND PUSH1 0x24 DUP4 ADD MSTORE PUSH1 0x44 DUP1 DUP4 ADD SWAP4 SWAP1 SWAP4 MSTORE SWAP2 DUP2 MSTORE PUSH1 0x80 DUP2 ADD SWAP2 PUSH8 0xFFFFFFFFFFFFFFFF DUP4 GT DUP3 DUP5 LT OR PUSH2 0x9E9 JUMPI PUSH2 0x9E7 SWAP3 PUSH1 0x40 MSTORE PUSH2 0x9FF JUMP JUMPDEST PUSH1 0x0 MSTORE PUSH1 0x8 PUSH1 0x20 MSTORE PUSH1 0x40 PUSH1 0x0 KECCAK256 SLOAD PUSH1 0x7 PUSH1 0x20 MSTORE PUSH1 0x40 PUSH1 0x0 KECCAK256 SLOAD DUP1 SWAP2 LT ISZERO PUSH2 0xB1F JUMPI PUSH1 0x8 PUSH1 0x20 MSTORE PUSH1 0x40 PUSH1 0x0 KECCAK256 SLOAD PUSH2 0xB1C SWAP2 PUSH2 0xA8A JUMP JUMPDEST SWAP1 JUMP JUMPDEST POP PUSH1 0x0 SWAP1 JUMP JUMPDEST PUSH1 0x1 PUSH1 0x1 PUSH1 0xA0 SHL SUB AND PUSH1 0x0 DUP2 DUP2 MSTORE PUSH1 0x5 PUSH1 0x20 MSTORE PUSH1 0x40 DUP2 KECCAK256 SLOAD SWAP2 SWAP4 SWAP1 SWAP2 DUP1 ISZERO PUSH2 0xBEC JUMPI PUSH1 0x4 SLOAD DUP1 DUP3 MUL SWAP2 DUP3 DIV SUB PUSH2 0xBD8 JUMPI SWAP2 PUSH1 0x60 SWAP2 PUSH2 0x2710 PUSH32 0x7E947095ED288D8885423BDAEF4015B7420FFA9B84D62EF67C402E8BC36A8EA9 SWAP6 SWAP5 DIV SWAP2 DUP7 DUP2 MSTORE PUSH1 0x5 PUSH1 0x20 MSTORE PUSH1 0x40 DUP2 KECCAK256 PUSH2 0xB98 DUP5 DUP3 SLOAD PUSH2 0xA8A JUMP JUMPDEST SWAP1 SSTORE PUSH2 0xBA6 DUP4 PUSH1 0x6 SLOAD PUSH2 0x96B JUMP JUMPDEST PUSH1 0x6 SSTORE DUP2 PUSH1 0x40 MLOAD SWAP6 DUP7 SWAP5 DUP6 MSTORE PUSH1 0x40 PUSH1 0x20 DUP7 ADD MSTORE DUP2 PUSH1 0x40 DUP7 ADD MSTORE DUP6 DUP6 ADD CALLDATACOPY DUP3 DUP3 ADD DUP5 ADD MSTORE PUSH1 0x1F ADD PUSH1 0x1F NOT AND DUP2 ADD SUB ADD SWAP1 LOG2 JUMP JUMPDEST PUSH4 0x4E487B71 PUSH1 0xE0 SHL DUP4 MSTORE PUSH1 0x11 PUSH1 0x4 MSTORE PUSH1 0x24 DUP4 REVERT JUMPDEST POP POP POP POP POP JUMP INVALID LOG2 PUSH5 0x6970667358 0x22 SLT KECCAK256 ADDRESS 0x2E 0xB5 PUSH22 0xCF77978840925080F158865527C0B56EDD607816A4EA 0xE6 XOR 0x4B DUP7 0x2D MOD PUSH5 0x736F6C6343 STOP ADDMOD EQ STOP CALLER "},"methodIdentifiers":{"distributeReward(uint256,address,uint256)":"f8f46457","fundJob(uint256,uint256)":"0af915ee","getInsuranceFund()":"158626f7","getJobBudget(uint256)":"362543a9","getStake(address)":"7a766460","gradientAggregator()":"0ca0bc4d","hasMinStake(address)":"0f373afd","insuranceFund()":"b7902303","jobDeposits(uint256)":"b4824fee","jobSpent(uint256)":"5bcb2800","mdtToken()":"f70b5c06","minStake()":"375b3c0a","owner()":"8da5cb5b","payoutInsurance(address,uint256)":"8bd4522d","renounceOwnership()":"715018a6","setAggregator(address)":"f9120af6","setMinStake(uint256)":"8c80fd90","setSlashPercentage(uint256)":"393ebbf8","slashPercentage()":"bd58199a","slashTrainer(address,string)":"3d52c5da","stake(uint256)":"a694fc3a","stakes(address)":"16934fc4","trainerClaimedRounds(address,uint256)":"a577dafd","transferOwnership(address)":"f2fde38b","unstake(uint256)":"2e17de78"}}}}}