{"src/examples/SemanticMatchmaker.sol":{"SemanticMatchmaker":{"abi":[{"inputs":[{"internalType":"uint256","name":"dimension_","type":"uint256"}],"stateMutability":"nonpayable","type":"constructor"},{"inputs":[{"internalType":"address","name":"player","type":"address"}],"name":"AlreadyInQueue","type":"error"},{"inputs":[],"name":"InsufficientGas","type":"error"},{"inputs":[{"internalType":"uint256","name":"min","type":"uint256"},{"internalType":"uint256","name":"max","type":"uint256"}],"name":"InvalidPlayerCount","type":"error"},{"inputs":[{"internalType":"uint256","name":"matchId","type":"uint256"}],"name":"MatchNotFound","type":"error"},{"inputs":[],"name":"NoSuitableMatch","type":"error"},{"inputs":[{"internalType":"address","name":"owner","type":"address"}],"name":"OwnableInvalidOwner","type":"error"},{"inputs":[{"internalType":"address","name":"account","type":"address"}],"name":"OwnableUnauthorizedAccount","type":"error"},{"inputs":[{"internalType":"address","name":"precompile","type":"address"}],"name":"PrecompileCallFailed","type":"error"},{"inputs":[{"internalType":"uint256","name":"unlocksAt","type":"uint256"}],"name":"ProfileCooldown","type":"error"},{"inputs":[{"internalType":"address","name":"player","type":"address"}],"name":"ProfileNotFound","type":"error"},{"inputs":[],"name":"ReentrancyGuardReentrantCall","type":"error"},{"anonymous":false,"inputs":[{"indexed":true,"internalType":"uint256","name":"matchId","type":"uint256"},{"indexed":false,"internalType":"address","name":"winner","type":"address"}],"name":"MatchCompleted","type":"event"},{"anonymous":false,"inputs":[{"indexed":true,"internalType":"uint256","name":"matchId","type":"uint256"},{"indexed":false,"internalType":"address[]","name":"players","type":"address[]"},{"indexed":false,"internalType":"uint256","name":"averageRating","type":"uint256"}],"name":"MatchCreated","type":"event"},{"anonymous":false,"inputs":[{"indexed":true,"internalType":"address","name":"player","type":"address"},{"indexed":false,"internalType":"uint256","name":"queuePosition","type":"uint256"}],"name":"MatchRequested","type":"event"},{"anonymous":false,"inputs":[{"indexed":true,"internalType":"address","name":"previousOwner","type":"address"},{"indexed":true,"internalType":"address","name":"newOwner","type":"address"}],"name":"OwnershipTransferred","type":"event"},{"anonymous":false,"inputs":[{"indexed":true,"internalType":"address","name":"player","type":"address"},{"indexed":false,"internalType":"uint64","name":"vectorId","type":"uint64"},{"indexed":false,"internalType":"uint256","name":"initialRating","type":"uint256"}],"name":"ProfileRegistered","type":"event"},{"anonymous":false,"inputs":[{"indexed":true,"internalType":"address","name":"player","type":"address"},{"indexed":false,"internalType":"uint64","name":"newVectorId","type":"uint64"}],"name":"ProfileUpdated","type":"event"},{"inputs":[],"name":"MAX_PLAYERS_PER_MATCH","outputs":[{"internalType":"uint256","name":"","type":"uint256"}],"stateMutability":"view","type":"function"},{"inputs":[],"name":"MAX_SIMILARITY","outputs":[{"internalType":"uint256","name":"","type":"uint256"}],"stateMutability":"view","type":"function"},{"inputs":[],"name":"MIN_SIMILARITY","outputs":[{"internalType":"uint256","name":"","type":"uint256"}],"stateMutability":"view","type":"function"},{"inputs":[],"name":"PROFILE_COOLDOWN","outputs":[{"internalType":"uint256","name":"","type":"uint256"}],"stateMutability":"view","type":"function"},{"inputs":[{"internalType":"address","name":"player","type":"address"}],"name":"classifyTier","outputs":[{"internalType":"uint32","name":"tier","type":"uint32"},{"internalType":"uint256","name":"confidence","type":"uint256"}],"stateMutability":"view","type":"function"},{"inputs":[],"name":"embeddingDimension","outputs":[{"internalType":"uint256","name":"","type":"uint256"}],"stateMutability":"view","type":"function"},{"inputs":[{"internalType":"address","name":"player","type":"address"},{"internalType":"uint256","name":"count","type":"uint256"}],"name":"findSimilarPlayers","outputs":[{"internalType":"address[]","name":"similarPlayers","type":"address[]"},{"internalType":"uint256[]","name":"similarities","type":"uint256[]"}],"stateMutability":"view","type":"function"},{"inputs":[{"internalType":"uint256","name":"matchId","type":"uint256"}],"name":"getMatch","outputs":[{"components":[{"internalType":"uint256","name":"matchId","type":"uint256"},{"internalType":"address[]","name":"players","type":"address[]"},{"internalType":"uint64[]","name":"profileIds","type":"uint64[]"},{"internalType":"uint256","name":"averageRating","type":"uint256"},{"internalType":"uint256","name":"createdAt","type":"uint256"},{"internalType":"enum SemanticMatchmaker.MatchStatus","name":"status","type":"uint8"}],"internalType":"struct SemanticMatchmaker.Match","name":"","type":"tuple"}],"stateMutability":"view","type":"function"},{"inputs":[{"internalType":"address","name":"player","type":"address"}],"name":"getProfile","outputs":[{"components":[{"internalType":"uint64","name":"vectorId","type":"uint64"},{"internalType":"uint256","name":"skillRating","type":"uint256"},{"internalType":"uint256","name":"matchesPlayed","type":"uint256"},{"internalType":"uint256","name":"lastUpdated","type":"uint256"},{"internalType":"bool","name":"isActive","type":"bool"}],"internalType":"struct SemanticMatchmaker.PlayerProfile","name":"","type":"tuple"}],"stateMutability":"view","type":"function"},{"inputs":[],"name":"getQueueLength","outputs":[{"internalType":"uint256","name":"","type":"uint256"}],"stateMutability":"view","type":"function"},{"inputs":[{"internalType":"uint256","name":"","type":"uint256"}],"name":"matchQueue","outputs":[{"internalType":"address","name":"player","type":"address"},{"internalType":"uint64","name":"profileId","type":"uint64"},{"internalType":"uint256","name":"requestedAt","type":"uint256"},{"internalType":"uint256","name":"minPlayers","type":"uint256"},{"internalType":"uint256","name":"maxPlayers","type":"uint256"}],"stateMutability":"view","type":"function"},{"inputs":[{"internalType":"uint256","name":"","type":"uint256"}],"name":"matches","outputs":[{"internalType":"uint256","name":"matchId","type":"uint256"},{"internalType":"uint256","name":"averageRating","type":"uint256"},{"internalType":"uint256","name":"createdAt","type":"uint256"},{"internalType":"enum SemanticMatchmaker.MatchStatus","name":"status","type":"uint8"}],"stateMutability":"view","type":"function"},{"inputs":[],"name":"nextMatchId","outputs":[{"internalType":"uint256","name":"","type":"uint256"}],"stateMutability":"view","type":"function"},{"inputs":[],"name":"owner","outputs":[{"internalType":"address","name":"","type":"address"}],"stateMutability":"view","type":"function"},{"inputs":[{"internalType":"address","name":"","type":"address"}],"name":"profiles","outputs":[{"internalType":"uint64","name":"vectorId","type":"uint64"},{"internalType":"uint256","name":"skillRating","type":"uint256"},{"internalType":"uint256","name":"matchesPlayed","type":"uint256"},{"internalType":"uint256","name":"lastUpdated","type":"uint256"},{"internalType":"bool","name":"isActive","type":"bool"}],"stateMutability":"view","type":"function"},{"inputs":[{"internalType":"int256[]","name":"embedding","type":"int256[]"},{"internalType":"bytes32[]","name":"tags","type":"bytes32[]"}],"name":"registerProfile","outputs":[{"internalType":"uint64","name":"vectorId","type":"uint64"}],"stateMutability":"nonpayable","type":"function"},{"inputs":[],"name":"renounceOwnership","outputs":[],"stateMutability":"nonpayable","type":"function"},{"inputs":[{"internalType":"uint256","name":"minPlayers","type":"uint256"},{"internalType":"uint256","name":"maxPlayers","type":"uint256"}],"name":"requestMatch","outputs":[{"internalType":"uint256","name":"queuePosition","type":"uint256"}],"stateMutability":"nonpayable","type":"function"},{"inputs":[{"internalType":"address","name":"newOwner","type":"address"}],"name":"transferOwnership","outputs":[],"stateMutability":"nonpayable","type":"function"},{"inputs":[{"internalType":"int256[]","name":"embedding","type":"int256[]"},{"internalType":"bytes32[]","name":"tags","type":"bytes32[]"}],"name":"updateProfile","outputs":[{"internalType":"uint64","name":"newVectorId","type":"uint64"}],"stateMutability":"nonpayable","type":"function"}],"evm":{"bytecode":{"linkReferences":{},"object":"6080346100bf57601f611f5e38819003918201601f19168301916001600160401b038311848410176100c4578084926020946040528339810103126100bf575133156100a65760008054336001600160a01b0319821681178355604051939290916001600160a01b0316907f8be0079c531659141344cd1fd0a4f28419497f9722a3daafe3b4186f6b6457e09080a3600180556006556001600555611e8390816100db8239f35b604051631e4fbdf760e01b815260006004820152602490fd5b600080fd5b634e487b7160e01b600052604160045260246000fdfe608080604052600436101561001357600080fd5b60003560e01c9081630f53a4701461104d5750806317d6457214610f06578063205a6d871461011e5780633d092b3d14610c38578063423f4943146108f15780634768d4ef146108985780636a4f29c21461082b578063715018a6146107d2578063826a0a53146106cf5780638da5cb5b146106a65780639752d5381461049b578063ac01d9ea14610478578063b0f9c41014610284578063b8f7700514610266578063bbe15627146101f2578063c5adf7c9146101d4578063edb18822146101b1578063f2fde38b14610123578063f3226aa41461011e5763fd7288c0146100fb57600080fd5b34610119576000366003190112610119576020600654604051908152f35b600080fd5b6111a5565b346101195760203660031901126101195761013c611115565b61014461125b565b6001600160a01b0390811690811561019857600054826bffffffffffffffffffffffff60a01b821617600055167f8be0079c531659141344cd1fd0a4f28419497f9722a3daafe3b4186f6b6457e0600080a3005b604051631e4fbdf760e01b815260006004820152602490fd5b34610119576000366003190112610119576020604051670c7d713b49da00008152f35b34610119576000366003190112610119576020600554604051908152f35b34610119576020366003190112610119576001600160a01b03610213611115565b16600052600260205260a060406000206001600160401b0381541690600181015490600281015460ff60046003840154930154169260405194855260208501526040840152606083015215156080820152f35b34610119576000366003190112610119576020600454604051908152f35b3461011957604036600319011261011957600435602480356102a4611383565b3360005260026020526001600160401b03928360406000205416801561046157600282108015610457575b801561044e575b610431576004549060005b8281106103f257506040516102f5816112c7565b3381526020810191825260408101924284526060820194855260808201958652600160401b8110156103dd57806001610331920160045561120b565b9690966103c9575051855491516001600160e01b03199092166001600160a01b039190911617951660a01b67ffffffffffffffff60a01b169490941783559192600392905160018501555160028401555191015560206004546040518181527f49baa19ed9cd5bcae46a58df453f160f8137c1a83be313b6e6a09230cff90944833392a26103bd611498565b60018055604051908152f35b634e487b7160e01b60005260006004526000fd5b86634e487b7160e01b60005260416004526000fd5b6103fb8161120b565b50546001600160a01b0316331461041a57610415906113b3565b6102e1565b604051639d53ec3d60e01b81523360048201528690fd5b509060449260405192632f6ff7c960e11b84526004840152820152fd5b508282116102d6565b50606483116102cf565b60405163c23cb52560e01b81523360048201528490fd5b34610119576000366003190112610119576020604051670429d069189e00008152f35b3461011957602080600319360112610119576001600160a01b036104bd611115565b1680600052600282526001600160401b0390816040600020541690811561068e57506104eb6104f291611c20565b91906113c2565b6040516104fe816112e2565b6005815260005b60a081106106495750805192606484029380850460641490151715610633576161a893840180941161063357835a10610621576040519161055186840194606086526080850190611bad565b91601f1992838582030160408601528780845192838152019301916000905b898383106105f5576000808b8b60228c6105998d828e60036060830152039081018352826112fd565b5192fa906105a5611be1565b91156105dc5760408280518101031261011957808201519063ffffffff821680920361011957604080930151908351928352820152f35b604051636f99e79360e01b815260226004820152602490fd5b6040859663ffffffff836001959697985187815116845201511683820152019501920190929192610570565b6040516307099c5360e21b8152600490fd5b634e487b7160e01b600052601160045260246000fd5b604051906040820191808310868411176106785786926040526000815260008382015282828501015201610505565b634e487b7160e01b600052604160045260246000fd5b6024906040519063c23cb52560e01b82526004820152fd5b34610119576000366003190112610119576000546040516001600160a01b039091168152602090f35b34610119576106dd3661115b565b926106e9929192611383565b3360005260026020526040600020926001600160401b039182855416156107ba576003850193845460648101809111610633578043106107a25750610755926107476020989361074f936107406006548214611287565b3691611335565b923691611335565b90611d34565b501691826001600160401b03198254161790554390556040518181527f60e38dce54e6442f7beb13b209e159ef09a633a0f904742643b3832a0c52401a833392a260018055604051908152f35b6024906040519063e9dc722560e01b82526004820152fd5b60405163c23cb52560e01b8152336004820152602490fd5b34610119576000366003190112610119576107eb61125b565b600080546001600160a01b0319811682556001600160a01b03167f8be0079c531659141344cd1fd0a4f28419497f9722a3daafe3b4186f6b6457e08280a3005b34610119576020366003190112610119576004356004548110156101195761085460a09161120b565b5080549060018101549060036002820154910154916001600160401b0360405194600180881b0381168652861c166020850152604084015260608301526080820152f35b34610119576020366003190112610119576004356000526003602052608060406000206108ef81549160038101549060ff6005600483015492015416916040519485526020850152604084015260608301906111c1565bf35b346101195760403660031901126101195761090a611115565b6024359060018060a01b0316806000526020600281526001600160401b0391826040600020541690811561068e57506109456104eb82611c20565b6001948581018091116106335761ea60805a10610621576000926028849361099460405180926109808b830196604088526060840190611bad565b90604083015203601f1981018352826112fd565b5192fa61099f611be1565b9015610c1f57805181019360608285870196031261011957838201518181116101195782019480603f870112156101195784860151956109de8761131e565b966109ec60405198896112fd565b80885260408789019160051b83010191838311610119576040889101915b838310610c07575050505060408301518281116101195783019281603f85011215610119578584015193610a3d8561131e565b94610a4b60405196876112fd565b80865260408887019160051b83010191848311610119576040899101915b838310610bf75750505050606081015190838211610119570181603f82011215610119578581015190604087610a9e8461131e565b610aaa835191826112fd565b848152019260051b82010192831161011957959795604001905b828210610bd957505050600094846000905b610b3e575b5050505050610af2610aec8361142f565b9261142f565b92610b08604051936040855260408501906111ce565b8381038285015281808651928381520195019160005b828110610b2b5785870386f35b8351875295810195928101928401610b1e565b908597959392918151811015610bd0578583610b5a838561141b565b5116141580610bb4575b80610b98575b610b83575b610b78906113b3565b909192939597610ad6565b96610b90610b78916113b3565b979050610b6f565b50670c7d713b49da0000610bac828661141b565b511115610b6a565b50670429d069189e0000610bc8828661141b565b511015610b64565b50969496610adb565b81989698516008811015610119578152959795908801908801610ac4565b8251815291810191899101610a69565b8190610c1284611d20565b8152019101908790610a0a565b604051636f99e79360e01b815260286004820152602490fd5b3461011957602036600319011261011957604051610c55816112e2565b60008152606060208201526060604082015260006060820152600060a06080928284820152015260043560005260036020526040600020604051610c98816112e2565b81548152600182016040518082602082945493848152019060005260206000209260005b818110610ee4575050610cd1925003826112fd565b60208201526002820191604051808460208296549384815201906000526020600020926000905b88816003840110610ea25750610d30945491818110610e88575b818110610e6b575b818110610e4f575b10610e41575b5003846112fd565b604082019283526003810154936060830194855260ff60056004840154938386019485520154169460a08401956004811015610e2b5786526040519460208652602060e087019580518289015201519460c0604088015285518091526020610100880196019060005b818110610e0c575050505193601f198682030160608701526020808651928381520195019060005b818110610ded5750505091849591610de99351908601525160a08501525160c08401906111c1565b0390f35b82516001600160401b0316875260209687019690920191600101610dc1565b82516001600160a01b0316885260209788019790920191600101610d99565b634e487b7160e01b600052602160045260246000fd5b60c01c815260200187610d28565b9260206001916001600160401b03858d1c168152019301610d22565b9260206001916001600160401b038560401c168152019301610d1a565b9260206001916001600160401b0385168152019301610d12565b60049294506001919386546001600160401b038082168352808260401c16602084015281841c16604083015260c01c6060820152019401920186929391610cf8565b84546001600160a01b0316835260019485019486945060209093019201610cbc565b3461011957610f143661115b565b90610f1d611383565b610f2a6006548414611287565b33600052602093600285526001600160401b03938460406000205416611017579161074761074f92610f5e95943691611335565b508160405191610f6d836112c7565b16918282526004848301926103e893848152604082016000815260608301914383526080840195600187523360005260028a5260406000209451166001600160401b0319855416178455516001840155516002830155516003820155019051151560ff8019835416911617905560405190828252838201527fdb0a5a669a79b0982489666081a121b5c52945aa94bd37dbfec4a851e2f758c560403392a260018055604051908152f35b60405162461bcd60e51b815260048101879052600e60248201526d50726f66696c652065786973747360901b6044820152606490fd5b34610119576020366003190112610119576000608061106a611115565b92611074816112c7565b828152826020820152826040820152826060820152015260018060a01b0316600052600260205260a060406000206040516110ae816112c7565b6001600160401b038254169182825260018101546020830190815260028201549060408401918252608060ff600460038601549560608801968752015416940193151584526040519485525160208501525160408401525160608301525115156080820152f35b600435906001600160a01b038216820361011957565b9181601f84011215610119578235916001600160401b038311610119576020808501948460051b01011161011957565b6040600319820112610119576001600160401b039160043583811161011957826111879160040161112b565b93909392602435918211610119576111a19160040161112b565b9091565b3461011957600036600319011261011957602060405160648152f35b906004821015610e2b5752565b90815180825260208080930193019160005b8281106111ee575050505090565b83516001600160a01b0316855293810193928101926001016111e0565b60045481101561124557600460005260021b7f8a35acfbc15ff81a39ae7d344fd709f28e8600b4aa8c65c6b64bfe7fe36bd19b0190600090565b634e487b7160e01b600052603260045260246000fd5b6000546001600160a01b0316330361126f57565b60405163118cdaa760e01b8152336004820152602490fd5b1561128e57565b60405162461bcd60e51b815260206004820152601160248201527024b73b30b634b2103234b6b2b739b4b7b760791b6044820152606490fd5b60a081019081106001600160401b0382111761067857604052565b60c081019081106001600160401b0382111761067857604052565b90601f801991011681019081106001600160401b0382111761067857604052565b6001600160401b0381116106785760051b60200190565b92916113408261131e565b9161134e60405193846112fd565b829481845260208094019160051b810192831161011957905b8282106113745750505050565b81358152908301908301611367565b600260015414611394576002600155565b604051633ee5aeb560e01b8152600490fd5b9190820180921161063357565b60001981146106335760010190565b156113c957565b60405162461bcd60e51b815260206004820152601860248201527f50726f66696c6520766563746f72206e6f7420666f756e6400000000000000006044820152606490fd5b8051156112455760200190565b80518210156112455760209160051b010190565b906114398261131e565b61144660405191826112fd565b8281528092611457601f199161131e565b0190602036910137565b811561146b570490565b634e487b7160e01b600052601260045260246000fd5b81811061148c575050565b60008155600101611481565b60045460028110611baa578015611245576004600052604051916114bb836112c7565b7f8a35acfbc15ff81a39ae7d344fd709f28e8600b4aa8c65c6b64bfe7fe36bd19b546001600160a01b038116845260a01c6001600160401b031660208401527f8a35acfbc15ff81a39ae7d344fd709f28e8600b4aa8c65c6b64bfe7fe36bd19c5460408401527f8a35acfbc15ff81a39ae7d344fd709f28e8600b4aa8c65c6b64bfe7fe36bd19d5460608401527f8a35acfbc15ff81a39ae7d344fd709f28e8600b4aa8c65c6b64bfe7fe36bd19e546080840181905261157a9061142f565b611587608085015161142f565b84519091906001906001600160a01b03166115a18361140e565b526001600160401b036020870151166115b98461140e565b526115c38561142f565b92819460006115d18661140e565b52825b87811080611b9d575b156116af576115eb8161120b565b50604051906115f9826112c7565b80549060018060a01b03821683526001600160401b038260a01c1660208401526001810154604084015260036002820154918260608601520154608084015260808c01511015611654575b505061164f906113b3565b6115d4565b919461164f92611692926001600160401b0391602091906001600160a01b031661167e858c61141b565b5201511661168c828761141b565b526113b3565b93806116a76116a08a6113b3565b998961141b565b529038611644565b5096606091965093919301518310156116ca575b5050505050565b6116d68395929561142f565b936116e08461142f565b956000936000915b868310611b1a57505050600554956116ff876113b3565b60055561170c8585611461565b906040519161171a836112e2565b888352602083019188835260408401526060830152426080830152600060a083015287600052600360205260406000209082518255518051906001600160401b03821161067857600160401b8211610678576020906001840154836001860155808410611afa575b500160018301600052602060002060005b838110611add575050505060408201518051906001600160401b03821161067857600160401b8211610678576020906002840154836002860155808410611a8c575b5001906002830160005260206000209060005b8160021c8110611a465750600319811681036119e6575b505050600560a0916060840151600382015560808401516004820155019101516004811015610e2b5760ff80198354169116179055805b6118925750509161186b61187f927fed8df6391a376fae78c8518bb7f495881599d1990b44fba5e78b192cb9df32ea94611461565b6040519283926040845260408401906111ce565b9060208301520390a238808080806116c3565b600019818101828111610633576118a9908461141b565b51600454808210156119b157828101908111610633576118cb6118d29161120b565b509161120b565b9190916119235780820361194f575b5050600454801561193957016118f68161120b565b61192357600381600080935582600182015582600282015501556004558015610633576000190180611836565b634e487b7160e01b600052600060045260246000fd5b634e487b7160e01b600052603160045260246000fd5b805482546001600160a01b039091166001600160a01b0319821681178455825467ffffffffffffffff60a01b166001600160e01b03199092161717825560039081906001810154600185015560028101546002850155015491015538806118e1565b60405162461bcd60e51b815260206004820152600d60248201526c092dcecc2d8d2c840d2dcc8caf609b1b6044820152606490fd5b60009260005b600319831683038110611a0a57505060021c0155600560a0386117ff565b90936020611a3d6001926001600160401b03885116908560031b60031b916001600160401b03809116831b921b19161790565b950191016119ec565b6000805b60048110611a5f5750838201556001016117e8565b85519095916001916020916001600160401b0360068a901b81811b199092169216901b1792019501611a4a565b611abe906002860160005283600020600380870160021c820192601888831b1680611ac4575b500160021c0190611481565b386117d5565b60001990818601918254918a03851b1c16905538611ab2565b82516001600160a01b031681830155602090920191600101611793565b611b14906001860160005284846000209182019101611481565b38611782565b9194909190611b9690611b90906001600160a01b03611b39898661141b565b5116611b45898c61141b565b526001600160401b03611b58898761141b565b5116611b64898d61141b565b526001600160a01b03611b77898661141b565b51166000526002602052600160406000200154906113a6565b956113b3565b91906116e8565b50608089015184106115dd565b50565b90815180825260208080930193019160005b828110611bcd575050505090565b835185529381019392810192600101611bbf565b3d15611c1b573d906001600160401b0382116106785760405191611c0f601f8201601f1916602001846112fd565b82523d6000602084013e565b606090565b614e2090815a1061062157604091825191602091828401936001600160401b0380931685528381528581019181831084841117610678576026928752600095869384935192fa93611c6f611be1565b9415611d095784518501918186858501940312611d015783860151958615158703611d055782810151918211611d0557019082603f83011215611d01578382015191611cba8361131e565b95611cc7835197886112fd565b838752828688019460051b830101948511611cfe575001905b828210611cef57505050509091565b81518152908301908301611ce0565b80fd5b8480fd5b8580fd5b51636f99e79360e01b815260266004820152602490fd5b51906001600160401b038216820361011957565b9190918051603281029080820460321490151715610633576188b890810180911161063357835160c881029080820460c8149015171561063357611d77916113a6565b805a106106215760405191602092611da184820192600284526080604084015260a0830190611bad565b95601f19968783820301606084015285808351928381520192019060005b818110611e3957505050602782611ded600097989982899897969589608081980152039081018352826112fd565b5193f190611df9611be1565b9115611e205760408280518101031261011957611e196040918301611d20565b9101519091565b604051636f99e79360e01b815260276004820152602490fd5b825184529287019291870191600101611dbf56fea264697066735822122077499050afd77f7f4375a9343d49092dfdce75e241b69d793edd2623cf39ddfd64736f6c63430008140033","opcodes":"PUSH1 0x80 CALLVALUE PUSH2 0xBF JUMPI PUSH1 0x1F PUSH2 0x1F5E CODESIZE DUP2 SWAP1 SUB SWAP2 DUP3 ADD PUSH1 0x1F NOT AND DUP4 ADD SWAP2 PUSH1 0x1 PUSH1 0x1 PUSH1 0x40 SHL SUB DUP4 GT DUP5 DUP5 LT OR PUSH2 0xC4 JUMPI DUP1 DUP5 SWAP3 PUSH1 0x20 SWAP5 PUSH1 0x40 MSTORE DUP4 CODECOPY DUP2 ADD SUB SLT PUSH2 0xBF JUMPI MLOAD CALLER ISZERO PUSH2 0xA6 JUMPI PUSH1 0x0 DUP1 SLOAD CALLER PUSH1 0x1 PUSH1 0x1 PUSH1 0xA0 SHL SUB NOT DUP3 AND DUP2 OR DUP4 SSTORE PUSH1 0x40 MLOAD SWAP4 SWAP3 SWAP1 SWAP2 PUSH1 0x1 PUSH1 0x1 PUSH1 0xA0 SHL SUB AND SWAP1 PUSH32 0x8BE0079C531659141344CD1FD0A4F28419497F9722A3DAAFE3B4186F6B6457E0 SWAP1 DUP1 LOG3 PUSH1 0x1 DUP1 SSTORE PUSH1 0x6 SSTORE PUSH1 0x1 PUSH1 0x5 SSTORE PUSH2 0x1E83 SWAP1 DUP2 PUSH2 0xDB DUP3 CODECOPY RETURN JUMPDEST PUSH1 0x40 MLOAD PUSH4 0x1E4FBDF7 PUSH1 0xE0 SHL DUP2 MSTORE PUSH1 0x0 PUSH1 0x4 DUP3 ADD MSTORE PUSH1 0x24 SWAP1 REVERT JUMPDEST PUSH1 0x0 DUP1 REVERT JUMPDEST PUSH4 0x4E487B71 PUSH1 0xE0 SHL PUSH1 0x0 MSTORE PUSH1 0x41 PUSH1 0x4 MSTORE PUSH1 0x24 PUSH1 0x0 REVERT INVALID PUSH1 0x80 DUP1 PUSH1 0x40 MSTORE PUSH1 0x4 CALLDATASIZE LT ISZERO PUSH2 0x13 JUMPI PUSH1 0x0 DUP1 REVERT JUMPDEST PUSH1 0x0 CALLDATALOAD PUSH1 0xE0 SHR SWAP1 DUP2 PUSH4 0xF53A470 EQ PUSH2 0x104D JUMPI POP DUP1 PUSH4 0x17D64572 EQ PUSH2 0xF06 JUMPI DUP1 PUSH4 0x205A6D87 EQ PUSH2 0x11E JUMPI DUP1 PUSH4 0x3D092B3D EQ PUSH2 0xC38 JUMPI DUP1 PUSH4 0x423F4943 EQ PUSH2 0x8F1 JUMPI DUP1 PUSH4 0x4768D4EF EQ PUSH2 0x898 JUMPI DUP1 PUSH4 0x6A4F29C2 EQ PUSH2 0x82B JUMPI DUP1 PUSH4 0x715018A6 EQ PUSH2 0x7D2 JUMPI DUP1 PUSH4 0x826A0A53 EQ PUSH2 0x6CF JUMPI DUP1 PUSH4 0x8DA5CB5B EQ PUSH2 0x6A6 JUMPI DUP1 PUSH4 0x9752D538 EQ PUSH2 0x49B JUMPI DUP1 PUSH4 0xAC01D9EA EQ PUSH2 0x478 JUMPI DUP1 PUSH4 0xB0F9C410 EQ PUSH2 0x284 JUMPI DUP1 PUSH4 0xB8F77005 EQ PUSH2 0x266 JUMPI DUP1 PUSH4 0xBBE15627 EQ PUSH2 0x1F2 JUMPI DUP1 PUSH4 0xC5ADF7C9 EQ PUSH2 0x1D4 JUMPI DUP1 PUSH4 0xEDB18822 EQ PUSH2 0x1B1 JUMPI DUP1 PUSH4 0xF2FDE38B EQ PUSH2 0x123 JUMPI DUP1 PUSH4 0xF3226AA4 EQ PUSH2 0x11E JUMPI PUSH4 0xFD7288C0 EQ PUSH2 0xFB JUMPI PUSH1 0x0 DUP1 REVERT JUMPDEST CALLVALUE PUSH2 0x119 JUMPI PUSH1 0x0 CALLDATASIZE PUSH1 0x3 NOT ADD SLT PUSH2 0x119 JUMPI PUSH1 0x20 PUSH1 0x6 SLOAD PUSH1 0x40 MLOAD SWAP1 DUP2 MSTORE RETURN JUMPDEST PUSH1 0x0 DUP1 REVERT JUMPDEST PUSH2 0x11A5 JUMP JUMPDEST CALLVALUE PUSH2 0x119 JUMPI PUSH1 0x20 CALLDATASIZE PUSH1 0x3 NOT ADD SLT PUSH2 0x119 JUMPI PUSH2 0x13C PUSH2 0x1115 JUMP JUMPDEST PUSH2 0x144 PUSH2 0x125B JUMP JUMPDEST PUSH1 0x1 PUSH1 0x1 PUSH1 0xA0 SHL SUB SWAP1 DUP2 AND SWAP1 DUP2 ISZERO PUSH2 0x198 JUMPI PUSH1 0x0 SLOAD DUP3 PUSH12 0xFFFFFFFFFFFFFFFFFFFFFFFF PUSH1 0xA0 SHL DUP3 AND OR PUSH1 0x0 SSTORE AND PUSH32 0x8BE0079C531659141344CD1FD0A4F28419497F9722A3DAAFE3B4186F6B6457E0 PUSH1 0x0 DUP1 LOG3 STOP JUMPDEST PUSH1 0x40 MLOAD PUSH4 0x1E4FBDF7 PUSH1 0xE0 SHL DUP2 MSTORE PUSH1 0x0 PUSH1 0x4 DUP3 ADD MSTORE PUSH1 0x24 SWAP1 REVERT JUMPDEST CALLVALUE PUSH2 0x119 JUMPI PUSH1 0x0 CALLDATASIZE PUSH1 0x3 NOT ADD SLT PUSH2 0x119 JUMPI PUSH1 0x20 PUSH1 0x40 MLOAD PUSH8 0xC7D713B49DA0000 DUP2 MSTORE RETURN JUMPDEST CALLVALUE PUSH2 0x119 JUMPI PUSH1 0x0 CALLDATASIZE PUSH1 0x3 NOT ADD SLT PUSH2 0x119 JUMPI PUSH1 0x20 PUSH1 0x5 SLOAD PUSH1 0x40 MLOAD SWAP1 DUP2 MSTORE RETURN JUMPDEST CALLVALUE PUSH2 0x119 JUMPI PUSH1 0x20 CALLDATASIZE PUSH1 0x3 NOT ADD SLT PUSH2 0x119 JUMPI PUSH1 0x1 PUSH1 0x1 PUSH1 0xA0 SHL SUB PUSH2 0x213 PUSH2 0x1115 JUMP JUMPDEST AND PUSH1 0x0 MSTORE PUSH1 0x2 PUSH1 0x20 MSTORE PUSH1 0xA0 PUSH1 0x40 PUSH1 0x0 KECCAK256 PUSH1 0x1 PUSH1 0x1 PUSH1 0x40 SHL SUB DUP2 SLOAD AND SWAP1 PUSH1 0x1 DUP2 ADD SLOAD SWAP1 PUSH1 0x2 DUP2 ADD SLOAD PUSH1 0xFF PUSH1 0x4 PUSH1 0x3 DUP5 ADD SLOAD SWAP4 ADD SLOAD AND SWAP3 PUSH1 0x40 MLOAD SWAP5 DUP6 MSTORE PUSH1 0x20 DUP6 ADD MSTORE PUSH1 0x40 DUP5 ADD MSTORE PUSH1 0x60 DUP4 ADD MSTORE ISZERO ISZERO PUSH1 0x80 DUP3 ADD MSTORE RETURN JUMPDEST CALLVALUE PUSH2 0x119 JUMPI PUSH1 0x0 CALLDATASIZE PUSH1 0x3 NOT ADD SLT PUSH2 0x119 JUMPI PUSH1 0x20 PUSH1 0x4 SLOAD PUSH1 0x40 MLOAD SWAP1 DUP2 MSTORE RETURN JUMPDEST CALLVALUE PUSH2 0x119 JUMPI PUSH1 0x40 CALLDATASIZE PUSH1 0x3 NOT ADD SLT PUSH2 0x119 JUMPI PUSH1 0x4 CALLDATALOAD PUSH1 0x24 DUP1 CALLDATALOAD PUSH2 0x2A4 PUSH2 0x1383 JUMP JUMPDEST CALLER PUSH1 0x0 MSTORE PUSH1 0x2 PUSH1 0x20 MSTORE PUSH1 0x1 PUSH1 0x1 PUSH1 0x40 SHL SUB SWAP3 DUP4 PUSH1 0x40 PUSH1 0x0 KECCAK256 SLOAD AND DUP1 ISZERO PUSH2 0x461 JUMPI PUSH1 0x2 DUP3 LT DUP1 ISZERO PUSH2 0x457 JUMPI JUMPDEST DUP1 ISZERO PUSH2 0x44E JUMPI JUMPDEST PUSH2 0x431 JUMPI PUSH1 0x4 SLOAD SWAP1 PUSH1 0x0 JUMPDEST DUP3 DUP2 LT PUSH2 0x3F2 JUMPI POP PUSH1 0x40 MLOAD PUSH2 0x2F5 DUP2 PUSH2 0x12C7 JUMP JUMPDEST CALLER DUP2 MSTORE PUSH1 0x20 DUP2 ADD SWAP2 DUP3 MSTORE PUSH1 0x40 DUP2 ADD SWAP3 TIMESTAMP DUP5 MSTORE PUSH1 0x60 DUP3 ADD SWAP5 DUP6 MSTORE PUSH1 0x80 DUP3 ADD SWAP6 DUP7 MSTORE PUSH1 0x1 PUSH1 0x40 SHL DUP2 LT ISZERO PUSH2 0x3DD JUMPI DUP1 PUSH1 0x1 PUSH2 0x331 SWAP3 ADD PUSH1 0x4 SSTORE PUSH2 0x120B JUMP JUMPDEST SWAP7 SWAP1 SWAP7 PUSH2 0x3C9 JUMPI POP MLOAD DUP6 SLOAD SWAP2 MLOAD PUSH1 0x1 PUSH1 0x1 PUSH1 0xE0 SHL SUB NOT SWAP1 SWAP3 AND PUSH1 0x1 PUSH1 0x1 PUSH1 0xA0 SHL SUB SWAP2 SWAP1 SWAP2 AND OR SWAP6 AND PUSH1 0xA0 SHL PUSH8 0xFFFFFFFFFFFFFFFF PUSH1 0xA0 SHL AND SWAP5 SWAP1 SWAP5 OR DUP4 SSTORE SWAP2 SWAP3 PUSH1 0x3 SWAP3 SWAP1 MLOAD PUSH1 0x1 DUP6 ADD SSTORE MLOAD PUSH1 0x2 DUP5 ADD SSTORE MLOAD SWAP2 ADD SSTORE PUSH1 0x20 PUSH1 0x4 SLOAD PUSH1 0x40 MLOAD DUP2 DUP2 MSTORE PUSH32 0x49BAA19ED9CD5BCAE46A58DF453F160F8137C1A83BE313B6E6A09230CFF90944 DUP4 CALLER SWAP3 LOG2 PUSH2 0x3BD PUSH2 0x1498 JUMP JUMPDEST PUSH1 0x1 DUP1 SSTORE PUSH1 0x40 MLOAD SWAP1 DUP2 MSTORE RETURN JUMPDEST PUSH4 0x4E487B71 PUSH1 0xE0 SHL PUSH1 0x0 MSTORE PUSH1 0x0 PUSH1 0x4 MSTORE PUSH1 0x0 REVERT JUMPDEST DUP7 PUSH4 0x4E487B71 PUSH1 0xE0 SHL PUSH1 0x0 MSTORE PUSH1 0x41 PUSH1 0x4 MSTORE PUSH1 0x0 REVERT JUMPDEST PUSH2 0x3FB DUP2 PUSH2 0x120B JUMP JUMPDEST POP SLOAD PUSH1 0x1 PUSH1 0x1 PUSH1 0xA0 SHL SUB AND CALLER EQ PUSH2 0x41A JUMPI PUSH2 0x415 SWAP1 PUSH2 0x13B3 JUMP JUMPDEST PUSH2 0x2E1 JUMP JUMPDEST PUSH1 0x40 MLOAD PUSH4 0x9D53EC3D PUSH1 0xE0 SHL DUP2 MSTORE CALLER PUSH1 0x4 DUP3 ADD MSTORE DUP7 SWAP1 REVERT JUMPDEST POP SWAP1 PUSH1 0x44 SWAP3 PUSH1 0x40 MLOAD SWAP3 PUSH4 0x2F6FF7C9 PUSH1 0xE1 SHL DUP5 MSTORE PUSH1 0x4 DUP5 ADD MSTORE DUP3 ADD MSTORE REVERT JUMPDEST POP DUP3 DUP3 GT PUSH2 0x2D6 JUMP JUMPDEST POP PUSH1 0x64 DUP4 GT PUSH2 0x2CF JUMP JUMPDEST PUSH1 0x40 MLOAD PUSH4 0xC23CB525 PUSH1 0xE0 SHL DUP2 MSTORE CALLER PUSH1 0x4 DUP3 ADD MSTORE DUP5 SWAP1 REVERT JUMPDEST CALLVALUE PUSH2 0x119 JUMPI PUSH1 0x0 CALLDATASIZE PUSH1 0x3 NOT ADD SLT PUSH2 0x119 JUMPI PUSH1 0x20 PUSH1 0x40 MLOAD PUSH8 0x429D069189E0000 DUP2 MSTORE RETURN JUMPDEST CALLVALUE PUSH2 0x119 JUMPI PUSH1 0x20 DUP1 PUSH1 0x3 NOT CALLDATASIZE ADD SLT PUSH2 0x119 JUMPI PUSH1 0x1 PUSH1 0x1 PUSH1 0xA0 SHL SUB PUSH2 0x4BD PUSH2 0x1115 JUMP JUMPDEST AND DUP1 PUSH1 0x0 MSTORE PUSH1 0x2 DUP3 MSTORE PUSH1 0x1 PUSH1 0x1 PUSH1 0x40 SHL SUB SWAP1 DUP2 PUSH1 0x40 PUSH1 0x0 KECCAK256 SLOAD AND SWAP1 DUP2 ISZERO PUSH2 0x68E JUMPI POP PUSH2 0x4EB PUSH2 0x4F2 SWAP2 PUSH2 0x1C20 JUMP JUMPDEST SWAP2 SWAP1 PUSH2 0x13C2 JUMP JUMPDEST PUSH1 0x40 MLOAD PUSH2 0x4FE DUP2 PUSH2 0x12E2 JUMP JUMPDEST PUSH1 0x5 DUP2 MSTORE PUSH1 0x0 JUMPDEST PUSH1 0xA0 DUP2 LT PUSH2 0x649 JUMPI POP DUP1 MLOAD SWAP3 PUSH1 0x64 DUP5 MUL SWAP4 DUP1 DUP6 DIV PUSH1 0x64 EQ SWAP1 ISZERO OR ISZERO PUSH2 0x633 JUMPI PUSH2 0x61A8 SWAP4 DUP5 ADD DUP1 SWAP5 GT PUSH2 0x633 JUMPI DUP4 GAS LT PUSH2 0x621 JUMPI PUSH1 0x40 MLOAD SWAP2 PUSH2 0x551 DUP7 DUP5 ADD SWAP5 PUSH1 0x60 DUP7 MSTORE PUSH1 0x80 DUP6 ADD SWAP1 PUSH2 0x1BAD JUMP JUMPDEST SWAP2 PUSH1 0x1F NOT SWAP3 DUP4 DUP6 DUP3 SUB ADD PUSH1 0x40 DUP7 ADD MSTORE DUP8 DUP1 DUP5 MLOAD SWAP3 DUP4 DUP2 MSTORE ADD SWAP4 ADD SWAP2 PUSH1 0x0 SWAP1 JUMPDEST DUP10 DUP4 DUP4 LT PUSH2 0x5F5 JUMPI PUSH1 0x0 DUP1 DUP12 DUP12 PUSH1 0x22 DUP13 PUSH2 0x599 DUP14 DUP3 DUP15 PUSH1 0x3 PUSH1 0x60 DUP4 ADD MSTORE SUB SWAP1 DUP2 ADD DUP4 MSTORE DUP3 PUSH2 0x12FD JUMP JUMPDEST MLOAD SWAP3 STATICCALL SWAP1 PUSH2 0x5A5 PUSH2 0x1BE1 JUMP JUMPDEST SWAP2 ISZERO PUSH2 0x5DC JUMPI PUSH1 0x40 DUP3 DUP1 MLOAD DUP2 ADD SUB SLT PUSH2 0x119 JUMPI DUP1 DUP3 ADD MLOAD SWAP1 PUSH4 0xFFFFFFFF DUP3 AND DUP1 SWAP3 SUB PUSH2 0x119 JUMPI PUSH1 0x40 DUP1 SWAP4 ADD MLOAD SWAP1 DUP4 MLOAD SWAP3 DUP4 MSTORE DUP3 ADD MSTORE RETURN JUMPDEST PUSH1 0x40 MLOAD PUSH4 0x6F99E793 PUSH1 0xE0 SHL DUP2 MSTORE PUSH1 0x22 PUSH1 0x4 DUP3 ADD MSTORE PUSH1 0x24 SWAP1 REVERT JUMPDEST PUSH1 0x40 DUP6 SWAP7 PUSH4 0xFFFFFFFF DUP4 PUSH1 0x1 SWAP6 SWAP7 SWAP8 SWAP9 MLOAD DUP8 DUP2 MLOAD AND DUP5 MSTORE ADD MLOAD AND DUP4 DUP3 ADD MSTORE ADD SWAP6 ADD SWAP3 ADD SWAP1 SWAP3 SWAP2 SWAP3 PUSH2 0x570 JUMP JUMPDEST PUSH1 0x40 MLOAD PUSH4 0x7099C53 PUSH1 0xE2 SHL DUP2 MSTORE PUSH1 0x4 SWAP1 REVERT JUMPDEST PUSH4 0x4E487B71 PUSH1 0xE0 SHL PUSH1 0x0 MSTORE PUSH1 0x11 PUSH1 0x4 MSTORE PUSH1 0x24 PUSH1 0x0 REVERT JUMPDEST PUSH1 0x40 MLOAD SWAP1 PUSH1 0x40 DUP3 ADD SWAP2 DUP1 DUP4 LT DUP7 DUP5 GT OR PUSH2 0x678 JUMPI DUP7 SWAP3 PUSH1 0x40 MSTORE PUSH1 0x0 DUP2 MSTORE PUSH1 0x0 DUP4 DUP3 ADD MSTORE DUP3 DUP3 DUP6 ADD ADD MSTORE ADD PUSH2 0x505 JUMP JUMPDEST PUSH4 0x4E487B71 PUSH1 0xE0 SHL PUSH1 0x0 MSTORE PUSH1 0x41 PUSH1 0x4 MSTORE PUSH1 0x24 PUSH1 0x0 REVERT JUMPDEST PUSH1 0x24 SWAP1 PUSH1 0x40 MLOAD SWAP1 PUSH4 0xC23CB525 PUSH1 0xE0 SHL DUP3 MSTORE PUSH1 0x4 DUP3 ADD MSTORE REVERT JUMPDEST CALLVALUE PUSH2 0x119 JUMPI PUSH1 0x0 CALLDATASIZE PUSH1 0x3 NOT ADD SLT PUSH2 0x119 JUMPI PUSH1 0x0 SLOAD PUSH1 0x40 MLOAD PUSH1 0x1 PUSH1 0x1 PUSH1 0xA0 SHL SUB SWAP1 SWAP2 AND DUP2 MSTORE PUSH1 0x20 SWAP1 RETURN JUMPDEST CALLVALUE PUSH2 0x119 JUMPI PUSH2 0x6DD CALLDATASIZE PUSH2 0x115B JUMP JUMPDEST SWAP3 PUSH2 0x6E9 SWAP3 SWAP2 SWAP3 PUSH2 0x1383 JUMP JUMPDEST CALLER PUSH1 0x0 MSTORE PUSH1 0x2 PUSH1 0x20 MSTORE PUSH1 0x40 PUSH1 0x0 KECCAK256 SWAP3 PUSH1 0x1 PUSH1 0x1 PUSH1 0x40 SHL SUB SWAP2 DUP3 DUP6 SLOAD AND ISZERO PUSH2 0x7BA JUMPI PUSH1 0x3 DUP6 ADD SWAP4 DUP5 SLOAD PUSH1 0x64 DUP2 ADD DUP1 SWAP2 GT PUSH2 0x633 JUMPI DUP1 NUMBER LT PUSH2 0x7A2 JUMPI POP PUSH2 0x755 SWAP3 PUSH2 0x747 PUSH1 0x20 SWAP9 SWAP4 PUSH2 0x74F SWAP4 PUSH2 0x740 PUSH1 0x6 SLOAD DUP3 EQ PUSH2 0x1287 JUMP JUMPDEST CALLDATASIZE SWAP2 PUSH2 0x1335 JUMP JUMPDEST SWAP3 CALLDATASIZE SWAP2 PUSH2 0x1335 JUMP JUMPDEST SWAP1 PUSH2 0x1D34 JUMP JUMPDEST POP AND SWAP2 DUP3 PUSH1 0x1 PUSH1 0x1 PUSH1 0x40 SHL SUB NOT DUP3 SLOAD AND OR SWAP1 SSTORE NUMBER SWAP1 SSTORE PUSH1 0x40 MLOAD DUP2 DUP2 MSTORE PUSH32 0x60E38DCE54E6442F7BEB13B209E159EF09A633A0F904742643B3832A0C52401A DUP4 CALLER SWAP3 LOG2 PUSH1 0x1 DUP1 SSTORE PUSH1 0x40 MLOAD SWAP1 DUP2 MSTORE RETURN JUMPDEST PUSH1 0x24 SWAP1 PUSH1 0x40 MLOAD SWAP1 PUSH4 0xE9DC7225 PUSH1 0xE0 SHL DUP3 MSTORE PUSH1 0x4 DUP3 ADD MSTORE REVERT JUMPDEST PUSH1 0x40 MLOAD PUSH4 0xC23CB525 PUSH1 0xE0 SHL DUP2 MSTORE CALLER PUSH1 0x4 DUP3 ADD MSTORE PUSH1 0x24 SWAP1 REVERT JUMPDEST CALLVALUE PUSH2 0x119 JUMPI PUSH1 0x0 CALLDATASIZE PUSH1 0x3 NOT ADD SLT PUSH2 0x119 JUMPI PUSH2 0x7EB PUSH2 0x125B JUMP JUMPDEST PUSH1 0x0 DUP1 SLOAD PUSH1 0x1 PUSH1 0x1 PUSH1 0xA0 SHL SUB NOT DUP2 AND DUP3 SSTORE PUSH1 0x1 PUSH1 0x1 PUSH1 0xA0 SHL SUB AND PUSH32 0x8BE0079C531659141344CD1FD0A4F28419497F9722A3DAAFE3B4186F6B6457E0 DUP3 DUP1 LOG3 STOP JUMPDEST CALLVALUE PUSH2 0x119 JUMPI PUSH1 0x20 CALLDATASIZE PUSH1 0x3 NOT ADD SLT PUSH2 0x119 JUMPI PUSH1 0x4 CALLDATALOAD PUSH1 0x4 SLOAD DUP2 LT ISZERO PUSH2 0x119 JUMPI PUSH2 0x854 PUSH1 0xA0 SWAP2 PUSH2 0x120B JUMP JUMPDEST POP DUP1 SLOAD SWAP1 PUSH1 0x1 DUP2 ADD SLOAD SWAP1 PUSH1 0x3 PUSH1 0x2 DUP3 ADD SLOAD SWAP2 ADD SLOAD SWAP2 PUSH1 0x1 PUSH1 0x1 PUSH1 0x40 SHL SUB PUSH1 0x40 MLOAD SWAP5 PUSH1 0x1 DUP1 DUP9 SHL SUB DUP2 AND DUP7 MSTORE DUP7 SHR AND PUSH1 0x20 DUP6 ADD MSTORE PUSH1 0x40 DUP5 ADD MSTORE PUSH1 0x60 DUP4 ADD MSTORE PUSH1 0x80 DUP3 ADD MSTORE RETURN JUMPDEST CALLVALUE PUSH2 0x119 JUMPI PUSH1 0x20 CALLDATASIZE PUSH1 0x3 NOT ADD SLT PUSH2 0x119 JUMPI PUSH1 0x4 CALLDATALOAD PUSH1 0x0 MSTORE PUSH1 0x3 PUSH1 0x20 MSTORE PUSH1 0x80 PUSH1 0x40 PUSH1 0x0 KECCAK256 PUSH2 0x8EF DUP2 SLOAD SWAP2 PUSH1 0x3 DUP2 ADD SLOAD SWAP1 PUSH1 0xFF PUSH1 0x5 PUSH1 0x4 DUP4 ADD SLOAD SWAP3 ADD SLOAD AND SWAP2 PUSH1 0x40 MLOAD SWAP5 DUP6 MSTORE PUSH1 0x20 DUP6 ADD MSTORE PUSH1 0x40 DUP5 ADD MSTORE PUSH1 0x60 DUP4 ADD SWAP1 PUSH2 0x11C1 JUMP JUMPDEST RETURN JUMPDEST CALLVALUE PUSH2 0x119 JUMPI PUSH1 0x40 CALLDATASIZE PUSH1 0x3 NOT ADD SLT PUSH2 0x119 JUMPI PUSH2 0x90A PUSH2 0x1115 JUMP JUMPDEST PUSH1 0x24 CALLDATALOAD SWAP1 PUSH1 0x1 DUP1 PUSH1 0xA0 SHL SUB AND DUP1 PUSH1 0x0 MSTORE PUSH1 0x20 PUSH1 0x2 DUP2 MSTORE PUSH1 0x1 PUSH1 0x1 PUSH1 0x40 SHL SUB SWAP2 DUP3 PUSH1 0x40 PUSH1 0x0 KECCAK256 SLOAD AND SWAP1 DUP2 ISZERO PUSH2 0x68E JUMPI POP PUSH2 0x945 PUSH2 0x4EB DUP3 PUSH2 0x1C20 JUMP JUMPDEST PUSH1 0x1 SWAP5 DUP6 DUP2 ADD DUP1 SWAP2 GT PUSH2 0x633 JUMPI PUSH2 0xEA60 DUP1 GAS LT PUSH2 0x621 JUMPI PUSH1 0x0 SWAP3 PUSH1 0x28 DUP5 SWAP4 PUSH2 0x994 PUSH1 0x40 MLOAD DUP1 SWAP3 PUSH2 0x980 DUP12 DUP4 ADD SWAP7 PUSH1 0x40 DUP9 MSTORE PUSH1 0x60 DUP5 ADD SWAP1 PUSH2 0x1BAD JUMP JUMPDEST SWAP1 PUSH1 0x40 DUP4 ADD MSTORE SUB PUSH1 0x1F NOT DUP2 ADD DUP4 MSTORE DUP3 PUSH2 0x12FD JUMP JUMPDEST MLOAD SWAP3 STATICCALL PUSH2 0x99F PUSH2 0x1BE1 JUMP JUMPDEST SWAP1 ISZERO PUSH2 0xC1F JUMPI DUP1 MLOAD DUP2 ADD SWAP4 PUSH1 0x60 DUP3 DUP6 DUP8 ADD SWAP7 SUB SLT PUSH2 0x119 JUMPI DUP4 DUP3 ADD MLOAD DUP2 DUP2 GT PUSH2 0x119 JUMPI DUP3 ADD SWAP5 DUP1 PUSH1 0x3F DUP8 ADD SLT ISZERO PUSH2 0x119 JUMPI DUP5 DUP7 ADD MLOAD SWAP6 PUSH2 0x9DE DUP8 PUSH2 0x131E JUMP JUMPDEST SWAP7 PUSH2 0x9EC PUSH1 0x40 MLOAD SWAP9 DUP10 PUSH2 0x12FD JUMP JUMPDEST DUP1 DUP9 MSTORE PUSH1 0x40 DUP8 DUP10 ADD SWAP2 PUSH1 0x5 SHL DUP4 ADD ADD SWAP2 DUP4 DUP4 GT PUSH2 0x119 JUMPI PUSH1 0x40 DUP9 SWAP2 ADD SWAP2 JUMPDEST DUP4 DUP4 LT PUSH2 0xC07 JUMPI POP POP POP POP PUSH1 0x40 DUP4 ADD MLOAD DUP3 DUP2 GT PUSH2 0x119 JUMPI DUP4 ADD SWAP3 DUP2 PUSH1 0x3F DUP6 ADD SLT ISZERO PUSH2 0x119 JUMPI DUP6 DUP5 ADD MLOAD SWAP4 PUSH2 0xA3D DUP6 PUSH2 0x131E JUMP JUMPDEST SWAP5 PUSH2 0xA4B PUSH1 0x40 MLOAD SWAP7 DUP8 PUSH2 0x12FD JUMP JUMPDEST DUP1 DUP7 MSTORE PUSH1 0x40 DUP9 DUP8 ADD SWAP2 PUSH1 0x5 SHL DUP4 ADD ADD SWAP2 DUP5 DUP4 GT PUSH2 0x119 JUMPI PUSH1 0x40 DUP10 SWAP2 ADD SWAP2 JUMPDEST DUP4 DUP4 LT PUSH2 0xBF7 JUMPI POP POP POP POP PUSH1 0x60 DUP2 ADD MLOAD SWAP1 DUP4 DUP3 GT PUSH2 0x119 JUMPI ADD DUP2 PUSH1 0x3F DUP3 ADD SLT ISZERO PUSH2 0x119 JUMPI DUP6 DUP2 ADD MLOAD SWAP1 PUSH1 0x40 DUP8 PUSH2 0xA9E DUP5 PUSH2 0x131E JUMP JUMPDEST PUSH2 0xAAA DUP4 MLOAD SWAP2 DUP3 PUSH2 0x12FD JUMP JUMPDEST DUP5 DUP2 MSTORE ADD SWAP3 PUSH1 0x5 SHL DUP3 ADD ADD SWAP3 DUP4 GT PUSH2 0x119 JUMPI SWAP6 SWAP8 SWAP6 PUSH1 0x40 ADD SWAP1 JUMPDEST DUP3 DUP3 LT PUSH2 0xBD9 JUMPI POP POP POP PUSH1 0x0 SWAP5 DUP5 PUSH1 0x0 SWAP1 JUMPDEST PUSH2 0xB3E JUMPI JUMPDEST POP POP POP POP POP PUSH2 0xAF2 PUSH2 0xAEC DUP4 PUSH2 0x142F JUMP JUMPDEST SWAP3 PUSH2 0x142F JUMP JUMPDEST SWAP3 PUSH2 0xB08 PUSH1 0x40 MLOAD SWAP4 PUSH1 0x40 DUP6 MSTORE PUSH1 0x40 DUP6 ADD SWAP1 PUSH2 0x11CE JUMP JUMPDEST DUP4 DUP2 SUB DUP3 DUP6 ADD MSTORE DUP2 DUP1 DUP7 MLOAD SWAP3 DUP4 DUP2 MSTORE ADD SWAP6 ADD SWAP2 PUSH1 0x0 JUMPDEST DUP3 DUP2 LT PUSH2 0xB2B JUMPI DUP6 DUP8 SUB DUP7 RETURN JUMPDEST DUP4 MLOAD DUP8 MSTORE SWAP6 DUP2 ADD SWAP6 SWAP3 DUP2 ADD SWAP3 DUP5 ADD PUSH2 0xB1E JUMP JUMPDEST SWAP1 DUP6 SWAP8 SWAP6 SWAP4 SWAP3 SWAP2 DUP2 MLOAD DUP2 LT ISZERO PUSH2 0xBD0 JUMPI DUP6 DUP4 PUSH2 0xB5A DUP4 DUP6 PUSH2 0x141B JUMP JUMPDEST MLOAD AND EQ ISZERO DUP1 PUSH2 0xBB4 JUMPI JUMPDEST DUP1 PUSH2 0xB98 JUMPI JUMPDEST PUSH2 0xB83 JUMPI JUMPDEST PUSH2 0xB78 SWAP1 PUSH2 0x13B3 JUMP JUMPDEST SWAP1 SWAP2 SWAP3 SWAP4 SWAP6 SWAP8 PUSH2 0xAD6 JUMP JUMPDEST SWAP7 PUSH2 0xB90 PUSH2 0xB78 SWAP2 PUSH2 0x13B3 JUMP JUMPDEST SWAP8 SWAP1 POP PUSH2 0xB6F JUMP JUMPDEST POP PUSH8 0xC7D713B49DA0000 PUSH2 0xBAC DUP3 DUP7 PUSH2 0x141B JUMP JUMPDEST MLOAD GT ISZERO PUSH2 0xB6A JUMP JUMPDEST POP PUSH8 0x429D069189E0000 PUSH2 0xBC8 DUP3 DUP7 PUSH2 0x141B JUMP JUMPDEST MLOAD LT ISZERO PUSH2 0xB64 JUMP JUMPDEST POP SWAP7 SWAP5 SWAP7 PUSH2 0xADB JUMP JUMPDEST DUP2 SWAP9 SWAP7 SWAP9 MLOAD PUSH1 0x8 DUP2 LT ISZERO PUSH2 0x119 JUMPI DUP2 MSTORE SWAP6 SWAP8 SWAP6 SWAP1 DUP9 ADD SWAP1 DUP9 ADD PUSH2 0xAC4 JUMP JUMPDEST DUP3 MLOAD DUP2 MSTORE SWAP2 DUP2 ADD SWAP2 DUP10 SWAP2 ADD PUSH2 0xA69 JUMP JUMPDEST DUP2 SWAP1 PUSH2 0xC12 DUP5 PUSH2 0x1D20 JUMP JUMPDEST DUP2 MSTORE ADD SWAP2 ADD SWAP1 DUP8 SWAP1 PUSH2 0xA0A JUMP JUMPDEST PUSH1 0x40 MLOAD PUSH4 0x6F99E793 PUSH1 0xE0 SHL DUP2 MSTORE PUSH1 0x28 PUSH1 0x4 DUP3 ADD MSTORE PUSH1 0x24 SWAP1 REVERT JUMPDEST CALLVALUE PUSH2 0x119 JUMPI PUSH1 0x20 CALLDATASIZE PUSH1 0x3 NOT ADD SLT PUSH2 0x119 JUMPI PUSH1 0x40 MLOAD PUSH2 0xC55 DUP2 PUSH2 0x12E2 JUMP JUMPDEST PUSH1 0x0 DUP2 MSTORE PUSH1 0x60 PUSH1 0x20 DUP3 ADD MSTORE PUSH1 0x60 PUSH1 0x40 DUP3 ADD MSTORE PUSH1 0x0 PUSH1 0x60 DUP3 ADD MSTORE PUSH1 0x0 PUSH1 0xA0 PUSH1 0x80 SWAP3 DUP3 DUP5 DUP3 ADD MSTORE ADD MSTORE PUSH1 0x4 CALLDATALOAD PUSH1 0x0 MSTORE PUSH1 0x3 PUSH1 0x20 MSTORE PUSH1 0x40 PUSH1 0x0 KECCAK256 PUSH1 0x40 MLOAD PUSH2 0xC98 DUP2 PUSH2 0x12E2 JUMP JUMPDEST DUP2 SLOAD DUP2 MSTORE PUSH1 0x1 DUP3 ADD PUSH1 0x40 MLOAD DUP1 DUP3 PUSH1 0x20 DUP3 SWAP5 SLOAD SWAP4 DUP5 DUP2 MSTORE ADD SWAP1 PUSH1 0x0 MSTORE PUSH1 0x20 PUSH1 0x0 KECCAK256 SWAP3 PUSH1 0x0 JUMPDEST DUP2 DUP2 LT PUSH2 0xEE4 JUMPI POP POP PUSH2 0xCD1 SWAP3 POP SUB DUP3 PUSH2 0x12FD JUMP JUMPDEST PUSH1 0x20 DUP3 ADD MSTORE PUSH1 0x2 DUP3 ADD SWAP2 PUSH1 0x40 MLOAD DUP1 DUP5 PUSH1 0x20 DUP3 SWAP7 SLOAD SWAP4 DUP5 DUP2 MSTORE ADD SWAP1 PUSH1 0x0 MSTORE PUSH1 0x20 PUSH1 0x0 KECCAK256 SWAP3 PUSH1 0x0 SWAP1 JUMPDEST DUP9 DUP2 PUSH1 0x3 DUP5 ADD LT PUSH2 0xEA2 JUMPI POP PUSH2 0xD30 SWAP5 SLOAD SWAP2 DUP2 DUP2 LT PUSH2 0xE88 JUMPI JUMPDEST DUP2 DUP2 LT PUSH2 0xE6B JUMPI JUMPDEST DUP2 DUP2 LT PUSH2 0xE4F JUMPI JUMPDEST LT PUSH2 0xE41 JUMPI JUMPDEST POP SUB DUP5 PUSH2 0x12FD JUMP JUMPDEST PUSH1 0x40 DUP3 ADD SWAP3 DUP4 MSTORE PUSH1 0x3 DUP2 ADD SLOAD SWAP4 PUSH1 0x60 DUP4 ADD SWAP5 DUP6 MSTORE PUSH1 0xFF PUSH1 0x5 PUSH1 0x4 DUP5 ADD SLOAD SWAP4 DUP4 DUP7 ADD SWAP5 DUP6 MSTORE ADD SLOAD AND SWAP5 PUSH1 0xA0 DUP5 ADD SWAP6 PUSH1 0x4 DUP2 LT ISZERO PUSH2 0xE2B JUMPI DUP7 MSTORE PUSH1 0x40 MLOAD SWAP5 PUSH1 0x20 DUP7 MSTORE PUSH1 0x20 PUSH1 0xE0 DUP8 ADD SWAP6 DUP1 MLOAD DUP3 DUP10 ADD MSTORE ADD MLOAD SWAP5 PUSH1 0xC0 PUSH1 0x40 DUP9 ADD MSTORE DUP6 MLOAD DUP1 SWAP2 MSTORE PUSH1 0x20 PUSH2 0x100 DUP9 ADD SWAP7 ADD SWAP1 PUSH1 0x0 JUMPDEST DUP2 DUP2 LT PUSH2 0xE0C JUMPI POP POP POP MLOAD SWAP4 PUSH1 0x1F NOT DUP7 DUP3 SUB ADD PUSH1 0x60 DUP8 ADD MSTORE PUSH1 0x20 DUP1 DUP7 MLOAD SWAP3 DUP4 DUP2 MSTORE ADD SWAP6 ADD SWAP1 PUSH1 0x0 JUMPDEST DUP2 DUP2 LT PUSH2 0xDED JUMPI POP POP POP SWAP2 DUP5 SWAP6 SWAP2 PUSH2 0xDE9 SWAP4 MLOAD SWAP1 DUP7 ADD MSTORE MLOAD PUSH1 0xA0 DUP6 ADD MSTORE MLOAD PUSH1 0xC0 DUP5 ADD SWAP1 PUSH2 0x11C1 JUMP JUMPDEST SUB SWAP1 RETURN JUMPDEST DUP3 MLOAD PUSH1 0x1 PUSH1 0x1 PUSH1 0x40 SHL SUB AND DUP8 MSTORE PUSH1 0x20 SWAP7 DUP8 ADD SWAP7 SWAP1 SWAP3 ADD SWAP2 PUSH1 0x1 ADD PUSH2 0xDC1 JUMP JUMPDEST DUP3 MLOAD PUSH1 0x1 PUSH1 0x1 PUSH1 0xA0 SHL SUB AND DUP9 MSTORE PUSH1 0x20 SWAP8 DUP9 ADD SWAP8 SWAP1 SWAP3 ADD SWAP2 PUSH1 0x1 ADD PUSH2 0xD99 JUMP JUMPDEST PUSH4 0x4E487B71 PUSH1 0xE0 SHL PUSH1 0x0 MSTORE PUSH1 0x21 PUSH1 0x4 MSTORE PUSH1 0x24 PUSH1 0x0 REVERT JUMPDEST PUSH1 0xC0 SHR DUP2 MSTORE PUSH1 0x20 ADD DUP8 PUSH2 0xD28 JUMP JUMPDEST SWAP3 PUSH1 0x20 PUSH1 0x1 SWAP2 PUSH1 0x1 PUSH1 0x1 PUSH1 0x40 SHL SUB DUP6 DUP14 SHR AND DUP2 MSTORE ADD SWAP4 ADD PUSH2 0xD22 JUMP JUMPDEST SWAP3 PUSH1 0x20 PUSH1 0x1 SWAP2 PUSH1 0x1 PUSH1 0x1 PUSH1 0x40 SHL SUB DUP6 PUSH1 0x40 SHR AND DUP2 MSTORE ADD SWAP4 ADD PUSH2 0xD1A JUMP JUMPDEST SWAP3 PUSH1 0x20 PUSH1 0x1 SWAP2 PUSH1 0x1 PUSH1 0x1 PUSH1 0x40 SHL SUB DUP6 AND DUP2 MSTORE ADD SWAP4 ADD PUSH2 0xD12 JUMP JUMPDEST PUSH1 0x4 SWAP3 SWAP5 POP PUSH1 0x1 SWAP2 SWAP4 DUP7 SLOAD PUSH1 0x1 PUSH1 0x1 PUSH1 0x40 SHL SUB DUP1 DUP3 AND DUP4 MSTORE DUP1 DUP3 PUSH1 0x40 SHR AND PUSH1 0x20 DUP5 ADD MSTORE DUP2 DUP5 SHR AND PUSH1 0x40 DUP4 ADD MSTORE PUSH1 0xC0 SHR PUSH1 0x60 DUP3 ADD MSTORE ADD SWAP5 ADD SWAP3 ADD DUP7 SWAP3 SWAP4 SWAP2 PUSH2 0xCF8 JUMP JUMPDEST DUP5 SLOAD PUSH1 0x1 PUSH1 0x1 PUSH1 0xA0 SHL SUB AND DUP4 MSTORE PUSH1 0x1 SWAP5 DUP6 ADD SWAP5 DUP7 SWAP5 POP PUSH1 0x20 SWAP1 SWAP4 ADD SWAP3 ADD PUSH2 0xCBC JUMP JUMPDEST CALLVALUE PUSH2 0x119 JUMPI PUSH2 0xF14 CALLDATASIZE PUSH2 0x115B JUMP JUMPDEST SWAP1 PUSH2 0xF1D PUSH2 0x1383 JUMP JUMPDEST PUSH2 0xF2A PUSH1 0x6 SLOAD DUP5 EQ PUSH2 0x1287 JUMP JUMPDEST CALLER PUSH1 0x0 MSTORE PUSH1 0x20 SWAP4 PUSH1 0x2 DUP6 MSTORE PUSH1 0x1 PUSH1 0x1 PUSH1 0x40 SHL SUB SWAP4 DUP5 PUSH1 0x40 PUSH1 0x0 KECCAK256 SLOAD AND PUSH2 0x1017 JUMPI SWAP2 PUSH2 0x747 PUSH2 0x74F SWAP3 PUSH2 0xF5E SWAP6 SWAP5 CALLDATASIZE SWAP2 PUSH2 0x1335 JUMP JUMPDEST POP DUP2 PUSH1 0x40 MLOAD SWAP2 PUSH2 0xF6D DUP4 PUSH2 0x12C7 JUMP JUMPDEST AND SWAP2 DUP3 DUP3 MSTORE PUSH1 0x4 DUP5 DUP4 ADD SWAP3 PUSH2 0x3E8 SWAP4 DUP5 DUP2 MSTORE PUSH1 0x40 DUP3 ADD PUSH1 0x0 DUP2 MSTORE PUSH1 0x60 DUP4 ADD SWAP2 NUMBER DUP4 MSTORE PUSH1 0x80 DUP5 ADD SWAP6 PUSH1 0x1 DUP8 MSTORE CALLER PUSH1 0x0 MSTORE PUSH1 0x2 DUP11 MSTORE PUSH1 0x40 PUSH1 0x0 KECCAK256 SWAP5 MLOAD AND PUSH1 0x1 PUSH1 0x1 PUSH1 0x40 SHL SUB NOT DUP6 SLOAD AND OR DUP5 SSTORE MLOAD PUSH1 0x1 DUP5 ADD SSTORE MLOAD PUSH1 0x2 DUP4 ADD SSTORE MLOAD PUSH1 0x3 DUP3 ADD SSTORE ADD SWAP1 MLOAD ISZERO ISZERO PUSH1 0xFF DUP1 NOT DUP4 SLOAD AND SWAP2 AND OR SWAP1 SSTORE PUSH1 0x40 MLOAD SWAP1 DUP3 DUP3 MSTORE DUP4 DUP3 ADD MSTORE PUSH32 0xDB0A5A669A79B0982489666081A121B5C52945AA94BD37DBFEC4A851E2F758C5 PUSH1 0x40 CALLER SWAP3 LOG2 PUSH1 0x1 DUP1 SSTORE PUSH1 0x40 MLOAD SWAP1 DUP2 MSTORE RETURN JUMPDEST PUSH1 0x40 MLOAD PUSH3 0x461BCD PUSH1 0xE5 SHL DUP2 MSTORE PUSH1 0x4 DUP2 ADD DUP8 SWAP1 MSTORE PUSH1 0xE PUSH1 0x24 DUP3 ADD MSTORE PUSH14 0x50726F66696C6520657869737473 PUSH1 0x90 SHL PUSH1 0x44 DUP3 ADD MSTORE PUSH1 0x64 SWAP1 REVERT JUMPDEST CALLVALUE PUSH2 0x119 JUMPI PUSH1 0x20 CALLDATASIZE PUSH1 0x3 NOT ADD SLT PUSH2 0x119 JUMPI PUSH1 0x0 PUSH1 0x80 PUSH2 0x106A PUSH2 0x1115 JUMP JUMPDEST SWAP3 PUSH2 0x1074 DUP2 PUSH2 0x12C7 JUMP JUMPDEST DUP3 DUP2 MSTORE DUP3 PUSH1 0x20 DUP3 ADD MSTORE DUP3 PUSH1 0x40 DUP3 ADD MSTORE DUP3 PUSH1 0x60 DUP3 ADD MSTORE ADD MSTORE PUSH1 0x1 DUP1 PUSH1 0xA0 SHL SUB AND PUSH1 0x0 MSTORE PUSH1 0x2 PUSH1 0x20 MSTORE PUSH1 0xA0 PUSH1 0x40 PUSH1 0x0 KECCAK256 PUSH1 0x40 MLOAD PUSH2 0x10AE DUP2 PUSH2 0x12C7 JUMP JUMPDEST PUSH1 0x1 PUSH1 0x1 PUSH1 0x40 SHL SUB DUP3 SLOAD AND SWAP2 DUP3 DUP3 MSTORE PUSH1 0x1 DUP2 ADD SLOAD PUSH1 0x20 DUP4 ADD SWAP1 DUP2 MSTORE PUSH1 0x2 DUP3 ADD SLOAD SWAP1 PUSH1 0x40 DUP5 ADD SWAP2 DUP3 MSTORE PUSH1 0x80 PUSH1 0xFF PUSH1 0x4 PUSH1 0x3 DUP7 ADD SLOAD SWAP6 PUSH1 0x60 DUP9 ADD SWAP7 DUP8 MSTORE ADD SLOAD AND SWAP5 ADD SWAP4 ISZERO ISZERO DUP5 MSTORE PUSH1 0x40 MLOAD SWAP5 DUP6 MSTORE MLOAD PUSH1 0x20 DUP6 ADD MSTORE MLOAD PUSH1 0x40 DUP5 ADD MSTORE MLOAD PUSH1 0x60 DUP4 ADD MSTORE MLOAD ISZERO ISZERO PUSH1 0x80 DUP3 ADD MSTORE RETURN JUMPDEST PUSH1 0x4 CALLDATALOAD SWAP1 PUSH1 0x1 PUSH1 0x1 PUSH1 0xA0 SHL SUB DUP3 AND DUP3 SUB PUSH2 0x119 JUMPI JUMP JUMPDEST SWAP2 DUP2 PUSH1 0x1F DUP5 ADD SLT ISZERO PUSH2 0x119 JUMPI DUP3 CALLDATALOAD SWAP2 PUSH1 0x1 PUSH1 0x1 PUSH1 0x40 SHL SUB DUP4 GT PUSH2 0x119 JUMPI PUSH1 0x20 DUP1 DUP6 ADD SWAP5 DUP5 PUSH1 0x5 SHL ADD ADD GT PUSH2 0x119 JUMPI JUMP JUMPDEST PUSH1 0x40 PUSH1 0x3 NOT DUP3 ADD SLT PUSH2 0x119 JUMPI PUSH1 0x1 PUSH1 0x1 PUSH1 0x40 SHL SUB SWAP2 PUSH1 0x4 CALLDATALOAD DUP4 DUP2 GT PUSH2 0x119 JUMPI DUP3 PUSH2 0x1187 SWAP2 PUSH1 0x4 ADD PUSH2 0x112B JUMP JUMPDEST SWAP4 SWAP1 SWAP4 SWAP3 PUSH1 0x24 CALLDATALOAD SWAP2 DUP3 GT PUSH2 0x119 JUMPI PUSH2 0x11A1 SWAP2 PUSH1 0x4 ADD PUSH2 0x112B JUMP JUMPDEST SWAP1 SWAP2 JUMP JUMPDEST CALLVALUE PUSH2 0x119 JUMPI PUSH1 0x0 CALLDATASIZE PUSH1 0x3 NOT ADD SLT PUSH2 0x119 JUMPI PUSH1 0x20 PUSH1 0x40 MLOAD PUSH1 0x64 DUP2 MSTORE RETURN JUMPDEST SWAP1 PUSH1 0x4 DUP3 LT ISZERO PUSH2 0xE2B JUMPI MSTORE JUMP JUMPDEST SWAP1 DUP2 MLOAD DUP1 DUP3 MSTORE PUSH1 0x20 DUP1 DUP1 SWAP4 ADD SWAP4 ADD SWAP2 PUSH1 0x0 JUMPDEST DUP3 DUP2 LT PUSH2 0x11EE JUMPI POP POP POP POP SWAP1 JUMP JUMPDEST DUP4 MLOAD PUSH1 0x1 PUSH1 0x1 PUSH1 0xA0 SHL SUB AND DUP6 MSTORE SWAP4 DUP2 ADD SWAP4 SWAP3 DUP2 ADD SWAP3 PUSH1 0x1 ADD PUSH2 0x11E0 JUMP JUMPDEST PUSH1 0x4 SLOAD DUP2 LT ISZERO PUSH2 0x1245 JUMPI PUSH1 0x4 PUSH1 0x0 MSTORE PUSH1 0x2 SHL PUSH32 0x8A35ACFBC15FF81A39AE7D344FD709F28E8600B4AA8C65C6B64BFE7FE36BD19B ADD SWAP1 PUSH1 0x0 SWAP1 JUMP JUMPDEST PUSH4 0x4E487B71 PUSH1 0xE0 SHL PUSH1 0x0 MSTORE PUSH1 0x32 PUSH1 0x4 MSTORE PUSH1 0x24 PUSH1 0x0 REVERT JUMPDEST PUSH1 0x0 SLOAD PUSH1 0x1 PUSH1 0x1 PUSH1 0xA0 SHL SUB AND CALLER SUB PUSH2 0x126F JUMPI JUMP JUMPDEST PUSH1 0x40 MLOAD PUSH4 0x118CDAA7 PUSH1 0xE0 SHL DUP2 MSTORE CALLER PUSH1 0x4 DUP3 ADD MSTORE PUSH1 0x24 SWAP1 REVERT JUMPDEST ISZERO PUSH2 0x128E JUMPI JUMP JUMPDEST PUSH1 0x40 MLOAD PUSH3 0x461BCD PUSH1 0xE5 SHL DUP2 MSTORE PUSH1 0x20 PUSH1 0x4 DUP3 ADD MSTORE PUSH1 0x11 PUSH1 0x24 DUP3 ADD MSTORE PUSH17 0x24B73B30B634B2103234B6B2B739B4B7B7 PUSH1 0x79 SHL PUSH1 0x44 DUP3 ADD MSTORE PUSH1 0x64 SWAP1 REVERT JUMPDEST PUSH1 0xA0 DUP2 ADD SWAP1 DUP2 LT PUSH1 0x1 PUSH1 0x1 PUSH1 0x40 SHL SUB DUP3 GT OR PUSH2 0x678 JUMPI PUSH1 0x40 MSTORE JUMP JUMPDEST PUSH1 0xC0 DUP2 ADD SWAP1 DUP2 LT PUSH1 0x1 PUSH1 0x1 PUSH1 0x40 SHL SUB DUP3 GT OR PUSH2 0x678 JUMPI PUSH1 0x40 MSTORE JUMP JUMPDEST SWAP1 PUSH1 0x1F DUP1 NOT SWAP2 ADD AND DUP2 ADD SWAP1 DUP2 LT PUSH1 0x1 PUSH1 0x1 PUSH1 0x40 SHL SUB DUP3 GT OR PUSH2 0x678 JUMPI PUSH1 0x40 MSTORE JUMP JUMPDEST PUSH1 0x1 PUSH1 0x1 PUSH1 0x40 SHL SUB DUP2 GT PUSH2 0x678 JUMPI PUSH1 0x5 SHL PUSH1 0x20 ADD SWAP1 JUMP JUMPDEST SWAP3 SWAP2 PUSH2 0x1340 DUP3 PUSH2 0x131E JUMP JUMPDEST SWAP2 PUSH2 0x134E PUSH1 0x40 MLOAD SWAP4 DUP5 PUSH2 0x12FD JUMP JUMPDEST DUP3 SWAP5 DUP2 DUP5 MSTORE PUSH1 0x20 DUP1 SWAP5 ADD SWAP2 PUSH1 0x5 SHL DUP2 ADD SWAP3 DUP4 GT PUSH2 0x119 JUMPI SWAP1 JUMPDEST DUP3 DUP3 LT PUSH2 0x1374 JUMPI POP POP POP POP JUMP JUMPDEST DUP2 CALLDATALOAD DUP2 MSTORE SWAP1 DUP4 ADD SWAP1 DUP4 ADD PUSH2 0x1367 JUMP JUMPDEST PUSH1 0x2 PUSH1 0x1 SLOAD EQ PUSH2 0x1394 JUMPI PUSH1 0x2 PUSH1 0x1 SSTORE JUMP JUMPDEST PUSH1 0x40 MLOAD PUSH4 0x3EE5AEB5 PUSH1 0xE0 SHL DUP2 MSTORE PUSH1 0x4 SWAP1 REVERT JUMPDEST SWAP2 SWAP1 DUP3 ADD DUP1 SWAP3 GT PUSH2 0x633 JUMPI JUMP JUMPDEST PUSH1 0x0 NOT DUP2 EQ PUSH2 0x633 JUMPI PUSH1 0x1 ADD SWAP1 JUMP JUMPDEST ISZERO PUSH2 0x13C9 JUMPI JUMP JUMPDEST PUSH1 0x40 MLOAD PUSH3 0x461BCD PUSH1 0xE5 SHL DUP2 MSTORE PUSH1 0x20 PUSH1 0x4 DUP3 ADD MSTORE PUSH1 0x18 PUSH1 0x24 DUP3 ADD MSTORE PUSH32 0x50726F66696C6520766563746F72206E6F7420666F756E640000000000000000 PUSH1 0x44 DUP3 ADD MSTORE PUSH1 0x64 SWAP1 REVERT JUMPDEST DUP1 MLOAD ISZERO PUSH2 0x1245 JUMPI PUSH1 0x20 ADD SWAP1 JUMP JUMPDEST DUP1 MLOAD DUP3 LT ISZERO PUSH2 0x1245 JUMPI PUSH1 0x20 SWAP2 PUSH1 0x5 SHL ADD ADD SWAP1 JUMP JUMPDEST SWAP1 PUSH2 0x1439 DUP3 PUSH2 0x131E JUMP JUMPDEST PUSH2 0x1446 PUSH1 0x40 MLOAD SWAP2 DUP3 PUSH2 0x12FD JUMP JUMPDEST DUP3 DUP2 MSTORE DUP1 SWAP3 PUSH2 0x1457 PUSH1 0x1F NOT SWAP2 PUSH2 0x131E JUMP JUMPDEST ADD SWAP1 PUSH1 0x20 CALLDATASIZE SWAP2 ADD CALLDATACOPY JUMP JUMPDEST DUP2 ISZERO PUSH2 0x146B JUMPI DIV SWAP1 JUMP JUMPDEST PUSH4 0x4E487B71 PUSH1 0xE0 SHL PUSH1 0x0 MSTORE PUSH1 0x12 PUSH1 0x4 MSTORE PUSH1 0x24 PUSH1 0x0 REVERT JUMPDEST DUP2 DUP2 LT PUSH2 0x148C JUMPI POP POP JUMP JUMPDEST PUSH1 0x0 DUP2 SSTORE PUSH1 0x1 ADD PUSH2 0x1481 JUMP JUMPDEST PUSH1 0x4 SLOAD PUSH1 0x2 DUP2 LT PUSH2 0x1BAA JUMPI DUP1 ISZERO PUSH2 0x1245 JUMPI PUSH1 0x4 PUSH1 0x0 MSTORE PUSH1 0x40 MLOAD SWAP2 PUSH2 0x14BB DUP4 PUSH2 0x12C7 JUMP JUMPDEST PUSH32 0x8A35ACFBC15FF81A39AE7D344FD709F28E8600B4AA8C65C6B64BFE7FE36BD19B SLOAD PUSH1 0x1 PUSH1 0x1 PUSH1 0xA0 SHL SUB DUP2 AND DUP5 MSTORE PUSH1 0xA0 SHR PUSH1 0x1 PUSH1 0x1 PUSH1 0x40 SHL SUB AND PUSH1 0x20 DUP5 ADD MSTORE PUSH32 0x8A35ACFBC15FF81A39AE7D344FD709F28E8600B4AA8C65C6B64BFE7FE36BD19C SLOAD PUSH1 0x40 DUP5 ADD MSTORE PUSH32 0x8A35ACFBC15FF81A39AE7D344FD709F28E8600B4AA8C65C6B64BFE7FE36BD19D SLOAD PUSH1 0x60 DUP5 ADD MSTORE PUSH32 0x8A35ACFBC15FF81A39AE7D344FD709F28E8600B4AA8C65C6B64BFE7FE36BD19E SLOAD PUSH1 0x80 DUP5 ADD DUP2 SWAP1 MSTORE PUSH2 0x157A SWAP1 PUSH2 0x142F JUMP JUMPDEST PUSH2 0x1587 PUSH1 0x80 DUP6 ADD MLOAD PUSH2 0x142F JUMP JUMPDEST DUP5 MLOAD SWAP1 SWAP2 SWAP1 PUSH1 0x1 SWAP1 PUSH1 0x1 PUSH1 0x1 PUSH1 0xA0 SHL SUB AND PUSH2 0x15A1 DUP4 PUSH2 0x140E JUMP JUMPDEST MSTORE PUSH1 0x1 PUSH1 0x1 PUSH1 0x40 SHL SUB PUSH1 0x20 DUP8 ADD MLOAD AND PUSH2 0x15B9 DUP5 PUSH2 0x140E JUMP JUMPDEST MSTORE PUSH2 0x15C3 DUP6 PUSH2 0x142F JUMP JUMPDEST SWAP3 DUP2 SWAP5 PUSH1 0x0 PUSH2 0x15D1 DUP7 PUSH2 0x140E JUMP JUMPDEST MSTORE DUP3 JUMPDEST DUP8 DUP2 LT DUP1 PUSH2 0x1B9D JUMPI JUMPDEST ISZERO PUSH2 0x16AF JUMPI PUSH2 0x15EB DUP2 PUSH2 0x120B JUMP JUMPDEST POP PUSH1 0x40 MLOAD SWAP1 PUSH2 0x15F9 DUP3 PUSH2 0x12C7 JUMP JUMPDEST DUP1 SLOAD SWAP1 PUSH1 0x1 DUP1 PUSH1 0xA0 SHL SUB DUP3 AND DUP4 MSTORE PUSH1 0x1 PUSH1 0x1 PUSH1 0x40 SHL SUB DUP3 PUSH1 0xA0 SHR AND PUSH1 0x20 DUP5 ADD MSTORE PUSH1 0x1 DUP2 ADD SLOAD PUSH1 0x40 DUP5 ADD MSTORE PUSH1 0x3 PUSH1 0x2 DUP3 ADD SLOAD SWAP2 DUP3 PUSH1 0x60 DUP7 ADD MSTORE ADD SLOAD PUSH1 0x80 DUP5 ADD MSTORE PUSH1 0x80 DUP13 ADD MLOAD LT ISZERO PUSH2 0x1654 JUMPI JUMPDEST POP POP PUSH2 0x164F SWAP1 PUSH2 0x13B3 JUMP JUMPDEST PUSH2 0x15D4 JUMP JUMPDEST SWAP2 SWAP5 PUSH2 0x164F SWAP3 PUSH2 0x1692 SWAP3 PUSH1 0x1 PUSH1 0x1 PUSH1 0x40 SHL SUB SWAP2 PUSH1 0x20 SWAP2 SWAP1 PUSH1 0x1 PUSH1 0x1 PUSH1 0xA0 SHL SUB AND PUSH2 0x167E DUP6 DUP13 PUSH2 0x141B JUMP JUMPDEST MSTORE ADD MLOAD AND PUSH2 0x168C DUP3 DUP8 PUSH2 0x141B JUMP JUMPDEST MSTORE PUSH2 0x13B3 JUMP JUMPDEST SWAP4 DUP1 PUSH2 0x16A7 PUSH2 0x16A0 DUP11 PUSH2 0x13B3 JUMP JUMPDEST SWAP10 DUP10 PUSH2 0x141B JUMP JUMPDEST MSTORE SWAP1 CODESIZE PUSH2 0x1644 JUMP JUMPDEST POP SWAP7 PUSH1 0x60 SWAP2 SWAP7 POP SWAP4 SWAP2 SWAP4 ADD MLOAD DUP4 LT ISZERO PUSH2 0x16CA JUMPI JUMPDEST POP POP POP POP POP JUMP JUMPDEST PUSH2 0x16D6 DUP4 SWAP6 SWAP3 SWAP6 PUSH2 0x142F JUMP JUMPDEST SWAP4 PUSH2 0x16E0 DUP5 PUSH2 0x142F JUMP JUMPDEST SWAP6 PUSH1 0x0 SWAP4 PUSH1 0x0 SWAP2 JUMPDEST DUP7 DUP4 LT PUSH2 0x1B1A JUMPI POP POP POP PUSH1 0x5 SLOAD SWAP6 PUSH2 0x16FF DUP8 PUSH2 0x13B3 JUMP JUMPDEST PUSH1 0x5 SSTORE PUSH2 0x170C DUP6 DUP6 PUSH2 0x1461 JUMP JUMPDEST SWAP1 PUSH1 0x40 MLOAD SWAP2 PUSH2 0x171A DUP4 PUSH2 0x12E2 JUMP JUMPDEST DUP9 DUP4 MSTORE PUSH1 0x20 DUP4 ADD SWAP2 DUP9 DUP4 MSTORE PUSH1 0x40 DUP5 ADD MSTORE PUSH1 0x60 DUP4 ADD MSTORE TIMESTAMP PUSH1 0x80 DUP4 ADD MSTORE PUSH1 0x0 PUSH1 0xA0 DUP4 ADD MSTORE DUP8 PUSH1 0x0 MSTORE PUSH1 0x3 PUSH1 0x20 MSTORE PUSH1 0x40 PUSH1 0x0 KECCAK256 SWAP1 DUP3 MLOAD DUP3 SSTORE MLOAD DUP1 MLOAD SWAP1 PUSH1 0x1 PUSH1 0x1 PUSH1 0x40 SHL SUB DUP3 GT PUSH2 0x678 JUMPI PUSH1 0x1 PUSH1 0x40 SHL DUP3 GT PUSH2 0x678 JUMPI PUSH1 0x20 SWAP1 PUSH1 0x1 DUP5 ADD SLOAD DUP4 PUSH1 0x1 DUP7 ADD SSTORE DUP1 DUP5 LT PUSH2 0x1AFA JUMPI JUMPDEST POP ADD PUSH1 0x1 DUP4 ADD PUSH1 0x0 MSTORE PUSH1 0x20 PUSH1 0x0 KECCAK256 PUSH1 0x0 JUMPDEST DUP4 DUP2 LT PUSH2 0x1ADD JUMPI POP POP POP POP PUSH1 0x40 DUP3 ADD MLOAD DUP1 MLOAD SWAP1 PUSH1 0x1 PUSH1 0x1 PUSH1 0x40 SHL SUB DUP3 GT PUSH2 0x678 JUMPI PUSH1 0x1 PUSH1 0x40 SHL DUP3 GT PUSH2 0x678 JUMPI PUSH1 0x20 SWAP1 PUSH1 0x2 DUP5 ADD SLOAD DUP4 PUSH1 0x2 DUP7 ADD SSTORE DUP1 DUP5 LT PUSH2 0x1A8C JUMPI JUMPDEST POP ADD SWAP1 PUSH1 0x2 DUP4 ADD PUSH1 0x0 MSTORE PUSH1 0x20 PUSH1 0x0 KECCAK256 SWAP1 PUSH1 0x0 JUMPDEST DUP2 PUSH1 0x2 SHR DUP2 LT PUSH2 0x1A46 JUMPI POP PUSH1 0x3 NOT DUP2 AND DUP2 SUB PUSH2 0x19E6 JUMPI JUMPDEST POP POP POP PUSH1 0x5 PUSH1 0xA0 SWAP2 PUSH1 0x60 DUP5 ADD MLOAD PUSH1 0x3 DUP3 ADD SSTORE PUSH1 0x80 DUP5 ADD MLOAD PUSH1 0x4 DUP3 ADD SSTORE ADD SWAP2 ADD MLOAD PUSH1 0x4 DUP2 LT ISZERO PUSH2 0xE2B JUMPI PUSH1 0xFF DUP1 NOT DUP4 SLOAD AND SWAP2 AND OR SWAP1 SSTORE DUP1 JUMPDEST PUSH2 0x1892 JUMPI POP POP SWAP2 PUSH2 0x186B PUSH2 0x187F SWAP3 PUSH32 0xED8DF6391A376FAE78C8518BB7F495881599D1990B44FBA5E78B192CB9DF32EA SWAP5 PUSH2 0x1461 JUMP JUMPDEST PUSH1 0x40 MLOAD SWAP3 DUP4 SWAP3 PUSH1 0x40 DUP5 MSTORE PUSH1 0x40 DUP5 ADD SWAP1 PUSH2 0x11CE JUMP JUMPDEST SWAP1 PUSH1 0x20 DUP4 ADD MSTORE SUB SWAP1 LOG2 CODESIZE DUP1 DUP1 DUP1 DUP1 PUSH2 0x16C3 JUMP JUMPDEST PUSH1 0x0 NOT DUP2 DUP2 ADD DUP3 DUP2 GT PUSH2 0x633 JUMPI PUSH2 0x18A9 SWAP1 DUP5 PUSH2 0x141B JUMP JUMPDEST MLOAD PUSH1 0x4 SLOAD DUP1 DUP3 LT ISZERO PUSH2 0x19B1 JUMPI DUP3 DUP2 ADD SWAP1 DUP2 GT PUSH2 0x633 JUMPI PUSH2 0x18CB PUSH2 0x18D2 SWAP2 PUSH2 0x120B JUMP JUMPDEST POP SWAP2 PUSH2 0x120B JUMP JUMPDEST SWAP2 SWAP1 SWAP2 PUSH2 0x1923 JUMPI DUP1 DUP3 SUB PUSH2 0x194F JUMPI JUMPDEST POP POP PUSH1 0x4 SLOAD DUP1 ISZERO PUSH2 0x1939 JUMPI ADD PUSH2 0x18F6 DUP2 PUSH2 0x120B JUMP JUMPDEST PUSH2 0x1923 JUMPI PUSH1 0x3 DUP2 PUSH1 0x0 DUP1 SWAP4 SSTORE DUP3 PUSH1 0x1 DUP3 ADD SSTORE DUP3 PUSH1 0x2 DUP3 ADD SSTORE ADD SSTORE PUSH1 0x4 SSTORE DUP1 ISZERO PUSH2 0x633 JUMPI PUSH1 0x0 NOT ADD DUP1 PUSH2 0x1836 JUMP JUMPDEST PUSH4 0x4E487B71 PUSH1 0xE0 SHL PUSH1 0x0 MSTORE PUSH1 0x0 PUSH1 0x4 MSTORE PUSH1 0x24 PUSH1 0x0 REVERT JUMPDEST PUSH4 0x4E487B71 PUSH1 0xE0 SHL PUSH1 0x0 MSTORE PUSH1 0x31 PUSH1 0x4 MSTORE PUSH1 0x24 PUSH1 0x0 REVERT JUMPDEST DUP1 SLOAD DUP3 SLOAD PUSH1 0x1 PUSH1 0x1 PUSH1 0xA0 SHL SUB SWAP1 SWAP2 AND PUSH1 0x1 PUSH1 0x1 PUSH1 0xA0 SHL SUB NOT DUP3 AND DUP2 OR DUP5 SSTORE DUP3 SLOAD PUSH8 0xFFFFFFFFFFFFFFFF PUSH1 0xA0 SHL AND PUSH1 0x1 PUSH1 0x1 PUSH1 0xE0 SHL SUB NOT SWAP1 SWAP3 AND OR OR DUP3 SSTORE PUSH1 0x3 SWAP1 DUP2 SWAP1 PUSH1 0x1 DUP2 ADD SLOAD PUSH1 0x1 DUP6 ADD SSTORE PUSH1 0x2 DUP2 ADD SLOAD PUSH1 0x2 DUP6 ADD SSTORE ADD SLOAD SWAP2 ADD SSTORE CODESIZE DUP1 PUSH2 0x18E1 JUMP JUMPDEST PUSH1 0x40 MLOAD PUSH3 0x461BCD PUSH1 0xE5 SHL DUP2 MSTORE PUSH1 0x20 PUSH1 0x4 DUP3 ADD MSTORE PUSH1 0xD PUSH1 0x24 DUP3 ADD MSTORE PUSH13 0x92DCECC2D8D2C840D2DCC8CAF PUSH1 0x9B SHL PUSH1 0x44 DUP3 ADD MSTORE PUSH1 0x64 SWAP1 REVERT JUMPDEST PUSH1 0x0 SWAP3 PUSH1 0x0 JUMPDEST PUSH1 0x3 NOT DUP4 AND DUP4 SUB DUP2 LT PUSH2 0x1A0A JUMPI POP POP PUSH1 0x2 SHR ADD SSTORE PUSH1 0x5 PUSH1 0xA0 CODESIZE PUSH2 0x17FF JUMP JUMPDEST SWAP1 SWAP4 PUSH1 0x20 PUSH2 0x1A3D PUSH1 0x1 SWAP3 PUSH1 0x1 PUSH1 0x1 PUSH1 0x40 SHL SUB DUP9 MLOAD AND SWAP1 DUP6 PUSH1 0x3 SHL PUSH1 0x3 SHL SWAP2 PUSH1 0x1 PUSH1 0x1 PUSH1 0x40 SHL SUB DUP1 SWAP2 AND DUP4 SHL SWAP3 SHL NOT AND OR SWAP1 JUMP JUMPDEST SWAP6 ADD SWAP2 ADD PUSH2 0x19EC JUMP JUMPDEST PUSH1 0x0 DUP1 JUMPDEST PUSH1 0x4 DUP2 LT PUSH2 0x1A5F JUMPI POP DUP4 DUP3 ADD SSTORE PUSH1 0x1 ADD PUSH2 0x17E8 JUMP JUMPDEST DUP6 MLOAD SWAP1 SWAP6 SWAP2 PUSH1 0x1 SWAP2 PUSH1 0x20 SWAP2 PUSH1 0x1 PUSH1 0x1 PUSH1 0x40 SHL SUB PUSH1 0x6 DUP11 SWAP1 SHL DUP2 DUP2 SHL NOT SWAP1 SWAP3 AND SWAP3 AND SWAP1 SHL OR SWAP3 ADD SWAP6 ADD PUSH2 0x1A4A JUMP JUMPDEST PUSH2 0x1ABE SWAP1 PUSH1 0x2 DUP7 ADD PUSH1 0x0 MSTORE DUP4 PUSH1 0x0 KECCAK256 PUSH1 0x3 DUP1 DUP8 ADD PUSH1 0x2 SHR DUP3 ADD SWAP3 PUSH1 0x18 DUP9 DUP4 SHL AND DUP1 PUSH2 0x1AC4 JUMPI JUMPDEST POP ADD PUSH1 0x2 SHR ADD SWAP1 PUSH2 0x1481 JUMP JUMPDEST CODESIZE PUSH2 0x17D5 JUMP JUMPDEST PUSH1 0x0 NOT SWAP1 DUP2 DUP7 ADD SWAP2 DUP3 SLOAD SWAP2 DUP11 SUB DUP6 SHL SHR AND SWAP1 SSTORE CODESIZE PUSH2 0x1AB2 JUMP JUMPDEST DUP3 MLOAD PUSH1 0x1 PUSH1 0x1 PUSH1 0xA0 SHL SUB AND DUP2 DUP4 ADD SSTORE PUSH1 0x20 SWAP1 SWAP3 ADD SWAP2 PUSH1 0x1 ADD PUSH2 0x1793 JUMP JUMPDEST PUSH2 0x1B14 SWAP1 PUSH1 0x1 DUP7 ADD PUSH1 0x0 MSTORE DUP5 DUP5 PUSH1 0x0 KECCAK256 SWAP2 DUP3 ADD SWAP2 ADD PUSH2 0x1481 JUMP JUMPDEST CODESIZE PUSH2 0x1782 JUMP JUMPDEST SWAP2 SWAP5 SWAP1 SWAP2 SWAP1 PUSH2 0x1B96 SWAP1 PUSH2 0x1B90 SWAP1 PUSH1 0x1 PUSH1 0x1 PUSH1 0xA0 SHL SUB PUSH2 0x1B39 DUP10 DUP7 PUSH2 0x141B JUMP JUMPDEST MLOAD AND PUSH2 0x1B45 DUP10 DUP13 PUSH2 0x141B JUMP JUMPDEST MSTORE PUSH1 0x1 PUSH1 0x1 PUSH1 0x40 SHL SUB PUSH2 0x1B58 DUP10 DUP8 PUSH2 0x141B JUMP JUMPDEST MLOAD AND PUSH2 0x1B64 DUP10 DUP14 PUSH2 0x141B JUMP JUMPDEST MSTORE PUSH1 0x1 PUSH1 0x1 PUSH1 0xA0 SHL SUB PUSH2 0x1B77 DUP10 DUP7 PUSH2 0x141B JUMP JUMPDEST MLOAD AND PUSH1 0x0 MSTORE PUSH1 0x2 PUSH1 0x20 MSTORE PUSH1 0x1 PUSH1 0x40 PUSH1 0x0 KECCAK256 ADD SLOAD SWAP1 PUSH2 0x13A6 JUMP JUMPDEST SWAP6 PUSH2 0x13B3 JUMP JUMPDEST SWAP2 SWAP1 PUSH2 0x16E8 JUMP JUMPDEST POP PUSH1 0x80 DUP10 ADD MLOAD DUP5 LT PUSH2 0x15DD JUMP JUMPDEST POP JUMP JUMPDEST SWAP1 DUP2 MLOAD DUP1 DUP3 MSTORE PUSH1 0x20 DUP1 DUP1 SWAP4 ADD SWAP4 ADD SWAP2 PUSH1 0x0 JUMPDEST DUP3 DUP2 LT PUSH2 0x1BCD JUMPI POP POP POP POP SWAP1 JUMP JUMPDEST DUP4 MLOAD DUP6 MSTORE SWAP4 DUP2 ADD SWAP4 SWAP3 DUP2 ADD SWAP3 PUSH1 0x1 ADD PUSH2 0x1BBF JUMP JUMPDEST RETURNDATASIZE ISZERO PUSH2 0x1C1B JUMPI RETURNDATASIZE SWAP1 PUSH1 0x1 PUSH1 0x1 PUSH1 0x40 SHL SUB DUP3 GT PUSH2 0x678 JUMPI PUSH1 0x40 MLOAD SWAP2 PUSH2 0x1C0F PUSH1 0x1F DUP3 ADD PUSH1 0x1F NOT AND PUSH1 0x20 ADD DUP5 PUSH2 0x12FD JUMP JUMPDEST DUP3 MSTORE RETURNDATASIZE PUSH1 0x0 PUSH1 0x20 DUP5 ADD RETURNDATACOPY JUMP JUMPDEST PUSH1 0x60 SWAP1 JUMP JUMPDEST PUSH2 0x4E20 SWAP1 DUP2 GAS LT PUSH2 0x621 JUMPI PUSH1 0x40 SWAP2 DUP3 MLOAD SWAP2 PUSH1 0x20 SWAP2 DUP3 DUP5 ADD SWAP4 PUSH1 0x1 PUSH1 0x1 PUSH1 0x40 SHL SUB DUP1 SWAP4 AND DUP6 MSTORE DUP4 DUP2 MSTORE DUP6 DUP2 ADD SWAP2 DUP2 DUP4 LT DUP5 DUP5 GT OR PUSH2 0x678 JUMPI PUSH1 0x26 SWAP3 DUP8 MSTORE PUSH1 0x0 SWAP6 DUP7 SWAP4 DUP5 SWAP4 MLOAD SWAP3 STATICCALL SWAP4 PUSH2 0x1C6F PUSH2 0x1BE1 JUMP JUMPDEST SWAP5 ISZERO PUSH2 0x1D09 JUMPI DUP5 MLOAD DUP6 ADD SWAP2 DUP2 DUP7 DUP6 DUP6 ADD SWAP5 SUB SLT PUSH2 0x1D01 JUMPI DUP4 DUP7 ADD MLOAD SWAP6 DUP7 ISZERO ISZERO DUP8 SUB PUSH2 0x1D05 JUMPI DUP3 DUP2 ADD MLOAD SWAP2 DUP3 GT PUSH2 0x1D05 JUMPI ADD SWAP1 DUP3 PUSH1 0x3F DUP4 ADD SLT ISZERO PUSH2 0x1D01 JUMPI DUP4 DUP3 ADD MLOAD SWAP2 PUSH2 0x1CBA DUP4 PUSH2 0x131E JUMP JUMPDEST SWAP6 PUSH2 0x1CC7 DUP4 MLOAD SWAP8 DUP9 PUSH2 0x12FD JUMP JUMPDEST DUP4 DUP8 MSTORE DUP3 DUP7 DUP9 ADD SWAP5 PUSH1 0x5 SHL DUP4 ADD ADD SWAP5 DUP6 GT PUSH2 0x1CFE JUMPI POP ADD SWAP1 JUMPDEST DUP3 DUP3 LT PUSH2 0x1CEF JUMPI POP POP POP POP SWAP1 SWAP2 JUMP JUMPDEST DUP2 MLOAD DUP2 MSTORE SWAP1 DUP4 ADD SWAP1 DUP4 ADD PUSH2 0x1CE0 JUMP JUMPDEST DUP1 REVERT JUMPDEST DUP5 DUP1 REVERT JUMPDEST DUP6 DUP1 REVERT JUMPDEST MLOAD PUSH4 0x6F99E793 PUSH1 0xE0 SHL DUP2 MSTORE PUSH1 0x26 PUSH1 0x4 DUP3 ADD MSTORE PUSH1 0x24 SWAP1 REVERT JUMPDEST MLOAD SWAP1 PUSH1 0x1 PUSH1 0x1 PUSH1 0x40 SHL SUB DUP3 AND DUP3 SUB PUSH2 0x119 JUMPI JUMP JUMPDEST SWAP2 SWAP1 SWAP2 DUP1 MLOAD PUSH1 0x32 DUP2 MUL SWAP1 DUP1 DUP3 DIV PUSH1 0x32 EQ SWAP1 ISZERO OR ISZERO PUSH2 0x633 JUMPI PUSH2 0x88B8 SWAP1 DUP2 ADD DUP1 SWAP2 GT PUSH2 0x633 JUMPI DUP4 MLOAD PUSH1 0xC8 DUP2 MUL SWAP1 DUP1 DUP3 DIV PUSH1 0xC8 EQ SWAP1 ISZERO OR ISZERO PUSH2 0x633 JUMPI PUSH2 0x1D77 SWAP2 PUSH2 0x13A6 JUMP JUMPDEST DUP1 GAS LT PUSH2 0x621 JUMPI PUSH1 0x40 MLOAD SWAP2 PUSH1 0x20 SWAP3 PUSH2 0x1DA1 DUP5 DUP3 ADD SWAP3 PUSH1 0x2 DUP5 MSTORE PUSH1 0x80 PUSH1 0x40 DUP5 ADD MSTORE PUSH1 0xA0 DUP4 ADD SWAP1 PUSH2 0x1BAD JUMP JUMPDEST SWAP6 PUSH1 0x1F NOT SWAP7 DUP8 DUP4 DUP3 SUB ADD PUSH1 0x60 DUP5 ADD MSTORE DUP6 DUP1 DUP4 MLOAD SWAP3 DUP4 DUP2 MSTORE ADD SWAP3 ADD SWAP1 PUSH1 0x0 JUMPDEST DUP2 DUP2 LT PUSH2 0x1E39 JUMPI POP POP POP PUSH1 0x27 DUP3 PUSH2 0x1DED PUSH1 0x0 SWAP8 SWAP9 SWAP10 DUP3 DUP10 SWAP9 SWAP8 SWAP7 SWAP6 DUP10 PUSH1 0x80 DUP2 SWAP9 ADD MSTORE SUB SWAP1 DUP2 ADD DUP4 MSTORE DUP3 PUSH2 0x12FD JUMP JUMPDEST MLOAD SWAP4 CALL SWAP1 PUSH2 0x1DF9 PUSH2 0x1BE1 JUMP JUMPDEST SWAP2 ISZERO PUSH2 0x1E20 JUMPI PUSH1 0x40 DUP3 DUP1 MLOAD DUP2 ADD SUB SLT PUSH2 0x119 JUMPI PUSH2 0x1E19 PUSH1 0x40 SWAP2 DUP4 ADD PUSH2 0x1D20 JUMP JUMPDEST SWAP2 ADD MLOAD SWAP1 SWAP2 JUMP JUMPDEST PUSH1 0x40 MLOAD PUSH4 0x6F99E793 PUSH1 0xE0 SHL DUP2 MSTORE PUSH1 0x27 PUSH1 0x4 DUP3 ADD MSTORE PUSH1 0x24 SWAP1 REVERT JUMPDEST DUP3 MLOAD DUP5 MSTORE SWAP3 DUP8 ADD SWAP3 SWAP2 DUP8 ADD SWAP2 PUSH1 0x1 ADD PUSH2 0x1DBF JUMP INVALID LOG2 PUSH5 0x6970667358 0x22 SLT KECCAK256 PUSH24 0x499050AFD77F7F4375A9343D49092DFDCE75E241B69D793E 0xDD 0x26 0x23 0xCF CODECOPY 0xDD REVERT PUSH5 0x736F6C6343 STOP ADDMOD EQ STOP CALLER "},"methodIdentifiers":{"MAX_PLAYERS_PER_MATCH()":"f3226aa4","MAX_SIMILARITY()":"edb18822","MIN_SIMILARITY()":"ac01d9ea","PROFILE_COOLDOWN()":"205a6d87","classifyTier(address)":"9752d538","embeddingDimension()":"fd7288c0","findSimilarPlayers(address,uint256)":"423f4943","getMatch(uint256)":"3d092b3d","getProfile(address)":"0f53a470","getQueueLength()":"b8f77005","matchQueue(uint256)":"6a4f29c2","matches(uint256)":"4768d4ef","nextMatchId()":"c5adf7c9","owner()":"8da5cb5b","profiles(address)":"bbe15627","registerProfile(int256[],bytes32[])":"17d64572","renounceOwnership()":"715018a6","requestMatch(uint256,uint256)":"b0f9c410","transferOwnership(address)":"f2fde38b","updateProfile(int256[],bytes32[])":"826a0a53"}}}}}