{"src/examples/TrustGraph.sol":{"TrustGraph":{"abi":[{"inputs":[{"internalType":"uint256","name":"dimension_","type":"uint256"},{"internalType":"uint256","name":"minConfidence_","type":"uint256"}],"stateMutability":"nonpayable","type":"constructor"},{"inputs":[{"internalType":"address","name":"user","type":"address"}],"name":"AlreadyVerified","type":"error"},{"inputs":[{"internalType":"address","name":"user","type":"address"}],"name":"InsufficientData","type":"error"},{"inputs":[],"name":"InsufficientGas","type":"error"},{"inputs":[{"internalType":"uint256","name":"confidence","type":"uint256"}],"name":"InvalidConfidence","type":"error"},{"inputs":[{"internalType":"address","name":"owner","type":"address"}],"name":"OwnableInvalidOwner","type":"error"},{"inputs":[{"internalType":"address","name":"account","type":"address"}],"name":"OwnableUnauthorizedAccount","type":"error"},{"inputs":[{"internalType":"address","name":"precompile","type":"address"}],"name":"PrecompileCallFailed","type":"error"},{"inputs":[{"internalType":"address","name":"user","type":"address"}],"name":"ProfileNotFound","type":"error"},{"inputs":[],"name":"ReentrancyGuardReentrantCall","type":"error"},{"inputs":[{"internalType":"address","name":"attester","type":"address"}],"name":"UnauthorizedAttester","type":"error"},{"anonymous":false,"inputs":[{"indexed":true,"internalType":"address","name":"user","type":"address"},{"indexed":true,"internalType":"address","name":"attester","type":"address"},{"indexed":false,"internalType":"enum TrustGraph.TrustLevel","name":"level","type":"uint8"}],"name":"AttestationReceived","type":"event"},{"anonymous":false,"inputs":[{"indexed":true,"internalType":"address","name":"previousOwner","type":"address"},{"indexed":true,"internalType":"address","name":"newOwner","type":"address"}],"name":"OwnershipTransferred","type":"event"},{"anonymous":false,"inputs":[{"indexed":true,"internalType":"address","name":"user","type":"address"},{"indexed":false,"internalType":"uint64","name":"vectorId","type":"uint64"}],"name":"ProfileCreated","type":"event"},{"anonymous":false,"inputs":[{"indexed":false,"internalType":"enum TrustGraph.TrustLevel","name":"level","type":"uint8"},{"indexed":false,"internalType":"uint64","name":"vectorId","type":"uint64"}],"name":"ReferenceProfileAdded","type":"event"},{"anonymous":false,"inputs":[{"indexed":true,"internalType":"address","name":"user","type":"address"},{"indexed":false,"internalType":"enum TrustGraph.TrustLevel","name":"level","type":"uint8"},{"indexed":false,"internalType":"uint256","name":"confidence","type":"uint256"}],"name":"TrustClassified","type":"event"},{"anonymous":false,"inputs":[{"indexed":true,"internalType":"address","name":"user","type":"address"},{"indexed":false,"internalType":"enum TrustGraph.TrustLevel","name":"from","type":"uint8"},{"indexed":false,"internalType":"enum TrustGraph.TrustLevel","name":"to","type":"uint8"}],"name":"TrustLevelDowngraded","type":"event"},{"anonymous":false,"inputs":[{"indexed":true,"internalType":"address","name":"user","type":"address"},{"indexed":false,"internalType":"enum TrustGraph.TrustLevel","name":"from","type":"uint8"},{"indexed":false,"internalType":"enum TrustGraph.TrustLevel","name":"to","type":"uint8"}],"name":"TrustLevelUpgraded","type":"event"},{"inputs":[],"name":"WEIGHT_THRESHOLD","outputs":[{"internalType":"uint256","name":"","type":"uint256"}],"stateMutability":"view","type":"function"},{"inputs":[{"internalType":"enum TrustGraph.TrustLevel","name":"level","type":"uint8"},{"internalType":"int256[]","name":"embedding","type":"int256[]"},{"internalType":"uint256","name":"weight","type":"uint256"}],"name":"addReferenceProfile","outputs":[{"internalType":"uint64","name":"vectorId","type":"uint64"}],"stateMutability":"nonpayable","type":"function"},{"inputs":[{"internalType":"address","name":"attester","type":"address"}],"name":"approveAttester","outputs":[],"stateMutability":"nonpayable","type":"function"},{"inputs":[{"internalType":"address","name":"","type":"address"}],"name":"approvedAttesters","outputs":[{"internalType":"bool","name":"","type":"bool"}],"stateMutability":"view","type":"function"},{"inputs":[{"internalType":"address","name":"user","type":"address"},{"internalType":"enum TrustGraph.TrustLevel","name":"level","type":"uint8"},{"internalType":"uint256","name":"weight","type":"uint256"},{"internalType":"string","name":"reason","type":"string"}],"name":"attest","outputs":[],"stateMutability":"nonpayable","type":"function"},{"inputs":[{"internalType":"address","name":"","type":"address"},{"internalType":"uint256","name":"","type":"uint256"}],"name":"attestations","outputs":[{"internalType":"address","name":"attester","type":"address"},{"internalType":"enum TrustGraph.TrustLevel","name":"attestedLevel","type":"uint8"},{"internalType":"uint256","name":"weight","type":"uint256"},{"internalType":"uint256","name":"timestamp","type":"uint256"},{"internalType":"string","name":"reason","type":"string"}],"stateMutability":"view","type":"function"},{"inputs":[{"internalType":"address","name":"user","type":"address"}],"name":"classifyTrust","outputs":[{"internalType":"enum TrustGraph.TrustLevel","name":"level","type":"uint8"},{"internalType":"uint256","name":"confidence","type":"uint256"}],"stateMutability":"nonpayable","type":"function"},{"inputs":[],"name":"embeddingDimension","outputs":[{"internalType":"uint256","name":"","type":"uint256"}],"stateMutability":"view","type":"function"},{"inputs":[{"internalType":"address","name":"user","type":"address"}],"name":"getAttestationScore","outputs":[{"internalType":"uint256","name":"totalWeight","type":"uint256"},{"internalType":"uint256","name":"avgLevel","type":"uint256"}],"stateMutability":"view","type":"function"},{"inputs":[{"internalType":"address","name":"user","type":"address"}],"name":"getAttestations","outputs":[{"components":[{"internalType":"address","name":"attester","type":"address"},{"internalType":"enum TrustGraph.TrustLevel","name":"attestedLevel","type":"uint8"},{"internalType":"uint256","name":"weight","type":"uint256"},{"internalType":"uint256","name":"timestamp","type":"uint256"},{"internalType":"string","name":"reason","type":"string"}],"internalType":"struct TrustGraph.Attestation[]","name":"","type":"tuple[]"}],"stateMutability":"view","type":"function"},{"inputs":[{"internalType":"address","name":"user","type":"address"}],"name":"getProfile","outputs":[{"components":[{"internalType":"uint64","name":"vectorId","type":"uint64"},{"internalType":"enum TrustGraph.TrustLevel","name":"level","type":"uint8"},{"internalType":"uint256","name":"confidence","type":"uint256"},{"internalType":"uint256","name":"positiveActions","type":"uint256"},{"internalType":"uint256","name":"negativeActions","type":"uint256"},{"internalType":"uint256","name":"lastUpdated","type":"uint256"},{"internalType":"bool","name":"isVerified","type":"bool"}],"internalType":"struct TrustGraph.TrustProfile","name":"","type":"tuple"}],"stateMutability":"view","type":"function"},{"inputs":[{"internalType":"address","name":"user","type":"address"}],"name":"getTrustLevel","outputs":[{"internalType":"enum TrustGraph.TrustLevel","name":"level","type":"uint8"},{"internalType":"uint256","name":"confidence","type":"uint256"},{"internalType":"bool","name":"isStale","type":"bool"}],"stateMutability":"view","type":"function"},{"inputs":[{"internalType":"address","name":"attester","type":"address"}],"name":"isApprovedAttester","outputs":[{"internalType":"bool","name":"","type":"bool"}],"stateMutability":"view","type":"function"},{"inputs":[{"internalType":"address","name":"user","type":"address"},{"internalType":"enum TrustGraph.TrustLevel","name":"minLevel","type":"uint8"}],"name":"meetsTrustRequirement","outputs":[{"internalType":"bool","name":"meets","type":"bool"},{"internalType":"enum TrustGraph.TrustLevel","name":"actual","type":"uint8"}],"stateMutability":"view","type":"function"},{"inputs":[],"name":"minConfidence","outputs":[{"internalType":"uint256","name":"","type":"uint256"}],"stateMutability":"view","type":"function"},{"inputs":[],"name":"owner","outputs":[{"internalType":"address","name":"","type":"address"}],"stateMutability":"view","type":"function"},{"inputs":[{"internalType":"address","name":"","type":"address"}],"name":"profiles","outputs":[{"internalType":"uint64","name":"vectorId","type":"uint64"},{"internalType":"enum TrustGraph.TrustLevel","name":"level","type":"uint8"},{"internalType":"uint256","name":"confidence","type":"uint256"},{"internalType":"uint256","name":"positiveActions","type":"uint256"},{"internalType":"uint256","name":"negativeActions","type":"uint256"},{"internalType":"uint256","name":"lastUpdated","type":"uint256"},{"internalType":"bool","name":"isVerified","type":"bool"}],"stateMutability":"view","type":"function"},{"inputs":[{"internalType":"enum TrustGraph.TrustLevel","name":"","type":"uint8"},{"internalType":"uint256","name":"","type":"uint256"}],"name":"referenceProfiles","outputs":[{"internalType":"uint64","name":"vectorId","type":"uint64"},{"internalType":"enum TrustGraph.TrustLevel","name":"level","type":"uint8"},{"internalType":"uint256","name":"weight","type":"uint256"}],"stateMutability":"view","type":"function"},{"inputs":[{"internalType":"address","name":"user","type":"address"},{"internalType":"int256[]","name":"behaviorEmbedding","type":"int256[]"},{"internalType":"bytes32[]","name":"tags","type":"bytes32[]"}],"name":"registerProfile","outputs":[{"internalType":"uint64","name":"vectorId","type":"uint64"}],"stateMutability":"nonpayable","type":"function"},{"inputs":[],"name":"renounceOwnership","outputs":[],"stateMutability":"nonpayable","type":"function"},{"inputs":[{"internalType":"address","name":"attester","type":"address"}],"name":"revokeAttester","outputs":[],"stateMutability":"nonpayable","type":"function"},{"inputs":[{"internalType":"uint256","name":"newMinConfidence","type":"uint256"}],"name":"setMinConfidence","outputs":[],"stateMutability":"nonpayable","type":"function"},{"inputs":[{"internalType":"address","name":"newOwner","type":"address"}],"name":"transferOwnership","outputs":[],"stateMutability":"nonpayable","type":"function"},{"inputs":[{"internalType":"address","name":"user","type":"address"}],"name":"verifyUser","outputs":[],"stateMutability":"nonpayable","type":"function"}],"evm":{"bytecode":{"linkReferences":{},"object":"6080346100c257601f611f8538819003918201601f19168301916001600160401b038311848410176100c75780849260409485528339810103126100c2576020815191015133156100a95760008054336001600160a01b0319821681178355604051949290916001600160a01b0316907f8be0079c531659141344cd1fd0a4f28419497f9722a3daafe3b4186f6b6457e09080a360018055600655600755611ea790816100de8239f35b604051631e4fbdf760e01b815260006004820152602490fd5b600080fd5b634e487b7160e01b600052604160045260246000fdfe6080604052600436101561001257600080fd5b60003560e01c80630178a097146112f65780630d859d4f146110ee5780630f53a47014610fdd57806311b0c89e14610fae578063206df50914610f6c5780634d81312014610e8157806355b3a48914610e115780635764390c14610da75780635e7cf5ab14610d625780636a4b783d14610d23578063715018a614610cca5780637a6cfe4c146104f25780638da5cb5b14610ca15780639447fc8014610747578063a37e7e9c1461072a578063aba6466c146105c4578063bbe1562714610531578063bcb3e5c2146104f2578063c657c6a51461044e578063d18eae181461023d578063d292b610146101f3578063d52b7a14146101d5578063f2fde38b146101475763fd7288c01461012457600080fd5b34610142576000366003190112610142576020600654604051908152f35b600080fd5b34610142576020366003190112610142576101606116bd565b610168611909565b6001600160a01b039081169081156101bc57600054826bffffffffffffffffffffffff60a01b821617600055167f8be0079c531659141344cd1fd0a4f28419497f9722a3daafe3b4186f6b6457e0600080a3005b604051631e4fbdf760e01b815260006004820152602490fd5b34610142576000366003190112610142576020600754604051908152f35b346101425760403660031901126101425761020c6116bd565b60243560058110156101425761022761023b91604093611aa8565b839291925192151583526020830190611703565bf35b34610142576060366003190112610142576102566116bd565b6001600160401b03602435818111610142576102769036906004016116d3565b926044358381116101425761028f9036906004016116d3565b9091610299611a09565b6102a66006548714611935565b60018060a01b0316928360005260209560028752856040600020541661041857906102d291369161198c565b906102dc81611975565b926102ea6040519485611842565b8184528684019160051b810191368311610142578791905b83821061040957505050509061031791611d50565b509180604051936103278561180c565b16928381528481019060008252604081019160008352606082016000815260808301906000825260a084019242845260c0850196600088528860005260028b5260406000209551166001600160401b0319865416178555519460058610156103f357610395600596866119e6565b516001850155516002840155516003830155516004820155019051151560ff801983541691161790557f078d4fa2486395cfaad46f60a48aa1cc44d49e22b87dffce4804d31f2265f8f283604051848152a260018055604051908152f35b634e487b7160e01b600052602160045260246000fd5b81358152908201908201610302565b60405162461bcd60e51b815260048101889052600e60248201526d50726f66696c652065786973747360901b6044820152606490fd5b34610142576040366003190112610142576104676116bd565b6001600160a01b039081166000908152600360205260409020805460243590811015610142576104969161179b565b50906104ee8254926001810154906104b5600360028301549201611863565b916104d36040519687968116875260ff602088019160a01c16611703565b6040850152606084015260a0608084015260a083019061175b565b0390f35b34610142576020366003190112610142576001600160a01b036105136116bd565b166000526004602052602060ff604060002054166040519015158152f35b34610142576020366003190112610142576001600160a01b036105526116bd565b16600052600260205260e06040600020805490600181015490600281015460038201549060ff6005600485015494015416936105a7604051966001600160401b038116885260ff602089019160401c16611703565b60408601526060850152608084015260a0830152151560c0820152f35b3461014257602080600319360112610142576001600160a01b0390816105e86116bd565b16600052600390818152604060002090815461060381611975565b936106116040519586611842565b81855260009384528284208386019491855b8484106106c7575050505050604051928184019082855251809152604084019160408260051b86010193926000965b83881061065f5786860387f35b909192939483806106b6600193603f198b8203018752895186815116825261068d8482015185840190611703565b60408101516040830152606080820151908301526080809101519160a08092820152019061175b565b970193019701969093929193610652565b6004866001928b6106f660ff60409d9b9d51926106e3846117f1565b8954908116845260a01c168483016119da565b84870154604082015260028701546060820152610714868801611863565b6080820152815201930193019291969496610623565b346101425760003660031901126101425760206040516103e88152f35b34610142576020366003190112610142576107606116bd565b610768611a09565b6001600160a01b0381166000908152600260205260409020805491906001600160401b0383168015610c8057614e2090815a10610bb0576000918291602660405160208101928352602081526107bd81611827565b5192fa916107c9611d20565b9215610c675782518301926040816020860195031261014257602081015190811591821503610142576040810151906001600160401b03821161014257019380603f8601121561014257602085015161082181611975565b9561082f6040519788611842565b8187526040602088019260051b82010192831161014257604001905b828210610c5757505050610c1f576003610863611c92565b10610bfd57610870611c92565b9061087a82611975565b916108886040519384611842565b808352610897601f1991611975565b0160005b818110610bd857505060009260005b60ff8116600481116109475760058110156103f3576108c881611710565b906000918054915b8284106108e957505050506108e490611c81565b6108aa565b9091929761093961093f916001600160401b036109068c87611729565b5054166040519061091682611827565b8152846020820152610928828c611c6d565b52610933818b611c6d565b50611b4a565b98611b4a565b9291906108d0565b50508585848051606481029080820460641490151715610bc2576161a8918183018311610bc2578183015a10610bb05761098f60405194606060208701526080860190611cec565b601f198582030160408601526020808351928381520192019060005b818110610b7f5750505091602284926109d88460009796600560608a99015203601f198101865285611842565b6020845194019201fa916109ea611d20565b9215610b66576040838051810103126101425760208301519263ffffffff841680940361014257604001519160058410156103f357600754831015610a44575b600180556040805184610a3d8288611703565b6020820152f35b60401c60ff1690610a5584826119e6565b826001820155600442910155604051610a6e8185611703565b602081018390526001600160a01b038516907fa39921d83bfe9a4d65a5f7b2cec562272a07adc77d548d61778393b77f462f4190604090a260058110156103f35760409381841115610b0957847f114d7c5d0b4becadc8a15a2e15ba583cf837f45c56074a00d9654db70d22af6e91610ae982518095611703565b610af66020850187611703565b6001600160a01b031692a25b8380610a2a565b818410610b18575b5050610b02565b847f4c400b95222c423e9a56d24277ad5f9e543875db4c7a1a709bea2bedb580096e91610b4782518095611703565b610b546020850187611703565b6001600160a01b031692a28380610b11565b604051636f99e79360e01b815260226004820152602490fd5b825180516001600160401b0316855260209081015163ffffffff1681860152604090940193909201916001016109ab565b6040516307099c5360e21b8152600490fd5b634e487b7160e01b600052601160045260246000fd5b602090604051610be781611827565b600081526000838201528282870101520161089b565b604051636d50816b60e01b81526001600160a01b039091166004820152602490fd5b60405162461bcd60e51b815260206004820152601060248201526f159958dd1bdc881b9bdd08199bdd5b9960821b6044820152606490fd5b815181526020918201910161084b565b604051636f99e79360e01b815260266004820152602490fd5b60405163c23cb52560e01b81526001600160a01b0384166004820152602490fd5b34610142576000366003190112610142576000546040516001600160a01b039091168152602090f35b3461014257600036600319011261014257610ce3611909565b600080546001600160a01b0319811682556001600160a01b03167f8be0079c531659141344cd1fd0a4f28419497f9722a3daafe3b4186f6b6457e08280a3005b34610142576020366003190112610142576060610d46610d416116bd565b611a39565b90610d546040518094611703565b602083015215156040820152f35b3461014257602036600319011261014257610d7b6116bd565b610d83611909565b6001600160a01b03166000908152600460205260409020805460ff19166001179055005b3461014257602036600319011261014257600435610dc3611909565b670de0b6b3a76400008111610dd757600755005b60405162461bcd60e51b8152602060048201526012602482015271496e76616c696420636f6e666964656e636560701b6044820152606490fd5b3461014257604036600319011261014257600435600581101561014257610e3a60243591611710565b805482101561014257606091610e4f91611729565b5060018154910154610e7a604051926001600160401b038116845260ff602085019160401c16611703565b6040820152f35b3461014257602036600319011261014257610e9a6116bd565b610ea2611909565b6001600160a01b0316600081815260026020526040902080546001600160401b03811615610f535760058201805460ff8116610f3a579268040000000000000000604093600193847fa39921d83bfe9a4d65a5f7b2cec562272a07adc77d548d61778393b77f462f419760ff191617905560ff60401b1916178155670de0b6b3a76400009182910155815190600482526020820152a2005b6040516341b77a2960e11b815260048101869052602490fd5b60405163c23cb52560e01b815260048101849052602490fd5b3461014257602036600319011261014257610f856116bd565b610f8d611909565b6001600160a01b03166000908152600460205260409020805460ff19169055005b34610142576020366003190112610142576040610fd1610fcc6116bd565b611b59565b82519182526020820152f35b3461014257602036600319011261014257610ff66116bd565b600060c06040516110068161180c565b8281528260208201528260408201528260608201528260808201528260a0820152015260018060a01b0316600052600260205260e060406000206040519061104d8261180c565b8054906001600160401b0391828116845261107260ff602086019260401c16826119da565b600182015460408501908152600283015490606086019182526110cc6003850154936080880194855260ff600560048801549760a08b019889520154169660c0890197151588526040519851168852516020880190611703565b5160408601525160608501525160808401525160a083015251151560c0820152f35b34610142576060366003190112610142576004356005811015610142576024906001600160401b039082358281116101425761112e9036906004016116d3565b9390611138611909565b6111456006548614611935565b6040519061115282611827565b6001825260209586830187368237604051888101906040825260096060820152687265666572656e636560b81b608082015260ff881660408201526080815261119a816117f1565b519020908451156112e157526111bb92916111b691369161198c565b611d50565b50906111c683611710565b906040519260608401848110878211176112cc57604052851680845294868401906111f186836119da565b60408501936044358552805490600160401b8210156112b7579061121a91600182018155611729565b9590956112a25751166001600160401b03198554161784555190600582101561128e57509160017fae7149c1d2998704319bd4f12fa88b5554082076e576ceecc66ed848f273b8779492611270604095846119e6565b5191015561128082518092611703565b8385820152a1604051908152f35b634e487b7160e01b60009081526021600452fd5b83634e487b7160e01b60005260006004526000fd5b84634e487b7160e01b60005260416004526000fd5b82634e487b7160e01b60005260416004526000fd5b85634e487b7160e01b60005260326004526000fd5b346101425760803660031901126101425761130f6116bd565b60056024351015610142576001600160401b036064351161014257366023606435011215610142576001600160401b036064356004013511610142573660246064356004013560643501011161014257611367611a09565b33600052600460205260ff60406000205416156116a55760018060a01b03811660005260026020526040600020906001600160401b03825416156116835760018060a01b0381166000526003602052604060002091604051926113c9846117f1565b3384526113db602435602086016119da565b60443560408501524260608501526113f860643560040135611b2f565b6114056040519182611842565b606435600481013580835290602401602083013760006020606435600401358301015260808501528054600160401b8110156116575761144a9160018201815561179b565b61166d57835181546001600160a01b039091166001600160a01b031982168117835560208601519092909160058310156103f35760809360039360ff60a01b9060a01b16916affffffffffffffffffffff60a81b16171781556040860151600182015560608601516002820155019301519283516001600160401b038111611657576114d682546117b7565b601f811161160f575b50602094601f82116001146115a95794819293949560009261159e575b50508160011b916000199060031b1c19161790555b6003602435106115755760020161152b6044358254611a2c565b90555b60405161153d81602435611703565b33916001600160a01b0316907f27748f6f2821deda758d99e06b4fb87ea481ca59635389b92420b29f0f58982e90602090a360018055005b600160243514611586575b5061152e565b6003016115966044358254611a2c565b905581611580565b0151905085806114fc565b601f198216958360005260206000209160005b8881106115f7575083600195969798106115de575b505050811b019055611511565b015160001960f88460031b161c191690558580806115d1565b919260206001819286850151815501940192016115bc565b826000526020600020601f830160051c8101916020841061164d575b601f0160051c01905b81811061164157506114df565b60008155600101611634565b909150819061162b565b634e487b7160e01b600052604160045260246000fd5b634e487b7160e01b600052600060045260246000fd5b60405163c23cb52560e01b81526001600160a01b039091166004820152602490fd5b6040516349b49dbd60e11b8152336004820152602490fd5b600435906001600160a01b038216820361014257565b9181601f84011215610142578235916001600160401b038311610142576020808501948460051b01011161014257565b9060058210156103f35752565b60058110156103f3576000526005602052604060002090565b80548210156117455760005260206000209060011b0190600090565b634e487b7160e01b600052603260045260246000fd5b919082519283825260005b848110611787575050826000602080949584010152601f8019910116010190565b602081830181015184830182015201611766565b80548210156117455760005260206000209060021b0190600090565b90600182811c921680156117e7575b60208310146117d157565b634e487b7160e01b600052602260045260246000fd5b91607f16916117c6565b60a081019081106001600160401b0382111761165757604052565b60e081019081106001600160401b0382111761165757604052565b604081019081106001600160401b0382111761165757604052565b90601f801991011681019081106001600160401b0382111761165757604052565b9060405191826000825492611877846117b7565b9081845260019485811690816000146118e657506001146118a3575b50506118a192500383611842565b565b9093915060005260209081600020936000915b8183106118ce5750506118a193508201013880611893565b855488840185015294850194879450918301916118b6565b9150506118a194506020925060ff191682840152151560051b8201013880611893565b6000546001600160a01b0316330361191d57565b60405163118cdaa760e01b8152336004820152602490fd5b1561193c57565b60405162461bcd60e51b815260206004820152601160248201527024b73b30b634b2103234b6b2b739b4b7b760791b6044820152606490fd5b6001600160401b0381116116575760051b60200190565b929161199782611975565b916119a56040519384611842565b829481845260208094019160051b810192831161014257905b8282106119cb5750505050565b813581529083019083016119be565b60058210156103f35752565b9060058110156103f35760ff60401b82549160401b169060ff60401b1916179055565b600260015414611a1a576002600155565b604051633ee5aeb560e01b8152600490fd5b91908201809211610bc257565b6001600160a01b031660009081526002602052604081208054919290916001600160401b03811615611a9f5760ff9060401c1692600460018401549301549062093a808201809211611a8b5750421190565b634e487b7160e01b81526011600452602490fd5b50829150600190565b6001600160a01b03166000908152600260205260408120549091906001600160401b03811615611b095760401c60ff16916005831015611af5576005821015611af5575060ff1681101591565b634e487b7160e01b81526021600452602490fd5b506005819392931015611b1b57159190565b634e487b7160e01b83526021600452602483fd5b6001600160401b03811161165757601f01601f191660200190565b6000198114610bc25760010190565b6001600160a01b0316600090815260036020526040812080549192919083908215611c655791819282915b808310611bc957505050670de0b6b3a764000091828102928184041490151715611a8b578315611bb5575082900490565b634e487b7160e01b81526012600452602490fd5b90919395611be8611bda868561179b565b509160018093015490611a2c565b9660ff611bf5878661179b565b505460a01c16916005831015611c5157611c0f878661179b565b50015491828102928184041490151715611c3d57611c3691611c3091611a2c565b94611b4a565b9190611b84565b634e487b7160e01b85526011600452602485fd5b634e487b7160e01b86526021600452602486fd5b509250508190565b80518210156117455760209160051b010190565b60ff1660ff8114610bc25760010190565b600080805b60ff82166004808211611ce4576005821015611cd15750611ccb91611cbe611cc592611710565b5490611a2c565b91611c81565b90611c97565b634e487b7160e01b855260219052602484fd5b505092915050565b90815180825260208080930193019160005b828110611d0c575050505090565b835185529381019392810192600101611cfe565b3d15611d4b573d90611d3182611b2f565b91611d3f6040519384611842565b82523d6000602084013e565b606090565b9190918051603281029080820460321490151715610bc2576188b8908101809111610bc257835160c881029080820460c81490151715610bc257611d9391611a2c565b805a10610bb05760405191602092611dbd84820192600384526080604084015260a0830190611cec565b95601f19968783820301606084015285808351928381520192019060005b818110611e5d57505050602782611e0960009798998289989796958960808198015203908101835282611842565b5193f190611e15611d20565b9115611e445760408280518101031261014257810151906001600160401b038216820361014257604001519091565b604051636f99e79360e01b815260276004820152602490fd5b825184529287019291870191600101611ddb56fea2646970667358221220aca38664f966cd0c4787db15ae827dfcee52c858c2a5fdc9507abf1efc28d57b64736f6c63430008140033","opcodes":"PUSH1 0x80 CALLVALUE PUSH2 0xC2 JUMPI PUSH1 0x1F PUSH2 0x1F85 CODESIZE DUP2 SWAP1 SUB SWAP2 DUP3 ADD PUSH1 0x1F NOT AND DUP4 ADD SWAP2 PUSH1 0x1 PUSH1 0x1 PUSH1 0x40 SHL SUB DUP4 GT DUP5 DUP5 LT OR PUSH2 0xC7 JUMPI DUP1 DUP5 SWAP3 PUSH1 0x40 SWAP5 DUP6 MSTORE DUP4 CODECOPY DUP2 ADD SUB SLT PUSH2 0xC2 JUMPI PUSH1 0x20 DUP2 MLOAD SWAP2 ADD MLOAD CALLER ISZERO PUSH2 0xA9 JUMPI PUSH1 0x0 DUP1 SLOAD CALLER PUSH1 0x1 PUSH1 0x1 PUSH1 0xA0 SHL SUB NOT DUP3 AND DUP2 OR DUP4 SSTORE PUSH1 0x40 MLOAD SWAP5 SWAP3 SWAP1 SWAP2 PUSH1 0x1 PUSH1 0x1 PUSH1 0xA0 SHL SUB AND SWAP1 PUSH32 0x8BE0079C531659141344CD1FD0A4F28419497F9722A3DAAFE3B4186F6B6457E0 SWAP1 DUP1 LOG3 PUSH1 0x1 DUP1 SSTORE PUSH1 0x6 SSTORE PUSH1 0x7 SSTORE PUSH2 0x1EA7 SWAP1 DUP2 PUSH2 0xDE DUP3 CODECOPY RETURN JUMPDEST PUSH1 0x40 MLOAD PUSH4 0x1E4FBDF7 PUSH1 0xE0 SHL DUP2 MSTORE PUSH1 0x0 PUSH1 0x4 DUP3 ADD MSTORE PUSH1 0x24 SWAP1 REVERT JUMPDEST PUSH1 0x0 DUP1 REVERT JUMPDEST PUSH4 0x4E487B71 PUSH1 0xE0 SHL PUSH1 0x0 MSTORE PUSH1 0x41 PUSH1 0x4 MSTORE PUSH1 0x24 PUSH1 0x0 REVERT INVALID PUSH1 0x80 PUSH1 0x40 MSTORE PUSH1 0x4 CALLDATASIZE LT ISZERO PUSH2 0x12 JUMPI PUSH1 0x0 DUP1 REVERT JUMPDEST PUSH1 0x0 CALLDATALOAD PUSH1 0xE0 SHR DUP1 PUSH4 0x178A097 EQ PUSH2 0x12F6 JUMPI DUP1 PUSH4 0xD859D4F EQ PUSH2 0x10EE JUMPI DUP1 PUSH4 0xF53A470 EQ PUSH2 0xFDD JUMPI DUP1 PUSH4 0x11B0C89E EQ PUSH2 0xFAE JUMPI DUP1 PUSH4 0x206DF509 EQ PUSH2 0xF6C JUMPI DUP1 PUSH4 0x4D813120 EQ PUSH2 0xE81 JUMPI DUP1 PUSH4 0x55B3A489 EQ PUSH2 0xE11 JUMPI DUP1 PUSH4 0x5764390C EQ PUSH2 0xDA7 JUMPI DUP1 PUSH4 0x5E7CF5AB EQ PUSH2 0xD62 JUMPI DUP1 PUSH4 0x6A4B783D EQ PUSH2 0xD23 JUMPI DUP1 PUSH4 0x715018A6 EQ PUSH2 0xCCA JUMPI DUP1 PUSH4 0x7A6CFE4C EQ PUSH2 0x4F2 JUMPI DUP1 PUSH4 0x8DA5CB5B EQ PUSH2 0xCA1 JUMPI DUP1 PUSH4 0x9447FC80 EQ PUSH2 0x747 JUMPI DUP1 PUSH4 0xA37E7E9C EQ PUSH2 0x72A JUMPI DUP1 PUSH4 0xABA6466C EQ PUSH2 0x5C4 JUMPI DUP1 PUSH4 0xBBE15627 EQ PUSH2 0x531 JUMPI DUP1 PUSH4 0xBCB3E5C2 EQ PUSH2 0x4F2 JUMPI DUP1 PUSH4 0xC657C6A5 EQ PUSH2 0x44E JUMPI DUP1 PUSH4 0xD18EAE18 EQ PUSH2 0x23D JUMPI DUP1 PUSH4 0xD292B610 EQ PUSH2 0x1F3 JUMPI DUP1 PUSH4 0xD52B7A14 EQ PUSH2 0x1D5 JUMPI DUP1 PUSH4 0xF2FDE38B EQ PUSH2 0x147 JUMPI PUSH4 0xFD7288C0 EQ PUSH2 0x124 JUMPI PUSH1 0x0 DUP1 REVERT JUMPDEST CALLVALUE PUSH2 0x142 JUMPI PUSH1 0x0 CALLDATASIZE PUSH1 0x3 NOT ADD SLT PUSH2 0x142 JUMPI PUSH1 0x20 PUSH1 0x6 SLOAD PUSH1 0x40 MLOAD SWAP1 DUP2 MSTORE RETURN JUMPDEST PUSH1 0x0 DUP1 REVERT JUMPDEST CALLVALUE PUSH2 0x142 JUMPI PUSH1 0x20 CALLDATASIZE PUSH1 0x3 NOT ADD SLT PUSH2 0x142 JUMPI PUSH2 0x160 PUSH2 0x16BD JUMP JUMPDEST PUSH2 0x168 PUSH2 0x1909 JUMP JUMPDEST PUSH1 0x1 PUSH1 0x1 PUSH1 0xA0 SHL SUB SWAP1 DUP2 AND SWAP1 DUP2 ISZERO PUSH2 0x1BC JUMPI PUSH1 0x0 SLOAD DUP3 PUSH12 0xFFFFFFFFFFFFFFFFFFFFFFFF PUSH1 0xA0 SHL DUP3 AND OR PUSH1 0x0 SSTORE AND PUSH32 0x8BE0079C531659141344CD1FD0A4F28419497F9722A3DAAFE3B4186F6B6457E0 PUSH1 0x0 DUP1 LOG3 STOP JUMPDEST PUSH1 0x40 MLOAD PUSH4 0x1E4FBDF7 PUSH1 0xE0 SHL DUP2 MSTORE PUSH1 0x0 PUSH1 0x4 DUP3 ADD MSTORE PUSH1 0x24 SWAP1 REVERT JUMPDEST CALLVALUE PUSH2 0x142 JUMPI PUSH1 0x0 CALLDATASIZE PUSH1 0x3 NOT ADD SLT PUSH2 0x142 JUMPI PUSH1 0x20 PUSH1 0x7 SLOAD PUSH1 0x40 MLOAD SWAP1 DUP2 MSTORE RETURN JUMPDEST CALLVALUE PUSH2 0x142 JUMPI PUSH1 0x40 CALLDATASIZE PUSH1 0x3 NOT ADD SLT PUSH2 0x142 JUMPI PUSH2 0x20C PUSH2 0x16BD JUMP JUMPDEST PUSH1 0x24 CALLDATALOAD PUSH1 0x5 DUP2 LT ISZERO PUSH2 0x142 JUMPI PUSH2 0x227 PUSH2 0x23B SWAP2 PUSH1 0x40 SWAP4 PUSH2 0x1AA8 JUMP JUMPDEST DUP4 SWAP3 SWAP2 SWAP3 MLOAD SWAP3 ISZERO ISZERO DUP4 MSTORE PUSH1 0x20 DUP4 ADD SWAP1 PUSH2 0x1703 JUMP JUMPDEST RETURN JUMPDEST CALLVALUE PUSH2 0x142 JUMPI PUSH1 0x60 CALLDATASIZE PUSH1 0x3 NOT ADD SLT PUSH2 0x142 JUMPI PUSH2 0x256 PUSH2 0x16BD JUMP JUMPDEST PUSH1 0x1 PUSH1 0x1 PUSH1 0x40 SHL SUB PUSH1 0x24 CALLDATALOAD DUP2 DUP2 GT PUSH2 0x142 JUMPI PUSH2 0x276 SWAP1 CALLDATASIZE SWAP1 PUSH1 0x4 ADD PUSH2 0x16D3 JUMP JUMPDEST SWAP3 PUSH1 0x44 CALLDATALOAD DUP4 DUP2 GT PUSH2 0x142 JUMPI PUSH2 0x28F SWAP1 CALLDATASIZE SWAP1 PUSH1 0x4 ADD PUSH2 0x16D3 JUMP JUMPDEST SWAP1 SWAP2 PUSH2 0x299 PUSH2 0x1A09 JUMP JUMPDEST PUSH2 0x2A6 PUSH1 0x6 SLOAD DUP8 EQ PUSH2 0x1935 JUMP JUMPDEST PUSH1 0x1 DUP1 PUSH1 0xA0 SHL SUB AND SWAP3 DUP4 PUSH1 0x0 MSTORE PUSH1 0x20 SWAP6 PUSH1 0x2 DUP8 MSTORE DUP6 PUSH1 0x40 PUSH1 0x0 KECCAK256 SLOAD AND PUSH2 0x418 JUMPI SWAP1 PUSH2 0x2D2 SWAP2 CALLDATASIZE SWAP2 PUSH2 0x198C JUMP JUMPDEST SWAP1 PUSH2 0x2DC DUP2 PUSH2 0x1975 JUMP JUMPDEST SWAP3 PUSH2 0x2EA PUSH1 0x40 MLOAD SWAP5 DUP6 PUSH2 0x1842 JUMP JUMPDEST DUP2 DUP5 MSTORE DUP7 DUP5 ADD SWAP2 PUSH1 0x5 SHL DUP2 ADD SWAP2 CALLDATASIZE DUP4 GT PUSH2 0x142 JUMPI DUP8 SWAP2 SWAP1 JUMPDEST DUP4 DUP3 LT PUSH2 0x409 JUMPI POP POP POP POP SWAP1 PUSH2 0x317 SWAP2 PUSH2 0x1D50 JUMP JUMPDEST POP SWAP2 DUP1 PUSH1 0x40 MLOAD SWAP4 PUSH2 0x327 DUP6 PUSH2 0x180C JUMP JUMPDEST AND SWAP3 DUP4 DUP2 MSTORE DUP5 DUP2 ADD SWAP1 PUSH1 0x0 DUP3 MSTORE PUSH1 0x40 DUP2 ADD SWAP2 PUSH1 0x0 DUP4 MSTORE PUSH1 0x60 DUP3 ADD PUSH1 0x0 DUP2 MSTORE PUSH1 0x80 DUP4 ADD SWAP1 PUSH1 0x0 DUP3 MSTORE PUSH1 0xA0 DUP5 ADD SWAP3 TIMESTAMP DUP5 MSTORE PUSH1 0xC0 DUP6 ADD SWAP7 PUSH1 0x0 DUP9 MSTORE DUP9 PUSH1 0x0 MSTORE PUSH1 0x2 DUP12 MSTORE PUSH1 0x40 PUSH1 0x0 KECCAK256 SWAP6 MLOAD AND PUSH1 0x1 PUSH1 0x1 PUSH1 0x40 SHL SUB NOT DUP7 SLOAD AND OR DUP6 SSTORE MLOAD SWAP5 PUSH1 0x5 DUP7 LT ISZERO PUSH2 0x3F3 JUMPI PUSH2 0x395 PUSH1 0x5 SWAP7 DUP7 PUSH2 0x19E6 JUMP JUMPDEST MLOAD PUSH1 0x1 DUP6 ADD SSTORE MLOAD PUSH1 0x2 DUP5 ADD SSTORE MLOAD PUSH1 0x3 DUP4 ADD SSTORE MLOAD PUSH1 0x4 DUP3 ADD SSTORE ADD SWAP1 MLOAD ISZERO ISZERO PUSH1 0xFF DUP1 NOT DUP4 SLOAD AND SWAP2 AND OR SWAP1 SSTORE PUSH32 0x78D4FA2486395CFAAD46F60A48AA1CC44D49E22B87DFFCE4804D31F2265F8F2 DUP4 PUSH1 0x40 MLOAD DUP5 DUP2 MSTORE LOG2 PUSH1 0x1 DUP1 SSTORE PUSH1 0x40 MLOAD SWAP1 DUP2 MSTORE RETURN JUMPDEST PUSH4 0x4E487B71 PUSH1 0xE0 SHL PUSH1 0x0 MSTORE PUSH1 0x21 PUSH1 0x4 MSTORE PUSH1 0x24 PUSH1 0x0 REVERT JUMPDEST DUP2 CALLDATALOAD DUP2 MSTORE SWAP1 DUP3 ADD SWAP1 DUP3 ADD PUSH2 0x302 JUMP JUMPDEST PUSH1 0x40 MLOAD PUSH3 0x461BCD PUSH1 0xE5 SHL DUP2 MSTORE PUSH1 0x4 DUP2 ADD DUP9 SWAP1 MSTORE PUSH1 0xE PUSH1 0x24 DUP3 ADD MSTORE PUSH14 0x50726F66696C6520657869737473 PUSH1 0x90 SHL PUSH1 0x44 DUP3 ADD MSTORE PUSH1 0x64 SWAP1 REVERT JUMPDEST CALLVALUE PUSH2 0x142 JUMPI PUSH1 0x40 CALLDATASIZE PUSH1 0x3 NOT ADD SLT PUSH2 0x142 JUMPI PUSH2 0x467 PUSH2 0x16BD JUMP JUMPDEST PUSH1 0x1 PUSH1 0x1 PUSH1 0xA0 SHL SUB SWAP1 DUP2 AND PUSH1 0x0 SWAP1 DUP2 MSTORE PUSH1 0x3 PUSH1 0x20 MSTORE PUSH1 0x40 SWAP1 KECCAK256 DUP1 SLOAD PUSH1 0x24 CALLDATALOAD SWAP1 DUP2 LT ISZERO PUSH2 0x142 JUMPI PUSH2 0x496 SWAP2 PUSH2 0x179B JUMP JUMPDEST POP SWAP1 PUSH2 0x4EE DUP3 SLOAD SWAP3 PUSH1 0x1 DUP2 ADD SLOAD SWAP1 PUSH2 0x4B5 PUSH1 0x3 PUSH1 0x2 DUP4 ADD SLOAD SWAP3 ADD PUSH2 0x1863 JUMP JUMPDEST SWAP2 PUSH2 0x4D3 PUSH1 0x40 MLOAD SWAP7 DUP8 SWAP7 DUP2 AND DUP8 MSTORE PUSH1 0xFF PUSH1 0x20 DUP9 ADD SWAP2 PUSH1 0xA0 SHR AND PUSH2 0x1703 JUMP JUMPDEST PUSH1 0x40 DUP6 ADD MSTORE PUSH1 0x60 DUP5 ADD MSTORE PUSH1 0xA0 PUSH1 0x80 DUP5 ADD MSTORE PUSH1 0xA0 DUP4 ADD SWAP1 PUSH2 0x175B JUMP JUMPDEST SUB SWAP1 RETURN JUMPDEST CALLVALUE PUSH2 0x142 JUMPI PUSH1 0x20 CALLDATASIZE PUSH1 0x3 NOT ADD SLT PUSH2 0x142 JUMPI PUSH1 0x1 PUSH1 0x1 PUSH1 0xA0 SHL SUB PUSH2 0x513 PUSH2 0x16BD JUMP JUMPDEST AND PUSH1 0x0 MSTORE PUSH1 0x4 PUSH1 0x20 MSTORE PUSH1 0x20 PUSH1 0xFF PUSH1 0x40 PUSH1 0x0 KECCAK256 SLOAD AND PUSH1 0x40 MLOAD SWAP1 ISZERO ISZERO DUP2 MSTORE RETURN JUMPDEST CALLVALUE PUSH2 0x142 JUMPI PUSH1 0x20 CALLDATASIZE PUSH1 0x3 NOT ADD SLT PUSH2 0x142 JUMPI PUSH1 0x1 PUSH1 0x1 PUSH1 0xA0 SHL SUB PUSH2 0x552 PUSH2 0x16BD JUMP JUMPDEST AND PUSH1 0x0 MSTORE PUSH1 0x2 PUSH1 0x20 MSTORE PUSH1 0xE0 PUSH1 0x40 PUSH1 0x0 KECCAK256 DUP1 SLOAD SWAP1 PUSH1 0x1 DUP2 ADD SLOAD SWAP1 PUSH1 0x2 DUP2 ADD SLOAD PUSH1 0x3 DUP3 ADD SLOAD SWAP1 PUSH1 0xFF PUSH1 0x5 PUSH1 0x4 DUP6 ADD SLOAD SWAP5 ADD SLOAD AND SWAP4 PUSH2 0x5A7 PUSH1 0x40 MLOAD SWAP7 PUSH1 0x1 PUSH1 0x1 PUSH1 0x40 SHL SUB DUP2 AND DUP9 MSTORE PUSH1 0xFF PUSH1 0x20 DUP10 ADD SWAP2 PUSH1 0x40 SHR AND PUSH2 0x1703 JUMP JUMPDEST PUSH1 0x40 DUP7 ADD MSTORE PUSH1 0x60 DUP6 ADD MSTORE PUSH1 0x80 DUP5 ADD MSTORE PUSH1 0xA0 DUP4 ADD MSTORE ISZERO ISZERO PUSH1 0xC0 DUP3 ADD MSTORE RETURN JUMPDEST CALLVALUE PUSH2 0x142 JUMPI PUSH1 0x20 DUP1 PUSH1 0x3 NOT CALLDATASIZE ADD SLT PUSH2 0x142 JUMPI PUSH1 0x1 PUSH1 0x1 PUSH1 0xA0 SHL SUB SWAP1 DUP2 PUSH2 0x5E8 PUSH2 0x16BD JUMP JUMPDEST AND PUSH1 0x0 MSTORE PUSH1 0x3 SWAP1 DUP2 DUP2 MSTORE PUSH1 0x40 PUSH1 0x0 KECCAK256 SWAP1 DUP2 SLOAD PUSH2 0x603 DUP2 PUSH2 0x1975 JUMP JUMPDEST SWAP4 PUSH2 0x611 PUSH1 0x40 MLOAD SWAP6 DUP7 PUSH2 0x1842 JUMP JUMPDEST DUP2 DUP6 MSTORE PUSH1 0x0 SWAP4 DUP5 MSTORE DUP3 DUP5 KECCAK256 DUP4 DUP7 ADD SWAP5 SWAP2 DUP6 JUMPDEST DUP5 DUP5 LT PUSH2 0x6C7 JUMPI POP POP POP POP POP PUSH1 0x40 MLOAD SWAP3 DUP2 DUP5 ADD SWAP1 DUP3 DUP6 MSTORE MLOAD DUP1 SWAP2 MSTORE PUSH1 0x40 DUP5 ADD SWAP2 PUSH1 0x40 DUP3 PUSH1 0x5 SHL DUP7 ADD ADD SWAP4 SWAP3 PUSH1 0x0 SWAP7 JUMPDEST DUP4 DUP9 LT PUSH2 0x65F JUMPI DUP7 DUP7 SUB DUP8 RETURN JUMPDEST SWAP1 SWAP2 SWAP3 SWAP4 SWAP5 DUP4 DUP1 PUSH2 0x6B6 PUSH1 0x1 SWAP4 PUSH1 0x3F NOT DUP12 DUP3 SUB ADD DUP8 MSTORE DUP10 MLOAD DUP7 DUP2 MLOAD AND DUP3 MSTORE PUSH2 0x68D DUP5 DUP3 ADD MLOAD DUP6 DUP5 ADD SWAP1 PUSH2 0x1703 JUMP JUMPDEST PUSH1 0x40 DUP2 ADD MLOAD PUSH1 0x40 DUP4 ADD MSTORE PUSH1 0x60 DUP1 DUP3 ADD MLOAD SWAP1 DUP4 ADD MSTORE PUSH1 0x80 DUP1 SWAP2 ADD MLOAD SWAP2 PUSH1 0xA0 DUP1 SWAP3 DUP3 ADD MSTORE ADD SWAP1 PUSH2 0x175B JUMP JUMPDEST SWAP8 ADD SWAP4 ADD SWAP8 ADD SWAP7 SWAP1 SWAP4 SWAP3 SWAP2 SWAP4 PUSH2 0x652 JUMP JUMPDEST PUSH1 0x4 DUP7 PUSH1 0x1 SWAP3 DUP12 PUSH2 0x6F6 PUSH1 0xFF PUSH1 0x40 SWAP14 SWAP12 SWAP14 MLOAD SWAP3 PUSH2 0x6E3 DUP5 PUSH2 0x17F1 JUMP JUMPDEST DUP10 SLOAD SWAP1 DUP2 AND DUP5 MSTORE PUSH1 0xA0 SHR AND DUP5 DUP4 ADD PUSH2 0x19DA JUMP JUMPDEST DUP5 DUP8 ADD SLOAD PUSH1 0x40 DUP3 ADD MSTORE PUSH1 0x2 DUP8 ADD SLOAD PUSH1 0x60 DUP3 ADD MSTORE PUSH2 0x714 DUP7 DUP9 ADD PUSH2 0x1863 JUMP JUMPDEST PUSH1 0x80 DUP3 ADD MSTORE DUP2 MSTORE ADD SWAP4 ADD SWAP4 ADD SWAP3 SWAP2 SWAP7 SWAP5 SWAP7 PUSH2 0x623 JUMP JUMPDEST CALLVALUE PUSH2 0x142 JUMPI PUSH1 0x0 CALLDATASIZE PUSH1 0x3 NOT ADD SLT PUSH2 0x142 JUMPI PUSH1 0x20 PUSH1 0x40 MLOAD PUSH2 0x3E8 DUP2 MSTORE RETURN JUMPDEST CALLVALUE PUSH2 0x142 JUMPI PUSH1 0x20 CALLDATASIZE PUSH1 0x3 NOT ADD SLT PUSH2 0x142 JUMPI PUSH2 0x760 PUSH2 0x16BD JUMP JUMPDEST PUSH2 0x768 PUSH2 0x1A09 JUMP JUMPDEST PUSH1 0x1 PUSH1 0x1 PUSH1 0xA0 SHL SUB DUP2 AND PUSH1 0x0 SWAP1 DUP2 MSTORE PUSH1 0x2 PUSH1 0x20 MSTORE PUSH1 0x40 SWAP1 KECCAK256 DUP1 SLOAD SWAP2 SWAP1 PUSH1 0x1 PUSH1 0x1 PUSH1 0x40 SHL SUB DUP4 AND DUP1 ISZERO PUSH2 0xC80 JUMPI PUSH2 0x4E20 SWAP1 DUP2 GAS LT PUSH2 0xBB0 JUMPI PUSH1 0x0 SWAP2 DUP3 SWAP2 PUSH1 0x26 PUSH1 0x40 MLOAD PUSH1 0x20 DUP2 ADD SWAP3 DUP4 MSTORE PUSH1 0x20 DUP2 MSTORE PUSH2 0x7BD DUP2 PUSH2 0x1827 JUMP JUMPDEST MLOAD SWAP3 STATICCALL SWAP2 PUSH2 0x7C9 PUSH2 0x1D20 JUMP JUMPDEST SWAP3 ISZERO PUSH2 0xC67 JUMPI DUP3 MLOAD DUP4 ADD SWAP3 PUSH1 0x40 DUP2 PUSH1 0x20 DUP7 ADD SWAP6 SUB SLT PUSH2 0x142 JUMPI PUSH1 0x20 DUP2 ADD MLOAD SWAP1 DUP2 ISZERO SWAP2 DUP3 ISZERO SUB PUSH2 0x142 JUMPI PUSH1 0x40 DUP2 ADD MLOAD SWAP1 PUSH1 0x1 PUSH1 0x1 PUSH1 0x40 SHL SUB DUP3 GT PUSH2 0x142 JUMPI ADD SWAP4 DUP1 PUSH1 0x3F DUP7 ADD SLT ISZERO PUSH2 0x142 JUMPI PUSH1 0x20 DUP6 ADD MLOAD PUSH2 0x821 DUP2 PUSH2 0x1975 JUMP JUMPDEST SWAP6 PUSH2 0x82F PUSH1 0x40 MLOAD SWAP8 DUP9 PUSH2 0x1842 JUMP JUMPDEST DUP2 DUP8 MSTORE PUSH1 0x40 PUSH1 0x20 DUP9 ADD SWAP3 PUSH1 0x5 SHL DUP3 ADD ADD SWAP3 DUP4 GT PUSH2 0x142 JUMPI PUSH1 0x40 ADD SWAP1 JUMPDEST DUP3 DUP3 LT PUSH2 0xC57 JUMPI POP POP POP PUSH2 0xC1F JUMPI PUSH1 0x3 PUSH2 0x863 PUSH2 0x1C92 JUMP JUMPDEST LT PUSH2 0xBFD JUMPI PUSH2 0x870 PUSH2 0x1C92 JUMP JUMPDEST SWAP1 PUSH2 0x87A DUP3 PUSH2 0x1975 JUMP JUMPDEST SWAP2 PUSH2 0x888 PUSH1 0x40 MLOAD SWAP4 DUP5 PUSH2 0x1842 JUMP JUMPDEST DUP1 DUP4 MSTORE PUSH2 0x897 PUSH1 0x1F NOT SWAP2 PUSH2 0x1975 JUMP JUMPDEST ADD PUSH1 0x0 JUMPDEST DUP2 DUP2 LT PUSH2 0xBD8 JUMPI POP POP PUSH1 0x0 SWAP3 PUSH1 0x0 JUMPDEST PUSH1 0xFF DUP2 AND PUSH1 0x4 DUP2 GT PUSH2 0x947 JUMPI PUSH1 0x5 DUP2 LT ISZERO PUSH2 0x3F3 JUMPI PUSH2 0x8C8 DUP2 PUSH2 0x1710 JUMP JUMPDEST SWAP1 PUSH1 0x0 SWAP2 DUP1 SLOAD SWAP2 JUMPDEST DUP3 DUP5 LT PUSH2 0x8E9 JUMPI POP POP POP POP PUSH2 0x8E4 SWAP1 PUSH2 0x1C81 JUMP JUMPDEST PUSH2 0x8AA JUMP JUMPDEST SWAP1 SWAP2 SWAP3 SWAP8 PUSH2 0x939 PUSH2 0x93F SWAP2 PUSH1 0x1 PUSH1 0x1 PUSH1 0x40 SHL SUB PUSH2 0x906 DUP13 DUP8 PUSH2 0x1729 JUMP JUMPDEST POP SLOAD AND PUSH1 0x40 MLOAD SWAP1 PUSH2 0x916 DUP3 PUSH2 0x1827 JUMP JUMPDEST DUP2 MSTORE DUP5 PUSH1 0x20 DUP3 ADD MSTORE PUSH2 0x928 DUP3 DUP13 PUSH2 0x1C6D JUMP JUMPDEST MSTORE PUSH2 0x933 DUP2 DUP12 PUSH2 0x1C6D JUMP JUMPDEST POP PUSH2 0x1B4A JUMP JUMPDEST SWAP9 PUSH2 0x1B4A JUMP JUMPDEST SWAP3 SWAP2 SWAP1 PUSH2 0x8D0 JUMP JUMPDEST POP POP DUP6 DUP6 DUP5 DUP1 MLOAD PUSH1 0x64 DUP2 MUL SWAP1 DUP1 DUP3 DIV PUSH1 0x64 EQ SWAP1 ISZERO OR ISZERO PUSH2 0xBC2 JUMPI PUSH2 0x61A8 SWAP2 DUP2 DUP4 ADD DUP4 GT PUSH2 0xBC2 JUMPI DUP2 DUP4 ADD GAS LT PUSH2 0xBB0 JUMPI PUSH2 0x98F PUSH1 0x40 MLOAD SWAP5 PUSH1 0x60 PUSH1 0x20 DUP8 ADD MSTORE PUSH1 0x80 DUP7 ADD SWAP1 PUSH2 0x1CEC JUMP JUMPDEST PUSH1 0x1F NOT DUP6 DUP3 SUB ADD PUSH1 0x40 DUP7 ADD MSTORE PUSH1 0x20 DUP1 DUP4 MLOAD SWAP3 DUP4 DUP2 MSTORE ADD SWAP3 ADD SWAP1 PUSH1 0x0 JUMPDEST DUP2 DUP2 LT PUSH2 0xB7F JUMPI POP POP POP SWAP2 PUSH1 0x22 DUP5 SWAP3 PUSH2 0x9D8 DUP5 PUSH1 0x0 SWAP8 SWAP7 PUSH1 0x5 PUSH1 0x60 DUP11 SWAP10 ADD MSTORE SUB PUSH1 0x1F NOT DUP2 ADD DUP7 MSTORE DUP6 PUSH2 0x1842 JUMP JUMPDEST PUSH1 0x20 DUP5 MLOAD SWAP5 ADD SWAP3 ADD STATICCALL SWAP2 PUSH2 0x9EA PUSH2 0x1D20 JUMP JUMPDEST SWAP3 ISZERO PUSH2 0xB66 JUMPI PUSH1 0x40 DUP4 DUP1 MLOAD DUP2 ADD SUB SLT PUSH2 0x142 JUMPI PUSH1 0x20 DUP4 ADD MLOAD SWAP3 PUSH4 0xFFFFFFFF DUP5 AND DUP1 SWAP5 SUB PUSH2 0x142 JUMPI PUSH1 0x40 ADD MLOAD SWAP2 PUSH1 0x5 DUP5 LT ISZERO PUSH2 0x3F3 JUMPI PUSH1 0x7 SLOAD DUP4 LT ISZERO PUSH2 0xA44 JUMPI JUMPDEST PUSH1 0x1 DUP1 SSTORE PUSH1 0x40 DUP1 MLOAD DUP5 PUSH2 0xA3D DUP3 DUP9 PUSH2 0x1703 JUMP JUMPDEST PUSH1 0x20 DUP3 ADD MSTORE RETURN JUMPDEST PUSH1 0x40 SHR PUSH1 0xFF AND SWAP1 PUSH2 0xA55 DUP5 DUP3 PUSH2 0x19E6 JUMP JUMPDEST DUP3 PUSH1 0x1 DUP3 ADD SSTORE PUSH1 0x4 TIMESTAMP SWAP2 ADD SSTORE PUSH1 0x40 MLOAD PUSH2 0xA6E DUP2 DUP6 PUSH2 0x1703 JUMP JUMPDEST PUSH1 0x20 DUP2 ADD DUP4 SWAP1 MSTORE PUSH1 0x1 PUSH1 0x1 PUSH1 0xA0 SHL SUB DUP6 AND SWAP1 PUSH32 0xA39921D83BFE9A4D65A5F7B2CEC562272A07ADC77D548D61778393B77F462F41 SWAP1 PUSH1 0x40 SWAP1 LOG2 PUSH1 0x5 DUP2 LT ISZERO PUSH2 0x3F3 JUMPI PUSH1 0x40 SWAP4 DUP2 DUP5 GT ISZERO PUSH2 0xB09 JUMPI DUP5 PUSH32 0x114D7C5D0B4BECADC8A15A2E15BA583CF837F45C56074A00D9654DB70D22AF6E SWAP2 PUSH2 0xAE9 DUP3 MLOAD DUP1 SWAP6 PUSH2 0x1703 JUMP JUMPDEST PUSH2 0xAF6 PUSH1 0x20 DUP6 ADD DUP8 PUSH2 0x1703 JUMP JUMPDEST PUSH1 0x1 PUSH1 0x1 PUSH1 0xA0 SHL SUB AND SWAP3 LOG2 JUMPDEST DUP4 DUP1 PUSH2 0xA2A JUMP JUMPDEST DUP2 DUP5 LT PUSH2 0xB18 JUMPI JUMPDEST POP POP PUSH2 0xB02 JUMP JUMPDEST DUP5 PUSH32 0x4C400B95222C423E9A56D24277AD5F9E543875DB4C7A1A709BEA2BEDB580096E SWAP2 PUSH2 0xB47 DUP3 MLOAD DUP1 SWAP6 PUSH2 0x1703 JUMP JUMPDEST PUSH2 0xB54 PUSH1 0x20 DUP6 ADD DUP8 PUSH2 0x1703 JUMP JUMPDEST PUSH1 0x1 PUSH1 0x1 PUSH1 0xA0 SHL SUB AND SWAP3 LOG2 DUP4 DUP1 PUSH2 0xB11 JUMP JUMPDEST PUSH1 0x40 MLOAD PUSH4 0x6F99E793 PUSH1 0xE0 SHL DUP2 MSTORE PUSH1 0x22 PUSH1 0x4 DUP3 ADD MSTORE PUSH1 0x24 SWAP1 REVERT JUMPDEST DUP3 MLOAD DUP1 MLOAD PUSH1 0x1 PUSH1 0x1 PUSH1 0x40 SHL SUB AND DUP6 MSTORE PUSH1 0x20 SWAP1 DUP2 ADD MLOAD PUSH4 0xFFFFFFFF AND DUP2 DUP7 ADD MSTORE PUSH1 0x40 SWAP1 SWAP5 ADD SWAP4 SWAP1 SWAP3 ADD SWAP2 PUSH1 0x1 ADD PUSH2 0x9AB JUMP JUMPDEST PUSH1 0x40 MLOAD PUSH4 0x7099C53 PUSH1 0xE2 SHL DUP2 MSTORE PUSH1 0x4 SWAP1 REVERT JUMPDEST PUSH4 0x4E487B71 PUSH1 0xE0 SHL PUSH1 0x0 MSTORE PUSH1 0x11 PUSH1 0x4 MSTORE PUSH1 0x24 PUSH1 0x0 REVERT JUMPDEST PUSH1 0x20 SWAP1 PUSH1 0x40 MLOAD PUSH2 0xBE7 DUP2 PUSH2 0x1827 JUMP JUMPDEST PUSH1 0x0 DUP2 MSTORE PUSH1 0x0 DUP4 DUP3 ADD MSTORE DUP3 DUP3 DUP8 ADD ADD MSTORE ADD PUSH2 0x89B JUMP JUMPDEST PUSH1 0x40 MLOAD PUSH4 0x6D50816B PUSH1 0xE0 SHL DUP2 MSTORE PUSH1 0x1 PUSH1 0x1 PUSH1 0xA0 SHL SUB SWAP1 SWAP2 AND PUSH1 0x4 DUP3 ADD MSTORE PUSH1 0x24 SWAP1 REVERT JUMPDEST PUSH1 0x40 MLOAD PUSH3 0x461BCD PUSH1 0xE5 SHL DUP2 MSTORE PUSH1 0x20 PUSH1 0x4 DUP3 ADD MSTORE PUSH1 0x10 PUSH1 0x24 DUP3 ADD MSTORE PUSH16 0x159958DD1BDC881B9BDD08199BDD5B99 PUSH1 0x82 SHL PUSH1 0x44 DUP3 ADD MSTORE PUSH1 0x64 SWAP1 REVERT JUMPDEST DUP2 MLOAD DUP2 MSTORE PUSH1 0x20 SWAP2 DUP3 ADD SWAP2 ADD PUSH2 0x84B JUMP JUMPDEST PUSH1 0x40 MLOAD PUSH4 0x6F99E793 PUSH1 0xE0 SHL DUP2 MSTORE PUSH1 0x26 PUSH1 0x4 DUP3 ADD MSTORE PUSH1 0x24 SWAP1 REVERT JUMPDEST PUSH1 0x40 MLOAD PUSH4 0xC23CB525 PUSH1 0xE0 SHL DUP2 MSTORE PUSH1 0x1 PUSH1 0x1 PUSH1 0xA0 SHL SUB DUP5 AND PUSH1 0x4 DUP3 ADD MSTORE PUSH1 0x24 SWAP1 REVERT JUMPDEST CALLVALUE PUSH2 0x142 JUMPI PUSH1 0x0 CALLDATASIZE PUSH1 0x3 NOT ADD SLT PUSH2 0x142 JUMPI PUSH1 0x0 SLOAD PUSH1 0x40 MLOAD PUSH1 0x1 PUSH1 0x1 PUSH1 0xA0 SHL SUB SWAP1 SWAP2 AND DUP2 MSTORE PUSH1 0x20 SWAP1 RETURN JUMPDEST CALLVALUE PUSH2 0x142 JUMPI PUSH1 0x0 CALLDATASIZE PUSH1 0x3 NOT ADD SLT PUSH2 0x142 JUMPI PUSH2 0xCE3 PUSH2 0x1909 JUMP JUMPDEST PUSH1 0x0 DUP1 SLOAD PUSH1 0x1 PUSH1 0x1 PUSH1 0xA0 SHL SUB NOT DUP2 AND DUP3 SSTORE PUSH1 0x1 PUSH1 0x1 PUSH1 0xA0 SHL SUB AND PUSH32 0x8BE0079C531659141344CD1FD0A4F28419497F9722A3DAAFE3B4186F6B6457E0 DUP3 DUP1 LOG3 STOP JUMPDEST CALLVALUE PUSH2 0x142 JUMPI PUSH1 0x20 CALLDATASIZE PUSH1 0x3 NOT ADD SLT PUSH2 0x142 JUMPI PUSH1 0x60 PUSH2 0xD46 PUSH2 0xD41 PUSH2 0x16BD JUMP JUMPDEST PUSH2 0x1A39 JUMP JUMPDEST SWAP1 PUSH2 0xD54 PUSH1 0x40 MLOAD DUP1 SWAP5 PUSH2 0x1703 JUMP JUMPDEST PUSH1 0x20 DUP4 ADD MSTORE ISZERO ISZERO PUSH1 0x40 DUP3 ADD MSTORE RETURN JUMPDEST CALLVALUE PUSH2 0x142 JUMPI PUSH1 0x20 CALLDATASIZE PUSH1 0x3 NOT ADD SLT PUSH2 0x142 JUMPI PUSH2 0xD7B PUSH2 0x16BD JUMP JUMPDEST PUSH2 0xD83 PUSH2 0x1909 JUMP JUMPDEST PUSH1 0x1 PUSH1 0x1 PUSH1 0xA0 SHL SUB AND PUSH1 0x0 SWAP1 DUP2 MSTORE PUSH1 0x4 PUSH1 0x20 MSTORE PUSH1 0x40 SWAP1 KECCAK256 DUP1 SLOAD PUSH1 0xFF NOT AND PUSH1 0x1 OR SWAP1 SSTORE STOP JUMPDEST CALLVALUE PUSH2 0x142 JUMPI PUSH1 0x20 CALLDATASIZE PUSH1 0x3 NOT ADD SLT PUSH2 0x142 JUMPI PUSH1 0x4 CALLDATALOAD PUSH2 0xDC3 PUSH2 0x1909 JUMP JUMPDEST PUSH8 0xDE0B6B3A7640000 DUP2 GT PUSH2 0xDD7 JUMPI PUSH1 0x7 SSTORE STOP JUMPDEST PUSH1 0x40 MLOAD PUSH3 0x461BCD PUSH1 0xE5 SHL DUP2 MSTORE PUSH1 0x20 PUSH1 0x4 DUP3 ADD MSTORE PUSH1 0x12 PUSH1 0x24 DUP3 ADD MSTORE PUSH18 0x496E76616C696420636F6E666964656E6365 PUSH1 0x70 SHL PUSH1 0x44 DUP3 ADD MSTORE PUSH1 0x64 SWAP1 REVERT JUMPDEST CALLVALUE PUSH2 0x142 JUMPI PUSH1 0x40 CALLDATASIZE PUSH1 0x3 NOT ADD SLT PUSH2 0x142 JUMPI PUSH1 0x4 CALLDATALOAD PUSH1 0x5 DUP2 LT ISZERO PUSH2 0x142 JUMPI PUSH2 0xE3A PUSH1 0x24 CALLDATALOAD SWAP2 PUSH2 0x1710 JUMP JUMPDEST DUP1 SLOAD DUP3 LT ISZERO PUSH2 0x142 JUMPI PUSH1 0x60 SWAP2 PUSH2 0xE4F SWAP2 PUSH2 0x1729 JUMP JUMPDEST POP PUSH1 0x1 DUP2 SLOAD SWAP2 ADD SLOAD PUSH2 0xE7A PUSH1 0x40 MLOAD SWAP3 PUSH1 0x1 PUSH1 0x1 PUSH1 0x40 SHL SUB DUP2 AND DUP5 MSTORE PUSH1 0xFF PUSH1 0x20 DUP6 ADD SWAP2 PUSH1 0x40 SHR AND PUSH2 0x1703 JUMP JUMPDEST PUSH1 0x40 DUP3 ADD MSTORE RETURN JUMPDEST CALLVALUE PUSH2 0x142 JUMPI PUSH1 0x20 CALLDATASIZE PUSH1 0x3 NOT ADD SLT PUSH2 0x142 JUMPI PUSH2 0xE9A PUSH2 0x16BD JUMP JUMPDEST PUSH2 0xEA2 PUSH2 0x1909 JUMP JUMPDEST PUSH1 0x1 PUSH1 0x1 PUSH1 0xA0 SHL SUB AND PUSH1 0x0 DUP2 DUP2 MSTORE PUSH1 0x2 PUSH1 0x20 MSTORE PUSH1 0x40 SWAP1 KECCAK256 DUP1 SLOAD PUSH1 0x1 PUSH1 0x1 PUSH1 0x40 SHL SUB DUP2 AND ISZERO PUSH2 0xF53 JUMPI PUSH1 0x5 DUP3 ADD DUP1 SLOAD PUSH1 0xFF DUP2 AND PUSH2 0xF3A JUMPI SWAP3 PUSH9 0x40000000000000000 PUSH1 0x40 SWAP4 PUSH1 0x1 SWAP4 DUP5 PUSH32 0xA39921D83BFE9A4D65A5F7B2CEC562272A07ADC77D548D61778393B77F462F41 SWAP8 PUSH1 0xFF NOT AND OR SWAP1 SSTORE PUSH1 0xFF PUSH1 0x40 SHL NOT AND OR DUP2 SSTORE PUSH8 0xDE0B6B3A7640000 SWAP2 DUP3 SWAP2 ADD SSTORE DUP2 MLOAD SWAP1 PUSH1 0x4 DUP3 MSTORE PUSH1 0x20 DUP3 ADD MSTORE LOG2 STOP JUMPDEST PUSH1 0x40 MLOAD PUSH4 0x41B77A29 PUSH1 0xE1 SHL DUP2 MSTORE PUSH1 0x4 DUP2 ADD DUP7 SWAP1 MSTORE PUSH1 0x24 SWAP1 REVERT JUMPDEST PUSH1 0x40 MLOAD PUSH4 0xC23CB525 PUSH1 0xE0 SHL DUP2 MSTORE PUSH1 0x4 DUP2 ADD DUP5 SWAP1 MSTORE PUSH1 0x24 SWAP1 REVERT JUMPDEST CALLVALUE PUSH2 0x142 JUMPI PUSH1 0x20 CALLDATASIZE PUSH1 0x3 NOT ADD SLT PUSH2 0x142 JUMPI PUSH2 0xF85 PUSH2 0x16BD JUMP JUMPDEST PUSH2 0xF8D PUSH2 0x1909 JUMP JUMPDEST PUSH1 0x1 PUSH1 0x1 PUSH1 0xA0 SHL SUB AND PUSH1 0x0 SWAP1 DUP2 MSTORE PUSH1 0x4 PUSH1 0x20 MSTORE PUSH1 0x40 SWAP1 KECCAK256 DUP1 SLOAD PUSH1 0xFF NOT AND SWAP1 SSTORE STOP JUMPDEST CALLVALUE PUSH2 0x142 JUMPI PUSH1 0x20 CALLDATASIZE PUSH1 0x3 NOT ADD SLT PUSH2 0x142 JUMPI PUSH1 0x40 PUSH2 0xFD1 PUSH2 0xFCC PUSH2 0x16BD JUMP JUMPDEST PUSH2 0x1B59 JUMP JUMPDEST DUP3 MLOAD SWAP2 DUP3 MSTORE PUSH1 0x20 DUP3 ADD MSTORE RETURN JUMPDEST CALLVALUE PUSH2 0x142 JUMPI PUSH1 0x20 CALLDATASIZE PUSH1 0x3 NOT ADD SLT PUSH2 0x142 JUMPI PUSH2 0xFF6 PUSH2 0x16BD JUMP JUMPDEST PUSH1 0x0 PUSH1 0xC0 PUSH1 0x40 MLOAD PUSH2 0x1006 DUP2 PUSH2 0x180C JUMP JUMPDEST DUP3 DUP2 MSTORE DUP3 PUSH1 0x20 DUP3 ADD MSTORE DUP3 PUSH1 0x40 DUP3 ADD MSTORE DUP3 PUSH1 0x60 DUP3 ADD MSTORE DUP3 PUSH1 0x80 DUP3 ADD MSTORE DUP3 PUSH1 0xA0 DUP3 ADD MSTORE ADD MSTORE PUSH1 0x1 DUP1 PUSH1 0xA0 SHL SUB AND PUSH1 0x0 MSTORE PUSH1 0x2 PUSH1 0x20 MSTORE PUSH1 0xE0 PUSH1 0x40 PUSH1 0x0 KECCAK256 PUSH1 0x40 MLOAD SWAP1 PUSH2 0x104D DUP3 PUSH2 0x180C JUMP JUMPDEST DUP1 SLOAD SWAP1 PUSH1 0x1 PUSH1 0x1 PUSH1 0x40 SHL SUB SWAP2 DUP3 DUP2 AND DUP5 MSTORE PUSH2 0x1072 PUSH1 0xFF PUSH1 0x20 DUP7 ADD SWAP3 PUSH1 0x40 SHR AND DUP3 PUSH2 0x19DA JUMP JUMPDEST PUSH1 0x1 DUP3 ADD SLOAD PUSH1 0x40 DUP6 ADD SWAP1 DUP2 MSTORE PUSH1 0x2 DUP4 ADD SLOAD SWAP1 PUSH1 0x60 DUP7 ADD SWAP2 DUP3 MSTORE PUSH2 0x10CC PUSH1 0x3 DUP6 ADD SLOAD SWAP4 PUSH1 0x80 DUP9 ADD SWAP5 DUP6 MSTORE PUSH1 0xFF PUSH1 0x5 PUSH1 0x4 DUP9 ADD SLOAD SWAP8 PUSH1 0xA0 DUP12 ADD SWAP9 DUP10 MSTORE ADD SLOAD AND SWAP7 PUSH1 0xC0 DUP10 ADD SWAP8 ISZERO ISZERO DUP9 MSTORE PUSH1 0x40 MLOAD SWAP9 MLOAD AND DUP9 MSTORE MLOAD PUSH1 0x20 DUP9 ADD SWAP1 PUSH2 0x1703 JUMP JUMPDEST MLOAD PUSH1 0x40 DUP7 ADD MSTORE MLOAD PUSH1 0x60 DUP6 ADD MSTORE MLOAD PUSH1 0x80 DUP5 ADD MSTORE MLOAD PUSH1 0xA0 DUP4 ADD MSTORE MLOAD ISZERO ISZERO PUSH1 0xC0 DUP3 ADD MSTORE RETURN JUMPDEST CALLVALUE PUSH2 0x142 JUMPI PUSH1 0x60 CALLDATASIZE PUSH1 0x3 NOT ADD SLT PUSH2 0x142 JUMPI PUSH1 0x4 CALLDATALOAD PUSH1 0x5 DUP2 LT ISZERO PUSH2 0x142 JUMPI PUSH1 0x24 SWAP1 PUSH1 0x1 PUSH1 0x1 PUSH1 0x40 SHL SUB SWAP1 DUP3 CALLDATALOAD DUP3 DUP2 GT PUSH2 0x142 JUMPI PUSH2 0x112E SWAP1 CALLDATASIZE SWAP1 PUSH1 0x4 ADD PUSH2 0x16D3 JUMP JUMPDEST SWAP4 SWAP1 PUSH2 0x1138 PUSH2 0x1909 JUMP JUMPDEST PUSH2 0x1145 PUSH1 0x6 SLOAD DUP7 EQ PUSH2 0x1935 JUMP JUMPDEST PUSH1 0x40 MLOAD SWAP1 PUSH2 0x1152 DUP3 PUSH2 0x1827 JUMP JUMPDEST PUSH1 0x1 DUP3 MSTORE PUSH1 0x20 SWAP6 DUP7 DUP4 ADD DUP8 CALLDATASIZE DUP3 CALLDATACOPY PUSH1 0x40 MLOAD DUP9 DUP2 ADD SWAP1 PUSH1 0x40 DUP3 MSTORE PUSH1 0x9 PUSH1 0x60 DUP3 ADD MSTORE PUSH9 0x7265666572656E6365 PUSH1 0xB8 SHL PUSH1 0x80 DUP3 ADD MSTORE PUSH1 0xFF DUP9 AND PUSH1 0x40 DUP3 ADD MSTORE PUSH1 0x80 DUP2 MSTORE PUSH2 0x119A DUP2 PUSH2 0x17F1 JUMP JUMPDEST MLOAD SWAP1 KECCAK256 SWAP1 DUP5 MLOAD ISZERO PUSH2 0x12E1 JUMPI MSTORE PUSH2 0x11BB SWAP3 SWAP2 PUSH2 0x11B6 SWAP2 CALLDATASIZE SWAP2 PUSH2 0x198C JUMP JUMPDEST PUSH2 0x1D50 JUMP JUMPDEST POP SWAP1 PUSH2 0x11C6 DUP4 PUSH2 0x1710 JUMP JUMPDEST SWAP1 PUSH1 0x40 MLOAD SWAP3 PUSH1 0x60 DUP5 ADD DUP5 DUP2 LT DUP8 DUP3 GT OR PUSH2 0x12CC JUMPI PUSH1 0x40 MSTORE DUP6 AND DUP1 DUP5 MSTORE SWAP5 DUP7 DUP5 ADD SWAP1 PUSH2 0x11F1 DUP7 DUP4 PUSH2 0x19DA JUMP JUMPDEST PUSH1 0x40 DUP6 ADD SWAP4 PUSH1 0x44 CALLDATALOAD DUP6 MSTORE DUP1 SLOAD SWAP1 PUSH1 0x1 PUSH1 0x40 SHL DUP3 LT ISZERO PUSH2 0x12B7 JUMPI SWAP1 PUSH2 0x121A SWAP2 PUSH1 0x1 DUP3 ADD DUP2 SSTORE PUSH2 0x1729 JUMP JUMPDEST SWAP6 SWAP1 SWAP6 PUSH2 0x12A2 JUMPI MLOAD AND PUSH1 0x1 PUSH1 0x1 PUSH1 0x40 SHL SUB NOT DUP6 SLOAD AND OR DUP5 SSTORE MLOAD SWAP1 PUSH1 0x5 DUP3 LT ISZERO PUSH2 0x128E JUMPI POP SWAP2 PUSH1 0x1 PUSH32 0xAE7149C1D2998704319BD4F12FA88B5554082076E576CEECC66ED848F273B877 SWAP5 SWAP3 PUSH2 0x1270 PUSH1 0x40 SWAP6 DUP5 PUSH2 0x19E6 JUMP JUMPDEST MLOAD SWAP2 ADD SSTORE PUSH2 0x1280 DUP3 MLOAD DUP1 SWAP3 PUSH2 0x1703 JUMP JUMPDEST DUP4 DUP6 DUP3 ADD MSTORE LOG1 PUSH1 0x40 MLOAD SWAP1 DUP2 MSTORE RETURN JUMPDEST PUSH4 0x4E487B71 PUSH1 0xE0 SHL PUSH1 0x0 SWAP1 DUP2 MSTORE PUSH1 0x21 PUSH1 0x4 MSTORE REVERT JUMPDEST DUP4 PUSH4 0x4E487B71 PUSH1 0xE0 SHL PUSH1 0x0 MSTORE PUSH1 0x0 PUSH1 0x4 MSTORE PUSH1 0x0 REVERT JUMPDEST DUP5 PUSH4 0x4E487B71 PUSH1 0xE0 SHL PUSH1 0x0 MSTORE PUSH1 0x41 PUSH1 0x4 MSTORE PUSH1 0x0 REVERT JUMPDEST DUP3 PUSH4 0x4E487B71 PUSH1 0xE0 SHL PUSH1 0x0 MSTORE PUSH1 0x41 PUSH1 0x4 MSTORE PUSH1 0x0 REVERT JUMPDEST DUP6 PUSH4 0x4E487B71 PUSH1 0xE0 SHL PUSH1 0x0 MSTORE PUSH1 0x32 PUSH1 0x4 MSTORE PUSH1 0x0 REVERT JUMPDEST CALLVALUE PUSH2 0x142 JUMPI PUSH1 0x80 CALLDATASIZE PUSH1 0x3 NOT ADD SLT PUSH2 0x142 JUMPI PUSH2 0x130F PUSH2 0x16BD JUMP JUMPDEST PUSH1 0x5 PUSH1 0x24 CALLDATALOAD LT ISZERO PUSH2 0x142 JUMPI PUSH1 0x1 PUSH1 0x1 PUSH1 0x40 SHL SUB PUSH1 0x64 CALLDATALOAD GT PUSH2 0x142 JUMPI CALLDATASIZE PUSH1 0x23 PUSH1 0x64 CALLDATALOAD ADD SLT ISZERO PUSH2 0x142 JUMPI PUSH1 0x1 PUSH1 0x1 PUSH1 0x40 SHL SUB PUSH1 0x64 CALLDATALOAD PUSH1 0x4 ADD CALLDATALOAD GT PUSH2 0x142 JUMPI CALLDATASIZE PUSH1 0x24 PUSH1 0x64 CALLDATALOAD PUSH1 0x4 ADD CALLDATALOAD PUSH1 0x64 CALLDATALOAD ADD ADD GT PUSH2 0x142 JUMPI PUSH2 0x1367 PUSH2 0x1A09 JUMP JUMPDEST CALLER PUSH1 0x0 MSTORE PUSH1 0x4 PUSH1 0x20 MSTORE PUSH1 0xFF PUSH1 0x40 PUSH1 0x0 KECCAK256 SLOAD AND ISZERO PUSH2 0x16A5 JUMPI PUSH1 0x1 DUP1 PUSH1 0xA0 SHL SUB DUP2 AND PUSH1 0x0 MSTORE PUSH1 0x2 PUSH1 0x20 MSTORE PUSH1 0x40 PUSH1 0x0 KECCAK256 SWAP1 PUSH1 0x1 PUSH1 0x1 PUSH1 0x40 SHL SUB DUP3 SLOAD AND ISZERO PUSH2 0x1683 JUMPI PUSH1 0x1 DUP1 PUSH1 0xA0 SHL SUB DUP2 AND PUSH1 0x0 MSTORE PUSH1 0x3 PUSH1 0x20 MSTORE PUSH1 0x40 PUSH1 0x0 KECCAK256 SWAP2 PUSH1 0x40 MLOAD SWAP3 PUSH2 0x13C9 DUP5 PUSH2 0x17F1 JUMP JUMPDEST CALLER DUP5 MSTORE PUSH2 0x13DB PUSH1 0x24 CALLDATALOAD PUSH1 0x20 DUP7 ADD PUSH2 0x19DA JUMP JUMPDEST PUSH1 0x44 CALLDATALOAD PUSH1 0x40 DUP6 ADD MSTORE TIMESTAMP PUSH1 0x60 DUP6 ADD MSTORE PUSH2 0x13F8 PUSH1 0x64 CALLDATALOAD PUSH1 0x4 ADD CALLDATALOAD PUSH2 0x1B2F JUMP JUMPDEST PUSH2 0x1405 PUSH1 0x40 MLOAD SWAP2 DUP3 PUSH2 0x1842 JUMP JUMPDEST PUSH1 0x64 CALLDATALOAD PUSH1 0x4 DUP2 ADD CALLDATALOAD DUP1 DUP4 MSTORE SWAP1 PUSH1 0x24 ADD PUSH1 0x20 DUP4 ADD CALLDATACOPY PUSH1 0x0 PUSH1 0x20 PUSH1 0x64 CALLDATALOAD PUSH1 0x4 ADD CALLDATALOAD DUP4 ADD ADD MSTORE PUSH1 0x80 DUP6 ADD MSTORE DUP1 SLOAD PUSH1 0x1 PUSH1 0x40 SHL DUP2 LT ISZERO PUSH2 0x1657 JUMPI PUSH2 0x144A SWAP2 PUSH1 0x1 DUP3 ADD DUP2 SSTORE PUSH2 0x179B JUMP JUMPDEST PUSH2 0x166D JUMPI DUP4 MLOAD DUP2 SLOAD PUSH1 0x1 PUSH1 0x1 PUSH1 0xA0 SHL SUB SWAP1 SWAP2 AND PUSH1 0x1 PUSH1 0x1 PUSH1 0xA0 SHL SUB NOT DUP3 AND DUP2 OR DUP4 SSTORE PUSH1 0x20 DUP7 ADD MLOAD SWAP1 SWAP3 SWAP1 SWAP2 PUSH1 0x5 DUP4 LT ISZERO PUSH2 0x3F3 JUMPI PUSH1 0x80 SWAP4 PUSH1 0x3 SWAP4 PUSH1 0xFF PUSH1 0xA0 SHL SWAP1 PUSH1 0xA0 SHL AND SWAP2 PUSH11 0xFFFFFFFFFFFFFFFFFFFFFF PUSH1 0xA8 SHL AND OR OR DUP2 SSTORE PUSH1 0x40 DUP7 ADD MLOAD PUSH1 0x1 DUP3 ADD SSTORE PUSH1 0x60 DUP7 ADD MLOAD PUSH1 0x2 DUP3 ADD SSTORE ADD SWAP4 ADD MLOAD SWAP3 DUP4 MLOAD PUSH1 0x1 PUSH1 0x1 PUSH1 0x40 SHL SUB DUP2 GT PUSH2 0x1657 JUMPI PUSH2 0x14D6 DUP3 SLOAD PUSH2 0x17B7 JUMP JUMPDEST PUSH1 0x1F DUP2 GT PUSH2 0x160F JUMPI JUMPDEST POP PUSH1 0x20 SWAP5 PUSH1 0x1F DUP3 GT PUSH1 0x1 EQ PUSH2 0x15A9 JUMPI SWAP5 DUP2 SWAP3 SWAP4 SWAP5 SWAP6 PUSH1 0x0 SWAP3 PUSH2 0x159E JUMPI JUMPDEST POP POP DUP2 PUSH1 0x1 SHL SWAP2 PUSH1 0x0 NOT SWAP1 PUSH1 0x3 SHL SHR NOT AND OR SWAP1 SSTORE JUMPDEST PUSH1 0x3 PUSH1 0x24 CALLDATALOAD LT PUSH2 0x1575 JUMPI PUSH1 0x2 ADD PUSH2 0x152B PUSH1 0x44 CALLDATALOAD DUP3 SLOAD PUSH2 0x1A2C JUMP JUMPDEST SWAP1 SSTORE JUMPDEST PUSH1 0x40 MLOAD PUSH2 0x153D DUP2 PUSH1 0x24 CALLDATALOAD PUSH2 0x1703 JUMP JUMPDEST CALLER SWAP2 PUSH1 0x1 PUSH1 0x1 PUSH1 0xA0 SHL SUB AND SWAP1 PUSH32 0x27748F6F2821DEDA758D99E06B4FB87EA481CA59635389B92420B29F0F58982E SWAP1 PUSH1 0x20 SWAP1 LOG3 PUSH1 0x1 DUP1 SSTORE STOP JUMPDEST PUSH1 0x1 PUSH1 0x24 CALLDATALOAD EQ PUSH2 0x1586 JUMPI JUMPDEST POP PUSH2 0x152E JUMP JUMPDEST PUSH1 0x3 ADD PUSH2 0x1596 PUSH1 0x44 CALLDATALOAD DUP3 SLOAD PUSH2 0x1A2C JUMP JUMPDEST SWAP1 SSTORE DUP2 PUSH2 0x1580 JUMP JUMPDEST ADD MLOAD SWAP1 POP DUP6 DUP1 PUSH2 0x14FC JUMP JUMPDEST PUSH1 0x1F NOT DUP3 AND SWAP6 DUP4 PUSH1 0x0 MSTORE PUSH1 0x20 PUSH1 0x0 KECCAK256 SWAP2 PUSH1 0x0 JUMPDEST DUP9 DUP2 LT PUSH2 0x15F7 JUMPI POP DUP4 PUSH1 0x1 SWAP6 SWAP7 SWAP8 SWAP9 LT PUSH2 0x15DE JUMPI JUMPDEST POP POP POP DUP2 SHL ADD SWAP1 SSTORE PUSH2 0x1511 JUMP JUMPDEST ADD MLOAD PUSH1 0x0 NOT PUSH1 0xF8 DUP5 PUSH1 0x3 SHL AND SHR NOT AND SWAP1 SSTORE DUP6 DUP1 DUP1 PUSH2 0x15D1 JUMP JUMPDEST SWAP2 SWAP3 PUSH1 0x20 PUSH1 0x1 DUP2 SWAP3 DUP7 DUP6 ADD MLOAD DUP2 SSTORE ADD SWAP5 ADD SWAP3 ADD PUSH2 0x15BC JUMP JUMPDEST DUP3 PUSH1 0x0 MSTORE PUSH1 0x20 PUSH1 0x0 KECCAK256 PUSH1 0x1F DUP4 ADD PUSH1 0x5 SHR DUP2 ADD SWAP2 PUSH1 0x20 DUP5 LT PUSH2 0x164D JUMPI JUMPDEST PUSH1 0x1F ADD PUSH1 0x5 SHR ADD SWAP1 JUMPDEST DUP2 DUP2 LT PUSH2 0x1641 JUMPI POP PUSH2 0x14DF JUMP JUMPDEST PUSH1 0x0 DUP2 SSTORE PUSH1 0x1 ADD PUSH2 0x1634 JUMP JUMPDEST SWAP1 SWAP2 POP DUP2 SWAP1 PUSH2 0x162B JUMP JUMPDEST PUSH4 0x4E487B71 PUSH1 0xE0 SHL PUSH1 0x0 MSTORE PUSH1 0x41 PUSH1 0x4 MSTORE PUSH1 0x24 PUSH1 0x0 REVERT JUMPDEST PUSH4 0x4E487B71 PUSH1 0xE0 SHL PUSH1 0x0 MSTORE PUSH1 0x0 PUSH1 0x4 MSTORE PUSH1 0x24 PUSH1 0x0 REVERT JUMPDEST PUSH1 0x40 MLOAD PUSH4 0xC23CB525 PUSH1 0xE0 SHL DUP2 MSTORE PUSH1 0x1 PUSH1 0x1 PUSH1 0xA0 SHL SUB SWAP1 SWAP2 AND PUSH1 0x4 DUP3 ADD MSTORE PUSH1 0x24 SWAP1 REVERT JUMPDEST PUSH1 0x40 MLOAD PUSH4 0x49B49DBD PUSH1 0xE1 SHL DUP2 MSTORE CALLER PUSH1 0x4 DUP3 ADD MSTORE PUSH1 0x24 SWAP1 REVERT JUMPDEST PUSH1 0x4 CALLDATALOAD SWAP1 PUSH1 0x1 PUSH1 0x1 PUSH1 0xA0 SHL SUB DUP3 AND DUP3 SUB PUSH2 0x142 JUMPI JUMP JUMPDEST SWAP2 DUP2 PUSH1 0x1F DUP5 ADD SLT ISZERO PUSH2 0x142 JUMPI DUP3 CALLDATALOAD SWAP2 PUSH1 0x1 PUSH1 0x1 PUSH1 0x40 SHL SUB DUP4 GT PUSH2 0x142 JUMPI PUSH1 0x20 DUP1 DUP6 ADD SWAP5 DUP5 PUSH1 0x5 SHL ADD ADD GT PUSH2 0x142 JUMPI JUMP JUMPDEST SWAP1 PUSH1 0x5 DUP3 LT ISZERO PUSH2 0x3F3 JUMPI MSTORE JUMP JUMPDEST PUSH1 0x5 DUP2 LT ISZERO PUSH2 0x3F3 JUMPI PUSH1 0x0 MSTORE PUSH1 0x5 PUSH1 0x20 MSTORE PUSH1 0x40 PUSH1 0x0 KECCAK256 SWAP1 JUMP JUMPDEST DUP1 SLOAD DUP3 LT ISZERO PUSH2 0x1745 JUMPI PUSH1 0x0 MSTORE PUSH1 0x20 PUSH1 0x0 KECCAK256 SWAP1 PUSH1 0x1 SHL ADD SWAP1 PUSH1 0x0 SWAP1 JUMP JUMPDEST PUSH4 0x4E487B71 PUSH1 0xE0 SHL PUSH1 0x0 MSTORE PUSH1 0x32 PUSH1 0x4 MSTORE PUSH1 0x24 PUSH1 0x0 REVERT JUMPDEST SWAP2 SWAP1 DUP3 MLOAD SWAP3 DUP4 DUP3 MSTORE PUSH1 0x0 JUMPDEST DUP5 DUP2 LT PUSH2 0x1787 JUMPI POP POP DUP3 PUSH1 0x0 PUSH1 0x20 DUP1 SWAP5 SWAP6 DUP5 ADD ADD MSTORE PUSH1 0x1F DUP1 NOT SWAP2 ADD AND ADD ADD SWAP1 JUMP JUMPDEST PUSH1 0x20 DUP2 DUP4 ADD DUP2 ADD MLOAD DUP5 DUP4 ADD DUP3 ADD MSTORE ADD PUSH2 0x1766 JUMP JUMPDEST DUP1 SLOAD DUP3 LT ISZERO PUSH2 0x1745 JUMPI PUSH1 0x0 MSTORE PUSH1 0x20 PUSH1 0x0 KECCAK256 SWAP1 PUSH1 0x2 SHL ADD SWAP1 PUSH1 0x0 SWAP1 JUMP JUMPDEST SWAP1 PUSH1 0x1 DUP3 DUP2 SHR SWAP3 AND DUP1 ISZERO PUSH2 0x17E7 JUMPI JUMPDEST PUSH1 0x20 DUP4 LT EQ PUSH2 0x17D1 JUMPI JUMP JUMPDEST PUSH4 0x4E487B71 PUSH1 0xE0 SHL PUSH1 0x0 MSTORE PUSH1 0x22 PUSH1 0x4 MSTORE PUSH1 0x24 PUSH1 0x0 REVERT JUMPDEST SWAP2 PUSH1 0x7F AND SWAP2 PUSH2 0x17C6 JUMP JUMPDEST PUSH1 0xA0 DUP2 ADD SWAP1 DUP2 LT PUSH1 0x1 PUSH1 0x1 PUSH1 0x40 SHL SUB DUP3 GT OR PUSH2 0x1657 JUMPI PUSH1 0x40 MSTORE JUMP JUMPDEST PUSH1 0xE0 DUP2 ADD SWAP1 DUP2 LT PUSH1 0x1 PUSH1 0x1 PUSH1 0x40 SHL SUB DUP3 GT OR PUSH2 0x1657 JUMPI PUSH1 0x40 MSTORE JUMP JUMPDEST PUSH1 0x40 DUP2 ADD SWAP1 DUP2 LT PUSH1 0x1 PUSH1 0x1 PUSH1 0x40 SHL SUB DUP3 GT OR PUSH2 0x1657 JUMPI PUSH1 0x40 MSTORE JUMP JUMPDEST SWAP1 PUSH1 0x1F DUP1 NOT SWAP2 ADD AND DUP2 ADD SWAP1 DUP2 LT PUSH1 0x1 PUSH1 0x1 PUSH1 0x40 SHL SUB DUP3 GT OR PUSH2 0x1657 JUMPI PUSH1 0x40 MSTORE JUMP JUMPDEST SWAP1 PUSH1 0x40 MLOAD SWAP2 DUP3 PUSH1 0x0 DUP3 SLOAD SWAP3 PUSH2 0x1877 DUP5 PUSH2 0x17B7 JUMP JUMPDEST SWAP1 DUP2 DUP5 MSTORE PUSH1 0x1 SWAP5 DUP6 DUP2 AND SWAP1 DUP2 PUSH1 0x0 EQ PUSH2 0x18E6 JUMPI POP PUSH1 0x1 EQ PUSH2 0x18A3 JUMPI JUMPDEST POP POP PUSH2 0x18A1 SWAP3 POP SUB DUP4 PUSH2 0x1842 JUMP JUMPDEST JUMP JUMPDEST SWAP1 SWAP4 SWAP2 POP PUSH1 0x0 MSTORE PUSH1 0x20 SWAP1 DUP2 PUSH1 0x0 KECCAK256 SWAP4 PUSH1 0x0 SWAP2 JUMPDEST DUP2 DUP4 LT PUSH2 0x18CE JUMPI POP POP PUSH2 0x18A1 SWAP4 POP DUP3 ADD ADD CODESIZE DUP1 PUSH2 0x1893 JUMP JUMPDEST DUP6 SLOAD DUP9 DUP5 ADD DUP6 ADD MSTORE SWAP5 DUP6 ADD SWAP5 DUP8 SWAP5 POP SWAP2 DUP4 ADD SWAP2 PUSH2 0x18B6 JUMP JUMPDEST SWAP2 POP POP PUSH2 0x18A1 SWAP5 POP PUSH1 0x20 SWAP3 POP PUSH1 0xFF NOT AND DUP3 DUP5 ADD MSTORE ISZERO ISZERO PUSH1 0x5 SHL DUP3 ADD ADD CODESIZE DUP1 PUSH2 0x1893 JUMP JUMPDEST PUSH1 0x0 SLOAD PUSH1 0x1 PUSH1 0x1 PUSH1 0xA0 SHL SUB AND CALLER SUB PUSH2 0x191D JUMPI JUMP JUMPDEST PUSH1 0x40 MLOAD PUSH4 0x118CDAA7 PUSH1 0xE0 SHL DUP2 MSTORE CALLER PUSH1 0x4 DUP3 ADD MSTORE PUSH1 0x24 SWAP1 REVERT JUMPDEST ISZERO PUSH2 0x193C JUMPI JUMP JUMPDEST PUSH1 0x40 MLOAD PUSH3 0x461BCD PUSH1 0xE5 SHL DUP2 MSTORE PUSH1 0x20 PUSH1 0x4 DUP3 ADD MSTORE PUSH1 0x11 PUSH1 0x24 DUP3 ADD MSTORE PUSH17 0x24B73B30B634B2103234B6B2B739B4B7B7 PUSH1 0x79 SHL PUSH1 0x44 DUP3 ADD MSTORE PUSH1 0x64 SWAP1 REVERT JUMPDEST PUSH1 0x1 PUSH1 0x1 PUSH1 0x40 SHL SUB DUP2 GT PUSH2 0x1657 JUMPI PUSH1 0x5 SHL PUSH1 0x20 ADD SWAP1 JUMP JUMPDEST SWAP3 SWAP2 PUSH2 0x1997 DUP3 PUSH2 0x1975 JUMP JUMPDEST SWAP2 PUSH2 0x19A5 PUSH1 0x40 MLOAD SWAP4 DUP5 PUSH2 0x1842 JUMP JUMPDEST DUP3 SWAP5 DUP2 DUP5 MSTORE PUSH1 0x20 DUP1 SWAP5 ADD SWAP2 PUSH1 0x5 SHL DUP2 ADD SWAP3 DUP4 GT PUSH2 0x142 JUMPI SWAP1 JUMPDEST DUP3 DUP3 LT PUSH2 0x19CB JUMPI POP POP POP POP JUMP JUMPDEST DUP2 CALLDATALOAD DUP2 MSTORE SWAP1 DUP4 ADD SWAP1 DUP4 ADD PUSH2 0x19BE JUMP JUMPDEST PUSH1 0x5 DUP3 LT ISZERO PUSH2 0x3F3 JUMPI MSTORE JUMP JUMPDEST SWAP1 PUSH1 0x5 DUP2 LT ISZERO PUSH2 0x3F3 JUMPI PUSH1 0xFF PUSH1 0x40 SHL DUP3 SLOAD SWAP2 PUSH1 0x40 SHL AND SWAP1 PUSH1 0xFF PUSH1 0x40 SHL NOT AND OR SWAP1 SSTORE JUMP JUMPDEST PUSH1 0x2 PUSH1 0x1 SLOAD EQ PUSH2 0x1A1A JUMPI PUSH1 0x2 PUSH1 0x1 SSTORE JUMP JUMPDEST PUSH1 0x40 MLOAD PUSH4 0x3EE5AEB5 PUSH1 0xE0 SHL DUP2 MSTORE PUSH1 0x4 SWAP1 REVERT JUMPDEST SWAP2 SWAP1 DUP3 ADD DUP1 SWAP3 GT PUSH2 0xBC2 JUMPI JUMP JUMPDEST PUSH1 0x1 PUSH1 0x1 PUSH1 0xA0 SHL SUB AND PUSH1 0x0 SWAP1 DUP2 MSTORE PUSH1 0x2 PUSH1 0x20 MSTORE PUSH1 0x40 DUP2 KECCAK256 DUP1 SLOAD SWAP2 SWAP3 SWAP1 SWAP2 PUSH1 0x1 PUSH1 0x1 PUSH1 0x40 SHL SUB DUP2 AND ISZERO PUSH2 0x1A9F JUMPI PUSH1 0xFF SWAP1 PUSH1 0x40 SHR AND SWAP3 PUSH1 0x4 PUSH1 0x1 DUP5 ADD SLOAD SWAP4 ADD SLOAD SWAP1 PUSH3 0x93A80 DUP3 ADD DUP1 SWAP3 GT PUSH2 0x1A8B JUMPI POP TIMESTAMP GT SWAP1 JUMP JUMPDEST PUSH4 0x4E487B71 PUSH1 0xE0 SHL DUP2 MSTORE PUSH1 0x11 PUSH1 0x4 MSTORE PUSH1 0x24 SWAP1 REVERT JUMPDEST POP DUP3 SWAP2 POP PUSH1 0x1 SWAP1 JUMP JUMPDEST PUSH1 0x1 PUSH1 0x1 PUSH1 0xA0 SHL SUB AND PUSH1 0x0 SWAP1 DUP2 MSTORE PUSH1 0x2 PUSH1 0x20 MSTORE PUSH1 0x40 DUP2 KECCAK256 SLOAD SWAP1 SWAP2 SWAP1 PUSH1 0x1 PUSH1 0x1 PUSH1 0x40 SHL SUB DUP2 AND ISZERO PUSH2 0x1B09 JUMPI PUSH1 0x40 SHR PUSH1 0xFF AND SWAP2 PUSH1 0x5 DUP4 LT ISZERO PUSH2 0x1AF5 JUMPI PUSH1 0x5 DUP3 LT ISZERO PUSH2 0x1AF5 JUMPI POP PUSH1 0xFF AND DUP2 LT ISZERO SWAP2 JUMP JUMPDEST PUSH4 0x4E487B71 PUSH1 0xE0 SHL DUP2 MSTORE PUSH1 0x21 PUSH1 0x4 MSTORE PUSH1 0x24 SWAP1 REVERT JUMPDEST POP PUSH1 0x5 DUP2 SWAP4 SWAP3 SWAP4 LT ISZERO PUSH2 0x1B1B JUMPI ISZERO SWAP2 SWAP1 JUMP JUMPDEST PUSH4 0x4E487B71 PUSH1 0xE0 SHL DUP4 MSTORE PUSH1 0x21 PUSH1 0x4 MSTORE PUSH1 0x24 DUP4 REVERT JUMPDEST PUSH1 0x1 PUSH1 0x1 PUSH1 0x40 SHL SUB DUP2 GT PUSH2 0x1657 JUMPI PUSH1 0x1F ADD PUSH1 0x1F NOT AND PUSH1 0x20 ADD SWAP1 JUMP JUMPDEST PUSH1 0x0 NOT DUP2 EQ PUSH2 0xBC2 JUMPI PUSH1 0x1 ADD SWAP1 JUMP JUMPDEST PUSH1 0x1 PUSH1 0x1 PUSH1 0xA0 SHL SUB AND PUSH1 0x0 SWAP1 DUP2 MSTORE PUSH1 0x3 PUSH1 0x20 MSTORE PUSH1 0x40 DUP2 KECCAK256 DUP1 SLOAD SWAP2 SWAP3 SWAP2 SWAP1 DUP4 SWAP1 DUP3 ISZERO PUSH2 0x1C65 JUMPI SWAP2 DUP2 SWAP3 DUP3 SWAP2 JUMPDEST DUP1 DUP4 LT PUSH2 0x1BC9 JUMPI POP POP POP PUSH8 0xDE0B6B3A7640000 SWAP2 DUP3 DUP2 MUL SWAP3 DUP2 DUP5 DIV EQ SWAP1 ISZERO OR ISZERO PUSH2 0x1A8B JUMPI DUP4 ISZERO PUSH2 0x1BB5 JUMPI POP DUP3 SWAP1 DIV SWAP1 JUMP JUMPDEST PUSH4 0x4E487B71 PUSH1 0xE0 SHL DUP2 MSTORE PUSH1 0x12 PUSH1 0x4 MSTORE PUSH1 0x24 SWAP1 REVERT JUMPDEST SWAP1 SWAP2 SWAP4 SWAP6 PUSH2 0x1BE8 PUSH2 0x1BDA DUP7 DUP6 PUSH2 0x179B JUMP JUMPDEST POP SWAP2 PUSH1 0x1 DUP1 SWAP4 ADD SLOAD SWAP1 PUSH2 0x1A2C JUMP JUMPDEST SWAP7 PUSH1 0xFF PUSH2 0x1BF5 DUP8 DUP7 PUSH2 0x179B JUMP JUMPDEST POP SLOAD PUSH1 0xA0 SHR AND SWAP2 PUSH1 0x5 DUP4 LT ISZERO PUSH2 0x1C51 JUMPI PUSH2 0x1C0F DUP8 DUP7 PUSH2 0x179B JUMP JUMPDEST POP ADD SLOAD SWAP2 DUP3 DUP2 MUL SWAP3 DUP2 DUP5 DIV EQ SWAP1 ISZERO OR ISZERO PUSH2 0x1C3D JUMPI PUSH2 0x1C36 SWAP2 PUSH2 0x1C30 SWAP2 PUSH2 0x1A2C JUMP JUMPDEST SWAP5 PUSH2 0x1B4A JUMP JUMPDEST SWAP2 SWAP1 PUSH2 0x1B84 JUMP JUMPDEST PUSH4 0x4E487B71 PUSH1 0xE0 SHL DUP6 MSTORE PUSH1 0x11 PUSH1 0x4 MSTORE PUSH1 0x24 DUP6 REVERT JUMPDEST PUSH4 0x4E487B71 PUSH1 0xE0 SHL DUP7 MSTORE PUSH1 0x21 PUSH1 0x4 MSTORE PUSH1 0x24 DUP7 REVERT JUMPDEST POP SWAP3 POP POP DUP2 SWAP1 JUMP JUMPDEST DUP1 MLOAD DUP3 LT ISZERO PUSH2 0x1745 JUMPI PUSH1 0x20 SWAP2 PUSH1 0x5 SHL ADD ADD SWAP1 JUMP JUMPDEST PUSH1 0xFF AND PUSH1 0xFF DUP2 EQ PUSH2 0xBC2 JUMPI PUSH1 0x1 ADD SWAP1 JUMP JUMPDEST PUSH1 0x0 DUP1 DUP1 JUMPDEST PUSH1 0xFF DUP3 AND PUSH1 0x4 DUP1 DUP3 GT PUSH2 0x1CE4 JUMPI PUSH1 0x5 DUP3 LT ISZERO PUSH2 0x1CD1 JUMPI POP PUSH2 0x1CCB SWAP2 PUSH2 0x1CBE PUSH2 0x1CC5 SWAP3 PUSH2 0x1710 JUMP JUMPDEST SLOAD SWAP1 PUSH2 0x1A2C JUMP JUMPDEST SWAP2 PUSH2 0x1C81 JUMP JUMPDEST SWAP1 PUSH2 0x1C97 JUMP JUMPDEST PUSH4 0x4E487B71 PUSH1 0xE0 SHL DUP6 MSTORE PUSH1 0x21 SWAP1 MSTORE PUSH1 0x24 DUP5 REVERT JUMPDEST POP POP SWAP3 SWAP2 POP POP JUMP JUMPDEST SWAP1 DUP2 MLOAD DUP1 DUP3 MSTORE PUSH1 0x20 DUP1 DUP1 SWAP4 ADD SWAP4 ADD SWAP2 PUSH1 0x0 JUMPDEST DUP3 DUP2 LT PUSH2 0x1D0C JUMPI POP POP POP POP SWAP1 JUMP JUMPDEST DUP4 MLOAD DUP6 MSTORE SWAP4 DUP2 ADD SWAP4 SWAP3 DUP2 ADD SWAP3 PUSH1 0x1 ADD PUSH2 0x1CFE JUMP JUMPDEST RETURNDATASIZE ISZERO PUSH2 0x1D4B JUMPI RETURNDATASIZE SWAP1 PUSH2 0x1D31 DUP3 PUSH2 0x1B2F JUMP JUMPDEST SWAP2 PUSH2 0x1D3F PUSH1 0x40 MLOAD SWAP4 DUP5 PUSH2 0x1842 JUMP JUMPDEST DUP3 MSTORE RETURNDATASIZE PUSH1 0x0 PUSH1 0x20 DUP5 ADD RETURNDATACOPY JUMP JUMPDEST PUSH1 0x60 SWAP1 JUMP JUMPDEST SWAP2 SWAP1 SWAP2 DUP1 MLOAD PUSH1 0x32 DUP2 MUL SWAP1 DUP1 DUP3 DIV PUSH1 0x32 EQ SWAP1 ISZERO OR ISZERO PUSH2 0xBC2 JUMPI PUSH2 0x88B8 SWAP1 DUP2 ADD DUP1 SWAP2 GT PUSH2 0xBC2 JUMPI DUP4 MLOAD PUSH1 0xC8 DUP2 MUL SWAP1 DUP1 DUP3 DIV PUSH1 0xC8 EQ SWAP1 ISZERO OR ISZERO PUSH2 0xBC2 JUMPI PUSH2 0x1D93 SWAP2 PUSH2 0x1A2C JUMP JUMPDEST DUP1 GAS LT PUSH2 0xBB0 JUMPI PUSH1 0x40 MLOAD SWAP2 PUSH1 0x20 SWAP3 PUSH2 0x1DBD DUP5 DUP3 ADD SWAP3 PUSH1 0x3 DUP5 MSTORE PUSH1 0x80 PUSH1 0x40 DUP5 ADD MSTORE PUSH1 0xA0 DUP4 ADD SWAP1 PUSH2 0x1CEC JUMP JUMPDEST SWAP6 PUSH1 0x1F NOT SWAP7 DUP8 DUP4 DUP3 SUB ADD PUSH1 0x60 DUP5 ADD MSTORE DUP6 DUP1 DUP4 MLOAD SWAP3 DUP4 DUP2 MSTORE ADD SWAP3 ADD SWAP1 PUSH1 0x0 JUMPDEST DUP2 DUP2 LT PUSH2 0x1E5D JUMPI POP POP POP PUSH1 0x27 DUP3 PUSH2 0x1E09 PUSH1 0x0 SWAP8 SWAP9 SWAP10 DUP3 DUP10 SWAP9 SWAP8 SWAP7 SWAP6 DUP10 PUSH1 0x80 DUP2 SWAP9 ADD MSTORE SUB SWAP1 DUP2 ADD DUP4 MSTORE DUP3 PUSH2 0x1842 JUMP JUMPDEST MLOAD SWAP4 CALL SWAP1 PUSH2 0x1E15 PUSH2 0x1D20 JUMP JUMPDEST SWAP2 ISZERO PUSH2 0x1E44 JUMPI PUSH1 0x40 DUP3 DUP1 MLOAD DUP2 ADD SUB SLT PUSH2 0x142 JUMPI DUP2 ADD MLOAD SWAP1 PUSH1 0x1 PUSH1 0x1 PUSH1 0x40 SHL SUB DUP3 AND DUP3 SUB PUSH2 0x142 JUMPI PUSH1 0x40 ADD MLOAD SWAP1 SWAP2 JUMP JUMPDEST PUSH1 0x40 MLOAD PUSH4 0x6F99E793 PUSH1 0xE0 SHL DUP2 MSTORE PUSH1 0x27 PUSH1 0x4 DUP3 ADD MSTORE PUSH1 0x24 SWAP1 REVERT JUMPDEST DUP3 MLOAD DUP5 MSTORE SWAP3 DUP8 ADD SWAP3 SWAP2 DUP8 ADD SWAP2 PUSH1 0x1 ADD PUSH2 0x1DDB JUMP INVALID LOG2 PUSH5 0x6970667358 0x22 SLT KECCAK256 0xAC LOG3 DUP7 PUSH5 0xF966CD0C47 DUP8 0xDB ISZERO 0xAE DUP3 PUSH30 0xFCEE52C858C2A5FDC9507ABF1EFC28D57B64736F6C634300081400330000 "},"methodIdentifiers":{"WEIGHT_THRESHOLD()":"a37e7e9c","addReferenceProfile(uint8,int256[],uint256)":"0d859d4f","approveAttester(address)":"5e7cf5ab","approvedAttesters(address)":"7a6cfe4c","attest(address,uint8,uint256,string)":"0178a097","attestations(address,uint256)":"c657c6a5","classifyTrust(address)":"9447fc80","embeddingDimension()":"fd7288c0","getAttestationScore(address)":"11b0c89e","getAttestations(address)":"aba6466c","getProfile(address)":"0f53a470","getTrustLevel(address)":"6a4b783d","isApprovedAttester(address)":"bcb3e5c2","meetsTrustRequirement(address,uint8)":"d292b610","minConfidence()":"d52b7a14","owner()":"8da5cb5b","profiles(address)":"bbe15627","referenceProfiles(uint8,uint256)":"55b3a489","registerProfile(address,int256[],bytes32[])":"d18eae18","renounceOwnership()":"715018a6","revokeAttester(address)":"206df509","setMinConfidence(uint256)":"5764390c","transferOwnership(address)":"f2fde38b","verifyUser(address)":"4d813120"}}}}}