{"src/examples/AnomalyGuard.sol":{"AnomalyGuard":{"abi":[{"inputs":[{"internalType":"uint256","name":"_dimension","type":"uint256"},{"internalType":"uint256","name":"_threshold","type":"uint256"}],"stateMutability":"nonpayable","type":"constructor"},{"inputs":[{"internalType":"address","name":"flagged","type":"address"},{"internalType":"uint256","name":"cooldownUntil","type":"uint256"}],"name":"AddressFlagged","type":"error"},{"inputs":[],"name":"EnforcedPause","type":"error"},{"inputs":[],"name":"ExpectedPause","type":"error"},{"inputs":[],"name":"InsufficientGas","type":"error"},{"inputs":[{"internalType":"uint256","name":"length","type":"uint256"},{"internalType":"uint256","name":"expected","type":"uint256"}],"name":"InvalidEmbedding","type":"error"},{"inputs":[{"internalType":"address","name":"owner","type":"address"}],"name":"OwnableInvalidOwner","type":"error"},{"inputs":[{"internalType":"address","name":"account","type":"address"}],"name":"OwnableUnauthorizedAccount","type":"error"},{"inputs":[{"internalType":"address","name":"precompile","type":"address"}],"name":"PrecompileCallFailed","type":"error"},{"inputs":[],"name":"ReentrancyGuardReentrantCall","type":"error"},{"inputs":[{"internalType":"uint256","name":"value","type":"uint256"}],"name":"ThresholdOutOfRange","type":"error"},{"inputs":[{"internalType":"uint256","name":"anomalyScore","type":"uint256"}],"name":"TransactionBlocked","type":"error"},{"anonymous":false,"inputs":[{"indexed":true,"internalType":"address","name":"sender","type":"address"},{"indexed":true,"internalType":"bytes32","name":"txHash","type":"bytes32"},{"indexed":false,"internalType":"uint256","name":"score","type":"uint256"},{"indexed":false,"internalType":"uint256","name":"cooldownUntil","type":"uint256"}],"name":"AnomalyFlagged","type":"event"},{"anonymous":false,"inputs":[{"indexed":true,"internalType":"address","name":"previousOwner","type":"address"},{"indexed":true,"internalType":"address","name":"newOwner","type":"address"}],"name":"OwnershipTransferred","type":"event"},{"anonymous":false,"inputs":[{"indexed":true,"internalType":"bytes32","name":"patternHash","type":"bytes32"}],"name":"PatternRemoved","type":"event"},{"anonymous":false,"inputs":[{"indexed":true,"internalType":"bytes32","name":"patternHash","type":"bytes32"}],"name":"PatternWhitelisted","type":"event"},{"anonymous":false,"inputs":[{"indexed":false,"internalType":"address","name":"account","type":"address"}],"name":"Paused","type":"event"},{"anonymous":false,"inputs":[{"indexed":false,"internalType":"uint256","name":"oldThreshold","type":"uint256"},{"indexed":false,"internalType":"uint256","name":"newThreshold","type":"uint256"}],"name":"ThresholdUpdated","type":"event"},{"anonymous":false,"inputs":[{"indexed":true,"internalType":"address","name":"sender","type":"address"},{"indexed":true,"internalType":"bytes32","name":"txHash","type":"bytes32"},{"indexed":false,"internalType":"uint256","name":"score","type":"uint256"},{"indexed":false,"internalType":"bool","name":"passed","type":"bool"}],"name":"TransactionAnalyzed","type":"event"},{"anonymous":false,"inputs":[{"indexed":false,"internalType":"address","name":"account","type":"address"}],"name":"Unpaused","type":"event"},{"inputs":[],"name":"DEFAULT_THRESHOLD","outputs":[{"internalType":"uint256","name":"","type":"uint256"}],"stateMutability":"view","type":"function"},{"inputs":[],"name":"FLAG_COOLDOWN","outputs":[{"internalType":"uint256","name":"","type":"uint256"}],"stateMutability":"view","type":"function"},{"inputs":[],"name":"MAX_DIMENSION","outputs":[{"internalType":"uint256","name":"","type":"uint256"}],"stateMutability":"view","type":"function"},{"inputs":[],"name":"anomalyThreshold","outputs":[{"internalType":"uint256","name":"","type":"uint256"}],"stateMutability":"view","type":"function"},{"inputs":[{"internalType":"int256[][]","name":"embeddings","type":"int256[][]"},{"internalType":"bytes32[]","name":"txHashes","type":"bytes32[]"}],"name":"batchValidate","outputs":[{"internalType":"bool[]","name":"passed","type":"bool[]"},{"internalType":"uint256[]","name":"scores","type":"uint256[]"}],"stateMutability":"nonpayable","type":"function"},{"inputs":[],"name":"embeddingDimension","outputs":[{"internalType":"uint256","name":"","type":"uint256"}],"stateMutability":"view","type":"function"},{"inputs":[{"internalType":"address","name":"","type":"address"}],"name":"flaggedUntil","outputs":[{"internalType":"uint256","name":"","type":"uint256"}],"stateMutability":"view","type":"function"},{"inputs":[{"internalType":"address","name":"account","type":"address"}],"name":"getAverageScore","outputs":[{"internalType":"uint256","name":"average","type":"uint256"}],"stateMutability":"view","type":"function"},{"inputs":[],"name":"getStats","outputs":[{"internalType":"uint256","name":"analyzed","type":"uint256"},{"internalType":"uint256","name":"flagged","type":"uint256"},{"internalType":"uint256","name":"rate","type":"uint256"}],"stateMutability":"view","type":"function"},{"inputs":[{"internalType":"address","name":"account","type":"address"}],"name":"isFlagged","outputs":[{"internalType":"bool","name":"flagged_","type":"bool"},{"internalType":"uint256","name":"cooldownEnds","type":"uint256"}],"stateMutability":"view","type":"function"},{"inputs":[],"name":"owner","outputs":[{"internalType":"address","name":"","type":"address"}],"stateMutability":"view","type":"function"},{"inputs":[],"name":"pause","outputs":[],"stateMutability":"nonpayable","type":"function"},{"inputs":[],"name":"paused","outputs":[{"internalType":"bool","name":"","type":"bool"}],"stateMutability":"view","type":"function"},{"inputs":[{"internalType":"bytes32","name":"patternHash","type":"bytes32"}],"name":"removePattern","outputs":[],"stateMutability":"nonpayable","type":"function"},{"inputs":[],"name":"renounceOwnership","outputs":[],"stateMutability":"nonpayable","type":"function"},{"inputs":[{"internalType":"address","name":"","type":"address"},{"internalType":"uint256","name":"","type":"uint256"}],"name":"scoreHistory","outputs":[{"internalType":"uint256","name":"","type":"uint256"}],"stateMutability":"view","type":"function"},{"inputs":[{"internalType":"uint256","name":"newThreshold","type":"uint256"}],"name":"setThreshold","outputs":[],"stateMutability":"nonpayable","type":"function"},{"inputs":[],"name":"totalAnalyzed","outputs":[{"internalType":"uint256","name":"","type":"uint256"}],"stateMutability":"view","type":"function"},{"inputs":[],"name":"totalAnomalies","outputs":[{"internalType":"uint256","name":"","type":"uint256"}],"stateMutability":"view","type":"function"},{"inputs":[{"internalType":"address","name":"newOwner","type":"address"}],"name":"transferOwnership","outputs":[],"stateMutability":"nonpayable","type":"function"},{"inputs":[{"internalType":"address","name":"account","type":"address"}],"name":"unflag","outputs":[],"stateMutability":"nonpayable","type":"function"},{"inputs":[],"name":"unpause","outputs":[],"stateMutability":"nonpayable","type":"function"},{"inputs":[{"internalType":"int256[]","name":"embedding","type":"int256[]"},{"internalType":"bytes32","name":"txHash","type":"bytes32"}],"name":"validateTransaction","outputs":[{"internalType":"bool","name":"passed","type":"bool"},{"internalType":"uint256","name":"score","type":"uint256"}],"stateMutability":"nonpayable","type":"function"},{"inputs":[{"internalType":"int256[]","name":"embedding","type":"int256[]"}],"name":"whitelistPattern","outputs":[],"stateMutability":"nonpayable","type":"function"},{"inputs":[{"internalType":"bytes32","name":"","type":"bytes32"}],"name":"whitelistedPatterns","outputs":[{"internalType":"bool","name":"","type":"bool"}],"stateMutability":"view","type":"function"}],"evm":{"bytecode":{"linkReferences":{},"object":"60803461011f5761118a90601f38839003908101601f19168201906001600160401b03821183831017610124578083916040958694855283398101031261011f57602081519101519033156101075760008054336001600160a01b031982168117835585519290916001600160a01b0316907f8be0079c531659141344cd1fd0a4f28419497f9722a3daafe3b4186f6b6457e09080a360018055811580156100fc575b6100e05750670de0b6b3a764000082116100c9576004556003555161104f908161013b8239f35b506024915190636ec31c6760e11b82526004820152fd5b604491636067a1e560e11b825260048201526102006024820152fd5b5061020082116100a2565b8251631e4fbdf760e01b815260006004820152602490fd5b600080fd5b634e487b7160e01b600052604160045260246000fdfe6080604052600436101561001257600080fd5b60003560e01c80633f4ba83a14610a3c5780634ee69e2f14610a1e578063546734df14610740578063575b68f6146107235780635c975abb146107005780635f9895fa146106e2578063691845e41461068a5780636938dc0e1461064f5780636f83a58614610631578063715018a6146105d857806375e2c56d146105735780637f519b48146104c85780638456cb591461046e5780638da5cb5b14610445578063960bfe04146103c957806398ed5fa41461038f5780639b76bd05146103735780639db923681461031a578063aefed353146102e9578063b81cab4b146102c6578063c59d48471461024d578063d06509fd14610222578063f2fde38b14610194578063fd7288c0146101765763fef48a991461012f57600080fd5b34610171576020366003190112610171576001600160a01b03610150610ad7565b16600090815260056020908152604091829020548251438211815291820152f35b600080fd5b34610171576000366003190112610171576020600454604051908152f35b34610171576020366003190112610171576101ad610ad7565b6101b5610b05565b6001600160a01b0390811690811561020957600054826bffffffffffffffffffffffff60a01b821617600055167f8be0079c531659141344cd1fd0a4f28419497f9722a3daafe3b4186f6b6457e0600080a3005b604051631e4fbdf760e01b815260006004820152602490fd5b34610171576020366003190112610171576020610245610240610ad7565b610f95565b604051908152f35b34610171576000366003190112610171576008546009549080156102bb57670de0b6b3a7640000918281029281840414811517156102a55761029182606094610f75565b905b60405192835260208301526040820152f35b634e487b7160e01b600052601160045260246000fd5b606091600090610293565b346101715760003660031901126101715760206040516709b6e64a8ec600008152f35b34610171576020366003190112610171576004356000526006602052602060ff604060002054166040519015158152f35b3461017157602036600319011261017157600435610336610b05565b806000526006602052604060002060ff1981541690557fd03c7ccbee6ac6cdc8626168da56b4e44bbf25e02997e48e11c4565399fc8888600080a2005b34610171576000366003190112610171576020604051600a8152f35b34610171576020366003190112610171576001600160a01b036103b0610ad7565b1660005260056020526020604060002054604051908152f35b34610171576020366003190112610171576004356103e5610b05565b670de0b6b3a7640000811161042d5760407fb06a54caabe58475c86c2bf9df3f2f06dd1213e9e10659c293117fe4893b274b91600354908060035582519182526020820152a1005b60249060405190636ec31c6760e11b82526004820152fd5b34610171576000366003190112610171576000546040516001600160a01b039091168152602090f35b3461017157600036600319011261017157610487610b05565b61048f610f13565b600160ff1960025416176002557f62e78cea01bee320cd4e420270b5ea74000d11b0c9f74754ebdbfc544b05a2586020604051338152a1005b346101715760203660031901126101715760043567ffffffffffffffff8111610171576105226104ff610530923690600401610aa6565b9290610509610b05565b6040519283916020830195602087526040840191610b31565b03601f198101835282610b62565b5190208060005260066020526040600020600160ff198254161790557f7c9f51d794f20dbf88d5bda87745e5fdc7be72f9aa04ba150d42aba4acefb7a8600080a2005b346101715760403660031901126101715760043567ffffffffffffffff8111610171576105a76105c0913690600401610aa6565b6105af610f13565b6105b7610f31565b60243591610bc1565b60018055604080519215158352602083019190915290f35b34610171576000366003190112610171576105f1610b05565b600080546001600160a01b0319811682556001600160a01b03167f8be0079c531659141344cd1fd0a4f28419497f9722a3daafe3b4186f6b6457e08280a3005b34610171576000366003190112610171576020600354604051908152f35b3461017157602036600319011261017157610668610ad7565b610670610b05565b6001600160a01b0316600090815260056020526040812055005b34610171576040366003190112610171576106a3610ad7565b6001600160a01b0316600090815260076020526040902080546024359190821015610171576020916106d491610aed565b90546040519160031b1c8152f35b34610171576000366003190112610171576020600854604051908152f35b3461017157600036600319011261017157602060ff600254166040519015158152f35b346101715760003660031901126101715760206040516102008152f35b346101715760403660031901126101715760043567ffffffffffffffff811161017157610771903690600401610aa6565b9060243567ffffffffffffffff811161017157610792903690600401610aa6565b929061079c610f13565b6107a4610f31565b8382036109e757600a82116109b0576107bc82610ba9565b926107ca6040519485610b62565b828452601f1994856107db85610ba9565b013660208701376107eb84610ba9565b956107f96040519788610b62565b84875261080585610ba9565b0136602088013760005b8481106108955786866001808055604051916040830160408452815180915260206060850192019060005b81811061087e5750505082810360208401526020808551928381520194019060005b8181106108695784860385f35b8251865260209586019590920191830161085c565b82511515845260209384019390920191840161083a565b60059080821b80850135601e198636030181121561017157850167ffffffffffffffff8135116101715760208101938135901b36038413610171578483101561099a5761090293604092835195869384936375e2c56d60e01b855286600486015260448501913590610b31565b90890135602483015203816000305af1801561098e5760009060009061094c575b6109479350610932838b610f61565b5261093d8289610f61565b9015159052610b9a565b61080f565b50506040823d604011610986575b8161096760409383610b62565b810103126101715781602061097e61094794610f54565b910151610923565b3d915061095a565b6040513d6000823e3d90fd5b634e487b7160e01b600052603260045260246000fd5b60405162461bcd60e51b815260206004820152600f60248201526e426174636820746f6f206c6172676560881b6044820152606490fd5b60405162461bcd60e51b815260206004820152600f60248201526e098cadccee8d040dad2e6dac2e8c6d608b1b6044820152606490fd5b34610171576000366003190112610171576020600954604051908152f35b3461017157600036600319011261017157610a55610b05565b60025460ff811615610a945760ff19166002557f5db9ee0a495bf2e6ff9c91a7834c1ba4fdd244a5e8aa4e537bd38aeae4b073aa6020604051338152a1005b604051638dfc202b60e01b8152600490fd5b9181601f840112156101715782359167ffffffffffffffff8311610171576020808501948460051b01011161017157565b600435906001600160a01b038216820361017157565b805482101561099a5760005260206000200190600090565b6000546001600160a01b03163303610b1957565b60405163118cdaa760e01b8152336004820152602490fd5b91908082526020809201929160005b828110610b4e575050505090565b833585529381019392810192600101610b40565b90601f8019910116810190811067ffffffffffffffff821117610b8457604052565b634e487b7160e01b600052604160045260246000fd5b60001981146102a55760010190565b67ffffffffffffffff8111610b845760051b60200190565b919290926004928354808603610ef6575060009433865260206005815260409182882054804310610ed8575082519382850183815285610c048682018585610b31565b0395610c18601f1997888101835282610b62565b51902089526006835260ff848a205416610e8d57610c3582610ba9565b90610c4285519283610b62565b828252838201809360051b820191368311610e89578590915b838310610e79575050505061753091825a10610e69579089908551858101918782019087845251809152606082019490845b88828210610e525750505050610cab81849503898101835282610b62565b519060248095fa3d15610e49573d67ffffffffffffffff8111610e3757610cdb84865197601f8401160187610b62565b85523d898487013e5b15610e23578284805181010312610e1f57610d0483838601519501610f54565b508396610d12600854610b9a565b6008553389526007835283892080549068010000000000000000821015610e0d5790610d4391600182018155610aed565b81549060031b9087821b91600019901b19161790556003548510988915610d985750505090867ff55fd7d95b41e3fecf28190794090ea7e3c92c988161f49689e2cdc5f6038d229282519485528401523392a3565b8487858893610da8600954610b9a565b50600a430190814311610dfb57339052600582528351918583528201527fe7ca1f0120f10fca4593e7fe88e72d536d313536bd23d6f89c7efb98274793eb833392a351630b1a0d7f60e31b815291820152fd5b634e487b7160e01b8152601187528790fd5b634e487b7160e01b8b5260418352838bfd5b8780fd5b8251636f99e79360e01b8152808801829052fd5b634e487b7160e01b8a5260418952828afd5b60609450610ce4565b83518852968701968f965090920191600101610c8d565b84516307099c5360e21b81528990fd5b8235815291810191869101610c5b565b8b80fd5b5050929394507ff55fd7d95b41e3fecf28190794090ea7e3c92c988161f49689e2cdc5f6038d229150610ec1600854610b9a565b60085560018151938785528401523392a360019190565b835163947c8d3760e01b815233818a01526024810191909152604490fd5b846044918760405192636067a1e560e11b84528301526024820152fd5b60ff60025416610f1f57565b60405163d93c066560e01b8152600490fd5b600260015414610f42576002600155565b604051633ee5aeb560e01b8152600490fd5b5190811515820361017157565b805182101561099a5760209160051b010190565b8115610f7f570490565b634e487b7160e01b600052601260045260246000fd5b6001600160a01b03166000908152600760205260408120805491821561101357908180915b848310610fd15750505090610fce91610f75565b90565b909192610fde8483610aed565b90549060031b1c8101809111610fff57610ff89093610b9a565b9190610fba565b634e487b7160e01b83526011600452602483fd5b9150509056fea2646970667358221220ad8c24e6a867e962a16b922b197ac76987b7561376c6594341dd3371e2498ae264736f6c63430008140033","opcodes":"PUSH1 0x80 CALLVALUE PUSH2 0x11F JUMPI PUSH2 0x118A SWAP1 PUSH1 0x1F CODESIZE DUP4 SWAP1 SUB SWAP1 DUP2 ADD PUSH1 0x1F NOT AND DUP3 ADD SWAP1 PUSH1 0x1 PUSH1 0x1 PUSH1 0x40 SHL SUB DUP3 GT DUP4 DUP4 LT OR PUSH2 0x124 JUMPI DUP1 DUP4 SWAP2 PUSH1 0x40 SWAP6 DUP7 SWAP5 DUP6 MSTORE DUP4 CODECOPY DUP2 ADD SUB SLT PUSH2 0x11F JUMPI PUSH1 0x20 DUP2 MLOAD SWAP2 ADD MLOAD SWAP1 CALLER ISZERO PUSH2 0x107 JUMPI PUSH1 0x0 DUP1 SLOAD CALLER PUSH1 0x1 PUSH1 0x1 PUSH1 0xA0 SHL SUB NOT DUP3 AND DUP2 OR DUP4 SSTORE DUP6 MLOAD SWAP3 SWAP1 SWAP2 PUSH1 0x1 PUSH1 0x1 PUSH1 0xA0 SHL SUB AND SWAP1 PUSH32 0x8BE0079C531659141344CD1FD0A4F28419497F9722A3DAAFE3B4186F6B6457E0 SWAP1 DUP1 LOG3 PUSH1 0x1 DUP1 SSTORE DUP2 ISZERO DUP1 ISZERO PUSH2 0xFC JUMPI JUMPDEST PUSH2 0xE0 JUMPI POP PUSH8 0xDE0B6B3A7640000 DUP3 GT PUSH2 0xC9 JUMPI PUSH1 0x4 SSTORE PUSH1 0x3 SSTORE MLOAD PUSH2 0x104F SWAP1 DUP2 PUSH2 0x13B DUP3 CODECOPY RETURN JUMPDEST POP PUSH1 0x24 SWAP2 MLOAD SWAP1 PUSH4 0x6EC31C67 PUSH1 0xE1 SHL DUP3 MSTORE PUSH1 0x4 DUP3 ADD MSTORE REVERT JUMPDEST PUSH1 0x44 SWAP2 PUSH4 0x6067A1E5 PUSH1 0xE1 SHL DUP3 MSTORE PUSH1 0x4 DUP3 ADD MSTORE PUSH2 0x200 PUSH1 0x24 DUP3 ADD MSTORE REVERT JUMPDEST POP PUSH2 0x200 DUP3 GT PUSH2 0xA2 JUMP JUMPDEST DUP3 MLOAD PUSH4 0x1E4FBDF7 PUSH1 0xE0 SHL DUP2 MSTORE PUSH1 0x0 PUSH1 0x4 DUP3 ADD MSTORE PUSH1 0x24 SWAP1 REVERT JUMPDEST PUSH1 0x0 DUP1 REVERT JUMPDEST PUSH4 0x4E487B71 PUSH1 0xE0 SHL PUSH1 0x0 MSTORE PUSH1 0x41 PUSH1 0x4 MSTORE PUSH1 0x24 PUSH1 0x0 REVERT INVALID PUSH1 0x80 PUSH1 0x40 MSTORE PUSH1 0x4 CALLDATASIZE LT ISZERO PUSH2 0x12 JUMPI PUSH1 0x0 DUP1 REVERT JUMPDEST PUSH1 0x0 CALLDATALOAD PUSH1 0xE0 SHR DUP1 PUSH4 0x3F4BA83A EQ PUSH2 0xA3C JUMPI DUP1 PUSH4 0x4EE69E2F EQ PUSH2 0xA1E JUMPI DUP1 PUSH4 0x546734DF EQ PUSH2 0x740 JUMPI DUP1 PUSH4 0x575B68F6 EQ PUSH2 0x723 JUMPI DUP1 PUSH4 0x5C975ABB EQ PUSH2 0x700 JUMPI DUP1 PUSH4 0x5F9895FA EQ PUSH2 0x6E2 JUMPI DUP1 PUSH4 0x691845E4 EQ PUSH2 0x68A JUMPI DUP1 PUSH4 0x6938DC0E EQ PUSH2 0x64F JUMPI DUP1 PUSH4 0x6F83A586 EQ PUSH2 0x631 JUMPI DUP1 PUSH4 0x715018A6 EQ PUSH2 0x5D8 JUMPI DUP1 PUSH4 0x75E2C56D EQ PUSH2 0x573 JUMPI DUP1 PUSH4 0x7F519B48 EQ PUSH2 0x4C8 JUMPI DUP1 PUSH4 0x8456CB59 EQ PUSH2 0x46E JUMPI DUP1 PUSH4 0x8DA5CB5B EQ PUSH2 0x445 JUMPI DUP1 PUSH4 0x960BFE04 EQ PUSH2 0x3C9 JUMPI DUP1 PUSH4 0x98ED5FA4 EQ PUSH2 0x38F JUMPI DUP1 PUSH4 0x9B76BD05 EQ PUSH2 0x373 JUMPI DUP1 PUSH4 0x9DB92368 EQ PUSH2 0x31A JUMPI DUP1 PUSH4 0xAEFED353 EQ PUSH2 0x2E9 JUMPI DUP1 PUSH4 0xB81CAB4B EQ PUSH2 0x2C6 JUMPI DUP1 PUSH4 0xC59D4847 EQ PUSH2 0x24D JUMPI DUP1 PUSH4 0xD06509FD EQ PUSH2 0x222 JUMPI DUP1 PUSH4 0xF2FDE38B EQ PUSH2 0x194 JUMPI DUP1 PUSH4 0xFD7288C0 EQ PUSH2 0x176 JUMPI PUSH4 0xFEF48A99 EQ PUSH2 0x12F JUMPI PUSH1 0x0 DUP1 REVERT JUMPDEST CALLVALUE PUSH2 0x171 JUMPI PUSH1 0x20 CALLDATASIZE PUSH1 0x3 NOT ADD SLT PUSH2 0x171 JUMPI PUSH1 0x1 PUSH1 0x1 PUSH1 0xA0 SHL SUB PUSH2 0x150 PUSH2 0xAD7 JUMP JUMPDEST AND PUSH1 0x0 SWAP1 DUP2 MSTORE PUSH1 0x5 PUSH1 0x20 SWAP1 DUP2 MSTORE PUSH1 0x40 SWAP2 DUP3 SWAP1 KECCAK256 SLOAD DUP3 MLOAD NUMBER DUP3 GT DUP2 MSTORE SWAP2 DUP3 ADD MSTORE RETURN JUMPDEST PUSH1 0x0 DUP1 REVERT JUMPDEST CALLVALUE PUSH2 0x171 JUMPI PUSH1 0x0 CALLDATASIZE PUSH1 0x3 NOT ADD SLT PUSH2 0x171 JUMPI PUSH1 0x20 PUSH1 0x4 SLOAD PUSH1 0x40 MLOAD SWAP1 DUP2 MSTORE RETURN JUMPDEST CALLVALUE PUSH2 0x171 JUMPI PUSH1 0x20 CALLDATASIZE PUSH1 0x3 NOT ADD SLT PUSH2 0x171 JUMPI PUSH2 0x1AD PUSH2 0xAD7 JUMP JUMPDEST PUSH2 0x1B5 PUSH2 0xB05 JUMP JUMPDEST PUSH1 0x1 PUSH1 0x1 PUSH1 0xA0 SHL SUB SWAP1 DUP2 AND SWAP1 DUP2 ISZERO PUSH2 0x209 JUMPI PUSH1 0x0 SLOAD DUP3 PUSH12 0xFFFFFFFFFFFFFFFFFFFFFFFF PUSH1 0xA0 SHL DUP3 AND OR PUSH1 0x0 SSTORE AND PUSH32 0x8BE0079C531659141344CD1FD0A4F28419497F9722A3DAAFE3B4186F6B6457E0 PUSH1 0x0 DUP1 LOG3 STOP JUMPDEST PUSH1 0x40 MLOAD PUSH4 0x1E4FBDF7 PUSH1 0xE0 SHL DUP2 MSTORE PUSH1 0x0 PUSH1 0x4 DUP3 ADD MSTORE PUSH1 0x24 SWAP1 REVERT JUMPDEST CALLVALUE PUSH2 0x171 JUMPI PUSH1 0x20 CALLDATASIZE PUSH1 0x3 NOT ADD SLT PUSH2 0x171 JUMPI PUSH1 0x20 PUSH2 0x245 PUSH2 0x240 PUSH2 0xAD7 JUMP JUMPDEST PUSH2 0xF95 JUMP JUMPDEST PUSH1 0x40 MLOAD SWAP1 DUP2 MSTORE RETURN JUMPDEST CALLVALUE PUSH2 0x171 JUMPI PUSH1 0x0 CALLDATASIZE PUSH1 0x3 NOT ADD SLT PUSH2 0x171 JUMPI PUSH1 0x8 SLOAD PUSH1 0x9 SLOAD SWAP1 DUP1 ISZERO PUSH2 0x2BB JUMPI PUSH8 0xDE0B6B3A7640000 SWAP2 DUP3 DUP2 MUL SWAP3 DUP2 DUP5 DIV EQ DUP2 ISZERO OR ISZERO PUSH2 0x2A5 JUMPI PUSH2 0x291 DUP3 PUSH1 0x60 SWAP5 PUSH2 0xF75 JUMP JUMPDEST SWAP1 JUMPDEST PUSH1 0x40 MLOAD SWAP3 DUP4 MSTORE PUSH1 0x20 DUP4 ADD MSTORE PUSH1 0x40 DUP3 ADD MSTORE RETURN JUMPDEST PUSH4 0x4E487B71 PUSH1 0xE0 SHL PUSH1 0x0 MSTORE PUSH1 0x11 PUSH1 0x4 MSTORE PUSH1 0x24 PUSH1 0x0 REVERT JUMPDEST PUSH1 0x60 SWAP2 PUSH1 0x0 SWAP1 PUSH2 0x293 JUMP JUMPDEST CALLVALUE PUSH2 0x171 JUMPI PUSH1 0x0 CALLDATASIZE PUSH1 0x3 NOT ADD SLT PUSH2 0x171 JUMPI PUSH1 0x20 PUSH1 0x40 MLOAD PUSH8 0x9B6E64A8EC60000 DUP2 MSTORE RETURN JUMPDEST CALLVALUE PUSH2 0x171 JUMPI PUSH1 0x20 CALLDATASIZE PUSH1 0x3 NOT ADD SLT PUSH2 0x171 JUMPI PUSH1 0x4 CALLDATALOAD PUSH1 0x0 MSTORE PUSH1 0x6 PUSH1 0x20 MSTORE PUSH1 0x20 PUSH1 0xFF PUSH1 0x40 PUSH1 0x0 KECCAK256 SLOAD AND PUSH1 0x40 MLOAD SWAP1 ISZERO ISZERO DUP2 MSTORE RETURN JUMPDEST CALLVALUE PUSH2 0x171 JUMPI PUSH1 0x20 CALLDATASIZE PUSH1 0x3 NOT ADD SLT PUSH2 0x171 JUMPI PUSH1 0x4 CALLDATALOAD PUSH2 0x336 PUSH2 0xB05 JUMP JUMPDEST DUP1 PUSH1 0x0 MSTORE PUSH1 0x6 PUSH1 0x20 MSTORE PUSH1 0x40 PUSH1 0x0 KECCAK256 PUSH1 0xFF NOT DUP2 SLOAD AND SWAP1 SSTORE PUSH32 0xD03C7CCBEE6AC6CDC8626168DA56B4E44BBF25E02997E48E11C4565399FC8888 PUSH1 0x0 DUP1 LOG2 STOP JUMPDEST CALLVALUE PUSH2 0x171 JUMPI PUSH1 0x0 CALLDATASIZE PUSH1 0x3 NOT ADD SLT PUSH2 0x171 JUMPI PUSH1 0x20 PUSH1 0x40 MLOAD PUSH1 0xA DUP2 MSTORE RETURN JUMPDEST CALLVALUE PUSH2 0x171 JUMPI PUSH1 0x20 CALLDATASIZE PUSH1 0x3 NOT ADD SLT PUSH2 0x171 JUMPI PUSH1 0x1 PUSH1 0x1 PUSH1 0xA0 SHL SUB PUSH2 0x3B0 PUSH2 0xAD7 JUMP JUMPDEST AND PUSH1 0x0 MSTORE PUSH1 0x5 PUSH1 0x20 MSTORE PUSH1 0x20 PUSH1 0x40 PUSH1 0x0 KECCAK256 SLOAD PUSH1 0x40 MLOAD SWAP1 DUP2 MSTORE RETURN JUMPDEST CALLVALUE PUSH2 0x171 JUMPI PUSH1 0x20 CALLDATASIZE PUSH1 0x3 NOT ADD SLT PUSH2 0x171 JUMPI PUSH1 0x4 CALLDATALOAD PUSH2 0x3E5 PUSH2 0xB05 JUMP JUMPDEST PUSH8 0xDE0B6B3A7640000 DUP2 GT PUSH2 0x42D JUMPI PUSH1 0x40 PUSH32 0xB06A54CAABE58475C86C2BF9DF3F2F06DD1213E9E10659C293117FE4893B274B SWAP2 PUSH1 0x3 SLOAD SWAP1 DUP1 PUSH1 0x3 SSTORE DUP3 MLOAD SWAP2 DUP3 MSTORE PUSH1 0x20 DUP3 ADD MSTORE LOG1 STOP JUMPDEST PUSH1 0x24 SWAP1 PUSH1 0x40 MLOAD SWAP1 PUSH4 0x6EC31C67 PUSH1 0xE1 SHL DUP3 MSTORE PUSH1 0x4 DUP3 ADD MSTORE REVERT JUMPDEST CALLVALUE PUSH2 0x171 JUMPI PUSH1 0x0 CALLDATASIZE PUSH1 0x3 NOT ADD SLT PUSH2 0x171 JUMPI PUSH1 0x0 SLOAD PUSH1 0x40 MLOAD PUSH1 0x1 PUSH1 0x1 PUSH1 0xA0 SHL SUB SWAP1 SWAP2 AND DUP2 MSTORE PUSH1 0x20 SWAP1 RETURN JUMPDEST CALLVALUE PUSH2 0x171 JUMPI PUSH1 0x0 CALLDATASIZE PUSH1 0x3 NOT ADD SLT PUSH2 0x171 JUMPI PUSH2 0x487 PUSH2 0xB05 JUMP JUMPDEST PUSH2 0x48F PUSH2 0xF13 JUMP JUMPDEST PUSH1 0x1 PUSH1 0xFF NOT PUSH1 0x2 SLOAD AND OR PUSH1 0x2 SSTORE PUSH32 0x62E78CEA01BEE320CD4E420270B5EA74000D11B0C9F74754EBDBFC544B05A258 PUSH1 0x20 PUSH1 0x40 MLOAD CALLER DUP2 MSTORE LOG1 STOP JUMPDEST CALLVALUE PUSH2 0x171 JUMPI PUSH1 0x20 CALLDATASIZE PUSH1 0x3 NOT ADD SLT PUSH2 0x171 JUMPI PUSH1 0x4 CALLDATALOAD PUSH8 0xFFFFFFFFFFFFFFFF DUP2 GT PUSH2 0x171 JUMPI PUSH2 0x522 PUSH2 0x4FF PUSH2 0x530 SWAP3 CALLDATASIZE SWAP1 PUSH1 0x4 ADD PUSH2 0xAA6 JUMP JUMPDEST SWAP3 SWAP1 PUSH2 0x509 PUSH2 0xB05 JUMP JUMPDEST PUSH1 0x40 MLOAD SWAP3 DUP4 SWAP2 PUSH1 0x20 DUP4 ADD SWAP6 PUSH1 0x20 DUP8 MSTORE PUSH1 0x40 DUP5 ADD SWAP2 PUSH2 0xB31 JUMP JUMPDEST SUB PUSH1 0x1F NOT DUP2 ADD DUP4 MSTORE DUP3 PUSH2 0xB62 JUMP JUMPDEST MLOAD SWAP1 KECCAK256 DUP1 PUSH1 0x0 MSTORE PUSH1 0x6 PUSH1 0x20 MSTORE PUSH1 0x40 PUSH1 0x0 KECCAK256 PUSH1 0x1 PUSH1 0xFF NOT DUP3 SLOAD AND OR SWAP1 SSTORE PUSH32 0x7C9F51D794F20DBF88D5BDA87745E5FDC7BE72F9AA04BA150D42ABA4ACEFB7A8 PUSH1 0x0 DUP1 LOG2 STOP JUMPDEST CALLVALUE PUSH2 0x171 JUMPI PUSH1 0x40 CALLDATASIZE PUSH1 0x3 NOT ADD SLT PUSH2 0x171 JUMPI PUSH1 0x4 CALLDATALOAD PUSH8 0xFFFFFFFFFFFFFFFF DUP2 GT PUSH2 0x171 JUMPI PUSH2 0x5A7 PUSH2 0x5C0 SWAP2 CALLDATASIZE SWAP1 PUSH1 0x4 ADD PUSH2 0xAA6 JUMP JUMPDEST PUSH2 0x5AF PUSH2 0xF13 JUMP JUMPDEST PUSH2 0x5B7 PUSH2 0xF31 JUMP JUMPDEST PUSH1 0x24 CALLDATALOAD SWAP2 PUSH2 0xBC1 JUMP JUMPDEST PUSH1 0x1 DUP1 SSTORE PUSH1 0x40 DUP1 MLOAD SWAP3 ISZERO ISZERO DUP4 MSTORE PUSH1 0x20 DUP4 ADD SWAP2 SWAP1 SWAP2 MSTORE SWAP1 RETURN JUMPDEST CALLVALUE PUSH2 0x171 JUMPI PUSH1 0x0 CALLDATASIZE PUSH1 0x3 NOT ADD SLT PUSH2 0x171 JUMPI PUSH2 0x5F1 PUSH2 0xB05 JUMP JUMPDEST PUSH1 0x0 DUP1 SLOAD PUSH1 0x1 PUSH1 0x1 PUSH1 0xA0 SHL SUB NOT DUP2 AND DUP3 SSTORE PUSH1 0x1 PUSH1 0x1 PUSH1 0xA0 SHL SUB AND PUSH32 0x8BE0079C531659141344CD1FD0A4F28419497F9722A3DAAFE3B4186F6B6457E0 DUP3 DUP1 LOG3 STOP JUMPDEST CALLVALUE PUSH2 0x171 JUMPI PUSH1 0x0 CALLDATASIZE PUSH1 0x3 NOT ADD SLT PUSH2 0x171 JUMPI PUSH1 0x20 PUSH1 0x3 SLOAD PUSH1 0x40 MLOAD SWAP1 DUP2 MSTORE RETURN JUMPDEST CALLVALUE PUSH2 0x171 JUMPI PUSH1 0x20 CALLDATASIZE PUSH1 0x3 NOT ADD SLT PUSH2 0x171 JUMPI PUSH2 0x668 PUSH2 0xAD7 JUMP JUMPDEST PUSH2 0x670 PUSH2 0xB05 JUMP JUMPDEST PUSH1 0x1 PUSH1 0x1 PUSH1 0xA0 SHL SUB AND PUSH1 0x0 SWAP1 DUP2 MSTORE PUSH1 0x5 PUSH1 0x20 MSTORE PUSH1 0x40 DUP2 KECCAK256 SSTORE STOP JUMPDEST CALLVALUE PUSH2 0x171 JUMPI PUSH1 0x40 CALLDATASIZE PUSH1 0x3 NOT ADD SLT PUSH2 0x171 JUMPI PUSH2 0x6A3 PUSH2 0xAD7 JUMP JUMPDEST PUSH1 0x1 PUSH1 0x1 PUSH1 0xA0 SHL SUB AND PUSH1 0x0 SWAP1 DUP2 MSTORE PUSH1 0x7 PUSH1 0x20 MSTORE PUSH1 0x40 SWAP1 KECCAK256 DUP1 SLOAD PUSH1 0x24 CALLDATALOAD SWAP2 SWAP1 DUP3 LT ISZERO PUSH2 0x171 JUMPI PUSH1 0x20 SWAP2 PUSH2 0x6D4 SWAP2 PUSH2 0xAED JUMP JUMPDEST SWAP1 SLOAD PUSH1 0x40 MLOAD SWAP2 PUSH1 0x3 SHL SHR DUP2 MSTORE RETURN JUMPDEST CALLVALUE PUSH2 0x171 JUMPI PUSH1 0x0 CALLDATASIZE PUSH1 0x3 NOT ADD SLT PUSH2 0x171 JUMPI PUSH1 0x20 PUSH1 0x8 SLOAD PUSH1 0x40 MLOAD SWAP1 DUP2 MSTORE RETURN JUMPDEST CALLVALUE PUSH2 0x171 JUMPI PUSH1 0x0 CALLDATASIZE PUSH1 0x3 NOT ADD SLT PUSH2 0x171 JUMPI PUSH1 0x20 PUSH1 0xFF PUSH1 0x2 SLOAD AND PUSH1 0x40 MLOAD SWAP1 ISZERO ISZERO DUP2 MSTORE RETURN JUMPDEST CALLVALUE PUSH2 0x171 JUMPI PUSH1 0x0 CALLDATASIZE PUSH1 0x3 NOT ADD SLT PUSH2 0x171 JUMPI PUSH1 0x20 PUSH1 0x40 MLOAD PUSH2 0x200 DUP2 MSTORE RETURN JUMPDEST CALLVALUE PUSH2 0x171 JUMPI PUSH1 0x40 CALLDATASIZE PUSH1 0x3 NOT ADD SLT PUSH2 0x171 JUMPI PUSH1 0x4 CALLDATALOAD PUSH8 0xFFFFFFFFFFFFFFFF DUP2 GT PUSH2 0x171 JUMPI PUSH2 0x771 SWAP1 CALLDATASIZE SWAP1 PUSH1 0x4 ADD PUSH2 0xAA6 JUMP JUMPDEST SWAP1 PUSH1 0x24 CALLDATALOAD PUSH8 0xFFFFFFFFFFFFFFFF DUP2 GT PUSH2 0x171 JUMPI PUSH2 0x792 SWAP1 CALLDATASIZE SWAP1 PUSH1 0x4 ADD PUSH2 0xAA6 JUMP JUMPDEST SWAP3 SWAP1 PUSH2 0x79C PUSH2 0xF13 JUMP JUMPDEST PUSH2 0x7A4 PUSH2 0xF31 JUMP JUMPDEST DUP4 DUP3 SUB PUSH2 0x9E7 JUMPI PUSH1 0xA DUP3 GT PUSH2 0x9B0 JUMPI PUSH2 0x7BC DUP3 PUSH2 0xBA9 JUMP JUMPDEST SWAP3 PUSH2 0x7CA PUSH1 0x40 MLOAD SWAP5 DUP6 PUSH2 0xB62 JUMP JUMPDEST DUP3 DUP5 MSTORE PUSH1 0x1F NOT SWAP5 DUP6 PUSH2 0x7DB DUP6 PUSH2 0xBA9 JUMP JUMPDEST ADD CALLDATASIZE PUSH1 0x20 DUP8 ADD CALLDATACOPY PUSH2 0x7EB DUP5 PUSH2 0xBA9 JUMP JUMPDEST SWAP6 PUSH2 0x7F9 PUSH1 0x40 MLOAD SWAP8 DUP9 PUSH2 0xB62 JUMP JUMPDEST DUP5 DUP8 MSTORE PUSH2 0x805 DUP6 PUSH2 0xBA9 JUMP JUMPDEST ADD CALLDATASIZE PUSH1 0x20 DUP9 ADD CALLDATACOPY PUSH1 0x0 JUMPDEST DUP5 DUP2 LT PUSH2 0x895 JUMPI DUP7 DUP7 PUSH1 0x1 DUP1 DUP1 SSTORE PUSH1 0x40 MLOAD SWAP2 PUSH1 0x40 DUP4 ADD PUSH1 0x40 DUP5 MSTORE DUP2 MLOAD DUP1 SWAP2 MSTORE PUSH1 0x20 PUSH1 0x60 DUP6 ADD SWAP3 ADD SWAP1 PUSH1 0x0 JUMPDEST DUP2 DUP2 LT PUSH2 0x87E JUMPI POP POP POP DUP3 DUP2 SUB PUSH1 0x20 DUP5 ADD MSTORE PUSH1 0x20 DUP1 DUP6 MLOAD SWAP3 DUP4 DUP2 MSTORE ADD SWAP5 ADD SWAP1 PUSH1 0x0 JUMPDEST DUP2 DUP2 LT PUSH2 0x869 JUMPI DUP5 DUP7 SUB DUP6 RETURN JUMPDEST DUP3 MLOAD DUP7 MSTORE PUSH1 0x20 SWAP6 DUP7 ADD SWAP6 SWAP1 SWAP3 ADD SWAP2 DUP4 ADD PUSH2 0x85C JUMP JUMPDEST DUP3 MLOAD ISZERO ISZERO DUP5 MSTORE PUSH1 0x20 SWAP4 DUP5 ADD SWAP4 SWAP1 SWAP3 ADD SWAP2 DUP5 ADD PUSH2 0x83A JUMP JUMPDEST PUSH1 0x5 SWAP1 DUP1 DUP3 SHL DUP1 DUP6 ADD CALLDATALOAD PUSH1 0x1E NOT DUP7 CALLDATASIZE SUB ADD DUP2 SLT ISZERO PUSH2 0x171 JUMPI DUP6 ADD PUSH8 0xFFFFFFFFFFFFFFFF DUP2 CALLDATALOAD GT PUSH2 0x171 JUMPI PUSH1 0x20 DUP2 ADD SWAP4 DUP2 CALLDATALOAD SWAP1 SHL CALLDATASIZE SUB DUP5 SGT PUSH2 0x171 JUMPI DUP5 DUP4 LT ISZERO PUSH2 0x99A JUMPI PUSH2 0x902 SWAP4 PUSH1 0x40 SWAP3 DUP4 MLOAD SWAP6 DUP7 SWAP4 DUP5 SWAP4 PUSH4 0x75E2C56D PUSH1 0xE0 SHL DUP6 MSTORE DUP7 PUSH1 0x4 DUP7 ADD MSTORE PUSH1 0x44 DUP6 ADD SWAP2 CALLDATALOAD SWAP1 PUSH2 0xB31 JUMP JUMPDEST SWAP1 DUP10 ADD CALLDATALOAD PUSH1 0x24 DUP4 ADD MSTORE SUB DUP2 PUSH1 0x0 ADDRESS GAS CALL DUP1 ISZERO PUSH2 0x98E JUMPI PUSH1 0x0 SWAP1 PUSH1 0x0 SWAP1 PUSH2 0x94C JUMPI JUMPDEST PUSH2 0x947 SWAP4 POP PUSH2 0x932 DUP4 DUP12 PUSH2 0xF61 JUMP JUMPDEST MSTORE PUSH2 0x93D DUP3 DUP10 PUSH2 0xF61 JUMP JUMPDEST SWAP1 ISZERO ISZERO SWAP1 MSTORE PUSH2 0xB9A JUMP JUMPDEST PUSH2 0x80F JUMP JUMPDEST POP POP PUSH1 0x40 DUP3 RETURNDATASIZE PUSH1 0x40 GT PUSH2 0x986 JUMPI JUMPDEST DUP2 PUSH2 0x967 PUSH1 0x40 SWAP4 DUP4 PUSH2 0xB62 JUMP JUMPDEST DUP2 ADD SUB SLT PUSH2 0x171 JUMPI DUP2 PUSH1 0x20 PUSH2 0x97E PUSH2 0x947 SWAP5 PUSH2 0xF54 JUMP JUMPDEST SWAP2 ADD MLOAD PUSH2 0x923 JUMP JUMPDEST RETURNDATASIZE SWAP2 POP PUSH2 0x95A JUMP JUMPDEST PUSH1 0x40 MLOAD RETURNDATASIZE PUSH1 0x0 DUP3 RETURNDATACOPY RETURNDATASIZE SWAP1 REVERT JUMPDEST PUSH4 0x4E487B71 PUSH1 0xE0 SHL PUSH1 0x0 MSTORE PUSH1 0x32 PUSH1 0x4 MSTORE PUSH1 0x24 PUSH1 0x0 REVERT JUMPDEST PUSH1 0x40 MLOAD PUSH3 0x461BCD PUSH1 0xE5 SHL DUP2 MSTORE PUSH1 0x20 PUSH1 0x4 DUP3 ADD MSTORE PUSH1 0xF PUSH1 0x24 DUP3 ADD MSTORE PUSH15 0x426174636820746F6F206C61726765 PUSH1 0x88 SHL PUSH1 0x44 DUP3 ADD MSTORE PUSH1 0x64 SWAP1 REVERT JUMPDEST PUSH1 0x40 MLOAD PUSH3 0x461BCD PUSH1 0xE5 SHL DUP2 MSTORE PUSH1 0x20 PUSH1 0x4 DUP3 ADD MSTORE PUSH1 0xF PUSH1 0x24 DUP3 ADD MSTORE PUSH15 0x98CADCCEE8D040DAD2E6DAC2E8C6D PUSH1 0x8B SHL PUSH1 0x44 DUP3 ADD MSTORE PUSH1 0x64 SWAP1 REVERT JUMPDEST CALLVALUE PUSH2 0x171 JUMPI PUSH1 0x0 CALLDATASIZE PUSH1 0x3 NOT ADD SLT PUSH2 0x171 JUMPI PUSH1 0x20 PUSH1 0x9 SLOAD PUSH1 0x40 MLOAD SWAP1 DUP2 MSTORE RETURN JUMPDEST CALLVALUE PUSH2 0x171 JUMPI PUSH1 0x0 CALLDATASIZE PUSH1 0x3 NOT ADD SLT PUSH2 0x171 JUMPI PUSH2 0xA55 PUSH2 0xB05 JUMP JUMPDEST PUSH1 0x2 SLOAD PUSH1 0xFF DUP2 AND ISZERO PUSH2 0xA94 JUMPI PUSH1 0xFF NOT AND PUSH1 0x2 SSTORE PUSH32 0x5DB9EE0A495BF2E6FF9C91A7834C1BA4FDD244A5E8AA4E537BD38AEAE4B073AA PUSH1 0x20 PUSH1 0x40 MLOAD CALLER DUP2 MSTORE LOG1 STOP JUMPDEST PUSH1 0x40 MLOAD PUSH4 0x8DFC202B PUSH1 0xE0 SHL DUP2 MSTORE PUSH1 0x4 SWAP1 REVERT JUMPDEST SWAP2 DUP2 PUSH1 0x1F DUP5 ADD SLT ISZERO PUSH2 0x171 JUMPI DUP3 CALLDATALOAD SWAP2 PUSH8 0xFFFFFFFFFFFFFFFF DUP4 GT PUSH2 0x171 JUMPI PUSH1 0x20 DUP1 DUP6 ADD SWAP5 DUP5 PUSH1 0x5 SHL ADD ADD GT PUSH2 0x171 JUMPI JUMP JUMPDEST PUSH1 0x4 CALLDATALOAD SWAP1 PUSH1 0x1 PUSH1 0x1 PUSH1 0xA0 SHL SUB DUP3 AND DUP3 SUB PUSH2 0x171 JUMPI JUMP JUMPDEST DUP1 SLOAD DUP3 LT ISZERO PUSH2 0x99A JUMPI PUSH1 0x0 MSTORE PUSH1 0x20 PUSH1 0x0 KECCAK256 ADD SWAP1 PUSH1 0x0 SWAP1 JUMP JUMPDEST PUSH1 0x0 SLOAD PUSH1 0x1 PUSH1 0x1 PUSH1 0xA0 SHL SUB AND CALLER SUB PUSH2 0xB19 JUMPI JUMP JUMPDEST PUSH1 0x40 MLOAD PUSH4 0x118CDAA7 PUSH1 0xE0 SHL DUP2 MSTORE CALLER PUSH1 0x4 DUP3 ADD MSTORE PUSH1 0x24 SWAP1 REVERT JUMPDEST SWAP2 SWAP1 DUP1 DUP3 MSTORE PUSH1 0x20 DUP1 SWAP3 ADD SWAP3 SWAP2 PUSH1 0x0 JUMPDEST DUP3 DUP2 LT PUSH2 0xB4E JUMPI POP POP POP POP SWAP1 JUMP JUMPDEST DUP4 CALLDATALOAD DUP6 MSTORE SWAP4 DUP2 ADD SWAP4 SWAP3 DUP2 ADD SWAP3 PUSH1 0x1 ADD PUSH2 0xB40 JUMP JUMPDEST SWAP1 PUSH1 0x1F DUP1 NOT SWAP2 ADD AND DUP2 ADD SWAP1 DUP2 LT PUSH8 0xFFFFFFFFFFFFFFFF DUP3 GT OR PUSH2 0xB84 JUMPI PUSH1 0x40 MSTORE JUMP JUMPDEST PUSH4 0x4E487B71 PUSH1 0xE0 SHL PUSH1 0x0 MSTORE PUSH1 0x41 PUSH1 0x4 MSTORE PUSH1 0x24 PUSH1 0x0 REVERT JUMPDEST PUSH1 0x0 NOT DUP2 EQ PUSH2 0x2A5 JUMPI PUSH1 0x1 ADD SWAP1 JUMP JUMPDEST PUSH8 0xFFFFFFFFFFFFFFFF DUP2 GT PUSH2 0xB84 JUMPI PUSH1 0x5 SHL PUSH1 0x20 ADD SWAP1 JUMP JUMPDEST SWAP2 SWAP3 SWAP1 SWAP3 PUSH1 0x4 SWAP3 DUP4 SLOAD DUP1 DUP7 SUB PUSH2 0xEF6 JUMPI POP PUSH1 0x0 SWAP5 CALLER DUP7 MSTORE PUSH1 0x20 PUSH1 0x5 DUP2 MSTORE PUSH1 0x40 SWAP2 DUP3 DUP9 KECCAK256 SLOAD DUP1 NUMBER LT PUSH2 0xED8 JUMPI POP DUP3 MLOAD SWAP4 DUP3 DUP6 ADD DUP4 DUP2 MSTORE DUP6 PUSH2 0xC04 DUP7 DUP3 ADD DUP6 DUP6 PUSH2 0xB31 JUMP JUMPDEST SUB SWAP6 PUSH2 0xC18 PUSH1 0x1F NOT SWAP8 DUP9 DUP2 ADD DUP4 MSTORE DUP3 PUSH2 0xB62 JUMP JUMPDEST MLOAD SWAP1 KECCAK256 DUP10 MSTORE PUSH1 0x6 DUP4 MSTORE PUSH1 0xFF DUP5 DUP11 KECCAK256 SLOAD AND PUSH2 0xE8D JUMPI PUSH2 0xC35 DUP3 PUSH2 0xBA9 JUMP JUMPDEST SWAP1 PUSH2 0xC42 DUP6 MLOAD SWAP3 DUP4 PUSH2 0xB62 JUMP JUMPDEST DUP3 DUP3 MSTORE DUP4 DUP3 ADD DUP1 SWAP4 PUSH1 0x5 SHL DUP3 ADD SWAP2 CALLDATASIZE DUP4 GT PUSH2 0xE89 JUMPI DUP6 SWAP1 SWAP2 JUMPDEST DUP4 DUP4 LT PUSH2 0xE79 JUMPI POP POP POP POP PUSH2 0x7530 SWAP2 DUP3 GAS LT PUSH2 0xE69 JUMPI SWAP1 DUP10 SWAP1 DUP6 MLOAD DUP6 DUP2 ADD SWAP2 DUP8 DUP3 ADD SWAP1 DUP8 DUP5 MSTORE MLOAD DUP1 SWAP2 MSTORE PUSH1 0x60 DUP3 ADD SWAP5 SWAP1 DUP5 JUMPDEST DUP9 DUP3 DUP3 LT PUSH2 0xE52 JUMPI POP POP POP POP PUSH2 0xCAB DUP2 DUP5 SWAP6 SUB DUP10 DUP2 ADD DUP4 MSTORE DUP3 PUSH2 0xB62 JUMP JUMPDEST MLOAD SWAP1 PUSH1 0x24 DUP1 SWAP6 STATICCALL RETURNDATASIZE ISZERO PUSH2 0xE49 JUMPI RETURNDATASIZE PUSH8 0xFFFFFFFFFFFFFFFF DUP2 GT PUSH2 0xE37 JUMPI PUSH2 0xCDB DUP5 DUP7 MLOAD SWAP8 PUSH1 0x1F DUP5 ADD AND ADD DUP8 PUSH2 0xB62 JUMP JUMPDEST DUP6 MSTORE RETURNDATASIZE DUP10 DUP5 DUP8 ADD RETURNDATACOPY JUMPDEST ISZERO PUSH2 0xE23 JUMPI DUP3 DUP5 DUP1 MLOAD DUP2 ADD SUB SLT PUSH2 0xE1F JUMPI PUSH2 0xD04 DUP4 DUP4 DUP7 ADD MLOAD SWAP6 ADD PUSH2 0xF54 JUMP JUMPDEST POP DUP4 SWAP7 PUSH2 0xD12 PUSH1 0x8 SLOAD PUSH2 0xB9A JUMP JUMPDEST PUSH1 0x8 SSTORE CALLER DUP10 MSTORE PUSH1 0x7 DUP4 MSTORE DUP4 DUP10 KECCAK256 DUP1 SLOAD SWAP1 PUSH9 0x10000000000000000 DUP3 LT ISZERO PUSH2 0xE0D JUMPI SWAP1 PUSH2 0xD43 SWAP2 PUSH1 0x1 DUP3 ADD DUP2 SSTORE PUSH2 0xAED JUMP JUMPDEST DUP2 SLOAD SWAP1 PUSH1 0x3 SHL SWAP1 DUP8 DUP3 SHL SWAP2 PUSH1 0x0 NOT SWAP1 SHL NOT AND OR SWAP1 SSTORE PUSH1 0x3 SLOAD DUP6 LT SWAP9 DUP10 ISZERO PUSH2 0xD98 JUMPI POP POP POP SWAP1 DUP7 PUSH32 0xF55FD7D95B41E3FECF28190794090EA7E3C92C988161F49689E2CDC5F6038D22 SWAP3 DUP3 MLOAD SWAP5 DUP6 MSTORE DUP5 ADD MSTORE CALLER SWAP3 LOG3 JUMP JUMPDEST DUP5 DUP8 DUP6 DUP9 SWAP4 PUSH2 0xDA8 PUSH1 0x9 SLOAD PUSH2 0xB9A JUMP JUMPDEST POP PUSH1 0xA NUMBER ADD SWAP1 DUP2 NUMBER GT PUSH2 0xDFB JUMPI CALLER SWAP1 MSTORE PUSH1 0x5 DUP3 MSTORE DUP4 MLOAD SWAP2 DUP6 DUP4 MSTORE DUP3 ADD MSTORE PUSH32 0xE7CA1F0120F10FCA4593E7FE88E72D536D313536BD23D6F89C7EFB98274793EB DUP4 CALLER SWAP3 LOG3 MLOAD PUSH4 0xB1A0D7F PUSH1 0xE3 SHL DUP2 MSTORE SWAP2 DUP3 ADD MSTORE REVERT JUMPDEST PUSH4 0x4E487B71 PUSH1 0xE0 SHL DUP2 MSTORE PUSH1 0x11 DUP8 MSTORE DUP8 SWAP1 REVERT JUMPDEST PUSH4 0x4E487B71 PUSH1 0xE0 SHL DUP12 MSTORE PUSH1 0x41 DUP4 MSTORE DUP4 DUP12 REVERT JUMPDEST DUP8 DUP1 REVERT JUMPDEST DUP3 MLOAD PUSH4 0x6F99E793 PUSH1 0xE0 SHL DUP2 MSTORE DUP1 DUP9 ADD DUP3 SWAP1 MSTORE REVERT JUMPDEST PUSH4 0x4E487B71 PUSH1 0xE0 SHL DUP11 MSTORE PUSH1 0x41 DUP10 MSTORE DUP3 DUP11 REVERT JUMPDEST PUSH1 0x60 SWAP5 POP PUSH2 0xCE4 JUMP JUMPDEST DUP4 MLOAD DUP9 MSTORE SWAP7 DUP8 ADD SWAP7 DUP16 SWAP7 POP SWAP1 SWAP3 ADD SWAP2 PUSH1 0x1 ADD PUSH2 0xC8D JUMP JUMPDEST DUP5 MLOAD PUSH4 0x7099C53 PUSH1 0xE2 SHL DUP2 MSTORE DUP10 SWAP1 REVERT JUMPDEST DUP3 CALLDATALOAD DUP2 MSTORE SWAP2 DUP2 ADD SWAP2 DUP7 SWAP2 ADD PUSH2 0xC5B JUMP JUMPDEST DUP12 DUP1 REVERT JUMPDEST POP POP SWAP3 SWAP4 SWAP5 POP PUSH32 0xF55FD7D95B41E3FECF28190794090EA7E3C92C988161F49689E2CDC5F6038D22 SWAP2 POP PUSH2 0xEC1 PUSH1 0x8 SLOAD PUSH2 0xB9A JUMP JUMPDEST PUSH1 0x8 SSTORE PUSH1 0x1 DUP2 MLOAD SWAP4 DUP8 DUP6 MSTORE DUP5 ADD MSTORE CALLER SWAP3 LOG3 PUSH1 0x1 SWAP2 SWAP1 JUMP JUMPDEST DUP4 MLOAD PUSH4 0x947C8D37 PUSH1 0xE0 SHL DUP2 MSTORE CALLER DUP2 DUP11 ADD MSTORE PUSH1 0x24 DUP2 ADD SWAP2 SWAP1 SWAP2 MSTORE PUSH1 0x44 SWAP1 REVERT JUMPDEST DUP5 PUSH1 0x44 SWAP2 DUP8 PUSH1 0x40 MLOAD SWAP3 PUSH4 0x6067A1E5 PUSH1 0xE1 SHL DUP5 MSTORE DUP4 ADD MSTORE PUSH1 0x24 DUP3 ADD MSTORE REVERT JUMPDEST PUSH1 0xFF PUSH1 0x2 SLOAD AND PUSH2 0xF1F JUMPI JUMP JUMPDEST PUSH1 0x40 MLOAD PUSH4 0xD93C0665 PUSH1 0xE0 SHL DUP2 MSTORE PUSH1 0x4 SWAP1 REVERT JUMPDEST PUSH1 0x2 PUSH1 0x1 SLOAD EQ PUSH2 0xF42 JUMPI PUSH1 0x2 PUSH1 0x1 SSTORE JUMP JUMPDEST PUSH1 0x40 MLOAD PUSH4 0x3EE5AEB5 PUSH1 0xE0 SHL DUP2 MSTORE PUSH1 0x4 SWAP1 REVERT JUMPDEST MLOAD SWAP1 DUP2 ISZERO ISZERO DUP3 SUB PUSH2 0x171 JUMPI JUMP JUMPDEST DUP1 MLOAD DUP3 LT ISZERO PUSH2 0x99A JUMPI PUSH1 0x20 SWAP2 PUSH1 0x5 SHL ADD ADD SWAP1 JUMP JUMPDEST DUP2 ISZERO PUSH2 0xF7F JUMPI DIV SWAP1 JUMP JUMPDEST PUSH4 0x4E487B71 PUSH1 0xE0 SHL PUSH1 0x0 MSTORE PUSH1 0x12 PUSH1 0x4 MSTORE PUSH1 0x24 PUSH1 0x0 REVERT JUMPDEST PUSH1 0x1 PUSH1 0x1 PUSH1 0xA0 SHL SUB AND PUSH1 0x0 SWAP1 DUP2 MSTORE PUSH1 0x7 PUSH1 0x20 MSTORE PUSH1 0x40 DUP2 KECCAK256 DUP1 SLOAD SWAP2 DUP3 ISZERO PUSH2 0x1013 JUMPI SWAP1 DUP2 DUP1 SWAP2 JUMPDEST DUP5 DUP4 LT PUSH2 0xFD1 JUMPI POP POP POP SWAP1 PUSH2 0xFCE SWAP2 PUSH2 0xF75 JUMP JUMPDEST SWAP1 JUMP JUMPDEST SWAP1 SWAP2 SWAP3 PUSH2 0xFDE DUP5 DUP4 PUSH2 0xAED JUMP JUMPDEST SWAP1 SLOAD SWAP1 PUSH1 0x3 SHL SHR DUP2 ADD DUP1 SWAP2 GT PUSH2 0xFFF JUMPI PUSH2 0xFF8 SWAP1 SWAP4 PUSH2 0xB9A JUMP JUMPDEST SWAP2 SWAP1 PUSH2 0xFBA JUMP JUMPDEST PUSH4 0x4E487B71 PUSH1 0xE0 SHL DUP4 MSTORE PUSH1 0x11 PUSH1 0x4 MSTORE PUSH1 0x24 DUP4 REVERT JUMPDEST SWAP2 POP POP SWAP1 JUMP INVALID LOG2 PUSH5 0x6970667358 0x22 SLT KECCAK256 0xAD DUP13 0x24 0xE6 0xA8 PUSH8 0xE962A16B922B197A 0xC7 PUSH10 0x87B7561376C6594341DD CALLER PUSH18 0xE2498AE264736F6C63430008140033000000 "},"methodIdentifiers":{"DEFAULT_THRESHOLD()":"b81cab4b","FLAG_COOLDOWN()":"9b76bd05","MAX_DIMENSION()":"575b68f6","anomalyThreshold()":"6f83a586","batchValidate(int256[][],bytes32[])":"546734df","embeddingDimension()":"fd7288c0","flaggedUntil(address)":"98ed5fa4","getAverageScore(address)":"d06509fd","getStats()":"c59d4847","isFlagged(address)":"fef48a99","owner()":"8da5cb5b","pause()":"8456cb59","paused()":"5c975abb","removePattern(bytes32)":"9db92368","renounceOwnership()":"715018a6","scoreHistory(address,uint256)":"691845e4","setThreshold(uint256)":"960bfe04","totalAnalyzed()":"5f9895fa","totalAnomalies()":"4ee69e2f","transferOwnership(address)":"f2fde38b","unflag(address)":"6938dc0e","unpause()":"3f4ba83a","validateTransaction(int256[],bytes32)":"75e2c56d","whitelistPattern(int256[])":"7f519b48","whitelistedPatterns(bytes32)":"aefed353"}}}}}