{"src/GradientAggregator.sol":{"GradientAggregator":{"abi":[{"inputs":[{"internalType":"address","name":"_mdtToken","type":"address"}],"stateMutability":"nonpayable","type":"constructor"},{"inputs":[],"name":"AlreadyRegistered","type":"error"},{"inputs":[],"name":"AlreadySubmitted","type":"error"},{"inputs":[],"name":"InsufficientDeposit","type":"error"},{"inputs":[],"name":"InsufficientSubmissions","type":"error"},{"inputs":[],"name":"InvalidParameters","type":"error"},{"inputs":[],"name":"JobNotOpen","type":"error"},{"inputs":[],"name":"JobNotTraining","type":"error"},{"inputs":[],"name":"MaxParticipantsReached","type":"error"},{"inputs":[],"name":"NotJobCreator","type":"error"},{"inputs":[],"name":"NotRegistered","type":"error"},{"inputs":[{"internalType":"address","name":"owner","type":"address"}],"name":"OwnableInvalidOwner","type":"error"},{"inputs":[{"internalType":"address","name":"account","type":"address"}],"name":"OwnableUnauthorizedAccount","type":"error"},{"inputs":[],"name":"ReentrancyGuardReentrantCall","type":"error"},{"inputs":[],"name":"RoundNotActive","type":"error"},{"inputs":[{"internalType":"address","name":"token","type":"address"}],"name":"SafeERC20FailedOperation","type":"error"},{"anonymous":false,"inputs":[{"indexed":true,"internalType":"uint256","name":"jobId","type":"uint256"},{"indexed":true,"internalType":"uint256","name":"round","type":"uint256"},{"indexed":true,"internalType":"address","name":"trainer","type":"address"},{"indexed":false,"internalType":"bytes32","name":"gradientHash","type":"bytes32"}],"name":"GradientSubmitted","type":"event"},{"anonymous":false,"inputs":[{"indexed":true,"internalType":"uint256","name":"jobId","type":"uint256"},{"indexed":false,"internalType":"uint256","name":"refundAmount","type":"uint256"}],"name":"JobCancelled","type":"event"},{"anonymous":false,"inputs":[{"indexed":true,"internalType":"uint256","name":"jobId","type":"uint256"},{"indexed":false,"internalType":"uint256","name":"totalRounds","type":"uint256"}],"name":"JobCompleted","type":"event"},{"anonymous":false,"inputs":[{"indexed":true,"internalType":"uint256","name":"jobId","type":"uint256"},{"indexed":true,"internalType":"bytes32","name":"modelId","type":"bytes32"},{"indexed":false,"internalType":"address","name":"creator","type":"address"},{"indexed":false,"internalType":"uint256","name":"totalRounds","type":"uint256"},{"indexed":false,"internalType":"uint256","name":"rewardPerRound","type":"uint256"}],"name":"JobCreated","type":"event"},{"anonymous":false,"inputs":[{"indexed":true,"internalType":"address","name":"previousOwner","type":"address"},{"indexed":true,"internalType":"address","name":"newOwner","type":"address"}],"name":"OwnershipTransferred","type":"event"},{"anonymous":false,"inputs":[{"indexed":true,"internalType":"uint256","name":"jobId","type":"uint256"},{"indexed":true,"internalType":"uint256","name":"round","type":"uint256"},{"indexed":true,"internalType":"address","name":"trainer","type":"address"},{"indexed":false,"internalType":"uint256","name":"amount","type":"uint256"}],"name":"RewardDistributed","type":"event"},{"anonymous":false,"inputs":[{"indexed":true,"internalType":"uint256","name":"jobId","type":"uint256"},{"indexed":true,"internalType":"uint256","name":"round","type":"uint256"},{"indexed":false,"internalType":"bytes32","name":"aggregatedCheckpoint","type":"bytes32"},{"indexed":false,"internalType":"uint256","name":"submissionCount","type":"uint256"}],"name":"RoundCompleted","type":"event"},{"anonymous":false,"inputs":[{"indexed":true,"internalType":"uint256","name":"jobId","type":"uint256"},{"indexed":true,"internalType":"address","name":"trainer","type":"address"}],"name":"TrainerRegistered","type":"event"},{"anonymous":false,"inputs":[{"indexed":true,"internalType":"uint256","name":"jobId","type":"uint256"},{"indexed":false,"internalType":"uint256","name":"participantCount","type":"uint256"}],"name":"TrainingStarted","type":"event"},{"inputs":[],"name":"MAX_PARTICIPANTS","outputs":[{"internalType":"uint256","name":"","type":"uint256"}],"stateMutability":"view","type":"function"},{"inputs":[{"internalType":"uint256","name":"jobId","type":"uint256"}],"name":"cancelJob","outputs":[],"stateMutability":"nonpayable","type":"function"},{"inputs":[{"internalType":"bytes32","name":"modelId","type":"bytes32"},{"internalType":"bytes32","name":"datasetRef","type":"bytes32"},{"internalType":"uint256","name":"totalRounds","type":"uint256"},{"internalType":"uint256","name":"minParticipants","type":"uint256"},{"internalType":"uint256","name":"rewardPerRound","type":"uint256"}],"name":"createJob","outputs":[{"internalType":"uint256","name":"jobId","type":"uint256"}],"stateMutability":"nonpayable","type":"function"},{"inputs":[],"name":"getActiveJobsCount","outputs":[{"internalType":"uint256","name":"count","type":"uint256"}],"stateMutability":"view","type":"function"},{"inputs":[{"internalType":"uint256","name":"jobId","type":"uint256"}],"name":"getJob","outputs":[{"components":[{"internalType":"bytes32","name":"modelId","type":"bytes32"},{"internalType":"bytes32","name":"datasetRef","type":"bytes32"},{"internalType":"uint256","name":"totalRounds","type":"uint256"},{"internalType":"uint256","name":"currentRound","type":"uint256"},{"internalType":"uint256","name":"minParticipants","type":"uint256"},{"internalType":"uint256","name":"rewardPerRound","type":"uint256"},{"internalType":"address","name":"creator","type":"address"},{"internalType":"enum GradientAggregator.JobStatus","name":"status","type":"uint8"},{"internalType":"uint256","name":"createdAt","type":"uint256"},{"internalType":"uint256","name":"depositedRewards","type":"uint256"}],"internalType":"struct GradientAggregator.TrainingJob","name":"","type":"tuple"}],"stateMutability":"view","type":"function"},{"inputs":[{"internalType":"uint256","name":"jobId","type":"uint256"}],"name":"getJobTrainers","outputs":[{"internalType":"address[]","name":"","type":"address[]"}],"stateMutability":"view","type":"function"},{"inputs":[{"internalType":"uint256","name":"jobId","type":"uint256"},{"internalType":"uint256","name":"round","type":"uint256"}],"name":"getRoundSubmissions","outputs":[{"components":[{"internalType":"address","name":"trainer","type":"address"},{"internalType":"bytes32","name":"gradientHash","type":"bytes32"},{"internalType":"bytes32","name":"checkpointHash","type":"bytes32"},{"internalType":"uint256","name":"timestamp","type":"uint256"},{"internalType":"bool","name":"verified","type":"bool"}],"internalType":"struct GradientAggregator.GradientSubmission[]","name":"","type":"tuple[]"}],"stateMutability":"view","type":"function"},{"inputs":[{"internalType":"uint256","name":"","type":"uint256"},{"internalType":"address","name":"","type":"address"}],"name":"isTrainer","outputs":[{"internalType":"bool","name":"","type":"bool"}],"stateMutability":"view","type":"function"},{"inputs":[{"internalType":"uint256","name":"","type":"uint256"},{"internalType":"uint256","name":"","type":"uint256"}],"name":"jobTrainers","outputs":[{"internalType":"address","name":"","type":"address"}],"stateMutability":"view","type":"function"},{"inputs":[{"internalType":"uint256","name":"","type":"uint256"}],"name":"jobs","outputs":[{"internalType":"bytes32","name":"modelId","type":"bytes32"},{"internalType":"bytes32","name":"datasetRef","type":"bytes32"},{"internalType":"uint256","name":"totalRounds","type":"uint256"},{"internalType":"uint256","name":"currentRound","type":"uint256"},{"internalType":"uint256","name":"minParticipants","type":"uint256"},{"internalType":"uint256","name":"rewardPerRound","type":"uint256"},{"internalType":"address","name":"creator","type":"address"},{"internalType":"enum GradientAggregator.JobStatus","name":"status","type":"uint8"},{"internalType":"uint256","name":"createdAt","type":"uint256"},{"internalType":"uint256","name":"depositedRewards","type":"uint256"}],"stateMutability":"view","type":"function"},{"inputs":[],"name":"mdtToken","outputs":[{"internalType":"contract IERC20","name":"","type":"address"}],"stateMutability":"view","type":"function"},{"inputs":[],"name":"nextJobId","outputs":[{"internalType":"uint256","name":"","type":"uint256"}],"stateMutability":"view","type":"function"},{"inputs":[],"name":"owner","outputs":[{"internalType":"address","name":"","type":"address"}],"stateMutability":"view","type":"function"},{"inputs":[{"internalType":"uint256","name":"jobId","type":"uint256"}],"name":"registerAsTrainer","outputs":[],"stateMutability":"nonpayable","type":"function"},{"inputs":[],"name":"renounceOwnership","outputs":[],"stateMutability":"nonpayable","type":"function"},{"inputs":[{"internalType":"uint256","name":"","type":"uint256"},{"internalType":"uint256","name":"","type":"uint256"}],"name":"roundCheckpoints","outputs":[{"internalType":"bytes32","name":"","type":"bytes32"}],"stateMutability":"view","type":"function"},{"inputs":[{"internalType":"uint256","name":"","type":"uint256"},{"internalType":"uint256","name":"","type":"uint256"},{"internalType":"uint256","name":"","type":"uint256"}],"name":"roundSubmissions","outputs":[{"internalType":"address","name":"trainer","type":"address"},{"internalType":"bytes32","name":"gradientHash","type":"bytes32"},{"internalType":"bytes32","name":"checkpointHash","type":"bytes32"},{"internalType":"uint256","name":"timestamp","type":"uint256"},{"internalType":"bool","name":"verified","type":"bool"}],"stateMutability":"view","type":"function"},{"inputs":[{"internalType":"uint256","name":"jobId","type":"uint256"},{"internalType":"bytes32","name":"gradientHash","type":"bytes32"},{"internalType":"bytes32","name":"checkpointHash","type":"bytes32"}],"name":"submitGradient","outputs":[],"stateMutability":"nonpayable","type":"function"},{"inputs":[{"internalType":"address","name":"newOwner","type":"address"}],"name":"transferOwnership","outputs":[],"stateMutability":"nonpayable","type":"function"}],"evm":{"bytecode":{"linkReferences":{},"object":"60a0346100f957601f6115d338819003918201601f19168301916001600160401b038311848410176100fe578084926020946040528339810103126100f957516001600160a01b03808216918290036100f95733156100e0576000543360018060a01b0319821617600055604051913391167f8be0079c531659141344cd1fd0a4f28419497f9722a3daafe3b4186f6b6457e0600080a36001805581156100d157506080526040516114be9081610115823960805181818161010b0152818161059c01528181610a7d0152610ebd0152f35b630e52390960e41b8152600490fd5b604051631e4fbdf760e01b815260006004820152602490fd5b600080fd5b634e487b7160e01b600052604160045260246000fdfe608060408181526004918236101561001657600080fd5b60009260e08435811c928363044abddc146110aa575082630479376f1461106257826304d555b8146110355782630950c0d714610b95578263180aedf314610af85782631dffa3dc1461099a57826342f4e58e146108555782635b7c278e14610782578263715018a614610728578263828ad232146105175782638da5cb5b146104ee578263a0b7171c1461046a578263b0c2aa5e1461044a578263bf22c457146102ef57508163c79a35e81461023c578163e8471056146101ed578163f2fde38b1461015a57508063f3baf0701461013e5763f70b5c06146100f857600080fd5b3461013a578160031936011261013a57517f00000000000000000000000000000000000000000000000000000000000000006001600160a01b03168152602090f35b5080fd5b503461013a578160031936011261013a57602090516103e88152f35b919050346101e95760203660031901126101e9576001600160a01b038235818116939192908490036101e55761018e6112d6565b83156101cf57505082546001600160a01b0319811683178455167f8be0079c531659141344cd1fd0a4f28419497f9722a3daafe3b4186f6b6457e08380a380f35b51631e4fbdf760e01b8152908101849052602490fd5b8480fd5b8280fd5b9050346101e957816003193601126101e9576024356001600160a01b03811691908290036102385760209360ff92849235825260058652828220908252855220541690519015158152f35b8380fd5b905082346102ec576020918260031936011261013a57809392933582528352818120908251808584549182815201908194845286842090845b8181106102cf575050508161028b910382611389565b83519485948186019282875251809352850193925b8281106102af57505050500390f35b83516001600160a01b0316855286955093810193928101926001016102a0565b82546001600160a01b031684529288019260019283019201610275565b80fd5b9092915034610238576020366003190112610238578151926103108461136c565b84845284602085015284838501528460608501528460808501528460a08501528460c085015284828501526101009185838601528561012080960152813586526003602052838620918451946103658661136c565b8354865260018401549760208701988952600285015491808801928352600386015460608901908152848701549060808a0191825260058801549260a08b019384526006890154958b60c08101968a60ff60018060a01b039a8b81168b5260a01c169201996005831015610437575050885260078a0154998b8d019a8b52600801549b8d81019c8d5282519e8f9151825251906020015251908d01525160608c01525160808b01525160a08a0152511660c08801525190860161042791611297565b5190840152519082015261014090f35b634e487b7160e01b825260219052602490fd5b5050503461013a578160031936011261013a576020906002549051908152f35b848285346101e95760603660031901126101e9576044359282358152600660205281812060243582526020528181209081548510156102ec575060a0936104b0916112ba565b50600180851b038154169260018201549260ff6002840154926003850154940154169381519586526020860152840152606083015215156080820152f35b5050503461013a578160031936011261013a57905490516001600160a01b039091168152602090f35b8484913461013a5760a036600319011261013a578291843591604435916084359160643591610544611413565b85158015610720575b8015610718575b610708576105628486611302565b9182156106f8576105c088516323b872dd60e01b60208201523360248201523060448201528460648201526064815261059a8161133a565b7f00000000000000000000000000000000000000000000000000000000000000006113ab565b6002549889926105cf8461132b565b6002558151956105de8761136c565b898752602087019060243582528388018a8152606089019084825260808a0192835260a08a01938b855260c08b01973389528b01968688526101008c0199428b526101208d019b8c528752600360205286209a518b555160018b01555160028a0155516003890155518d880155516005870155600686019260018060a01b0390511690835492519060058210156106e5575060209c5093606096936008938d9a97937f9bfedd04b6c27312c6ab4f6dc3bc5c815049dfe048f506054cb0a1c5dabecf139a9760ff60a01b9060a01b16916affffffffffffffffffffff60a81b1617179055516007840155519101558651913383528983015286820152a36001805551908152f35b634e487b7160e01b815260218e52602490fd5b8751630e52390960e41b81528a90fd5b8651630e52390960e41b81528990fd5b508215610554565b50841561054d565b84346102ec57806003193601126102ec576107416112d6565b80546001600160a01b03198116825581906001600160a01b03167f8be0079c531659141344cd1fd0a4f28419497f9722a3daafe3b4186f6b6457e08280a380f35b5083833461013a578160031936011261013a5760025482805b8281106107ac576020858551908152f35b808252600360209080825260ff6006808887200154908260a092831c169360059485811015610842571595861561080c575b5050505050506107f7575b6107f29061132b565b61079b565b936108046107f29161132b565b9490506107e9565b878952528887200154901c16915081101561082f576001148780808080806107de565b634e487b7160e01b835260218752602483fd5b634e487b7160e01b895260218d52602489fd5b8385833461013a576108663661124e565b9190835260209160068352848420908452825283832091825467ffffffffffffffff81116109875785519194926005906108a483831b880185611389565b82845286840190819686528786209086925b85841061092b57505050505050845193808501918186525180925285850193925b8281106108e45785850386f35b835180516001600160a01b03168652808301518684015287810151888701526060808201519087015260809081015115159086015260a090940193928101926001016108d7565b848a6001928d809d9a9b9d51906109418261133a565b858060a01b03885416825285880154848301526002880154908201526003870154606082015260ff868801541615156080820152815201930193019291989695986108b6565b634e487b7160e01b855260418352602485fd5b509050346101e95760203660031901126101e9578035916109b9611413565b82845260036020528084206006810180546001600160a01b038116929133849003610ae85760ff8260a01c166005811015610ad5578660038214918215610acb575b5050610abb576008610a166003850154600586015490611302565b9301549183830396838811610aa8575060ff60a01b1916600160a21b1790557f7e3805011acb8d49832d7ef085841e251e66267c06e54e0ac20cb09f3c696d3b9460209490939092909184919003610a77575b505051908152a26001805580f35b610aa1917f0000000000000000000000000000000000000000000000000000000000000000611436565b3882610a69565b634e487b7160e01b8a5260119052602489fd5b8451630e52390960e41b81528690fd5b14905086386109fb565b634e487b7160e01b895260218752602489fd5b8451639b1606c560e01b81528690fd5b8491843461023857602036600319011261023857610b878161014095843581526003602052209160ff83549560018501549560028601549060038701549087015490600588015492600689015496600860078b01549a01549a81519c8d5260208d01528b015260608a0152608089015260a088015260018060a01b03831660c088015286019160a01c16611297565b610100830152610120820152f35b509050346101e95760603660031901126101e957803590602435610bb7611413565b828552602090600382528486209460ff80600688015460a01c169660058810156110225760018098036110125786895260058552828920338a52855281838a20541615611002576003810154878a5260068652838a20818b528652838a2080549590918b5b878110610fc957508a865197610c318961133a565b33895289890190848252888a01604435815260608b019142835260808c01948552600160401b811015610fb4578f90610c6e9181018955886112ba565b939093610fa057918f918e989796959492899460018060a01b039e8f9051166bffffffffffffffffffffffff60a01b865416178555519084015551600283015551600382015501905115158760ff19835416911617905586519182528a7fc3684a0c96ca113990e886787446fa758a79eff57dafb63fa2a86c04346f79568a3394a4549101541115610d02575b8787805580f35b858852600384528180892095600387019485549360068852838c20858d528852838c20928a8d52600689528c86868220915289528c8c86822060609183918054915b828410610f2057505050508a815191012095818d88935260078c528181208982528c52205560058a01548454908115610f0d57938d96938f9293888f98958e8c918e9a0496925b610e30575b505050505050507f3fce885e3ed0732a07628600cae71c392194073c4b3d2e41ccef82c8cf7f07a393945054825191825288820152a3610dd0825461132b565b809255600284015480921015610de7575b80610cfb565b600693909301805460ff60a01b1916600360a01b17905591519182527f152d31e943f2d79d470375c901f5a6cfb7d465ee4969db651885948d3b6015b891a23880808080610de1565b879a91929496989b9993959754851015610efe57908a85949392898b878b8b610e5c610e729c886112ba565b50015416610e84575b505050505050505061132b565b918d969391869895938a8e8d99610d8b565b84610ee1610ee69385610eb8857f683b5b362bae69cad1afded62ff468e9b9ea9df8ab2303d0018e71125ad2ef639a6112ba565b5054167f0000000000000000000000000000000000000000000000000000000000000000611436565b6112ba565b50541694518b8152a48a8f8b908f8b90898b87610e65565b83999b985082919a9750610d90565b634e487b7160e01b8f526012835260248ffd5b94819492958f949798999a9b9288610f37916112ba565b500154908251938051915b828110610f805750509383610f6a9392610f7096820190838201520390810184520182611389565b9361132b565b8f928f928b999897969593610d44565b9092949580929450818401015182828801015201918f9493918e93610f42565b5050634e487b7160e01b8f528e8c5260248ffd5b5050634e487b7160e01b8f5260418c5260248ffd5b610fd381856112ba565b50546001600160a01b03163314610ff257610fed9061132b565b610c1c565b8651639fbfc58960e01b81528a90fd5b825163aba4733960e01b81528690fd5b8251633c6e2e4b60e11b81528690fd5b634e487b7160e01b895260218652602489fd5b5050503461013a578060209261104a3661124e565b90825260078552828220908252845220549051908152f35b508284346102ec576110733661124e565b939082526020528181209081548410156102ec575060209261109491611269565b905491519160018060a01b039160031b1c168152f35b925050913461023857602090816003193601126101e55783359384865260038352818620600681019460ff865460a01c16600581101561123b5761122d575085875260058452828720338852845260ff838820541661121e578587528184526103e883882054101561120f57858752600584528287203388528452828720805460ff19166001179055858752818452828720805490600160401b8210156111fc579061115b91600182018155611269565b81546001600160a01b0360039290921b91821b1916339182901b17909155867f38a7ff6902e6a8b42654af26677e2f0ca190d5d044b0d1bb76d8b597cf4665d28980a385875281845282872091825491015411156111b7578580f35b835460ff60a01b1916600160a01b17909355915491519182527f9d5819c7ffd7580f18ec65632cf8672da6a217ee456af540fff3b0ea800c630591a238808080808580f35b634e487b7160e01b895260418452602489fd5b509051636c8c8d2160e01b8152fd5b509051630ea075bf60e21b8152fd5b63d76ebd0f60e01b81529050fd5b634e487b7160e01b895260218452602489fd5b6040906003190112611264576004359060243590565b600080fd5b80548210156112815760005260206000200190600090565b634e487b7160e01b600052603260045260246000fd5b9060058210156112a45752565b634e487b7160e01b600052602160045260246000fd5b8054821015611281576000526005602060002091020190600090565b6000546001600160a01b031633036112ea57565b60405163118cdaa760e01b8152336004820152602490fd5b8181029291811591840414171561131557565b634e487b7160e01b600052601160045260246000fd5b60001981146113155760010190565b60a0810190811067ffffffffffffffff82111761135657604052565b634e487b7160e01b600052604160045260246000fd5b610140810190811067ffffffffffffffff82111761135657604052565b90601f8019910116810190811067ffffffffffffffff82111761135657604052565b906000602091828151910182855af115611407576000513d6113fe57506001600160a01b0381163b155b6113dc5750565b604051635274afe760e01b81526001600160a01b039091166004820152602490fd5b600114156113d5565b6040513d6000823e3d90fd5b600260015414611424576002600155565b604051633ee5aeb560e01b8152600490fd5b60405163a9059cbb60e01b60208201526001600160a01b039092166024830152604480830193909352918152608081019167ffffffffffffffff83118284101761135657611486926040526113ab565b56fea26469706673582212201d9e8dd5fc3a2115eefbbc58f27afc7b697890ca730d4325424c2bba8cdf93cd64736f6c63430008140033","opcodes":"PUSH1 0xA0 CALLVALUE PUSH2 0xF9 JUMPI PUSH1 0x1F PUSH2 0x15D3 CODESIZE DUP2 SWAP1 SUB SWAP2 DUP3 ADD PUSH1 0x1F NOT AND DUP4 ADD SWAP2 PUSH1 0x1 PUSH1 0x1 PUSH1 0x40 SHL SUB DUP4 GT DUP5 DUP5 LT OR PUSH2 0xFE JUMPI DUP1 DUP5 SWAP3 PUSH1 0x20 SWAP5 PUSH1 0x40 MSTORE DUP4 CODECOPY DUP2 ADD SUB SLT PUSH2 0xF9 JUMPI MLOAD PUSH1 0x1 PUSH1 0x1 PUSH1 0xA0 SHL SUB DUP1 DUP3 AND SWAP2 DUP3 SWAP1 SUB PUSH2 0xF9 JUMPI CALLER ISZERO PUSH2 0xE0 JUMPI PUSH1 0x0 SLOAD CALLER PUSH1 0x1 DUP1 PUSH1 0xA0 SHL SUB NOT DUP3 AND OR PUSH1 0x0 SSTORE PUSH1 0x40 MLOAD SWAP2 CALLER SWAP2 AND PUSH32 0x8BE0079C531659141344CD1FD0A4F28419497F9722A3DAAFE3B4186F6B6457E0 PUSH1 0x0 DUP1 LOG3 PUSH1 0x1 DUP1 SSTORE DUP2 ISZERO PUSH2 0xD1 JUMPI POP PUSH1 0x80 MSTORE PUSH1 0x40 MLOAD PUSH2 0x14BE SWAP1 DUP2 PUSH2 0x115 DUP3 CODECOPY PUSH1 0x80 MLOAD DUP2 DUP2 DUP2 PUSH2 0x10B ADD MSTORE DUP2 DUP2 PUSH2 0x59C ADD MSTORE DUP2 DUP2 PUSH2 0xA7D ADD MSTORE PUSH2 0xEBD ADD MSTORE RETURN JUMPDEST PUSH4 0xE523909 PUSH1 0xE4 SHL DUP2 MSTORE PUSH1 0x4 SWAP1 REVERT JUMPDEST PUSH1 0x40 MLOAD PUSH4 0x1E4FBDF7 PUSH1 0xE0 SHL DUP2 MSTORE PUSH1 0x0 PUSH1 0x4 DUP3 ADD MSTORE PUSH1 0x24 SWAP1 REVERT JUMPDEST PUSH1 0x0 DUP1 REVERT JUMPDEST PUSH4 0x4E487B71 PUSH1 0xE0 SHL PUSH1 0x0 MSTORE PUSH1 0x41 PUSH1 0x4 MSTORE PUSH1 0x24 PUSH1 0x0 REVERT INVALID PUSH1 0x80 PUSH1 0x40 DUP2 DUP2 MSTORE PUSH1 0x4 SWAP2 DUP3 CALLDATASIZE LT ISZERO PUSH2 0x16 JUMPI PUSH1 0x0 DUP1 REVERT JUMPDEST PUSH1 0x0 SWAP3 PUSH1 0xE0 DUP5 CALLDATALOAD DUP2 SHR SWAP3 DUP4 PUSH4 0x44ABDDC EQ PUSH2 0x10AA JUMPI POP DUP3 PUSH4 0x479376F EQ PUSH2 0x1062 JUMPI DUP3 PUSH4 0x4D555B8 EQ PUSH2 0x1035 JUMPI DUP3 PUSH4 0x950C0D7 EQ PUSH2 0xB95 JUMPI DUP3 PUSH4 0x180AEDF3 EQ PUSH2 0xAF8 JUMPI DUP3 PUSH4 0x1DFFA3DC EQ PUSH2 0x99A JUMPI DUP3 PUSH4 0x42F4E58E EQ PUSH2 0x855 JUMPI DUP3 PUSH4 0x5B7C278E EQ PUSH2 0x782 JUMPI DUP3 PUSH4 0x715018A6 EQ PUSH2 0x728 JUMPI DUP3 PUSH4 0x828AD232 EQ PUSH2 0x517 JUMPI DUP3 PUSH4 0x8DA5CB5B EQ PUSH2 0x4EE JUMPI DUP3 PUSH4 0xA0B7171C EQ PUSH2 0x46A JUMPI DUP3 PUSH4 0xB0C2AA5E EQ PUSH2 0x44A JUMPI DUP3 PUSH4 0xBF22C457 EQ PUSH2 0x2EF JUMPI POP DUP2 PUSH4 0xC79A35E8 EQ PUSH2 0x23C JUMPI DUP2 PUSH4 0xE8471056 EQ PUSH2 0x1ED JUMPI DUP2 PUSH4 0xF2FDE38B EQ PUSH2 0x15A JUMPI POP DUP1 PUSH4 0xF3BAF070 EQ PUSH2 0x13E JUMPI PUSH4 0xF70B5C06 EQ PUSH2 0xF8 JUMPI PUSH1 0x0 DUP1 REVERT JUMPDEST CALLVALUE PUSH2 0x13A JUMPI DUP2 PUSH1 0x3 NOT CALLDATASIZE ADD SLT PUSH2 0x13A JUMPI MLOAD PUSH32 0x0 PUSH1 0x1 PUSH1 0x1 PUSH1 0xA0 SHL SUB AND DUP2 MSTORE PUSH1 0x20 SWAP1 RETURN JUMPDEST POP DUP1 REVERT JUMPDEST POP CALLVALUE PUSH2 0x13A JUMPI DUP2 PUSH1 0x3 NOT CALLDATASIZE ADD SLT PUSH2 0x13A JUMPI PUSH1 0x20 SWAP1 MLOAD PUSH2 0x3E8 DUP2 MSTORE RETURN JUMPDEST SWAP2 SWAP1 POP CALLVALUE PUSH2 0x1E9 JUMPI PUSH1 0x20 CALLDATASIZE PUSH1 0x3 NOT ADD SLT PUSH2 0x1E9 JUMPI PUSH1 0x1 PUSH1 0x1 PUSH1 0xA0 SHL SUB DUP3 CALLDATALOAD DUP2 DUP2 AND SWAP4 SWAP2 SWAP3 SWAP1 DUP5 SWAP1 SUB PUSH2 0x1E5 JUMPI PUSH2 0x18E PUSH2 0x12D6 JUMP JUMPDEST DUP4 ISZERO PUSH2 0x1CF JUMPI POP POP DUP3 SLOAD PUSH1 0x1 PUSH1 0x1 PUSH1 0xA0 SHL SUB NOT DUP2 AND DUP4 OR DUP5 SSTORE AND PUSH32 0x8BE0079C531659141344CD1FD0A4F28419497F9722A3DAAFE3B4186F6B6457E0 DUP4 DUP1 LOG3 DUP1 RETURN JUMPDEST MLOAD PUSH4 0x1E4FBDF7 PUSH1 0xE0 SHL DUP2 MSTORE SWAP1 DUP2 ADD DUP5 SWAP1 MSTORE PUSH1 0x24 SWAP1 REVERT JUMPDEST DUP5 DUP1 REVERT JUMPDEST DUP3 DUP1 REVERT JUMPDEST SWAP1 POP CALLVALUE PUSH2 0x1E9 JUMPI DUP2 PUSH1 0x3 NOT CALLDATASIZE ADD SLT PUSH2 0x1E9 JUMPI PUSH1 0x24 CALLDATALOAD PUSH1 0x1 PUSH1 0x1 PUSH1 0xA0 SHL SUB DUP2 AND SWAP2 SWAP1 DUP3 SWAP1 SUB PUSH2 0x238 JUMPI PUSH1 0x20 SWAP4 PUSH1 0xFF SWAP3 DUP5 SWAP3 CALLDATALOAD DUP3 MSTORE PUSH1 0x5 DUP7 MSTORE DUP3 DUP3 KECCAK256 SWAP1 DUP3 MSTORE DUP6 MSTORE KECCAK256 SLOAD AND SWAP1 MLOAD SWAP1 ISZERO ISZERO DUP2 MSTORE RETURN JUMPDEST DUP4 DUP1 REVERT JUMPDEST SWAP1 POP DUP3 CALLVALUE PUSH2 0x2EC JUMPI PUSH1 0x20 SWAP2 DUP3 PUSH1 0x3 NOT CALLDATASIZE ADD SLT PUSH2 0x13A JUMPI DUP1 SWAP4 SWAP3 SWAP4 CALLDATALOAD DUP3 MSTORE DUP4 MSTORE DUP2 DUP2 KECCAK256 SWAP1 DUP3 MLOAD DUP1 DUP6 DUP5 SLOAD SWAP2 DUP3 DUP2 MSTORE ADD SWAP1 DUP2 SWAP5 DUP5 MSTORE DUP7 DUP5 KECCAK256 SWAP1 DUP5 JUMPDEST DUP2 DUP2 LT PUSH2 0x2CF JUMPI POP POP POP DUP2 PUSH2 0x28B SWAP2 SUB DUP3 PUSH2 0x1389 JUMP JUMPDEST DUP4 MLOAD SWAP5 DUP6 SWAP5 DUP2 DUP7 ADD SWAP3 DUP3 DUP8 MSTORE MLOAD DUP1 SWAP4 MSTORE DUP6 ADD SWAP4 SWAP3 JUMPDEST DUP3 DUP2 LT PUSH2 0x2AF JUMPI POP POP POP POP SUB SWAP1 RETURN JUMPDEST DUP4 MLOAD PUSH1 0x1 PUSH1 0x1 PUSH1 0xA0 SHL SUB AND DUP6 MSTORE DUP7 SWAP6 POP SWAP4 DUP2 ADD SWAP4 SWAP3 DUP2 ADD SWAP3 PUSH1 0x1 ADD PUSH2 0x2A0 JUMP JUMPDEST DUP3 SLOAD PUSH1 0x1 PUSH1 0x1 PUSH1 0xA0 SHL SUB AND DUP5 MSTORE SWAP3 DUP9 ADD SWAP3 PUSH1 0x1 SWAP3 DUP4 ADD SWAP3 ADD PUSH2 0x275 JUMP JUMPDEST DUP1 REVERT JUMPDEST SWAP1 SWAP3 SWAP2 POP CALLVALUE PUSH2 0x238 JUMPI PUSH1 0x20 CALLDATASIZE PUSH1 0x3 NOT ADD SLT PUSH2 0x238 JUMPI DUP2 MLOAD SWAP3 PUSH2 0x310 DUP5 PUSH2 0x136C JUMP JUMPDEST DUP5 DUP5 MSTORE DUP5 PUSH1 0x20 DUP6 ADD MSTORE DUP5 DUP4 DUP6 ADD MSTORE DUP5 PUSH1 0x60 DUP6 ADD MSTORE DUP5 PUSH1 0x80 DUP6 ADD MSTORE DUP5 PUSH1 0xA0 DUP6 ADD MSTORE DUP5 PUSH1 0xC0 DUP6 ADD MSTORE DUP5 DUP3 DUP6 ADD MSTORE PUSH2 0x100 SWAP2 DUP6 DUP4 DUP7 ADD MSTORE DUP6 PUSH2 0x120 DUP1 SWAP7 ADD MSTORE DUP2 CALLDATALOAD DUP7 MSTORE PUSH1 0x3 PUSH1 0x20 MSTORE DUP4 DUP7 KECCAK256 SWAP2 DUP5 MLOAD SWAP5 PUSH2 0x365 DUP7 PUSH2 0x136C JUMP JUMPDEST DUP4 SLOAD DUP7 MSTORE PUSH1 0x1 DUP5 ADD SLOAD SWAP8 PUSH1 0x20 DUP8 ADD SWAP9 DUP10 MSTORE PUSH1 0x2 DUP6 ADD SLOAD SWAP2 DUP1 DUP9 ADD SWAP3 DUP4 MSTORE PUSH1 0x3 DUP7 ADD SLOAD PUSH1 0x60 DUP10 ADD SWAP1 DUP2 MSTORE DUP5 DUP8 ADD SLOAD SWAP1 PUSH1 0x80 DUP11 ADD SWAP2 DUP3 MSTORE PUSH1 0x5 DUP9 ADD SLOAD SWAP3 PUSH1 0xA0 DUP12 ADD SWAP4 DUP5 MSTORE PUSH1 0x6 DUP10 ADD SLOAD SWAP6 DUP12 PUSH1 0xC0 DUP2 ADD SWAP7 DUP11 PUSH1 0xFF PUSH1 0x1 DUP1 PUSH1 0xA0 SHL SUB SWAP11 DUP12 DUP2 AND DUP12 MSTORE PUSH1 0xA0 SHR AND SWAP3 ADD SWAP10 PUSH1 0x5 DUP4 LT ISZERO PUSH2 0x437 JUMPI POP POP DUP9 MSTORE PUSH1 0x7 DUP11 ADD SLOAD SWAP10 DUP12 DUP14 ADD SWAP11 DUP12 MSTORE PUSH1 0x8 ADD SLOAD SWAP12 DUP14 DUP2 ADD SWAP13 DUP14 MSTORE DUP3 MLOAD SWAP15 DUP16 SWAP2 MLOAD DUP3 MSTORE MLOAD SWAP1 PUSH1 0x20 ADD MSTORE MLOAD SWAP1 DUP14 ADD MSTORE MLOAD PUSH1 0x60 DUP13 ADD MSTORE MLOAD PUSH1 0x80 DUP12 ADD MSTORE MLOAD PUSH1 0xA0 DUP11 ADD MSTORE MLOAD AND PUSH1 0xC0 DUP9 ADD MSTORE MLOAD SWAP1 DUP7 ADD PUSH2 0x427 SWAP2 PUSH2 0x1297 JUMP JUMPDEST MLOAD SWAP1 DUP5 ADD MSTORE MLOAD SWAP1 DUP3 ADD MSTORE PUSH2 0x140 SWAP1 RETURN JUMPDEST PUSH4 0x4E487B71 PUSH1 0xE0 SHL DUP3 MSTORE PUSH1 0x21 SWAP1 MSTORE PUSH1 0x24 SWAP1 REVERT JUMPDEST POP POP POP CALLVALUE PUSH2 0x13A JUMPI DUP2 PUSH1 0x3 NOT CALLDATASIZE ADD SLT PUSH2 0x13A JUMPI PUSH1 0x20 SWAP1 PUSH1 0x2 SLOAD SWAP1 MLOAD SWAP1 DUP2 MSTORE RETURN JUMPDEST DUP5 DUP3 DUP6 CALLVALUE PUSH2 0x1E9 JUMPI PUSH1 0x60 CALLDATASIZE PUSH1 0x3 NOT ADD SLT PUSH2 0x1E9 JUMPI PUSH1 0x44 CALLDATALOAD SWAP3 DUP3 CALLDATALOAD DUP2 MSTORE PUSH1 0x6 PUSH1 0x20 MSTORE DUP2 DUP2 KECCAK256 PUSH1 0x24 CALLDATALOAD DUP3 MSTORE PUSH1 0x20 MSTORE DUP2 DUP2 KECCAK256 SWAP1 DUP2 SLOAD DUP6 LT ISZERO PUSH2 0x2EC JUMPI POP PUSH1 0xA0 SWAP4 PUSH2 0x4B0 SWAP2 PUSH2 0x12BA JUMP JUMPDEST POP PUSH1 0x1 DUP1 DUP6 SHL SUB DUP2 SLOAD AND SWAP3 PUSH1 0x1 DUP3 ADD SLOAD SWAP3 PUSH1 0xFF PUSH1 0x2 DUP5 ADD SLOAD SWAP3 PUSH1 0x3 DUP6 ADD SLOAD SWAP5 ADD SLOAD AND SWAP4 DUP2 MLOAD SWAP6 DUP7 MSTORE PUSH1 0x20 DUP7 ADD MSTORE DUP5 ADD MSTORE PUSH1 0x60 DUP4 ADD MSTORE ISZERO ISZERO PUSH1 0x80 DUP3 ADD MSTORE RETURN JUMPDEST POP POP POP CALLVALUE PUSH2 0x13A JUMPI DUP2 PUSH1 0x3 NOT CALLDATASIZE ADD SLT PUSH2 0x13A JUMPI SWAP1 SLOAD SWAP1 MLOAD PUSH1 0x1 PUSH1 0x1 PUSH1 0xA0 SHL SUB SWAP1 SWAP2 AND DUP2 MSTORE PUSH1 0x20 SWAP1 RETURN JUMPDEST DUP5 DUP5 SWAP2 CALLVALUE PUSH2 0x13A JUMPI PUSH1 0xA0 CALLDATASIZE PUSH1 0x3 NOT ADD SLT PUSH2 0x13A JUMPI DUP3 SWAP2 DUP5 CALLDATALOAD SWAP2 PUSH1 0x44 CALLDATALOAD SWAP2 PUSH1 0x84 CALLDATALOAD SWAP2 PUSH1 0x64 CALLDATALOAD SWAP2 PUSH2 0x544 PUSH2 0x1413 JUMP JUMPDEST DUP6 ISZERO DUP1 ISZERO PUSH2 0x720 JUMPI JUMPDEST DUP1 ISZERO PUSH2 0x718 JUMPI JUMPDEST PUSH2 0x708 JUMPI PUSH2 0x562 DUP5 DUP7 PUSH2 0x1302 JUMP JUMPDEST SWAP2 DUP3 ISZERO PUSH2 0x6F8 JUMPI PUSH2 0x5C0 DUP9 MLOAD PUSH4 0x23B872DD PUSH1 0xE0 SHL PUSH1 0x20 DUP3 ADD MSTORE CALLER PUSH1 0x24 DUP3 ADD MSTORE ADDRESS PUSH1 0x44 DUP3 ADD MSTORE DUP5 PUSH1 0x64 DUP3 ADD MSTORE PUSH1 0x64 DUP2 MSTORE PUSH2 0x59A DUP2 PUSH2 0x133A JUMP JUMPDEST PUSH32 0x0 PUSH2 0x13AB JUMP JUMPDEST PUSH1 0x2 SLOAD SWAP9 DUP10 SWAP3 PUSH2 0x5CF DUP5 PUSH2 0x132B JUMP JUMPDEST PUSH1 0x2 SSTORE DUP2 MLOAD SWAP6 PUSH2 0x5DE DUP8 PUSH2 0x136C JUMP JUMPDEST DUP10 DUP8 MSTORE PUSH1 0x20 DUP8 ADD SWAP1 PUSH1 0x24 CALLDATALOAD DUP3 MSTORE DUP4 DUP9 ADD DUP11 DUP2 MSTORE PUSH1 0x60 DUP10 ADD SWAP1 DUP5 DUP3 MSTORE PUSH1 0x80 DUP11 ADD SWAP3 DUP4 MSTORE PUSH1 0xA0 DUP11 ADD SWAP4 DUP12 DUP6 MSTORE PUSH1 0xC0 DUP12 ADD SWAP8 CALLER DUP10 MSTORE DUP12 ADD SWAP7 DUP7 DUP9 MSTORE PUSH2 0x100 DUP13 ADD SWAP10 TIMESTAMP DUP12 MSTORE PUSH2 0x120 DUP14 ADD SWAP12 DUP13 MSTORE DUP8 MSTORE PUSH1 0x3 PUSH1 0x20 MSTORE DUP7 KECCAK256 SWAP11 MLOAD DUP12 SSTORE MLOAD PUSH1 0x1 DUP12 ADD SSTORE MLOAD PUSH1 0x2 DUP11 ADD SSTORE MLOAD PUSH1 0x3 DUP10 ADD SSTORE MLOAD DUP14 DUP9 ADD SSTORE MLOAD PUSH1 0x5 DUP8 ADD SSTORE PUSH1 0x6 DUP7 ADD SWAP3 PUSH1 0x1 DUP1 PUSH1 0xA0 SHL SUB SWAP1 MLOAD AND SWAP1 DUP4 SLOAD SWAP3 MLOAD SWAP1 PUSH1 0x5 DUP3 LT ISZERO PUSH2 0x6E5 JUMPI POP PUSH1 0x20 SWAP13 POP SWAP4 PUSH1 0x60 SWAP7 SWAP4 PUSH1 0x8 SWAP4 DUP14 SWAP11 SWAP8 SWAP4 PUSH32 0x9BFEDD04B6C27312C6AB4F6DC3BC5C815049DFE048F506054CB0A1C5DABECF13 SWAP11 SWAP8 PUSH1 0xFF PUSH1 0xA0 SHL SWAP1 PUSH1 0xA0 SHL AND SWAP2 PUSH11 0xFFFFFFFFFFFFFFFFFFFFFF PUSH1 0xA8 SHL AND OR OR SWAP1 SSTORE MLOAD PUSH1 0x7 DUP5 ADD SSTORE MLOAD SWAP2 ADD SSTORE DUP7 MLOAD SWAP2 CALLER DUP4 MSTORE DUP10 DUP4 ADD MSTORE DUP7 DUP3 ADD MSTORE LOG3 PUSH1 0x1 DUP1 SSTORE MLOAD SWAP1 DUP2 MSTORE RETURN JUMPDEST PUSH4 0x4E487B71 PUSH1 0xE0 SHL DUP2 MSTORE PUSH1 0x21 DUP15 MSTORE PUSH1 0x24 SWAP1 REVERT JUMPDEST DUP8 MLOAD PUSH4 0xE523909 PUSH1 0xE4 SHL DUP2 MSTORE DUP11 SWAP1 REVERT JUMPDEST DUP7 MLOAD PUSH4 0xE523909 PUSH1 0xE4 SHL DUP2 MSTORE DUP10 SWAP1 REVERT JUMPDEST POP DUP3 ISZERO PUSH2 0x554 JUMP JUMPDEST POP DUP5 ISZERO PUSH2 0x54D JUMP JUMPDEST DUP5 CALLVALUE PUSH2 0x2EC JUMPI DUP1 PUSH1 0x3 NOT CALLDATASIZE ADD SLT PUSH2 0x2EC JUMPI PUSH2 0x741 PUSH2 0x12D6 JUMP JUMPDEST DUP1 SLOAD PUSH1 0x1 PUSH1 0x1 PUSH1 0xA0 SHL SUB NOT DUP2 AND DUP3 SSTORE DUP2 SWAP1 PUSH1 0x1 PUSH1 0x1 PUSH1 0xA0 SHL SUB AND PUSH32 0x8BE0079C531659141344CD1FD0A4F28419497F9722A3DAAFE3B4186F6B6457E0 DUP3 DUP1 LOG3 DUP1 RETURN JUMPDEST POP DUP4 DUP4 CALLVALUE PUSH2 0x13A JUMPI DUP2 PUSH1 0x3 NOT CALLDATASIZE ADD SLT PUSH2 0x13A JUMPI PUSH1 0x2 SLOAD DUP3 DUP1 JUMPDEST DUP3 DUP2 LT PUSH2 0x7AC JUMPI PUSH1 0x20 DUP6 DUP6 MLOAD SWAP1 DUP2 MSTORE RETURN JUMPDEST DUP1 DUP3 MSTORE PUSH1 0x3 PUSH1 0x20 SWAP1 DUP1 DUP3 MSTORE PUSH1 0xFF PUSH1 0x6 DUP1 DUP9 DUP8 KECCAK256 ADD SLOAD SWAP1 DUP3 PUSH1 0xA0 SWAP3 DUP4 SHR AND SWAP4 PUSH1 0x5 SWAP5 DUP6 DUP2 LT ISZERO PUSH2 0x842 JUMPI ISZERO SWAP6 DUP7 ISZERO PUSH2 0x80C JUMPI JUMPDEST POP POP POP POP POP POP PUSH2 0x7F7 JUMPI JUMPDEST PUSH2 0x7F2 SWAP1 PUSH2 0x132B JUMP JUMPDEST PUSH2 0x79B JUMP JUMPDEST SWAP4 PUSH2 0x804 PUSH2 0x7F2 SWAP2 PUSH2 0x132B JUMP JUMPDEST SWAP5 SWAP1 POP PUSH2 0x7E9 JUMP JUMPDEST DUP8 DUP10 MSTORE MSTORE DUP9 DUP8 KECCAK256 ADD SLOAD SWAP1 SHR AND SWAP2 POP DUP2 LT ISZERO PUSH2 0x82F JUMPI PUSH1 0x1 EQ DUP8 DUP1 DUP1 DUP1 DUP1 DUP1 PUSH2 0x7DE JUMP JUMPDEST PUSH4 0x4E487B71 PUSH1 0xE0 SHL DUP4 MSTORE PUSH1 0x21 DUP8 MSTORE PUSH1 0x24 DUP4 REVERT JUMPDEST PUSH4 0x4E487B71 PUSH1 0xE0 SHL DUP10 MSTORE PUSH1 0x21 DUP14 MSTORE PUSH1 0x24 DUP10 REVERT JUMPDEST DUP4 DUP6 DUP4 CALLVALUE PUSH2 0x13A JUMPI PUSH2 0x866 CALLDATASIZE PUSH2 0x124E JUMP JUMPDEST SWAP2 SWAP1 DUP4 MSTORE PUSH1 0x20 SWAP2 PUSH1 0x6 DUP4 MSTORE DUP5 DUP5 KECCAK256 SWAP1 DUP5 MSTORE DUP3 MSTORE DUP4 DUP4 KECCAK256 SWAP2 DUP3 SLOAD PUSH8 0xFFFFFFFFFFFFFFFF DUP2 GT PUSH2 0x987 JUMPI DUP6 MLOAD SWAP2 SWAP5 SWAP3 PUSH1 0x5 SWAP1 PUSH2 0x8A4 DUP4 DUP4 SHL DUP9 ADD DUP6 PUSH2 0x1389 JUMP JUMPDEST DUP3 DUP5 MSTORE DUP7 DUP5 ADD SWAP1 DUP2 SWAP7 DUP7 MSTORE DUP8 DUP7 KECCAK256 SWAP1 DUP7 SWAP3 JUMPDEST DUP6 DUP5 LT PUSH2 0x92B JUMPI POP POP POP POP POP POP DUP5 MLOAD SWAP4 DUP1 DUP6 ADD SWAP2 DUP2 DUP7 MSTORE MLOAD DUP1 SWAP3 MSTORE DUP6 DUP6 ADD SWAP4 SWAP3 JUMPDEST DUP3 DUP2 LT PUSH2 0x8E4 JUMPI DUP6 DUP6 SUB DUP7 RETURN JUMPDEST DUP4 MLOAD DUP1 MLOAD PUSH1 0x1 PUSH1 0x1 PUSH1 0xA0 SHL SUB AND DUP7 MSTORE DUP1 DUP4 ADD MLOAD DUP7 DUP5 ADD MSTORE DUP8 DUP2 ADD MLOAD DUP9 DUP8 ADD MSTORE PUSH1 0x60 DUP1 DUP3 ADD MLOAD SWAP1 DUP8 ADD MSTORE PUSH1 0x80 SWAP1 DUP2 ADD MLOAD ISZERO ISZERO SWAP1 DUP7 ADD MSTORE PUSH1 0xA0 SWAP1 SWAP5 ADD SWAP4 SWAP3 DUP2 ADD SWAP3 PUSH1 0x1 ADD PUSH2 0x8D7 JUMP JUMPDEST DUP5 DUP11 PUSH1 0x1 SWAP3 DUP14 DUP1 SWAP14 SWAP11 SWAP12 SWAP14 MLOAD SWAP1 PUSH2 0x941 DUP3 PUSH2 0x133A JUMP JUMPDEST DUP6 DUP1 PUSH1 0xA0 SHL SUB DUP9 SLOAD AND DUP3 MSTORE DUP6 DUP9 ADD SLOAD DUP5 DUP4 ADD MSTORE PUSH1 0x2 DUP9 ADD SLOAD SWAP1 DUP3 ADD MSTORE PUSH1 0x3 DUP8 ADD SLOAD PUSH1 0x60 DUP3 ADD MSTORE PUSH1 0xFF DUP7 DUP9 ADD SLOAD AND ISZERO ISZERO PUSH1 0x80 DUP3 ADD MSTORE DUP2 MSTORE ADD SWAP4 ADD SWAP4 ADD SWAP3 SWAP2 SWAP9 SWAP7 SWAP6 SWAP9 PUSH2 0x8B6 JUMP JUMPDEST PUSH4 0x4E487B71 PUSH1 0xE0 SHL DUP6 MSTORE PUSH1 0x41 DUP4 MSTORE PUSH1 0x24 DUP6 REVERT JUMPDEST POP SWAP1 POP CALLVALUE PUSH2 0x1E9 JUMPI PUSH1 0x20 CALLDATASIZE PUSH1 0x3 NOT ADD SLT PUSH2 0x1E9 JUMPI DUP1 CALLDATALOAD SWAP2 PUSH2 0x9B9 PUSH2 0x1413 JUMP JUMPDEST DUP3 DUP5 MSTORE PUSH1 0x3 PUSH1 0x20 MSTORE DUP1 DUP5 KECCAK256 PUSH1 0x6 DUP2 ADD DUP1 SLOAD PUSH1 0x1 PUSH1 0x1 PUSH1 0xA0 SHL SUB DUP2 AND SWAP3 SWAP2 CALLER DUP5 SWAP1 SUB PUSH2 0xAE8 JUMPI PUSH1 0xFF DUP3 PUSH1 0xA0 SHR AND PUSH1 0x5 DUP2 LT ISZERO PUSH2 0xAD5 JUMPI DUP7 PUSH1 0x3 DUP3 EQ SWAP2 DUP3 ISZERO PUSH2 0xACB JUMPI JUMPDEST POP POP PUSH2 0xABB JUMPI PUSH1 0x8 PUSH2 0xA16 PUSH1 0x3 DUP6 ADD SLOAD PUSH1 0x5 DUP7 ADD SLOAD SWAP1 PUSH2 0x1302 JUMP JUMPDEST SWAP4 ADD SLOAD SWAP2 DUP4 DUP4 SUB SWAP7 DUP4 DUP9 GT PUSH2 0xAA8 JUMPI POP PUSH1 0xFF PUSH1 0xA0 SHL NOT AND PUSH1 0x1 PUSH1 0xA2 SHL OR SWAP1 SSTORE PUSH32 0x7E3805011ACB8D49832D7EF085841E251E66267C06E54E0AC20CB09F3C696D3B SWAP5 PUSH1 0x20 SWAP5 SWAP1 SWAP4 SWAP1 SWAP3 SWAP1 SWAP2 DUP5 SWAP2 SWAP1 SUB PUSH2 0xA77 JUMPI JUMPDEST POP POP MLOAD SWAP1 DUP2 MSTORE LOG2 PUSH1 0x1 DUP1 SSTORE DUP1 RETURN JUMPDEST PUSH2 0xAA1 SWAP2 PUSH32 0x0 PUSH2 0x1436 JUMP JUMPDEST CODESIZE DUP3 PUSH2 0xA69 JUMP JUMPDEST PUSH4 0x4E487B71 PUSH1 0xE0 SHL DUP11 MSTORE PUSH1 0x11 SWAP1 MSTORE PUSH1 0x24 DUP10 REVERT JUMPDEST DUP5 MLOAD PUSH4 0xE523909 PUSH1 0xE4 SHL DUP2 MSTORE DUP7 SWAP1 REVERT JUMPDEST EQ SWAP1 POP DUP7 CODESIZE PUSH2 0x9FB JUMP JUMPDEST PUSH4 0x4E487B71 PUSH1 0xE0 SHL DUP10 MSTORE PUSH1 0x21 DUP8 MSTORE PUSH1 0x24 DUP10 REVERT JUMPDEST DUP5 MLOAD PUSH4 0x9B1606C5 PUSH1 0xE0 SHL DUP2 MSTORE DUP7 SWAP1 REVERT JUMPDEST DUP5 SWAP2 DUP5 CALLVALUE PUSH2 0x238 JUMPI PUSH1 0x20 CALLDATASIZE PUSH1 0x3 NOT ADD SLT PUSH2 0x238 JUMPI PUSH2 0xB87 DUP2 PUSH2 0x140 SWAP6 DUP5 CALLDATALOAD DUP2 MSTORE PUSH1 0x3 PUSH1 0x20 MSTORE KECCAK256 SWAP2 PUSH1 0xFF DUP4 SLOAD SWAP6 PUSH1 0x1 DUP6 ADD SLOAD SWAP6 PUSH1 0x2 DUP7 ADD SLOAD SWAP1 PUSH1 0x3 DUP8 ADD SLOAD SWAP1 DUP8 ADD SLOAD SWAP1 PUSH1 0x5 DUP9 ADD SLOAD SWAP3 PUSH1 0x6 DUP10 ADD SLOAD SWAP7 PUSH1 0x8 PUSH1 0x7 DUP12 ADD SLOAD SWAP11 ADD SLOAD SWAP11 DUP2 MLOAD SWAP13 DUP14 MSTORE PUSH1 0x20 DUP14 ADD MSTORE DUP12 ADD MSTORE PUSH1 0x60 DUP11 ADD MSTORE PUSH1 0x80 DUP10 ADD MSTORE PUSH1 0xA0 DUP9 ADD MSTORE PUSH1 0x1 DUP1 PUSH1 0xA0 SHL SUB DUP4 AND PUSH1 0xC0 DUP9 ADD MSTORE DUP7 ADD SWAP2 PUSH1 0xA0 SHR AND PUSH2 0x1297 JUMP JUMPDEST PUSH2 0x100 DUP4 ADD MSTORE PUSH2 0x120 DUP3 ADD MSTORE RETURN JUMPDEST POP SWAP1 POP CALLVALUE PUSH2 0x1E9 JUMPI PUSH1 0x60 CALLDATASIZE PUSH1 0x3 NOT ADD SLT PUSH2 0x1E9 JUMPI DUP1 CALLDATALOAD SWAP1 PUSH1 0x24 CALLDATALOAD PUSH2 0xBB7 PUSH2 0x1413 JUMP JUMPDEST DUP3 DUP6 MSTORE PUSH1 0x20 SWAP1 PUSH1 0x3 DUP3 MSTORE DUP5 DUP7 KECCAK256 SWAP5 PUSH1 0xFF DUP1 PUSH1 0x6 DUP9 ADD SLOAD PUSH1 0xA0 SHR AND SWAP7 PUSH1 0x5 DUP9 LT ISZERO PUSH2 0x1022 JUMPI PUSH1 0x1 DUP1 SWAP9 SUB PUSH2 0x1012 JUMPI DUP7 DUP10 MSTORE PUSH1 0x5 DUP6 MSTORE DUP3 DUP10 KECCAK256 CALLER DUP11 MSTORE DUP6 MSTORE DUP2 DUP4 DUP11 KECCAK256 SLOAD AND ISZERO PUSH2 0x1002 JUMPI PUSH1 0x3 DUP2 ADD SLOAD DUP8 DUP11 MSTORE PUSH1 0x6 DUP7 MSTORE DUP4 DUP11 KECCAK256 DUP2 DUP12 MSTORE DUP7 MSTORE DUP4 DUP11 KECCAK256 DUP1 SLOAD SWAP6 SWAP1 SWAP2 DUP12 JUMPDEST DUP8 DUP2 LT PUSH2 0xFC9 JUMPI POP DUP11 DUP7 MLOAD SWAP8 PUSH2 0xC31 DUP10 PUSH2 0x133A JUMP JUMPDEST CALLER DUP10 MSTORE DUP10 DUP10 ADD SWAP1 DUP5 DUP3 MSTORE DUP9 DUP11 ADD PUSH1 0x44 CALLDATALOAD DUP2 MSTORE PUSH1 0x60 DUP12 ADD SWAP2 TIMESTAMP DUP4 MSTORE PUSH1 0x80 DUP13 ADD SWAP5 DUP6 MSTORE PUSH1 0x1 PUSH1 0x40 SHL DUP2 LT ISZERO PUSH2 0xFB4 JUMPI DUP16 SWAP1 PUSH2 0xC6E SWAP2 DUP2 ADD DUP10 SSTORE DUP9 PUSH2 0x12BA JUMP JUMPDEST SWAP4 SWAP1 SWAP4 PUSH2 0xFA0 JUMPI SWAP2 DUP16 SWAP2 DUP15 SWAP9 SWAP8 SWAP7 SWAP6 SWAP5 SWAP3 DUP10 SWAP5 PUSH1 0x1 DUP1 PUSH1 0xA0 SHL SUB SWAP15 DUP16 SWAP1 MLOAD AND PUSH12 0xFFFFFFFFFFFFFFFFFFFFFFFF PUSH1 0xA0 SHL DUP7 SLOAD AND OR DUP6 SSTORE MLOAD SWAP1 DUP5 ADD SSTORE MLOAD PUSH1 0x2 DUP4 ADD SSTORE MLOAD PUSH1 0x3 DUP3 ADD SSTORE ADD SWAP1 MLOAD ISZERO ISZERO DUP8 PUSH1 0xFF NOT DUP4 SLOAD AND SWAP2 AND OR SWAP1 SSTORE DUP7 MLOAD SWAP2 DUP3 MSTORE DUP11 PUSH32 0xC3684A0C96CA113990E886787446FA758A79EFF57DAFB63FA2A86C04346F7956 DUP11 CALLER SWAP5 LOG4 SLOAD SWAP2 ADD SLOAD GT ISZERO PUSH2 0xD02 JUMPI JUMPDEST DUP8 DUP8 DUP1 SSTORE DUP1 RETURN JUMPDEST DUP6 DUP9 MSTORE PUSH1 0x3 DUP5 MSTORE DUP2 DUP1 DUP10 KECCAK256 SWAP6 PUSH1 0x3 DUP8 ADD SWAP5 DUP6 SLOAD SWAP4 PUSH1 0x6 DUP9 MSTORE DUP4 DUP13 KECCAK256 DUP6 DUP14 MSTORE DUP9 MSTORE DUP4 DUP13 KECCAK256 SWAP3 DUP11 DUP14 MSTORE PUSH1 0x6 DUP10 MSTORE DUP13 DUP7 DUP7 DUP3 KECCAK256 SWAP2 MSTORE DUP10 MSTORE DUP13 DUP13 DUP7 DUP3 KECCAK256 PUSH1 0x60 SWAP2 DUP4 SWAP2 DUP1 SLOAD SWAP2 JUMPDEST DUP3 DUP5 LT PUSH2 0xF20 JUMPI POP POP POP POP DUP11 DUP2 MLOAD SWAP2 ADD KECCAK256 SWAP6 DUP2 DUP14 DUP9 SWAP4 MSTORE PUSH1 0x7 DUP13 MSTORE DUP2 DUP2 KECCAK256 DUP10 DUP3 MSTORE DUP13 MSTORE KECCAK256 SSTORE PUSH1 0x5 DUP11 ADD SLOAD DUP5 SLOAD SWAP1 DUP2 ISZERO PUSH2 0xF0D JUMPI SWAP4 DUP14 SWAP7 SWAP4 DUP16 SWAP3 SWAP4 DUP9 DUP16 SWAP9 SWAP6 DUP15 DUP13 SWAP2 DUP15 SWAP11 DIV SWAP7 SWAP3 JUMPDEST PUSH2 0xE30 JUMPI JUMPDEST POP POP POP POP POP POP POP PUSH32 0x3FCE885E3ED0732A07628600CAE71C392194073C4B3D2E41CCEF82C8CF7F07A3 SWAP4 SWAP5 POP SLOAD DUP3 MLOAD SWAP2 DUP3 MSTORE DUP9 DUP3 ADD MSTORE LOG3 PUSH2 0xDD0 DUP3 SLOAD PUSH2 0x132B JUMP JUMPDEST DUP1 SWAP3 SSTORE PUSH1 0x2 DUP5 ADD SLOAD DUP1 SWAP3 LT ISZERO PUSH2 0xDE7 JUMPI JUMPDEST DUP1 PUSH2 0xCFB JUMP JUMPDEST PUSH1 0x6 SWAP4 SWAP1 SWAP4 ADD DUP1 SLOAD PUSH1 0xFF PUSH1 0xA0 SHL NOT AND PUSH1 0x3 PUSH1 0xA0 SHL OR SWAP1 SSTORE SWAP2 MLOAD SWAP2 DUP3 MSTORE PUSH32 0x152D31E943F2D79D470375C901F5A6CFB7D465EE4969DB651885948D3B6015B8 SWAP2 LOG2 CODESIZE DUP1 DUP1 DUP1 DUP1 PUSH2 0xDE1 JUMP JUMPDEST DUP8 SWAP11 SWAP2 SWAP3 SWAP5 SWAP7 SWAP9 SWAP12 SWAP10 SWAP4 SWAP6 SWAP8 SLOAD DUP6 LT ISZERO PUSH2 0xEFE JUMPI SWAP1 DUP11 DUP6 SWAP5 SWAP4 SWAP3 DUP10 DUP12 DUP8 DUP12 DUP12 PUSH2 0xE5C PUSH2 0xE72 SWAP13 DUP9 PUSH2 0x12BA JUMP JUMPDEST POP ADD SLOAD AND PUSH2 0xE84 JUMPI JUMPDEST POP POP POP POP POP POP POP POP PUSH2 0x132B JUMP JUMPDEST SWAP2 DUP14 SWAP7 SWAP4 SWAP2 DUP7 SWAP9 SWAP6 SWAP4 DUP11 DUP15 DUP14 SWAP10 PUSH2 0xD8B JUMP JUMPDEST DUP5 PUSH2 0xEE1 PUSH2 0xEE6 SWAP4 DUP6 PUSH2 0xEB8 DUP6 PUSH32 0x683B5B362BAE69CAD1AFDED62FF468E9B9EA9DF8AB2303D0018E71125AD2EF63 SWAP11 PUSH2 0x12BA JUMP JUMPDEST POP SLOAD AND PUSH32 0x0 PUSH2 0x1436 JUMP JUMPDEST PUSH2 0x12BA JUMP JUMPDEST POP SLOAD AND SWAP5 MLOAD DUP12 DUP2 MSTORE LOG4 DUP11 DUP16 DUP12 SWAP1 DUP16 DUP12 SWAP1 DUP10 DUP12 DUP8 PUSH2 0xE65 JUMP JUMPDEST DUP4 SWAP10 SWAP12 SWAP9 POP DUP3 SWAP2 SWAP11 SWAP8 POP PUSH2 0xD90 JUMP JUMPDEST PUSH4 0x4E487B71 PUSH1 0xE0 SHL DUP16 MSTORE PUSH1 0x12 DUP4 MSTORE PUSH1 0x24 DUP16 REVERT JUMPDEST SWAP5 DUP2 SWAP5 SWAP3 SWAP6 DUP16 SWAP5 SWAP8 SWAP9 SWAP10 SWAP11 SWAP12 SWAP3 DUP9 PUSH2 0xF37 SWAP2 PUSH2 0x12BA JUMP JUMPDEST POP ADD SLOAD SWAP1 DUP3 MLOAD SWAP4 DUP1 MLOAD SWAP2 JUMPDEST DUP3 DUP2 LT PUSH2 0xF80 JUMPI POP POP SWAP4 DUP4 PUSH2 0xF6A SWAP4 SWAP3 PUSH2 0xF70 SWAP7 DUP3 ADD SWAP1 DUP4 DUP3 ADD MSTORE SUB SWAP1 DUP2 ADD DUP5 MSTORE ADD DUP3 PUSH2 0x1389 JUMP JUMPDEST SWAP4 PUSH2 0x132B JUMP JUMPDEST DUP16 SWAP3 DUP16 SWAP3 DUP12 SWAP10 SWAP9 SWAP8 SWAP7 SWAP6 SWAP4 PUSH2 0xD44 JUMP JUMPDEST SWAP1 SWAP3 SWAP5 SWAP6 DUP1 SWAP3 SWAP5 POP DUP2 DUP5 ADD ADD MLOAD DUP3 DUP3 DUP9 ADD ADD MSTORE ADD SWAP2 DUP16 SWAP5 SWAP4 SWAP2 DUP15 SWAP4 PUSH2 0xF42 JUMP JUMPDEST POP POP PUSH4 0x4E487B71 PUSH1 0xE0 SHL DUP16 MSTORE DUP15 DUP13 MSTORE PUSH1 0x24 DUP16 REVERT JUMPDEST POP POP PUSH4 0x4E487B71 PUSH1 0xE0 SHL DUP16 MSTORE PUSH1 0x41 DUP13 MSTORE PUSH1 0x24 DUP16 REVERT JUMPDEST PUSH2 0xFD3 DUP2 DUP6 PUSH2 0x12BA JUMP JUMPDEST POP SLOAD PUSH1 0x1 PUSH1 0x1 PUSH1 0xA0 SHL SUB AND CALLER EQ PUSH2 0xFF2 JUMPI PUSH2 0xFED SWAP1 PUSH2 0x132B JUMP JUMPDEST PUSH2 0xC1C JUMP JUMPDEST DUP7 MLOAD PUSH4 0x9FBFC589 PUSH1 0xE0 SHL DUP2 MSTORE DUP11 SWAP1 REVERT JUMPDEST DUP3 MLOAD PUSH4 0xABA47339 PUSH1 0xE0 SHL DUP2 MSTORE DUP7 SWAP1 REVERT JUMPDEST DUP3 MLOAD PUSH4 0x3C6E2E4B PUSH1 0xE1 SHL DUP2 MSTORE DUP7 SWAP1 REVERT JUMPDEST PUSH4 0x4E487B71 PUSH1 0xE0 SHL DUP10 MSTORE PUSH1 0x21 DUP7 MSTORE PUSH1 0x24 DUP10 REVERT JUMPDEST POP POP POP CALLVALUE PUSH2 0x13A JUMPI DUP1 PUSH1 0x20 SWAP3 PUSH2 0x104A CALLDATASIZE PUSH2 0x124E JUMP JUMPDEST SWAP1 DUP3 MSTORE PUSH1 0x7 DUP6 MSTORE DUP3 DUP3 KECCAK256 SWAP1 DUP3 MSTORE DUP5 MSTORE KECCAK256 SLOAD SWAP1 MLOAD SWAP1 DUP2 MSTORE RETURN JUMPDEST POP DUP3 DUP5 CALLVALUE PUSH2 0x2EC JUMPI PUSH2 0x1073 CALLDATASIZE PUSH2 0x124E JUMP JUMPDEST SWAP4 SWAP1 DUP3 MSTORE PUSH1 0x20 MSTORE DUP2 DUP2 KECCAK256 SWAP1 DUP2 SLOAD DUP5 LT ISZERO PUSH2 0x2EC JUMPI POP PUSH1 0x20 SWAP3 PUSH2 0x1094 SWAP2 PUSH2 0x1269 JUMP JUMPDEST SWAP1 SLOAD SWAP2 MLOAD SWAP2 PUSH1 0x1 DUP1 PUSH1 0xA0 SHL SUB SWAP2 PUSH1 0x3 SHL SHR AND DUP2 MSTORE RETURN JUMPDEST SWAP3 POP POP SWAP2 CALLVALUE PUSH2 0x238 JUMPI PUSH1 0x20 SWAP1 DUP2 PUSH1 0x3 NOT CALLDATASIZE ADD SLT PUSH2 0x1E5 JUMPI DUP4 CALLDATALOAD SWAP4 DUP5 DUP7 MSTORE PUSH1 0x3 DUP4 MSTORE DUP2 DUP7 KECCAK256 PUSH1 0x6 DUP2 ADD SWAP5 PUSH1 0xFF DUP7 SLOAD PUSH1 0xA0 SHR AND PUSH1 0x5 DUP2 LT ISZERO PUSH2 0x123B JUMPI PUSH2 0x122D JUMPI POP DUP6 DUP8 MSTORE PUSH1 0x5 DUP5 MSTORE DUP3 DUP8 KECCAK256 CALLER DUP9 MSTORE DUP5 MSTORE PUSH1 0xFF DUP4 DUP9 KECCAK256 SLOAD AND PUSH2 0x121E JUMPI DUP6 DUP8 MSTORE DUP2 DUP5 MSTORE PUSH2 0x3E8 DUP4 DUP9 KECCAK256 SLOAD LT ISZERO PUSH2 0x120F JUMPI DUP6 DUP8 MSTORE PUSH1 0x5 DUP5 MSTORE DUP3 DUP8 KECCAK256 CALLER DUP9 MSTORE DUP5 MSTORE DUP3 DUP8 KECCAK256 DUP1 SLOAD PUSH1 0xFF NOT AND PUSH1 0x1 OR SWAP1 SSTORE DUP6 DUP8 MSTORE DUP2 DUP5 MSTORE DUP3 DUP8 KECCAK256 DUP1 SLOAD SWAP1 PUSH1 0x1 PUSH1 0x40 SHL DUP3 LT ISZERO PUSH2 0x11FC JUMPI SWAP1 PUSH2 0x115B SWAP2 PUSH1 0x1 DUP3 ADD DUP2 SSTORE PUSH2 0x1269 JUMP JUMPDEST DUP2 SLOAD PUSH1 0x1 PUSH1 0x1 PUSH1 0xA0 SHL SUB PUSH1 0x3 SWAP3 SWAP1 SWAP3 SHL SWAP2 DUP3 SHL NOT AND CALLER SWAP2 DUP3 SWAP1 SHL OR SWAP1 SWAP2 SSTORE DUP7 PUSH32 0x38A7FF6902E6A8B42654AF26677E2F0CA190D5D044B0D1BB76D8B597CF4665D2 DUP10 DUP1 LOG3 DUP6 DUP8 MSTORE DUP2 DUP5 MSTORE DUP3 DUP8 KECCAK256 SWAP2 DUP3 SLOAD SWAP2 ADD SLOAD GT ISZERO PUSH2 0x11B7 JUMPI DUP6 DUP1 RETURN JUMPDEST DUP4 SLOAD PUSH1 0xFF PUSH1 0xA0 SHL NOT AND PUSH1 0x1 PUSH1 0xA0 SHL OR SWAP1 SWAP4 SSTORE SWAP2 SLOAD SWAP2 MLOAD SWAP2 DUP3 MSTORE PUSH32 0x9D5819C7FFD7580F18EC65632CF8672DA6A217EE456AF540FFF3B0EA800C6305 SWAP2 LOG2 CODESIZE DUP1 DUP1 DUP1 DUP1 DUP6 DUP1 RETURN JUMPDEST PUSH4 0x4E487B71 PUSH1 0xE0 SHL DUP10 MSTORE PUSH1 0x41 DUP5 MSTORE PUSH1 0x24 DUP10 REVERT JUMPDEST POP SWAP1 MLOAD PUSH4 0x6C8C8D21 PUSH1 0xE0 SHL DUP2 MSTORE REVERT JUMPDEST POP SWAP1 MLOAD PUSH4 0xEA075BF PUSH1 0xE2 SHL DUP2 MSTORE REVERT JUMPDEST PUSH4 0xD76EBD0F PUSH1 0xE0 SHL DUP2 MSTORE SWAP1 POP REVERT JUMPDEST PUSH4 0x4E487B71 PUSH1 0xE0 SHL DUP10 MSTORE PUSH1 0x21 DUP5 MSTORE PUSH1 0x24 DUP10 REVERT JUMPDEST PUSH1 0x40 SWAP1 PUSH1 0x3 NOT ADD SLT PUSH2 0x1264 JUMPI PUSH1 0x4 CALLDATALOAD SWAP1 PUSH1 0x24 CALLDATALOAD SWAP1 JUMP JUMPDEST PUSH1 0x0 DUP1 REVERT JUMPDEST DUP1 SLOAD DUP3 LT ISZERO PUSH2 0x1281 JUMPI PUSH1 0x0 MSTORE PUSH1 0x20 PUSH1 0x0 KECCAK256 ADD SWAP1 PUSH1 0x0 SWAP1 JUMP JUMPDEST PUSH4 0x4E487B71 PUSH1 0xE0 SHL PUSH1 0x0 MSTORE PUSH1 0x32 PUSH1 0x4 MSTORE PUSH1 0x24 PUSH1 0x0 REVERT JUMPDEST SWAP1 PUSH1 0x5 DUP3 LT ISZERO PUSH2 0x12A4 JUMPI MSTORE JUMP JUMPDEST PUSH4 0x4E487B71 PUSH1 0xE0 SHL PUSH1 0x0 MSTORE PUSH1 0x21 PUSH1 0x4 MSTORE PUSH1 0x24 PUSH1 0x0 REVERT JUMPDEST DUP1 SLOAD DUP3 LT ISZERO PUSH2 0x1281 JUMPI PUSH1 0x0 MSTORE PUSH1 0x5 PUSH1 0x20 PUSH1 0x0 KECCAK256 SWAP2 MUL ADD SWAP1 PUSH1 0x0 SWAP1 JUMP JUMPDEST PUSH1 0x0 SLOAD PUSH1 0x1 PUSH1 0x1 PUSH1 0xA0 SHL SUB AND CALLER SUB PUSH2 0x12EA JUMPI JUMP JUMPDEST PUSH1 0x40 MLOAD PUSH4 0x118CDAA7 PUSH1 0xE0 SHL DUP2 MSTORE CALLER PUSH1 0x4 DUP3 ADD MSTORE PUSH1 0x24 SWAP1 REVERT JUMPDEST DUP2 DUP2 MUL SWAP3 SWAP2 DUP2 ISZERO SWAP2 DUP5 DIV EQ OR ISZERO PUSH2 0x1315 JUMPI JUMP JUMPDEST PUSH4 0x4E487B71 PUSH1 0xE0 SHL PUSH1 0x0 MSTORE PUSH1 0x11 PUSH1 0x4 MSTORE PUSH1 0x24 PUSH1 0x0 REVERT JUMPDEST PUSH1 0x0 NOT DUP2 EQ PUSH2 0x1315 JUMPI PUSH1 0x1 ADD SWAP1 JUMP JUMPDEST PUSH1 0xA0 DUP2 ADD SWAP1 DUP2 LT PUSH8 0xFFFFFFFFFFFFFFFF DUP3 GT OR PUSH2 0x1356 JUMPI PUSH1 0x40 MSTORE JUMP JUMPDEST PUSH4 0x4E487B71 PUSH1 0xE0 SHL PUSH1 0x0 MSTORE PUSH1 0x41 PUSH1 0x4 MSTORE PUSH1 0x24 PUSH1 0x0 REVERT JUMPDEST PUSH2 0x140 DUP2 ADD SWAP1 DUP2 LT PUSH8 0xFFFFFFFFFFFFFFFF DUP3 GT OR PUSH2 0x1356 JUMPI PUSH1 0x40 MSTORE JUMP JUMPDEST SWAP1 PUSH1 0x1F DUP1 NOT SWAP2 ADD AND DUP2 ADD SWAP1 DUP2 LT PUSH8 0xFFFFFFFFFFFFFFFF DUP3 GT OR PUSH2 0x1356 JUMPI PUSH1 0x40 MSTORE JUMP JUMPDEST SWAP1 PUSH1 0x0 PUSH1 0x20 SWAP2 DUP3 DUP2 MLOAD SWAP2 ADD DUP3 DUP6 GAS CALL ISZERO PUSH2 0x1407 JUMPI PUSH1 0x0 MLOAD RETURNDATASIZE PUSH2 0x13FE JUMPI POP PUSH1 0x1 PUSH1 0x1 PUSH1 0xA0 SHL SUB DUP2 AND EXTCODESIZE ISZERO JUMPDEST PUSH2 0x13DC JUMPI POP JUMP JUMPDEST PUSH1 0x40 MLOAD PUSH4 0x5274AFE7 PUSH1 0xE0 SHL DUP2 MSTORE PUSH1 0x1 PUSH1 0x1 PUSH1 0xA0 SHL SUB SWAP1 SWAP2 AND PUSH1 0x4 DUP3 ADD MSTORE PUSH1 0x24 SWAP1 REVERT JUMPDEST PUSH1 0x1 EQ ISZERO PUSH2 0x13D5 JUMP JUMPDEST PUSH1 0x40 MLOAD RETURNDATASIZE PUSH1 0x0 DUP3 RETURNDATACOPY RETURNDATASIZE SWAP1 REVERT JUMPDEST PUSH1 0x2 PUSH1 0x1 SLOAD EQ PUSH2 0x1424 JUMPI PUSH1 0x2 PUSH1 0x1 SSTORE JUMP JUMPDEST PUSH1 0x40 MLOAD PUSH4 0x3EE5AEB5 PUSH1 0xE0 SHL DUP2 MSTORE PUSH1 0x4 SWAP1 REVERT JUMPDEST PUSH1 0x40 MLOAD PUSH4 0xA9059CBB PUSH1 0xE0 SHL PUSH1 0x20 DUP3 ADD MSTORE PUSH1 0x1 PUSH1 0x1 PUSH1 0xA0 SHL SUB SWAP1 SWAP3 AND PUSH1 0x24 DUP4 ADD MSTORE PUSH1 0x44 DUP1 DUP4 ADD SWAP4 SWAP1 SWAP4 MSTORE SWAP2 DUP2 MSTORE PUSH1 0x80 DUP2 ADD SWAP2 PUSH8 0xFFFFFFFFFFFFFFFF DUP4 GT DUP3 DUP5 LT OR PUSH2 0x1356 JUMPI PUSH2 0x1486 SWAP3 PUSH1 0x40 MSTORE PUSH2 0x13AB JUMP JUMPDEST JUMP INVALID LOG2 PUSH5 0x6970667358 0x22 SLT KECCAK256 SAR SWAP15 DUP14 0xD5 0xFC GASPRICE 0x21 ISZERO 0xEE 0xFB 0xBC PC CALLCODE PUSH27 0xFC7B697890CA730D4325424C2BBA8CDF93CD64736F6C6343000814 STOP CALLER "},"methodIdentifiers":{"MAX_PARTICIPANTS()":"f3baf070","cancelJob(uint256)":"1dffa3dc","createJob(bytes32,bytes32,uint256,uint256,uint256)":"828ad232","getActiveJobsCount()":"5b7c278e","getJob(uint256)":"bf22c457","getJobTrainers(uint256)":"c79a35e8","getRoundSubmissions(uint256,uint256)":"42f4e58e","isTrainer(uint256,address)":"e8471056","jobTrainers(uint256,uint256)":"0479376f","jobs(uint256)":"180aedf3","mdtToken()":"f70b5c06","nextJobId()":"b0c2aa5e","owner()":"8da5cb5b","registerAsTrainer(uint256)":"044abddc","renounceOwnership()":"715018a6","roundCheckpoints(uint256,uint256)":"04d555b8","roundSubmissions(uint256,uint256,uint256)":"a0b7171c","submitGradient(uint256,bytes32,bytes32)":"0950c0d7","transferOwnership(address)":"f2fde38b"}}}}}