{
  "_format": "hh-sol-artifact-1",
  "contractName": "ExampleGame",
  "sourceName": "src/templates/ExampleGame.sol",
  "abi": [
    {
      "inputs": [
        {
          "internalType": "address",
          "name": "_aiOracle",
          "type": "address"
        },
        {
          "internalType": "bytes32",
          "name": "_modelHash",
          "type": "bytes32"
        }
      ],
      "stateMutability": "nonpayable",
      "type": "constructor"
    },
    {
      "anonymous": false,
      "inputs": [
        {
          "indexed": true,
          "internalType": "address",
          "name": "player",
          "type": "address"
        },
        {
          "indexed": false,
          "internalType": "uint256",
          "name": "score",
          "type": "uint256"
        },
        {
          "indexed": true,
          "internalType": "bytes32",
          "name": "requestId",
          "type": "bytes32"
        }
      ],
      "name": "GameCompleted",
      "type": "event"
    },
    {
      "anonymous": false,
      "inputs": [
        {
          "indexed": true,
          "internalType": "address",
          "name": "player",
          "type": "address"
        },
        {
          "indexed": true,
          "internalType": "bytes32",
          "name": "requestId",
          "type": "bytes32"
        }
      ],
      "name": "GameFailed",
      "type": "event"
    },
    {
      "anonymous": false,
      "inputs": [
        {
          "indexed": true,
          "internalType": "address",
          "name": "player",
          "type": "address"
        },
        {
          "indexed": true,
          "internalType": "bytes32",
          "name": "requestId",
          "type": "bytes32"
        }
      ],
      "name": "GameRequested",
      "type": "event"
    },
    {
      "inputs": [],
      "name": "aiOracle",
      "outputs": [
        {
          "internalType": "contract AIOracle",
          "name": "",
          "type": "address"
        }
      ],
      "stateMutability": "view",
      "type": "function"
    },
    {
      "inputs": [
        {
          "internalType": "bytes32",
          "name": "requestId",
          "type": "bytes32"
        }
      ],
      "name": "claimResult",
      "outputs": [],
      "stateMutability": "nonpayable",
      "type": "function"
    },
    {
      "inputs": [],
      "name": "gameModelHash",
      "outputs": [
        {
          "internalType": "bytes32",
          "name": "",
          "type": "bytes32"
        }
      ],
      "stateMutability": "view",
      "type": "function"
    },
    {
      "inputs": [
        {
          "internalType": "bytes32",
          "name": "requestId",
          "type": "bytes32"
        }
      ],
      "name": "getGameStatus",
      "outputs": [
        {
          "internalType": "address",
          "name": "player",
          "type": "address"
        },
        {
          "internalType": "bool",
          "name": "completed",
          "type": "bool"
        }
      ],
      "stateMutability": "view",
      "type": "function"
    },
    {
      "inputs": [
        {
          "internalType": "address",
          "name": "player",
          "type": "address"
        }
      ],
      "name": "getScore",
      "outputs": [
        {
          "internalType": "uint256",
          "name": "",
          "type": "uint256"
        }
      ],
      "stateMutability": "view",
      "type": "function"
    },
    {
      "inputs": [],
      "name": "owner",
      "outputs": [
        {
          "internalType": "address",
          "name": "",
          "type": "address"
        }
      ],
      "stateMutability": "view",
      "type": "function"
    },
    {
      "inputs": [
        {
          "internalType": "bytes32",
          "name": "",
          "type": "bytes32"
        }
      ],
      "name": "pendingGames",
      "outputs": [
        {
          "internalType": "address",
          "name": "",
          "type": "address"
        }
      ],
      "stateMutability": "view",
      "type": "function"
    },
    {
      "inputs": [
        {
          "internalType": "bytes",
          "name": "playerMove",
          "type": "bytes"
        }
      ],
      "name": "play",
      "outputs": [
        {
          "internalType": "bytes32",
          "name": "",
          "type": "bytes32"
        }
      ],
      "stateMutability": "payable",
      "type": "function"
    },
    {
      "inputs": [
        {
          "internalType": "address",
          "name": "",
          "type": "address"
        }
      ],
      "name": "scores",
      "outputs": [
        {
          "internalType": "uint256",
          "name": "",
          "type": "uint256"
        }
      ],
      "stateMutability": "view",
      "type": "function"
    },
    {
      "inputs": [],
      "name": "totalGames",
      "outputs": [
        {
          "internalType": "uint256",
          "name": "",
          "type": "uint256"
        }
      ],
      "stateMutability": "view",
      "type": "function"
    },
    {
      "inputs": [
        {
          "internalType": "bytes32",
          "name": "newModelHash",
          "type": "bytes32"
        }
      ],
      "name": "updateModel",
      "outputs": [],
      "stateMutability": "nonpayable",
      "type": "function"
    }
  ],
  "bytecode": "0x6080346100cf57601f61089638819003918201601f19168301916001600160401b038311848410176100d45780849260409485528339810103126100cf5780516001600160a01b03811691908290036100cf5760200151811561008a5760018060a01b031991826000541617600055600155339060055416176005556040516107ab90816100eb8239f35b60405162461bcd60e51b815260206004820152601660248201527f496e76616c6964206f7261636c652061646472657373000000000000000000006044820152606490fd5b600080fd5b634e487b7160e01b600052604160045260246000fdfe6080604081815260048036101561001557600080fd5b600092833560e01c908163146c638d146105e857508063226e5227146103f4578063242cd2ca146103975780632c4e591b1461037a57806331b221cd1461035257806376dd110f146103195780638da5cb5b146102f0578063a11ae76b146102be578063c386cfe21461029f578063cf0d56f4146100d85763d47875d01461009c57600080fd5b346100d45760203660031901126100d457356001600160a01b038116908190036100d457828291602094526002845220549051908152f35b8280fd5b5091903461029b57602090816003193601126100d4578335808452600383528184205490926001600160a01b039182169290918315610266573384036102335785602491815416835192838092632b7531e160e21b8252898c8301525afa80156102295786918791610205575b50156101cd5761015490610751565b90838652600283528086208054908382018092116101ba577fa8746280378f2628365c975fe01ab2d4d260003d0c3a5ab9433f4e787ce28067959697985055858752600383528087206bffffffffffffffffffffffff60a01b815416905551908152a380f35b634e487b7160e01b885260118952602488fd5b815162461bcd60e51b8152808801849052601260248201527111d85b59481b9bdd0818dbdb5c1b195d195960721b6044820152606490fd5b905061022391503d8088833e61021b8183610674565b8101906106cf565b38610145565b82513d88823e3d90fd5b815162461bcd60e51b8152808801849052600d60248201526c4e6f7420796f75722067616d6560981b6044820152606490fd5b815162461bcd60e51b8152808801849052600f60248201526e155b9adb9bdddb881c995c5d595cdd608a1b6044820152606490fd5b5080fd5b50503461029b578160031936011261029b576020906001549051908152f35b50346100d45760203660031901126100d45735825260036020908152918190205490516001600160a01b039091168152f35b50503461029b578160031936011261029b5760055490516001600160a01b039091168152602090f35b50346100d45760203660031901126100d457356001600160a01b038116908190036100d457828291602094526002845220549051908152f35b50503461029b578160031936011261029b57905490516001600160a01b039091168152602090f35b50346100d457826003193601126100d45760209250549051908152f35b5090346100d45760203660031901126100d4576005546001600160a01b031633036103c457503560015580f35b906020606492519162461bcd60e51b8352820152600a60248201526927b7363c9037bbb732b960b11b6044820152fd5b508290602092836003193601126100d45781359167ffffffffffffffff8084116105e457366023850112156105e457838201359081116105e45736602482860101116105e45766038d7ea4c6800034106105a9576104e1601f879261049e60c0875183819460248984019c8d33905260808d8601528260a086015201848401378b8382840101524360608301524260808301528519958691011681010360a0810184520182610674565b608460018060a01b038954169260015490601f89519a8b9788968795630c4544a760e21b87528c87015260606024870152518092816064880152878701906106ac565b8c60448501520116810103019134905af192831561059f57849361056c575b508284526003855281842080546001600160a01b03191633179055805460001981146105595760010190555191819033907f341c593e0cefc3a29826c9a8e347a3a42699e66aa7e010bc99d34e97b479f4819080a38152f35b634e487b7160e01b855260118252602485fd5b9092508481813d8311610598575b6105848183610674565b8101031261059457519185610500565b8380fd5b503d61057a565b82513d86823e3d90fd5b5084606492519162461bcd60e51b83528201526016602482015275135a5b9a5b5d5b481cdd185ad9481c995c5d5a5c995960521b6044820152fd5b8480fd5b8491503461029b57602036600319011261029b578181602481863596878552600360205260018060a01b0397888a872054169886541691632b7531e160e21b84528301525afa91821561066957809261064c575b5050825191825215156020820152f35b61066092503d8091833e61021b8183610674565b9050838061063c565b8451903d90823e3d90fd5b90601f8019910116810190811067ffffffffffffffff82111761069657604052565b634e487b7160e01b600052604160045260246000fd5b60005b8381106106bf5750506000910152565b81810151838201526020016106af565b919060408382031261074c5782519067ffffffffffffffff9182811161074c57840181601f8201121561074c578051928311610696576040519161071d601f8501601f191660200184610674565b8383526020848301011161074c5760209261073d918480850191016106ac565b920151801515810361074c5790565b600080fd5b80516020811061076e57816020918101031261074c576020015190565b5050600a9056fea2646970667358221220b5654276338164ad4576ec307f620dc2c8afef87ae6df3adaf03f384386f087464736f6c63430008140033",
  "linkReferences": {},
  "deployedLinkReferences": {}
}