{
  "_format": "hh-sol-artifact-1",
  "contractName": "ExampleGame",
  "sourceName": "src/templates/ExampleGame.sol",
  "abi": [
    {
      "inputs": [
        {
          "internalType": "address",
          "name": "_aiOracle",
          "type": "address"
        },
        {
          "internalType": "bytes32",
          "name": "_modelHash",
          "type": "bytes32"
        }
      ],
      "stateMutability": "nonpayable",
      "type": "constructor"
    },
    {
      "anonymous": false,
      "inputs": [
        {
          "indexed": true,
          "internalType": "address",
          "name": "player",
          "type": "address"
        },
        {
          "indexed": false,
          "internalType": "uint256",
          "name": "score",
          "type": "uint256"
        },
        {
          "indexed": true,
          "internalType": "bytes32",
          "name": "requestId",
          "type": "bytes32"
        }
      ],
      "name": "GameCompleted",
      "type": "event"
    },
    {
      "anonymous": false,
      "inputs": [
        {
          "indexed": true,
          "internalType": "address",
          "name": "player",
          "type": "address"
        },
        {
          "indexed": true,
          "internalType": "bytes32",
          "name": "requestId",
          "type": "bytes32"
        }
      ],
      "name": "GameFailed",
      "type": "event"
    },
    {
      "anonymous": false,
      "inputs": [
        {
          "indexed": true,
          "internalType": "address",
          "name": "player",
          "type": "address"
        },
        {
          "indexed": true,
          "internalType": "bytes32",
          "name": "requestId",
          "type": "bytes32"
        }
      ],
      "name": "GameRequested",
      "type": "event"
    },
    {
      "inputs": [],
      "name": "aiOracle",
      "outputs": [
        {
          "internalType": "contract AIOracle",
          "name": "",
          "type": "address"
        }
      ],
      "stateMutability": "view",
      "type": "function"
    },
    {
      "inputs": [
        {
          "internalType": "bytes32",
          "name": "requestId",
          "type": "bytes32"
        }
      ],
      "name": "claimResult",
      "outputs": [],
      "stateMutability": "nonpayable",
      "type": "function"
    },
    {
      "inputs": [],
      "name": "gameModelHash",
      "outputs": [
        {
          "internalType": "bytes32",
          "name": "",
          "type": "bytes32"
        }
      ],
      "stateMutability": "view",
      "type": "function"
    },
    {
      "inputs": [
        {
          "internalType": "bytes32",
          "name": "requestId",
          "type": "bytes32"
        }
      ],
      "name": "getGameStatus",
      "outputs": [
        {
          "internalType": "address",
          "name": "player",
          "type": "address"
        },
        {
          "internalType": "bool",
          "name": "completed",
          "type": "bool"
        }
      ],
      "stateMutability": "view",
      "type": "function"
    },
    {
      "inputs": [
        {
          "internalType": "address",
          "name": "player",
          "type": "address"
        }
      ],
      "name": "getScore",
      "outputs": [
        {
          "internalType": "uint256",
          "name": "",
          "type": "uint256"
        }
      ],
      "stateMutability": "view",
      "type": "function"
    },
    {
      "inputs": [],
      "name": "owner",
      "outputs": [
        {
          "internalType": "address",
          "name": "",
          "type": "address"
        }
      ],
      "stateMutability": "view",
      "type": "function"
    },
    {
      "inputs": [
        {
          "internalType": "bytes32",
          "name": "",
          "type": "bytes32"
        }
      ],
      "name": "pendingGames",
      "outputs": [
        {
          "internalType": "address",
          "name": "",
          "type": "address"
        }
      ],
      "stateMutability": "view",
      "type": "function"
    },
    {
      "inputs": [
        {
          "internalType": "bytes",
          "name": "playerMove",
          "type": "bytes"
        }
      ],
      "name": "play",
      "outputs": [
        {
          "internalType": "bytes32",
          "name": "",
          "type": "bytes32"
        }
      ],
      "stateMutability": "payable",
      "type": "function"
    },
    {
      "inputs": [
        {
          "internalType": "address",
          "name": "",
          "type": "address"
        }
      ],
      "name": "scores",
      "outputs": [
        {
          "internalType": "uint256",
          "name": "",
          "type": "uint256"
        }
      ],
      "stateMutability": "view",
      "type": "function"
    },
    {
      "inputs": [],
      "name": "totalGames",
      "outputs": [
        {
          "internalType": "uint256",
          "name": "",
          "type": "uint256"
        }
      ],
      "stateMutability": "view",
      "type": "function"
    },
    {
      "inputs": [
        {
          "internalType": "bytes32",
          "name": "newModelHash",
          "type": "bytes32"
        }
      ],
      "name": "updateModel",
      "outputs": [],
      "stateMutability": "nonpayable",
      "type": "function"
    },
    {
      "inputs": [],
      "name": "withdraw",
      "outputs": [],
      "stateMutability": "nonpayable",
      "type": "function"
    },
    {
      "stateMutability": "payable",
      "type": "receive"
    }
  ],
  "bytecode": "0x6080346100cf57601f61099938819003918201601f19168301916001600160401b038311848410176100d45780849260409485528339810103126100cf5780516001600160a01b03811691908290036100cf5760200151811561008a5760018060a01b031991826000541617600055600155339060055416176005556040516108ae90816100eb8239f35b60405162461bcd60e51b815260206004820152601660248201527f496e76616c6964206f7261636c652061646472657373000000000000000000006044820152606490fd5b600080fd5b634e487b7160e01b600052604160045260246000fdfe60806040818152600480361015610021575b505050361561001f57600080fd5b005b600092833560e01c908163146c638d1461069f57508063226e5227146104ab578063242cd2ca1461047c5780632c4e591b1461045f57806331b221cd146104375780633ccfd60b1461036457806376dd110f1461032b5780638da5cb5b14610302578063a11ae76b146102d0578063c386cfe2146102b1578063cf0d56f4146100ea5763d47875d00361001157346100e65760203660031901126100e657356001600160a01b038116908190036100e657828291602094526002845220549051908152f35b8280fd5b509190346102ad57602090816003193601126100e6578335808452600383528184205490926001600160a01b039182169290918315610278573384036102455785602491815416835192838092632b7531e160e21b8252898c8301525afa801561023b5786918791610217575b50156101df576101669061081b565b90838652600283528086208054908382018092116101cc577fa8746280378f2628365c975fe01ab2d4d260003d0c3a5ab9433f4e787ce28067959697985055858752600383528087206bffffffffffffffffffffffff60a01b815416905551908152a380f35b634e487b7160e01b885260118952602488fd5b815162461bcd60e51b8152808801849052601260248201527111d85b59481b9bdd0818dbdb5c1b195d195960721b6044820152606490fd5b905061023591503d8088833e61022d818361072b565b8101906107a2565b38610157565b82513d88823e3d90fd5b815162461bcd60e51b8152808801849052600d60248201526c4e6f7420796f75722067616d6560981b6044820152606490fd5b815162461bcd60e51b8152808801849052600f60248201526e155b9adb9bdddb881c995c5d595cdd608a1b6044820152606490fd5b5080fd5b5050346102ad57816003193601126102ad576020906001549051908152f35b50346100e65760203660031901126100e65735825260036020908152918190205490516001600160a01b039091168152f35b5050346102ad57816003193601126102ad5760055490516001600160a01b039091168152602090f35b50346100e65760203660031901126100e657356001600160a01b038116908190036100e657828291602094526002845220549051908152f35b5090346100e657826003193601126100e6576005546001600160a01b031661038d33821461083f565b47908115610407578480809381935af13d15610402573d6103ad81610786565b906103ba8451928361072b565b81528460203d92013e5b156103cd578280f35b906020606492519162461bcd60e51b8352820152600f60248201526e151c985b9cd9995c8819985a5b1959608a1b6044820152fd5b6103c4565b825162461bcd60e51b8152602081860152600a6024820152694e6f2062616c616e636560b01b6044820152606490fd5b5050346102ad57816003193601126102ad57905490516001600160a01b039091168152602090f35b50346100e657826003193601126100e65760209250549051908152f35b8382346102ad5760203660031901126102ad576104a460018060a01b0360055416331461083f565b3560015580f35b508290602092836003193601126100e65781359167ffffffffffffffff80841161069b573660238501121561069b578382013590811161069b57366024828601011161069b5766038d7ea4c68000341061066057610598601f879261055560c0875183819460248984019c8d33905260808d8601528260a086015201848401378b8382840101524360608301524260808301528519958691011681010360a081018452018261072b565b608460018060a01b038954169260015490601f89519a8b9788968795630c4544a760e21b87528c8701526060602487015251809281606488015287870190610763565b8c60448501520116810103019134905af1928315610656578493610623575b508284526003855281842080546001600160a01b03191633179055805460001981146106105760010190555191819033907f341c593e0cefc3a29826c9a8e347a3a42699e66aa7e010bc99d34e97b479f4819080a38152f35b634e487b7160e01b855260118252602485fd5b9092508481813d831161064f575b61063b818361072b565b8101031261064b575191856105b7565b8380fd5b503d610631565b82513d86823e3d90fd5b5084606492519162461bcd60e51b83528201526016602482015275135a5b9a5b5d5b481cdd185ad9481c995c5d5a5c995960521b6044820152fd5b8480fd5b849150346102ad5760203660031901126102ad578181602481863596878552600360205260018060a01b0397888a872054169886541691632b7531e160e21b84528301525afa918215610720578092610703575b5050825191825215156020820152f35b61071792503d8091833e61022d818361072b565b905083806106f3565b8451903d90823e3d90fd5b90601f8019910116810190811067ffffffffffffffff82111761074d57604052565b634e487b7160e01b600052604160045260246000fd5b60005b8381106107765750506000910152565b8181015183820152602001610766565b67ffffffffffffffff811161074d57601f01601f191660200190565b919060408382031261081657825167ffffffffffffffff81116108165783019080601f83011215610816578151916107d983610786565b916107e7604051938461072b565b838352602084830101116108165760209261080791848085019101610763565b92015180151581036108165790565b600080fd5b805160208110610838578160209181010312610816576020015190565b5050600a90565b1561084657565b60405162461bcd60e51b815260206004820152600a60248201526927b7363c9037bbb732b960b11b6044820152606490fdfea2646970667358221220fb88e27ffded399d1a54b6b6d70a93ca36b79903d8747e739726ce06d1e23e1464736f6c63430008140033",
  "linkReferences": {},
  "deployedLinkReferences": {}
}