{
  "_format": "hh-sol-artifact-1",
  "contractName": "ExampleGame",
  "sourceName": "src/templates/ExampleGame.sol",
  "abi": [
    {
      "inputs": [
        {
          "internalType": "address",
          "name": "_aiOracle",
          "type": "address"
        },
        {
          "internalType": "bytes32",
          "name": "_modelHash",
          "type": "bytes32"
        }
      ],
      "stateMutability": "nonpayable",
      "type": "constructor"
    },
    {
      "anonymous": false,
      "inputs": [
        {
          "indexed": true,
          "internalType": "address",
          "name": "player",
          "type": "address"
        },
        {
          "indexed": false,
          "internalType": "uint256",
          "name": "score",
          "type": "uint256"
        },
        {
          "indexed": true,
          "internalType": "bytes32",
          "name": "requestId",
          "type": "bytes32"
        }
      ],
      "name": "GameCompleted",
      "type": "event"
    },
    {
      "anonymous": false,
      "inputs": [
        {
          "indexed": true,
          "internalType": "address",
          "name": "player",
          "type": "address"
        },
        {
          "indexed": true,
          "internalType": "bytes32",
          "name": "requestId",
          "type": "bytes32"
        }
      ],
      "name": "GameFailed",
      "type": "event"
    },
    {
      "anonymous": false,
      "inputs": [
        {
          "indexed": true,
          "internalType": "address",
          "name": "player",
          "type": "address"
        },
        {
          "indexed": true,
          "internalType": "bytes32",
          "name": "requestId",
          "type": "bytes32"
        }
      ],
      "name": "GameRequested",
      "type": "event"
    },
    {
      "inputs": [],
      "name": "aiOracle",
      "outputs": [
        {
          "internalType": "contract AIOracle",
          "name": "",
          "type": "address"
        }
      ],
      "stateMutability": "view",
      "type": "function"
    },
    {
      "inputs": [
        {
          "internalType": "bytes32",
          "name": "requestId",
          "type": "bytes32"
        }
      ],
      "name": "claimResult",
      "outputs": [],
      "stateMutability": "nonpayable",
      "type": "function"
    },
    {
      "inputs": [],
      "name": "gameModelHash",
      "outputs": [
        {
          "internalType": "bytes32",
          "name": "",
          "type": "bytes32"
        }
      ],
      "stateMutability": "view",
      "type": "function"
    },
    {
      "inputs": [
        {
          "internalType": "bytes32",
          "name": "requestId",
          "type": "bytes32"
        }
      ],
      "name": "getGameStatus",
      "outputs": [
        {
          "internalType": "address",
          "name": "player",
          "type": "address"
        },
        {
          "internalType": "bool",
          "name": "completed",
          "type": "bool"
        }
      ],
      "stateMutability": "view",
      "type": "function"
    },
    {
      "inputs": [
        {
          "internalType": "address",
          "name": "player",
          "type": "address"
        }
      ],
      "name": "getScore",
      "outputs": [
        {
          "internalType": "uint256",
          "name": "",
          "type": "uint256"
        }
      ],
      "stateMutability": "view",
      "type": "function"
    },
    {
      "inputs": [
        {
          "internalType": "bytes32",
          "name": "",
          "type": "bytes32"
        }
      ],
      "name": "pendingGames",
      "outputs": [
        {
          "internalType": "address",
          "name": "",
          "type": "address"
        }
      ],
      "stateMutability": "view",
      "type": "function"
    },
    {
      "inputs": [
        {
          "internalType": "bytes",
          "name": "playerMove",
          "type": "bytes"
        }
      ],
      "name": "play",
      "outputs": [
        {
          "internalType": "bytes32",
          "name": "",
          "type": "bytes32"
        }
      ],
      "stateMutability": "payable",
      "type": "function"
    },
    {
      "inputs": [
        {
          "internalType": "address",
          "name": "",
          "type": "address"
        }
      ],
      "name": "scores",
      "outputs": [
        {
          "internalType": "uint256",
          "name": "",
          "type": "uint256"
        }
      ],
      "stateMutability": "view",
      "type": "function"
    },
    {
      "inputs": [],
      "name": "totalGames",
      "outputs": [
        {
          "internalType": "uint256",
          "name": "",
          "type": "uint256"
        }
      ],
      "stateMutability": "view",
      "type": "function"
    },
    {
      "inputs": [
        {
          "internalType": "bytes32",
          "name": "newModelHash",
          "type": "bytes32"
        }
      ],
      "name": "updateModel",
      "outputs": [],
      "stateMutability": "nonpayable",
      "type": "function"
    }
  ],
  "bytecode": "0x60803461007c57601f6107cc38819003918201601f19168301916001600160401b0383118484101761008157808492604094855283398101031261007c5780516001600160a01b038116919082900361007c5760200151600080546001600160a01b03191690921790915560015560405161073490816100988239f35b600080fd5b634e487b7160e01b600052604160045260246000fdfe6080604081815260048036101561001557600080fd5b600092833560e01c908163146c638d1461057157508063226e52271461037d578063242cd2ca146103635780632c4e591b1461034657806331b221cd1461031e57806376dd110f146102e5578063a11ae76b146102b3578063c386cfe214610294578063cf0d56f4146100cd5763d47875d01461009157600080fd5b346100c95760203660031901126100c957356001600160a01b038116908190036100c957828291602094526002845220549051908152f35b8280fd5b5091903461029057602090816003193601126100c9578335808452600383528184205490926001600160a01b03918216929091831561025b573384036102285785602491815416835192838092632b7531e160e21b8252898c8301525afa801561021e57869187916101fa575b50156101c257610149906106da565b90838652600283528086208054908382018092116101af577fa8746280378f2628365c975fe01ab2d4d260003d0c3a5ab9433f4e787ce28067959697985055858752600383528087206bffffffffffffffffffffffff60a01b815416905551908152a380f35b634e487b7160e01b885260118952602488fd5b815162461bcd60e51b8152808801849052601260248201527111d85b59481b9bdd0818dbdb5c1b195d195960721b6044820152606490fd5b905061021891503d8088833e61021081836105fd565b810190610658565b3861013a565b82513d88823e3d90fd5b815162461bcd60e51b8152808801849052600d60248201526c4e6f7420796f75722067616d6560981b6044820152606490fd5b815162461bcd60e51b8152808801849052600f60248201526e155b9adb9bdddb881c995c5d595cdd608a1b6044820152606490fd5b5080fd5b5050346102905781600319360112610290576020906001549051908152f35b50346100c95760203660031901126100c95735825260036020908152918190205490516001600160a01b039091168152f35b50346100c95760203660031901126100c957356001600160a01b038116908190036100c957828291602094526002845220549051908152f35b505034610290578160031936011261029057905490516001600160a01b039091168152602090f35b50346100c957826003193601126100c95760209250549051908152f35b838234610290576020366003190112610290573560015580f35b508290602092836003193601126100c95781359167ffffffffffffffff80841161056d573660238501121561056d578382013590811161056d57366024828601011161056d5766038d7ea4c6800034106105325761046a601f879261042760c0875183819460248984019c8d33905260808d8601528260a086015201848401378b8382840101524360608301524260808301528519958691011681010360a08101845201826105fd565b608460018060a01b038954169260015490601f89519a8b9788968795630c4544a760e21b87528c8701526060602487015251809281606488015287870190610635565b8c60448501520116810103019134905af19283156105285784936104f5575b508284526003855281842080546001600160a01b03191633179055805460001981146104e25760010190555191819033907f341c593e0cefc3a29826c9a8e347a3a42699e66aa7e010bc99d34e97b479f4819080a38152f35b634e487b7160e01b855260118252602485fd5b9092508481813d8311610521575b61050d81836105fd565b8101031261051d57519185610489565b8380fd5b503d610503565b82513d86823e3d90fd5b5084606492519162461bcd60e51b83528201526016602482015275135a5b9a5b5d5b481cdd185ad9481c995c5d5a5c995960521b6044820152fd5b8480fd5b84915034610290576020366003190112610290578181602481863596878552600360205260018060a01b0397888a872054169886541691632b7531e160e21b84528301525afa9182156105f25780926105d5575b5050825191825215156020820152f35b6105e992503d8091833e61021081836105fd565b905083806105c5565b8451903d90823e3d90fd5b90601f8019910116810190811067ffffffffffffffff82111761061f57604052565b634e487b7160e01b600052604160045260246000fd5b60005b8381106106485750506000910152565b8181015183820152602001610638565b91906040838203126106d55782519067ffffffffffffffff918281116106d557840181601f820112156106d557805192831161061f57604051916106a6601f8501601f1916602001846105fd565b838352602084830101116106d5576020926106c691848085019101610635565b92015180151581036106d55790565b600080fd5b8051602081106106f75781602091810103126106d5576020015190565b5050600a9056fea2646970667358221220ea48339606561add2d7aadc7ac8b58168f5fabcc5d77d4a5e08dab487cce3c3464736f6c63430008140033",
  "linkReferences": {},
  "deployedLinkReferences": {}
}