{
  "_format": "hh-sol-artifact-1",
  "contractName": "MDTVesting",
  "sourceName": "src/MDTVesting.sol",
  "abi": [
    {
      "inputs": [
        {
          "internalType": "address",
          "name": "_token",
          "type": "address"
        }
      ],
      "stateMutability": "nonpayable",
      "type": "constructor"
    },
    {
      "inputs": [
        {
          "internalType": "address",
          "name": "owner",
          "type": "address"
        }
      ],
      "name": "OwnableInvalidOwner",
      "type": "error"
    },
    {
      "inputs": [
        {
          "internalType": "address",
          "name": "account",
          "type": "address"
        }
      ],
      "name": "OwnableUnauthorizedAccount",
      "type": "error"
    },
    {
      "inputs": [],
      "name": "ReentrancyGuardReentrantCall",
      "type": "error"
    },
    {
      "inputs": [
        {
          "internalType": "address",
          "name": "token",
          "type": "address"
        }
      ],
      "name": "SafeERC20FailedOperation",
      "type": "error"
    },
    {
      "anonymous": false,
      "inputs": [
        {
          "indexed": true,
          "internalType": "address",
          "name": "previousOwner",
          "type": "address"
        },
        {
          "indexed": true,
          "internalType": "address",
          "name": "newOwner",
          "type": "address"
        }
      ],
      "name": "OwnershipTransferred",
      "type": "event"
    },
    {
      "anonymous": false,
      "inputs": [
        {
          "indexed": false,
          "internalType": "uint256",
          "name": "timestamp",
          "type": "uint256"
        }
      ],
      "name": "TGESet",
      "type": "event"
    },
    {
      "anonymous": false,
      "inputs": [
        {
          "indexed": true,
          "internalType": "address",
          "name": "beneficiary",
          "type": "address"
        },
        {
          "indexed": false,
          "internalType": "uint256",
          "name": "amount",
          "type": "uint256"
        }
      ],
      "name": "TokensClaimed",
      "type": "event"
    },
    {
      "anonymous": false,
      "inputs": [
        {
          "indexed": true,
          "internalType": "address",
          "name": "beneficiary",
          "type": "address"
        },
        {
          "indexed": false,
          "internalType": "uint256",
          "name": "amount",
          "type": "uint256"
        },
        {
          "indexed": false,
          "internalType": "enum MDTVesting.Category",
          "name": "category",
          "type": "uint8"
        }
      ],
      "name": "VestingCreated",
      "type": "event"
    },
    {
      "anonymous": false,
      "inputs": [
        {
          "indexed": true,
          "internalType": "address",
          "name": "beneficiary",
          "type": "address"
        },
        {
          "indexed": false,
          "internalType": "uint256",
          "name": "index",
          "type": "uint256"
        },
        {
          "indexed": false,
          "internalType": "uint256",
          "name": "remaining",
          "type": "uint256"
        }
      ],
      "name": "VestingRevoked",
      "type": "event"
    },
    {
      "inputs": [],
      "name": "claim",
      "outputs": [],
      "stateMutability": "nonpayable",
      "type": "function"
    },
    {
      "inputs": [
        {
          "internalType": "address",
          "name": "beneficiary",
          "type": "address"
        }
      ],
      "name": "claimable",
      "outputs": [
        {
          "internalType": "uint256",
          "name": "",
          "type": "uint256"
        }
      ],
      "stateMutability": "view",
      "type": "function"
    },
    {
      "inputs": [
        {
          "internalType": "address",
          "name": "beneficiary",
          "type": "address"
        },
        {
          "internalType": "uint256",
          "name": "amount",
          "type": "uint256"
        }
      ],
      "name": "createIDOVesting",
      "outputs": [],
      "stateMutability": "nonpayable",
      "type": "function"
    },
    {
      "inputs": [
        {
          "internalType": "address",
          "name": "beneficiary",
          "type": "address"
        },
        {
          "internalType": "uint256",
          "name": "amount",
          "type": "uint256"
        }
      ],
      "name": "createPrivateSaleVesting",
      "outputs": [],
      "stateMutability": "nonpayable",
      "type": "function"
    },
    {
      "inputs": [
        {
          "internalType": "address",
          "name": "beneficiary",
          "type": "address"
        },
        {
          "internalType": "uint256",
          "name": "amount",
          "type": "uint256"
        }
      ],
      "name": "createTeamVesting",
      "outputs": [],
      "stateMutability": "nonpayable",
      "type": "function"
    },
    {
      "inputs": [],
      "name": "emergencyWithdraw",
      "outputs": [],
      "stateMutability": "nonpayable",
      "type": "function"
    },
    {
      "inputs": [
        {
          "internalType": "address",
          "name": "beneficiary",
          "type": "address"
        }
      ],
      "name": "getVestingInfo",
      "outputs": [
        {
          "internalType": "uint256",
          "name": "scheduleCount",
          "type": "uint256"
        },
        {
          "internalType": "uint256",
          "name": "totalVested",
          "type": "uint256"
        },
        {
          "internalType": "uint256",
          "name": "totalClaimable",
          "type": "uint256"
        },
        {
          "internalType": "uint256",
          "name": "totalClaimed_",
          "type": "uint256"
        }
      ],
      "stateMutability": "view",
      "type": "function"
    },
    {
      "inputs": [],
      "name": "owner",
      "outputs": [
        {
          "internalType": "address",
          "name": "",
          "type": "address"
        }
      ],
      "stateMutability": "view",
      "type": "function"
    },
    {
      "inputs": [],
      "name": "renounceOwnership",
      "outputs": [],
      "stateMutability": "nonpayable",
      "type": "function"
    },
    {
      "inputs": [
        {
          "internalType": "address",
          "name": "beneficiary",
          "type": "address"
        },
        {
          "internalType": "uint256",
          "name": "index",
          "type": "uint256"
        }
      ],
      "name": "revoke",
      "outputs": [],
      "stateMutability": "nonpayable",
      "type": "function"
    },
    {
      "inputs": [
        {
          "internalType": "uint256",
          "name": "_timestamp",
          "type": "uint256"
        }
      ],
      "name": "setTGE",
      "outputs": [],
      "stateMutability": "nonpayable",
      "type": "function"
    },
    {
      "inputs": [],
      "name": "tgeTimestamp",
      "outputs": [
        {
          "internalType": "uint256",
          "name": "",
          "type": "uint256"
        }
      ],
      "stateMutability": "view",
      "type": "function"
    },
    {
      "inputs": [],
      "name": "token",
      "outputs": [
        {
          "internalType": "contract IERC20",
          "name": "",
          "type": "address"
        }
      ],
      "stateMutability": "view",
      "type": "function"
    },
    {
      "inputs": [],
      "name": "totalAllocated",
      "outputs": [
        {
          "internalType": "uint256",
          "name": "",
          "type": "uint256"
        }
      ],
      "stateMutability": "view",
      "type": "function"
    },
    {
      "inputs": [],
      "name": "totalClaimed",
      "outputs": [
        {
          "internalType": "uint256",
          "name": "",
          "type": "uint256"
        }
      ],
      "stateMutability": "view",
      "type": "function"
    },
    {
      "inputs": [
        {
          "internalType": "address",
          "name": "newOwner",
          "type": "address"
        }
      ],
      "name": "transferOwnership",
      "outputs": [],
      "stateMutability": "nonpayable",
      "type": "function"
    },
    {
      "inputs": [
        {
          "internalType": "address",
          "name": "beneficiary",
          "type": "address"
        },
        {
          "internalType": "uint256",
          "name": "index",
          "type": "uint256"
        }
      ],
      "name": "vestedAmount",
      "outputs": [
        {
          "internalType": "uint256",
          "name": "",
          "type": "uint256"
        }
      ],
      "stateMutability": "view",
      "type": "function"
    },
    {
      "inputs": [
        {
          "internalType": "address",
          "name": "",
          "type": "address"
        },
        {
          "internalType": "uint256",
          "name": "",
          "type": "uint256"
        }
      ],
      "name": "vestingSchedules",
      "outputs": [
        {
          "internalType": "uint256",
          "name": "totalAmount",
          "type": "uint256"
        },
        {
          "internalType": "uint256",
          "name": "claimedAmount",
          "type": "uint256"
        },
        {
          "internalType": "uint256",
          "name": "startTime",
          "type": "uint256"
        },
        {
          "internalType": "uint256",
          "name": "cliffDuration",
          "type": "uint256"
        },
        {
          "internalType": "uint256",
          "name": "vestingDuration",
          "type": "uint256"
        },
        {
          "internalType": "uint8",
          "name": "tgePercent",
          "type": "uint8"
        },
        {
          "internalType": "bool",
          "name": "revocable",
          "type": "bool"
        },
        {
          "internalType": "bool",
          "name": "revoked",
          "type": "bool"
        }
      ],
      "stateMutability": "view",
      "type": "function"
    }
  ],
  "bytecode": "0x60a03461012c57601f6116ad38819003918201601f19168301916001600160401b038311848410176101315780849260209460405283398101031261012c57516001600160a01b038082169182900361012c573315610113576000543360018060a01b0319821617600055604051913391167f8be0079c531659141344cd1fd0a4f28419497f9722a3daafe3b4186f6b6457e0600080a36001805581156100d15750608052604051611565908161014882396080518181816101c4015281816104480152818161086001526110100152f35b62461bcd60e51b815260206004820152601560248201527f496e76616c696420746f6b656e206164647265737300000000000000000000006044820152606490fd5b604051631e4fbdf760e01b815260006004820152602490fd5b600080fd5b634e487b7160e01b600052604160045260246000fdfe60406080815260048036101561001457600080fd5b600091823560e01c806317cf539114611294578063402914f5146111ed57806345626bd61461114957806345f7f2491461112b5780634e71d92d14610fc4578063715018a614610f6a57806388d9e6f414610d525780638da5cb5b14610d2a578063a4317ef414610d0b578063ce5b45c3146109ee578063d54ad2a1146109cf578063db2e21bc1461082a578063dbf403af1461050e578063eac449d914610358578063f2fde38b146102d1578063fb897ce4146101f7578063fc0c546a146101af5763ff1a318d146100e657600080fd5b346101ab5760203660031901126101ab57813591610102611311565b6002546101775782156101415750816020917f9f5b1d2626fe1a57b989b4566912279df2387b8a481a7297f0a11373c230073c9360025551908152a180f35b6020606492519162461bcd60e51b835282015260116024820152700496e76616c69642074696d657374616d7607c1b6044820152fd5b6020606492519162461bcd60e51b8352820152600f60248201526e1511d148185b1c9958591e481cd95d608a1b6044820152fd5b8280fd5b8382346101f357816003193601126101f357517f00000000000000000000000000000000000000000000000000000000000000006001600160a01b03168152602090f35b5080fd5b5082346102ce576020806003193601126101f3576102136112c4565b6001600160a01b0381168084526003808452858520549195919493849384929083805b89811061025757505050506080965082519586528501528301526060820152f35b8a8252838552610269818884206112df565b5060ff600582015460101c161561028a575b506102859061133d565b610236565b956102c7906102c1839b9a6102bb60016102b16102aa610285988b6113c2565b8096611395565b9b015480946113a2565b90611395565b99611395565b989061027b565b80fd5b5090346101ab5760203660031901126101ab576102ec6112c4565b906102f5611311565b6001600160a01b0391821692831561034257505082546001600160a01b0319811683178455167f8be0079c531659141344cd1fd0a4f28419497f9722a3daafe3b4186f6b6457e08380a380f35b51631e4fbdf760e01b8152908101849052602490fd5b508290346101f357806003193601126101f3576103736112c4565b9060243561037f611311565b6001600160a01b03838116808652600360209081528487205491959290918410156104db57858752600382526103b7848689206112df565b50976005890180549460ff8660081c16156104a85760ff8660101c16610473576104137febe4c59724de32494ac2dc26d066e582e9737a6abe9f796bfb8a43f9fde516f7999a9b61040c8962010000946113c2565b90546113a2565b9562ff000019161790556104288482546113a2565b9055828061043f575b50508351928352820152a280f35b61046c918954167f000000000000000000000000000000000000000000000000000000000000000061148d565b8782610431565b875162461bcd60e51b8152808401869052600f60248201526e105b1c9958591e481c995d9bdad959608a1b6044820152606490fd5b875162461bcd60e51b8152808401869052600d60248201526c4e6f74207265766f6361626c6560981b6044820152606490fd5b845162461bcd60e51b8152808901839052600d60248201526c092dcecc2d8d2c840d2dcc8caf609b1b6044820152606490fd5b509190346101f357826003193601126101f3576105296112c4565b92602493843590610538611311565b6001600160a01b03169283156107f25781156107bb57600254801561078b57848652600360205283862080549790875b8981106106b257505086975085875260036020528487209085519261058c84611362565b858452602084019089825287850190815260608501908a8252608086019262ed4e00845260a08701966019885260c08101968d885260e082019e8f52805490600160401b8210156106a057906105e7916001820181556112df565b96909661069057509360ff936005937ff8b9db65a8f6306efa84d087b9e9b6d62134e17921af16f14150254acc216b439d9e9f97936106739a999751855551600185015551600284015551600383015551888201550193511661ff0084549251151560081b169161ffff19161717825551151562ff0000825491151560101b169062ff00001916179055565b61067e828254611395565b9055815190815260026020820152a280f35b634e487b7160e01b8e528d8a528dfd5b634e487b7160e01b8f5260418b52878ffd5b6106bc81836112df565b5060ff8060058093015460101c16159182610773575b82610758575b8261073e575b50506106f2576106ed9061133d565b610568565b865162461bcd60e51b81526020818701526021818501527f4475706c69636174652076657374696e67207363686564756c652065786973746044820152607360f81b6064820152608490fd5b6019925061074c84866112df565b500154161438806106de565b915062ed4e008761076985876112df565b50015414916106d8565b9150600361078184866112df565b50015415916106d2565b835162461bcd60e51b8152602081840152600b818901526a1511d1481b9bdd081cd95d60aa1b6044820152606490fd5b606490601287602086519362461bcd60e51b8552840152820152710416d6f756e74206d757374206265203e20360741b6044820152fd5b606490601387602086519362461bcd60e51b855284015282015272496e76616c69642062656e656669636961727960681b6044820152fd5b509190346101f357816003193601126101f357610845611311565b81546001600160a01b039190821690811561098c57602460207f0000000000000000000000000000000000000000000000000000000000000000948751928380926370a0823160e01b8252308783015288165afa908115610982578591610925575b5081546005548082111561091c576108be916113a2565b915b828211156108e157506108de9392916108d8916113a2565b9161148d565b80f35b606490602088519162461bcd60e51b835282015260156024820152744e6f20756e636f6d6d697474656420746f6b656e7360581b6044820152fd5b505084916108c0565b905060203d811161097b575b601f8101601f1916820167ffffffffffffffff8111838210176109685760209183918952810103126109645751386108a7565b8480fd5b634e487b7160e01b875260418452602487fd5b503d610931565b86513d87823e3d90fd5b606490602086519162461bcd60e51b8352820152602060248201527f4f776e65722072656e6f756e6365642c2063616e6e6f742077697468647261776044820152fd5b8382346101f357816003193601126101f3576020906005549051908152f35b508290346101f357806003193601126101f357610a096112c4565b90602491823590610a18611311565b6001600160a01b0316928315610cd3578115610c9c57600254958615610c6d578486526020916003835284872087908054915b828110610b8f575050509686630784ce00988782526003855286822090875193610a7485611362565b8785528685019084825289860190815260608601916301e133808352608087019d8e5260a087019686885260c08101956001875260e08201978852805490600160401b821015610b7c5790610ace916001820181556112df565b959095610b6c57505184555160018401555160028301555160038201559951848b01559151600590990180549251915162ffffff1990931660ff9a909a169990991790151560081b61ff00161790151560101b62ff00001617909655939492937ff8b9db65a8f6306efa84d087b9e9b6d62134e17921af16f14150254acc216b4393869190610b5e848254611395565b90558351928352820152a280f35b634e487b7160e01b8f528e8a528efd5b50634e487b7160e01b8f5260418a52858ffd5b610b9981836112df565b5060ff8060058093015460101c16159182610c50575b82610c34575b82610c1b575b5050610bcf57610bca9061133d565b610a4b565b875162461bcd60e51b81528086018790526021818601527f4475706c69636174652076657374696e67207363686564756c652065786973746044820152607360f81b6064820152608490fd5b909150610c2883856112df565b50015416158c80610bbb565b9150630784ce0087610c4685876112df565b5001541491610bb5565b91506301e133806003610c6385876112df565b5001541491610baf565b600b606492602086519362461bcd60e51b85528401528201526a1511d1481b9bdd081cd95d60aa1b6044820152fd5b856012606492602086519362461bcd60e51b8552840152820152710416d6f756e74206d757374206265203e20360741b6044820152fd5b856013606492602086519362461bcd60e51b855284015282015272496e76616c69642062656e656669636961727960681b6044820152fd5b8382346101f357816003193601126101f3576020906002549051908152f35b8382346101f357816003193601126101f357905490516001600160a01b039091168152602090f35b509190346101f357826003193601126101f357610d6d6112c4565b92602493843590610d7c611311565b6001600160a01b03169283156107f25781156107bb57600254801561078b57848652600360205283862080549790875b898110610ed8575050869750858752600360205284872090855192610dd084611362565b858452602084019089825287850190815260608501906301e13380825260808601926303c26700845260a08701968c885260c08101968d885260e082019e8f52805490600160401b8210156106a05790610e2f916001820181556112df565b96909661069057509360ff936005937ff8b9db65a8f6306efa84d087b9e9b6d62134e17921af16f14150254acc216b439d9e9f9793610ebb9a999751855551600185015551600284015551600383015551888201550193511661ff0084549251151560081b169161ffff19161717825551151562ff0000825491151560101b169062ff00001916179055565b610ec6828254611395565b9055815190815260016020820152a280f35b610ee281836112df565b5060ff8060058093015460101c16159182610f4d575b82610f31575b82610f18575b50506106f257610f139061133d565b610dac565b909150610f2583856112df565b50015416153880610f04565b91506303c2670087610f4385876112df565b5001541491610efe565b91506301e133806003610f6085876112df565b5001541491610ef8565b83346102ce57806003193601126102ce57610f83611311565b80546001600160a01b03198116825581906001600160a01b03167f8be0079c531659141344cd1fd0a4f28419497f9722a3daafe3b4186f6b6457e08280a380f35b5090346101ab57826003193601126101ab57600191600283541461111e576002835583918383815b611098575b50508215611063575061100682600554611395565b60055561103482337f000000000000000000000000000000000000000000000000000000000000000061148d565b519081527f896e034966eaaf1adc54acc0f257056febbd300c9e47182cf761982cf1f5e43060203392a2805580f35b6020606492519162461bcd60e51b8352820152601060248201526f4e6f7468696e6720746f20636c61696d60801b6044820152fd5b3387526003602052838720805482101561111857816110b6916112df565b5060ff600582015460101c16156110d8575b506110d29061133d565b81610fec565b826110e383336113c2565b9101906110f18254826113a2565b91826110ff575b50506110c8565b5590946110d29161110f91611395565b949038806110f8565b50610ff1565b51633ee5aeb560e01b8152fd5b5090346101ab57826003193601126101ab5760209250549051908152f35b5091346102ce57826003193601126102ce576111636112c4565b6001600160a01b031681526003602052828120805460243592908310156102ce57509261119560ff92610100956112df565b50805493600182015492600283015490600560038501549385015494015494815197885260208801528601526060850152608084015281811660a0840152818160081c16151560c084015260101c16151560e0820152f35b5082346102ce57602091826003193601126101f35761120a6112c4565b91926001600160a01b03831692919084805b85825260038352838220805482101561128b5781611239916112df565b5060ff600582015460101c161561125f575b5090611257849261133d565b90915061121c565b61128282986102bb6112579360016112798a98978c6113c2565b910154906113a2565b9791925061124b565b83888651908152f35b8382346101f357806003193601126101f3576020906112bd6112b46112c4565b602435906113c2565b9051908152f35b600435906001600160a01b03821682036112da57565b600080fd5b80548210156112fb576000526006602060002091020190600090565b634e487b7160e01b600052603260045260246000fd5b6000546001600160a01b0316330361132557565b60405163118cdaa760e01b8152336004820152602490fd5b600019811461134c5760010190565b634e487b7160e01b600052601160045260246000fd5b610100810190811067ffffffffffffffff82111761137f57604052565b634e487b7160e01b600052604160045260246000fd5b9190820180921161134c57565b9190820391821161134c57565b8181029291811591840414171561134c57565b6001600160a01b031660009081526003602052604090206113e391906112df565b50600581015460ff8160101c1661148557600282015480421061147d5761140a90426113a2565b90606461141c60ff85549316836113af565b049161142883836113a2565b9060038501549081811061147457600491611442916113a2565b94015491821561146c578285101561146c575061146993611462916113af565b0490611395565b90565b935050505090565b50505050905090565b505050600090565b506001015490565b60405163a9059cbb60e01b602082019081526001600160a01b0393841660248301526044808301959095529381529092608082019067ffffffffffffffff82118383101761137f57602092600092604052519082865af115611523576000513d61151a57508082163b155b611500575050565b604051635274afe760e01b81529116600482015260249150fd5b600114156114f8565b6040513d6000823e3d90fdfea2646970667358221220487a9b1e0e693d436b6e80dfe7dd30f9cdc27f19c98b0008aaf1d95693926c7764736f6c63430008140033",
  "linkReferences": {},
  "deployedLinkReferences": {}
}