{
  "_format": "hh-sol-artifact-1",
  "contractName": "MDTVesting",
  "sourceName": "src/MDTVesting.sol",
  "abi": [
    {
      "inputs": [
        {
          "internalType": "address",
          "name": "_token",
          "type": "address"
        }
      ],
      "stateMutability": "nonpayable",
      "type": "constructor"
    },
    {
      "inputs": [
        {
          "internalType": "address",
          "name": "owner",
          "type": "address"
        }
      ],
      "name": "OwnableInvalidOwner",
      "type": "error"
    },
    {
      "inputs": [
        {
          "internalType": "address",
          "name": "account",
          "type": "address"
        }
      ],
      "name": "OwnableUnauthorizedAccount",
      "type": "error"
    },
    {
      "inputs": [],
      "name": "ReentrancyGuardReentrantCall",
      "type": "error"
    },
    {
      "inputs": [
        {
          "internalType": "address",
          "name": "token",
          "type": "address"
        }
      ],
      "name": "SafeERC20FailedOperation",
      "type": "error"
    },
    {
      "anonymous": false,
      "inputs": [
        {
          "indexed": true,
          "internalType": "address",
          "name": "previousOwner",
          "type": "address"
        },
        {
          "indexed": true,
          "internalType": "address",
          "name": "newOwner",
          "type": "address"
        }
      ],
      "name": "OwnershipTransferred",
      "type": "event"
    },
    {
      "anonymous": false,
      "inputs": [
        {
          "indexed": false,
          "internalType": "uint256",
          "name": "timestamp",
          "type": "uint256"
        }
      ],
      "name": "TGESet",
      "type": "event"
    },
    {
      "anonymous": false,
      "inputs": [
        {
          "indexed": true,
          "internalType": "address",
          "name": "beneficiary",
          "type": "address"
        },
        {
          "indexed": false,
          "internalType": "uint256",
          "name": "amount",
          "type": "uint256"
        }
      ],
      "name": "TokensClaimed",
      "type": "event"
    },
    {
      "anonymous": false,
      "inputs": [
        {
          "indexed": true,
          "internalType": "address",
          "name": "beneficiary",
          "type": "address"
        },
        {
          "indexed": false,
          "internalType": "uint256",
          "name": "amount",
          "type": "uint256"
        },
        {
          "indexed": false,
          "internalType": "enum MDTVesting.Category",
          "name": "category",
          "type": "uint8"
        }
      ],
      "name": "VestingCreated",
      "type": "event"
    },
    {
      "anonymous": false,
      "inputs": [
        {
          "indexed": true,
          "internalType": "address",
          "name": "beneficiary",
          "type": "address"
        },
        {
          "indexed": false,
          "internalType": "uint256",
          "name": "index",
          "type": "uint256"
        },
        {
          "indexed": false,
          "internalType": "uint256",
          "name": "remaining",
          "type": "uint256"
        }
      ],
      "name": "VestingRevoked",
      "type": "event"
    },
    {
      "inputs": [],
      "name": "claim",
      "outputs": [],
      "stateMutability": "nonpayable",
      "type": "function"
    },
    {
      "inputs": [
        {
          "internalType": "address",
          "name": "beneficiary",
          "type": "address"
        }
      ],
      "name": "claimable",
      "outputs": [
        {
          "internalType": "uint256",
          "name": "",
          "type": "uint256"
        }
      ],
      "stateMutability": "view",
      "type": "function"
    },
    {
      "inputs": [
        {
          "internalType": "address",
          "name": "beneficiary",
          "type": "address"
        },
        {
          "internalType": "uint256",
          "name": "amount",
          "type": "uint256"
        }
      ],
      "name": "createIDOVesting",
      "outputs": [],
      "stateMutability": "nonpayable",
      "type": "function"
    },
    {
      "inputs": [
        {
          "internalType": "address",
          "name": "beneficiary",
          "type": "address"
        },
        {
          "internalType": "uint256",
          "name": "amount",
          "type": "uint256"
        }
      ],
      "name": "createPrivateSaleVesting",
      "outputs": [],
      "stateMutability": "nonpayable",
      "type": "function"
    },
    {
      "inputs": [
        {
          "internalType": "address",
          "name": "beneficiary",
          "type": "address"
        },
        {
          "internalType": "uint256",
          "name": "amount",
          "type": "uint256"
        }
      ],
      "name": "createTeamVesting",
      "outputs": [],
      "stateMutability": "nonpayable",
      "type": "function"
    },
    {
      "inputs": [],
      "name": "emergencyWithdraw",
      "outputs": [],
      "stateMutability": "nonpayable",
      "type": "function"
    },
    {
      "inputs": [
        {
          "internalType": "address",
          "name": "beneficiary",
          "type": "address"
        }
      ],
      "name": "getVestingInfo",
      "outputs": [
        {
          "internalType": "uint256",
          "name": "scheduleCount",
          "type": "uint256"
        },
        {
          "internalType": "uint256",
          "name": "totalVested",
          "type": "uint256"
        },
        {
          "internalType": "uint256",
          "name": "totalClaimable",
          "type": "uint256"
        },
        {
          "internalType": "uint256",
          "name": "totalClaimed_",
          "type": "uint256"
        }
      ],
      "stateMutability": "view",
      "type": "function"
    },
    {
      "inputs": [],
      "name": "owner",
      "outputs": [
        {
          "internalType": "address",
          "name": "",
          "type": "address"
        }
      ],
      "stateMutability": "view",
      "type": "function"
    },
    {
      "inputs": [],
      "name": "renounceOwnership",
      "outputs": [],
      "stateMutability": "nonpayable",
      "type": "function"
    },
    {
      "inputs": [
        {
          "internalType": "address",
          "name": "beneficiary",
          "type": "address"
        },
        {
          "internalType": "uint256",
          "name": "index",
          "type": "uint256"
        }
      ],
      "name": "revoke",
      "outputs": [],
      "stateMutability": "nonpayable",
      "type": "function"
    },
    {
      "inputs": [
        {
          "internalType": "uint256",
          "name": "_timestamp",
          "type": "uint256"
        }
      ],
      "name": "setTGE",
      "outputs": [],
      "stateMutability": "nonpayable",
      "type": "function"
    },
    {
      "inputs": [],
      "name": "tgeTimestamp",
      "outputs": [
        {
          "internalType": "uint256",
          "name": "",
          "type": "uint256"
        }
      ],
      "stateMutability": "view",
      "type": "function"
    },
    {
      "inputs": [],
      "name": "token",
      "outputs": [
        {
          "internalType": "contract IERC20",
          "name": "",
          "type": "address"
        }
      ],
      "stateMutability": "view",
      "type": "function"
    },
    {
      "inputs": [],
      "name": "totalAllocated",
      "outputs": [
        {
          "internalType": "uint256",
          "name": "",
          "type": "uint256"
        }
      ],
      "stateMutability": "view",
      "type": "function"
    },
    {
      "inputs": [],
      "name": "totalClaimed",
      "outputs": [
        {
          "internalType": "uint256",
          "name": "",
          "type": "uint256"
        }
      ],
      "stateMutability": "view",
      "type": "function"
    },
    {
      "inputs": [
        {
          "internalType": "address",
          "name": "newOwner",
          "type": "address"
        }
      ],
      "name": "transferOwnership",
      "outputs": [],
      "stateMutability": "nonpayable",
      "type": "function"
    },
    {
      "inputs": [
        {
          "internalType": "address",
          "name": "beneficiary",
          "type": "address"
        },
        {
          "internalType": "uint256",
          "name": "index",
          "type": "uint256"
        }
      ],
      "name": "vestedAmount",
      "outputs": [
        {
          "internalType": "uint256",
          "name": "",
          "type": "uint256"
        }
      ],
      "stateMutability": "view",
      "type": "function"
    },
    {
      "inputs": [
        {
          "internalType": "address",
          "name": "",
          "type": "address"
        },
        {
          "internalType": "uint256",
          "name": "",
          "type": "uint256"
        }
      ],
      "name": "vestingSchedules",
      "outputs": [
        {
          "internalType": "uint256",
          "name": "totalAmount",
          "type": "uint256"
        },
        {
          "internalType": "uint256",
          "name": "claimedAmount",
          "type": "uint256"
        },
        {
          "internalType": "uint256",
          "name": "startTime",
          "type": "uint256"
        },
        {
          "internalType": "uint256",
          "name": "cliffDuration",
          "type": "uint256"
        },
        {
          "internalType": "uint256",
          "name": "vestingDuration",
          "type": "uint256"
        },
        {
          "internalType": "uint8",
          "name": "tgePercent",
          "type": "uint8"
        },
        {
          "internalType": "bool",
          "name": "revocable",
          "type": "bool"
        },
        {
          "internalType": "bool",
          "name": "revoked",
          "type": "bool"
        }
      ],
      "stateMutability": "view",
      "type": "function"
    }
  ],
  "bytecode": "0x60a03461012c57601f6112fb38819003918201601f19168301916001600160401b038311848410176101315780849260209460405283398101031261012c57516001600160a01b038082169182900361012c573315610113576000543360018060a01b0319821617600055604051913391167f8be0079c531659141344cd1fd0a4f28419497f9722a3daafe3b4186f6b6457e0600080a36001805581156100d157506080526040516111b3908161014882396080518181816101c401528181610448015281816107640152610c5e0152f35b62461bcd60e51b815260206004820152601560248201527f496e76616c696420746f6b656e206164647265737300000000000000000000006044820152606490fd5b604051631e4fbdf760e01b815260006004820152602490fd5b600080fd5b634e487b7160e01b600052604160045260246000fdfe60406080815260048036101561001457600080fd5b600091823560e01c806317cf539114610ee2578063402914f514610e3b57806345626bd614610d9757806345f7f24914610d795780634e71d92d14610c12578063715018a614610bb857806388d9e6f414610a4d5780638da5cb5b14610a25578063a4317ef414610a06578063ce5b45c31461089b578063d54ad2a11461087c578063db2e21bc14610736578063dbf403af1461050e578063eac449d914610358578063f2fde38b146102d1578063fb897ce4146101f7578063fc0c546a146101af5763ff1a318d146100e657600080fd5b346101ab5760203660031901126101ab57813591610102610f5f565b6002546101775782156101415750816020917f9f5b1d2626fe1a57b989b4566912279df2387b8a481a7297f0a11373c230073c9360025551908152a180f35b6020606492519162461bcd60e51b835282015260116024820152700496e76616c69642074696d657374616d7607c1b6044820152fd5b6020606492519162461bcd60e51b8352820152600f60248201526e1511d148185b1c9958591e481cd95d608a1b6044820152fd5b8280fd5b8382346101f357816003193601126101f357517f00000000000000000000000000000000000000000000000000000000000000006001600160a01b03168152602090f35b5080fd5b5082346102ce576020806003193601126101f357610213610f12565b6001600160a01b0381168084526003808452858520549195919493849384929083805b89811061025757505050506080965082519586528501528301526060820152f35b8a825283855261026981888420610f2d565b5060ff600582015460101c161561028a575b50610285906110cc565b610236565b956102c7906102c1839b9a6102bb60016102b16102aa610285988b611001565b8096610fbe565b9b01548094610fe1565b90610fbe565b99610fbe565b989061027b565b80fd5b5090346101ab5760203660031901126101ab576102ec610f12565b906102f5610f5f565b6001600160a01b0391821692831561034257505082546001600160a01b0319811683178455167f8be0079c531659141344cd1fd0a4f28419497f9722a3daafe3b4186f6b6457e08380a380f35b51631e4fbdf760e01b8152908101849052602490fd5b508290346101f357806003193601126101f357610373610f12565b9060243561037f610f5f565b6001600160a01b03838116808652600360209081528487205491959290918410156104db57858752600382526103b784868920610f2d565b50976005890180549460ff8660081c16156104a85760ff8660101c16610473576104137febe4c59724de32494ac2dc26d066e582e9737a6abe9f796bfb8a43f9fde516f7999a9b61040c896201000094611001565b9054610fe1565b9562ff00001916179055610428848254610fe1565b9055828061043f575b50508351928352820152a280f35b61046c918954167f00000000000000000000000000000000000000000000000000000000000000006110db565b8782610431565b875162461bcd60e51b8152808401869052600f60248201526e105b1c9958591e481c995d9bdad959608a1b6044820152606490fd5b875162461bcd60e51b8152808401869052600d60248201526c4e6f74207265766f6361626c6560981b6044820152606490fd5b845162461bcd60e51b8152808901839052600d60248201526c092dcecc2d8d2c840d2dcc8caf609b1b6044820152606490fd5b509190346101f357826003193601126101f357610529610f12565b92602493843590610538610f5f565b6001600160a01b03169283156106fe5781156106c757600254801561069757859685875260036020528487209085519261057184610f8b565b858452602084019089825287850190815260608501908a8252608086019262ed4e00845260a08701966019885260c08101968d885260e082019e8f52805490600160401b82101561068557906105cc91600182018155610f2d565b96909661067557509360ff936005937ff8b9db65a8f6306efa84d087b9e9b6d62134e17921af16f14150254acc216b439d9e9f97936106589a999751855551600185015551600284015551600383015551888201550193511661ff0084549251151560081b169161ffff19161717825551151562ff0000825491151560101b169062ff00001916179055565b610663828254610fbe565b9055815190815260026020820152a280f35b634e487b7160e01b8e528d8a528dfd5b634e487b7160e01b8f5260418b52878ffd5b835162461bcd60e51b8152602081840152600b818901526a1511d1481b9bdd081cd95d60aa1b6044820152606490fd5b606490601287602086519362461bcd60e51b8552840152820152710416d6f756e74206d757374206265203e20360741b6044820152fd5b606490601387602086519362461bcd60e51b855284015282015272496e76616c69642062656e656669636961727960681b6044820152fd5b509190346101f357816003193601126101f357610751610f5f565b82516370a0823160e01b815230828201527f0000000000000000000000000000000000000000000000000000000000000000906001600160a01b03906020816024818587165afa8015610872578590610813575b6107be91506107b8855460055490610fe1565b90610fe1565b9283156107d85750836107d59495505416906110db565b80f35b606490602087519162461bcd60e51b835282015260156024820152744e6f20756e636f6d6d697474656420746f6b656e7360581b6044820152fd5b5060203d811161086b575b601f8101601f1916820167ffffffffffffffff811183821017610858576020918391895281010312610854576107be90516107a5565b8480fd5b634e487b7160e01b875260418652602487fd5b503d61081e565b86513d87823e3d90fd5b8382346101f357816003193601126101f3576020906005549051908152f35b509190346101f357826003193601126101f3576108b6610f12565b926024938435906108c5610f5f565b6001600160a01b03169283156106fe5781156106c75760025480156106975785968587526003602052848720908551926108fe84610f8b565b858452602084019089825287850190815260608501906301e1338082526080860192630784ce00845260a08701968c885260c08101966001885260e082019e8f52805490600160401b821015610685579061095e91600182018155610f2d565b96909661067557509360ff936005937ff8b9db65a8f6306efa84d087b9e9b6d62134e17921af16f14150254acc216b439d9e9f97936109ea9a999751855551600185015551600284015551600383015551888201550193511661ff0084549251151560081b169161ffff19161717825551151562ff0000825491151560101b169062ff00001916179055565b6109f5828254610fbe565b90558151908152846020820152a280f35b8382346101f357816003193601126101f3576020906002549051908152f35b8382346101f357816003193601126101f357905490516001600160a01b039091168152602090f35b509190346101f357826003193601126101f357610a68610f12565b92602493843590610a77610f5f565b6001600160a01b03169283156106fe5781156106c7576002548015610697578596858752600360205284872090855192610ab084610f8b565b858452602084019089825287850190815260608501906301e13380825260808601926303c26700845260a08701968c885260c08101968d885260e082019e8f52805490600160401b8210156106855790610b0f91600182018155610f2d565b96909661067557509360ff936005937ff8b9db65a8f6306efa84d087b9e9b6d62134e17921af16f14150254acc216b439d9e9f9793610b9b9a999751855551600185015551600284015551600383015551888201550193511661ff0084549251151560081b169161ffff19161717825551151562ff0000825491151560101b169062ff00001916179055565b610ba6828254610fbe565b9055815190815260016020820152a280f35b83346102ce57806003193601126102ce57610bd1610f5f565b80546001600160a01b03198116825581906001600160a01b03167f8be0079c531659141344cd1fd0a4f28419497f9722a3daafe3b4186f6b6457e08280a380f35b5090346101ab57826003193601126101ab576001916002835414610d6c576002835583918383815b610ce6575b50508215610cb15750610c5482600554610fbe565b600555610c8282337f00000000000000000000000000000000000000000000000000000000000000006110db565b519081527f896e034966eaaf1adc54acc0f257056febbd300c9e47182cf761982cf1f5e43060203392a2805580f35b6020606492519162461bcd60e51b8352820152601060248201526f4e6f7468696e6720746f20636c61696d60801b6044820152fd5b33875260036020528387208054821015610d665781610d0491610f2d565b5060ff600582015460101c1615610d26575b50610d20906110cc565b81610c3a565b82610d318333611001565b910190610d3f825482610fe1565b9182610d4d575b5050610d16565b559094610d2091610d5d91610fbe565b94903880610d46565b50610c3f565b51633ee5aeb560e01b8152fd5b5090346101ab57826003193601126101ab5760209250549051908152f35b5091346102ce57826003193601126102ce57610db1610f12565b6001600160a01b031681526003602052828120805460243592908310156102ce575092610de360ff9261010095610f2d565b50805493600182015492600283015490600560038501549385015494015494815197885260208801528601526060850152608084015281811660a0840152818160081c16151560c084015260101c16151560e0820152f35b5082346102ce57602091826003193601126101f357610e58610f12565b91926001600160a01b03831692919084805b858252600383528382208054821015610ed95781610e8791610f2d565b5060ff600582015460101c1615610ead575b5090610ea584926110cc565b909150610e6a565b610ed082986102bb610ea5936001610ec78a98978c611001565b91015490610fe1565b97919250610e99565b83888651908152f35b8382346101f357806003193601126101f357602090610f0b610f02610f12565b60243590611001565b9051908152f35b600435906001600160a01b0382168203610f2857565b600080fd5b8054821015610f49576000526006602060002091020190600090565b634e487b7160e01b600052603260045260246000fd5b6000546001600160a01b03163303610f7357565b60405163118cdaa760e01b8152336004820152602490fd5b610100810190811067ffffffffffffffff821117610fa857604052565b634e487b7160e01b600052604160045260246000fd5b91908201809211610fcb57565b634e487b7160e01b600052601160045260246000fd5b91908203918211610fcb57565b81810292918115918404141715610fcb57565b6001600160a01b031660009081526003602052604090206110229190610f2d565b50600581015460ff8160101c166110c45760028201548042106110bc576110499042610fe1565b90606461105b60ff8554931683610fee565b04916110678383610fe1565b906003850154908181106110b35760049161108191610fe1565b9401549182156110ab57828510156110ab57506110a8936110a191610fee565b0490610fbe565b90565b935050505090565b50505050905090565b505050600090565b506001015490565b6000198114610fcb5760010190565b60405163a9059cbb60e01b602082019081526001600160a01b0393841660248301526044808301959095529381529092608082019067ffffffffffffffff821183831017610fa857602092600092604052519082865af115611171576000513d61116857508082163b155b61114e575050565b604051635274afe760e01b81529116600482015260249150fd5b60011415611146565b6040513d6000823e3d90fdfea2646970667358221220fb9739a67a2c4f97d4a5c04aa309e71d964cc7bc8f9b09f841df957284545c4c64736f6c63430008140033",
  "linkReferences": {},
  "deployedLinkReferences": {}
}