{
  "_format": "hh-sol-artifact-1",
  "contractName": "AIOracle",
  "sourceName": "src/templates/AIOracle.sol",
  "abi": [
    {
      "inputs": [],
      "stateMutability": "nonpayable",
      "type": "constructor"
    },
    {
      "inputs": [
        {
          "internalType": "address",
          "name": "owner",
          "type": "address"
        }
      ],
      "name": "OwnableInvalidOwner",
      "type": "error"
    },
    {
      "inputs": [
        {
          "internalType": "address",
          "name": "account",
          "type": "address"
        }
      ],
      "name": "OwnableUnauthorizedAccount",
      "type": "error"
    },
    {
      "inputs": [],
      "name": "ReentrancyGuardReentrantCall",
      "type": "error"
    },
    {
      "anonymous": false,
      "inputs": [
        {
          "indexed": true,
          "internalType": "bytes32",
          "name": "requestId",
          "type": "bytes32"
        }
      ],
      "name": "AIRequestCancelled",
      "type": "event"
    },
    {
      "anonymous": false,
      "inputs": [
        {
          "indexed": true,
          "internalType": "bytes32",
          "name": "requestId",
          "type": "bytes32"
        },
        {
          "indexed": true,
          "internalType": "address",
          "name": "requester",
          "type": "address"
        },
        {
          "indexed": false,
          "internalType": "bytes32",
          "name": "modelHash",
          "type": "bytes32"
        },
        {
          "indexed": false,
          "internalType": "uint256",
          "name": "reward",
          "type": "uint256"
        }
      ],
      "name": "AIRequestCreated",
      "type": "event"
    },
    {
      "anonymous": false,
      "inputs": [
        {
          "indexed": true,
          "internalType": "bytes32",
          "name": "requestId",
          "type": "bytes32"
        }
      ],
      "name": "AIRequestExpired",
      "type": "event"
    },
    {
      "anonymous": false,
      "inputs": [
        {
          "indexed": true,
          "internalType": "bytes32",
          "name": "requestId",
          "type": "bytes32"
        },
        {
          "indexed": true,
          "internalType": "address",
          "name": "fulfiller",
          "type": "address"
        },
        {
          "indexed": false,
          "internalType": "bytes32",
          "name": "proofHash",
          "type": "bytes32"
        }
      ],
      "name": "AIRequestFulfilled",
      "type": "event"
    },
    {
      "anonymous": false,
      "inputs": [
        {
          "indexed": false,
          "internalType": "uint256",
          "name": "oldTimeout",
          "type": "uint256"
        },
        {
          "indexed": false,
          "internalType": "uint256",
          "name": "newTimeout",
          "type": "uint256"
        }
      ],
      "name": "DefaultTimeoutUpdated",
      "type": "event"
    },
    {
      "anonymous": false,
      "inputs": [
        {
          "indexed": true,
          "internalType": "address",
          "name": "recipient",
          "type": "address"
        },
        {
          "indexed": false,
          "internalType": "uint256",
          "name": "amount",
          "type": "uint256"
        }
      ],
      "name": "FeesWithdrawn",
      "type": "event"
    },
    {
      "anonymous": false,
      "inputs": [
        {
          "indexed": true,
          "internalType": "address",
          "name": "fulfiller",
          "type": "address"
        }
      ],
      "name": "FulfillerRegistered",
      "type": "event"
    },
    {
      "anonymous": false,
      "inputs": [
        {
          "indexed": true,
          "internalType": "address",
          "name": "fulfiller",
          "type": "address"
        }
      ],
      "name": "FulfillerRevoked",
      "type": "event"
    },
    {
      "anonymous": false,
      "inputs": [
        {
          "indexed": true,
          "internalType": "bytes32",
          "name": "modelHash",
          "type": "bytes32"
        }
      ],
      "name": "ModelApproved",
      "type": "event"
    },
    {
      "anonymous": false,
      "inputs": [
        {
          "indexed": true,
          "internalType": "bytes32",
          "name": "modelHash",
          "type": "bytes32"
        }
      ],
      "name": "ModelRevoked",
      "type": "event"
    },
    {
      "anonymous": false,
      "inputs": [
        {
          "indexed": true,
          "internalType": "address",
          "name": "previousOwner",
          "type": "address"
        },
        {
          "indexed": true,
          "internalType": "address",
          "name": "newOwner",
          "type": "address"
        }
      ],
      "name": "OwnershipTransferred",
      "type": "event"
    },
    {
      "anonymous": false,
      "inputs": [
        {
          "indexed": false,
          "internalType": "uint256",
          "name": "oldFee",
          "type": "uint256"
        },
        {
          "indexed": false,
          "internalType": "uint256",
          "name": "newFee",
          "type": "uint256"
        }
      ],
      "name": "ProtocolFeeUpdated",
      "type": "event"
    },
    {
      "anonymous": false,
      "inputs": [
        {
          "indexed": false,
          "internalType": "address",
          "name": "oldVerifier",
          "type": "address"
        },
        {
          "indexed": false,
          "internalType": "address",
          "name": "newVerifier",
          "type": "address"
        }
      ],
      "name": "ZkMLVerifierUpdated",
      "type": "event"
    },
    {
      "inputs": [],
      "name": "accumulatedFees",
      "outputs": [
        {
          "internalType": "uint256",
          "name": "",
          "type": "uint256"
        }
      ],
      "stateMutability": "view",
      "type": "function"
    },
    {
      "inputs": [
        {
          "internalType": "bytes32",
          "name": "modelHash",
          "type": "bytes32"
        }
      ],
      "name": "approveModel",
      "outputs": [],
      "stateMutability": "nonpayable",
      "type": "function"
    },
    {
      "inputs": [
        {
          "internalType": "bytes32",
          "name": "",
          "type": "bytes32"
        }
      ],
      "name": "approvedModels",
      "outputs": [
        {
          "internalType": "bool",
          "name": "",
          "type": "bool"
        }
      ],
      "stateMutability": "view",
      "type": "function"
    },
    {
      "inputs": [
        {
          "internalType": "bytes32",
          "name": "requestId",
          "type": "bytes32"
        }
      ],
      "name": "cancelRequest",
      "outputs": [],
      "stateMutability": "nonpayable",
      "type": "function"
    },
    {
      "inputs": [],
      "name": "defaultTimeout",
      "outputs": [
        {
          "internalType": "uint256",
          "name": "",
          "type": "uint256"
        }
      ],
      "stateMutability": "view",
      "type": "function"
    },
    {
      "inputs": [
        {
          "internalType": "bytes32",
          "name": "requestId",
          "type": "bytes32"
        },
        {
          "internalType": "bytes",
          "name": "result",
          "type": "bytes"
        },
        {
          "internalType": "bytes32",
          "name": "proofHash",
          "type": "bytes32"
        }
      ],
      "name": "fulfillRequest",
      "outputs": [],
      "stateMutability": "nonpayable",
      "type": "function"
    },
    {
      "inputs": [
        {
          "internalType": "bytes32",
          "name": "requestId",
          "type": "bytes32"
        }
      ],
      "name": "getRequest",
      "outputs": [
        {
          "components": [
            {
              "internalType": "address",
              "name": "requester",
              "type": "address"
            },
            {
              "internalType": "bytes32",
              "name": "modelHash",
              "type": "bytes32"
            },
            {
              "internalType": "bytes",
              "name": "inputData",
              "type": "bytes"
            },
            {
              "internalType": "uint256",
              "name": "reward",
              "type": "uint256"
            },
            {
              "internalType": "uint256",
              "name": "createdAt",
              "type": "uint256"
            },
            {
              "internalType": "uint256",
              "name": "deadline",
              "type": "uint256"
            },
            {
              "internalType": "enum AIOracle.RequestStatus",
              "name": "status",
              "type": "uint8"
            },
            {
              "internalType": "bytes",
              "name": "result",
              "type": "bytes"
            },
            {
              "internalType": "address",
              "name": "fulfiller",
              "type": "address"
            },
            {
              "internalType": "bytes32",
              "name": "proofHash",
              "type": "bytes32"
            }
          ],
          "internalType": "struct AIOracle.AIRequest",
          "name": "",
          "type": "tuple"
        }
      ],
      "stateMutability": "view",
      "type": "function"
    },
    {
      "inputs": [
        {
          "internalType": "bytes32",
          "name": "requestId",
          "type": "bytes32"
        }
      ],
      "name": "getResult",
      "outputs": [
        {
          "internalType": "bytes",
          "name": "result",
          "type": "bytes"
        },
        {
          "internalType": "bool",
          "name": "completed",
          "type": "bool"
        }
      ],
      "stateMutability": "view",
      "type": "function"
    },
    {
      "inputs": [
        {
          "internalType": "address",
          "name": "user",
          "type": "address"
        }
      ],
      "name": "getUserRequests",
      "outputs": [
        {
          "internalType": "bytes32[]",
          "name": "",
          "type": "bytes32[]"
        }
      ],
      "stateMutability": "view",
      "type": "function"
    },
    {
      "inputs": [
        {
          "internalType": "bytes32",
          "name": "modelHash",
          "type": "bytes32"
        }
      ],
      "name": "isModelApproved",
      "outputs": [
        {
          "internalType": "bool",
          "name": "",
          "type": "bool"
        }
      ],
      "stateMutability": "view",
      "type": "function"
    },
    {
      "inputs": [
        {
          "internalType": "bytes32",
          "name": "requestId",
          "type": "bytes32"
        }
      ],
      "name": "markExpired",
      "outputs": [],
      "stateMutability": "nonpayable",
      "type": "function"
    },
    {
      "inputs": [],
      "name": "owner",
      "outputs": [
        {
          "internalType": "address",
          "name": "",
          "type": "address"
        }
      ],
      "stateMutability": "view",
      "type": "function"
    },
    {
      "inputs": [],
      "name": "protocolFeeBps",
      "outputs": [
        {
          "internalType": "uint256",
          "name": "",
          "type": "uint256"
        }
      ],
      "stateMutability": "view",
      "type": "function"
    },
    {
      "inputs": [
        {
          "internalType": "address",
          "name": "fulfiller",
          "type": "address"
        }
      ],
      "name": "registerFulfiller",
      "outputs": [],
      "stateMutability": "nonpayable",
      "type": "function"
    },
    {
      "inputs": [
        {
          "internalType": "address",
          "name": "",
          "type": "address"
        }
      ],
      "name": "registeredFulfillers",
      "outputs": [
        {
          "internalType": "bool",
          "name": "",
          "type": "bool"
        }
      ],
      "stateMutability": "view",
      "type": "function"
    },
    {
      "inputs": [],
      "name": "renounceOwnership",
      "outputs": [],
      "stateMutability": "nonpayable",
      "type": "function"
    },
    {
      "inputs": [
        {
          "internalType": "bytes32",
          "name": "modelHash",
          "type": "bytes32"
        },
        {
          "internalType": "bytes",
          "name": "inputData",
          "type": "bytes"
        },
        {
          "internalType": "uint256",
          "name": "timeout",
          "type": "uint256"
        }
      ],
      "name": "requestAI",
      "outputs": [
        {
          "internalType": "bytes32",
          "name": "",
          "type": "bytes32"
        }
      ],
      "stateMutability": "payable",
      "type": "function"
    },
    {
      "inputs": [],
      "name": "requestCount",
      "outputs": [
        {
          "internalType": "uint256",
          "name": "",
          "type": "uint256"
        }
      ],
      "stateMutability": "view",
      "type": "function"
    },
    {
      "inputs": [
        {
          "internalType": "bytes32",
          "name": "",
          "type": "bytes32"
        }
      ],
      "name": "requests",
      "outputs": [
        {
          "internalType": "address",
          "name": "requester",
          "type": "address"
        },
        {
          "internalType": "bytes32",
          "name": "modelHash",
          "type": "bytes32"
        },
        {
          "internalType": "bytes",
          "name": "inputData",
          "type": "bytes"
        },
        {
          "internalType": "uint256",
          "name": "reward",
          "type": "uint256"
        },
        {
          "internalType": "uint256",
          "name": "createdAt",
          "type": "uint256"
        },
        {
          "internalType": "uint256",
          "name": "deadline",
          "type": "uint256"
        },
        {
          "internalType": "enum AIOracle.RequestStatus",
          "name": "status",
          "type": "uint8"
        },
        {
          "internalType": "bytes",
          "name": "result",
          "type": "bytes"
        },
        {
          "internalType": "address",
          "name": "fulfiller",
          "type": "address"
        },
        {
          "internalType": "bytes32",
          "name": "proofHash",
          "type": "bytes32"
        }
      ],
      "stateMutability": "view",
      "type": "function"
    },
    {
      "inputs": [],
      "name": "requireRegistration",
      "outputs": [
        {
          "internalType": "bool",
          "name": "",
          "type": "bool"
        }
      ],
      "stateMutability": "view",
      "type": "function"
    },
    {
      "inputs": [
        {
          "internalType": "address",
          "name": "fulfiller",
          "type": "address"
        }
      ],
      "name": "revokeFulfiller",
      "outputs": [],
      "stateMutability": "nonpayable",
      "type": "function"
    },
    {
      "inputs": [
        {
          "internalType": "bytes32",
          "name": "modelHash",
          "type": "bytes32"
        }
      ],
      "name": "revokeModel",
      "outputs": [],
      "stateMutability": "nonpayable",
      "type": "function"
    },
    {
      "inputs": [
        {
          "internalType": "uint256",
          "name": "_timeout",
          "type": "uint256"
        }
      ],
      "name": "setDefaultTimeout",
      "outputs": [],
      "stateMutability": "nonpayable",
      "type": "function"
    },
    {
      "inputs": [
        {
          "internalType": "uint256",
          "name": "_feeBps",
          "type": "uint256"
        }
      ],
      "name": "setProtocolFee",
      "outputs": [],
      "stateMutability": "nonpayable",
      "type": "function"
    },
    {
      "inputs": [
        {
          "internalType": "bool",
          "name": "required",
          "type": "bool"
        }
      ],
      "name": "setRequireRegistration",
      "outputs": [],
      "stateMutability": "nonpayable",
      "type": "function"
    },
    {
      "inputs": [
        {
          "internalType": "address",
          "name": "_verifier",
          "type": "address"
        }
      ],
      "name": "setZkMLVerifier",
      "outputs": [],
      "stateMutability": "nonpayable",
      "type": "function"
    },
    {
      "inputs": [
        {
          "internalType": "address",
          "name": "newOwner",
          "type": "address"
        }
      ],
      "name": "transferOwnership",
      "outputs": [],
      "stateMutability": "nonpayable",
      "type": "function"
    },
    {
      "inputs": [
        {
          "internalType": "address",
          "name": "",
          "type": "address"
        },
        {
          "internalType": "uint256",
          "name": "",
          "type": "uint256"
        }
      ],
      "name": "userRequests",
      "outputs": [
        {
          "internalType": "bytes32",
          "name": "",
          "type": "bytes32"
        }
      ],
      "stateMutability": "view",
      "type": "function"
    },
    {
      "inputs": [],
      "name": "withdrawFees",
      "outputs": [],
      "stateMutability": "nonpayable",
      "type": "function"
    },
    {
      "inputs": [],
      "name": "zkmlVerifier",
      "outputs": [
        {
          "internalType": "address",
          "name": "",
          "type": "address"
        }
      ],
      "stateMutability": "view",
      "type": "function"
    }
  ],
  "bytecode": "0x6080806040523461009557331561007f5760008054336001600160a01b03198216811783556040519290916001600160a01b0316907f8be0079c531659141344cd1fd0a4f28419497f9722a3daafe3b4186f6b6457e09080a36001805560646005556064600655600160ff19600b541617600b55611b10908161009b8239f35b631e4fbdf760e01b815260006004820152602490fd5b600080fdfe6080604052600436101561001257600080fd5b60003560e01c8063066655ef1461171457806309f3f566146116f6578063263cb6b61461169d5780632b9b4ada1461165e5780632c6c5866146115b85780633115129c1461103657806335659fb8146110185780633c81339414610fef578063476343ee14610f325780634b7716e314610ed65780634b9f24d8146103da5780635012554614610df8578063587f5ed714610dda5780635badbe4c14610dbc5780635fc76a0b14610d56578063715018a614610cfd578063717909b914610ca4578063787dce3d14610c1457806382ae0f97146107b257806387e0aeb2146106c15780638da5cb5b146106985780639d866985146105c4578063add4c78414610561578063b337cf74146104ad578063bf6b8ada14610474578063d8be38b61461040b578063da185c92146103da578063dfa6755a146103b7578063f2fde38b1461032e5763fb1e61ca1461016657600080fd5b3461032957602036600319011261032957600061012060405161018881611834565b828152826020820152606060408201528260608201528260808201528260a08201528260c0820152606060e082015282610100820152015260043560005260026020526040600020604051906101dd82611834565b80546001600160a01b031682526001810154602083015261020060028201611873565b60408301526003810154606083015260048101546080830152600581015460a083015260ff6006820154169060048210156103135760099160c084015261024960078201611873565b60e084015260018060a01b03600882015416610100840152015461012082015260405180916020825260018060a01b0381511660208301526020810151604083015260408101516101206102f56102ae61014093846060880152610160870190611919565b60608501516080870152608085015160a087015260a085015160c08701526102de60c086015160e0880190611959565b60e0850151868203601f1901610100880152611919565b6101008401516001600160a01b031685830152920151908301520390f35b634e487b7160e01b600052602160045260246000fd5b600080fd5b3461032957602036600319011261032957610347611788565b61034f611966565b6001600160a01b0390811690811561039e57600054826001600160601b0360a01b821617600055167f8be0079c531659141344cd1fd0a4f28419497f9722a3daafe3b4186f6b6457e0600080a3005b604051631e4fbdf760e01b815260006004820152602490fd5b3461032957600036600319011261032957602060ff600b54166040519015158152f35b34610329576020366003190112610329576004356000526004602052602060ff604060002054166040519015158152f35b3461032957602036600319011261032957610424611788565b61042c611966565b6001600160a01b03166000818152600a60205260408120805460ff191660011790557fcdaaba9255d6f3ffde8904bfa37a69ff111cad22550cc00a9b8c99f4be481e9d9080a2005b34610329576020366003190112610329576004358015158091036103295761049a611966565b60ff8019600b5416911617600b55600080f35b3461032957602080600319360112610329576001600160a01b036104cf611788565b1660005260038152604060002060405190818382549182815201908192600052846000209060005b8682821061054d57868661050d82880383611851565b604051928392818401908285525180915260408401929160005b82811061053657505050500390f35b835185528695509381019392810192600101610527565b8354855290930192600192830192016104f7565b34610329576020366003190112610329576004356000526002602052604060002060ff6006820154166004811015610313576105a260076105b99301611873565b906001604051938493604085526040850190611919565b911460208301520390f35b34610329576020366003190112610329576004356000526002602052604060002060018060a01b0390818154169060018101549261068761060760028401611873565b9160038401549061067a6004860154600587015460ff60068901541691610660600961063560078c01611873565b9660088c0154169a0154986040519c8d9c8d5260208d015260408c61014091829101528c0190611919565b9560608b015260808a015260a089015260c0880190611959565b85820360e0870152611919565b916101008401526101208301520390f35b34610329576000366003190112610329576000546040516001600160a01b039091168152602090f35b34610329576020366003190112610329576004356106dd611a0f565b8060005260026020526040600020600681019081549060ff821660048110156103135761070a9015611a32565b600581015443111561077b5760ff199091166002179091558054600390910154610750916000918291829182916001600160a01b03165af161074a611a6c565b50611a9c565b7f6fe0249982ec39ff41cbe0301e6c114eca4ebb1720320066b62d957f1163cbaa600080a260018055005b60405162461bcd60e51b815260206004820152600f60248201526e139bdd08195e1c1a5c9959081e595d608a1b6044820152606490fd5b346103295760603660031901126103295767ffffffffffffffff60248035828111610329576107e59036906004016117cc565b9190926107f0611a0f565b600435918260005260209160028352604060002094600686019660ff8854166004811015610bff576108229015611a32565b60058701544311610bc9578115610b965760ff600b5416610b3d575b6009546001600160a01b031680151580610b32575b6109f8575b506001978860ff19825416179055600787019282116109e35781906108878261088186546117fa565b866119bb565b600090601f831160011461098057600092610975575b5050600019600383901b1c191690871b1790555b60088401336001600160601b0360a01b8254161790556003604435948560098201550154906006548083029083820414831517156109605761271090049081830392831161094c575060008080807fb68acaadc409e87420a9dda716aca513f181d79ba21500902a72b44122acc5a4969561093161093f96600754611992565b600755335af161074a611a6c565b6040519384523393a38055005b634e487b7160e01b60009081526011600452fd5b50634e487b7160e01b60009081526011600452fd5b01359050888061089d565b899350601f1983169185600052876000209260005b898282106109cd57505084116109b3575b505050811b0190556108b1565b0135600019600384901b60f8161c191690558880806109a6565b8385013586558d97909501949283019201610995565b83634e487b7160e01b60005260416004526000fd5b60018801546040519160443588840152878352604083019183831087841117610b1d57604091839182845263e2dd674560e01b83526044860152608060648601528660c4860152868660e4870137600060e48887010152816000610a7360e4601f19601f8c0116890160a08a82030160848b01520188611919565b600260a4890152879003603f1901925af1918215610b1157600092610ad9575b505015610aa05788610858565b60405162461bcd60e51b8152600481018690526012818601527124b73b30b634b2103d35a6a610383937b7b360711b6044820152606490fd5b6040809293503d8311610b0a575b610af18185611851565b8101031261032957518015158103610329578980610a93565b503d610ae7565b6040513d6000823e3d90fd5b87634e487b7160e01b60005260416004526000fd5b506044351515610853565b33600052600a855260ff6040600020541661083e5760405162461bcd60e51b8152600481018690526018818601527f4e6f7420726567697374657265642066756c66696c6c657200000000000000006044820152606490fd5b60405162461bcd60e51b815260048101869052600c818601526b115b5c1d1e481c995cdd5b1d60a21b6044820152606490fd5b60405162461bcd60e51b815260048101869052600f818601526e14995c5d595cdd08195e1c1a5c9959608a1b6044820152606490fd5b84634e487b7160e01b60005260216004526000fd5b3461032957602036600319011261032957600435610c30611966565b6103e88111610c70577fb404cac19fb1cbeff98d325795b08886e3cd8fe8cb1a2f193aac66f13fb239c360406006548151908152836020820152a1600655005b60405162461bcd60e51b815260206004820152600c60248201526b08ccaca40e8dede40d0d2ced60a31b6044820152606490fd5b3461032957602036600319011261032957600435610cc0611966565b806000526004602052604060002060ff1981541690557f0ce0cd684ed1c15a1013dab20bed811fa182d3e28342b5be924d2cef7a103bb1600080a2005b3461032957600036600319011261032957610d16611966565b600080546001600160a01b0319811682556001600160a01b03167f8be0079c531659141344cd1fd0a4f28419497f9722a3daafe3b4186f6b6457e08280a3005b3461032957602036600319011261032957610d6f611788565b610d77611966565b6001600160a01b03166000818152600a60205260408120805460ff191690557fc30396c3bf4a2a7d14191db421dfb27d5e6ca6031ac02d6e0aa4a3c3f026f24c9080a2005b34610329576000366003190112610329576020600854604051908152f35b34610329576000366003190112610329576020600754604051908152f35b3461032957602036600319011261032957600435610e14611a0f565b600081815260026020526040902080546001600160a01b03163303610ea157600681019081549060ff82169260048410156103135760008060038194829482610e7698610e628c9b15611a32565b60ff19161790550154335af161074a611a6c565b7f1f29b89ae1587d701cb5136665b2e833ac2fc99ddb4481e1083ade509bcfeac1600080a260018055005b60405162461bcd60e51b815260206004820152600d60248201526c2737ba103932b8bab2b9ba32b960991b6044820152606490fd5b3461032957602036600319011261032957600435610ef2611966565b8060005260046020526040600020600160ff198254161790557f6d29aa35cc15482f5e65960776a66652041832392a7d89e3f1488b4e40d15284600080a2005b3461032957600036600319011261032957610f4b611966565b610f53611a0f565b6007548015610fb45760006007557fc0819c13be868895eb93e40eaceb96de976442fa1d404e5c55f14bb65a8c489a602060018060a01b03610fa2600080808088868254165af161074a611a6c565b6000541692604051908152a260018055005b60405162461bcd60e51b81526020600482015260136024820152724e6f206665657320746f20776974686472617760681b6044820152606490fd5b34610329576000366003190112610329576009546040516001600160a01b039091168152602090f35b34610329576000366003190112610329576020600654604051908152f35b60603660031901126103295760243567ffffffffffffffff8111610329576110629036906004016117cc565b906044359061106f611a0f565b341561158057600435600052600460205260ff60406000205416801561156c575b156115325782156114ff5761271083116114c85760085460001981146114b2576001810160085560405160208101913360601b8352600435603483015242605483015260748201526074815260a0810181811067ffffffffffffffff821117611395576040525190209180156114a65761110b905b43611992565b604051906020820182811067ffffffffffffffff82111761139557604052600082526040519461113a86611834565b338652600435602087015261114e8161199f565b9361115c6040519586611851565b8185523682820111610329578160009260209283880137850101526040850192835234606086015242608086015260a0850152600060c085015260e08401526000610100840152600061012084015281600052600260205260406000209060018060a01b038451166001600160601b0360a01b835416178255602084015160018301555192835167ffffffffffffffff81116113955761120c8161120360028601546117fa565b600286016119bb565b6020601f821160011461143757819293949560009261142c575b50508160011b916000199060031b1c19161760028301555b606081015160038301556080810151600483015560a081015160058301556006820160c082015160048110156103135760ff8019835416911617905560e081015180519067ffffffffffffffff8211611395576112ab826112a260078701546117fa565b600787016119bb565b602090601f83116001146113b657918060099492610120946000926113ab575b50508160011b916000199060031b1c19161760078501555b6008840160018060a01b03610100830151166001600160601b0360a01b825416179055015191015533600052600360205260406000209081549168010000000000000000831015611395578261134091600160209501815561179e565b81549060031b9083821b91600019901b191617905560405160043581523483820152817f73379e0eb0a8c43416b93a5ad73c8f23ed1b510614ad484efdad08b000e357a960403393a360018055604051908152f35b634e487b7160e01b600052604160045260246000fd5b0151905087806112cb565b906007850160005260206000209160005b601f1985168110611414575092600994926001926101209583601f198116106113fb575b505050811b0160078501556112e3565b015160001960f88460031b161c191690558780806113eb565b919260206001819286850151815501940192016113c7565b015190508580611226565b6002840160005260206000209060005b601f198416811061148e575060019394959683601f19811610611475575b505050811b01600283015561123e565b015160001960f88460031b161c19169055858080611465565b9091602060018192858b015181550193019101611447565b5061110b600554611105565b634e487b7160e01b600052601160045260246000fd5b60405162461bcd60e51b815260206004820152600f60248201526e496e70757420746f6f206c6172676560881b6044820152606490fd5b60405162461bcd60e51b815260206004820152600b60248201526a115b5c1d1e481a5b9c1d5d60aa1b6044820152606490fd5b60405162461bcd60e51b8152602060048201526012602482015271135bd9195b081b9bdd08185c1c1c9bdd995960721b6044820152606490fd5b506000546001600160a01b03163314611090565b60405162461bcd60e51b815260206004820152601060248201526f14185e5b595b9d081c995c5d5a5c995960821b6044820152606490fd5b34610329576020366003190112610329576004356115d4611966565b600a81101580611652575b1561161b577f0b4c82669eaf4a3452c1acc580e4bef88cd0e230e96aa78c54ef911e6dc73b9f60406005548151908152836020820152a1600555005b60405162461bcd60e51b815260206004820152600f60248201526e125b9d985b1a59081d1a5b595bdd5d608a1b6044820152606490fd5b506127108111156115df565b34610329576020366003190112610329576001600160a01b0361167f611788565b16600052600a602052602060ff604060002054166040519015158152f35b34610329576040366003190112610329576116b6611788565b6001600160a01b0316600090815260036020526040902080546024359190821015610329576020916116e79161179e565b90549060031b1c604051908152f35b34610329576000366003190112610329576020600554604051908152f35b346103295760203660031901126103295761172d611788565b611735611966565b600954604080516001600160a01b03808416825290931660208401819052927f016d6f9ae42146c8392668fc0cfa143edfac72b1c90acff1c61f04c3da1793019190a16001600160a01b03191617600955005b600435906001600160a01b038216820361032957565b80548210156117b65760005260206000200190600090565b634e487b7160e01b600052603260045260246000fd5b9181601f840112156103295782359167ffffffffffffffff8311610329576020838186019501011161032957565b90600182811c9216801561182a575b602083101461181457565b634e487b7160e01b600052602260045260246000fd5b91607f1691611809565b610140810190811067ffffffffffffffff82111761139557604052565b90601f8019910116810190811067ffffffffffffffff82111761139557604052565b9060405191826000825492611887846117fa565b9081845260019485811690816000146118f657506001146118b3575b50506118b192500383611851565b565b9093915060005260209081600020936000915b8183106118de5750506118b1935082010138806118a3565b855488840185015294850194879450918301916118c6565b9150506118b194506020925060ff191682840152151560051b82010138806118a3565b919082519283825260005b848110611945575050826000602080949584010152601f8019910116010190565b602081830181015184830182015201611924565b9060048210156103135752565b6000546001600160a01b0316330361197a57565b60405163118cdaa760e01b8152336004820152602490fd5b919082018092116114b257565b67ffffffffffffffff811161139557601f01601f191660200190565b90601f81116119c957505050565b600091825260208220906020601f850160051c83019410611a05575b601f0160051c01915b8281106119fa57505050565b8181556001016119ee565b90925082906119e5565b600260015414611a20576002600155565b604051633ee5aeb560e01b8152600490fd5b15611a3957565b60405162461bcd60e51b815260206004820152600b60248201526a4e6f742070656e64696e6760a81b6044820152606490fd5b3d15611a97573d90611a7d8261199f565b91611a8b6040519384611851565b82523d6000602084013e565b606090565b15611aa357565b60405162461bcd60e51b815260206004820152600f60248201526e151c985b9cd9995c8819985a5b1959608a1b6044820152606490fdfea2646970667358221220828bfd5c80bdacb960ea7f6b20fcfdf848d6fb3746e4a6b3fbe47d5c795ef70164736f6c63430008140033",
  "linkReferences": {},
  "deployedLinkReferences": {}
}