{
  "_format": "hh-sol-artifact-1",
  "contractName": "AIOracle",
  "sourceName": "src/templates/AIOracle.sol",
  "abi": [
    {
      "inputs": [],
      "stateMutability": "nonpayable",
      "type": "constructor"
    },
    {
      "inputs": [
        {
          "internalType": "address",
          "name": "owner",
          "type": "address"
        }
      ],
      "name": "OwnableInvalidOwner",
      "type": "error"
    },
    {
      "inputs": [
        {
          "internalType": "address",
          "name": "account",
          "type": "address"
        }
      ],
      "name": "OwnableUnauthorizedAccount",
      "type": "error"
    },
    {
      "inputs": [],
      "name": "ReentrancyGuardReentrantCall",
      "type": "error"
    },
    {
      "anonymous": false,
      "inputs": [
        {
          "indexed": true,
          "internalType": "bytes32",
          "name": "requestId",
          "type": "bytes32"
        }
      ],
      "name": "AIRequestCancelled",
      "type": "event"
    },
    {
      "anonymous": false,
      "inputs": [
        {
          "indexed": true,
          "internalType": "bytes32",
          "name": "requestId",
          "type": "bytes32"
        },
        {
          "indexed": true,
          "internalType": "address",
          "name": "requester",
          "type": "address"
        },
        {
          "indexed": false,
          "internalType": "bytes32",
          "name": "modelHash",
          "type": "bytes32"
        },
        {
          "indexed": false,
          "internalType": "uint256",
          "name": "reward",
          "type": "uint256"
        }
      ],
      "name": "AIRequestCreated",
      "type": "event"
    },
    {
      "anonymous": false,
      "inputs": [
        {
          "indexed": true,
          "internalType": "bytes32",
          "name": "requestId",
          "type": "bytes32"
        }
      ],
      "name": "AIRequestExpired",
      "type": "event"
    },
    {
      "anonymous": false,
      "inputs": [
        {
          "indexed": true,
          "internalType": "bytes32",
          "name": "requestId",
          "type": "bytes32"
        },
        {
          "indexed": true,
          "internalType": "address",
          "name": "fulfiller",
          "type": "address"
        },
        {
          "indexed": false,
          "internalType": "bytes32",
          "name": "proofHash",
          "type": "bytes32"
        }
      ],
      "name": "AIRequestFulfilled",
      "type": "event"
    },
    {
      "anonymous": false,
      "inputs": [
        {
          "indexed": true,
          "internalType": "bytes32",
          "name": "modelHash",
          "type": "bytes32"
        }
      ],
      "name": "ModelApproved",
      "type": "event"
    },
    {
      "anonymous": false,
      "inputs": [
        {
          "indexed": true,
          "internalType": "bytes32",
          "name": "modelHash",
          "type": "bytes32"
        }
      ],
      "name": "ModelRevoked",
      "type": "event"
    },
    {
      "anonymous": false,
      "inputs": [
        {
          "indexed": true,
          "internalType": "address",
          "name": "previousOwner",
          "type": "address"
        },
        {
          "indexed": true,
          "internalType": "address",
          "name": "newOwner",
          "type": "address"
        }
      ],
      "name": "OwnershipTransferred",
      "type": "event"
    },
    {
      "inputs": [],
      "name": "accumulatedFees",
      "outputs": [
        {
          "internalType": "uint256",
          "name": "",
          "type": "uint256"
        }
      ],
      "stateMutability": "view",
      "type": "function"
    },
    {
      "inputs": [
        {
          "internalType": "bytes32",
          "name": "modelHash",
          "type": "bytes32"
        }
      ],
      "name": "approveModel",
      "outputs": [],
      "stateMutability": "nonpayable",
      "type": "function"
    },
    {
      "inputs": [
        {
          "internalType": "bytes32",
          "name": "",
          "type": "bytes32"
        }
      ],
      "name": "approvedModels",
      "outputs": [
        {
          "internalType": "bool",
          "name": "",
          "type": "bool"
        }
      ],
      "stateMutability": "view",
      "type": "function"
    },
    {
      "inputs": [
        {
          "internalType": "bytes32",
          "name": "requestId",
          "type": "bytes32"
        }
      ],
      "name": "cancelRequest",
      "outputs": [],
      "stateMutability": "nonpayable",
      "type": "function"
    },
    {
      "inputs": [],
      "name": "defaultTimeout",
      "outputs": [
        {
          "internalType": "uint256",
          "name": "",
          "type": "uint256"
        }
      ],
      "stateMutability": "view",
      "type": "function"
    },
    {
      "inputs": [
        {
          "internalType": "bytes32",
          "name": "requestId",
          "type": "bytes32"
        },
        {
          "internalType": "bytes",
          "name": "result",
          "type": "bytes"
        },
        {
          "internalType": "bytes32",
          "name": "proofHash",
          "type": "bytes32"
        }
      ],
      "name": "fulfillRequest",
      "outputs": [],
      "stateMutability": "nonpayable",
      "type": "function"
    },
    {
      "inputs": [
        {
          "internalType": "bytes32",
          "name": "requestId",
          "type": "bytes32"
        }
      ],
      "name": "getRequest",
      "outputs": [
        {
          "components": [
            {
              "internalType": "address",
              "name": "requester",
              "type": "address"
            },
            {
              "internalType": "bytes32",
              "name": "modelHash",
              "type": "bytes32"
            },
            {
              "internalType": "bytes",
              "name": "inputData",
              "type": "bytes"
            },
            {
              "internalType": "uint256",
              "name": "reward",
              "type": "uint256"
            },
            {
              "internalType": "uint256",
              "name": "createdAt",
              "type": "uint256"
            },
            {
              "internalType": "uint256",
              "name": "deadline",
              "type": "uint256"
            },
            {
              "internalType": "enum AIOracle.RequestStatus",
              "name": "status",
              "type": "uint8"
            },
            {
              "internalType": "bytes",
              "name": "result",
              "type": "bytes"
            },
            {
              "internalType": "address",
              "name": "fulfiller",
              "type": "address"
            },
            {
              "internalType": "bytes32",
              "name": "proofHash",
              "type": "bytes32"
            }
          ],
          "internalType": "struct AIOracle.AIRequest",
          "name": "",
          "type": "tuple"
        }
      ],
      "stateMutability": "view",
      "type": "function"
    },
    {
      "inputs": [
        {
          "internalType": "bytes32",
          "name": "requestId",
          "type": "bytes32"
        }
      ],
      "name": "getResult",
      "outputs": [
        {
          "internalType": "bytes",
          "name": "result",
          "type": "bytes"
        },
        {
          "internalType": "bool",
          "name": "completed",
          "type": "bool"
        }
      ],
      "stateMutability": "view",
      "type": "function"
    },
    {
      "inputs": [
        {
          "internalType": "address",
          "name": "user",
          "type": "address"
        }
      ],
      "name": "getUserRequests",
      "outputs": [
        {
          "internalType": "bytes32[]",
          "name": "",
          "type": "bytes32[]"
        }
      ],
      "stateMutability": "view",
      "type": "function"
    },
    {
      "inputs": [
        {
          "internalType": "bytes32",
          "name": "modelHash",
          "type": "bytes32"
        }
      ],
      "name": "isModelApproved",
      "outputs": [
        {
          "internalType": "bool",
          "name": "",
          "type": "bool"
        }
      ],
      "stateMutability": "view",
      "type": "function"
    },
    {
      "inputs": [
        {
          "internalType": "bytes32",
          "name": "requestId",
          "type": "bytes32"
        }
      ],
      "name": "markExpired",
      "outputs": [],
      "stateMutability": "nonpayable",
      "type": "function"
    },
    {
      "inputs": [],
      "name": "minFulfillerStake",
      "outputs": [
        {
          "internalType": "uint256",
          "name": "",
          "type": "uint256"
        }
      ],
      "stateMutability": "view",
      "type": "function"
    },
    {
      "inputs": [],
      "name": "owner",
      "outputs": [
        {
          "internalType": "address",
          "name": "",
          "type": "address"
        }
      ],
      "stateMutability": "view",
      "type": "function"
    },
    {
      "inputs": [],
      "name": "protocolFeeBps",
      "outputs": [
        {
          "internalType": "uint256",
          "name": "",
          "type": "uint256"
        }
      ],
      "stateMutability": "view",
      "type": "function"
    },
    {
      "inputs": [],
      "name": "renounceOwnership",
      "outputs": [],
      "stateMutability": "nonpayable",
      "type": "function"
    },
    {
      "inputs": [
        {
          "internalType": "bytes32",
          "name": "modelHash",
          "type": "bytes32"
        },
        {
          "internalType": "bytes",
          "name": "inputData",
          "type": "bytes"
        },
        {
          "internalType": "uint256",
          "name": "timeout",
          "type": "uint256"
        }
      ],
      "name": "requestAI",
      "outputs": [
        {
          "internalType": "bytes32",
          "name": "",
          "type": "bytes32"
        }
      ],
      "stateMutability": "payable",
      "type": "function"
    },
    {
      "inputs": [],
      "name": "requestCount",
      "outputs": [
        {
          "internalType": "uint256",
          "name": "",
          "type": "uint256"
        }
      ],
      "stateMutability": "view",
      "type": "function"
    },
    {
      "inputs": [
        {
          "internalType": "bytes32",
          "name": "",
          "type": "bytes32"
        }
      ],
      "name": "requests",
      "outputs": [
        {
          "internalType": "address",
          "name": "requester",
          "type": "address"
        },
        {
          "internalType": "bytes32",
          "name": "modelHash",
          "type": "bytes32"
        },
        {
          "internalType": "bytes",
          "name": "inputData",
          "type": "bytes"
        },
        {
          "internalType": "uint256",
          "name": "reward",
          "type": "uint256"
        },
        {
          "internalType": "uint256",
          "name": "createdAt",
          "type": "uint256"
        },
        {
          "internalType": "uint256",
          "name": "deadline",
          "type": "uint256"
        },
        {
          "internalType": "enum AIOracle.RequestStatus",
          "name": "status",
          "type": "uint8"
        },
        {
          "internalType": "bytes",
          "name": "result",
          "type": "bytes"
        },
        {
          "internalType": "address",
          "name": "fulfiller",
          "type": "address"
        },
        {
          "internalType": "bytes32",
          "name": "proofHash",
          "type": "bytes32"
        }
      ],
      "stateMutability": "view",
      "type": "function"
    },
    {
      "inputs": [
        {
          "internalType": "bytes32",
          "name": "modelHash",
          "type": "bytes32"
        }
      ],
      "name": "revokeModel",
      "outputs": [],
      "stateMutability": "nonpayable",
      "type": "function"
    },
    {
      "inputs": [
        {
          "internalType": "uint256",
          "name": "_timeout",
          "type": "uint256"
        }
      ],
      "name": "setDefaultTimeout",
      "outputs": [],
      "stateMutability": "nonpayable",
      "type": "function"
    },
    {
      "inputs": [
        {
          "internalType": "uint256",
          "name": "_feeBps",
          "type": "uint256"
        }
      ],
      "name": "setProtocolFee",
      "outputs": [],
      "stateMutability": "nonpayable",
      "type": "function"
    },
    {
      "inputs": [
        {
          "internalType": "address",
          "name": "_verifier",
          "type": "address"
        }
      ],
      "name": "setZkMLVerifier",
      "outputs": [],
      "stateMutability": "nonpayable",
      "type": "function"
    },
    {
      "inputs": [
        {
          "internalType": "address",
          "name": "newOwner",
          "type": "address"
        }
      ],
      "name": "transferOwnership",
      "outputs": [],
      "stateMutability": "nonpayable",
      "type": "function"
    },
    {
      "inputs": [
        {
          "internalType": "address",
          "name": "",
          "type": "address"
        },
        {
          "internalType": "uint256",
          "name": "",
          "type": "uint256"
        }
      ],
      "name": "userRequests",
      "outputs": [
        {
          "internalType": "bytes32",
          "name": "",
          "type": "bytes32"
        }
      ],
      "stateMutability": "view",
      "type": "function"
    },
    {
      "inputs": [],
      "name": "withdrawFees",
      "outputs": [],
      "stateMutability": "nonpayable",
      "type": "function"
    },
    {
      "inputs": [],
      "name": "zkmlVerifier",
      "outputs": [
        {
          "internalType": "address",
          "name": "",
          "type": "address"
        }
      ],
      "stateMutability": "view",
      "type": "function"
    }
  ],
  "bytecode": "0x60806040526064600655606460075534801561001a57600080fd5b50338061004157604051631e4fbdf760e01b81526000600482015260240160405180910390fd5b61004a81610054565b50600180556100a4565b600080546001600160a01b038381166001600160a01b0319831681178455604051919092169283917f8be0079c531659141344cd1fd0a4f28419497f9722a3daafe3b4186f6b6457e09190a35050565b611ad5806100b36000396000f3fe6080604052600436106101815760003560e01c80635badbe4c116100d15780638da5cb5b1161008a578063b337cf7411610064578063b337cf7414610460578063da185c921461048d578063f2fde38b146104bd578063fb1e61ca146104dd57600080fd5b80638da5cb5b146103de5780639d866985146103fc578063add4c7841461043257600080fd5b80635badbe4c14610333578063715018a614610349578063717909b91461035e578063787dce3d1461037e57806382ae0f971461039e57806387e0aeb2146103be57600080fd5b806335659fb81161013e5780634b7716e3116101185780634b7716e31461029d5780634b9f24d8146102bd57806350125546146102fd578063587f5ed71461031d57600080fd5b806335659fb81461023a5780633c81339414610250578063476343ee1461028857600080fd5b8063066655ef1461018657806309f3f566146101a857806321c39b36146101d1578063263cb6b6146101e75780632c6c5866146102075780633115129c14610227575b600080fd5b34801561019257600080fd5b506101a66101a13660046114a1565b61050a565b005b3480156101b457600080fd5b506101be60065481565b6040519081526020015b60405180910390f35b3480156101dd57600080fd5b506101be60055481565b3480156101f357600080fd5b506101be6102023660046114c3565b610534565b34801561021357600080fd5b506101a66102223660046114ed565b610565565b6101be61023536600461154f565b6105c8565b34801561024657600080fd5b506101be60075481565b34801561025c57600080fd5b50600a54610270906001600160a01b031681565b6040516001600160a01b0390911681526020016101c8565b34801561029457600080fd5b506101a6610973565b3480156102a957600080fd5b506101a66102b83660046114ed565b6109d2565b3480156102c957600080fd5b506102ed6102d83660046114ed565b60009081526004602052604090205460ff1690565b60405190151581526020016101c8565b34801561030957600080fd5b506101a66103183660046114ed565b610a1d565b34801561032957600080fd5b506101be60085481565b34801561033f57600080fd5b506101be60095481565b34801561035557600080fd5b506101a6610b2d565b34801561036a57600080fd5b506101a66103793660046114ed565b610b41565b34801561038a57600080fd5b506101a66103993660046114ed565b610b89565b3480156103aa57600080fd5b506101a66103b936600461154f565b610bd7565b3480156103ca57600080fd5b506101a66103d93660046114ed565b610da7565b3480156103ea57600080fd5b506000546001600160a01b0316610270565b34801561040857600080fd5b5061041c6104173660046114ed565b610ead565b6040516101c89a99989796959493929190611620565b34801561043e57600080fd5b5061045261044d3660046114ed565b611028565b6040516101c892919061169b565b34801561046c57600080fd5b5061048061047b3660046114a1565b6110f0565b6040516101c891906116bf565b34801561049957600080fd5b506102ed6104a83660046114ed565b60046020526000908152604090205460ff1681565b3480156104c957600080fd5b506101a66104d83660046114a1565b61115c565b3480156104e957600080fd5b506104fd6104f83660046114ed565b611197565b6040516101c89190611703565b61051261136f565b600a80546001600160a01b0319166001600160a01b0392909216919091179055565b6003602052816000526040600020818154811061055057600080fd5b90600052602060002001600091509150505481565b61056d61136f565b600a811015801561058057506127108111155b6105c35760405162461bcd60e51b815260206004820152600f60248201526e125b9d985b1a59081d1a5b595bdd5d608a1b60448201526064015b60405180910390fd5b600655565b60006105d261139c565b600034116106155760405162461bcd60e51b815260206004820152601060248201526f14185e5b595b9d081c995c5d5a5c995960821b60448201526064016105ba565b60008581526004602052604090205460ff168061064b5750336106406000546001600160a01b031690565b6001600160a01b0316145b61068c5760405162461bcd60e51b8152602060048201526012602482015271135bd9195b081b9bdd08185c1c1c9bdd995960721b60448201526064016105ba565b826106c75760405162461bcd60e51b815260206004820152600b60248201526a115b5c1d1e481a5b9c1d5d60aa1b60448201526064016105ba565b61271083111561070b5760405162461bcd60e51b815260206004820152600f60248201526e496e70757420746f6f206c6172676560881b60448201526064016105ba565b600033864260096000815480929190610723906117dc565b9091555060405160609490941b6bffffffffffffffffffffffff19166020850152603484019290925260548301526074820152609401604051602081830303815290604052805190602001209050600080841161078257600654610784565b835b9050604051806101400160405280336001600160a01b0316815260200188815260200187878080601f0160208091040260200160405190810160405280939291908181526020018383808284376000920191909152505050908252503460208201524260408201526060016107f983436117f5565b81526000602080830182905260408051838152808301825281850152606084018390526080909301829052858252600280825291839020845181546001600160a01b0319166001600160a01b03909116178155908401516001820155918301519082019061086790826118ad565b50606082015181600301556080820151816004015560a0820151816005015560c08201518160060160006101000a81548160ff021916908360038111156108b0576108b06115e8565b021790555060e082015160078201906108c990826118ad565b506101008201516008820180546001600160a01b0319166001600160a01b039092169190911790556101209091015160099091015533600081815260036020908152604080832080546001810182559084529282902090920185905581518a8152349181019190915284917f73379e0eb0a8c43416b93a5ad73c8f23ed1b510614ad484efdad08b000e357a9910160405180910390a350905061096b60018055565b949350505050565b61097b61136f565b6008805460009091556109966000546001600160a01b031690565b6001600160a01b03166108fc829081150290604051600060405180830381858888f193505050501580156109ce573d6000803e3d6000fd5b5050565b6109da61136f565b600081815260046020526040808220805460ff191660011790555182917f6d29aa35cc15482f5e65960776a66652041832392a7d89e3f1488b4e40d1528491a250565b610a2561139c565b600081815260026020526040902080546001600160a01b03163314610a7c5760405162461bcd60e51b815260206004820152600d60248201526c2737ba103932b8bab2b9ba32b960991b60448201526064016105ba565b6000600682015460ff166003811115610a9757610a976115e8565b14610ab45760405162461bcd60e51b81526004016105ba9061196d565b60068101805460ff1916600390811790915581015460405133916108fc811502916000818181858888f19350505050158015610af4573d6000803e3d6000fd5b5060405182907f1f29b89ae1587d701cb5136665b2e833ac2fc99ddb4481e1083ade509bcfeac190600090a250610b2a60018055565b50565b610b3561136f565b610b3f60006113c6565b565b610b4961136f565b600081815260046020526040808220805460ff191690555182917f0ce0cd684ed1c15a1013dab20bed811fa182d3e28342b5be924d2cef7a103bb191a250565b610b9161136f565b6103e8811115610bd25760405162461bcd60e51b815260206004820152600c60248201526b08ccaca40e8dede40d0d2ced60a31b60448201526064016105ba565b600755565b610bdf61139c565b600084815260026020526040812090600682015460ff166003811115610c0757610c076115e8565b14610c245760405162461bcd60e51b81526004016105ba9061196d565b8060050154431115610c6a5760405162461bcd60e51b815260206004820152600f60248201526e14995c5d595cdd08195e1c1a5c9959608a1b60448201526064016105ba565b82610ca65760405162461bcd60e51b815260206004820152600c60248201526b115b5c1d1e481c995cdd5b1d60a21b60448201526064016105ba565b60068101805460ff1916600117905560078101610cc4848683611992565b506008810180546001600160a01b0319163317905560098101829055600754600382015460009161271091610cf99190611a53565b610d039190611a6a565b90506000818360030154610d179190611a8c565b90508160086000828254610d2b91906117f5565b9091555050604051339082156108fc029083906000818181858888f19350505050158015610d5d573d6000803e3d6000fd5b50604051848152339088907fb68acaadc409e87420a9dda716aca513f181d79ba21500902a72b44122acc5a49060200160405180910390a3505050610da160018055565b50505050565b600081815260026020526040812090600682015460ff166003811115610dcf57610dcf6115e8565b14610dec5760405162461bcd60e51b81526004016105ba9061196d565b80600501544311610e315760405162461bcd60e51b815260206004820152600f60248201526e139bdd08195e1c1a5c9959081e595d608a1b60448201526064016105ba565b60068101805460ff19166002179055805460038201546040516001600160a01b03909216916108fc82150291906000818181858888f19350505050158015610e7d573d6000803e3d6000fd5b5060405182907f6fe0249982ec39ff41cbe0301e6c114eca4ebb1720320066b62d957f1163cbaa90600090a25050565b60026020819052600091825260409091208054600182015492820180546001600160a01b03909216939291610ee190611824565b80601f0160208091040260200160405190810160405280929190818152602001828054610f0d90611824565b8015610f5a5780601f10610f2f57610100808354040283529160200191610f5a565b820191906000526020600020905b815481529060010190602001808311610f3d57829003601f168201915b50505060038401546004850154600586015460068701546007880180549798949793965091945060ff169291610f8f90611824565b80601f0160208091040260200160405190810160405280929190818152602001828054610fbb90611824565b80156110085780601f10610fdd57610100808354040283529160200191611008565b820191906000526020600020905b815481529060010190602001808311610feb57829003601f168201915b50505050600883015460099093015491926001600160a01b03169190508a565b600081815260026020526040812060609190600781016001600683015460ff166003811115611059576110596115e8565b1481805461106690611824565b80601f016020809104026020016040519081016040528092919081815260200182805461109290611824565b80156110df5780601f106110b4576101008083540402835291602001916110df565b820191906000526020600020905b8154815290600101906020018083116110c257829003601f168201915b505050505091509250925050915091565b6001600160a01b03811660009081526003602090815260409182902080548351818402810184019094528084526060939283018282801561115057602002820191906000526020600020905b81548152602001906001019080831161113c575b50505050509050919050565b61116461136f565b6001600160a01b03811661118e57604051631e4fbdf760e01b8152600060048201526024016105ba565b610b2a816113c6565b61119f611416565b60008281526002602081815260409283902083516101408101855281546001600160a01b03168152600182015492810192909252918201805491938401916111e690611824565b80601f016020809104026020016040519081016040528092919081815260200182805461121290611824565b801561125f5780601f106112345761010080835404028352916020019161125f565b820191906000526020600020905b81548152906001019060200180831161124257829003601f168201915b505050918352505060038281015460208301526004830154604083015260058301546060830152600683015460809092019160ff16908111156112a4576112a46115e8565b60038111156112b5576112b56115e8565b81526020016007820180546112c990611824565b80601f01602080910402602001604051908101604052809291908181526020018280546112f590611824565b80156113425780601f1061131757610100808354040283529160200191611342565b820191906000526020600020905b81548152906001019060200180831161132557829003601f168201915b505050918352505060088201546001600160a01b0316602082015260099091015460409091015292915050565b6000546001600160a01b03163314610b3f5760405163118cdaa760e01b81523360048201526024016105ba565b6002600154036113bf57604051633ee5aeb560e01b815260040160405180910390fd5b6002600155565b600080546001600160a01b038381166001600160a01b0319831681178455604051919092169283917f8be0079c531659141344cd1fd0a4f28419497f9722a3daafe3b4186f6b6457e09190a35050565b60405180610140016040528060006001600160a01b0316815260200160008019168152602001606081526020016000815260200160008152602001600081526020016000600381111561146b5761146b6115e8565b815260606020820181905260006040830181905291015290565b80356001600160a01b038116811461149c57600080fd5b919050565b6000602082840312156114b357600080fd5b6114bc82611485565b9392505050565b600080604083850312156114d657600080fd5b6114df83611485565b946020939093013593505050565b6000602082840312156114ff57600080fd5b5035919050565b60008083601f84011261151857600080fd5b50813567ffffffffffffffff81111561153057600080fd5b60208301915083602082850101111561154857600080fd5b9250929050565b6000806000806060858703121561156557600080fd5b84359350602085013567ffffffffffffffff81111561158357600080fd5b61158f87828801611506565b9598909750949560400135949350505050565b6000815180845260005b818110156115c8576020818501810151868301820152016115ac565b506000602082860101526020601f19601f83011685010191505092915050565b634e487b7160e01b600052602160045260246000fd5b6004811061161c57634e487b7160e01b600052602160045260246000fd5b9052565b6001600160a01b038b81168252602082018b90526101406040830181905260009161164d8483018d6115a2565b91508a60608501528960808501528860a085015261166e60c08501896115fe565b83820360e085015261168082886115a2565b95166101008401525050610120015298975050505050505050565b6040815260006116ae60408301856115a2565b905082151560208301529392505050565b6020808252825182820181905260009190848201906040850190845b818110156116f7578351835292840192918401916001016116db565b50909695505050505050565b6020815261171d6020820183516001600160a01b03169052565b60208201516040820152600060408301516101408060608501526117456101608501836115a2565b915060608501516080850152608085015160a085015260a085015160c085015260c085015161177760e08601826115fe565b5060e0850151610100601f19868503018187015261179584836115a2565b9350808701519150506101206117b5818701836001600160a01b03169052565b959095015193019290925250919050565b634e487b7160e01b600052601160045260246000fd5b6000600182016117ee576117ee6117c6565b5060010190565b80820180821115611808576118086117c6565b92915050565b634e487b7160e01b600052604160045260246000fd5b600181811c9082168061183857607f821691505b60208210810361185857634e487b7160e01b600052602260045260246000fd5b50919050565b601f8211156118a857600081815260208120601f850160051c810160208610156118855750805b601f850160051c820191505b818110156118a457828155600101611891565b5050505b505050565b815167ffffffffffffffff8111156118c7576118c761180e565b6118db816118d58454611824565b8461185e565b602080601f83116001811461191057600084156118f85750858301515b600019600386901b1c1916600185901b1785556118a4565b600085815260208120601f198616915b8281101561193f57888601518255948401946001909101908401611920565b508582101561195d5787850151600019600388901b60f8161c191681555b5050505050600190811b01905550565b6020808252600b908201526a4e6f742070656e64696e6760a81b604082015260600190565b67ffffffffffffffff8311156119aa576119aa61180e565b6119be836119b88354611824565b8361185e565b6000601f8411600181146119f257600085156119da5750838201355b600019600387901b1c1916600186901b178355611a4c565b600083815260209020601f19861690835b82811015611a235786850135825560209485019460019092019101611a03565b5086821015611a405760001960f88860031b161c19848701351681555b505060018560011b0183555b5050505050565b8082028115828204841417611808576118086117c6565b600082611a8757634e487b7160e01b600052601260045260246000fd5b500490565b81810381811115611808576118086117c656fea2646970667358221220fc08e25a23da7ffd659b6253baa79fbcd5cb9e30f0d923e2620addca5e807ebc64736f6c63430008140033",
  "linkReferences": {},
  "deployedLinkReferences": {}
}