{
  "_format": "hh-sol-artifact-1",
  "contractName": "AIOracle",
  "sourceName": "src/templates/AIOracle.sol",
  "abi": [
    {
      "inputs": [],
      "stateMutability": "nonpayable",
      "type": "constructor"
    },
    {
      "inputs": [
        {
          "internalType": "address",
          "name": "owner",
          "type": "address"
        }
      ],
      "name": "OwnableInvalidOwner",
      "type": "error"
    },
    {
      "inputs": [
        {
          "internalType": "address",
          "name": "account",
          "type": "address"
        }
      ],
      "name": "OwnableUnauthorizedAccount",
      "type": "error"
    },
    {
      "inputs": [],
      "name": "ReentrancyGuardReentrantCall",
      "type": "error"
    },
    {
      "anonymous": false,
      "inputs": [
        {
          "indexed": true,
          "internalType": "bytes32",
          "name": "requestId",
          "type": "bytes32"
        }
      ],
      "name": "AIRequestCancelled",
      "type": "event"
    },
    {
      "anonymous": false,
      "inputs": [
        {
          "indexed": true,
          "internalType": "bytes32",
          "name": "requestId",
          "type": "bytes32"
        },
        {
          "indexed": true,
          "internalType": "address",
          "name": "requester",
          "type": "address"
        },
        {
          "indexed": false,
          "internalType": "bytes32",
          "name": "modelHash",
          "type": "bytes32"
        },
        {
          "indexed": false,
          "internalType": "uint256",
          "name": "reward",
          "type": "uint256"
        }
      ],
      "name": "AIRequestCreated",
      "type": "event"
    },
    {
      "anonymous": false,
      "inputs": [
        {
          "indexed": true,
          "internalType": "bytes32",
          "name": "requestId",
          "type": "bytes32"
        }
      ],
      "name": "AIRequestExpired",
      "type": "event"
    },
    {
      "anonymous": false,
      "inputs": [
        {
          "indexed": true,
          "internalType": "bytes32",
          "name": "requestId",
          "type": "bytes32"
        },
        {
          "indexed": true,
          "internalType": "address",
          "name": "fulfiller",
          "type": "address"
        },
        {
          "indexed": false,
          "internalType": "bytes32",
          "name": "proofHash",
          "type": "bytes32"
        }
      ],
      "name": "AIRequestFulfilled",
      "type": "event"
    },
    {
      "anonymous": false,
      "inputs": [
        {
          "indexed": true,
          "internalType": "bytes32",
          "name": "modelHash",
          "type": "bytes32"
        }
      ],
      "name": "ModelApproved",
      "type": "event"
    },
    {
      "anonymous": false,
      "inputs": [
        {
          "indexed": true,
          "internalType": "bytes32",
          "name": "modelHash",
          "type": "bytes32"
        }
      ],
      "name": "ModelRevoked",
      "type": "event"
    },
    {
      "anonymous": false,
      "inputs": [
        {
          "indexed": true,
          "internalType": "address",
          "name": "previousOwner",
          "type": "address"
        },
        {
          "indexed": true,
          "internalType": "address",
          "name": "newOwner",
          "type": "address"
        }
      ],
      "name": "OwnershipTransferred",
      "type": "event"
    },
    {
      "inputs": [],
      "name": "accumulatedFees",
      "outputs": [
        {
          "internalType": "uint256",
          "name": "",
          "type": "uint256"
        }
      ],
      "stateMutability": "view",
      "type": "function"
    },
    {
      "inputs": [
        {
          "internalType": "bytes32",
          "name": "modelHash",
          "type": "bytes32"
        }
      ],
      "name": "approveModel",
      "outputs": [],
      "stateMutability": "nonpayable",
      "type": "function"
    },
    {
      "inputs": [
        {
          "internalType": "bytes32",
          "name": "",
          "type": "bytes32"
        }
      ],
      "name": "approvedModels",
      "outputs": [
        {
          "internalType": "bool",
          "name": "",
          "type": "bool"
        }
      ],
      "stateMutability": "view",
      "type": "function"
    },
    {
      "inputs": [
        {
          "internalType": "bytes32",
          "name": "requestId",
          "type": "bytes32"
        }
      ],
      "name": "cancelRequest",
      "outputs": [],
      "stateMutability": "nonpayable",
      "type": "function"
    },
    {
      "inputs": [],
      "name": "defaultTimeout",
      "outputs": [
        {
          "internalType": "uint256",
          "name": "",
          "type": "uint256"
        }
      ],
      "stateMutability": "view",
      "type": "function"
    },
    {
      "inputs": [
        {
          "internalType": "bytes32",
          "name": "requestId",
          "type": "bytes32"
        },
        {
          "internalType": "bytes",
          "name": "result",
          "type": "bytes"
        },
        {
          "internalType": "bytes32",
          "name": "proofHash",
          "type": "bytes32"
        }
      ],
      "name": "fulfillRequest",
      "outputs": [],
      "stateMutability": "nonpayable",
      "type": "function"
    },
    {
      "inputs": [
        {
          "internalType": "bytes32",
          "name": "requestId",
          "type": "bytes32"
        }
      ],
      "name": "getRequest",
      "outputs": [
        {
          "components": [
            {
              "internalType": "address",
              "name": "requester",
              "type": "address"
            },
            {
              "internalType": "bytes32",
              "name": "modelHash",
              "type": "bytes32"
            },
            {
              "internalType": "bytes",
              "name": "inputData",
              "type": "bytes"
            },
            {
              "internalType": "uint256",
              "name": "reward",
              "type": "uint256"
            },
            {
              "internalType": "uint256",
              "name": "createdAt",
              "type": "uint256"
            },
            {
              "internalType": "uint256",
              "name": "deadline",
              "type": "uint256"
            },
            {
              "internalType": "enum AIOracle.RequestStatus",
              "name": "status",
              "type": "uint8"
            },
            {
              "internalType": "bytes",
              "name": "result",
              "type": "bytes"
            },
            {
              "internalType": "address",
              "name": "fulfiller",
              "type": "address"
            },
            {
              "internalType": "bytes32",
              "name": "proofHash",
              "type": "bytes32"
            }
          ],
          "internalType": "struct AIOracle.AIRequest",
          "name": "",
          "type": "tuple"
        }
      ],
      "stateMutability": "view",
      "type": "function"
    },
    {
      "inputs": [
        {
          "internalType": "bytes32",
          "name": "requestId",
          "type": "bytes32"
        }
      ],
      "name": "getResult",
      "outputs": [
        {
          "internalType": "bytes",
          "name": "result",
          "type": "bytes"
        },
        {
          "internalType": "bool",
          "name": "completed",
          "type": "bool"
        }
      ],
      "stateMutability": "view",
      "type": "function"
    },
    {
      "inputs": [
        {
          "internalType": "address",
          "name": "user",
          "type": "address"
        }
      ],
      "name": "getUserRequests",
      "outputs": [
        {
          "internalType": "bytes32[]",
          "name": "",
          "type": "bytes32[]"
        }
      ],
      "stateMutability": "view",
      "type": "function"
    },
    {
      "inputs": [
        {
          "internalType": "bytes32",
          "name": "modelHash",
          "type": "bytes32"
        }
      ],
      "name": "isModelApproved",
      "outputs": [
        {
          "internalType": "bool",
          "name": "",
          "type": "bool"
        }
      ],
      "stateMutability": "view",
      "type": "function"
    },
    {
      "inputs": [
        {
          "internalType": "bytes32",
          "name": "requestId",
          "type": "bytes32"
        }
      ],
      "name": "markExpired",
      "outputs": [],
      "stateMutability": "nonpayable",
      "type": "function"
    },
    {
      "inputs": [],
      "name": "minFulfillerStake",
      "outputs": [
        {
          "internalType": "uint256",
          "name": "",
          "type": "uint256"
        }
      ],
      "stateMutability": "view",
      "type": "function"
    },
    {
      "inputs": [],
      "name": "owner",
      "outputs": [
        {
          "internalType": "address",
          "name": "",
          "type": "address"
        }
      ],
      "stateMutability": "view",
      "type": "function"
    },
    {
      "inputs": [],
      "name": "protocolFeeBps",
      "outputs": [
        {
          "internalType": "uint256",
          "name": "",
          "type": "uint256"
        }
      ],
      "stateMutability": "view",
      "type": "function"
    },
    {
      "inputs": [],
      "name": "renounceOwnership",
      "outputs": [],
      "stateMutability": "nonpayable",
      "type": "function"
    },
    {
      "inputs": [
        {
          "internalType": "bytes32",
          "name": "modelHash",
          "type": "bytes32"
        },
        {
          "internalType": "bytes",
          "name": "inputData",
          "type": "bytes"
        },
        {
          "internalType": "uint256",
          "name": "timeout",
          "type": "uint256"
        }
      ],
      "name": "requestAI",
      "outputs": [
        {
          "internalType": "bytes32",
          "name": "",
          "type": "bytes32"
        }
      ],
      "stateMutability": "payable",
      "type": "function"
    },
    {
      "inputs": [],
      "name": "requestCount",
      "outputs": [
        {
          "internalType": "uint256",
          "name": "",
          "type": "uint256"
        }
      ],
      "stateMutability": "view",
      "type": "function"
    },
    {
      "inputs": [
        {
          "internalType": "bytes32",
          "name": "",
          "type": "bytes32"
        }
      ],
      "name": "requests",
      "outputs": [
        {
          "internalType": "address",
          "name": "requester",
          "type": "address"
        },
        {
          "internalType": "bytes32",
          "name": "modelHash",
          "type": "bytes32"
        },
        {
          "internalType": "bytes",
          "name": "inputData",
          "type": "bytes"
        },
        {
          "internalType": "uint256",
          "name": "reward",
          "type": "uint256"
        },
        {
          "internalType": "uint256",
          "name": "createdAt",
          "type": "uint256"
        },
        {
          "internalType": "uint256",
          "name": "deadline",
          "type": "uint256"
        },
        {
          "internalType": "enum AIOracle.RequestStatus",
          "name": "status",
          "type": "uint8"
        },
        {
          "internalType": "bytes",
          "name": "result",
          "type": "bytes"
        },
        {
          "internalType": "address",
          "name": "fulfiller",
          "type": "address"
        },
        {
          "internalType": "bytes32",
          "name": "proofHash",
          "type": "bytes32"
        }
      ],
      "stateMutability": "view",
      "type": "function"
    },
    {
      "inputs": [
        {
          "internalType": "bytes32",
          "name": "modelHash",
          "type": "bytes32"
        }
      ],
      "name": "revokeModel",
      "outputs": [],
      "stateMutability": "nonpayable",
      "type": "function"
    },
    {
      "inputs": [
        {
          "internalType": "uint256",
          "name": "_timeout",
          "type": "uint256"
        }
      ],
      "name": "setDefaultTimeout",
      "outputs": [],
      "stateMutability": "nonpayable",
      "type": "function"
    },
    {
      "inputs": [
        {
          "internalType": "uint256",
          "name": "_feeBps",
          "type": "uint256"
        }
      ],
      "name": "setProtocolFee",
      "outputs": [],
      "stateMutability": "nonpayable",
      "type": "function"
    },
    {
      "inputs": [
        {
          "internalType": "address",
          "name": "_verifier",
          "type": "address"
        }
      ],
      "name": "setZkMLVerifier",
      "outputs": [],
      "stateMutability": "nonpayable",
      "type": "function"
    },
    {
      "inputs": [
        {
          "internalType": "address",
          "name": "newOwner",
          "type": "address"
        }
      ],
      "name": "transferOwnership",
      "outputs": [],
      "stateMutability": "nonpayable",
      "type": "function"
    },
    {
      "inputs": [
        {
          "internalType": "address",
          "name": "",
          "type": "address"
        },
        {
          "internalType": "uint256",
          "name": "",
          "type": "uint256"
        }
      ],
      "name": "userRequests",
      "outputs": [
        {
          "internalType": "bytes32",
          "name": "",
          "type": "bytes32"
        }
      ],
      "stateMutability": "view",
      "type": "function"
    },
    {
      "inputs": [],
      "name": "withdrawFees",
      "outputs": [],
      "stateMutability": "nonpayable",
      "type": "function"
    },
    {
      "inputs": [],
      "name": "zkmlVerifier",
      "outputs": [
        {
          "internalType": "address",
          "name": "",
          "type": "address"
        }
      ],
      "stateMutability": "view",
      "type": "function"
    }
  ],
  "bytecode": "0x608080604052346100885733156100725760008054336001600160a01b03198216811783556040519290916001600160a01b0316907f8be0079c531659141344cd1fd0a4f28419497f9722a3daafe3b4186f6b6457e09080a360018055606460065560646007556117bb908161008e8239f35b631e4fbdf760e01b815260006004820152602490fd5b600080fdfe6080604052600436101561001257600080fd5b60003560e01c8063066655ef1461147a57806309f3f5661461145c57806321c39b361461143e578063263cb6b6146113e55780632c6c5866146113715780633115129c14610dde57806335659fb814610dc05780633c81339414610d97578063476343ee14610d4f5780634b7716e314610cf35780634b9f24d81461038b5780635012554614610c0b578063587f5ed714610bed5780635badbe4c14610bcf578063715018a614610b76578063717909b914610b1d578063787dce3d14610abf57806382ae0f97146106c057806387e0aeb2146105d05780638da5cb5b146105a75780639d866985146104d3578063add4c78414610470578063b337cf74146103bc578063da185c921461038b578063f2fde38b146103025763fb1e61ca1461013a57600080fd5b346102fd5760203660031901126102fd57600061012060405161015c81611569565b828152826020820152606060408201528260608201528260808201528260a08201528260c0820152606060e082015282610100820152015260043560005260026020526040600020604051906101b182611569565b80546001600160a01b03168252600181015460208301526101d4600282016115a8565b60408301526003810154606083015260048101546080830152600581015460a083015260ff6006820154169060048210156102e75760099160c084015261021d600782016115a8565b60e084015260018060a01b03600882015416610100840152015461012082015260405180916020825260018060a01b0381511660208301526020810151604083015260408101516101206102c96102826101409384606088015261016087019061164e565b60608501516080870152608085015160a087015260a085015160c08701526102b260c086015160e088019061168e565b60e0850151868203601f190161010088015261164e565b6101008401516001600160a01b031685830152920151908301520390f35b634e487b7160e01b600052602160045260246000fd5b600080fd5b346102fd5760203660031901126102fd5761031b6114bd565b61032361169b565b6001600160a01b0390811690811561037257600054826001600160601b0360a01b821617600055167f8be0079c531659141344cd1fd0a4f28419497f9722a3daafe3b4186f6b6457e0600080a3005b604051631e4fbdf760e01b815260006004820152602490fd5b346102fd5760203660031901126102fd576004356000526004602052602060ff604060002054166040519015158152f35b346102fd576020806003193601126102fd576001600160a01b036103de6114bd565b1660005260038152604060002060405190818382549182815201908192600052846000209060005b8682821061045c57868661041c82880383611586565b604051928392818401908285525180915260408401929160005b82811061044557505050500390f35b835185528695509381019392810192600101610436565b835485529093019260019283019201610406565b346102fd5760203660031901126102fd576004356000526002602052604060002060ff60068201541660048110156102e7576104b160076104c893016115a8565b90600160405193849360408552604085019061164e565b911460208301520390f35b346102fd5760203660031901126102fd576004356000526002602052604060002060018060a01b03908181541690600181015492610596610516600284016115a8565b916003840154906105896004860154600587015460ff6006890154169161056f600961054460078c016115a8565b9660088c0154169a0154986040519c8d9c8d5260208d015260408c61014091829101528c019061164e565b9560608b015260808a015260a089015260c088019061168e565b85820360e087015261164e565b916101008401526101208301520390f35b346102fd5760003660031901126102fd576000546040516001600160a01b039091168152602090f35b346102fd5760203660031901126102fd576004358060005260026020526040600020600681019081549160ff831660048110156102e757610611901561174b565b600582015443111561068957600080809381936002889760ff1916179055600360018060a01b0382541691015490828215610680575bf115610674577f6fe0249982ec39ff41cbe0301e6c114eca4ebb1720320066b62d957f1163cbaa600080a2005b6040513d6000823e3d90fd5b506108fc610647565b60405162461bcd60e51b815260206004820152600f60248201526e139bdd08195e1c1a5c9959081e595d608a1b6044820152606490fd5b346102fd5760603660031901126102fd57602467ffffffffffffffff60043582358281116102fd576106f6903690600401611501565b92909360443593610705611728565b8360005260209260028452604060002091600683019760ff8954166004811015610aaa57610733901561174b565b60058401544311610a74578115610a4157600a546001600160a01b031680151580610a38575b61090c575b506001988960ff19825416179055600784019282116108f75761078b82610785855461152f565b856116d4565b600090601f831160011461088f5760039493929160009183610884575b505060001982861b1c191690891b1790555b60088101336001600160601b0360a01b825416179055856009820155015460075480820290828204148215171561086f5761271090048082039282841161085b57506000809381938361081084956008546116c7565b600855839114610852575b3390f115610674577fb68acaadc409e87420a9dda716aca513f181d79ba21500902a72b44122acc5a4906040519384523393a38055005b506108fc61081b565b634e487b7160e01b60009081526011600452fd5b82634e487b7160e01b60005260116004526000fd5b013590508a806107a8565b918991949392601f1982169084600052886000209160005b8a8282106108e15750509683600398106108c9575b505050811b0190556107ba565b013560001983881b60f8161c191690558a80806108bc565b838a01358555988901988e9690940193016108a7565b84634e487b7160e01b60005260416004526000fd5b6001850154604051918a89840152888352604083019183831087841117610a2357604091839182845263e2dd674560e01b83526044860152608060648601528660c4860152868660e4870137600060e4888701015281600061098560e4601f19601f8c0116890160a08a82030160848b0152018861164e565b600260a4890152879003603f1901925af1918215610674576000926109eb575b5050156109b2578961075e565b60405162461bcd60e51b8152600481018790526012818701527124b73b30b634b2103d35a6a610383937b7b360711b6044820152606490fd5b6040809293503d8311610a1c575b610a038185611586565b810103126102fd575180151581036102fd578a806109a5565b503d6109f9565b88634e487b7160e01b60005260416004526000fd5b50881515610759565b60405162461bcd60e51b815260048101879052600c818701526b115b5c1d1e481c995cdd5b1d60a21b6044820152606490fd5b60405162461bcd60e51b815260048101879052600f818701526e14995c5d595cdd08195e1c1a5c9959608a1b6044820152606490fd5b85634e487b7160e01b60005260216004526000fd5b346102fd5760203660031901126102fd57600435610adb61169b565b6103e88111610ae957600755005b60405162461bcd60e51b815260206004820152600c60248201526b08ccaca40e8dede40d0d2ced60a31b6044820152606490fd5b346102fd5760203660031901126102fd57600435610b3961169b565b806000526004602052604060002060ff1981541690557f0ce0cd684ed1c15a1013dab20bed811fa182d3e28342b5be924d2cef7a103bb1600080a2005b346102fd5760003660031901126102fd57610b8f61169b565b600080546001600160a01b0319811682556001600160a01b03167f8be0079c531659141344cd1fd0a4f28419497f9722a3daafe3b4186f6b6457e08280a3005b346102fd5760003660031901126102fd576020600954604051908152f35b346102fd5760003660031901126102fd576020600854604051908152f35b346102fd5760203660031901126102fd57600435610c27611728565b600081815260026020526040902080546001600160a01b03163303610cbe57600681019081549160ff831660048110156102e7576000600381948294828998610c7186971561174b565b60ff19161790550154818115610cb5575b3390f115610674577f1f29b89ae1587d701cb5136665b2e833ac2fc99ddb4481e1083ade509bcfeac1600080a260018055005b506108fc610c82565b60405162461bcd60e51b815260206004820152600d60248201526c2737ba103932b8bab2b9ba32b960991b6044820152606490fd5b346102fd5760203660031901126102fd57600435610d0f61169b565b8060005260046020526040600020600160ff198254161790557f6d29aa35cc15482f5e65960776a66652041832392a7d89e3f1488b4e40d15284600080a2005b346102fd5760003660031901126102fd57610d6861169b565b60008080806008548160085560018060a01b03825416828215610d8e575bf11561067457005b506108fc610d86565b346102fd5760003660031901126102fd57600a546040516001600160a01b039091168152602090f35b346102fd5760003660031901126102fd576020600754604051908152f35b60603660031901126102fd5760243567ffffffffffffffff81116102fd57610e0a903690600401611501565b9060443590610e17611728565b341561133957600435600052600460205260ff604060002054168015611325575b156112eb5782156112b857612710831161128157600954600019811461126b576001810160095560405160208101913360601b8352600435603483015242605483015260748201526074815260a0810181811067ffffffffffffffff82111761114e5760405251902091801561125f57610eb3905b436116c7565b604051916020830183811067ffffffffffffffff82111761114e576040526000835260405194610ee286611569565b338652600435602087015267ffffffffffffffff811161114e5760405191610f14601f8301601f191660200184611586565b81835236828201116102fd57816000926020928386013783010152604085015234606085015242608085015260a0840152600060c084015260e083015260006101008301526000610120830152806000526002602052604060002060018060a01b038351166001600160601b0360a01b82541617815560208301516001820155604083015192835167ffffffffffffffff811161114e57610fc581610fbc600286015461152f565b600286016116d4565b6020601f82116001146111f05781929394956000926111e5575b50508160011b916000199060031b1c19161760028301555b606081015160038301556080810151600483015560a081015160058301556006820160c082015160048110156102e75760ff8019835416911617905560e081015180519067ffffffffffffffff821161114e576110648261105b600787015461152f565b600787016116d4565b602090601f831160011461116f5791806009949261012094600092611164575b50508160011b916000199060031b1c19161760078501555b6008840160018060a01b03610100830151166001600160601b0360a01b82541617905501519101553360005260036020526040600020908154916801000000000000000083101561114e57826110f99160016020950181556114d3565b81549060031b9083821b91600019901b191617905560405160043581523483820152817f73379e0eb0a8c43416b93a5ad73c8f23ed1b510614ad484efdad08b000e357a960403393a360018055604051908152f35b634e487b7160e01b600052604160045260246000fd5b015190508780611084565b906007850160005260206000209160005b601f19851681106111cd575092600994926001926101209583601f198116106111b4575b505050811b01600785015561109c565b015160001960f88460031b161c191690558780806111a4565b91926020600181928685015181550194019201611180565b015190508580610fdf565b6002840160005260206000209060005b601f1984168110611247575060019394959683601f1981161061122e575b505050811b016002830155610ff7565b015160001960f88460031b161c1916905585808061121e565b9091602060018192858b015181550193019101611200565b50610eb3600654610ead565b634e487b7160e01b600052601160045260246000fd5b60405162461bcd60e51b815260206004820152600f60248201526e496e70757420746f6f206c6172676560881b6044820152606490fd5b60405162461bcd60e51b815260206004820152600b60248201526a115b5c1d1e481a5b9c1d5d60aa1b6044820152606490fd5b60405162461bcd60e51b8152602060048201526012602482015271135bd9195b081b9bdd08185c1c1c9bdd995960721b6044820152606490fd5b506000546001600160a01b03163314610e38565b60405162461bcd60e51b815260206004820152601060248201526f14185e5b595b9d081c995c5d5a5c995960821b6044820152606490fd5b346102fd5760203660031901126102fd5760043561138d61169b565b600a811015806113d9575b156113a257600655005b60405162461bcd60e51b815260206004820152600f60248201526e125b9d985b1a59081d1a5b595bdd5d608a1b6044820152606490fd5b50612710811115611398565b346102fd5760403660031901126102fd576113fe6114bd565b6001600160a01b03166000908152600360205260409020805460243591908210156102fd5760209161142f916114d3565b90549060031b1c604051908152f35b346102fd5760003660031901126102fd576020600554604051908152f35b346102fd5760003660031901126102fd576020600654604051908152f35b346102fd5760203660031901126102fd576114936114bd565b61149b61169b565b600a80546001600160a01b0319166001600160a01b0392909216919091179055005b600435906001600160a01b03821682036102fd57565b80548210156114eb5760005260206000200190600090565b634e487b7160e01b600052603260045260246000fd5b9181601f840112156102fd5782359167ffffffffffffffff83116102fd57602083818601950101116102fd57565b90600182811c9216801561155f575b602083101461154957565b634e487b7160e01b600052602260045260246000fd5b91607f169161153e565b610140810190811067ffffffffffffffff82111761114e57604052565b90601f8019910116810190811067ffffffffffffffff82111761114e57604052565b90604051918260008254926115bc8461152f565b90818452600194858116908160001461162b57506001146115e8575b50506115e692500383611586565b565b9093915060005260209081600020936000915b8183106116135750506115e6935082010138806115d8565b855488840185015294850194879450918301916115fb565b9150506115e694506020925060ff191682840152151560051b82010138806115d8565b919082519283825260005b84811061167a575050826000602080949584010152601f8019910116010190565b602081830181015184830182015201611659565b9060048210156102e75752565b6000546001600160a01b031633036116af57565b60405163118cdaa760e01b8152336004820152602490fd5b9190820180921161126b57565b90601f81116116e257505050565b600091825260208220906020601f850160051c8301941061171e575b601f0160051c01915b82811061171357505050565b818155600101611707565b90925082906116fe565b600260015414611739576002600155565b604051633ee5aeb560e01b8152600490fd5b1561175257565b60405162461bcd60e51b815260206004820152600b60248201526a4e6f742070656e64696e6760a81b6044820152606490fdfea26469706673582212207c265facd623aad4d947f90682d5e62925a1ba71bffaefd4b221a378273af17d64736f6c63430008140033",
  "linkReferences": {},
  "deployedLinkReferences": {}
}