{
  "_format": "hh-sol-artifact-1",
  "contractName": "AIOracle",
  "sourceName": "src/templates/AIOracle.sol",
  "abi": [
    {
      "inputs": [],
      "stateMutability": "nonpayable",
      "type": "constructor"
    },
    {
      "inputs": [
        {
          "internalType": "address",
          "name": "owner",
          "type": "address"
        }
      ],
      "name": "OwnableInvalidOwner",
      "type": "error"
    },
    {
      "inputs": [
        {
          "internalType": "address",
          "name": "account",
          "type": "address"
        }
      ],
      "name": "OwnableUnauthorizedAccount",
      "type": "error"
    },
    {
      "inputs": [],
      "name": "ReentrancyGuardReentrantCall",
      "type": "error"
    },
    {
      "anonymous": false,
      "inputs": [
        {
          "indexed": true,
          "internalType": "bytes32",
          "name": "requestId",
          "type": "bytes32"
        }
      ],
      "name": "AIRequestCancelled",
      "type": "event"
    },
    {
      "anonymous": false,
      "inputs": [
        {
          "indexed": true,
          "internalType": "bytes32",
          "name": "requestId",
          "type": "bytes32"
        },
        {
          "indexed": true,
          "internalType": "address",
          "name": "requester",
          "type": "address"
        },
        {
          "indexed": false,
          "internalType": "bytes32",
          "name": "modelHash",
          "type": "bytes32"
        },
        {
          "indexed": false,
          "internalType": "uint256",
          "name": "reward",
          "type": "uint256"
        }
      ],
      "name": "AIRequestCreated",
      "type": "event"
    },
    {
      "anonymous": false,
      "inputs": [
        {
          "indexed": true,
          "internalType": "bytes32",
          "name": "requestId",
          "type": "bytes32"
        }
      ],
      "name": "AIRequestExpired",
      "type": "event"
    },
    {
      "anonymous": false,
      "inputs": [
        {
          "indexed": true,
          "internalType": "bytes32",
          "name": "requestId",
          "type": "bytes32"
        },
        {
          "indexed": true,
          "internalType": "address",
          "name": "fulfiller",
          "type": "address"
        },
        {
          "indexed": false,
          "internalType": "bytes32",
          "name": "proofHash",
          "type": "bytes32"
        }
      ],
      "name": "AIRequestFulfilled",
      "type": "event"
    },
    {
      "anonymous": false,
      "inputs": [
        {
          "indexed": false,
          "internalType": "uint256",
          "name": "oldTimeout",
          "type": "uint256"
        },
        {
          "indexed": false,
          "internalType": "uint256",
          "name": "newTimeout",
          "type": "uint256"
        }
      ],
      "name": "DefaultTimeoutUpdated",
      "type": "event"
    },
    {
      "anonymous": false,
      "inputs": [
        {
          "indexed": true,
          "internalType": "address",
          "name": "recipient",
          "type": "address"
        },
        {
          "indexed": false,
          "internalType": "uint256",
          "name": "amount",
          "type": "uint256"
        }
      ],
      "name": "FeesWithdrawn",
      "type": "event"
    },
    {
      "anonymous": false,
      "inputs": [
        {
          "indexed": true,
          "internalType": "bytes32",
          "name": "modelHash",
          "type": "bytes32"
        }
      ],
      "name": "ModelApproved",
      "type": "event"
    },
    {
      "anonymous": false,
      "inputs": [
        {
          "indexed": true,
          "internalType": "bytes32",
          "name": "modelHash",
          "type": "bytes32"
        }
      ],
      "name": "ModelRevoked",
      "type": "event"
    },
    {
      "anonymous": false,
      "inputs": [
        {
          "indexed": true,
          "internalType": "address",
          "name": "previousOwner",
          "type": "address"
        },
        {
          "indexed": true,
          "internalType": "address",
          "name": "newOwner",
          "type": "address"
        }
      ],
      "name": "OwnershipTransferred",
      "type": "event"
    },
    {
      "anonymous": false,
      "inputs": [
        {
          "indexed": false,
          "internalType": "uint256",
          "name": "oldFee",
          "type": "uint256"
        },
        {
          "indexed": false,
          "internalType": "uint256",
          "name": "newFee",
          "type": "uint256"
        }
      ],
      "name": "ProtocolFeeUpdated",
      "type": "event"
    },
    {
      "anonymous": false,
      "inputs": [
        {
          "indexed": false,
          "internalType": "address",
          "name": "oldVerifier",
          "type": "address"
        },
        {
          "indexed": false,
          "internalType": "address",
          "name": "newVerifier",
          "type": "address"
        }
      ],
      "name": "ZkMLVerifierUpdated",
      "type": "event"
    },
    {
      "inputs": [],
      "name": "accumulatedFees",
      "outputs": [
        {
          "internalType": "uint256",
          "name": "",
          "type": "uint256"
        }
      ],
      "stateMutability": "view",
      "type": "function"
    },
    {
      "inputs": [
        {
          "internalType": "bytes32",
          "name": "modelHash",
          "type": "bytes32"
        }
      ],
      "name": "approveModel",
      "outputs": [],
      "stateMutability": "nonpayable",
      "type": "function"
    },
    {
      "inputs": [
        {
          "internalType": "bytes32",
          "name": "",
          "type": "bytes32"
        }
      ],
      "name": "approvedModels",
      "outputs": [
        {
          "internalType": "bool",
          "name": "",
          "type": "bool"
        }
      ],
      "stateMutability": "view",
      "type": "function"
    },
    {
      "inputs": [
        {
          "internalType": "bytes32",
          "name": "requestId",
          "type": "bytes32"
        }
      ],
      "name": "cancelRequest",
      "outputs": [],
      "stateMutability": "nonpayable",
      "type": "function"
    },
    {
      "inputs": [],
      "name": "defaultTimeout",
      "outputs": [
        {
          "internalType": "uint256",
          "name": "",
          "type": "uint256"
        }
      ],
      "stateMutability": "view",
      "type": "function"
    },
    {
      "inputs": [
        {
          "internalType": "bytes32",
          "name": "requestId",
          "type": "bytes32"
        },
        {
          "internalType": "bytes",
          "name": "result",
          "type": "bytes"
        },
        {
          "internalType": "bytes32",
          "name": "proofHash",
          "type": "bytes32"
        }
      ],
      "name": "fulfillRequest",
      "outputs": [],
      "stateMutability": "nonpayable",
      "type": "function"
    },
    {
      "inputs": [
        {
          "internalType": "bytes32",
          "name": "requestId",
          "type": "bytes32"
        }
      ],
      "name": "getRequest",
      "outputs": [
        {
          "components": [
            {
              "internalType": "address",
              "name": "requester",
              "type": "address"
            },
            {
              "internalType": "bytes32",
              "name": "modelHash",
              "type": "bytes32"
            },
            {
              "internalType": "bytes",
              "name": "inputData",
              "type": "bytes"
            },
            {
              "internalType": "uint256",
              "name": "reward",
              "type": "uint256"
            },
            {
              "internalType": "uint256",
              "name": "createdAt",
              "type": "uint256"
            },
            {
              "internalType": "uint256",
              "name": "deadline",
              "type": "uint256"
            },
            {
              "internalType": "enum AIOracle.RequestStatus",
              "name": "status",
              "type": "uint8"
            },
            {
              "internalType": "bytes",
              "name": "result",
              "type": "bytes"
            },
            {
              "internalType": "address",
              "name": "fulfiller",
              "type": "address"
            },
            {
              "internalType": "bytes32",
              "name": "proofHash",
              "type": "bytes32"
            }
          ],
          "internalType": "struct AIOracle.AIRequest",
          "name": "",
          "type": "tuple"
        }
      ],
      "stateMutability": "view",
      "type": "function"
    },
    {
      "inputs": [
        {
          "internalType": "bytes32",
          "name": "requestId",
          "type": "bytes32"
        }
      ],
      "name": "getResult",
      "outputs": [
        {
          "internalType": "bytes",
          "name": "result",
          "type": "bytes"
        },
        {
          "internalType": "bool",
          "name": "completed",
          "type": "bool"
        }
      ],
      "stateMutability": "view",
      "type": "function"
    },
    {
      "inputs": [
        {
          "internalType": "address",
          "name": "user",
          "type": "address"
        }
      ],
      "name": "getUserRequests",
      "outputs": [
        {
          "internalType": "bytes32[]",
          "name": "",
          "type": "bytes32[]"
        }
      ],
      "stateMutability": "view",
      "type": "function"
    },
    {
      "inputs": [
        {
          "internalType": "bytes32",
          "name": "modelHash",
          "type": "bytes32"
        }
      ],
      "name": "isModelApproved",
      "outputs": [
        {
          "internalType": "bool",
          "name": "",
          "type": "bool"
        }
      ],
      "stateMutability": "view",
      "type": "function"
    },
    {
      "inputs": [
        {
          "internalType": "bytes32",
          "name": "requestId",
          "type": "bytes32"
        }
      ],
      "name": "markExpired",
      "outputs": [],
      "stateMutability": "nonpayable",
      "type": "function"
    },
    {
      "inputs": [],
      "name": "owner",
      "outputs": [
        {
          "internalType": "address",
          "name": "",
          "type": "address"
        }
      ],
      "stateMutability": "view",
      "type": "function"
    },
    {
      "inputs": [],
      "name": "protocolFeeBps",
      "outputs": [
        {
          "internalType": "uint256",
          "name": "",
          "type": "uint256"
        }
      ],
      "stateMutability": "view",
      "type": "function"
    },
    {
      "inputs": [],
      "name": "renounceOwnership",
      "outputs": [],
      "stateMutability": "nonpayable",
      "type": "function"
    },
    {
      "inputs": [
        {
          "internalType": "bytes32",
          "name": "modelHash",
          "type": "bytes32"
        },
        {
          "internalType": "bytes",
          "name": "inputData",
          "type": "bytes"
        },
        {
          "internalType": "uint256",
          "name": "timeout",
          "type": "uint256"
        }
      ],
      "name": "requestAI",
      "outputs": [
        {
          "internalType": "bytes32",
          "name": "",
          "type": "bytes32"
        }
      ],
      "stateMutability": "payable",
      "type": "function"
    },
    {
      "inputs": [],
      "name": "requestCount",
      "outputs": [
        {
          "internalType": "uint256",
          "name": "",
          "type": "uint256"
        }
      ],
      "stateMutability": "view",
      "type": "function"
    },
    {
      "inputs": [
        {
          "internalType": "bytes32",
          "name": "",
          "type": "bytes32"
        }
      ],
      "name": "requests",
      "outputs": [
        {
          "internalType": "address",
          "name": "requester",
          "type": "address"
        },
        {
          "internalType": "bytes32",
          "name": "modelHash",
          "type": "bytes32"
        },
        {
          "internalType": "bytes",
          "name": "inputData",
          "type": "bytes"
        },
        {
          "internalType": "uint256",
          "name": "reward",
          "type": "uint256"
        },
        {
          "internalType": "uint256",
          "name": "createdAt",
          "type": "uint256"
        },
        {
          "internalType": "uint256",
          "name": "deadline",
          "type": "uint256"
        },
        {
          "internalType": "enum AIOracle.RequestStatus",
          "name": "status",
          "type": "uint8"
        },
        {
          "internalType": "bytes",
          "name": "result",
          "type": "bytes"
        },
        {
          "internalType": "address",
          "name": "fulfiller",
          "type": "address"
        },
        {
          "internalType": "bytes32",
          "name": "proofHash",
          "type": "bytes32"
        }
      ],
      "stateMutability": "view",
      "type": "function"
    },
    {
      "inputs": [
        {
          "internalType": "bytes32",
          "name": "modelHash",
          "type": "bytes32"
        }
      ],
      "name": "revokeModel",
      "outputs": [],
      "stateMutability": "nonpayable",
      "type": "function"
    },
    {
      "inputs": [
        {
          "internalType": "uint256",
          "name": "_timeout",
          "type": "uint256"
        }
      ],
      "name": "setDefaultTimeout",
      "outputs": [],
      "stateMutability": "nonpayable",
      "type": "function"
    },
    {
      "inputs": [
        {
          "internalType": "uint256",
          "name": "_feeBps",
          "type": "uint256"
        }
      ],
      "name": "setProtocolFee",
      "outputs": [],
      "stateMutability": "nonpayable",
      "type": "function"
    },
    {
      "inputs": [
        {
          "internalType": "address",
          "name": "_verifier",
          "type": "address"
        }
      ],
      "name": "setZkMLVerifier",
      "outputs": [],
      "stateMutability": "nonpayable",
      "type": "function"
    },
    {
      "inputs": [
        {
          "internalType": "address",
          "name": "newOwner",
          "type": "address"
        }
      ],
      "name": "transferOwnership",
      "outputs": [],
      "stateMutability": "nonpayable",
      "type": "function"
    },
    {
      "inputs": [
        {
          "internalType": "address",
          "name": "",
          "type": "address"
        },
        {
          "internalType": "uint256",
          "name": "",
          "type": "uint256"
        }
      ],
      "name": "userRequests",
      "outputs": [
        {
          "internalType": "bytes32",
          "name": "",
          "type": "bytes32"
        }
      ],
      "stateMutability": "view",
      "type": "function"
    },
    {
      "inputs": [],
      "name": "withdrawFees",
      "outputs": [],
      "stateMutability": "nonpayable",
      "type": "function"
    },
    {
      "inputs": [],
      "name": "zkmlVerifier",
      "outputs": [
        {
          "internalType": "address",
          "name": "",
          "type": "address"
        }
      ],
      "stateMutability": "view",
      "type": "function"
    }
  ],
  "bytecode": "0x608080604052346100885733156100725760008054336001600160a01b03198216811783556040519290916001600160a01b0316907f8be0079c531659141344cd1fd0a4f28419497f9722a3daafe3b4186f6b6457e09080a3600180556064600555606460065561190c908161008e8239f35b631e4fbdf760e01b815260006004820152602490fd5b600080fdfe6080604052600436101561001257600080fd5b60003560e01c8063066655ef1461151057806309f3f566146114f2578063263cb6b6146114995780632c6c5866146113f35780633115129c14610e7157806335659fb814610e535780633c81339414610e2a578063476343ee14610d6d5780634b7716e314610d115780634b9f24d8146103805780635012554614610c33578063587f5ed714610c155780635badbe4c14610bf7578063715018a614610b9e578063717909b914610b45578063787dce3d14610ab557806382ae0f97146106b657806387e0aeb2146105c55780638da5cb5b1461059c5780639d866985146104c8578063add4c78414610465578063b337cf74146103b1578063da185c9214610380578063f2fde38b146102f75763fb1e61ca1461012f57600080fd5b346102f25760203660031901126102f257600061012060405161015181611630565b828152826020820152606060408201528260608201528260808201528260a08201528260c0820152606060e082015282610100820152015260043560005260026020526040600020604051906101a682611630565b80546001600160a01b03168252600181015460208301526101c96002820161166f565b60408301526003810154606083015260048101546080830152600581015460a083015260ff6006820154169060048210156102dc5760099160c08401526102126007820161166f565b60e084015260018060a01b03600882015416610100840152015461012082015260405180916020825260018060a01b0381511660208301526020810151604083015260408101516101206102be61027761014093846060880152610160870190611715565b60608501516080870152608085015160a087015260a085015160c08701526102a760c086015160e0880190611755565b60e0850151868203601f1901610100880152611715565b6101008401516001600160a01b031685830152920151908301520390f35b634e487b7160e01b600052602160045260246000fd5b600080fd5b346102f25760203660031901126102f257610310611584565b610318611762565b6001600160a01b0390811690811561036757600054826001600160601b0360a01b821617600055167f8be0079c531659141344cd1fd0a4f28419497f9722a3daafe3b4186f6b6457e0600080a3005b604051631e4fbdf760e01b815260006004820152602490fd5b346102f25760203660031901126102f2576004356000526004602052602060ff604060002054166040519015158152f35b346102f2576020806003193601126102f2576001600160a01b036103d3611584565b1660005260038152604060002060405190818382549182815201908192600052846000209060005b868282106104515786866104118288038361164d565b604051928392818401908285525180915260408401929160005b82811061043a57505050500390f35b83518552869550938101939281019260010161042b565b8354855290930192600192830192016103fb565b346102f25760203660031901126102f2576004356000526002602052604060002060ff60068201541660048110156102dc576104a660076104bd930161166f565b906001604051938493604085526040850190611715565b911460208301520390f35b346102f25760203660031901126102f2576004356000526002602052604060002060018060a01b0390818154169060018101549261058b61050b6002840161166f565b9160038401549061057e6004860154600587015460ff60068901541691610564600961053960078c0161166f565b9660088c0154169a0154986040519c8d9c8d5260208d015260408c61014091829101528c0190611715565b9560608b015260808a015260a089015260c0880190611755565b85820360e0870152611715565b916101008401526101208301520390f35b346102f25760003660031901126102f2576000546040516001600160a01b039091168152602090f35b346102f25760203660031901126102f2576004356105e161180b565b8060005260026020526040600020600681019081549060ff821660048110156102dc5761060e901561182e565b600581015443111561067f5760ff199091166002179091558054600390910154610654916000918291829182916001600160a01b03165af161064e611868565b50611898565b7f6fe0249982ec39ff41cbe0301e6c114eca4ebb1720320066b62d957f1163cbaa600080a260018055005b60405162461bcd60e51b815260206004820152600f60248201526e139bdd08195e1c1a5c9959081e595d608a1b6044820152606490fd5b346102f25760603660031901126102f257602467ffffffffffffffff60043582358281116102f2576106ec9036906004016115c8565b929093604435936106fb61180b565b8360005260209260028452604060002091600683019760ff8954166004811015610aa057610729901561182e565b60058401544311610a6a578115610a37576009546001600160a01b031680151580610a2e575b6108f6575b506001988960ff19825416179055600784019282116108e1576107818261077b85546115f6565b856117b7565b600090601f8311600114610879576003949392916000918361086e575b505060001982861b1c191690891b1790555b60088101336001600160601b0360a01b82541617905585600982015501549060065480830290838204148315171561085957612710900490818303928311610845575060008080807fb68acaadc409e87420a9dda716aca513f181d79ba21500902a72b44122acc5a4969561082a6108389660075461178e565b600755335af161064e611868565b6040519384523393a38055005b634e487b7160e01b60009081526011600452fd5b50634e487b7160e01b60009081526011600452fd5b013590508a8061079e565b918991949392601f1982169084600052886000209160005b8a8282106108cb5750509683600398106108b3575b505050811b0190556107b0565b013560001983881b60f8161c191690558a80806108a6565b838a01358555988901988e969094019301610891565b84634e487b7160e01b60005260416004526000fd5b6001850154604051918a89840152888352604083019183831087841117610a1957604091839182845263e2dd674560e01b83526044860152608060648601528660c4860152868660e4870137600060e4888701015281600061096f60e4601f19601f8c0116890160a08a82030160848b01520188611715565b600260a4890152879003603f1901925af1918215610a0d576000926109d5575b50501561099c5789610754565b60405162461bcd60e51b8152600481018790526012818701527124b73b30b634b2103d35a6a610383937b7b360711b6044820152606490fd5b6040809293503d8311610a06575b6109ed818561164d565b810103126102f2575180151581036102f2578a8061098f565b503d6109e3565b6040513d6000823e3d90fd5b88634e487b7160e01b60005260416004526000fd5b5088151561074f565b60405162461bcd60e51b815260048101879052600c818701526b115b5c1d1e481c995cdd5b1d60a21b6044820152606490fd5b60405162461bcd60e51b815260048101879052600f818701526e14995c5d595cdd08195e1c1a5c9959608a1b6044820152606490fd5b85634e487b7160e01b60005260216004526000fd5b346102f25760203660031901126102f257600435610ad1611762565b6103e88111610b11577fb404cac19fb1cbeff98d325795b08886e3cd8fe8cb1a2f193aac66f13fb239c360406006548151908152836020820152a1600655005b60405162461bcd60e51b815260206004820152600c60248201526b08ccaca40e8dede40d0d2ced60a31b6044820152606490fd5b346102f25760203660031901126102f257600435610b61611762565b806000526004602052604060002060ff1981541690557f0ce0cd684ed1c15a1013dab20bed811fa182d3e28342b5be924d2cef7a103bb1600080a2005b346102f25760003660031901126102f257610bb7611762565b600080546001600160a01b0319811682556001600160a01b03167f8be0079c531659141344cd1fd0a4f28419497f9722a3daafe3b4186f6b6457e08280a3005b346102f25760003660031901126102f2576020600854604051908152f35b346102f25760003660031901126102f2576020600754604051908152f35b346102f25760203660031901126102f257600435610c4f61180b565b600081815260026020526040902080546001600160a01b03163303610cdc57600681019081549060ff82169260048410156102dc5760008060038194829482610cb198610c9d8c9b1561182e565b60ff19161790550154335af161064e611868565b7f1f29b89ae1587d701cb5136665b2e833ac2fc99ddb4481e1083ade509bcfeac1600080a260018055005b60405162461bcd60e51b815260206004820152600d60248201526c2737ba103932b8bab2b9ba32b960991b6044820152606490fd5b346102f25760203660031901126102f257600435610d2d611762565b8060005260046020526040600020600160ff198254161790557f6d29aa35cc15482f5e65960776a66652041832392a7d89e3f1488b4e40d15284600080a2005b346102f25760003660031901126102f257610d86611762565b610d8e61180b565b6007548015610def5760006007557fc0819c13be868895eb93e40eaceb96de976442fa1d404e5c55f14bb65a8c489a602060018060a01b03610ddd600080808088868254165af161064e611868565b6000541692604051908152a260018055005b60405162461bcd60e51b81526020600482015260136024820152724e6f206665657320746f20776974686472617760681b6044820152606490fd5b346102f25760003660031901126102f2576009546040516001600160a01b039091168152602090f35b346102f25760003660031901126102f2576020600654604051908152f35b60603660031901126102f25760243567ffffffffffffffff81116102f257610e9d9036906004016115c8565b9060443590610eaa61180b565b34156113bb57600435600052600460205260ff6040600020541680156113a7575b1561136d57821561133a5761271083116113035760085460001981146112ed576001810160085560405160208101913360601b8352600435603483015242605483015260748201526074815260a0810181811067ffffffffffffffff8211176111d0576040525190209180156112e157610f46905b4361178e565b604051906020820182811067ffffffffffffffff8211176111d0576040526000825260405194610f7586611630565b3386526004356020870152610f898161179b565b93610f97604051958661164d565b81855236828201116102f2578160009260209283880137850101526040850192835234606086015242608086015260a0850152600060c085015260e08401526000610100840152600061012084015281600052600260205260406000209060018060a01b038451166001600160601b0360a01b835416178255602084015160018301555192835167ffffffffffffffff81116111d0576110478161103e60028601546115f6565b600286016117b7565b6020601f8211600114611272578192939495600092611267575b50508160011b916000199060031b1c19161760028301555b606081015160038301556080810151600483015560a081015160058301556006820160c082015160048110156102dc5760ff8019835416911617905560e081015180519067ffffffffffffffff82116111d0576110e6826110dd60078701546115f6565b600787016117b7565b602090601f83116001146111f157918060099492610120946000926111e6575b50508160011b916000199060031b1c19161760078501555b6008840160018060a01b03610100830151166001600160601b0360a01b8254161790550151910155336000526003602052604060002090815491680100000000000000008310156111d0578261117b91600160209501815561159a565b81549060031b9083821b91600019901b191617905560405160043581523483820152817f73379e0eb0a8c43416b93a5ad73c8f23ed1b510614ad484efdad08b000e357a960403393a360018055604051908152f35b634e487b7160e01b600052604160045260246000fd5b015190508780611106565b906007850160005260206000209160005b601f198516811061124f575092600994926001926101209583601f19811610611236575b505050811b01600785015561111e565b015160001960f88460031b161c19169055878080611226565b91926020600181928685015181550194019201611202565b015190508580611061565b6002840160005260206000209060005b601f19841681106112c9575060019394959683601f198116106112b0575b505050811b016002830155611079565b015160001960f88460031b161c191690558580806112a0565b9091602060018192858b015181550193019101611282565b50610f46600554610f40565b634e487b7160e01b600052601160045260246000fd5b60405162461bcd60e51b815260206004820152600f60248201526e496e70757420746f6f206c6172676560881b6044820152606490fd5b60405162461bcd60e51b815260206004820152600b60248201526a115b5c1d1e481a5b9c1d5d60aa1b6044820152606490fd5b60405162461bcd60e51b8152602060048201526012602482015271135bd9195b081b9bdd08185c1c1c9bdd995960721b6044820152606490fd5b506000546001600160a01b03163314610ecb565b60405162461bcd60e51b815260206004820152601060248201526f14185e5b595b9d081c995c5d5a5c995960821b6044820152606490fd5b346102f25760203660031901126102f25760043561140f611762565b600a8110158061148d575b15611456577f0b4c82669eaf4a3452c1acc580e4bef88cd0e230e96aa78c54ef911e6dc73b9f60406005548151908152836020820152a1600555005b60405162461bcd60e51b815260206004820152600f60248201526e125b9d985b1a59081d1a5b595bdd5d608a1b6044820152606490fd5b5061271081111561141a565b346102f25760403660031901126102f2576114b2611584565b6001600160a01b03166000908152600360205260409020805460243591908210156102f2576020916114e39161159a565b90549060031b1c604051908152f35b346102f25760003660031901126102f2576020600554604051908152f35b346102f25760203660031901126102f257611529611584565b611531611762565b600954604080516001600160a01b03808416825290931660208401819052927f016d6f9ae42146c8392668fc0cfa143edfac72b1c90acff1c61f04c3da1793019190a16001600160a01b03191617600955005b600435906001600160a01b03821682036102f257565b80548210156115b25760005260206000200190600090565b634e487b7160e01b600052603260045260246000fd5b9181601f840112156102f25782359167ffffffffffffffff83116102f257602083818601950101116102f257565b90600182811c92168015611626575b602083101461161057565b634e487b7160e01b600052602260045260246000fd5b91607f1691611605565b610140810190811067ffffffffffffffff8211176111d057604052565b90601f8019910116810190811067ffffffffffffffff8211176111d057604052565b9060405191826000825492611683846115f6565b9081845260019485811690816000146116f257506001146116af575b50506116ad9250038361164d565b565b9093915060005260209081600020936000915b8183106116da5750506116ad9350820101388061169f565b855488840185015294850194879450918301916116c2565b9150506116ad94506020925060ff191682840152151560051b820101388061169f565b919082519283825260005b848110611741575050826000602080949584010152601f8019910116010190565b602081830181015184830182015201611720565b9060048210156102dc5752565b6000546001600160a01b0316330361177657565b60405163118cdaa760e01b8152336004820152602490fd5b919082018092116112ed57565b67ffffffffffffffff81116111d057601f01601f191660200190565b90601f81116117c557505050565b600091825260208220906020601f850160051c83019410611801575b601f0160051c01915b8281106117f657505050565b8181556001016117ea565b90925082906117e1565b60026001541461181c576002600155565b604051633ee5aeb560e01b8152600490fd5b1561183557565b60405162461bcd60e51b815260206004820152600b60248201526a4e6f742070656e64696e6760a81b6044820152606490fd5b3d15611893573d906118798261179b565b91611887604051938461164d565b82523d6000602084013e565b606090565b1561189f57565b60405162461bcd60e51b815260206004820152600f60248201526e151c985b9cd9995c8819985a5b1959608a1b6044820152606490fdfea264697066735822122070a2d0056e951997cce8b8b71179ac4bbd58303123dc4642c8aa89c375862cde64736f6c63430008140033",
  "linkReferences": {},
  "deployedLinkReferences": {}
}