{
  "_format": "hh-sol-artifact-1",
  "contractName": "TokenVesting",
  "sourceName": "src/templates/TokenVesting.sol",
  "abi": [
    {
      "inputs": [],
      "stateMutability": "nonpayable",
      "type": "constructor"
    },
    {
      "anonymous": false,
      "inputs": [
        {
          "indexed": true,
          "internalType": "address",
          "name": "sender",
          "type": "address"
        },
        {
          "indexed": false,
          "internalType": "uint256",
          "name": "amount",
          "type": "uint256"
        }
      ],
      "name": "Deposit",
      "type": "event"
    },
    {
      "anonymous": false,
      "inputs": [
        {
          "indexed": true,
          "internalType": "address",
          "name": "owner",
          "type": "address"
        },
        {
          "indexed": false,
          "internalType": "uint256",
          "name": "amount",
          "type": "uint256"
        }
      ],
      "name": "EmergencyWithdraw",
      "type": "event"
    },
    {
      "anonymous": false,
      "inputs": [
        {
          "indexed": true,
          "internalType": "uint256",
          "name": "scheduleId",
          "type": "uint256"
        },
        {
          "indexed": true,
          "internalType": "address",
          "name": "beneficiary",
          "type": "address"
        },
        {
          "indexed": false,
          "internalType": "uint256",
          "name": "amount",
          "type": "uint256"
        }
      ],
      "name": "TokensReleased",
      "type": "event"
    },
    {
      "anonymous": false,
      "inputs": [
        {
          "indexed": true,
          "internalType": "uint256",
          "name": "scheduleId",
          "type": "uint256"
        },
        {
          "indexed": true,
          "internalType": "address",
          "name": "beneficiary",
          "type": "address"
        },
        {
          "indexed": false,
          "internalType": "uint256",
          "name": "amount",
          "type": "uint256"
        },
        {
          "indexed": false,
          "internalType": "uint256",
          "name": "startTime",
          "type": "uint256"
        },
        {
          "indexed": false,
          "internalType": "uint256",
          "name": "cliffDuration",
          "type": "uint256"
        },
        {
          "indexed": false,
          "internalType": "uint256",
          "name": "vestingDuration",
          "type": "uint256"
        }
      ],
      "name": "VestingCreated",
      "type": "event"
    },
    {
      "anonymous": false,
      "inputs": [
        {
          "indexed": true,
          "internalType": "uint256",
          "name": "scheduleId",
          "type": "uint256"
        },
        {
          "indexed": true,
          "internalType": "address",
          "name": "beneficiary",
          "type": "address"
        },
        {
          "indexed": false,
          "internalType": "uint256",
          "name": "unvestedAmount",
          "type": "uint256"
        }
      ],
      "name": "VestingRevoked",
      "type": "event"
    },
    {
      "inputs": [
        {
          "internalType": "address",
          "name": "",
          "type": "address"
        },
        {
          "internalType": "uint256",
          "name": "",
          "type": "uint256"
        }
      ],
      "name": "beneficiarySchedules",
      "outputs": [
        {
          "internalType": "uint256",
          "name": "",
          "type": "uint256"
        }
      ],
      "stateMutability": "view",
      "type": "function"
    },
    {
      "inputs": [
        {
          "internalType": "address",
          "name": "beneficiary",
          "type": "address"
        },
        {
          "internalType": "uint256",
          "name": "amount",
          "type": "uint256"
        },
        {
          "internalType": "uint256",
          "name": "cliffDuration",
          "type": "uint256"
        },
        {
          "internalType": "uint256",
          "name": "vestingDuration",
          "type": "uint256"
        }
      ],
      "name": "createVestingSchedule",
      "outputs": [
        {
          "internalType": "uint256",
          "name": "scheduleId",
          "type": "uint256"
        }
      ],
      "stateMutability": "nonpayable",
      "type": "function"
    },
    {
      "inputs": [],
      "name": "emergencyWithdraw",
      "outputs": [],
      "stateMutability": "nonpayable",
      "type": "function"
    },
    {
      "inputs": [],
      "name": "getContractBalance",
      "outputs": [
        {
          "internalType": "uint256",
          "name": "",
          "type": "uint256"
        }
      ],
      "stateMutability": "view",
      "type": "function"
    },
    {
      "inputs": [
        {
          "internalType": "uint256",
          "name": "scheduleId",
          "type": "uint256"
        }
      ],
      "name": "getScheduleDetails",
      "outputs": [
        {
          "internalType": "address",
          "name": "beneficiary",
          "type": "address"
        },
        {
          "internalType": "uint256",
          "name": "totalAmount",
          "type": "uint256"
        },
        {
          "internalType": "uint256",
          "name": "startTime",
          "type": "uint256"
        },
        {
          "internalType": "uint256",
          "name": "cliffDuration",
          "type": "uint256"
        },
        {
          "internalType": "uint256",
          "name": "vestingDuration",
          "type": "uint256"
        },
        {
          "internalType": "uint256",
          "name": "releasedAmount",
          "type": "uint256"
        },
        {
          "internalType": "uint256",
          "name": "vestedAmountNow",
          "type": "uint256"
        },
        {
          "internalType": "uint256",
          "name": "releasableAmountNow",
          "type": "uint256"
        },
        {
          "internalType": "bool",
          "name": "revoked",
          "type": "bool"
        }
      ],
      "stateMutability": "view",
      "type": "function"
    },
    {
      "inputs": [
        {
          "internalType": "address",
          "name": "beneficiary",
          "type": "address"
        }
      ],
      "name": "getSchedulesByBeneficiary",
      "outputs": [
        {
          "internalType": "uint256[]",
          "name": "",
          "type": "uint256[]"
        }
      ],
      "stateMutability": "view",
      "type": "function"
    },
    {
      "inputs": [],
      "name": "owner",
      "outputs": [
        {
          "internalType": "address",
          "name": "",
          "type": "address"
        }
      ],
      "stateMutability": "view",
      "type": "function"
    },
    {
      "inputs": [
        {
          "internalType": "uint256",
          "name": "scheduleId",
          "type": "uint256"
        }
      ],
      "name": "releasableAmount",
      "outputs": [
        {
          "internalType": "uint256",
          "name": "",
          "type": "uint256"
        }
      ],
      "stateMutability": "view",
      "type": "function"
    },
    {
      "inputs": [
        {
          "internalType": "uint256",
          "name": "scheduleId",
          "type": "uint256"
        }
      ],
      "name": "release",
      "outputs": [],
      "stateMutability": "nonpayable",
      "type": "function"
    },
    {
      "inputs": [
        {
          "internalType": "uint256",
          "name": "scheduleId",
          "type": "uint256"
        }
      ],
      "name": "revoke",
      "outputs": [],
      "stateMutability": "nonpayable",
      "type": "function"
    },
    {
      "inputs": [
        {
          "internalType": "uint256",
          "name": "scheduleId",
          "type": "uint256"
        }
      ],
      "name": "vestedAmount",
      "outputs": [
        {
          "internalType": "uint256",
          "name": "",
          "type": "uint256"
        }
      ],
      "stateMutability": "view",
      "type": "function"
    },
    {
      "inputs": [],
      "name": "vestingIdCounter",
      "outputs": [
        {
          "internalType": "uint256",
          "name": "",
          "type": "uint256"
        }
      ],
      "stateMutability": "view",
      "type": "function"
    },
    {
      "inputs": [
        {
          "internalType": "uint256",
          "name": "",
          "type": "uint256"
        }
      ],
      "name": "vestingSchedules",
      "outputs": [
        {
          "internalType": "address",
          "name": "beneficiary",
          "type": "address"
        },
        {
          "internalType": "uint256",
          "name": "totalAmount",
          "type": "uint256"
        },
        {
          "internalType": "uint256",
          "name": "startTime",
          "type": "uint256"
        },
        {
          "internalType": "uint256",
          "name": "cliffDuration",
          "type": "uint256"
        },
        {
          "internalType": "uint256",
          "name": "vestingDuration",
          "type": "uint256"
        },
        {
          "internalType": "uint256",
          "name": "releasedAmount",
          "type": "uint256"
        },
        {
          "internalType": "bool",
          "name": "revoked",
          "type": "bool"
        },
        {
          "internalType": "bool",
          "name": "initialized",
          "type": "bool"
        }
      ],
      "stateMutability": "view",
      "type": "function"
    },
    {
      "stateMutability": "payable",
      "type": "receive"
    }
  ],
  "bytecode": "0x6080806040523461002b57600080546001600160a01b03191633178155600155610e0790816100318239f35b600080fdfe604060808152600480361015610048575b50361561001c57600080fd5b513481527fe1fffcc4923d04b559f4d29a8bfc6cda04eb5b0d3c460751c2402c5c5cc9109c60203392a2005b90600091823560e01c80631bfce85314610aad57806320c5429b1461097857806337bdc99b146107d65780633f4e8e801461047657806340f1031e1461045757806346ca4241146104015780635927fca2146103da5780636d3cbe21146103585780636f9fb98a1461033d5780638da5cb5b146103115780639466e9e914610261578063a33b88bf1461019f5763db2e21bc146100e6575090610010565b3461019b578260031936011261019b5782546001600160a01b0390811661010e338214610b31565b4792831561016157509160209161015586808080867f5fafa99d0643513820be26656b45130b01e1c03062e1266bf36f88cbd3bd9695995af161014f610d53565b50610d93565b8554169351908152a280f35b606490602086519162461bcd60e51b835282015260146024820152734e6f2066756e647320746f20776974686472617760601b6044820152fd5b8280fd5b503461019b57602036600319011261019b578181610120949360ff93359485815260026020526101d9856006848420015460081c16610bbf565b8581526002602052209360018060a01b038554169460018101549260028201549060038301549083015491600660058501549401549661021d898960081c16610bbf565b61022f61022987610c3b565b96610cf2565b9681519a8b5260208b01528901526060880152608087015260a086015260c085015260e0840152161515610100820152f35b82843461030e576020908160031936011261030e5782906001600160a01b03610288610ae8565b16815260038352818120908251808584549182815201908194845286842090845b8181106102fa57505050816102bf910382610b87565b83519485948186019282875251809352850193925b8281106102e357505050500390f35b8351855286955093810193928101926001016102d4565b8254845292880192600192830192016102a9565b80fd5b505034610339578160031936011261033957905490516001600160a01b039091168152602090f35b5080fd5b50503461033957816003193601126103395751478152602090f35b503461019b57602036600319011261019b5780826101009460ff9335815260026020522060018060a01b03815416936001820154926002830154600384015491840154926006600586015495015495815198895260208901528701526060860152608085015260a0840152818116151560c084015260081c16151560e0820152f35b50913461030e57602036600319011261030e57506103fa60209235610cf2565b9051908152f35b50503461033957806003193601126103395761041b610ae8565b6001600160a01b0316825260036020528082208054602435939084101561030e575060209261044991610b03565b90549060031b1c9051908152f35b5050346103395781600319360112610339576020906001549051908152f35b5091903461033957608036600319011261033957610492610ae8565b60249283359460449283359160649384359460018060a01b0380946104bb828554163314610b31565b1696871561078b578a1561074c5786156106fc578686116106b0578a4710610671575050600180549860001994858b1461065f57828b018355895190610100820182811067ffffffffffffffff82111761064d5785928d8f8b8f8f928f93978b98600698845287526020870191825282870192428452606088019485526080880195865260a08801968b885260c089019b808d5260e08a019b8c525260026020528d209651166bffffffffffffffffffffffff60a01b875416178655518a860155516002850155516003840155518983015551600582015501915115159060ff61ff0084549251151560081b1692169061ffff1916171790558783526003602052888320928354946801000000000000000086101561063d5750505093608093610610848b98947f03c39b92cd8885afcf2ec5c723da94dba0790a3b1037725b8fa8de326f4947329860209e97018155610b03565b819291549060031b9189831b921b19161790558751928352428a840152878301526060820152a351908152f35b634e487b7160e01b825260419052fd5b634e487b7160e01b8652604187528386fd5b50634e487b7160e01b83526011845282fd5b7f496e73756666696369656e7420636f6e74726163742062616c616e63650000008491601d8c60208d519562461bcd60e51b8752860152840152820152fd5b633a34b7b760e11b6084927f436c6966662063616e6e6f74206578636565642076657374696e67206475726186938d60208e519662461bcd60e51b885287015280860152840152820152fd5b660207468616e20360cc1b6084927f56657374696e67206475726174696f6e206d7573742062652067726561746572869360278e60208f519762461bcd60e51b8952880152860152840152820152fd5b7f416d6f756e74206d7573742062652067726561746572207468616e20300000008491601d8c60208d519562461bcd60e51b8752860152840152820152fd5b61737360f01b6084927f42656e65666963696172792063616e6e6f74206265207a65726f206164647265869360228e60208f519762461bcd60e51b8952880152860152840152820152fd5b509190346103395760208060031936011261019b578335908184526002815261080a60ff6006858720015460081c16610bbf565b818452600281528284209460ff60068701541661092d5785546001600160a01b0390811696338890036108de5761084085610cf2565b92831561089b575061089087808080877fa6c812047c4dc10f52f9e7943b1b3dfafae864d5e0d4ded081bbbde69dd6ff0d9a9b9c9d60058801610884838254610c0b565b90555af161014f610d53565b54169451908152a380f35b865162461bcd60e51b8152908101859052601f60248201527f4e6f20746f6b656e7320617661696c61626c6520666f722072656c65617365006044820152606490fd5b855162461bcd60e51b8152808401859052602360248201527f4f6e6c792062656e65666963696172792063616e2072656c6561736520746f6b604482015262656e7360e81b6064820152608490fd5b60849184519162461bcd60e51b8352820152602160248201527f56657374696e67207363686564756c6520686173206265656e207265766f6b656044820152601960fa1b6064820152fd5b509190346103395760208060031936011261019b5782546001600160a01b0394803592916109a99087163314610b31565b828552600282526109c560ff6006868820015460081c16610bbf565b8285526002825283852095600687019687549260ff8416610a6c57508697857f740e00656bffeb4991e0c72cb99c21c504d644c1f90eaff0d75112260f5889179697985260028552610a2260ff60068a8c20015460081c16610bbf565b6001610a39610a3089610c3b565b82850154610c2e565b9460ff191617905582610a515754169451908152a380f35b610a678880808087878254165af161014f610d53565b610890565b606490858089519262461bcd60e51b845283015260248201527f56657374696e67207363686564756c6520616c7265616479207265766f6b65646044820152fd5b503461019b57602036600319011261019b57602092610ae360ff6006856103fa9535948581526002895220015460081c16610bbf565b610c3b565b600435906001600160a01b0382168203610afe57565b600080fd5b8054821015610b1b5760005260206000200190600090565b634e487b7160e01b600052603260045260246000fd5b15610b3857565b60405162461bcd60e51b815260206004820152602160248201527f4f6e6c79206f776e65722063616e2063616c6c20746869732066756e6374696f6044820152603760f91b6064820152608490fd5b90601f8019910116810190811067ffffffffffffffff821117610ba957604052565b634e487b7160e01b600052604160045260246000fd5b15610bc657565b60405162461bcd60e51b815260206004820152601f60248201527f56657374696e67207363686564756c6520646f6573206e6f74206578697374006044820152606490fd5b91908201809211610c1857565b634e487b7160e01b600052601160045260246000fd5b91908203918211610c1857565b600090815260026020526040812060ff600682015416610ce957600281015491610c69600383015484610c0b565b4210610ce357600482015492610c7f8482610c0b565b421015610cd857610c9260019142610c2e565b920154828102928184041490151715610cc4578215610cb057500490565b634e487b7160e01b81526012600452602490fd5b634e487b7160e01b81526011600452602490fd5b505060019150015490565b91505090565b60059150015490565b610d50906005604060008381526002602052610d1960ff6006848420015460081c16610bbf565b8381526002602052610d3660ff6006848420015460081c16610bbf565b610d3f84610c3b565b938152600260205220015490610c2e565b90565b3d15610d8e573d9067ffffffffffffffff8211610ba95760405191610d82601f8201601f191660200184610b87565b82523d6000602084013e565b606090565b15610d9a57565b60405162461bcd60e51b815260206004820152600f60248201526e151c985b9cd9995c8819985a5b1959608a1b6044820152606490fdfea264697066735822122059cdc8c890a05df0cc6d3b4322968bb002d503a33bc0d154d31d4c7e7b98dcb864736f6c63430008140033",
  "linkReferences": {},
  "deployedLinkReferences": {}
}