{
  "_format": "hh-sol-artifact-1",
  "contractName": "TokenVesting",
  "sourceName": "src/templates/TokenVesting.sol",
  "abi": [
    {
      "inputs": [],
      "stateMutability": "nonpayable",
      "type": "constructor"
    },
    {
      "inputs": [],
      "name": "ReentrancyGuardReentrantCall",
      "type": "error"
    },
    {
      "anonymous": false,
      "inputs": [
        {
          "indexed": true,
          "internalType": "address",
          "name": "sender",
          "type": "address"
        },
        {
          "indexed": false,
          "internalType": "uint256",
          "name": "amount",
          "type": "uint256"
        }
      ],
      "name": "Deposit",
      "type": "event"
    },
    {
      "anonymous": false,
      "inputs": [
        {
          "indexed": true,
          "internalType": "address",
          "name": "owner",
          "type": "address"
        },
        {
          "indexed": false,
          "internalType": "uint256",
          "name": "amount",
          "type": "uint256"
        }
      ],
      "name": "EmergencyWithdraw",
      "type": "event"
    },
    {
      "anonymous": false,
      "inputs": [
        {
          "indexed": true,
          "internalType": "uint256",
          "name": "scheduleId",
          "type": "uint256"
        },
        {
          "indexed": true,
          "internalType": "address",
          "name": "beneficiary",
          "type": "address"
        },
        {
          "indexed": false,
          "internalType": "uint256",
          "name": "amount",
          "type": "uint256"
        }
      ],
      "name": "TokensReleased",
      "type": "event"
    },
    {
      "anonymous": false,
      "inputs": [
        {
          "indexed": true,
          "internalType": "uint256",
          "name": "scheduleId",
          "type": "uint256"
        },
        {
          "indexed": true,
          "internalType": "address",
          "name": "beneficiary",
          "type": "address"
        },
        {
          "indexed": false,
          "internalType": "uint256",
          "name": "amount",
          "type": "uint256"
        },
        {
          "indexed": false,
          "internalType": "uint256",
          "name": "startTime",
          "type": "uint256"
        },
        {
          "indexed": false,
          "internalType": "uint256",
          "name": "cliffDuration",
          "type": "uint256"
        },
        {
          "indexed": false,
          "internalType": "uint256",
          "name": "vestingDuration",
          "type": "uint256"
        }
      ],
      "name": "VestingCreated",
      "type": "event"
    },
    {
      "anonymous": false,
      "inputs": [
        {
          "indexed": true,
          "internalType": "uint256",
          "name": "scheduleId",
          "type": "uint256"
        },
        {
          "indexed": true,
          "internalType": "address",
          "name": "beneficiary",
          "type": "address"
        },
        {
          "indexed": false,
          "internalType": "uint256",
          "name": "unvestedAmount",
          "type": "uint256"
        }
      ],
      "name": "VestingRevoked",
      "type": "event"
    },
    {
      "inputs": [
        {
          "internalType": "address",
          "name": "",
          "type": "address"
        },
        {
          "internalType": "uint256",
          "name": "",
          "type": "uint256"
        }
      ],
      "name": "beneficiarySchedules",
      "outputs": [
        {
          "internalType": "uint256",
          "name": "",
          "type": "uint256"
        }
      ],
      "stateMutability": "view",
      "type": "function"
    },
    {
      "inputs": [
        {
          "internalType": "address",
          "name": "beneficiary",
          "type": "address"
        },
        {
          "internalType": "uint256",
          "name": "amount",
          "type": "uint256"
        },
        {
          "internalType": "uint256",
          "name": "cliffDuration",
          "type": "uint256"
        },
        {
          "internalType": "uint256",
          "name": "vestingDuration",
          "type": "uint256"
        }
      ],
      "name": "createVestingSchedule",
      "outputs": [
        {
          "internalType": "uint256",
          "name": "scheduleId",
          "type": "uint256"
        }
      ],
      "stateMutability": "nonpayable",
      "type": "function"
    },
    {
      "inputs": [],
      "name": "emergencyWithdraw",
      "outputs": [],
      "stateMutability": "nonpayable",
      "type": "function"
    },
    {
      "inputs": [],
      "name": "getContractBalance",
      "outputs": [
        {
          "internalType": "uint256",
          "name": "",
          "type": "uint256"
        }
      ],
      "stateMutability": "view",
      "type": "function"
    },
    {
      "inputs": [
        {
          "internalType": "uint256",
          "name": "scheduleId",
          "type": "uint256"
        }
      ],
      "name": "getScheduleDetails",
      "outputs": [
        {
          "internalType": "address",
          "name": "beneficiary",
          "type": "address"
        },
        {
          "internalType": "uint256",
          "name": "totalAmount",
          "type": "uint256"
        },
        {
          "internalType": "uint256",
          "name": "startTime",
          "type": "uint256"
        },
        {
          "internalType": "uint256",
          "name": "cliffDuration",
          "type": "uint256"
        },
        {
          "internalType": "uint256",
          "name": "vestingDuration",
          "type": "uint256"
        },
        {
          "internalType": "uint256",
          "name": "releasedAmount",
          "type": "uint256"
        },
        {
          "internalType": "uint256",
          "name": "vestedAmountNow",
          "type": "uint256"
        },
        {
          "internalType": "uint256",
          "name": "releasableAmountNow",
          "type": "uint256"
        },
        {
          "internalType": "bool",
          "name": "revoked",
          "type": "bool"
        }
      ],
      "stateMutability": "view",
      "type": "function"
    },
    {
      "inputs": [
        {
          "internalType": "address",
          "name": "beneficiary",
          "type": "address"
        }
      ],
      "name": "getSchedulesByBeneficiary",
      "outputs": [
        {
          "internalType": "uint256[]",
          "name": "",
          "type": "uint256[]"
        }
      ],
      "stateMutability": "view",
      "type": "function"
    },
    {
      "inputs": [],
      "name": "owner",
      "outputs": [
        {
          "internalType": "address",
          "name": "",
          "type": "address"
        }
      ],
      "stateMutability": "view",
      "type": "function"
    },
    {
      "inputs": [
        {
          "internalType": "uint256",
          "name": "scheduleId",
          "type": "uint256"
        }
      ],
      "name": "releasableAmount",
      "outputs": [
        {
          "internalType": "uint256",
          "name": "",
          "type": "uint256"
        }
      ],
      "stateMutability": "view",
      "type": "function"
    },
    {
      "inputs": [
        {
          "internalType": "uint256",
          "name": "scheduleId",
          "type": "uint256"
        }
      ],
      "name": "release",
      "outputs": [],
      "stateMutability": "nonpayable",
      "type": "function"
    },
    {
      "inputs": [
        {
          "internalType": "uint256",
          "name": "scheduleId",
          "type": "uint256"
        }
      ],
      "name": "revoke",
      "outputs": [],
      "stateMutability": "nonpayable",
      "type": "function"
    },
    {
      "inputs": [
        {
          "internalType": "uint256",
          "name": "scheduleId",
          "type": "uint256"
        }
      ],
      "name": "vestedAmount",
      "outputs": [
        {
          "internalType": "uint256",
          "name": "",
          "type": "uint256"
        }
      ],
      "stateMutability": "view",
      "type": "function"
    },
    {
      "inputs": [],
      "name": "vestingIdCounter",
      "outputs": [
        {
          "internalType": "uint256",
          "name": "",
          "type": "uint256"
        }
      ],
      "stateMutability": "view",
      "type": "function"
    },
    {
      "inputs": [
        {
          "internalType": "uint256",
          "name": "",
          "type": "uint256"
        }
      ],
      "name": "vestingSchedules",
      "outputs": [
        {
          "internalType": "address",
          "name": "beneficiary",
          "type": "address"
        },
        {
          "internalType": "uint256",
          "name": "totalAmount",
          "type": "uint256"
        },
        {
          "internalType": "uint256",
          "name": "startTime",
          "type": "uint256"
        },
        {
          "internalType": "uint256",
          "name": "cliffDuration",
          "type": "uint256"
        },
        {
          "internalType": "uint256",
          "name": "vestingDuration",
          "type": "uint256"
        },
        {
          "internalType": "uint256",
          "name": "releasedAmount",
          "type": "uint256"
        },
        {
          "internalType": "bool",
          "name": "revoked",
          "type": "bool"
        },
        {
          "internalType": "bool",
          "name": "initialized",
          "type": "bool"
        }
      ],
      "stateMutability": "view",
      "type": "function"
    },
    {
      "stateMutability": "payable",
      "type": "receive"
    }
  ],
  "bytecode": "0x60808060405234610031576001600081815581546001600160a01b0319163317909155600255610ed590816100378239f35b600080fdfe604060808152600480361015610048575b50361561001c57600080fd5b513481527fe1fffcc4923d04b559f4d29a8bfc6cda04eb5b0d3c460751c2402c5c5cc9109c60203392a2005b600090813560e01c80631bfce85314610b4757806320c5429b14610a0557806337bdc99b146108585780633f4e8e801461051057806340f1031e146104f157806346ca4241146104995780635927fca2146104715780636d3cbe21146103ed5780636f9fb98a146103d25780638da5cb5b146103a95780639466e9e9146102f6578063a33b88bf146102325763db2e21bc146100e45750610010565b823461022e578260031936011261022e576100fd610e7c565b6001805490926001600160a01b03918216919061011b338414610bcd565b47869187600254905b8181106101c65750508282111561018c57509161017e8780808061016c7f5fafa99d0643513820be26656b45130b01e1c03062e1266bf36f88cbd3bd96959997602099610cd9565b80975af1610178610dfe565b50610e3e565b8554169351908152a2815580f35b606490602087519162461bcd60e51b835282015260146024820152734e6f20756e636f6d6d69747465642066756e647360601b6044820152fd5b808a526003602052878a20600681015460ff808260081c169182610223575b50506101fb575b506101f690610c23565b610124565b6101f691956102168260058d61021c95015491015490610cd9565b90610ccc565b94906101ec565b161590508c806101e5565b8280fd5b5082903461022e57602036600319011261022e578181610120949360ff933594858152600360205261026e856006848420015460081c16610c80565b8581526003602052209360018060a01b03855416946001810154926002820154906003830154908301549160066005850154940154966102b2898960081c16610c80565b6102c46102be87610ce6565b96610d9d565b9681519a8b5260208b01528901526060880152608087015260a086015260c085015260e0840152161515610100820152f35b5090346103a657602091826003193601126103a2579192916001600160a01b0361031e610b84565b1682528352818120908251808584549182815201908194845286842090845b81811061038e5750505081610353910382610c48565b83519485948186019282875251809352850193925b82811061037757505050500390f35b835185528695509381019392810192600101610368565b82548452928801926001928301920161033d565b5080fd5b80fd5b8284346103a257816003193601126103a25760015490516001600160a01b039091168152602090f35b8284346103a257816003193601126103a25751478152602090f35b5082903461022e57602036600319011261022e5780826101009460ff9335815260036020522060018060a01b03815416936001820154926002830154600384015491840154926006600586015495015495815198895260208901528701526060860152608085015260a0840152818116151560c084015260081c16151560e0820152f35b509190346103a65760203660031901126103a6575061049260209235610d9d565b9051908152f35b509190346103a657816003193601126103a6576104b4610b84565b6001600160a01b03168152602092909252808220805460243593908410156103a657506020926104e391610b9f565b91905490519160031b1c8152f35b8284346103a257816003193601126103a2576020906002549051908152f35b50823461022e57608036600319011261022e5761052b610b84565b91602480359460449283359160649384359460018060a01b03809961055582600154163314610bcd565b1696871561080d578a156107ce57861561077e57868611610732578a47106106f35750506002549761058689610c23565b600255875190610100820182811067ffffffffffffffff8211176106e15789928b9260069285528a82528d6020830190815285830142815260608401908b825260808501928d845260a08601948b865260c08701998c8b5260e088019960018b528d5260036020528c209651166bffffffffffffffffffffffff60a01b875416178655516001860155516002850155516003840155518883015551600582015501915115159060ff61ff0084549251151560081b1692169061ffff1916171790558582528260205286822091825493680100000000000000008510156106d1575050509686937f03c39b92cd8885afcf2ec5c723da94dba0790a3b1037725b8fa8de326f494732936106a28460209b6001608097018155610b9f565b81549060031b9088821b91600019901b19161790558751928352428a840152878301526060820152a351908152f35b634e487b7160e01b825260419052fd5b634e487b7160e01b8552604186528385fd5b7f496e73756666696369656e7420636f6e74726163742062616c616e63650000008591601d8560208d519562461bcd60e51b8752860152840152820152fd5b84917f436c6966662063616e6e6f74206578636565642076657374696e672064757261633a34b7b760e11b9260849560208d519662461bcd60e51b885287015280860152840152820152fd5b84917f56657374696e67206475726174696f6e206d7573742062652067726561746572660207468616e20360cc1b92602760849660208e519762461bcd60e51b8952880152860152840152820152fd5b7f416d6f756e74206d7573742062652067726561746572207468616e20300000008591601d8560208d519562461bcd60e51b8752860152840152820152fd5b84917f42656e65666963696172792063616e6e6f74206265207a65726f20616464726561737360f01b92602260849660208e519762461bcd60e51b8952880152860152840152820152fd5b5091346103a25760208060031936011261022e57833590610877610e7c565b8184526003815261089360ff6006858720015460081c16610c80565b818452600381528284209460ff6006870154166109ba5785546001600160a01b03908116963388900361096b576108c985610d9d565b928315610928575061091987808080877fa6c812047c4dc10f52f9e7943b1b3dfafae864d5e0d4ded081bbbde69dd6ff0d9a9b9c9d6005880161090d838254610ccc565b90555af1610178610dfe565b54169451908152a36001815580f35b865162461bcd60e51b8152908101859052601f60248201527f4e6f20746f6b656e7320617661696c61626c6520666f722072656c65617365006044820152606490fd5b855162461bcd60e51b8152808401859052602360248201527f4f6e6c792062656e65666963696172792063616e2072656c6561736520746f6b604482015262656e7360e81b6064820152608490fd5b60849184519162461bcd60e51b8352820152602160248201527f56657374696e67207363686564756c6520686173206265656e207265766f6b656044820152601960fa1b6064820152fd5b5091346103a25760208060031936011261022e57833590610a24610e7c565b6001546001600160a01b039590610a3e9087163314610bcd565b82855260038252610a5a60ff6006868820015460081c16610c80565b8285526003825283852095600687019687549260ff8416610b0657508697857f740e00656bffeb4991e0c72cb99c21c504d644c1f90eaff0d75112260f5889179697985260038552610ab760ff60068a8c20015460081c16610c80565b6001610ace610ac589610ce6565b82850154610cd9565b9460ff191617905582610aea5754169451908152a36001815580f35b610b01888080808787600154165af1610178610dfe565b610919565b606490858089519262461bcd60e51b845283015260248201527f56657374696e67207363686564756c6520616c7265616479207265766f6b65646044820152fd5b5082903461022e57602036600319011261022e57602092610b7f60ff6006856104929535948581526003895220015460081c16610c80565b610ce6565b600435906001600160a01b0382168203610b9a57565b600080fd5b8054821015610bb75760005260206000200190600090565b634e487b7160e01b600052603260045260246000fd5b15610bd457565b60405162461bcd60e51b815260206004820152602160248201527f4f6e6c79206f776e65722063616e2063616c6c20746869732066756e6374696f6044820152603760f91b6064820152608490fd5b6000198114610c325760010190565b634e487b7160e01b600052601160045260246000fd5b90601f8019910116810190811067ffffffffffffffff821117610c6a57604052565b634e487b7160e01b600052604160045260246000fd5b15610c8757565b60405162461bcd60e51b815260206004820152601f60248201527f56657374696e67207363686564756c6520646f6573206e6f74206578697374006044820152606490fd5b91908201809211610c3257565b91908203918211610c3257565b600090815260036020526040812060ff600682015416610d9457600281015491610d14600383015484610ccc565b4210610d8e57600482015492610d2a8482610ccc565b421015610d8357610d3d60019142610cd9565b920154828102928184041490151715610d6f578215610d5b57500490565b634e487b7160e01b81526012600452602490fd5b634e487b7160e01b81526011600452602490fd5b505060019150015490565b91505090565b60059150015490565b610dfb906005604060008381526003602052610dc460ff6006848420015460081c16610c80565b8381526003602052610de160ff6006848420015460081c16610c80565b610dea84610ce6565b938152600360205220015490610cd9565b90565b3d15610e39573d9067ffffffffffffffff8211610c6a5760405191610e2d601f8201601f191660200184610c48565b82523d6000602084013e565b606090565b15610e4557565b60405162461bcd60e51b815260206004820152600f60248201526e151c985b9cd9995c8819985a5b1959608a1b6044820152606490fd5b600260005414610e8d576002600055565b604051633ee5aeb560e01b8152600490fdfea2646970667358221220b28040c39a11664666169638b2007bb7ce5371888bda9d869a45b395439c890164736f6c63430008140033",
  "linkReferences": {},
  "deployedLinkReferences": {}
}