{
  "_format": "hh-sol-artifact-1",
  "contractName": "AnomalyGuard",
  "sourceName": "src/examples/AnomalyGuard.sol",
  "abi": [
    {
      "inputs": [
        {
          "internalType": "uint256",
          "name": "_dimension",
          "type": "uint256"
        },
        {
          "internalType": "uint256",
          "name": "_threshold",
          "type": "uint256"
        }
      ],
      "stateMutability": "nonpayable",
      "type": "constructor"
    },
    {
      "inputs": [
        {
          "internalType": "address",
          "name": "flagged",
          "type": "address"
        },
        {
          "internalType": "uint256",
          "name": "cooldownUntil",
          "type": "uint256"
        }
      ],
      "name": "AddressFlagged",
      "type": "error"
    },
    {
      "inputs": [],
      "name": "EnforcedPause",
      "type": "error"
    },
    {
      "inputs": [],
      "name": "ExpectedPause",
      "type": "error"
    },
    {
      "inputs": [],
      "name": "InsufficientGas",
      "type": "error"
    },
    {
      "inputs": [
        {
          "internalType": "uint256",
          "name": "length",
          "type": "uint256"
        },
        {
          "internalType": "uint256",
          "name": "expected",
          "type": "uint256"
        }
      ],
      "name": "InvalidEmbedding",
      "type": "error"
    },
    {
      "inputs": [
        {
          "internalType": "address",
          "name": "owner",
          "type": "address"
        }
      ],
      "name": "OwnableInvalidOwner",
      "type": "error"
    },
    {
      "inputs": [
        {
          "internalType": "address",
          "name": "account",
          "type": "address"
        }
      ],
      "name": "OwnableUnauthorizedAccount",
      "type": "error"
    },
    {
      "inputs": [
        {
          "internalType": "address",
          "name": "precompile",
          "type": "address"
        }
      ],
      "name": "PrecompileCallFailed",
      "type": "error"
    },
    {
      "inputs": [],
      "name": "ReentrancyGuardReentrantCall",
      "type": "error"
    },
    {
      "inputs": [
        {
          "internalType": "uint256",
          "name": "value",
          "type": "uint256"
        }
      ],
      "name": "ThresholdOutOfRange",
      "type": "error"
    },
    {
      "inputs": [
        {
          "internalType": "uint256",
          "name": "anomalyScore",
          "type": "uint256"
        }
      ],
      "name": "TransactionBlocked",
      "type": "error"
    },
    {
      "anonymous": false,
      "inputs": [
        {
          "indexed": true,
          "internalType": "address",
          "name": "sender",
          "type": "address"
        },
        {
          "indexed": true,
          "internalType": "bytes32",
          "name": "txHash",
          "type": "bytes32"
        },
        {
          "indexed": false,
          "internalType": "uint256",
          "name": "score",
          "type": "uint256"
        },
        {
          "indexed": false,
          "internalType": "uint256",
          "name": "cooldownUntil",
          "type": "uint256"
        }
      ],
      "name": "AnomalyFlagged",
      "type": "event"
    },
    {
      "anonymous": false,
      "inputs": [
        {
          "indexed": true,
          "internalType": "address",
          "name": "previousOwner",
          "type": "address"
        },
        {
          "indexed": true,
          "internalType": "address",
          "name": "newOwner",
          "type": "address"
        }
      ],
      "name": "OwnershipTransferred",
      "type": "event"
    },
    {
      "anonymous": false,
      "inputs": [
        {
          "indexed": true,
          "internalType": "bytes32",
          "name": "patternHash",
          "type": "bytes32"
        }
      ],
      "name": "PatternRemoved",
      "type": "event"
    },
    {
      "anonymous": false,
      "inputs": [
        {
          "indexed": true,
          "internalType": "bytes32",
          "name": "patternHash",
          "type": "bytes32"
        }
      ],
      "name": "PatternWhitelisted",
      "type": "event"
    },
    {
      "anonymous": false,
      "inputs": [
        {
          "indexed": false,
          "internalType": "address",
          "name": "account",
          "type": "address"
        }
      ],
      "name": "Paused",
      "type": "event"
    },
    {
      "anonymous": false,
      "inputs": [
        {
          "indexed": false,
          "internalType": "uint256",
          "name": "oldThreshold",
          "type": "uint256"
        },
        {
          "indexed": false,
          "internalType": "uint256",
          "name": "newThreshold",
          "type": "uint256"
        }
      ],
      "name": "ThresholdUpdated",
      "type": "event"
    },
    {
      "anonymous": false,
      "inputs": [
        {
          "indexed": true,
          "internalType": "address",
          "name": "sender",
          "type": "address"
        },
        {
          "indexed": true,
          "internalType": "bytes32",
          "name": "txHash",
          "type": "bytes32"
        },
        {
          "indexed": false,
          "internalType": "uint256",
          "name": "score",
          "type": "uint256"
        },
        {
          "indexed": false,
          "internalType": "bool",
          "name": "passed",
          "type": "bool"
        }
      ],
      "name": "TransactionAnalyzed",
      "type": "event"
    },
    {
      "anonymous": false,
      "inputs": [
        {
          "indexed": false,
          "internalType": "address",
          "name": "account",
          "type": "address"
        }
      ],
      "name": "Unpaused",
      "type": "event"
    },
    {
      "inputs": [],
      "name": "DEFAULT_THRESHOLD",
      "outputs": [
        {
          "internalType": "uint256",
          "name": "",
          "type": "uint256"
        }
      ],
      "stateMutability": "view",
      "type": "function"
    },
    {
      "inputs": [],
      "name": "FLAG_COOLDOWN",
      "outputs": [
        {
          "internalType": "uint256",
          "name": "",
          "type": "uint256"
        }
      ],
      "stateMutability": "view",
      "type": "function"
    },
    {
      "inputs": [],
      "name": "MAX_DIMENSION",
      "outputs": [
        {
          "internalType": "uint256",
          "name": "",
          "type": "uint256"
        }
      ],
      "stateMutability": "view",
      "type": "function"
    },
    {
      "inputs": [],
      "name": "MAX_SCORE_HISTORY",
      "outputs": [
        {
          "internalType": "uint256",
          "name": "",
          "type": "uint256"
        }
      ],
      "stateMutability": "view",
      "type": "function"
    },
    {
      "inputs": [],
      "name": "anomalyThreshold",
      "outputs": [
        {
          "internalType": "uint256",
          "name": "",
          "type": "uint256"
        }
      ],
      "stateMutability": "view",
      "type": "function"
    },
    {
      "inputs": [
        {
          "internalType": "int256[][]",
          "name": "embeddings",
          "type": "int256[][]"
        },
        {
          "internalType": "bytes32[]",
          "name": "txHashes",
          "type": "bytes32[]"
        }
      ],
      "name": "batchValidate",
      "outputs": [
        {
          "internalType": "bool[]",
          "name": "passed",
          "type": "bool[]"
        },
        {
          "internalType": "uint256[]",
          "name": "scores",
          "type": "uint256[]"
        }
      ],
      "stateMutability": "nonpayable",
      "type": "function"
    },
    {
      "inputs": [],
      "name": "embeddingDimension",
      "outputs": [
        {
          "internalType": "uint256",
          "name": "",
          "type": "uint256"
        }
      ],
      "stateMutability": "view",
      "type": "function"
    },
    {
      "inputs": [
        {
          "internalType": "address",
          "name": "",
          "type": "address"
        }
      ],
      "name": "flaggedUntil",
      "outputs": [
        {
          "internalType": "uint256",
          "name": "",
          "type": "uint256"
        }
      ],
      "stateMutability": "view",
      "type": "function"
    },
    {
      "inputs": [
        {
          "internalType": "address",
          "name": "account",
          "type": "address"
        }
      ],
      "name": "getAverageScore",
      "outputs": [
        {
          "internalType": "uint256",
          "name": "average",
          "type": "uint256"
        }
      ],
      "stateMutability": "view",
      "type": "function"
    },
    {
      "inputs": [],
      "name": "getStats",
      "outputs": [
        {
          "internalType": "uint256",
          "name": "analyzed",
          "type": "uint256"
        },
        {
          "internalType": "uint256",
          "name": "flagged",
          "type": "uint256"
        },
        {
          "internalType": "uint256",
          "name": "rate",
          "type": "uint256"
        }
      ],
      "stateMutability": "view",
      "type": "function"
    },
    {
      "inputs": [
        {
          "internalType": "address",
          "name": "account",
          "type": "address"
        }
      ],
      "name": "isFlagged",
      "outputs": [
        {
          "internalType": "bool",
          "name": "flagged_",
          "type": "bool"
        },
        {
          "internalType": "uint256",
          "name": "cooldownEnds",
          "type": "uint256"
        }
      ],
      "stateMutability": "view",
      "type": "function"
    },
    {
      "inputs": [],
      "name": "owner",
      "outputs": [
        {
          "internalType": "address",
          "name": "",
          "type": "address"
        }
      ],
      "stateMutability": "view",
      "type": "function"
    },
    {
      "inputs": [],
      "name": "pause",
      "outputs": [],
      "stateMutability": "nonpayable",
      "type": "function"
    },
    {
      "inputs": [],
      "name": "paused",
      "outputs": [
        {
          "internalType": "bool",
          "name": "",
          "type": "bool"
        }
      ],
      "stateMutability": "view",
      "type": "function"
    },
    {
      "inputs": [
        {
          "internalType": "bytes32",
          "name": "patternHash",
          "type": "bytes32"
        }
      ],
      "name": "removePattern",
      "outputs": [],
      "stateMutability": "nonpayable",
      "type": "function"
    },
    {
      "inputs": [],
      "name": "renounceOwnership",
      "outputs": [],
      "stateMutability": "nonpayable",
      "type": "function"
    },
    {
      "inputs": [
        {
          "internalType": "address",
          "name": "",
          "type": "address"
        },
        {
          "internalType": "uint256",
          "name": "",
          "type": "uint256"
        }
      ],
      "name": "scoreHistory",
      "outputs": [
        {
          "internalType": "uint256",
          "name": "",
          "type": "uint256"
        }
      ],
      "stateMutability": "view",
      "type": "function"
    },
    {
      "inputs": [
        {
          "internalType": "address",
          "name": "",
          "type": "address"
        }
      ],
      "name": "scoreHistoryIndex",
      "outputs": [
        {
          "internalType": "uint256",
          "name": "",
          "type": "uint256"
        }
      ],
      "stateMutability": "view",
      "type": "function"
    },
    {
      "inputs": [
        {
          "internalType": "uint256",
          "name": "newThreshold",
          "type": "uint256"
        }
      ],
      "name": "setThreshold",
      "outputs": [],
      "stateMutability": "nonpayable",
      "type": "function"
    },
    {
      "inputs": [],
      "name": "totalAnalyzed",
      "outputs": [
        {
          "internalType": "uint256",
          "name": "",
          "type": "uint256"
        }
      ],
      "stateMutability": "view",
      "type": "function"
    },
    {
      "inputs": [],
      "name": "totalAnomalies",
      "outputs": [
        {
          "internalType": "uint256",
          "name": "",
          "type": "uint256"
        }
      ],
      "stateMutability": "view",
      "type": "function"
    },
    {
      "inputs": [
        {
          "internalType": "address",
          "name": "newOwner",
          "type": "address"
        }
      ],
      "name": "transferOwnership",
      "outputs": [],
      "stateMutability": "nonpayable",
      "type": "function"
    },
    {
      "inputs": [
        {
          "internalType": "address",
          "name": "account",
          "type": "address"
        }
      ],
      "name": "unflag",
      "outputs": [],
      "stateMutability": "nonpayable",
      "type": "function"
    },
    {
      "inputs": [],
      "name": "unpause",
      "outputs": [],
      "stateMutability": "nonpayable",
      "type": "function"
    },
    {
      "inputs": [
        {
          "internalType": "int256[]",
          "name": "embedding",
          "type": "int256[]"
        },
        {
          "internalType": "bytes32",
          "name": "txHash",
          "type": "bytes32"
        }
      ],
      "name": "validateTransaction",
      "outputs": [
        {
          "internalType": "bool",
          "name": "passed",
          "type": "bool"
        },
        {
          "internalType": "uint256",
          "name": "score",
          "type": "uint256"
        }
      ],
      "stateMutability": "nonpayable",
      "type": "function"
    },
    {
      "inputs": [
        {
          "internalType": "int256[]",
          "name": "embedding",
          "type": "int256[]"
        }
      ],
      "name": "whitelistPattern",
      "outputs": [],
      "stateMutability": "nonpayable",
      "type": "function"
    },
    {
      "inputs": [
        {
          "internalType": "bytes32",
          "name": "",
          "type": "bytes32"
        }
      ],
      "name": "whitelistedPatterns",
      "outputs": [
        {
          "internalType": "bool",
          "name": "",
          "type": "bool"
        }
      ],
      "stateMutability": "view",
      "type": "function"
    }
  ],
  "bytecode": "0x60803461011f5761120990601f38839003908101601f19168201906001600160401b03821183831017610124578083916040958694855283398101031261011f57602081519101519033156101075760008054336001600160a01b031982168117835585519290916001600160a01b0316907f8be0079c531659141344cd1fd0a4f28419497f9722a3daafe3b4186f6b6457e09080a360018055811580156100fc575b6100e05750670de0b6b3a764000082116100c957600455600355516110ce908161013b8239f35b506024915190636ec31c6760e11b82526004820152fd5b604491636067a1e560e11b825260048201526102006024820152fd5b5061020082116100a2565b8251631e4fbdf760e01b815260006004820152602490fd5b600080fd5b634e487b7160e01b600052604160045260246000fdfe6040608081526004908136101561001557600080fd5b600091823560e01c9081633f4ba83a14610a335781634ee69e2f14610a14578163546734df146107c1578163575b68f6146107a45781635c975abb146107805781635f9895fa1461076157816360ce1fe114610729578163691845e4146106d3578382636938dc0e14610697575081636f83a58614610678578163715018a61461061e57816375e2c56d146105b05781637f519b481461050b5781638456cb59146104b05781638da5cb5b146104885781638e2601481461046c578163960bfe04146103f057816398ed5fa4146103b85781639b76bd051461039c5781639db9236814610346578163aefed35314610319578163b81cab4b146102f6578163c59d48471461027a578163d06509fd1461024d578163f2fde38b146101c6578163fd7288c0146101a4575063fef48a991461014e57600080fd5b346101a05760203660031901126101a05761019c9181906001600160a01b03610175610ad3565b16815260056020522054905191818392431083602090939291936040810194151581520152565b0390f35b5080fd5b9050346101c257826003193601126101c25760209250549051908152f35b8280fd5b9050346101c25760203660031901126101c2576101e1610ad3565b906101ea610b17565b6001600160a01b0391821692831561023757505082546001600160a01b0319811683178455167f8be0079c531659141344cd1fd0a4f28419497f9722a3daafe3b4186f6b6457e08380a380f35b51631e4fbdf760e01b8152908101849052602490fd5b5050346101a05760203660031901126101a05760209061027361026e610ad3565b611014565b9051908152f35b8284346102f357806003193601126102f357600954600a549092909183156102e957670de0b6b3a7640000908184029184830414841517156102d6575060609450836102c591610ff4565b915b81519384526020840152820152f35b634e487b7160e01b815260118652602490fd5b60609450916102c7565b80fd5b5050346101a057816003193601126101a057602090516709b6e64a8ec600008152f35b9050346101c25760203660031901126101c2578160209360ff923581526006855220541690519015158152f35b9050346101c25760203660031901126101c2573590610363610b17565b81835260066020528220805460ff191690557fd03c7ccbee6ac6cdc8626168da56b4e44bbf25e02997e48e11c4565399fc88888280a280f35b5050346101a057816003193601126101a05760209051600a8152f35b5050346101a05760203660031901126101a05760209181906001600160a01b036103e0610ad3565b1681526005845220549051908152f35b9050346101c25760203660031901126101c25780359061040e610b17565b670de0b6b3a764000082116104575750907fb06a54caabe58475c86c2bf9df3f2f06dd1213e9e10659c293117fe4893b274b91600354908060035582519182526020820152a180f35b9151636ec31c6760e11b815291820152602490fd5b5050346101a057816003193601126101a0576020905160648152f35b5050346101a057816003193601126101a057905490516001600160a01b039091168152602090f35b5050346101a057816003193601126101a05760207f62e78cea01bee320cd4e420270b5ea74000d11b0c9f74754ebdbfc544b05a258916104ee610b17565b6104f6610b43565b600160ff19600254161760025551338152a180f35b9050346101c25760203660031901126101c25780359067ffffffffffffffff82116105ac5761054361055e9161056c93369101610a9d565b61054e939193610b17565b8451928391602083019586610b84565b03601f198101835282610bbb565b5190208083526006602052908220805460ff191660011790557f7c9f51d794f20dbf88d5bda87745e5fdc7be72f9aa04ba150d42aba4acefb7a88280a280f35b8380fd5b8284346102f357816003193601126102f35782359067ffffffffffffffff82116102f357506105e861019c9361060192369101610a9d565b6105f0610b43565b6105f8610b61565b60243591610c30565b600180559151901515815260208101919091529081906040820190565b83346102f357806003193601126102f357610637610b17565b80546001600160a01b03198116825581906001600160a01b03167f8be0079c531659141344cd1fd0a4f28419497f9722a3daafe3b4186f6b6457e08280a380f35b5050346101a057816003193601126101a0576020906003549051908152f35b8084346106d05760203660031901126106d0576106b2610ad3565b6106ba610b17565b6001600160a01b03168252600560205281205580f35b50fd5b5050346101a057806003193601126101a0576106ed610ad3565b6001600160a01b031682526007602052808220805460243593908410156102f3575060209261071b91610ae9565b91905490519160031b1c8152f35b5050346101a05760203660031901126101a05760209181906001600160a01b03610751610ad3565b1681526008845220549051908152f35b5050346101a057816003193601126101a0576020906009549051908152f35b5050346101a057816003193601126101a05760209060ff6002541690519015158152f35b5050346101a057816003193601126101a057602090516102008152f35b839150346101a057826003193601126101a05767ffffffffffffffff9080358281116105ac576107f49036908301610a9d565b936024358481116101a05761080c9036908501610a9d565b9093610816610b43565b61081e610b61565b8187036109df57600a87116109aa5792869491889461083c87610c18565b9661084987519889610bbb565b80885261085581610c18565b98602094858a0196601f19809c0136893761086f84610c18565b9561087c8b519788610bbb565b84875261088885610c18565b8789019d01368e37895b85811061090b575050505050505060019485805580519681880191885251809152606087019390855b8181106108f657505050858303868301525180835291810195925b8281106108e35785870386f35b83518752958101959281019284016108d6565b825115158652948401949184019187016108bb565b60059d9b9d9a98999a81811b80860135601e19873603018112156109a2578601908135918883116109a6578d839101931b360383136109a2578484101561098f578f93610983948161097361096b8f96978398610979978d013591610c30565b929096610fe0565b52610fe0565b9015159052610bf3565b9c9a9c99989799610892565b634e487b7160e01b8c5260328a5260248cfd5b8b80fd5b8c80fd5b606490602089519162461bcd60e51b8352820152600f60248201526e426174636820746f6f206c6172676560881b6044820152fd5b606490602089519162461bcd60e51b8352820152600f60248201526e098cadccee8d040dad2e6dac2e8c6d608b1b6044820152fd5b5050346101a057816003193601126101a057602090600a549051908152f35b9050346101c257826003193601126101c257610a4d610b17565b6002549060ff821615610a8f575060ff1916600255513381527f5db9ee0a495bf2e6ff9c91a7834c1ba4fdd244a5e8aa4e537bd38aeae4b073aa90602090a180f35b8251638dfc202b60e01b8152fd5b9181601f84011215610ace5782359167ffffffffffffffff8311610ace576020808501948460051b010111610ace57565b600080fd5b600435906001600160a01b0382168203610ace57565b8054821015610b015760005260206000200190600090565b634e487b7160e01b600052603260045260246000fd5b6000546001600160a01b03163303610b2b57565b60405163118cdaa760e01b8152336004820152602490fd5b60ff60025416610b4f57565b60405163d93c066560e01b8152600490fd5b600260015414610b72576002600155565b604051633ee5aeb560e01b8152600490fd5b90916040602092828482018583525201929160005b828110610ba7575050505090565b833585529381019392810192600101610b99565b90601f8019910116810190811067ffffffffffffffff821117610bdd57604052565b634e487b7160e01b600052604160045260246000fd5b6000198114610c025760010190565b634e487b7160e01b600052601160045260246000fd5b67ffffffffffffffff8111610bdd5760051b60200190565b919290926004928354808603610fc3575060009433865260206005815260409182882054804310610fa5575082519382850185610c6e848484610b84565b0395610c82601f1997888101835282610bbb565b51902089526006835260ff848a205416610f5a57610c9f82610c18565b90610cac85519283610bbb565b828252838201809360051b8201913683116109a2578590915b838310610f4a575050505061753091825a10610f3a579089908551858101918782019087845251809152606082019490845b88828210610f235750505050610d1581849503898101835282610bbb565b519060248095fa3d15610f1a573d67ffffffffffffffff8111610f0857610d4584865197601f8401160187610bbb565b85523d898487013e5b15610ef4578284805181010312610ef057828285015194015180151503610ef0578396610d7c600954610bf3565b600955338952600883528389205460078452848a20866064825410600014610eda575050338a5260078452848a2080549068010000000000000000821015610ec857610dd28289926001610deb95018155610ae9565b90919082549060031b91821b91600019901b1916179055565b60018101809111610eb657338a5260088452848a20556003548510988915610e415750505090867ff55fd7d95b41e3fecf28190794090ea7e3c92c988161f49689e2cdc5f6038d229282519485528401523392a3565b8487858893610e51600a54610bf3565b50600a430190814311610ea457339052600582528351918583528201527fe7ca1f0120f10fca4593e7fe88e72d536d313536bd23d6f89c7efb98274793eb833392a351630b1a0d7f60e31b815291820152fd5b634e487b7160e01b8152601187528790fd5b50634e487b7160e01b89526011905287fd5b634e487b7160e01b8c5260418452848cfd5b610dd2610eeb926064850690610ae9565b610deb565b8780fd5b8251636f99e79360e01b8152808801829052fd5b634e487b7160e01b8a5260418952828afd5b60609450610d4e565b83518852968701968f965090920191600101610cf7565b84516307099c5360e21b81528990fd5b8235815291810191869101610cc5565b5050929394507ff55fd7d95b41e3fecf28190794090ea7e3c92c988161f49689e2cdc5f6038d229150610f8e600954610bf3565b60095560018151938785528401523392a360019190565b835163947c8d3760e01b815233818a01526024810191909152604490fd5b846044918760405192636067a1e560e11b84528301526024820152fd5b8051821015610b015760209160051b010190565b8115610ffe570490565b634e487b7160e01b600052601260045260246000fd5b6001600160a01b03166000908152600760205260408120805491821561109257908180915b848310611050575050509061104d91610ff4565b90565b90919261105d8483610ae9565b90549060031b1c810180911161107e576110779093610bf3565b9190611039565b634e487b7160e01b83526011600452602483fd5b9150509056fea2646970667358221220d27c72d904950ca6beba53dc1a318ff5d8a743e3fea610451588e8a54c458bec64736f6c63430008140033",
  "linkReferences": {},
  "deployedLinkReferences": {}
}