{
  "_format": "hh-sol-artifact-1",
  "contractName": "AnomalyGuard",
  "sourceName": "src/examples/AnomalyGuard.sol",
  "abi": [
    {
      "inputs": [
        {
          "internalType": "uint256",
          "name": "_dimension",
          "type": "uint256"
        },
        {
          "internalType": "uint256",
          "name": "_threshold",
          "type": "uint256"
        }
      ],
      "stateMutability": "nonpayable",
      "type": "constructor"
    },
    {
      "inputs": [
        {
          "internalType": "address",
          "name": "flagged",
          "type": "address"
        },
        {
          "internalType": "uint256",
          "name": "cooldownUntil",
          "type": "uint256"
        }
      ],
      "name": "AddressFlagged",
      "type": "error"
    },
    {
      "inputs": [],
      "name": "EnforcedPause",
      "type": "error"
    },
    {
      "inputs": [],
      "name": "ExpectedPause",
      "type": "error"
    },
    {
      "inputs": [],
      "name": "InsufficientGas",
      "type": "error"
    },
    {
      "inputs": [
        {
          "internalType": "uint256",
          "name": "length",
          "type": "uint256"
        },
        {
          "internalType": "uint256",
          "name": "expected",
          "type": "uint256"
        }
      ],
      "name": "InvalidEmbedding",
      "type": "error"
    },
    {
      "inputs": [
        {
          "internalType": "address",
          "name": "owner",
          "type": "address"
        }
      ],
      "name": "OwnableInvalidOwner",
      "type": "error"
    },
    {
      "inputs": [
        {
          "internalType": "address",
          "name": "account",
          "type": "address"
        }
      ],
      "name": "OwnableUnauthorizedAccount",
      "type": "error"
    },
    {
      "inputs": [
        {
          "internalType": "address",
          "name": "precompile",
          "type": "address"
        }
      ],
      "name": "PrecompileCallFailed",
      "type": "error"
    },
    {
      "inputs": [],
      "name": "ReentrancyGuardReentrantCall",
      "type": "error"
    },
    {
      "inputs": [
        {
          "internalType": "uint256",
          "name": "value",
          "type": "uint256"
        }
      ],
      "name": "ThresholdOutOfRange",
      "type": "error"
    },
    {
      "inputs": [
        {
          "internalType": "uint256",
          "name": "anomalyScore",
          "type": "uint256"
        }
      ],
      "name": "TransactionBlocked",
      "type": "error"
    },
    {
      "anonymous": false,
      "inputs": [
        {
          "indexed": true,
          "internalType": "address",
          "name": "sender",
          "type": "address"
        },
        {
          "indexed": true,
          "internalType": "bytes32",
          "name": "txHash",
          "type": "bytes32"
        },
        {
          "indexed": false,
          "internalType": "uint256",
          "name": "score",
          "type": "uint256"
        },
        {
          "indexed": false,
          "internalType": "uint256",
          "name": "cooldownUntil",
          "type": "uint256"
        }
      ],
      "name": "AnomalyFlagged",
      "type": "event"
    },
    {
      "anonymous": false,
      "inputs": [
        {
          "indexed": true,
          "internalType": "address",
          "name": "previousOwner",
          "type": "address"
        },
        {
          "indexed": true,
          "internalType": "address",
          "name": "newOwner",
          "type": "address"
        }
      ],
      "name": "OwnershipTransferred",
      "type": "event"
    },
    {
      "anonymous": false,
      "inputs": [
        {
          "indexed": true,
          "internalType": "bytes32",
          "name": "patternHash",
          "type": "bytes32"
        }
      ],
      "name": "PatternRemoved",
      "type": "event"
    },
    {
      "anonymous": false,
      "inputs": [
        {
          "indexed": true,
          "internalType": "bytes32",
          "name": "patternHash",
          "type": "bytes32"
        }
      ],
      "name": "PatternWhitelisted",
      "type": "event"
    },
    {
      "anonymous": false,
      "inputs": [
        {
          "indexed": false,
          "internalType": "address",
          "name": "account",
          "type": "address"
        }
      ],
      "name": "Paused",
      "type": "event"
    },
    {
      "anonymous": false,
      "inputs": [
        {
          "indexed": false,
          "internalType": "uint256",
          "name": "oldThreshold",
          "type": "uint256"
        },
        {
          "indexed": false,
          "internalType": "uint256",
          "name": "newThreshold",
          "type": "uint256"
        }
      ],
      "name": "ThresholdUpdated",
      "type": "event"
    },
    {
      "anonymous": false,
      "inputs": [
        {
          "indexed": true,
          "internalType": "address",
          "name": "sender",
          "type": "address"
        },
        {
          "indexed": true,
          "internalType": "bytes32",
          "name": "txHash",
          "type": "bytes32"
        },
        {
          "indexed": false,
          "internalType": "uint256",
          "name": "score",
          "type": "uint256"
        },
        {
          "indexed": false,
          "internalType": "bool",
          "name": "passed",
          "type": "bool"
        }
      ],
      "name": "TransactionAnalyzed",
      "type": "event"
    },
    {
      "anonymous": false,
      "inputs": [
        {
          "indexed": false,
          "internalType": "address",
          "name": "account",
          "type": "address"
        }
      ],
      "name": "Unpaused",
      "type": "event"
    },
    {
      "inputs": [],
      "name": "DEFAULT_THRESHOLD",
      "outputs": [
        {
          "internalType": "uint256",
          "name": "",
          "type": "uint256"
        }
      ],
      "stateMutability": "view",
      "type": "function"
    },
    {
      "inputs": [],
      "name": "FLAG_COOLDOWN",
      "outputs": [
        {
          "internalType": "uint256",
          "name": "",
          "type": "uint256"
        }
      ],
      "stateMutability": "view",
      "type": "function"
    },
    {
      "inputs": [],
      "name": "MAX_DIMENSION",
      "outputs": [
        {
          "internalType": "uint256",
          "name": "",
          "type": "uint256"
        }
      ],
      "stateMutability": "view",
      "type": "function"
    },
    {
      "inputs": [],
      "name": "anomalyThreshold",
      "outputs": [
        {
          "internalType": "uint256",
          "name": "",
          "type": "uint256"
        }
      ],
      "stateMutability": "view",
      "type": "function"
    },
    {
      "inputs": [
        {
          "internalType": "int256[][]",
          "name": "embeddings",
          "type": "int256[][]"
        },
        {
          "internalType": "bytes32[]",
          "name": "txHashes",
          "type": "bytes32[]"
        }
      ],
      "name": "batchValidate",
      "outputs": [
        {
          "internalType": "bool[]",
          "name": "passed",
          "type": "bool[]"
        },
        {
          "internalType": "uint256[]",
          "name": "scores",
          "type": "uint256[]"
        }
      ],
      "stateMutability": "nonpayable",
      "type": "function"
    },
    {
      "inputs": [],
      "name": "embeddingDimension",
      "outputs": [
        {
          "internalType": "uint256",
          "name": "",
          "type": "uint256"
        }
      ],
      "stateMutability": "view",
      "type": "function"
    },
    {
      "inputs": [
        {
          "internalType": "address",
          "name": "",
          "type": "address"
        }
      ],
      "name": "flaggedUntil",
      "outputs": [
        {
          "internalType": "uint256",
          "name": "",
          "type": "uint256"
        }
      ],
      "stateMutability": "view",
      "type": "function"
    },
    {
      "inputs": [
        {
          "internalType": "address",
          "name": "account",
          "type": "address"
        }
      ],
      "name": "getAverageScore",
      "outputs": [
        {
          "internalType": "uint256",
          "name": "average",
          "type": "uint256"
        }
      ],
      "stateMutability": "view",
      "type": "function"
    },
    {
      "inputs": [],
      "name": "getStats",
      "outputs": [
        {
          "internalType": "uint256",
          "name": "analyzed",
          "type": "uint256"
        },
        {
          "internalType": "uint256",
          "name": "flagged",
          "type": "uint256"
        },
        {
          "internalType": "uint256",
          "name": "rate",
          "type": "uint256"
        }
      ],
      "stateMutability": "view",
      "type": "function"
    },
    {
      "inputs": [
        {
          "internalType": "address",
          "name": "account",
          "type": "address"
        }
      ],
      "name": "isFlagged",
      "outputs": [
        {
          "internalType": "bool",
          "name": "flagged_",
          "type": "bool"
        },
        {
          "internalType": "uint256",
          "name": "cooldownEnds",
          "type": "uint256"
        }
      ],
      "stateMutability": "view",
      "type": "function"
    },
    {
      "inputs": [],
      "name": "owner",
      "outputs": [
        {
          "internalType": "address",
          "name": "",
          "type": "address"
        }
      ],
      "stateMutability": "view",
      "type": "function"
    },
    {
      "inputs": [],
      "name": "pause",
      "outputs": [],
      "stateMutability": "nonpayable",
      "type": "function"
    },
    {
      "inputs": [],
      "name": "paused",
      "outputs": [
        {
          "internalType": "bool",
          "name": "",
          "type": "bool"
        }
      ],
      "stateMutability": "view",
      "type": "function"
    },
    {
      "inputs": [
        {
          "internalType": "bytes32",
          "name": "patternHash",
          "type": "bytes32"
        }
      ],
      "name": "removePattern",
      "outputs": [],
      "stateMutability": "nonpayable",
      "type": "function"
    },
    {
      "inputs": [],
      "name": "renounceOwnership",
      "outputs": [],
      "stateMutability": "nonpayable",
      "type": "function"
    },
    {
      "inputs": [
        {
          "internalType": "address",
          "name": "",
          "type": "address"
        },
        {
          "internalType": "uint256",
          "name": "",
          "type": "uint256"
        }
      ],
      "name": "scoreHistory",
      "outputs": [
        {
          "internalType": "uint256",
          "name": "",
          "type": "uint256"
        }
      ],
      "stateMutability": "view",
      "type": "function"
    },
    {
      "inputs": [
        {
          "internalType": "uint256",
          "name": "newThreshold",
          "type": "uint256"
        }
      ],
      "name": "setThreshold",
      "outputs": [],
      "stateMutability": "nonpayable",
      "type": "function"
    },
    {
      "inputs": [],
      "name": "totalAnalyzed",
      "outputs": [
        {
          "internalType": "uint256",
          "name": "",
          "type": "uint256"
        }
      ],
      "stateMutability": "view",
      "type": "function"
    },
    {
      "inputs": [],
      "name": "totalAnomalies",
      "outputs": [
        {
          "internalType": "uint256",
          "name": "",
          "type": "uint256"
        }
      ],
      "stateMutability": "view",
      "type": "function"
    },
    {
      "inputs": [
        {
          "internalType": "address",
          "name": "newOwner",
          "type": "address"
        }
      ],
      "name": "transferOwnership",
      "outputs": [],
      "stateMutability": "nonpayable",
      "type": "function"
    },
    {
      "inputs": [
        {
          "internalType": "address",
          "name": "account",
          "type": "address"
        }
      ],
      "name": "unflag",
      "outputs": [],
      "stateMutability": "nonpayable",
      "type": "function"
    },
    {
      "inputs": [],
      "name": "unpause",
      "outputs": [],
      "stateMutability": "nonpayable",
      "type": "function"
    },
    {
      "inputs": [
        {
          "internalType": "int256[]",
          "name": "embedding",
          "type": "int256[]"
        },
        {
          "internalType": "bytes32",
          "name": "txHash",
          "type": "bytes32"
        }
      ],
      "name": "validateTransaction",
      "outputs": [
        {
          "internalType": "bool",
          "name": "passed",
          "type": "bool"
        },
        {
          "internalType": "uint256",
          "name": "score",
          "type": "uint256"
        }
      ],
      "stateMutability": "nonpayable",
      "type": "function"
    },
    {
      "inputs": [
        {
          "internalType": "int256[]",
          "name": "embedding",
          "type": "int256[]"
        }
      ],
      "name": "whitelistPattern",
      "outputs": [],
      "stateMutability": "nonpayable",
      "type": "function"
    },
    {
      "inputs": [
        {
          "internalType": "bytes32",
          "name": "",
          "type": "bytes32"
        }
      ],
      "name": "whitelistedPatterns",
      "outputs": [
        {
          "internalType": "bool",
          "name": "",
          "type": "bool"
        }
      ],
      "stateMutability": "view",
      "type": "function"
    }
  ],
  "bytecode": "0x60803461011f5761118a90601f38839003908101601f19168201906001600160401b03821183831017610124578083916040958694855283398101031261011f57602081519101519033156101075760008054336001600160a01b031982168117835585519290916001600160a01b0316907f8be0079c531659141344cd1fd0a4f28419497f9722a3daafe3b4186f6b6457e09080a360018055811580156100fc575b6100e05750670de0b6b3a764000082116100c9576004556003555161104f908161013b8239f35b506024915190636ec31c6760e11b82526004820152fd5b604491636067a1e560e11b825260048201526102006024820152fd5b5061020082116100a2565b8251631e4fbdf760e01b815260006004820152602490fd5b600080fd5b634e487b7160e01b600052604160045260246000fdfe6080604052600436101561001257600080fd5b60003560e01c80633f4ba83a14610a3c5780634ee69e2f14610a1e578063546734df14610740578063575b68f6146107235780635c975abb146107005780635f9895fa146106e2578063691845e41461068a5780636938dc0e1461064f5780636f83a58614610631578063715018a6146105d857806375e2c56d146105735780637f519b48146104c85780638456cb591461046e5780638da5cb5b14610445578063960bfe04146103c957806398ed5fa41461038f5780639b76bd05146103735780639db923681461031a578063aefed353146102e9578063b81cab4b146102c6578063c59d48471461024d578063d06509fd14610222578063f2fde38b14610194578063fd7288c0146101765763fef48a991461012f57600080fd5b34610171576020366003190112610171576001600160a01b03610150610ad7565b16600090815260056020908152604091829020548251438211815291820152f35b600080fd5b34610171576000366003190112610171576020600454604051908152f35b34610171576020366003190112610171576101ad610ad7565b6101b5610b05565b6001600160a01b0390811690811561020957600054826bffffffffffffffffffffffff60a01b821617600055167f8be0079c531659141344cd1fd0a4f28419497f9722a3daafe3b4186f6b6457e0600080a3005b604051631e4fbdf760e01b815260006004820152602490fd5b34610171576020366003190112610171576020610245610240610ad7565b610f95565b604051908152f35b34610171576000366003190112610171576008546009549080156102bb57670de0b6b3a7640000918281029281840414811517156102a55761029182606094610f75565b905b60405192835260208301526040820152f35b634e487b7160e01b600052601160045260246000fd5b606091600090610293565b346101715760003660031901126101715760206040516709b6e64a8ec600008152f35b34610171576020366003190112610171576004356000526006602052602060ff604060002054166040519015158152f35b3461017157602036600319011261017157600435610336610b05565b806000526006602052604060002060ff1981541690557fd03c7ccbee6ac6cdc8626168da56b4e44bbf25e02997e48e11c4565399fc8888600080a2005b34610171576000366003190112610171576020604051600a8152f35b34610171576020366003190112610171576001600160a01b036103b0610ad7565b1660005260056020526020604060002054604051908152f35b34610171576020366003190112610171576004356103e5610b05565b670de0b6b3a7640000811161042d5760407fb06a54caabe58475c86c2bf9df3f2f06dd1213e9e10659c293117fe4893b274b91600354908060035582519182526020820152a1005b60249060405190636ec31c6760e11b82526004820152fd5b34610171576000366003190112610171576000546040516001600160a01b039091168152602090f35b3461017157600036600319011261017157610487610b05565b61048f610f13565b600160ff1960025416176002557f62e78cea01bee320cd4e420270b5ea74000d11b0c9f74754ebdbfc544b05a2586020604051338152a1005b346101715760203660031901126101715760043567ffffffffffffffff8111610171576105226104ff610530923690600401610aa6565b9290610509610b05565b6040519283916020830195602087526040840191610b31565b03601f198101835282610b62565b5190208060005260066020526040600020600160ff198254161790557f7c9f51d794f20dbf88d5bda87745e5fdc7be72f9aa04ba150d42aba4acefb7a8600080a2005b346101715760403660031901126101715760043567ffffffffffffffff8111610171576105a76105c0913690600401610aa6565b6105af610f13565b6105b7610f31565b60243591610bc1565b60018055604080519215158352602083019190915290f35b34610171576000366003190112610171576105f1610b05565b600080546001600160a01b0319811682556001600160a01b03167f8be0079c531659141344cd1fd0a4f28419497f9722a3daafe3b4186f6b6457e08280a3005b34610171576000366003190112610171576020600354604051908152f35b3461017157602036600319011261017157610668610ad7565b610670610b05565b6001600160a01b0316600090815260056020526040812055005b34610171576040366003190112610171576106a3610ad7565b6001600160a01b0316600090815260076020526040902080546024359190821015610171576020916106d491610aed565b90546040519160031b1c8152f35b34610171576000366003190112610171576020600854604051908152f35b3461017157600036600319011261017157602060ff600254166040519015158152f35b346101715760003660031901126101715760206040516102008152f35b346101715760403660031901126101715760043567ffffffffffffffff811161017157610771903690600401610aa6565b9060243567ffffffffffffffff811161017157610792903690600401610aa6565b929061079c610f13565b6107a4610f31565b8382036109e757600a82116109b0576107bc82610ba9565b926107ca6040519485610b62565b828452601f1994856107db85610ba9565b013660208701376107eb84610ba9565b956107f96040519788610b62565b84875261080585610ba9565b0136602088013760005b8481106108955786866001808055604051916040830160408452815180915260206060850192019060005b81811061087e5750505082810360208401526020808551928381520194019060005b8181106108695784860385f35b8251865260209586019590920191830161085c565b82511515845260209384019390920191840161083a565b60059080821b80850135601e198636030181121561017157850167ffffffffffffffff8135116101715760208101938135901b36038413610171578483101561099a5761090293604092835195869384936375e2c56d60e01b855286600486015260448501913590610b31565b90890135602483015203816000305af1801561098e5760009060009061094c575b6109479350610932838b610f61565b5261093d8289610f61565b9015159052610b9a565b61080f565b50506040823d604011610986575b8161096760409383610b62565b810103126101715781602061097e61094794610f54565b910151610923565b3d915061095a565b6040513d6000823e3d90fd5b634e487b7160e01b600052603260045260246000fd5b60405162461bcd60e51b815260206004820152600f60248201526e426174636820746f6f206c6172676560881b6044820152606490fd5b60405162461bcd60e51b815260206004820152600f60248201526e098cadccee8d040dad2e6dac2e8c6d608b1b6044820152606490fd5b34610171576000366003190112610171576020600954604051908152f35b3461017157600036600319011261017157610a55610b05565b60025460ff811615610a945760ff19166002557f5db9ee0a495bf2e6ff9c91a7834c1ba4fdd244a5e8aa4e537bd38aeae4b073aa6020604051338152a1005b604051638dfc202b60e01b8152600490fd5b9181601f840112156101715782359167ffffffffffffffff8311610171576020808501948460051b01011161017157565b600435906001600160a01b038216820361017157565b805482101561099a5760005260206000200190600090565b6000546001600160a01b03163303610b1957565b60405163118cdaa760e01b8152336004820152602490fd5b91908082526020809201929160005b828110610b4e575050505090565b833585529381019392810192600101610b40565b90601f8019910116810190811067ffffffffffffffff821117610b8457604052565b634e487b7160e01b600052604160045260246000fd5b60001981146102a55760010190565b67ffffffffffffffff8111610b845760051b60200190565b919290926004928354808603610ef6575060009433865260206005815260409182882054804310610ed8575082519382850183815285610c048682018585610b31565b0395610c18601f1997888101835282610b62565b51902089526006835260ff848a205416610e8d57610c3582610ba9565b90610c4285519283610b62565b828252838201809360051b820191368311610e89578590915b838310610e79575050505061753091825a10610e69579089908551858101918782019087845251809152606082019490845b88828210610e525750505050610cab81849503898101835282610b62565b519060248095fa3d15610e49573d67ffffffffffffffff8111610e3757610cdb84865197601f8401160187610b62565b85523d898487013e5b15610e23578284805181010312610e1f57610d0483838601519501610f54565b508396610d12600854610b9a565b6008553389526007835283892080549068010000000000000000821015610e0d5790610d4391600182018155610aed565b81549060031b9087821b91600019901b19161790556003548510988915610d985750505090867ff55fd7d95b41e3fecf28190794090ea7e3c92c988161f49689e2cdc5f6038d229282519485528401523392a3565b8487858893610da8600954610b9a565b50600a430190814311610dfb57339052600582528351918583528201527fe7ca1f0120f10fca4593e7fe88e72d536d313536bd23d6f89c7efb98274793eb833392a351630b1a0d7f60e31b815291820152fd5b634e487b7160e01b8152601187528790fd5b634e487b7160e01b8b5260418352838bfd5b8780fd5b8251636f99e79360e01b8152808801829052fd5b634e487b7160e01b8a5260418952828afd5b60609450610ce4565b83518852968701968f965090920191600101610c8d565b84516307099c5360e21b81528990fd5b8235815291810191869101610c5b565b8b80fd5b5050929394507ff55fd7d95b41e3fecf28190794090ea7e3c92c988161f49689e2cdc5f6038d229150610ec1600854610b9a565b60085560018151938785528401523392a360019190565b835163947c8d3760e01b815233818a01526024810191909152604490fd5b846044918760405192636067a1e560e11b84528301526024820152fd5b60ff60025416610f1f57565b60405163d93c066560e01b8152600490fd5b600260015414610f42576002600155565b604051633ee5aeb560e01b8152600490fd5b5190811515820361017157565b805182101561099a5760209160051b010190565b8115610f7f570490565b634e487b7160e01b600052601260045260246000fd5b6001600160a01b03166000908152600760205260408120805491821561101357908180915b848310610fd15750505090610fce91610f75565b90565b909192610fde8483610aed565b90549060031b1c8101809111610fff57610ff89093610b9a565b9190610fba565b634e487b7160e01b83526011600452602483fd5b9150509056fea2646970667358221220ad8c24e6a867e962a16b922b197ac76987b7561376c6594341dd3371e2498ae264736f6c63430008140033",
  "linkReferences": {},
  "deployedLinkReferences": {}
}