{
  "_format": "hh-sol-artifact-1",
  "contractName": "AnomalyGuard",
  "sourceName": "src/examples/AnomalyGuard.sol",
  "abi": [
    {
      "inputs": [
        {
          "internalType": "uint256",
          "name": "_dimension",
          "type": "uint256"
        },
        {
          "internalType": "uint256",
          "name": "_threshold",
          "type": "uint256"
        }
      ],
      "stateMutability": "nonpayable",
      "type": "constructor"
    },
    {
      "inputs": [
        {
          "internalType": "address",
          "name": "flagged",
          "type": "address"
        },
        {
          "internalType": "uint256",
          "name": "cooldownUntil",
          "type": "uint256"
        }
      ],
      "name": "AddressFlagged",
      "type": "error"
    },
    {
      "inputs": [],
      "name": "EnforcedPause",
      "type": "error"
    },
    {
      "inputs": [],
      "name": "ExpectedPause",
      "type": "error"
    },
    {
      "inputs": [],
      "name": "InsufficientGas",
      "type": "error"
    },
    {
      "inputs": [
        {
          "internalType": "uint256",
          "name": "length",
          "type": "uint256"
        },
        {
          "internalType": "uint256",
          "name": "expected",
          "type": "uint256"
        }
      ],
      "name": "InvalidEmbedding",
      "type": "error"
    },
    {
      "inputs": [
        {
          "internalType": "address",
          "name": "owner",
          "type": "address"
        }
      ],
      "name": "OwnableInvalidOwner",
      "type": "error"
    },
    {
      "inputs": [
        {
          "internalType": "address",
          "name": "account",
          "type": "address"
        }
      ],
      "name": "OwnableUnauthorizedAccount",
      "type": "error"
    },
    {
      "inputs": [
        {
          "internalType": "address",
          "name": "precompile",
          "type": "address"
        }
      ],
      "name": "PrecompileCallFailed",
      "type": "error"
    },
    {
      "inputs": [],
      "name": "ReentrancyGuardReentrantCall",
      "type": "error"
    },
    {
      "inputs": [
        {
          "internalType": "uint256",
          "name": "value",
          "type": "uint256"
        }
      ],
      "name": "ThresholdOutOfRange",
      "type": "error"
    },
    {
      "inputs": [
        {
          "internalType": "uint256",
          "name": "anomalyScore",
          "type": "uint256"
        }
      ],
      "name": "TransactionBlocked",
      "type": "error"
    },
    {
      "anonymous": false,
      "inputs": [
        {
          "indexed": true,
          "internalType": "address",
          "name": "sender",
          "type": "address"
        },
        {
          "indexed": true,
          "internalType": "bytes32",
          "name": "txHash",
          "type": "bytes32"
        },
        {
          "indexed": false,
          "internalType": "uint256",
          "name": "score",
          "type": "uint256"
        },
        {
          "indexed": false,
          "internalType": "uint256",
          "name": "cooldownUntil",
          "type": "uint256"
        }
      ],
      "name": "AnomalyFlagged",
      "type": "event"
    },
    {
      "anonymous": false,
      "inputs": [
        {
          "indexed": true,
          "internalType": "address",
          "name": "previousOwner",
          "type": "address"
        },
        {
          "indexed": true,
          "internalType": "address",
          "name": "newOwner",
          "type": "address"
        }
      ],
      "name": "OwnershipTransferred",
      "type": "event"
    },
    {
      "anonymous": false,
      "inputs": [
        {
          "indexed": true,
          "internalType": "bytes32",
          "name": "patternHash",
          "type": "bytes32"
        }
      ],
      "name": "PatternRemoved",
      "type": "event"
    },
    {
      "anonymous": false,
      "inputs": [
        {
          "indexed": true,
          "internalType": "bytes32",
          "name": "patternHash",
          "type": "bytes32"
        }
      ],
      "name": "PatternWhitelisted",
      "type": "event"
    },
    {
      "anonymous": false,
      "inputs": [
        {
          "indexed": false,
          "internalType": "address",
          "name": "account",
          "type": "address"
        }
      ],
      "name": "Paused",
      "type": "event"
    },
    {
      "anonymous": false,
      "inputs": [
        {
          "indexed": false,
          "internalType": "uint256",
          "name": "oldThreshold",
          "type": "uint256"
        },
        {
          "indexed": false,
          "internalType": "uint256",
          "name": "newThreshold",
          "type": "uint256"
        }
      ],
      "name": "ThresholdUpdated",
      "type": "event"
    },
    {
      "anonymous": false,
      "inputs": [
        {
          "indexed": true,
          "internalType": "address",
          "name": "sender",
          "type": "address"
        },
        {
          "indexed": true,
          "internalType": "bytes32",
          "name": "txHash",
          "type": "bytes32"
        },
        {
          "indexed": false,
          "internalType": "uint256",
          "name": "score",
          "type": "uint256"
        },
        {
          "indexed": false,
          "internalType": "bool",
          "name": "passed",
          "type": "bool"
        }
      ],
      "name": "TransactionAnalyzed",
      "type": "event"
    },
    {
      "anonymous": false,
      "inputs": [
        {
          "indexed": false,
          "internalType": "address",
          "name": "account",
          "type": "address"
        }
      ],
      "name": "Unpaused",
      "type": "event"
    },
    {
      "inputs": [],
      "name": "DEFAULT_THRESHOLD",
      "outputs": [
        {
          "internalType": "uint256",
          "name": "",
          "type": "uint256"
        }
      ],
      "stateMutability": "view",
      "type": "function"
    },
    {
      "inputs": [],
      "name": "FLAG_COOLDOWN",
      "outputs": [
        {
          "internalType": "uint256",
          "name": "",
          "type": "uint256"
        }
      ],
      "stateMutability": "view",
      "type": "function"
    },
    {
      "inputs": [],
      "name": "MAX_DIMENSION",
      "outputs": [
        {
          "internalType": "uint256",
          "name": "",
          "type": "uint256"
        }
      ],
      "stateMutability": "view",
      "type": "function"
    },
    {
      "inputs": [],
      "name": "anomalyThreshold",
      "outputs": [
        {
          "internalType": "uint256",
          "name": "",
          "type": "uint256"
        }
      ],
      "stateMutability": "view",
      "type": "function"
    },
    {
      "inputs": [
        {
          "internalType": "int256[][]",
          "name": "embeddings",
          "type": "int256[][]"
        },
        {
          "internalType": "bytes32[]",
          "name": "txHashes",
          "type": "bytes32[]"
        }
      ],
      "name": "batchValidate",
      "outputs": [
        {
          "internalType": "bool[]",
          "name": "passed",
          "type": "bool[]"
        },
        {
          "internalType": "uint256[]",
          "name": "scores",
          "type": "uint256[]"
        }
      ],
      "stateMutability": "nonpayable",
      "type": "function"
    },
    {
      "inputs": [],
      "name": "embeddingDimension",
      "outputs": [
        {
          "internalType": "uint256",
          "name": "",
          "type": "uint256"
        }
      ],
      "stateMutability": "view",
      "type": "function"
    },
    {
      "inputs": [
        {
          "internalType": "address",
          "name": "",
          "type": "address"
        }
      ],
      "name": "flaggedUntil",
      "outputs": [
        {
          "internalType": "uint256",
          "name": "",
          "type": "uint256"
        }
      ],
      "stateMutability": "view",
      "type": "function"
    },
    {
      "inputs": [
        {
          "internalType": "address",
          "name": "account",
          "type": "address"
        }
      ],
      "name": "getAverageScore",
      "outputs": [
        {
          "internalType": "uint256",
          "name": "average",
          "type": "uint256"
        }
      ],
      "stateMutability": "view",
      "type": "function"
    },
    {
      "inputs": [],
      "name": "getStats",
      "outputs": [
        {
          "internalType": "uint256",
          "name": "analyzed",
          "type": "uint256"
        },
        {
          "internalType": "uint256",
          "name": "flagged",
          "type": "uint256"
        },
        {
          "internalType": "uint256",
          "name": "rate",
          "type": "uint256"
        }
      ],
      "stateMutability": "view",
      "type": "function"
    },
    {
      "inputs": [
        {
          "internalType": "address",
          "name": "account",
          "type": "address"
        }
      ],
      "name": "isFlagged",
      "outputs": [
        {
          "internalType": "bool",
          "name": "flagged_",
          "type": "bool"
        },
        {
          "internalType": "uint256",
          "name": "cooldownEnds",
          "type": "uint256"
        }
      ],
      "stateMutability": "view",
      "type": "function"
    },
    {
      "inputs": [],
      "name": "owner",
      "outputs": [
        {
          "internalType": "address",
          "name": "",
          "type": "address"
        }
      ],
      "stateMutability": "view",
      "type": "function"
    },
    {
      "inputs": [],
      "name": "pause",
      "outputs": [],
      "stateMutability": "nonpayable",
      "type": "function"
    },
    {
      "inputs": [],
      "name": "paused",
      "outputs": [
        {
          "internalType": "bool",
          "name": "",
          "type": "bool"
        }
      ],
      "stateMutability": "view",
      "type": "function"
    },
    {
      "inputs": [
        {
          "internalType": "bytes32",
          "name": "patternHash",
          "type": "bytes32"
        }
      ],
      "name": "removePattern",
      "outputs": [],
      "stateMutability": "nonpayable",
      "type": "function"
    },
    {
      "inputs": [],
      "name": "renounceOwnership",
      "outputs": [],
      "stateMutability": "nonpayable",
      "type": "function"
    },
    {
      "inputs": [
        {
          "internalType": "address",
          "name": "",
          "type": "address"
        },
        {
          "internalType": "uint256",
          "name": "",
          "type": "uint256"
        }
      ],
      "name": "scoreHistory",
      "outputs": [
        {
          "internalType": "uint256",
          "name": "",
          "type": "uint256"
        }
      ],
      "stateMutability": "view",
      "type": "function"
    },
    {
      "inputs": [
        {
          "internalType": "uint256",
          "name": "newThreshold",
          "type": "uint256"
        }
      ],
      "name": "setThreshold",
      "outputs": [],
      "stateMutability": "nonpayable",
      "type": "function"
    },
    {
      "inputs": [],
      "name": "totalAnalyzed",
      "outputs": [
        {
          "internalType": "uint256",
          "name": "",
          "type": "uint256"
        }
      ],
      "stateMutability": "view",
      "type": "function"
    },
    {
      "inputs": [],
      "name": "totalAnomalies",
      "outputs": [
        {
          "internalType": "uint256",
          "name": "",
          "type": "uint256"
        }
      ],
      "stateMutability": "view",
      "type": "function"
    },
    {
      "inputs": [
        {
          "internalType": "address",
          "name": "newOwner",
          "type": "address"
        }
      ],
      "name": "transferOwnership",
      "outputs": [],
      "stateMutability": "nonpayable",
      "type": "function"
    },
    {
      "inputs": [
        {
          "internalType": "address",
          "name": "account",
          "type": "address"
        }
      ],
      "name": "unflag",
      "outputs": [],
      "stateMutability": "nonpayable",
      "type": "function"
    },
    {
      "inputs": [],
      "name": "unpause",
      "outputs": [],
      "stateMutability": "nonpayable",
      "type": "function"
    },
    {
      "inputs": [
        {
          "internalType": "int256[]",
          "name": "embedding",
          "type": "int256[]"
        },
        {
          "internalType": "bytes32",
          "name": "txHash",
          "type": "bytes32"
        }
      ],
      "name": "validateTransaction",
      "outputs": [
        {
          "internalType": "bool",
          "name": "passed",
          "type": "bool"
        },
        {
          "internalType": "uint256",
          "name": "score",
          "type": "uint256"
        }
      ],
      "stateMutability": "nonpayable",
      "type": "function"
    },
    {
      "inputs": [
        {
          "internalType": "int256[]",
          "name": "embedding",
          "type": "int256[]"
        }
      ],
      "name": "whitelistPattern",
      "outputs": [],
      "stateMutability": "nonpayable",
      "type": "function"
    },
    {
      "inputs": [
        {
          "internalType": "bytes32",
          "name": "",
          "type": "bytes32"
        }
      ],
      "name": "whitelistedPatterns",
      "outputs": [
        {
          "internalType": "bool",
          "name": "",
          "type": "bool"
        }
      ],
      "stateMutability": "view",
      "type": "function"
    }
  ],
  "bytecode": "0x60803461011f5761113890601f38839003908101601f19168201906001600160401b03821183831017610124578083916040958694855283398101031261011f57602081519101519033156101075760008054336001600160a01b031982168117835585519290916001600160a01b0316907f8be0079c531659141344cd1fd0a4f28419497f9722a3daafe3b4186f6b6457e09080a360018055811580156100fc575b6100e05750670de0b6b3a764000082116100c95760045560035551610ffd908161013b8239f35b506024915190636ec31c6760e11b82526004820152fd5b604491636067a1e560e11b825260048201526102006024820152fd5b5061020082116100a2565b8251631e4fbdf760e01b815260006004820152602490fd5b600080fd5b634e487b7160e01b600052604160045260246000fdfe6040608081526004908136101561001557600080fd5b600091823560e01c9081633f4ba83a146109c95781634ee69e2f146109aa578163546734df14610757578163575b68f61461073a5781635c975abb146107165781635f9895fa146106f7578163691845e4146106a1578382636938dc0e14610665575081636f83a58614610646578163715018a6146105ec57816375e2c56d1461057e5781637f519b48146104d95781638456cb591461047e5781638da5cb5b14610456578163960bfe04146103da57816398ed5fa4146103a25781639b76bd05146103865781639db9236814610330578163aefed35314610303578163b81cab4b146102e0578163c59d484714610264578163d06509fd14610237578163f2fde38b146101b0578163fd7288c01461018e575063fef48a991461013857600080fd5b3461018a57602036600319011261018a576101869181906001600160a01b0361015f610a69565b16815260056020522054905191818392431083602090939291936040810194151581520152565b0390f35b5080fd5b9050346101ac57826003193601126101ac5760209250549051908152f35b8280fd5b9050346101ac5760203660031901126101ac576101cb610a69565b906101d4610aad565b6001600160a01b0391821692831561022157505082546001600160a01b0319811683178455167f8be0079c531659141344cd1fd0a4f28419497f9722a3daafe3b4186f6b6457e08380a380f35b51631e4fbdf760e01b8152908101849052602490fd5b50503461018a57602036600319011261018a5760209061025d610258610a69565b610f43565b9051908152f35b8284346102dd57806003193601126102dd576008546009549092909183156102d357670de0b6b3a7640000908184029184830414841517156102c0575060609450836102af91610f23565b915b81519384526020840152820152f35b634e487b7160e01b815260118652602490fd5b60609450916102b1565b80fd5b50503461018a578160031936011261018a57602090516709b6e64a8ec600008152f35b9050346101ac5760203660031901126101ac578160209360ff923581526006855220541690519015158152f35b9050346101ac5760203660031901126101ac57359061034d610aad565b81835260066020528220805460ff191690557fd03c7ccbee6ac6cdc8626168da56b4e44bbf25e02997e48e11c4565399fc88888280a280f35b50503461018a578160031936011261018a5760209051600a8152f35b50503461018a57602036600319011261018a5760209181906001600160a01b036103ca610a69565b1681526005845220549051908152f35b9050346101ac5760203660031901126101ac578035906103f8610aad565b670de0b6b3a764000082116104415750907fb06a54caabe58475c86c2bf9df3f2f06dd1213e9e10659c293117fe4893b274b91600354908060035582519182526020820152a180f35b9151636ec31c6760e11b815291820152602490fd5b50503461018a578160031936011261018a57905490516001600160a01b039091168152602090f35b50503461018a578160031936011261018a5760207f62e78cea01bee320cd4e420270b5ea74000d11b0c9f74754ebdbfc544b05a258916104bc610aad565b6104c4610ad9565b600160ff19600254161760025551338152a180f35b9050346101ac5760203660031901126101ac5780359067ffffffffffffffff821161057a5761051161052c9161053a93369101610a33565b61051c939193610aad565b8451928391602083019586610b1a565b03601f198101835282610b51565b5190208083526006602052908220805460ff191660011790557f7c9f51d794f20dbf88d5bda87745e5fdc7be72f9aa04ba150d42aba4acefb7a88280a280f35b8380fd5b8284346102dd57816003193601126102dd5782359067ffffffffffffffff82116102dd57506105b6610186936105cf92369101610a33565b6105be610ad9565b6105c6610af7565b60243591610bc6565b600180559151901515815260208101919091529081906040820190565b83346102dd57806003193601126102dd57610605610aad565b80546001600160a01b03198116825581906001600160a01b03167f8be0079c531659141344cd1fd0a4f28419497f9722a3daafe3b4186f6b6457e08280a380f35b50503461018a578160031936011261018a576020906003549051908152f35b80843461069e57602036600319011261069e57610680610a69565b610688610aad565b6001600160a01b03168252600560205281205580f35b50fd5b50503461018a578060031936011261018a576106bb610a69565b6001600160a01b031682526007602052808220805460243593908410156102dd57506020926106e991610a7f565b91905490519160031b1c8152f35b50503461018a578160031936011261018a576020906008549051908152f35b50503461018a578160031936011261018a5760209060ff6002541690519015158152f35b50503461018a578160031936011261018a57602090516102008152f35b8391503461018a578260031936011261018a5767ffffffffffffffff90803582811161057a5761078a9036908301610a33565b9360243584811161018a576107a29036908501610a33565b90936107ac610ad9565b6107b4610af7565b81870361097557600a8711610940579286949188946107d287610bae565b966107df87519889610b51565b8088526107eb81610bae565b98602094858a0196601f19809c0136893761080584610bae565b956108128b519788610b51565b84875261081e85610bae565b8789019d01368e37895b8581106108a1575050505050505060019485805580519681880191885251809152606087019390855b81811061088c57505050858303868301525180835291810195925b8281106108795785870386f35b835187529581019592810192840161086c565b82511515865294840194918401918701610851565b60059d9b9d9a98999a81811b80860135601e19873603018112156109385786019081359188831161093c578d839101931b360383136109385784841015610925578f9361091994816109096109018f9697839861090f978d013591610bc6565b929096610f0f565b52610f0f565b9015159052610b89565b9c9a9c99989799610828565b634e487b7160e01b8c5260328a5260248cfd5b8b80fd5b8c80fd5b606490602089519162461bcd60e51b8352820152600f60248201526e426174636820746f6f206c6172676560881b6044820152fd5b606490602089519162461bcd60e51b8352820152600f60248201526e098cadccee8d040dad2e6dac2e8c6d608b1b6044820152fd5b50503461018a578160031936011261018a576020906009549051908152f35b9050346101ac57826003193601126101ac576109e3610aad565b6002549060ff821615610a25575060ff1916600255513381527f5db9ee0a495bf2e6ff9c91a7834c1ba4fdd244a5e8aa4e537bd38aeae4b073aa90602090a180f35b8251638dfc202b60e01b8152fd5b9181601f84011215610a645782359167ffffffffffffffff8311610a64576020808501948460051b010111610a6457565b600080fd5b600435906001600160a01b0382168203610a6457565b8054821015610a975760005260206000200190600090565b634e487b7160e01b600052603260045260246000fd5b6000546001600160a01b03163303610ac157565b60405163118cdaa760e01b8152336004820152602490fd5b60ff60025416610ae557565b60405163d93c066560e01b8152600490fd5b600260015414610b08576002600155565b604051633ee5aeb560e01b8152600490fd5b90916040602092828482018583525201929160005b828110610b3d575050505090565b833585529381019392810192600101610b2f565b90601f8019910116810190811067ffffffffffffffff821117610b7357604052565b634e487b7160e01b600052604160045260246000fd5b6000198114610b985760010190565b634e487b7160e01b600052601160045260246000fd5b67ffffffffffffffff8111610b735760051b60200190565b919290926004928354808603610ef2575060009433865260206005815260409182882054804310610ed4575082519382850185610c04848484610b1a565b0395610c18601f1997888101835282610b51565b51902089526006835260ff848a205416610e8957610c3582610bae565b90610c4285519283610b51565b828252838201809360051b820191368311610938578590915b838310610e79575050505061753091825a10610e69579089908551858101918782019087845251809152606082019490845b88828210610e525750505050610cab81849503898101835282610b51565b519060248095fa3d15610e49573d67ffffffffffffffff8111610e3757610cdb84865197601f8401160187610b51565b85523d898487013e5b15610e23578284805181010312610e1f57828285015194015180151503610e1f578396610d12600854610b89565b6008553389526007835283892080549068010000000000000000821015610e0d5790610d4391600182018155610a7f565b81549060031b9087821b91600019901b19161790556003548510988915610d985750505090867ff55fd7d95b41e3fecf28190794090ea7e3c92c988161f49689e2cdc5f6038d229282519485528401523392a3565b8487858893610da8600954610b89565b50600a430190814311610dfb57339052600582528351918583528201527fe7ca1f0120f10fca4593e7fe88e72d536d313536bd23d6f89c7efb98274793eb833392a351630b1a0d7f60e31b815291820152fd5b634e487b7160e01b8152601187528790fd5b634e487b7160e01b8b5260418352838bfd5b8780fd5b8251636f99e79360e01b8152808801829052fd5b634e487b7160e01b8a5260418952828afd5b60609450610ce4565b83518852968701968f965090920191600101610c8d565b84516307099c5360e21b81528990fd5b8235815291810191869101610c5b565b5050929394507ff55fd7d95b41e3fecf28190794090ea7e3c92c988161f49689e2cdc5f6038d229150610ebd600854610b89565b60085560018151938785528401523392a360019190565b835163947c8d3760e01b815233818a01526024810191909152604490fd5b846044918760405192636067a1e560e11b84528301526024820152fd5b8051821015610a975760209160051b010190565b8115610f2d570490565b634e487b7160e01b600052601260045260246000fd5b6001600160a01b031660009081526007602052604081208054918215610fc157908180915b848310610f7f5750505090610f7c91610f23565b90565b909192610f8c8483610a7f565b90549060031b1c8101809111610fad57610fa69093610b89565b9190610f68565b634e487b7160e01b83526011600452602483fd5b9150509056fea26469706673582212200d52d5d6929e19737beff37d438e4aa1e5de7c619ce6fa8a7ea06b64be3fef7d64736f6c63430008140033",
  "linkReferences": {},
  "deployedLinkReferences": {}
}