{
  "_format": "hh-sol-artifact-1",
  "contractName": "TrainingEscrow",
  "sourceName": "src/TrainingEscrow.sol",
  "abi": [
    {
      "inputs": [
        {
          "internalType": "address",
          "name": "_mdtToken",
          "type": "address"
        },
        {
          "internalType": "address",
          "name": "_aggregator",
          "type": "address"
        }
      ],
      "stateMutability": "nonpayable",
      "type": "constructor"
    },
    {
      "inputs": [],
      "name": "InsufficientBalance",
      "type": "error"
    },
    {
      "inputs": [],
      "name": "InsufficientStake",
      "type": "error"
    },
    {
      "inputs": [],
      "name": "InvalidAggregator",
      "type": "error"
    },
    {
      "inputs": [],
      "name": "NothingToClaim",
      "type": "error"
    },
    {
      "inputs": [],
      "name": "OnlyAggregator",
      "type": "error"
    },
    {
      "inputs": [
        {
          "internalType": "address",
          "name": "owner",
          "type": "address"
        }
      ],
      "name": "OwnableInvalidOwner",
      "type": "error"
    },
    {
      "inputs": [
        {
          "internalType": "address",
          "name": "account",
          "type": "address"
        }
      ],
      "name": "OwnableUnauthorizedAccount",
      "type": "error"
    },
    {
      "inputs": [],
      "name": "ReentrancyGuardReentrantCall",
      "type": "error"
    },
    {
      "inputs": [
        {
          "internalType": "address",
          "name": "token",
          "type": "address"
        }
      ],
      "name": "SafeERC20FailedOperation",
      "type": "error"
    },
    {
      "anonymous": false,
      "inputs": [
        {
          "indexed": true,
          "internalType": "address",
          "name": "oldAggregator",
          "type": "address"
        },
        {
          "indexed": true,
          "internalType": "address",
          "name": "newAggregator",
          "type": "address"
        }
      ],
      "name": "AggregatorUpdated",
      "type": "event"
    },
    {
      "anonymous": false,
      "inputs": [
        {
          "indexed": true,
          "internalType": "address",
          "name": "recipient",
          "type": "address"
        },
        {
          "indexed": false,
          "internalType": "uint256",
          "name": "amount",
          "type": "uint256"
        }
      ],
      "name": "InsurancePayout",
      "type": "event"
    },
    {
      "anonymous": false,
      "inputs": [
        {
          "indexed": true,
          "internalType": "uint256",
          "name": "jobId",
          "type": "uint256"
        },
        {
          "indexed": true,
          "internalType": "address",
          "name": "funder",
          "type": "address"
        },
        {
          "indexed": false,
          "internalType": "uint256",
          "name": "amount",
          "type": "uint256"
        }
      ],
      "name": "JobFunded",
      "type": "event"
    },
    {
      "anonymous": false,
      "inputs": [
        {
          "indexed": false,
          "internalType": "uint256",
          "name": "oldMinStake",
          "type": "uint256"
        },
        {
          "indexed": false,
          "internalType": "uint256",
          "name": "newMinStake",
          "type": "uint256"
        }
      ],
      "name": "MinStakeUpdated",
      "type": "event"
    },
    {
      "anonymous": false,
      "inputs": [
        {
          "indexed": true,
          "internalType": "address",
          "name": "previousOwner",
          "type": "address"
        },
        {
          "indexed": true,
          "internalType": "address",
          "name": "newOwner",
          "type": "address"
        }
      ],
      "name": "OwnershipTransferred",
      "type": "event"
    },
    {
      "anonymous": false,
      "inputs": [
        {
          "indexed": true,
          "internalType": "uint256",
          "name": "jobId",
          "type": "uint256"
        },
        {
          "indexed": true,
          "internalType": "address",
          "name": "trainer",
          "type": "address"
        },
        {
          "indexed": false,
          "internalType": "uint256",
          "name": "amount",
          "type": "uint256"
        }
      ],
      "name": "RewardClaimed",
      "type": "event"
    },
    {
      "anonymous": false,
      "inputs": [
        {
          "indexed": false,
          "internalType": "uint256",
          "name": "oldPercentage",
          "type": "uint256"
        },
        {
          "indexed": false,
          "internalType": "uint256",
          "name": "newPercentage",
          "type": "uint256"
        }
      ],
      "name": "SlashPercentageUpdated",
      "type": "event"
    },
    {
      "anonymous": false,
      "inputs": [
        {
          "indexed": true,
          "internalType": "address",
          "name": "trainer",
          "type": "address"
        },
        {
          "indexed": false,
          "internalType": "uint256",
          "name": "amount",
          "type": "uint256"
        },
        {
          "indexed": false,
          "internalType": "string",
          "name": "reason",
          "type": "string"
        }
      ],
      "name": "Slashed",
      "type": "event"
    },
    {
      "anonymous": false,
      "inputs": [
        {
          "indexed": true,
          "internalType": "address",
          "name": "trainer",
          "type": "address"
        },
        {
          "indexed": false,
          "internalType": "uint256",
          "name": "amount",
          "type": "uint256"
        }
      ],
      "name": "Staked",
      "type": "event"
    },
    {
      "anonymous": false,
      "inputs": [
        {
          "indexed": true,
          "internalType": "address",
          "name": "trainer",
          "type": "address"
        },
        {
          "indexed": false,
          "internalType": "uint256",
          "name": "amount",
          "type": "uint256"
        }
      ],
      "name": "Unstaked",
      "type": "event"
    },
    {
      "inputs": [
        {
          "internalType": "uint256",
          "name": "jobId",
          "type": "uint256"
        },
        {
          "internalType": "address",
          "name": "trainer",
          "type": "address"
        },
        {
          "internalType": "uint256",
          "name": "amount",
          "type": "uint256"
        }
      ],
      "name": "distributeReward",
      "outputs": [],
      "stateMutability": "nonpayable",
      "type": "function"
    },
    {
      "inputs": [
        {
          "internalType": "uint256",
          "name": "jobId",
          "type": "uint256"
        },
        {
          "internalType": "uint256",
          "name": "amount",
          "type": "uint256"
        }
      ],
      "name": "fundJob",
      "outputs": [],
      "stateMutability": "nonpayable",
      "type": "function"
    },
    {
      "inputs": [],
      "name": "getInsuranceFund",
      "outputs": [
        {
          "internalType": "uint256",
          "name": "",
          "type": "uint256"
        }
      ],
      "stateMutability": "view",
      "type": "function"
    },
    {
      "inputs": [
        {
          "internalType": "uint256",
          "name": "jobId",
          "type": "uint256"
        }
      ],
      "name": "getJobBudget",
      "outputs": [
        {
          "internalType": "uint256",
          "name": "",
          "type": "uint256"
        }
      ],
      "stateMutability": "view",
      "type": "function"
    },
    {
      "inputs": [
        {
          "internalType": "address",
          "name": "trainer",
          "type": "address"
        }
      ],
      "name": "getStake",
      "outputs": [
        {
          "internalType": "uint256",
          "name": "",
          "type": "uint256"
        }
      ],
      "stateMutability": "view",
      "type": "function"
    },
    {
      "inputs": [],
      "name": "gradientAggregator",
      "outputs": [
        {
          "internalType": "address",
          "name": "",
          "type": "address"
        }
      ],
      "stateMutability": "view",
      "type": "function"
    },
    {
      "inputs": [
        {
          "internalType": "address",
          "name": "trainer",
          "type": "address"
        }
      ],
      "name": "hasMinStake",
      "outputs": [
        {
          "internalType": "bool",
          "name": "",
          "type": "bool"
        }
      ],
      "stateMutability": "view",
      "type": "function"
    },
    {
      "inputs": [],
      "name": "insuranceFund",
      "outputs": [
        {
          "internalType": "uint256",
          "name": "",
          "type": "uint256"
        }
      ],
      "stateMutability": "view",
      "type": "function"
    },
    {
      "inputs": [
        {
          "internalType": "uint256",
          "name": "",
          "type": "uint256"
        }
      ],
      "name": "jobDeposits",
      "outputs": [
        {
          "internalType": "uint256",
          "name": "",
          "type": "uint256"
        }
      ],
      "stateMutability": "view",
      "type": "function"
    },
    {
      "inputs": [
        {
          "internalType": "uint256",
          "name": "",
          "type": "uint256"
        }
      ],
      "name": "jobSpent",
      "outputs": [
        {
          "internalType": "uint256",
          "name": "",
          "type": "uint256"
        }
      ],
      "stateMutability": "view",
      "type": "function"
    },
    {
      "inputs": [],
      "name": "mdtToken",
      "outputs": [
        {
          "internalType": "contract IERC20",
          "name": "",
          "type": "address"
        }
      ],
      "stateMutability": "view",
      "type": "function"
    },
    {
      "inputs": [],
      "name": "minStake",
      "outputs": [
        {
          "internalType": "uint256",
          "name": "",
          "type": "uint256"
        }
      ],
      "stateMutability": "view",
      "type": "function"
    },
    {
      "inputs": [],
      "name": "owner",
      "outputs": [
        {
          "internalType": "address",
          "name": "",
          "type": "address"
        }
      ],
      "stateMutability": "view",
      "type": "function"
    },
    {
      "inputs": [
        {
          "internalType": "address",
          "name": "recipient",
          "type": "address"
        },
        {
          "internalType": "uint256",
          "name": "amount",
          "type": "uint256"
        }
      ],
      "name": "payoutInsurance",
      "outputs": [],
      "stateMutability": "nonpayable",
      "type": "function"
    },
    {
      "inputs": [],
      "name": "renounceOwnership",
      "outputs": [],
      "stateMutability": "nonpayable",
      "type": "function"
    },
    {
      "inputs": [
        {
          "internalType": "address",
          "name": "_aggregator",
          "type": "address"
        }
      ],
      "name": "setAggregator",
      "outputs": [],
      "stateMutability": "nonpayable",
      "type": "function"
    },
    {
      "inputs": [
        {
          "internalType": "uint256",
          "name": "_minStake",
          "type": "uint256"
        }
      ],
      "name": "setMinStake",
      "outputs": [],
      "stateMutability": "nonpayable",
      "type": "function"
    },
    {
      "inputs": [
        {
          "internalType": "uint256",
          "name": "_percentage",
          "type": "uint256"
        }
      ],
      "name": "setSlashPercentage",
      "outputs": [],
      "stateMutability": "nonpayable",
      "type": "function"
    },
    {
      "inputs": [],
      "name": "slashPercentage",
      "outputs": [
        {
          "internalType": "uint256",
          "name": "",
          "type": "uint256"
        }
      ],
      "stateMutability": "view",
      "type": "function"
    },
    {
      "inputs": [
        {
          "internalType": "address",
          "name": "trainer",
          "type": "address"
        },
        {
          "internalType": "string",
          "name": "reason",
          "type": "string"
        }
      ],
      "name": "slashTrainer",
      "outputs": [],
      "stateMutability": "nonpayable",
      "type": "function"
    },
    {
      "inputs": [
        {
          "internalType": "uint256",
          "name": "amount",
          "type": "uint256"
        }
      ],
      "name": "stake",
      "outputs": [],
      "stateMutability": "nonpayable",
      "type": "function"
    },
    {
      "inputs": [
        {
          "internalType": "address",
          "name": "",
          "type": "address"
        }
      ],
      "name": "stakes",
      "outputs": [
        {
          "internalType": "uint256",
          "name": "",
          "type": "uint256"
        }
      ],
      "stateMutability": "view",
      "type": "function"
    },
    {
      "inputs": [
        {
          "internalType": "address",
          "name": "",
          "type": "address"
        },
        {
          "internalType": "uint256",
          "name": "",
          "type": "uint256"
        }
      ],
      "name": "trainerClaimedRounds",
      "outputs": [
        {
          "internalType": "uint256",
          "name": "",
          "type": "uint256"
        }
      ],
      "stateMutability": "view",
      "type": "function"
    },
    {
      "inputs": [
        {
          "internalType": "address",
          "name": "newOwner",
          "type": "address"
        }
      ],
      "name": "transferOwnership",
      "outputs": [],
      "stateMutability": "nonpayable",
      "type": "function"
    },
    {
      "inputs": [
        {
          "internalType": "uint256",
          "name": "amount",
          "type": "uint256"
        }
      ],
      "name": "unstake",
      "outputs": [],
      "stateMutability": "nonpayable",
      "type": "function"
    }
  ],
  "bytecode": "0x60a0346101b557610ede90601f38839003908101601f19168201906001600160401b038211838310176101ba57808391604095869485528339810103126101b557610055602061004e836101d0565b92016101d0565b331561019d5760008054336001600160a01b03198083168217845586519590946001600160a01b03949093859391908416907f8be0079c531659141344cd1fd0a4f28419497f9722a3daafe3b4186f6b6457e09080a36001805568056bc75e2d631000006003556103e86004551693841561015b57501691821561011757608052600254161760025551610cf990816101e58239608051818181610263015281816102c801528181610408015281816105b60152818161089801526109870152f35b835162461bcd60e51b815260206004820152601a60248201527f496e76616c69642061676772656761746f7220616464726573730000000000006044820152606490fd5b62461bcd60e51b815260206004820152601560248201527f496e76616c696420746f6b656e206164647265737300000000000000000000006044820152606490fd5b8251631e4fbdf760e01b815260006004820152602490fd5b600080fd5b634e487b7160e01b600052604160045260246000fd5b51906001600160a01b03821682036101b55756fe6040608081526004908136101561001557600080fd5b600091823560e01c80630af915ee146109615780630ca0bc4d146109385780630f373afd146108fb578063158626f71461039e57806316934fc41461062b5780632e17de7814610848578063362543a914610821578063375b3c0a14610802578063393ebbf81461077b5780633d52c5da146106e75780635bcb2800146106c0578063715018a6146106635780637a7664601461062b5780638bd4522d146105315780638c80fd90146104de5780638da5cb5b146104b6578063a577dafd14610475578063a694fc3a146103e4578063b4824fee146103bd578063b79023031461039e578063bd58199a14610381578063f2fde38b146102fb578063f70b5c06146102b3578063f8f46457146101b75763f9120af61461013457600080fd5b346101b35760203660031901126101b35761014d6109f4565b90610156610a0f565b6001600160a01b039182169283156101a6575050816002549182167f89baabef7dfd0683c0ac16fd2a8431c51b49fbe654c3f7b5ef19763e2ccd88f28580a36001600160a01b0319161760025580f35b5163029a68ed60e41b8152fd5b8280fd5b5090346101b35760603660031901126101b3576001600160a01b036024358181169380359391908582036102af57604435936002541633036102a1576101fb610b37565b84875260076020528361021a848920546008602052858a205490610b5a565b10610293575091602091610287827f24b5efa61dd1cfc659205a97fb8ed868f3cb8c81922bab2b96423e5de1de2cb795878a5260088652838a2061025f838254610a3b565b90557f0000000000000000000000000000000000000000000000000000000000000000610b67565b51908152a36001805580f35b8251631e9acf1760e31b8152fd5b82516374ec14c960e11b8152fd5b8680fd5b5050346102f757816003193601126102f757517f00000000000000000000000000000000000000000000000000000000000000006001600160a01b03168152602090f35b5080fd5b50346101b35760203660031901126101b3576103156109f4565b9061031e610a0f565b6001600160a01b0391821692831561036b57505082546001600160a01b0319811683178455167f8be0079c531659141344cd1fd0a4f28419497f9722a3daafe3b4186f6b6457e08380a380f35b51631e4fbdf760e01b8152908101849052602490fd5b50346101b357826003193601126101b35760209250549051908152f35b5050346102f757816003193601126102f7576020906006549051908152f35b50346101b35760203660031901126101b35760209282913581526007845220549051908152f35b50346101b35760203660031901126101b3573590610400610b37565b61042c8230337f0000000000000000000000000000000000000000000000000000000000000000610a5e565b3383526005602052808320610442838254610a3b565b9055519081527f9e71bc8eea02a63969f509818f2dafb9254532904319f9dbda79b67bd34a5f3d60203392a26001805580f35b5050346102f757806003193601126102f75760209181906001600160a01b0361049c6109f4565b168152600984528181206024358252845220549051908152f35b5050346102f757816003193601126102f757905490516001600160a01b039091168152602090f35b50346101b35760203660031901126101b3577f171aabb8815c02fd00303450a77058600e3661eb75ce2e77972c0f080bc7099d90359161051c610a0f565b6003548151908152836020820152a160035580f35b5090346101b357806003193601126101b35761054b6109f4565b9060243591610558610a0f565b610560610b37565b6001600160a01b0381169384156105f457600654908185116105e65750916105da8480936105b17fbf2a3d4d8ec2feaa45dfd5779abcf977ed3565830ebb07bf7db66074d318252897602097610b5a565b6006557f0000000000000000000000000000000000000000000000000000000000000000610b67565b51908152a26001805580f35b8351631e9acf1760e31b8152fd5b606490602084519162461bcd60e51b83528201526011602482015270125b9d985b1a59081c9958da5c1a595b9d607a1b6044820152fd5b5050346102f75760203660031901126102f75760209181906001600160a01b036106536109f4565b1681526005845220549051908152f35b83346106bd57806003193601126106bd5761067c610a0f565b80546001600160a01b03198116825581906001600160a01b03167f8be0079c531659141344cd1fd0a4f28419497f9722a3daafe3b4186f6b6457e08280a380f35b80fd5b50346101b35760203660031901126101b35760209282913581526008845220549051908152f35b509190346102f757806003193601126102f7576107026109f4565b6024359367ffffffffffffffff9283861161077757366023870112156107775785820135938411610777573660248588010111610777576002546001600160a01b0316330361076a5750506024610763939461075c610b37565b0190610bf5565b6001805580f35b516374ec14c960e11b8152fd5b8480fd5b50346101b35760203660031901126101b357803591610798610a0f565b61138883116107d5577f2b60ba8fc3afb74a8e3e46b5f094e0578b708b8066fccfe8d038c7c2dfc15dae9082548151908152846020820152a15580f35b906020606492519162461bcd60e51b835282015260076024820152664d61782035302560c81b6044820152fd5b5050346102f757816003193601126102f7576020906003549051908152f35b5091346106bd5760203660031901126106bd575061084160209235610bb7565b9051908152f35b5090346101b35760203660031901126101b357813591610866610b37565b33845260056020528282852054106108ed5750338352600560205280832061088f838254610b5a565b90556108bc82337f0000000000000000000000000000000000000000000000000000000000000000610b67565b519081527f0f5bb82176feb1b5e747e28471aa92156a04d9f3ab9f45f28e2d704232b93f7560203392a26001805580f35b9051631e9acf1760e31b8152fd5b5050346102f75760203660031901126102f75760209181906001600160a01b036109236109f4565b16815260058452205460035411159051908152f35b5050346102f757816003193601126102f75760025490516001600160a01b039091168152602090f35b50346101b357816003193601126101b357356024359161097f610b37565b6109ab8330337f0000000000000000000000000000000000000000000000000000000000000000610a5e565b81845260076020528084206109c1848254610a3b565b9055519182527fe3fbcc1ea1bdc559ec7f0347efde7655e58b5f45a30b0e4470a583c3ef5496b360203393a36001805580f35b600435906001600160a01b0382168203610a0a57565b600080fd5b6000546001600160a01b03163303610a2357565b60405163118cdaa760e01b8152336004820152602490fd5b91908201809211610a4857565b634e487b7160e01b600052601160045260246000fd5b6040516323b872dd60e01b60208201526001600160a01b03928316602482015292909116604483015260648083019390935291815260a081019181831067ffffffffffffffff841117610ab957610ab792604052610acf565b565b634e487b7160e01b600052604160045260246000fd5b906000602091828151910182855af115610b2b576000513d610b2257506001600160a01b0381163b155b610b005750565b604051635274afe760e01b81526001600160a01b039091166004820152602490fd5b60011415610af9565b6040513d6000823e3d90fd5b600260015414610b48576002600155565b604051633ee5aeb560e01b8152600490fd5b91908203918211610a4857565b60405163a9059cbb60e01b60208201526001600160a01b039092166024830152604480830193909352918152608081019167ffffffffffffffff831182841017610ab957610ab792604052610acf565b6000526008602052604060002054600760205260406000205480911015610bef576008602052604060002054610bec91610b5a565b90565b50600090565b6001600160a01b0316600081815260056020526040812054919390918015610cbc5760045480820291820403610ca857916060916127107f7e947095ed288d8885423bdaef4015b7420ffa9b84d62ef67c402e8bc36a8ea995940491868152600560205260408120610c68848254610b5a565b9055610c7683600654610a3b565b6006558160405195869485526040602086015281604086015285850137828201840152601f01601f19168101030190a2565b634e487b7160e01b83526011600452602483fd5b505050505056fea264697066735822122053edd79fd2f8620efbec924cf846ef74ebda1663d028af50ec418bb7bbe98aa964736f6c63430008140033",
  "linkReferences": {},
  "deployedLinkReferences": {}
}