{
  "_format": "hh-sol-artifact-1",
  "contractName": "TrainingEscrow",
  "sourceName": "src/TrainingEscrow.sol",
  "abi": [
    {
      "inputs": [
        {
          "internalType": "address",
          "name": "_mdtToken",
          "type": "address"
        },
        {
          "internalType": "address",
          "name": "_aggregator",
          "type": "address"
        }
      ],
      "stateMutability": "nonpayable",
      "type": "constructor"
    },
    {
      "inputs": [],
      "name": "InsufficientBalance",
      "type": "error"
    },
    {
      "inputs": [],
      "name": "InsufficientStake",
      "type": "error"
    },
    {
      "inputs": [],
      "name": "InvalidAggregator",
      "type": "error"
    },
    {
      "inputs": [],
      "name": "NothingToClaim",
      "type": "error"
    },
    {
      "inputs": [],
      "name": "OnlyAggregator",
      "type": "error"
    },
    {
      "inputs": [
        {
          "internalType": "address",
          "name": "owner",
          "type": "address"
        }
      ],
      "name": "OwnableInvalidOwner",
      "type": "error"
    },
    {
      "inputs": [
        {
          "internalType": "address",
          "name": "account",
          "type": "address"
        }
      ],
      "name": "OwnableUnauthorizedAccount",
      "type": "error"
    },
    {
      "inputs": [],
      "name": "ReentrancyGuardReentrantCall",
      "type": "error"
    },
    {
      "inputs": [
        {
          "internalType": "address",
          "name": "token",
          "type": "address"
        }
      ],
      "name": "SafeERC20FailedOperation",
      "type": "error"
    },
    {
      "anonymous": false,
      "inputs": [
        {
          "indexed": true,
          "internalType": "address",
          "name": "recipient",
          "type": "address"
        },
        {
          "indexed": false,
          "internalType": "uint256",
          "name": "amount",
          "type": "uint256"
        }
      ],
      "name": "InsurancePayout",
      "type": "event"
    },
    {
      "anonymous": false,
      "inputs": [
        {
          "indexed": true,
          "internalType": "uint256",
          "name": "jobId",
          "type": "uint256"
        },
        {
          "indexed": true,
          "internalType": "address",
          "name": "funder",
          "type": "address"
        },
        {
          "indexed": false,
          "internalType": "uint256",
          "name": "amount",
          "type": "uint256"
        }
      ],
      "name": "JobFunded",
      "type": "event"
    },
    {
      "anonymous": false,
      "inputs": [
        {
          "indexed": true,
          "internalType": "address",
          "name": "previousOwner",
          "type": "address"
        },
        {
          "indexed": true,
          "internalType": "address",
          "name": "newOwner",
          "type": "address"
        }
      ],
      "name": "OwnershipTransferred",
      "type": "event"
    },
    {
      "anonymous": false,
      "inputs": [
        {
          "indexed": true,
          "internalType": "uint256",
          "name": "jobId",
          "type": "uint256"
        },
        {
          "indexed": true,
          "internalType": "address",
          "name": "trainer",
          "type": "address"
        },
        {
          "indexed": false,
          "internalType": "uint256",
          "name": "amount",
          "type": "uint256"
        }
      ],
      "name": "RewardClaimed",
      "type": "event"
    },
    {
      "anonymous": false,
      "inputs": [
        {
          "indexed": true,
          "internalType": "address",
          "name": "trainer",
          "type": "address"
        },
        {
          "indexed": false,
          "internalType": "uint256",
          "name": "amount",
          "type": "uint256"
        },
        {
          "indexed": false,
          "internalType": "string",
          "name": "reason",
          "type": "string"
        }
      ],
      "name": "Slashed",
      "type": "event"
    },
    {
      "anonymous": false,
      "inputs": [
        {
          "indexed": true,
          "internalType": "address",
          "name": "trainer",
          "type": "address"
        },
        {
          "indexed": false,
          "internalType": "uint256",
          "name": "amount",
          "type": "uint256"
        }
      ],
      "name": "Staked",
      "type": "event"
    },
    {
      "anonymous": false,
      "inputs": [
        {
          "indexed": true,
          "internalType": "address",
          "name": "trainer",
          "type": "address"
        },
        {
          "indexed": false,
          "internalType": "uint256",
          "name": "amount",
          "type": "uint256"
        }
      ],
      "name": "Unstaked",
      "type": "event"
    },
    {
      "inputs": [
        {
          "internalType": "uint256",
          "name": "jobId",
          "type": "uint256"
        },
        {
          "internalType": "address",
          "name": "trainer",
          "type": "address"
        },
        {
          "internalType": "uint256",
          "name": "amount",
          "type": "uint256"
        }
      ],
      "name": "distributeReward",
      "outputs": [],
      "stateMutability": "nonpayable",
      "type": "function"
    },
    {
      "inputs": [
        {
          "internalType": "uint256",
          "name": "jobId",
          "type": "uint256"
        },
        {
          "internalType": "uint256",
          "name": "amount",
          "type": "uint256"
        }
      ],
      "name": "fundJob",
      "outputs": [],
      "stateMutability": "nonpayable",
      "type": "function"
    },
    {
      "inputs": [],
      "name": "getInsuranceFund",
      "outputs": [
        {
          "internalType": "uint256",
          "name": "",
          "type": "uint256"
        }
      ],
      "stateMutability": "view",
      "type": "function"
    },
    {
      "inputs": [
        {
          "internalType": "uint256",
          "name": "jobId",
          "type": "uint256"
        }
      ],
      "name": "getJobBudget",
      "outputs": [
        {
          "internalType": "uint256",
          "name": "",
          "type": "uint256"
        }
      ],
      "stateMutability": "view",
      "type": "function"
    },
    {
      "inputs": [
        {
          "internalType": "address",
          "name": "trainer",
          "type": "address"
        }
      ],
      "name": "getStake",
      "outputs": [
        {
          "internalType": "uint256",
          "name": "",
          "type": "uint256"
        }
      ],
      "stateMutability": "view",
      "type": "function"
    },
    {
      "inputs": [],
      "name": "gradientAggregator",
      "outputs": [
        {
          "internalType": "address",
          "name": "",
          "type": "address"
        }
      ],
      "stateMutability": "view",
      "type": "function"
    },
    {
      "inputs": [
        {
          "internalType": "address",
          "name": "trainer",
          "type": "address"
        }
      ],
      "name": "hasMinStake",
      "outputs": [
        {
          "internalType": "bool",
          "name": "",
          "type": "bool"
        }
      ],
      "stateMutability": "view",
      "type": "function"
    },
    {
      "inputs": [],
      "name": "insuranceFund",
      "outputs": [
        {
          "internalType": "uint256",
          "name": "",
          "type": "uint256"
        }
      ],
      "stateMutability": "view",
      "type": "function"
    },
    {
      "inputs": [
        {
          "internalType": "uint256",
          "name": "",
          "type": "uint256"
        }
      ],
      "name": "jobDeposits",
      "outputs": [
        {
          "internalType": "uint256",
          "name": "",
          "type": "uint256"
        }
      ],
      "stateMutability": "view",
      "type": "function"
    },
    {
      "inputs": [
        {
          "internalType": "uint256",
          "name": "",
          "type": "uint256"
        }
      ],
      "name": "jobSpent",
      "outputs": [
        {
          "internalType": "uint256",
          "name": "",
          "type": "uint256"
        }
      ],
      "stateMutability": "view",
      "type": "function"
    },
    {
      "inputs": [],
      "name": "mdtToken",
      "outputs": [
        {
          "internalType": "contract IERC20",
          "name": "",
          "type": "address"
        }
      ],
      "stateMutability": "view",
      "type": "function"
    },
    {
      "inputs": [],
      "name": "minStake",
      "outputs": [
        {
          "internalType": "uint256",
          "name": "",
          "type": "uint256"
        }
      ],
      "stateMutability": "view",
      "type": "function"
    },
    {
      "inputs": [],
      "name": "owner",
      "outputs": [
        {
          "internalType": "address",
          "name": "",
          "type": "address"
        }
      ],
      "stateMutability": "view",
      "type": "function"
    },
    {
      "inputs": [
        {
          "internalType": "address",
          "name": "recipient",
          "type": "address"
        },
        {
          "internalType": "uint256",
          "name": "amount",
          "type": "uint256"
        }
      ],
      "name": "payoutInsurance",
      "outputs": [],
      "stateMutability": "nonpayable",
      "type": "function"
    },
    {
      "inputs": [],
      "name": "renounceOwnership",
      "outputs": [],
      "stateMutability": "nonpayable",
      "type": "function"
    },
    {
      "inputs": [
        {
          "internalType": "address",
          "name": "_aggregator",
          "type": "address"
        }
      ],
      "name": "setAggregator",
      "outputs": [],
      "stateMutability": "nonpayable",
      "type": "function"
    },
    {
      "inputs": [
        {
          "internalType": "uint256",
          "name": "_minStake",
          "type": "uint256"
        }
      ],
      "name": "setMinStake",
      "outputs": [],
      "stateMutability": "nonpayable",
      "type": "function"
    },
    {
      "inputs": [
        {
          "internalType": "uint256",
          "name": "_percentage",
          "type": "uint256"
        }
      ],
      "name": "setSlashPercentage",
      "outputs": [],
      "stateMutability": "nonpayable",
      "type": "function"
    },
    {
      "inputs": [],
      "name": "slashPercentage",
      "outputs": [
        {
          "internalType": "uint256",
          "name": "",
          "type": "uint256"
        }
      ],
      "stateMutability": "view",
      "type": "function"
    },
    {
      "inputs": [
        {
          "internalType": "address",
          "name": "trainer",
          "type": "address"
        },
        {
          "internalType": "string",
          "name": "reason",
          "type": "string"
        }
      ],
      "name": "slashTrainer",
      "outputs": [],
      "stateMutability": "nonpayable",
      "type": "function"
    },
    {
      "inputs": [
        {
          "internalType": "uint256",
          "name": "amount",
          "type": "uint256"
        }
      ],
      "name": "stake",
      "outputs": [],
      "stateMutability": "nonpayable",
      "type": "function"
    },
    {
      "inputs": [
        {
          "internalType": "address",
          "name": "",
          "type": "address"
        }
      ],
      "name": "stakes",
      "outputs": [
        {
          "internalType": "uint256",
          "name": "",
          "type": "uint256"
        }
      ],
      "stateMutability": "view",
      "type": "function"
    },
    {
      "inputs": [
        {
          "internalType": "address",
          "name": "",
          "type": "address"
        },
        {
          "internalType": "uint256",
          "name": "",
          "type": "uint256"
        }
      ],
      "name": "trainerClaimedRounds",
      "outputs": [
        {
          "internalType": "uint256",
          "name": "",
          "type": "uint256"
        }
      ],
      "stateMutability": "view",
      "type": "function"
    },
    {
      "inputs": [
        {
          "internalType": "address",
          "name": "newOwner",
          "type": "address"
        }
      ],
      "name": "transferOwnership",
      "outputs": [],
      "stateMutability": "nonpayable",
      "type": "function"
    },
    {
      "inputs": [
        {
          "internalType": "uint256",
          "name": "amount",
          "type": "uint256"
        }
      ],
      "name": "unstake",
      "outputs": [],
      "stateMutability": "nonpayable",
      "type": "function"
    }
  ],
  "bytecode": "0x60a03461011f57601f610d7838819003918201601f19168301916001600160401b0383118484101761012457808492604094855283398101031261011f57610052602061004b8361013a565b920161013a565b33156101065760008054336001600160a01b0319808316821784556040519590946001600160a01b03949093859391908416907f8be0079c531659141344cd1fd0a4f28419497f9722a3daafe3b4186f6b6457e09080a36001805568056bc75e2d631000006003556103e86004551660805216906002541617600255610c29908161014f823960805181818161023f015281816102a4015281816103e401528181610550015281816107c801526108b70152f35b604051631e4fbdf760e01b815260006004820152602490fd5b600080fd5b634e487b7160e01b600052604160045260246000fd5b51906001600160a01b038216820361011f5756fe6040608081526004908136101561001557600080fd5b600091823560e01c80630af915ee146108915780630ca0bc4d146108685780630f373afd1461082b578063158626f71461037a57806316934fc41461058a5780632e17de7814610778578063362543a914610751578063375b3c0a14610732578063393ebbf8146106da5780633d52c5da146106465780635bcb28001461061f578063715018a6146105c25780637a7664601461058a5780638bd4522d146104dc5780638c80fd90146104ba5780638da5cb5b14610492578063a577dafd14610451578063a694fc3a146103c0578063b4824fee14610399578063b79023031461037a578063bd58199a1461035d578063f2fde38b146102d7578063f70b5c061461028f578063f8f46457146101935763f9120af61461013457600080fd5b3461018f57602036600319011261018f5761014d610924565b61015561093f565b6001600160a01b03169182156101825750506bffffffffffffffffffffffff60a01b600254161760025580f35b5163029a68ed60e41b8152fd5b8280fd5b50903461018f57606036600319011261018f576001600160a01b0360243581811693803593919085820361028b576044359360025416330361027d576101d7610a67565b8487526007602052836101f6848920546008602052858a205490610a8a565b1061026f575091602091610263827f24b5efa61dd1cfc659205a97fb8ed868f3cb8c81922bab2b96423e5de1de2cb795878a5260088652838a2061023b83825461096b565b90557f0000000000000000000000000000000000000000000000000000000000000000610a97565b51908152a36001805580f35b8251631e9acf1760e31b8152fd5b82516374ec14c960e11b8152fd5b8680fd5b5050346102d357816003193601126102d357517f00000000000000000000000000000000000000000000000000000000000000006001600160a01b03168152602090f35b5080fd5b503461018f57602036600319011261018f576102f1610924565b906102fa61093f565b6001600160a01b0391821692831561034757505082546001600160a01b0319811683178455167f8be0079c531659141344cd1fd0a4f28419497f9722a3daafe3b4186f6b6457e08380a380f35b51631e4fbdf760e01b8152908101849052602490fd5b503461018f578260031936011261018f5760209250549051908152f35b5050346102d357816003193601126102d3576020906006549051908152f35b503461018f57602036600319011261018f5760209282913581526007845220549051908152f35b503461018f57602036600319011261018f5735906103dc610a67565b6104088230337f000000000000000000000000000000000000000000000000000000000000000061098e565b338352600560205280832061041e83825461096b565b9055519081527f9e71bc8eea02a63969f509818f2dafb9254532904319f9dbda79b67bd34a5f3d60203392a26001805580f35b5050346102d357806003193601126102d35760209181906001600160a01b03610478610924565b168152600984528181206024358252845220549051908152f35b5050346102d357816003193601126102d357905490516001600160a01b039091168152602090f35b8382346102d35760203660031901126102d3576104d561093f565b3560035580f35b50903461018f578060031936011261018f576104f6610924565b906024359261050361093f565b61050b610a67565b6006549081851161026f575091602091610546857fbf2a3d4d8ec2feaa45dfd5779abcf977ed3565830ebb07bf7db66074d318252895610a8a565b60065561057485837f0000000000000000000000000000000000000000000000000000000000000000610a97565b519384526001600160a01b031692a26001805580f35b5050346102d35760203660031901126102d35760209181906001600160a01b036105b2610924565b1681526005845220549051908152f35b833461061c578060031936011261061c576105db61093f565b80546001600160a01b03198116825581906001600160a01b03167f8be0079c531659141344cd1fd0a4f28419497f9722a3daafe3b4186f6b6457e08280a380f35b80fd5b503461018f57602036600319011261018f5760209282913581526008845220549051908152f35b509190346102d357806003193601126102d357610661610924565b6024359367ffffffffffffffff928386116106d657366023870112156106d657858201359384116106d65736602485880101116106d6576002546001600160a01b031633036106c957505060246106c293946106bb610a67565b0190610b25565b6001805580f35b516374ec14c960e11b8152fd5b8480fd5b503461018f57602036600319011261018f578035916106f761093f565b611388831161070557505580f35b906020606492519162461bcd60e51b835282015260076024820152664d61782035302560c81b6044820152fd5b5050346102d357816003193601126102d3576020906003549051908152f35b50913461061c57602036600319011261061c575061077160209235610ae7565b9051908152f35b50903461018f57602036600319011261018f57813591610796610a67565b338452600560205282828520541061081d575033835260056020528083206107bf838254610a8a565b90556107ec82337f0000000000000000000000000000000000000000000000000000000000000000610a97565b519081527f0f5bb82176feb1b5e747e28471aa92156a04d9f3ab9f45f28e2d704232b93f7560203392a26001805580f35b9051631e9acf1760e31b8152fd5b5050346102d35760203660031901126102d35760209181906001600160a01b03610853610924565b16815260058452205460035411159051908152f35b5050346102d357816003193601126102d35760025490516001600160a01b039091168152602090f35b503461018f578160031936011261018f5735602435916108af610a67565b6108db8330337f000000000000000000000000000000000000000000000000000000000000000061098e565b81845260076020528084206108f184825461096b565b9055519182527fe3fbcc1ea1bdc559ec7f0347efde7655e58b5f45a30b0e4470a583c3ef5496b360203393a36001805580f35b600435906001600160a01b038216820361093a57565b600080fd5b6000546001600160a01b0316330361095357565b60405163118cdaa760e01b8152336004820152602490fd5b9190820180921161097857565b634e487b7160e01b600052601160045260246000fd5b6040516323b872dd60e01b60208201526001600160a01b03928316602482015292909116604483015260648083019390935291815260a081019181831067ffffffffffffffff8411176109e9576109e7926040526109ff565b565b634e487b7160e01b600052604160045260246000fd5b906000602091828151910182855af115610a5b576000513d610a5257506001600160a01b0381163b155b610a305750565b604051635274afe760e01b81526001600160a01b039091166004820152602490fd5b60011415610a29565b6040513d6000823e3d90fd5b600260015414610a78576002600155565b604051633ee5aeb560e01b8152600490fd5b9190820391821161097857565b60405163a9059cbb60e01b60208201526001600160a01b039092166024830152604480830193909352918152608081019167ffffffffffffffff8311828410176109e9576109e7926040526109ff565b6000526008602052604060002054600760205260406000205480911015610b1f576008602052604060002054610b1c91610a8a565b90565b50600090565b6001600160a01b0316600081815260056020526040812054919390918015610bec5760045480820291820403610bd857916060916127107f7e947095ed288d8885423bdaef4015b7420ffa9b84d62ef67c402e8bc36a8ea995940491868152600560205260408120610b98848254610a8a565b9055610ba68360065461096b565b6006558160405195869485526040602086015281604086015285850137828201840152601f01601f19168101030190a2565b634e487b7160e01b83526011600452602483fd5b505050505056fea2646970667358221220302eb575cf77978840925080f158865527c0b56edd607816a4eae6184b862d0664736f6c63430008140033",
  "linkReferences": {},
  "deployedLinkReferences": {}
}