{
  "_format": "hh-sol-artifact-1",
  "contractName": "TrainingEscrow",
  "sourceName": "src/TrainingEscrow.sol",
  "abi": [
    {
      "inputs": [
        {
          "internalType": "address",
          "name": "_mdtToken",
          "type": "address"
        },
        {
          "internalType": "address",
          "name": "_aggregator",
          "type": "address"
        }
      ],
      "stateMutability": "nonpayable",
      "type": "constructor"
    },
    {
      "inputs": [],
      "name": "InsufficientBalance",
      "type": "error"
    },
    {
      "inputs": [],
      "name": "InsufficientStake",
      "type": "error"
    },
    {
      "inputs": [],
      "name": "InvalidAggregator",
      "type": "error"
    },
    {
      "inputs": [],
      "name": "NothingToClaim",
      "type": "error"
    },
    {
      "inputs": [],
      "name": "OnlyAggregator",
      "type": "error"
    },
    {
      "inputs": [
        {
          "internalType": "address",
          "name": "owner",
          "type": "address"
        }
      ],
      "name": "OwnableInvalidOwner",
      "type": "error"
    },
    {
      "inputs": [
        {
          "internalType": "address",
          "name": "account",
          "type": "address"
        }
      ],
      "name": "OwnableUnauthorizedAccount",
      "type": "error"
    },
    {
      "inputs": [],
      "name": "ReentrancyGuardReentrantCall",
      "type": "error"
    },
    {
      "inputs": [
        {
          "internalType": "address",
          "name": "token",
          "type": "address"
        }
      ],
      "name": "SafeERC20FailedOperation",
      "type": "error"
    },
    {
      "anonymous": false,
      "inputs": [
        {
          "indexed": true,
          "internalType": "address",
          "name": "oldAggregator",
          "type": "address"
        },
        {
          "indexed": true,
          "internalType": "address",
          "name": "newAggregator",
          "type": "address"
        }
      ],
      "name": "AggregatorUpdated",
      "type": "event"
    },
    {
      "anonymous": false,
      "inputs": [
        {
          "indexed": true,
          "internalType": "address",
          "name": "recipient",
          "type": "address"
        },
        {
          "indexed": false,
          "internalType": "uint256",
          "name": "amount",
          "type": "uint256"
        }
      ],
      "name": "InsurancePayout",
      "type": "event"
    },
    {
      "anonymous": false,
      "inputs": [
        {
          "indexed": true,
          "internalType": "uint256",
          "name": "jobId",
          "type": "uint256"
        },
        {
          "indexed": true,
          "internalType": "address",
          "name": "funder",
          "type": "address"
        },
        {
          "indexed": false,
          "internalType": "uint256",
          "name": "amount",
          "type": "uint256"
        }
      ],
      "name": "JobFunded",
      "type": "event"
    },
    {
      "anonymous": false,
      "inputs": [
        {
          "indexed": false,
          "internalType": "uint256",
          "name": "oldMinStake",
          "type": "uint256"
        },
        {
          "indexed": false,
          "internalType": "uint256",
          "name": "newMinStake",
          "type": "uint256"
        }
      ],
      "name": "MinStakeUpdated",
      "type": "event"
    },
    {
      "anonymous": false,
      "inputs": [
        {
          "indexed": true,
          "internalType": "address",
          "name": "previousOwner",
          "type": "address"
        },
        {
          "indexed": true,
          "internalType": "address",
          "name": "newOwner",
          "type": "address"
        }
      ],
      "name": "OwnershipTransferred",
      "type": "event"
    },
    {
      "anonymous": false,
      "inputs": [
        {
          "indexed": true,
          "internalType": "uint256",
          "name": "jobId",
          "type": "uint256"
        },
        {
          "indexed": true,
          "internalType": "address",
          "name": "trainer",
          "type": "address"
        },
        {
          "indexed": false,
          "internalType": "uint256",
          "name": "amount",
          "type": "uint256"
        }
      ],
      "name": "RewardClaimed",
      "type": "event"
    },
    {
      "anonymous": false,
      "inputs": [
        {
          "indexed": false,
          "internalType": "uint256",
          "name": "oldPercentage",
          "type": "uint256"
        },
        {
          "indexed": false,
          "internalType": "uint256",
          "name": "newPercentage",
          "type": "uint256"
        }
      ],
      "name": "SlashPercentageUpdated",
      "type": "event"
    },
    {
      "anonymous": false,
      "inputs": [
        {
          "indexed": true,
          "internalType": "address",
          "name": "trainer",
          "type": "address"
        },
        {
          "indexed": false,
          "internalType": "uint256",
          "name": "amount",
          "type": "uint256"
        },
        {
          "indexed": false,
          "internalType": "string",
          "name": "reason",
          "type": "string"
        }
      ],
      "name": "Slashed",
      "type": "event"
    },
    {
      "anonymous": false,
      "inputs": [
        {
          "indexed": true,
          "internalType": "address",
          "name": "trainer",
          "type": "address"
        },
        {
          "indexed": false,
          "internalType": "uint256",
          "name": "amount",
          "type": "uint256"
        }
      ],
      "name": "Staked",
      "type": "event"
    },
    {
      "anonymous": false,
      "inputs": [
        {
          "indexed": true,
          "internalType": "address",
          "name": "trainer",
          "type": "address"
        },
        {
          "indexed": false,
          "internalType": "uint256",
          "name": "amount",
          "type": "uint256"
        }
      ],
      "name": "Unstaked",
      "type": "event"
    },
    {
      "inputs": [
        {
          "internalType": "address",
          "name": "",
          "type": "address"
        }
      ],
      "name": "activeJobCount",
      "outputs": [
        {
          "internalType": "uint256",
          "name": "",
          "type": "uint256"
        }
      ],
      "stateMutability": "view",
      "type": "function"
    },
    {
      "inputs": [
        {
          "internalType": "uint256",
          "name": "jobId",
          "type": "uint256"
        },
        {
          "internalType": "address",
          "name": "trainer",
          "type": "address"
        },
        {
          "internalType": "uint256",
          "name": "amount",
          "type": "uint256"
        }
      ],
      "name": "distributeReward",
      "outputs": [],
      "stateMutability": "nonpayable",
      "type": "function"
    },
    {
      "inputs": [
        {
          "internalType": "uint256",
          "name": "jobId",
          "type": "uint256"
        },
        {
          "internalType": "uint256",
          "name": "amount",
          "type": "uint256"
        }
      ],
      "name": "fundJob",
      "outputs": [],
      "stateMutability": "nonpayable",
      "type": "function"
    },
    {
      "inputs": [],
      "name": "getInsuranceFund",
      "outputs": [
        {
          "internalType": "uint256",
          "name": "",
          "type": "uint256"
        }
      ],
      "stateMutability": "view",
      "type": "function"
    },
    {
      "inputs": [
        {
          "internalType": "uint256",
          "name": "jobId",
          "type": "uint256"
        }
      ],
      "name": "getJobBudget",
      "outputs": [
        {
          "internalType": "uint256",
          "name": "",
          "type": "uint256"
        }
      ],
      "stateMutability": "view",
      "type": "function"
    },
    {
      "inputs": [
        {
          "internalType": "address",
          "name": "trainer",
          "type": "address"
        }
      ],
      "name": "getStake",
      "outputs": [
        {
          "internalType": "uint256",
          "name": "",
          "type": "uint256"
        }
      ],
      "stateMutability": "view",
      "type": "function"
    },
    {
      "inputs": [],
      "name": "gradientAggregator",
      "outputs": [
        {
          "internalType": "address",
          "name": "",
          "type": "address"
        }
      ],
      "stateMutability": "view",
      "type": "function"
    },
    {
      "inputs": [
        {
          "internalType": "address",
          "name": "trainer",
          "type": "address"
        }
      ],
      "name": "hasMinStake",
      "outputs": [
        {
          "internalType": "bool",
          "name": "",
          "type": "bool"
        }
      ],
      "stateMutability": "view",
      "type": "function"
    },
    {
      "inputs": [],
      "name": "insuranceFund",
      "outputs": [
        {
          "internalType": "uint256",
          "name": "",
          "type": "uint256"
        }
      ],
      "stateMutability": "view",
      "type": "function"
    },
    {
      "inputs": [
        {
          "internalType": "uint256",
          "name": "",
          "type": "uint256"
        }
      ],
      "name": "jobDeposits",
      "outputs": [
        {
          "internalType": "uint256",
          "name": "",
          "type": "uint256"
        }
      ],
      "stateMutability": "view",
      "type": "function"
    },
    {
      "inputs": [
        {
          "internalType": "uint256",
          "name": "",
          "type": "uint256"
        }
      ],
      "name": "jobSpent",
      "outputs": [
        {
          "internalType": "uint256",
          "name": "",
          "type": "uint256"
        }
      ],
      "stateMutability": "view",
      "type": "function"
    },
    {
      "inputs": [
        {
          "internalType": "address",
          "name": "trainer",
          "type": "address"
        }
      ],
      "name": "markTrainerActive",
      "outputs": [],
      "stateMutability": "nonpayable",
      "type": "function"
    },
    {
      "inputs": [
        {
          "internalType": "address",
          "name": "trainer",
          "type": "address"
        }
      ],
      "name": "markTrainerInactive",
      "outputs": [],
      "stateMutability": "nonpayable",
      "type": "function"
    },
    {
      "inputs": [],
      "name": "mdtToken",
      "outputs": [
        {
          "internalType": "contract IERC20",
          "name": "",
          "type": "address"
        }
      ],
      "stateMutability": "view",
      "type": "function"
    },
    {
      "inputs": [],
      "name": "minStake",
      "outputs": [
        {
          "internalType": "uint256",
          "name": "",
          "type": "uint256"
        }
      ],
      "stateMutability": "view",
      "type": "function"
    },
    {
      "inputs": [],
      "name": "owner",
      "outputs": [
        {
          "internalType": "address",
          "name": "",
          "type": "address"
        }
      ],
      "stateMutability": "view",
      "type": "function"
    },
    {
      "inputs": [
        {
          "internalType": "address",
          "name": "recipient",
          "type": "address"
        },
        {
          "internalType": "uint256",
          "name": "amount",
          "type": "uint256"
        }
      ],
      "name": "payoutInsurance",
      "outputs": [],
      "stateMutability": "nonpayable",
      "type": "function"
    },
    {
      "inputs": [],
      "name": "renounceOwnership",
      "outputs": [],
      "stateMutability": "nonpayable",
      "type": "function"
    },
    {
      "inputs": [
        {
          "internalType": "address",
          "name": "_aggregator",
          "type": "address"
        }
      ],
      "name": "setAggregator",
      "outputs": [],
      "stateMutability": "nonpayable",
      "type": "function"
    },
    {
      "inputs": [
        {
          "internalType": "uint256",
          "name": "_minStake",
          "type": "uint256"
        }
      ],
      "name": "setMinStake",
      "outputs": [],
      "stateMutability": "nonpayable",
      "type": "function"
    },
    {
      "inputs": [
        {
          "internalType": "uint256",
          "name": "_percentage",
          "type": "uint256"
        }
      ],
      "name": "setSlashPercentage",
      "outputs": [],
      "stateMutability": "nonpayable",
      "type": "function"
    },
    {
      "inputs": [],
      "name": "slashPercentage",
      "outputs": [
        {
          "internalType": "uint256",
          "name": "",
          "type": "uint256"
        }
      ],
      "stateMutability": "view",
      "type": "function"
    },
    {
      "inputs": [
        {
          "internalType": "address",
          "name": "trainer",
          "type": "address"
        },
        {
          "internalType": "string",
          "name": "reason",
          "type": "string"
        }
      ],
      "name": "slashTrainer",
      "outputs": [],
      "stateMutability": "nonpayable",
      "type": "function"
    },
    {
      "inputs": [
        {
          "internalType": "uint256",
          "name": "amount",
          "type": "uint256"
        }
      ],
      "name": "stake",
      "outputs": [],
      "stateMutability": "nonpayable",
      "type": "function"
    },
    {
      "inputs": [
        {
          "internalType": "address",
          "name": "",
          "type": "address"
        }
      ],
      "name": "stakes",
      "outputs": [
        {
          "internalType": "uint256",
          "name": "",
          "type": "uint256"
        }
      ],
      "stateMutability": "view",
      "type": "function"
    },
    {
      "inputs": [
        {
          "internalType": "address",
          "name": "",
          "type": "address"
        },
        {
          "internalType": "uint256",
          "name": "",
          "type": "uint256"
        }
      ],
      "name": "trainerClaimedRounds",
      "outputs": [
        {
          "internalType": "uint256",
          "name": "",
          "type": "uint256"
        }
      ],
      "stateMutability": "view",
      "type": "function"
    },
    {
      "inputs": [
        {
          "internalType": "address",
          "name": "newOwner",
          "type": "address"
        }
      ],
      "name": "transferOwnership",
      "outputs": [],
      "stateMutability": "nonpayable",
      "type": "function"
    },
    {
      "inputs": [
        {
          "internalType": "uint256",
          "name": "amount",
          "type": "uint256"
        }
      ],
      "name": "unstake",
      "outputs": [],
      "stateMutability": "nonpayable",
      "type": "function"
    }
  ],
  "bytecode": "0x60a0346101b55761105990601f38839003908101601f19168201906001600160401b038211838310176101ba57808391604095869485528339810103126101b557610055602061004e836101d0565b92016101d0565b331561019d5760008054336001600160a01b03198083168217845586519590946001600160a01b03949093859391908416907f8be0079c531659141344cd1fd0a4f28419497f9722a3daafe3b4186f6b6457e09080a36001805568056bc75e2d631000006003556103e86004551693841561015b57501691821561011757608052600254161760025551610e7490816101e58239608051818181610284015281816102e90152818161049b015281816106de015281816109f20152610b020152f35b835162461bcd60e51b815260206004820152601a60248201527f496e76616c69642061676772656761746f7220616464726573730000000000006044820152606490fd5b62461bcd60e51b815260206004820152601560248201527f496e76616c696420746f6b656e206164647265737300000000000000000000006044820152606490fd5b8251631e4fbdf760e01b815260006004820152602490fd5b600080fd5b634e487b7160e01b600052604160045260246000fd5b51906001600160a01b03821682036101b55756fe6040608081526004908136101561001557600080fd5b600091823560e01c80630af915ee14610adc5780630ca0bc4d14610ab35780630f373afd14610a76578063158626f71461043157806316934fc4146107535780632e17de7814610970578063362543a914610949578063375b3c0a1461092a578063393ebbf8146108a35780633d52c5da1461080f5780635bcb2800146107e8578063715018a61461078b5780637a766460146107535780638bd4522d146106595780638c80fd90146106065780638da5cb5b146105de5780638fa8c44c146105815780638faa8b6c14610549578063a577dafd14610508578063a694fc3a14610477578063b4824fee14610450578063b790230314610431578063bd58199a14610414578063cf1f4db8146103a2578063f2fde38b1461031c578063f70b5c06146102d4578063f8f46457146101d85763f9120af61461015557600080fd5b346101d45760203660031901126101d45761016e610b6f565b90610177610b8a565b6001600160a01b039182169283156101c7575050816002549182167f89baabef7dfd0683c0ac16fd2a8431c51b49fbe654c3f7b5ef19763e2ccd88f28580a36001600160a01b0319161760025580f35b5163029a68ed60e41b8152fd5b8280fd5b5090346101d45760603660031901126101d4576001600160a01b036024358181169380359391908582036102d057604435936002541633036102c25761021c610cb2565b84875260076020528361023b848920546008602052858a205490610cd5565b106102b45750916020916102a8827f24b5efa61dd1cfc659205a97fb8ed868f3cb8c81922bab2b96423e5de1de2cb795878a5260088652838a20610280838254610bb6565b90557f0000000000000000000000000000000000000000000000000000000000000000610ce2565b51908152a36001805580f35b8251631e9acf1760e31b8152fd5b82516374ec14c960e11b8152fd5b8680fd5b505034610318578160031936011261031857517f00000000000000000000000000000000000000000000000000000000000000006001600160a01b03168152602090f35b5080fd5b50346101d45760203660031901126101d457610336610b6f565b9061033f610b8a565b6001600160a01b0391821692831561038c57505082546001600160a01b0319811683178455167f8be0079c531659141344cd1fd0a4f28419497f9722a3daafe3b4186f6b6457e08380a380f35b51631e4fbdf760e01b8152908101849052602490fd5b5090346101d45760203660031901126101d4576103bd610b6f565b6002546001600160a01b0391908216330361040557168352600a60205282208054909160001982146103f25750600101905580f35b634e487b7160e01b845260119052602483fd5b5050516374ec14c960e11b8152fd5b50346101d457826003193601126101d45760209250549051908152f35b5050346103185781600319360112610318576020906006549051908152f35b50346101d45760203660031901126101d45760209282913581526007845220549051908152f35b50346101d45760203660031901126101d4573590610493610cb2565b6104bf8230337f0000000000000000000000000000000000000000000000000000000000000000610bd9565b33835260056020528083206104d5838254610bb6565b9055519081527f9e71bc8eea02a63969f509818f2dafb9254532904319f9dbda79b67bd34a5f3d60203392a26001805580f35b50503461031857806003193601126103185760209181906001600160a01b0361052f610b6f565b168152600984528181206024358252845220549051908152f35b5050346103185760203660031901126103185760209181906001600160a01b03610571610b6f565b168152600a845220549051908152f35b5090346101d45760203660031901126101d45761059c610b6f565b6002546001600160a01b0391908216330361040557168352600a602052822090815490811580156105cb578480f35b6103f25750600019019055388080808480f35b505034610318578160031936011261031857905490516001600160a01b039091168152602090f35b50346101d45760203660031901126101d4577f171aabb8815c02fd00303450a77058600e3661eb75ce2e77972c0f080bc7099d903591610644610b8a565b6003548151908152836020820152a160035580f35b5090346101d457806003193601126101d457610673610b6f565b9060243591610680610b8a565b610688610cb2565b6001600160a01b03811693841561071c576006549081851161070e5750916107028480936106d97fbf2a3d4d8ec2feaa45dfd5779abcf977ed3565830ebb07bf7db66074d318252897602097610cd5565b6006557f0000000000000000000000000000000000000000000000000000000000000000610ce2565b51908152a26001805580f35b8351631e9acf1760e31b8152fd5b606490602084519162461bcd60e51b83528201526011602482015270125b9d985b1a59081c9958da5c1a595b9d607a1b6044820152fd5b5050346103185760203660031901126103185760209181906001600160a01b0361077b610b6f565b1681526005845220549051908152f35b83346107e557806003193601126107e5576107a4610b8a565b80546001600160a01b03198116825581906001600160a01b03167f8be0079c531659141344cd1fd0a4f28419497f9722a3daafe3b4186f6b6457e08280a380f35b80fd5b50346101d45760203660031901126101d45760209282913581526008845220549051908152f35b5091903461031857806003193601126103185761082a610b6f565b6024359367ffffffffffffffff9283861161089f573660238701121561089f578582013593841161089f57366024858801011161089f576002546001600160a01b03163303610892575050602461088b9394610884610cb2565b0190610d70565b6001805580f35b516374ec14c960e11b8152fd5b8480fd5b50346101d45760203660031901126101d4578035916108c0610b8a565b61138883116108fd577f2b60ba8fc3afb74a8e3e46b5f094e0578b708b8066fccfe8d038c7c2dfc15dae9082548151908152846020820152a15580f35b906020606492519162461bcd60e51b835282015260076024820152664d61782035302560c81b6044820152fd5b5050346103185781600319360112610318576020906003549051908152f35b5091346107e55760203660031901126107e5575061096960209235610d32565b9051908152f35b5090346101d45760209081600319360112610a7257823592610990610cb2565b33855260058352838286205410610a6457338552600a835281852054610a245750907f0f5bb82176feb1b5e747e28471aa92156a04d9f3ab9f45f28e2d704232b93f7591338552600582528085206109e9858254610cd5565b9055610a1684337f0000000000000000000000000000000000000000000000000000000000000000610ce2565b519283523392a26001805580f35b8280606493519262461bcd60e51b845283015260248201527f43616e6e6f7420756e7374616b6520647572696e6720616374697665206a6f626044820152fd5b9051631e9acf1760e31b8152fd5b8380fd5b5050346103185760203660031901126103185760209181906001600160a01b03610a9e610b6f565b16815260058452205460035411159051908152f35b50503461031857816003193601126103185760025490516001600160a01b039091168152602090f35b50346101d457816003193601126101d4573560243591610afa610cb2565b610b268330337f0000000000000000000000000000000000000000000000000000000000000000610bd9565b8184526007602052808420610b3c848254610bb6565b9055519182527fe3fbcc1ea1bdc559ec7f0347efde7655e58b5f45a30b0e4470a583c3ef5496b360203393a36001805580f35b600435906001600160a01b0382168203610b8557565b600080fd5b6000546001600160a01b03163303610b9e57565b60405163118cdaa760e01b8152336004820152602490fd5b91908201809211610bc357565b634e487b7160e01b600052601160045260246000fd5b6040516323b872dd60e01b60208201526001600160a01b03928316602482015292909116604483015260648083019390935291815260a081019181831067ffffffffffffffff841117610c3457610c3292604052610c4a565b565b634e487b7160e01b600052604160045260246000fd5b906000602091828151910182855af115610ca6576000513d610c9d57506001600160a01b0381163b155b610c7b5750565b604051635274afe760e01b81526001600160a01b039091166004820152602490fd5b60011415610c74565b6040513d6000823e3d90fd5b600260015414610cc3576002600155565b604051633ee5aeb560e01b8152600490fd5b91908203918211610bc357565b60405163a9059cbb60e01b60208201526001600160a01b039092166024830152604480830193909352918152608081019167ffffffffffffffff831182841017610c3457610c3292604052610c4a565b6000526008602052604060002054600760205260406000205480911015610d6a576008602052604060002054610d6791610cd5565b90565b50600090565b6001600160a01b0316600081815260056020526040812054919390918015610e375760045480820291820403610e2357916060916127107f7e947095ed288d8885423bdaef4015b7420ffa9b84d62ef67c402e8bc36a8ea995940491868152600560205260408120610de3848254610cd5565b9055610df183600654610bb6565b6006558160405195869485526040602086015281604086015285850137828201840152601f01601f19168101030190a2565b634e487b7160e01b83526011600452602483fd5b505050505056fea2646970667358221220c1c9a76441c1c4169c846787f6e31b4b3060c4ff9d12a326f438659a48c251f864736f6c63430008140033",
  "linkReferences": {},
  "deployedLinkReferences": {}
}