{
  "_format": "hh-sol-artifact-1",
  "contractName": "LuxToken",
  "sourceName": "src/templates/LuxToken.sol",
  "abi": [
    {
      "inputs": [
        {
          "internalType": "string",
          "name": "name",
          "type": "string"
        },
        {
          "internalType": "string",
          "name": "symbol",
          "type": "string"
        },
        {
          "internalType": "uint256",
          "name": "initialSupply",
          "type": "uint256"
        },
        {
          "internalType": "uint256",
          "name": "_maxSupply",
          "type": "uint256"
        }
      ],
      "stateMutability": "nonpayable",
      "type": "constructor"
    },
    {
      "inputs": [],
      "name": "ECDSAInvalidSignature",
      "type": "error"
    },
    {
      "inputs": [
        {
          "internalType": "uint256",
          "name": "length",
          "type": "uint256"
        }
      ],
      "name": "ECDSAInvalidSignatureLength",
      "type": "error"
    },
    {
      "inputs": [
        {
          "internalType": "bytes32",
          "name": "s",
          "type": "bytes32"
        }
      ],
      "name": "ECDSAInvalidSignatureS",
      "type": "error"
    },
    {
      "inputs": [
        {
          "internalType": "address",
          "name": "spender",
          "type": "address"
        },
        {
          "internalType": "uint256",
          "name": "allowance",
          "type": "uint256"
        },
        {
          "internalType": "uint256",
          "name": "needed",
          "type": "uint256"
        }
      ],
      "name": "ERC20InsufficientAllowance",
      "type": "error"
    },
    {
      "inputs": [
        {
          "internalType": "address",
          "name": "sender",
          "type": "address"
        },
        {
          "internalType": "uint256",
          "name": "balance",
          "type": "uint256"
        },
        {
          "internalType": "uint256",
          "name": "needed",
          "type": "uint256"
        }
      ],
      "name": "ERC20InsufficientBalance",
      "type": "error"
    },
    {
      "inputs": [
        {
          "internalType": "address",
          "name": "approver",
          "type": "address"
        }
      ],
      "name": "ERC20InvalidApprover",
      "type": "error"
    },
    {
      "inputs": [
        {
          "internalType": "address",
          "name": "receiver",
          "type": "address"
        }
      ],
      "name": "ERC20InvalidReceiver",
      "type": "error"
    },
    {
      "inputs": [
        {
          "internalType": "address",
          "name": "sender",
          "type": "address"
        }
      ],
      "name": "ERC20InvalidSender",
      "type": "error"
    },
    {
      "inputs": [
        {
          "internalType": "address",
          "name": "spender",
          "type": "address"
        }
      ],
      "name": "ERC20InvalidSpender",
      "type": "error"
    },
    {
      "inputs": [
        {
          "internalType": "uint256",
          "name": "deadline",
          "type": "uint256"
        }
      ],
      "name": "ERC2612ExpiredSignature",
      "type": "error"
    },
    {
      "inputs": [
        {
          "internalType": "address",
          "name": "signer",
          "type": "address"
        },
        {
          "internalType": "address",
          "name": "owner",
          "type": "address"
        }
      ],
      "name": "ERC2612InvalidSigner",
      "type": "error"
    },
    {
      "inputs": [
        {
          "internalType": "address",
          "name": "account",
          "type": "address"
        },
        {
          "internalType": "uint256",
          "name": "currentNonce",
          "type": "uint256"
        }
      ],
      "name": "InvalidAccountNonce",
      "type": "error"
    },
    {
      "inputs": [],
      "name": "InvalidShortString",
      "type": "error"
    },
    {
      "inputs": [
        {
          "internalType": "address",
          "name": "owner",
          "type": "address"
        }
      ],
      "name": "OwnableInvalidOwner",
      "type": "error"
    },
    {
      "inputs": [
        {
          "internalType": "address",
          "name": "account",
          "type": "address"
        }
      ],
      "name": "OwnableUnauthorizedAccount",
      "type": "error"
    },
    {
      "inputs": [
        {
          "internalType": "string",
          "name": "str",
          "type": "string"
        }
      ],
      "name": "StringTooLong",
      "type": "error"
    },
    {
      "anonymous": false,
      "inputs": [
        {
          "indexed": true,
          "internalType": "address",
          "name": "owner",
          "type": "address"
        },
        {
          "indexed": true,
          "internalType": "address",
          "name": "spender",
          "type": "address"
        },
        {
          "indexed": false,
          "internalType": "uint256",
          "name": "value",
          "type": "uint256"
        }
      ],
      "name": "Approval",
      "type": "event"
    },
    {
      "anonymous": false,
      "inputs": [],
      "name": "EIP712DomainChanged",
      "type": "event"
    },
    {
      "anonymous": false,
      "inputs": [],
      "name": "MintingDisabled",
      "type": "event"
    },
    {
      "anonymous": false,
      "inputs": [
        {
          "indexed": true,
          "internalType": "address",
          "name": "previousOwner",
          "type": "address"
        },
        {
          "indexed": true,
          "internalType": "address",
          "name": "newOwner",
          "type": "address"
        }
      ],
      "name": "OwnershipTransferred",
      "type": "event"
    },
    {
      "anonymous": false,
      "inputs": [
        {
          "indexed": true,
          "internalType": "address",
          "name": "to",
          "type": "address"
        },
        {
          "indexed": false,
          "internalType": "uint256",
          "name": "amount",
          "type": "uint256"
        }
      ],
      "name": "TokensMinted",
      "type": "event"
    },
    {
      "anonymous": false,
      "inputs": [
        {
          "indexed": true,
          "internalType": "address",
          "name": "from",
          "type": "address"
        },
        {
          "indexed": true,
          "internalType": "address",
          "name": "to",
          "type": "address"
        },
        {
          "indexed": false,
          "internalType": "uint256",
          "name": "value",
          "type": "uint256"
        }
      ],
      "name": "Transfer",
      "type": "event"
    },
    {
      "inputs": [],
      "name": "DOMAIN_SEPARATOR",
      "outputs": [
        {
          "internalType": "bytes32",
          "name": "",
          "type": "bytes32"
        }
      ],
      "stateMutability": "view",
      "type": "function"
    },
    {
      "inputs": [
        {
          "internalType": "address",
          "name": "owner",
          "type": "address"
        },
        {
          "internalType": "address",
          "name": "spender",
          "type": "address"
        }
      ],
      "name": "allowance",
      "outputs": [
        {
          "internalType": "uint256",
          "name": "",
          "type": "uint256"
        }
      ],
      "stateMutability": "view",
      "type": "function"
    },
    {
      "inputs": [
        {
          "internalType": "address",
          "name": "spender",
          "type": "address"
        },
        {
          "internalType": "uint256",
          "name": "value",
          "type": "uint256"
        }
      ],
      "name": "approve",
      "outputs": [
        {
          "internalType": "bool",
          "name": "",
          "type": "bool"
        }
      ],
      "stateMutability": "nonpayable",
      "type": "function"
    },
    {
      "inputs": [
        {
          "internalType": "address",
          "name": "account",
          "type": "address"
        }
      ],
      "name": "balanceOf",
      "outputs": [
        {
          "internalType": "uint256",
          "name": "",
          "type": "uint256"
        }
      ],
      "stateMutability": "view",
      "type": "function"
    },
    {
      "inputs": [
        {
          "internalType": "uint256",
          "name": "value",
          "type": "uint256"
        }
      ],
      "name": "burn",
      "outputs": [],
      "stateMutability": "nonpayable",
      "type": "function"
    },
    {
      "inputs": [
        {
          "internalType": "address",
          "name": "account",
          "type": "address"
        },
        {
          "internalType": "uint256",
          "name": "value",
          "type": "uint256"
        }
      ],
      "name": "burnFrom",
      "outputs": [],
      "stateMutability": "nonpayable",
      "type": "function"
    },
    {
      "inputs": [],
      "name": "decimals",
      "outputs": [
        {
          "internalType": "uint8",
          "name": "",
          "type": "uint8"
        }
      ],
      "stateMutability": "view",
      "type": "function"
    },
    {
      "inputs": [],
      "name": "disableMinting",
      "outputs": [],
      "stateMutability": "nonpayable",
      "type": "function"
    },
    {
      "inputs": [],
      "name": "eip712Domain",
      "outputs": [
        {
          "internalType": "bytes1",
          "name": "fields",
          "type": "bytes1"
        },
        {
          "internalType": "string",
          "name": "name",
          "type": "string"
        },
        {
          "internalType": "string",
          "name": "version",
          "type": "string"
        },
        {
          "internalType": "uint256",
          "name": "chainId",
          "type": "uint256"
        },
        {
          "internalType": "address",
          "name": "verifyingContract",
          "type": "address"
        },
        {
          "internalType": "bytes32",
          "name": "salt",
          "type": "bytes32"
        },
        {
          "internalType": "uint256[]",
          "name": "extensions",
          "type": "uint256[]"
        }
      ],
      "stateMutability": "view",
      "type": "function"
    },
    {
      "inputs": [],
      "name": "maxSupply",
      "outputs": [
        {
          "internalType": "uint256",
          "name": "",
          "type": "uint256"
        }
      ],
      "stateMutability": "view",
      "type": "function"
    },
    {
      "inputs": [
        {
          "internalType": "address",
          "name": "to",
          "type": "address"
        },
        {
          "internalType": "uint256",
          "name": "amount",
          "type": "uint256"
        }
      ],
      "name": "mint",
      "outputs": [],
      "stateMutability": "nonpayable",
      "type": "function"
    },
    {
      "inputs": [],
      "name": "mintingEnabled",
      "outputs": [
        {
          "internalType": "bool",
          "name": "",
          "type": "bool"
        }
      ],
      "stateMutability": "view",
      "type": "function"
    },
    {
      "inputs": [],
      "name": "name",
      "outputs": [
        {
          "internalType": "string",
          "name": "",
          "type": "string"
        }
      ],
      "stateMutability": "view",
      "type": "function"
    },
    {
      "inputs": [
        {
          "internalType": "address",
          "name": "owner",
          "type": "address"
        }
      ],
      "name": "nonces",
      "outputs": [
        {
          "internalType": "uint256",
          "name": "",
          "type": "uint256"
        }
      ],
      "stateMutability": "view",
      "type": "function"
    },
    {
      "inputs": [],
      "name": "owner",
      "outputs": [
        {
          "internalType": "address",
          "name": "",
          "type": "address"
        }
      ],
      "stateMutability": "view",
      "type": "function"
    },
    {
      "inputs": [
        {
          "internalType": "address",
          "name": "owner",
          "type": "address"
        },
        {
          "internalType": "address",
          "name": "spender",
          "type": "address"
        },
        {
          "internalType": "uint256",
          "name": "value",
          "type": "uint256"
        },
        {
          "internalType": "uint256",
          "name": "deadline",
          "type": "uint256"
        },
        {
          "internalType": "uint8",
          "name": "v",
          "type": "uint8"
        },
        {
          "internalType": "bytes32",
          "name": "r",
          "type": "bytes32"
        },
        {
          "internalType": "bytes32",
          "name": "s",
          "type": "bytes32"
        }
      ],
      "name": "permit",
      "outputs": [],
      "stateMutability": "nonpayable",
      "type": "function"
    },
    {
      "inputs": [],
      "name": "renounceOwnership",
      "outputs": [],
      "stateMutability": "nonpayable",
      "type": "function"
    },
    {
      "inputs": [],
      "name": "symbol",
      "outputs": [
        {
          "internalType": "string",
          "name": "",
          "type": "string"
        }
      ],
      "stateMutability": "view",
      "type": "function"
    },
    {
      "inputs": [
        {
          "internalType": "uint256",
          "name": "amount",
          "type": "uint256"
        }
      ],
      "name": "toTokenUnits",
      "outputs": [
        {
          "internalType": "uint256",
          "name": "",
          "type": "uint256"
        }
      ],
      "stateMutability": "view",
      "type": "function"
    },
    {
      "inputs": [],
      "name": "totalSupply",
      "outputs": [
        {
          "internalType": "uint256",
          "name": "",
          "type": "uint256"
        }
      ],
      "stateMutability": "view",
      "type": "function"
    },
    {
      "inputs": [
        {
          "internalType": "address",
          "name": "to",
          "type": "address"
        },
        {
          "internalType": "uint256",
          "name": "value",
          "type": "uint256"
        }
      ],
      "name": "transfer",
      "outputs": [
        {
          "internalType": "bool",
          "name": "",
          "type": "bool"
        }
      ],
      "stateMutability": "nonpayable",
      "type": "function"
    },
    {
      "inputs": [
        {
          "internalType": "address",
          "name": "from",
          "type": "address"
        },
        {
          "internalType": "address",
          "name": "to",
          "type": "address"
        },
        {
          "internalType": "uint256",
          "name": "value",
          "type": "uint256"
        }
      ],
      "name": "transferFrom",
      "outputs": [
        {
          "internalType": "bool",
          "name": "",
          "type": "bool"
        }
      ],
      "stateMutability": "nonpayable",
      "type": "function"
    },
    {
      "inputs": [
        {
          "internalType": "address",
          "name": "newOwner",
          "type": "address"
        }
      ],
      "name": "transferOwnership",
      "outputs": [],
      "stateMutability": "nonpayable",
      "type": "function"
    }
  ],
  "bytecode": "0x6101606040523480156200001257600080fd5b5060405162001cf838038062001cf8833981016040819052620000359162000506565b6040805180820190915260018152603160f81b60208201528490819033828760036200006283826200060f565b5060046200007182826200060f565b5050506001600160a01b038116620000a457604051631e4fbdf760e01b8152600060048201526024015b60405180910390fd5b620000af81620001fa565b50620000bd8260066200024c565b61012052620000ce8160076200024c565b61014052815160208084019190912060e052815190820120610100524660a0526200015c60e05161010051604080517f8b73c3c69bb8fe3d512ecc4cf759cc79239f7b179b0ffacaa9a75d522b39400f60208201529081019290925260608201524660808201523060a082015260009060c00160405160208183030381529060405280519060200120905090565b60805250503060c05250801580620001745750808211155b620001b25760405162461bcd60e51b815260206004820152600d60248201526c092dcd2e8d2c2d8407c40dac2f609b1b60448201526064016200009b565b6009819055600a805460ff191660011790558115620001f057620001f033620001de6012600a620007ee565b620001ea908562000806565b62000285565b5050505062000890565b600580546001600160a01b038381166001600160a01b0319831681179093556040519116919082907f8be0079c531659141344cd1fd0a4f28419497f9722a3daafe3b4186f6b6457e090600090a35050565b60006020835110156200026c576200026483620002c3565b90506200027f565b816200027984826200060f565b5060ff90505b92915050565b6001600160a01b038216620002b15760405163ec442f0560e01b8152600060048201526024016200009b565b620002bf6000838362000306565b5050565b600080829050601f81511115620002f1578260405163305a27a960e01b81526004016200009b919062000820565b8051620002fe8262000855565b179392505050565b6001600160a01b038316620003355780600260008282546200032991906200087a565b90915550620003a99050565b6001600160a01b038316600090815260208190526040902054818110156200038a5760405163391434e360e21b81526001600160a01b038516600482015260248101829052604481018390526064016200009b565b6001600160a01b03841660009081526020819052604090209082900390555b6001600160a01b038216620003c757600280548290039055620003e6565b6001600160a01b03821660009081526020819052604090208054820190555b816001600160a01b0316836001600160a01b03167fddf252ad1be2c89b69c2b068fc378daa952ba7f163c4a11628f55a4df523b3ef836040516200042c91815260200190565b60405180910390a3505050565b634e487b7160e01b600052604160045260246000fd5b60005b838110156200046c57818101518382015260200162000452565b50506000910152565b600082601f8301126200048757600080fd5b81516001600160401b0380821115620004a457620004a462000439565b604051601f8301601f19908116603f01168101908282118183101715620004cf57620004cf62000439565b81604052838152866020858801011115620004e957600080fd5b620004fc8460208301602089016200044f565b9695505050505050565b600080600080608085870312156200051d57600080fd5b84516001600160401b03808211156200053557600080fd5b620005438883890162000475565b955060208701519150808211156200055a57600080fd5b50620005698782880162000475565b604087015160609097015195989097509350505050565b600181811c908216806200059557607f821691505b602082108103620005b657634e487b7160e01b600052602260045260246000fd5b50919050565b601f8211156200060a57600081815260208120601f850160051c81016020861015620005e55750805b601f850160051c820191505b818110156200060657828155600101620005f1565b5050505b505050565b81516001600160401b038111156200062b576200062b62000439565b62000643816200063c845462000580565b84620005bc565b602080601f8311600181146200067b5760008415620006625750858301515b600019600386901b1c1916600185901b17855562000606565b600085815260208120601f198616915b82811015620006ac578886015182559484019460019091019084016200068b565b5085821015620006cb5787850151600019600388901b60f8161c191681555b5050505050600190811b01905550565b634e487b7160e01b600052601160045260246000fd5b600181815b8085111562000732578160001904821115620007165762000716620006db565b808516156200072457918102915b93841c9390800290620006f6565b509250929050565b6000826200074b575060016200027f565b816200075a575060006200027f565b81600181146200077357600281146200077e576200079e565b60019150506200027f565b60ff841115620007925762000792620006db565b50506001821b6200027f565b5060208310610133831016604e8410600b8410161715620007c3575081810a6200027f565b620007cf8383620006f1565b8060001904821115620007e657620007e6620006db565b029392505050565b6000620007ff60ff8416836200073a565b9392505050565b80820281158282048414176200027f576200027f620006db565b6020815260008251806020840152620008418160408501602087016200044f565b601f01601f19169190910160400192915050565b80516020808301519190811015620005b65760001960209190910360031b1b16919050565b808201808211156200027f576200027f620006db565b60805160a05160c05160e05161010051610120516101405161140d620008eb6000396000610ae801526000610abb0152600061097801526000610950015260006108ab015260006108d5015260006108ff015261140d6000f3fe608060405234801561001057600080fd5b506004361061014d5760003560e01c80637e5cd5c1116100c3578063a9059cbb1161007c578063a9059cbb146102a1578063c2a755f4146102b4578063d505accf146102c7578063d5abeb01146102da578063dd62ed3e146102e3578063f2fde38b1461031c57600080fd5b80637e5cd5c11461023b5780637ecebe001461024357806384b0196e146102565780638da5cb5b1461027157806395d89b411461028c5780639fd6db121461029457600080fd5b80633644e515116101155780633644e515146101c757806340c10f19146101cf57806342966c68146101e457806370a08231146101f7578063715018a61461022057806379cc67901461022857600080fd5b806306fdde0314610152578063095ea7b31461017057806318160ddd1461019357806323b872dd146101a5578063313ce567146101b8575b600080fd5b61015a61032f565b6040516101679190611048565b60405180910390f35b61018361017e36600461107e565b6103c1565b6040519015158152602001610167565b6002545b604051908152602001610167565b6101836101b33660046110a8565b6103db565b60405160128152602001610167565b6101976103ff565b6101e26101dd36600461107e565b61040e565b005b6101e26101f23660046110e4565b610529565b6101976102053660046110fd565b6001600160a01b031660009081526020819052604090205490565b6101e2610536565b6101e261023636600461107e565b61054a565b6101e2610563565b6101976102513660046110fd565b6105a0565b61025e6105be565b6040516101679796959493929190611118565b6005546040516001600160a01b039091168152602001610167565b61015a610604565b600a546101839060ff1681565b6101836102af36600461107e565b610613565b6101976102c23660046110e4565b610621565b6101e26102d53660046111ae565b610639565b61019760095481565b6101976102f1366004611221565b6001600160a01b03918216600090815260016020908152604080832093909416825291909152205490565b6101e261032a3660046110fd565b610773565b60606003805461033e90611254565b80601f016020809104026020016040519081016040528092919081815260200182805461036a90611254565b80156103b75780601f1061038c576101008083540402835291602001916103b7565b820191906000526020600020905b81548152906001019060200180831161039a57829003601f168201915b5050505050905090565b6000336103cf8185856107ae565b60019150505b92915050565b6000336103e98582856107c0565b6103f485858561083f565b506001949350505050565b600061040961089e565b905090565b6104166109c9565b600a5460ff166104605760405162461bcd60e51b815260206004820152601060248201526f135a5b9d1a5b99c8191a5cd8589b195960821b60448201526064015b60405180910390fd5b600954156104d8576104746012600a611388565b6009546104819190611397565b8161048b60025490565b61049591906113ae565b11156104d85760405162461bcd60e51b815260206004820152601260248201527145786365656473206d617820737570706c7960701b6044820152606401610457565b6104e282826109f6565b816001600160a01b03167f3f2c9d57c068687834f0de942a9babb9e5acab57d516d3480a3c16ee165a42738260405161051d91815260200190565b60405180910390a25050565b6105333382610a2c565b50565b61053e6109c9565b6105486000610a62565b565b6105558233836107c0565b61055f8282610a2c565b5050565b61056b6109c9565b600a805460ff191690556040517faf79b4370f6af9d950564bbe6b81f7f0834c003c455db9248f4e55e6bf865eb790600090a1565b6001600160a01b0381166000908152600860205260408120546103d5565b6000606080600080600060606105d2610ab4565b6105da610ae1565b60408051600080825260208201909252600f60f81b9b939a50919850469750309650945092509050565b60606004805461033e90611254565b6000336103cf81858561083f565b600061062f6012600a611388565b6103d59083611397565b8342111561065d5760405163313c898160e11b815260048101859052602401610457565b60007f6e71edae12b1b97f4d1f60370fef10105fa2faae0126114a169c64845d6126c98888886106aa8c6001600160a01b0316600090815260086020526040902080546001810190915590565b6040805160208101969096526001600160a01b0394851690860152929091166060840152608083015260a082015260c0810186905260e001604051602081830303815290604052805190602001209050600061070582610b0e565b9050600061071582878787610b3b565b9050896001600160a01b0316816001600160a01b03161461075c576040516325c0072360e11b81526001600160a01b0380831660048301528b166024820152604401610457565b6107678a8a8a6107ae565b50505050505050505050565b61077b6109c9565b6001600160a01b0381166107a557604051631e4fbdf760e01b815260006004820152602401610457565b61053381610a62565b6107bb8383836001610b69565b505050565b6001600160a01b03838116600090815260016020908152604080832093861683529290522054600019811015610839578181101561082a57604051637dc7a0d960e11b81526001600160a01b03841660048201526024810182905260448101839052606401610457565b61083984848484036000610b69565b50505050565b6001600160a01b03831661086957604051634b637e8f60e11b815260006004820152602401610457565b6001600160a01b0382166108935760405163ec442f0560e01b815260006004820152602401610457565b6107bb838383610c3e565b6000306001600160a01b037f0000000000000000000000000000000000000000000000000000000000000000161480156108f757507f000000000000000000000000000000000000000000000000000000000000000046145b1561092157507f000000000000000000000000000000000000000000000000000000000000000090565b610409604080517f8b73c3c69bb8fe3d512ecc4cf759cc79239f7b179b0ffacaa9a75d522b39400f60208201527f0000000000000000000000000000000000000000000000000000000000000000918101919091527f000000000000000000000000000000000000000000000000000000000000000060608201524660808201523060a082015260009060c00160405160208183030381529060405280519060200120905090565b6005546001600160a01b031633146105485760405163118cdaa760e01b8152336004820152602401610457565b6001600160a01b038216610a205760405163ec442f0560e01b815260006004820152602401610457565b61055f60008383610c3e565b6001600160a01b038216610a5657604051634b637e8f60e11b815260006004820152602401610457565b61055f82600083610c3e565b600580546001600160a01b038381166001600160a01b0319831681179093556040519116919082907f8be0079c531659141344cd1fd0a4f28419497f9722a3daafe3b4186f6b6457e090600090a35050565b60606104097f00000000000000000000000000000000000000000000000000000000000000006006610d68565b60606104097f00000000000000000000000000000000000000000000000000000000000000006007610d68565b60006103d5610b1b61089e565b8360405161190160f01b8152600281019290925260228201526042902090565b600080600080610b4d88888888610e13565b925092509250610b5d8282610ee2565b50909695505050505050565b6001600160a01b038416610b935760405163e602df0560e01b815260006004820152602401610457565b6001600160a01b038316610bbd57604051634a1406b160e11b815260006004820152602401610457565b6001600160a01b038085166000908152600160209081526040808320938716835292905220829055801561083957826001600160a01b0316846001600160a01b03167f8c5be1e5ebec7d5bd14f71427d1e84f3dd0314c0f7b2291e5b200ac8c7c3b92584604051610c3091815260200190565b60405180910390a350505050565b6001600160a01b038316610c69578060026000828254610c5e91906113ae565b90915550610cdb9050565b6001600160a01b03831660009081526020819052604090205481811015610cbc5760405163391434e360e21b81526001600160a01b03851660048201526024810182905260448101839052606401610457565b6001600160a01b03841660009081526020819052604090209082900390555b6001600160a01b038216610cf757600280548290039055610d16565b6001600160a01b03821660009081526020819052604090208054820190555b816001600160a01b0316836001600160a01b03167fddf252ad1be2c89b69c2b068fc378daa952ba7f163c4a11628f55a4df523b3ef83604051610d5b91815260200190565b60405180910390a3505050565b606060ff8314610d8257610d7b83610f9b565b90506103d5565b818054610d8e90611254565b80601f0160208091040260200160405190810160405280929190818152602001828054610dba90611254565b8015610e075780601f10610ddc57610100808354040283529160200191610e07565b820191906000526020600020905b815481529060010190602001808311610dea57829003601f168201915b505050505090506103d5565b600080807f7fffffffffffffffffffffffffffffff5d576e7357a4501ddfe92f46681b20a0841115610e4e5750600091506003905082610ed8565b604080516000808252602082018084528a905260ff891692820192909252606081018790526080810186905260019060a0016020604051602081039080840390855afa158015610ea2573d6000803e3d6000fd5b5050604051601f1901519150506001600160a01b038116610ece57506000925060019150829050610ed8565b9250600091508190505b9450945094915050565b6000826003811115610ef657610ef66113c1565b03610eff575050565b6001826003811115610f1357610f136113c1565b03610f315760405163f645eedf60e01b815260040160405180910390fd5b6002826003811115610f4557610f456113c1565b03610f665760405163fce698f760e01b815260048101829052602401610457565b6003826003811115610f7a57610f7a6113c1565b0361055f576040516335e2f38360e21b815260048101829052602401610457565b60606000610fa883610fda565b604080516020808252818301909252919250600091906020820181803683375050509182525060208101929092525090565b600060ff8216601f8111156103d557604051632cd44ac360e21b815260040160405180910390fd5b6000815180845260005b818110156110285760208185018101518683018201520161100c565b506000602082860101526020601f19601f83011685010191505092915050565b60208152600061105b6020830184611002565b9392505050565b80356001600160a01b038116811461107957600080fd5b919050565b6000806040838503121561109157600080fd5b61109a83611062565b946020939093013593505050565b6000806000606084860312156110bd57600080fd5b6110c684611062565b92506110d460208501611062565b9150604084013590509250925092565b6000602082840312156110f657600080fd5b5035919050565b60006020828403121561110f57600080fd5b61105b82611062565b60ff60f81b881681526000602060e08184015261113860e084018a611002565b838103604085015261114a818a611002565b606085018990526001600160a01b038816608086015260a0850187905284810360c0860152855180825283870192509083019060005b8181101561119c57835183529284019291840191600101611180565b50909c9b505050505050505050505050565b600080600080600080600060e0888a0312156111c957600080fd5b6111d288611062565b96506111e060208901611062565b95506040880135945060608801359350608088013560ff8116811461120457600080fd5b9699959850939692959460a0840135945060c09093013592915050565b6000806040838503121561123457600080fd5b61123d83611062565b915061124b60208401611062565b90509250929050565b600181811c9082168061126857607f821691505b60208210810361128857634e487b7160e01b600052602260045260246000fd5b50919050565b634e487b7160e01b600052601160045260246000fd5b600181815b808511156112df5781600019048211156112c5576112c561128e565b808516156112d257918102915b93841c93908002906112a9565b509250929050565b6000826112f6575060016103d5565b81611303575060006103d5565b816001811461131957600281146113235761133f565b60019150506103d5565b60ff8411156113345761133461128e565b50506001821b6103d5565b5060208310610133831016604e8410600b8410161715611362575081810a6103d5565b61136c83836112a4565b80600019048211156113805761138061128e565b029392505050565b600061105b60ff8416836112e7565b80820281158282048414176103d5576103d561128e565b808201808211156103d5576103d561128e565b634e487b7160e01b600052602160045260246000fdfea264697066735822122002ee18466a2a14127eddf6ed6e1b5cb88706430c44e7a810c585d8cde7eff30064736f6c63430008140033",
  "linkReferences": {},
  "deployedLinkReferences": {}
}