{
  "_format": "hh-sol-artifact-1",
  "contractName": "LuxToken",
  "sourceName": "src/templates/LuxToken.sol",
  "abi": [
    {
      "inputs": [
        {
          "internalType": "string",
          "name": "name",
          "type": "string"
        },
        {
          "internalType": "string",
          "name": "symbol",
          "type": "string"
        },
        {
          "internalType": "uint256",
          "name": "initialSupply",
          "type": "uint256"
        },
        {
          "internalType": "uint256",
          "name": "_maxSupply",
          "type": "uint256"
        }
      ],
      "stateMutability": "nonpayable",
      "type": "constructor"
    },
    {
      "inputs": [],
      "name": "ECDSAInvalidSignature",
      "type": "error"
    },
    {
      "inputs": [
        {
          "internalType": "uint256",
          "name": "length",
          "type": "uint256"
        }
      ],
      "name": "ECDSAInvalidSignatureLength",
      "type": "error"
    },
    {
      "inputs": [
        {
          "internalType": "bytes32",
          "name": "s",
          "type": "bytes32"
        }
      ],
      "name": "ECDSAInvalidSignatureS",
      "type": "error"
    },
    {
      "inputs": [
        {
          "internalType": "address",
          "name": "spender",
          "type": "address"
        },
        {
          "internalType": "uint256",
          "name": "allowance",
          "type": "uint256"
        },
        {
          "internalType": "uint256",
          "name": "needed",
          "type": "uint256"
        }
      ],
      "name": "ERC20InsufficientAllowance",
      "type": "error"
    },
    {
      "inputs": [
        {
          "internalType": "address",
          "name": "sender",
          "type": "address"
        },
        {
          "internalType": "uint256",
          "name": "balance",
          "type": "uint256"
        },
        {
          "internalType": "uint256",
          "name": "needed",
          "type": "uint256"
        }
      ],
      "name": "ERC20InsufficientBalance",
      "type": "error"
    },
    {
      "inputs": [
        {
          "internalType": "address",
          "name": "approver",
          "type": "address"
        }
      ],
      "name": "ERC20InvalidApprover",
      "type": "error"
    },
    {
      "inputs": [
        {
          "internalType": "address",
          "name": "receiver",
          "type": "address"
        }
      ],
      "name": "ERC20InvalidReceiver",
      "type": "error"
    },
    {
      "inputs": [
        {
          "internalType": "address",
          "name": "sender",
          "type": "address"
        }
      ],
      "name": "ERC20InvalidSender",
      "type": "error"
    },
    {
      "inputs": [
        {
          "internalType": "address",
          "name": "spender",
          "type": "address"
        }
      ],
      "name": "ERC20InvalidSpender",
      "type": "error"
    },
    {
      "inputs": [
        {
          "internalType": "uint256",
          "name": "deadline",
          "type": "uint256"
        }
      ],
      "name": "ERC2612ExpiredSignature",
      "type": "error"
    },
    {
      "inputs": [
        {
          "internalType": "address",
          "name": "signer",
          "type": "address"
        },
        {
          "internalType": "address",
          "name": "owner",
          "type": "address"
        }
      ],
      "name": "ERC2612InvalidSigner",
      "type": "error"
    },
    {
      "inputs": [
        {
          "internalType": "address",
          "name": "account",
          "type": "address"
        },
        {
          "internalType": "uint256",
          "name": "currentNonce",
          "type": "uint256"
        }
      ],
      "name": "InvalidAccountNonce",
      "type": "error"
    },
    {
      "inputs": [],
      "name": "InvalidShortString",
      "type": "error"
    },
    {
      "inputs": [
        {
          "internalType": "address",
          "name": "owner",
          "type": "address"
        }
      ],
      "name": "OwnableInvalidOwner",
      "type": "error"
    },
    {
      "inputs": [
        {
          "internalType": "address",
          "name": "account",
          "type": "address"
        }
      ],
      "name": "OwnableUnauthorizedAccount",
      "type": "error"
    },
    {
      "inputs": [
        {
          "internalType": "string",
          "name": "str",
          "type": "string"
        }
      ],
      "name": "StringTooLong",
      "type": "error"
    },
    {
      "anonymous": false,
      "inputs": [
        {
          "indexed": true,
          "internalType": "address",
          "name": "owner",
          "type": "address"
        },
        {
          "indexed": true,
          "internalType": "address",
          "name": "spender",
          "type": "address"
        },
        {
          "indexed": false,
          "internalType": "uint256",
          "name": "value",
          "type": "uint256"
        }
      ],
      "name": "Approval",
      "type": "event"
    },
    {
      "anonymous": false,
      "inputs": [],
      "name": "EIP712DomainChanged",
      "type": "event"
    },
    {
      "anonymous": false,
      "inputs": [],
      "name": "MintingDisabled",
      "type": "event"
    },
    {
      "anonymous": false,
      "inputs": [
        {
          "indexed": true,
          "internalType": "address",
          "name": "previousOwner",
          "type": "address"
        },
        {
          "indexed": true,
          "internalType": "address",
          "name": "newOwner",
          "type": "address"
        }
      ],
      "name": "OwnershipTransferred",
      "type": "event"
    },
    {
      "anonymous": false,
      "inputs": [
        {
          "indexed": true,
          "internalType": "address",
          "name": "to",
          "type": "address"
        },
        {
          "indexed": false,
          "internalType": "uint256",
          "name": "amount",
          "type": "uint256"
        }
      ],
      "name": "TokensMinted",
      "type": "event"
    },
    {
      "anonymous": false,
      "inputs": [
        {
          "indexed": true,
          "internalType": "address",
          "name": "from",
          "type": "address"
        },
        {
          "indexed": true,
          "internalType": "address",
          "name": "to",
          "type": "address"
        },
        {
          "indexed": false,
          "internalType": "uint256",
          "name": "value",
          "type": "uint256"
        }
      ],
      "name": "Transfer",
      "type": "event"
    },
    {
      "inputs": [],
      "name": "DOMAIN_SEPARATOR",
      "outputs": [
        {
          "internalType": "bytes32",
          "name": "",
          "type": "bytes32"
        }
      ],
      "stateMutability": "view",
      "type": "function"
    },
    {
      "inputs": [
        {
          "internalType": "address",
          "name": "owner",
          "type": "address"
        },
        {
          "internalType": "address",
          "name": "spender",
          "type": "address"
        }
      ],
      "name": "allowance",
      "outputs": [
        {
          "internalType": "uint256",
          "name": "",
          "type": "uint256"
        }
      ],
      "stateMutability": "view",
      "type": "function"
    },
    {
      "inputs": [
        {
          "internalType": "address",
          "name": "spender",
          "type": "address"
        },
        {
          "internalType": "uint256",
          "name": "value",
          "type": "uint256"
        }
      ],
      "name": "approve",
      "outputs": [
        {
          "internalType": "bool",
          "name": "",
          "type": "bool"
        }
      ],
      "stateMutability": "nonpayable",
      "type": "function"
    },
    {
      "inputs": [
        {
          "internalType": "address",
          "name": "account",
          "type": "address"
        }
      ],
      "name": "balanceOf",
      "outputs": [
        {
          "internalType": "uint256",
          "name": "",
          "type": "uint256"
        }
      ],
      "stateMutability": "view",
      "type": "function"
    },
    {
      "inputs": [
        {
          "internalType": "uint256",
          "name": "value",
          "type": "uint256"
        }
      ],
      "name": "burn",
      "outputs": [],
      "stateMutability": "nonpayable",
      "type": "function"
    },
    {
      "inputs": [
        {
          "internalType": "address",
          "name": "account",
          "type": "address"
        },
        {
          "internalType": "uint256",
          "name": "value",
          "type": "uint256"
        }
      ],
      "name": "burnFrom",
      "outputs": [],
      "stateMutability": "nonpayable",
      "type": "function"
    },
    {
      "inputs": [],
      "name": "decimals",
      "outputs": [
        {
          "internalType": "uint8",
          "name": "",
          "type": "uint8"
        }
      ],
      "stateMutability": "view",
      "type": "function"
    },
    {
      "inputs": [],
      "name": "disableMinting",
      "outputs": [],
      "stateMutability": "nonpayable",
      "type": "function"
    },
    {
      "inputs": [],
      "name": "eip712Domain",
      "outputs": [
        {
          "internalType": "bytes1",
          "name": "fields",
          "type": "bytes1"
        },
        {
          "internalType": "string",
          "name": "name",
          "type": "string"
        },
        {
          "internalType": "string",
          "name": "version",
          "type": "string"
        },
        {
          "internalType": "uint256",
          "name": "chainId",
          "type": "uint256"
        },
        {
          "internalType": "address",
          "name": "verifyingContract",
          "type": "address"
        },
        {
          "internalType": "bytes32",
          "name": "salt",
          "type": "bytes32"
        },
        {
          "internalType": "uint256[]",
          "name": "extensions",
          "type": "uint256[]"
        }
      ],
      "stateMutability": "view",
      "type": "function"
    },
    {
      "inputs": [],
      "name": "maxSupply",
      "outputs": [
        {
          "internalType": "uint256",
          "name": "",
          "type": "uint256"
        }
      ],
      "stateMutability": "view",
      "type": "function"
    },
    {
      "inputs": [
        {
          "internalType": "address",
          "name": "to",
          "type": "address"
        },
        {
          "internalType": "uint256",
          "name": "amount",
          "type": "uint256"
        }
      ],
      "name": "mint",
      "outputs": [],
      "stateMutability": "nonpayable",
      "type": "function"
    },
    {
      "inputs": [],
      "name": "mintingEnabled",
      "outputs": [
        {
          "internalType": "bool",
          "name": "",
          "type": "bool"
        }
      ],
      "stateMutability": "view",
      "type": "function"
    },
    {
      "inputs": [],
      "name": "name",
      "outputs": [
        {
          "internalType": "string",
          "name": "",
          "type": "string"
        }
      ],
      "stateMutability": "view",
      "type": "function"
    },
    {
      "inputs": [
        {
          "internalType": "address",
          "name": "owner",
          "type": "address"
        }
      ],
      "name": "nonces",
      "outputs": [
        {
          "internalType": "uint256",
          "name": "",
          "type": "uint256"
        }
      ],
      "stateMutability": "view",
      "type": "function"
    },
    {
      "inputs": [],
      "name": "owner",
      "outputs": [
        {
          "internalType": "address",
          "name": "",
          "type": "address"
        }
      ],
      "stateMutability": "view",
      "type": "function"
    },
    {
      "inputs": [
        {
          "internalType": "address",
          "name": "owner",
          "type": "address"
        },
        {
          "internalType": "address",
          "name": "spender",
          "type": "address"
        },
        {
          "internalType": "uint256",
          "name": "value",
          "type": "uint256"
        },
        {
          "internalType": "uint256",
          "name": "deadline",
          "type": "uint256"
        },
        {
          "internalType": "uint8",
          "name": "v",
          "type": "uint8"
        },
        {
          "internalType": "bytes32",
          "name": "r",
          "type": "bytes32"
        },
        {
          "internalType": "bytes32",
          "name": "s",
          "type": "bytes32"
        }
      ],
      "name": "permit",
      "outputs": [],
      "stateMutability": "nonpayable",
      "type": "function"
    },
    {
      "inputs": [],
      "name": "renounceOwnership",
      "outputs": [],
      "stateMutability": "nonpayable",
      "type": "function"
    },
    {
      "inputs": [],
      "name": "symbol",
      "outputs": [
        {
          "internalType": "string",
          "name": "",
          "type": "string"
        }
      ],
      "stateMutability": "view",
      "type": "function"
    },
    {
      "inputs": [
        {
          "internalType": "uint256",
          "name": "amount",
          "type": "uint256"
        }
      ],
      "name": "toTokenUnits",
      "outputs": [
        {
          "internalType": "uint256",
          "name": "",
          "type": "uint256"
        }
      ],
      "stateMutability": "view",
      "type": "function"
    },
    {
      "inputs": [],
      "name": "totalSupply",
      "outputs": [
        {
          "internalType": "uint256",
          "name": "",
          "type": "uint256"
        }
      ],
      "stateMutability": "view",
      "type": "function"
    },
    {
      "inputs": [
        {
          "internalType": "address",
          "name": "to",
          "type": "address"
        },
        {
          "internalType": "uint256",
          "name": "value",
          "type": "uint256"
        }
      ],
      "name": "transfer",
      "outputs": [
        {
          "internalType": "bool",
          "name": "",
          "type": "bool"
        }
      ],
      "stateMutability": "nonpayable",
      "type": "function"
    },
    {
      "inputs": [
        {
          "internalType": "address",
          "name": "from",
          "type": "address"
        },
        {
          "internalType": "address",
          "name": "to",
          "type": "address"
        },
        {
          "internalType": "uint256",
          "name": "value",
          "type": "uint256"
        }
      ],
      "name": "transferFrom",
      "outputs": [
        {
          "internalType": "bool",
          "name": "",
          "type": "bool"
        }
      ],
      "stateMutability": "nonpayable",
      "type": "function"
    },
    {
      "inputs": [
        {
          "internalType": "address",
          "name": "newOwner",
          "type": "address"
        }
      ],
      "name": "transferOwnership",
      "outputs": [],
      "stateMutability": "nonpayable",
      "type": "function"
    }
  ],
  "bytecode": "0x610160604081815234620005de5762001cb88038038091620000228286620005e3565b8439820191608081840312620005de5780516001600160401b039290838111620005de5784620000549184016200062c565b916020948582015190858211620005de57620000729183016200062c565b946060838301519201519583519684880188811088821117620004dd57855260019081895283890197603160f81b89528751818111620004dd5760038054918583811c93168015620005d3575b88841014620005bd57601f9283811162000572575b508088848211600114620004ff57600091620004f3575b5060001982841b1c191690861b1781555b855191838311620004dd5760049687548781811c91168015620004d2575b8a821014620004bd57908183869594931162000463575b5089918411600114620003f857600093620003ec575b505082861b92600019911b1c19161784555b3315620003d55760058054336001600160a01b0319821681179092556001600160a01b03167f8be0079c531659141344cd1fd0a4f28419497f9722a3daafe3b4186f6b6457e0600080a3620001ae8862000687565b98610120998a52620001c08b6200082f565b98610140998a528681519101209a8b60e052519020906101009a828c524660a052885192878401917f8b73c3c69bb8fe3d512ecc4cf759cc79239f7b179b0ffacaa9a75d522b39400f83528a85015260608401524660808401523060a084015260a0835260c083019183831090831117620003c057818952825190206080523060c052821590819282159283620003b5575b1562000383575050156200037657670de0b6b3a764000080830292830414171562000361576009555b60ff19600a541617600a5582158015620002dc575b505050505191611331938462000987853960805184611053015260a0518461111f015260c0518461101d015260e051846110a2015251836110c8015251826105520152518161057c0152f35b670de0b6b3a76400008085029485041417156200034c57600254908382018092116200034c57506000917fddf252ad1be2c89b69c2b068fc378daa952ba7f163c4a11628f55a4df523b3ef9160025533835282815284832084815401905584519384523393a33880808062000290565b601190634e487b7160e01b6000525260246000fd5b601183634e487b7160e01b6000525260246000fd5b505060006009556200027b565b906c092dcd2e8d2c2d8407c40dac2f609b1b6101046064938a62461bcd60e51b855260c4820152600d60e48201520152fd5b508489111562000252565b604186634e487b7160e01b6000525260246000fd5b8651631e4fbdf760e01b8152600081860152602490fd5b01519150388062000147565b9190879450601f19841692896000528a6000209360005b8c8282106200044c575050851162000431575b50505050811b01845562000159565b01519060f884600019921b161c191690553880808062000422565b8385015187558b989096019593840193016200040f565b909192935088600052896000208380870160051c8201928c8810620004b3575b918a918897969594930160051c01915b828110620004a357505062000131565b600081558796508a910162000493565b9250819262000483565b602289634e487b7160e01b6000525260246000fd5b90607f16906200011a565b634e487b7160e01b600052604160045260246000fd5b90508b015138620000eb565b8792508c90601f198316856000528b600020928c6000915b8383106200055057505050831162000537575b5050811b018155620000fc565b8d015160001983861b60f8161c1916905538806200052a565b948482949597989293960151815501940192019089949392918f8d9062000517565b82600052886000208480840160051c8201928b8510620005b3575b0160051c019087905b828110620005a6575050620000d4565b6000815501879062000596565b925081926200058d565b634e487b7160e01b600052602260045260246000fd5b92607f1692620000bf565b600080fd5b601f909101601f19168101906001600160401b03821190821017620004dd57604052565b60005b8381106200061b5750506000910152565b81810151838201526020016200060a565b81601f82011215620005de5780516001600160401b038111620004dd576040519262000663601f8301601f191660200185620005e3565b81845260208284010111620005de5762000684916020808501910162000607565b90565b805160209081811015620007055750601f825111620006c35780825192015190808310620006b457501790565b82600019910360031b1b161790565b604490620006f79260405193849263305a27a960e01b84528060048501528251928391826024870152868601910162000607565b601f01601f19168101030190fd5b906001600160401b038211620004dd57600654926001938481811c9116801562000824575b83821014620005bd57601f8111620007ea575b5081601f84116001146200077e575092829391839260009462000772575b50501b916000199060031b1c19161760065560ff90565b0151925038806200075b565b919083601f198116600660005284600020946000905b88838310620007cf5750505010620007b5575b505050811b0160065560ff90565b015160001960f88460031b161c19169055388080620007a7565b85870151885590960195948501948793509081019062000794565b600660005284601f84600020920160051c820191601f860160051c015b828110620008175750506200073d565b6000815501859062000807565b90607f16906200072a565b8051602090818110156200085c5750601f825111620006c35780825192015190808310620006b457501790565b906001600160401b038211620004dd57600754926001938481811c911680156200097b575b83821014620005bd57601f811162000941575b5081601f8411600114620008d55750928293918392600094620008c9575b50501b916000199060031b1c19161760075560ff90565b015192503880620008b2565b919083601f198116600760005284600020946000905b888383106200092657505050106200090c575b505050811b0160075560ff90565b015160001960f88460031b161c19169055388080620008fe565b858701518855909601959485019487935090810190620008eb565b600760005284601f84600020920160051c820191601f860160051c015b8281106200096e57505062000894565b600081550185906200095e565b90607f16906200088156fe6080604081815260048036101561001557600080fd5b600092833560e01c90816306fdde0314610a0357508063095ea7b3146109d957806318160ddd146109ba57806323b872dd1461097d578063313ce567146109615780633644e5151461093d57806340c10f19146107bf57806342966c68146107a157806370a082311461076a578063715018a61461070d57806379cc6790146106dd5780637e5cd5c1146106905780637ecebe001461065857806384b0196e1461053b5780638da5cb5b1461051257806395d89b41146104285780639fd6db1214610404578063a9059cbb146103d3578063c2a755f414610386578063d505accf1461021e578063d5abeb01146101ff578063dd62ed3e146101b25763f2fde38b1461012057600080fd5b346101ae5760203660031901126101ae57610139610b14565b90610142610b45565b6001600160a01b03918216928315610198575050600554826bffffffffffffffffffffffff60a01b821617600555167f8be0079c531659141344cd1fd0a4f28419497f9722a3daafe3b4186f6b6457e08380a380f35b51631e4fbdf760e01b8152908101849052602490fd5b8280fd5b5050346101fb57806003193601126101fb57806020926101d0610b14565b6101d8610b2f565b6001600160a01b0391821683526001865283832091168252845220549051908152f35b5080fd5b5050346101fb57816003193601126101fb576020906009549051908152f35b508290346101fb5760e03660031901126101fb5761023a610b14565b610242610b2f565b906044359260643560843560ff811681036103825781421161036b5760018060a01b0390818516928389526008602052898920908154916001830190558a519060208201927f6e71edae12b1b97f4d1f60370fef10105fa2faae0126114a169c64845d6126c98452868d840152858a1660608401528a608084015260a083015260c082015260c0815260e0810181811067ffffffffffffffff821117610358578b525190206103269161031d916102f761101a565b908c519161190160f01b83526002830152602282015260c43591604260a4359220610f05565b90929192610f95565b1681810361033d578661033a878787610d00565b80f35b87516325c0072360e11b815292830152602482015260449150fd5b634e487b7160e01b8b526041875260248bfd5b875163313c898160e11b8152808401839052602490fd5b8680fd5b509190346101fb5760203660031901126101fb57670de0b6b3a76400008335818102939181159185041417156103c0576020838351908152f35b634e487b7160e01b815260118452602490fd5b5050346101fb57806003193601126101fb576020906103fd6103f3610b14565b6024359033610bff565b5160018152f35b5050346101fb57816003193601126101fb5760209060ff600a541690519015158152f35b5090346101ae57826003193601126101ae578051918381549061044a82610b71565b808652926001928084169081156104e7575060011461048b575b6104878686610475828b0383610bdd565b51918291602083526020830190610ad4565b0390f35b815294507f8a35acfbc15ff81a39ae7d344fd709f28e8600b4aa8c65c6b64bfe7fe36bd19b5b8286106104cf57505050610475826020610487958201019438610464565b805460208787018101919091529095019481016104b1565b905061048797508693506020925061047594915060ff191682840152151560051b8201019438610464565b5050346101fb57816003193601126101fb5760055490516001600160a01b039091168152602090f35b5090346101ae57826003193601126101ae576105767f0000000000000000000000000000000000000000000000000000000000000000611145565b926105a07f0000000000000000000000000000000000000000000000000000000000000000611241565b908251926020928385019585871067ffffffffffffffff881117610645575092806105fb8388966105ee998b9996528686528151998a99600f60f81b8b5260e0868c015260e08b0190610ad4565b91898303908a0152610ad4565b924660608801523060808801528460a088015286840360c088015251928381520193925b82811061062e57505050500390f35b83518552869550938101939281019260010161061f565b634e487b7160e01b845260419052602483fd5b5050346101fb5760203660031901126101fb5760209181906001600160a01b03610680610b14565b1681526008845220549051908152f35b83346106da57806003193601126106da576106a9610b45565b60ff19600a5416600a557faf79b4370f6af9d950564bbe6b81f7f0834c003c455db9248f4e55e6bf865eb78180a180f35b80fd5b5050346101fb573660031901126106da5761033a6106f9610b14565b60243590610708823383610d93565b610e66565b83346106da57806003193601126106da57610726610b45565b600580546001600160a01b0319811690915581906001600160a01b03167f8be0079c531659141344cd1fd0a4f28419497f9722a3daafe3b4186f6b6457e08280a380f35b5050346101fb5760203660031901126101fb5760209181906001600160a01b03610792610b14565b16815280845220549051908152f35b8382346101fb5760203660031901126101fb5761033a903533610e66565b5090346101ae57806003193601126101ae576107d9610b14565b90602435916107e6610b45565b6001600160a01b03169283156109045760ff600a5416156108cf5760095480610881575b50508160209161083d7f3f2c9d57c068687834f0de942a9babb9e5acab57d516d3480a3c16ee165a427394600254610cdd565b60025584865285835280862082815401905584867fddf252ad1be2c89b69c2b068fc378daa952ba7f163c4a11628f55a4df523b3ef858451868152a351908152a280f35b61088d84600254610cdd565b11610898578061080a565b6020606492519162461bcd60e51b8352820152601260248201527145786365656473206d617820737570706c7960701b6044820152fd5b6020606492519162461bcd60e51b8352820152601060248201526f135a5b9d1a5b99c8191a5cd8589b195960821b6044820152fd5b6020606492519162461bcd60e51b835282015260146024820152734d696e7420746f207a65726f206164647265737360601b6044820152fd5b5050346101fb57816003193601126101fb5760209061095a61101a565b9051908152f35b5050346101fb57816003193601126101fb576020905160128152f35b5050346101fb5760603660031901126101fb576020906103fd61099e610b14565b6109a6610b2f565b604435916109b5833383610d93565b610bff565b5050346101fb57816003193601126101fb576020906002549051908152f35b5050346101fb57806003193601126101fb576020906103fd6109f9610b14565b6024359033610d00565b849084346101ae57826003193601126101ae5782600354610a2381610b71565b80855291600191808316908115610aac5750600114610a4f575b50505061047582610487940383610bdd565b9450600385527fc2575a0e9e593c00f959f8c92f12db2869c3395a3b0502d05e2516446f71f85b5b828610610a94575050506104758260206104879582010194610a3d565b80546020878701810191909152909501948101610a77565b61048797508693506020925061047594915060ff191682840152151560051b82010194610a3d565b919082519283825260005b848110610b00575050826000602080949584010152601f8019910116010190565b602081830181015184830182015201610adf565b600435906001600160a01b0382168203610b2a57565b600080fd5b602435906001600160a01b0382168203610b2a57565b6005546001600160a01b03163303610b5957565b60405163118cdaa760e01b8152336004820152602490fd5b90600182811c92168015610ba1575b6020831014610b8b57565b634e487b7160e01b600052602260045260246000fd5b91607f1691610b80565b6040810190811067ffffffffffffffff821117610bc757604052565b634e487b7160e01b600052604160045260246000fd5b90601f8019910116810190811067ffffffffffffffff821117610bc757604052565b916001600160a01b03808416928315610cc45716928315610cab5760009083825281602052604082205490838210610c79575091604082827fddf252ad1be2c89b69c2b068fc378daa952ba7f163c4a11628f55a4df523b3ef958760209652828652038282205586815220818154019055604051908152a3565b60405163391434e360e21b81526001600160a01b03919091166004820152602481019190915260448101839052606490fd5b60405163ec442f0560e01b815260006004820152602490fd5b604051634b637e8f60e11b815260006004820152602490fd5b91908201809211610cea57565b634e487b7160e01b600052601160045260246000fd5b6001600160a01b03908116918215610d7a5716918215610d615760207f8c5be1e5ebec7d5bd14f71427d1e84f3dd0314c0f7b2291e5b200ac8c7c3b925918360005260018252604060002085600052825280604060002055604051908152a3565b604051634a1406b160e11b815260006004820152602490fd5b60405163e602df0560e01b815260006004820152602490fd5b9160018060a01b038093169160009383855260016020526040938486209183169182875260205284862054926000198410610dd2575b50505050505050565b848410610e3657508015610e1e578115610e0657855260016020528385209085526020520391205538808080808080610dc9565b8451634a1406b160e11b815260048101879052602490fd5b845163e602df0560e01b815260048101879052602490fd5b8551637dc7a0d960e11b81526001600160a01b039190911660048201526024810184905260448101859052606490fd5b906001600160a01b038216908115610cc45760009282845283602052604084205490828210610ed35750817fddf252ad1be2c89b69c2b068fc378daa952ba7f163c4a11628f55a4df523b3ef926020928587528684520360408620558060025403600255604051908152a3565b60405163391434e360e21b81526001600160a01b03919091166004820152602481019190915260448101829052606490fd5b91907f7fffffffffffffffffffffffffffffff5d576e7357a4501ddfe92f46681b20a08411610f8957926020929160ff608095604051948552168484015260408301526060820152600092839182805260015afa15610f7d5780516001600160a01b03811615610f7457918190565b50809160019190565b604051903d90823e3d90fd5b50505060009160039190565b60048110156110045780610fa7575050565b60018103610fc15760405163f645eedf60e01b8152600490fd5b60028103610fe25760405163fce698f760e01b815260048101839052602490fd5b600314610fec5750565b602490604051906335e2f38360e21b82526004820152fd5b634e487b7160e01b600052602160045260246000fd5b307f00000000000000000000000000000000000000000000000000000000000000006001600160a01b0316148061111c575b15611075577f000000000000000000000000000000000000000000000000000000000000000090565b60405160208101907f8b73c3c69bb8fe3d512ecc4cf759cc79239f7b179b0ffacaa9a75d522b39400f82527f000000000000000000000000000000000000000000000000000000000000000060408201527f000000000000000000000000000000000000000000000000000000000000000060608201524660808201523060a082015260a0815260c0810181811067ffffffffffffffff821117610bc75760405251902090565b507f0000000000000000000000000000000000000000000000000000000000000000461461104c565b60ff81146111835760ff811690601f8211611171576040519161116783610bab565b8252602082015290565b604051632cd44ac360e21b8152600490fd5b5060405160065481600061119683610b71565b8083529260019081811690811561121f57506001146111c0575b506111bd92500382610bdd565b90565b6006600090815291507ff652222313e28459528d920b65115c16c04f3efc82aaedc97be59f3f377c0d3f5b84831061120457506111bd9350508101602001386111b0565b819350908160209254838589010152019101909184926111eb565b9050602092506111bd94915060ff191682840152151560051b820101386111b0565b60ff81146112635760ff811690601f8211611171576040519161116783610bab565b5060405160075481600061127683610b71565b8083529260019081811690811561121f575060011461129c57506111bd92500382610bdd565b6007600090815291507fa66cc928b5edb82af9bd49922954155ab7b0942694bea4ce44661d9a8736c6885b8483106112e057506111bd9350508101602001386111b0565b819350908160209254838589010152019101909184926112c756fea2646970667358221220b4371495c079b9a19c9b5d39ef5d2f2e371314f6e7346e90962cb3fe8f03e81264736f6c63430008140033",
  "linkReferences": {},
  "deployedLinkReferences": {}
}