{
  "_format": "hh-sol-artifact-1",
  "contractName": "SimpleVesting",
  "sourceName": "src/templates/SimpleVesting.sol",
  "abi": [
    {
      "inputs": [
        {
          "internalType": "address",
          "name": "_beneficiary",
          "type": "address"
        },
        {
          "internalType": "uint256",
          "name": "_lockDuration",
          "type": "uint256"
        }
      ],
      "stateMutability": "payable",
      "type": "constructor"
    },
    {
      "anonymous": false,
      "inputs": [
        {
          "indexed": true,
          "internalType": "address",
          "name": "beneficiary",
          "type": "address"
        },
        {
          "indexed": false,
          "internalType": "uint256",
          "name": "amount",
          "type": "uint256"
        },
        {
          "indexed": false,
          "internalType": "uint256",
          "name": "releaseTime",
          "type": "uint256"
        }
      ],
      "name": "Locked",
      "type": "event"
    },
    {
      "anonymous": false,
      "inputs": [
        {
          "indexed": true,
          "internalType": "address",
          "name": "owner",
          "type": "address"
        },
        {
          "indexed": false,
          "internalType": "uint256",
          "name": "amount",
          "type": "uint256"
        }
      ],
      "name": "Revoked",
      "type": "event"
    },
    {
      "anonymous": false,
      "inputs": [
        {
          "indexed": true,
          "internalType": "address",
          "name": "beneficiary",
          "type": "address"
        },
        {
          "indexed": false,
          "internalType": "uint256",
          "name": "amount",
          "type": "uint256"
        }
      ],
      "name": "Unlocked",
      "type": "event"
    },
    {
      "inputs": [],
      "name": "MAX_LOCK_DURATION",
      "outputs": [
        {
          "internalType": "uint256",
          "name": "",
          "type": "uint256"
        }
      ],
      "stateMutability": "view",
      "type": "function"
    },
    {
      "inputs": [],
      "name": "MIN_LOCK_DURATION",
      "outputs": [
        {
          "internalType": "uint256",
          "name": "",
          "type": "uint256"
        }
      ],
      "stateMutability": "view",
      "type": "function"
    },
    {
      "inputs": [],
      "name": "beneficiary",
      "outputs": [
        {
          "internalType": "address",
          "name": "",
          "type": "address"
        }
      ],
      "stateMutability": "view",
      "type": "function"
    },
    {
      "inputs": [],
      "name": "canUnlock",
      "outputs": [
        {
          "internalType": "bool",
          "name": "",
          "type": "bool"
        }
      ],
      "stateMutability": "view",
      "type": "function"
    },
    {
      "inputs": [],
      "name": "getBalance",
      "outputs": [
        {
          "internalType": "uint256",
          "name": "",
          "type": "uint256"
        }
      ],
      "stateMutability": "view",
      "type": "function"
    },
    {
      "inputs": [],
      "name": "lockedAmount",
      "outputs": [
        {
          "internalType": "uint256",
          "name": "",
          "type": "uint256"
        }
      ],
      "stateMutability": "view",
      "type": "function"
    },
    {
      "inputs": [],
      "name": "owner",
      "outputs": [
        {
          "internalType": "address",
          "name": "",
          "type": "address"
        }
      ],
      "stateMutability": "view",
      "type": "function"
    },
    {
      "inputs": [],
      "name": "releaseTime",
      "outputs": [
        {
          "internalType": "uint256",
          "name": "",
          "type": "uint256"
        }
      ],
      "stateMutability": "view",
      "type": "function"
    },
    {
      "inputs": [],
      "name": "released",
      "outputs": [
        {
          "internalType": "bool",
          "name": "",
          "type": "bool"
        }
      ],
      "stateMutability": "view",
      "type": "function"
    },
    {
      "inputs": [],
      "name": "remainingLockTime",
      "outputs": [
        {
          "internalType": "uint256",
          "name": "",
          "type": "uint256"
        }
      ],
      "stateMutability": "view",
      "type": "function"
    },
    {
      "inputs": [],
      "name": "revoke",
      "outputs": [],
      "stateMutability": "nonpayable",
      "type": "function"
    },
    {
      "inputs": [],
      "name": "revoked",
      "outputs": [
        {
          "internalType": "bool",
          "name": "",
          "type": "bool"
        }
      ],
      "stateMutability": "view",
      "type": "function"
    },
    {
      "inputs": [],
      "name": "unlock",
      "outputs": [],
      "stateMutability": "nonpayable",
      "type": "function"
    }
  ],
  "bytecode": "0x6109af60e0601f38839003908101601f19168201906001600160401b0382118383101761020557808391604095869485528339810103126102005780516001600160a01b0381169182820361020057602001519082156101bc5734156101785760018210158061016a575b15610126573360805260a0523460005542018042116101105782817fd4665e3049283582ba6f9eba07a5b3e12dab49e02da99e8927a47af5d134bea59260c05261ffff196001541660015560016002558151903482526020820152a251610793908161021c82396080518181816101a701526104d5015260a0518181816102ea0152610598015260c05181818160f00152818161015d0152818161031d015261070d0152f35b634e487b7160e01b600052601160045260246000fd5b835162461bcd60e51b815260206004820152601560248201527f496e76616c6964206c6f636b206475726174696f6e00000000000000000000006044820152606490fd5b506312cc030082111561006a565b835162461bcd60e51b815260206004820152601560248201527f4d757374206c6f636b20736f6d6520746f6b656e7300000000000000000000006044820152606490fd5b835162461bcd60e51b815260206004820152601360248201527f496e76616c69642062656e6566696369617279000000000000000000000000006044820152606490fd5b600080fd5b634e487b7160e01b600052604160045260246000fdfe608060408181526004918236101561001657600080fd5b600092833560e01c91826312065fe0146105c75750816338af3eed146105835781634f1bfc9e1461056457816363d256ce1461053d5781636ab28bc81461052057816378b4330f146105045781638da5cb5b146104c0578163961325211461049c578163a69df4b5146102c4578163b6549f751461018057508063b91d400114610146578063c1586ad3146100da5763ec0359f4146100b457600080fd5b346100d657816003193601126100d6576020906100cf61070b565b9051908152f35b5080fd5b50346100d657816003193601126100d6576020907f00000000000000000000000000000000000000000000000000000000000000004210159081610138575b81610127575b519015158152f35b60015460081c60ff1615915061011f565b60015460ff16159150610119565b50346100d657816003193601126100d657602090517f00000000000000000000000000000000000000000000000000000000000000008152f35b919050346102c057826003193601126102c0576101a16002805414156105e1565b600280557f00000000000000000000000000000000000000000000000000000000000000006001600160a01b0316913383900361028657600154906101e960ff83161561062d565b60ff8260081c16610251575061ff001916610100176001558280557f713b90881ad62c4fa8ab6bd9197fa86481fc0c11b2edba60026514281b2dbac490602090479061024486808080868a5af161023e61066c565b506106cd565b51908152a2600160025580f35b606490602084519162461bcd60e51b8352820152600f60248201526e105b1c9958591e481c995d9bdad959608a1b6044820152fd5b6020606492519162461bcd60e51b835282015260156024820152744f6e6c79206f776e65722063616e207265766f6b6560581b6044820152fd5b8280fd5b9050346102c057826003193601126102c0576102e46002805414156105e1565b600280557f00000000000000000000000000000000000000000000000000000000000000006001600160a01b03169133839003610459577f0000000000000000000000000000000000000000000000000000000000000000421061041e5760015461035260ff82161561062d565b60ff8160081c166103e957479285548094106103af57509160209160017f0f0bc5b519ddefdd8e5f9e6423433aa2b869738de2ae34d58ebc796fc749fa0d9460ff19161760015585805561024486808080868a5af161023e61066c565b606490602084519162461bcd60e51b83528201526014602482015273496e73756666696369656e742062616c616e636560601b6044820152fd5b815162461bcd60e51b8152602081850152600f60248201526e15995cdd1a5b99c81c995d9bdad959608a1b6044820152606490fd5b906020606492519162461bcd60e51b83528201526015602482015274131bd8dac81c195c9a5bd9081b9bdd08195b991959605a1b6044820152fd5b906020606492519162461bcd60e51b8352820152601b60248201527f4f6e6c792062656e65666963696172792063616e20756e6c6f636b00000000006044820152fd5b5050346100d657816003193601126100d65760209060ff6001541690519015158152f35b5050346100d657816003193601126100d657517f00000000000000000000000000000000000000000000000000000000000000006001600160a01b03168152602090f35b5050346100d657816003193601126100d6576020905160018152f35b5050346100d657816003193601126100d657602091549051908152f35b5050346100d657816003193601126100d65760209060ff60015460081c1690519015158152f35b5050346100d657816003193601126100d657602090516312cc03008152f35b5050346100d657816003193601126100d657517f00000000000000000000000000000000000000000000000000000000000000006001600160a01b03168152602090f35b8490346100d657816003193601126100d657602090478152f35b156105e857565b60405162461bcd60e51b815260206004820152601f60248201527f5265656e7472616e637947756172643a207265656e7472616e742063616c6c006044820152606490fd5b1561063457565b60405162461bcd60e51b815260206004820152601060248201526f105b1c9958591e481c995b19585cd95960821b6044820152606490fd5b3d156106c85767ffffffffffffffff903d8281116106b25760405192601f8201601f19908116603f01168401908111848210176106b25760405282523d6000602084013e565b634e487b7160e01b600052604160045260246000fd5b606090565b156106d457565b60405162461bcd60e51b815260206004820152600f60248201526e151c985b9cd9995c8819985a5b1959608a1b6044820152606490fd5b7f000000000000000000000000000000000000000000000000000000000000000080421015610757574281039081116107415790565b634e487b7160e01b600052601160045260246000fd5b5060009056fea26469706673582212206e07084f2122f77f6957c11449c3a3a1e9736a819319147bee3a387b17a61fdb64736f6c63430008140033",
  "linkReferences": {},
  "deployedLinkReferences": {}
}