{
  "_format": "hh-sol-artifact-1",
  "contractName": "MDTStaking",
  "sourceName": "src/MDTStaking.sol",
  "abi": [
    {
      "inputs": [
        {
          "internalType": "address",
          "name": "_token",
          "type": "address"
        }
      ],
      "stateMutability": "nonpayable",
      "type": "constructor"
    },
    {
      "inputs": [
        {
          "internalType": "address",
          "name": "owner",
          "type": "address"
        }
      ],
      "name": "OwnableInvalidOwner",
      "type": "error"
    },
    {
      "inputs": [
        {
          "internalType": "address",
          "name": "account",
          "type": "address"
        }
      ],
      "name": "OwnableUnauthorizedAccount",
      "type": "error"
    },
    {
      "inputs": [],
      "name": "ReentrancyGuardReentrantCall",
      "type": "error"
    },
    {
      "inputs": [
        {
          "internalType": "address",
          "name": "token",
          "type": "address"
        }
      ],
      "name": "SafeERC20FailedOperation",
      "type": "error"
    },
    {
      "anonymous": false,
      "inputs": [
        {
          "indexed": true,
          "internalType": "address",
          "name": "previousOwner",
          "type": "address"
        },
        {
          "indexed": true,
          "internalType": "address",
          "name": "newOwner",
          "type": "address"
        }
      ],
      "name": "OwnershipTransferred",
      "type": "event"
    },
    {
      "anonymous": false,
      "inputs": [
        {
          "indexed": true,
          "internalType": "address",
          "name": "staker",
          "type": "address"
        },
        {
          "indexed": false,
          "internalType": "uint256",
          "name": "amount",
          "type": "uint256"
        },
        {
          "indexed": false,
          "internalType": "uint256",
          "name": "lockDays",
          "type": "uint256"
        },
        {
          "indexed": false,
          "internalType": "uint256",
          "name": "bonusRate",
          "type": "uint256"
        },
        {
          "indexed": false,
          "internalType": "uint256",
          "name": "unlockTime",
          "type": "uint256"
        }
      ],
      "name": "Staked",
      "type": "event"
    },
    {
      "anonymous": false,
      "inputs": [
        {
          "indexed": true,
          "internalType": "address",
          "name": "staker",
          "type": "address"
        },
        {
          "indexed": false,
          "internalType": "uint256",
          "name": "amount",
          "type": "uint256"
        },
        {
          "indexed": false,
          "internalType": "uint256",
          "name": "bonus",
          "type": "uint256"
        },
        {
          "indexed": false,
          "internalType": "uint256",
          "name": "totalReturned",
          "type": "uint256"
        }
      ],
      "name": "Unstaked",
      "type": "event"
    },
    {
      "inputs": [
        {
          "internalType": "uint256",
          "name": "amount",
          "type": "uint256"
        }
      ],
      "name": "fundBonusPool",
      "outputs": [],
      "stateMutability": "nonpayable",
      "type": "function"
    },
    {
      "inputs": [
        {
          "internalType": "uint256",
          "name": "lockDays",
          "type": "uint256"
        }
      ],
      "name": "getBonusRate",
      "outputs": [
        {
          "internalType": "uint256",
          "name": "",
          "type": "uint256"
        }
      ],
      "stateMutability": "pure",
      "type": "function"
    },
    {
      "inputs": [
        {
          "internalType": "address",
          "name": "staker",
          "type": "address"
        }
      ],
      "name": "getStakeCount",
      "outputs": [
        {
          "internalType": "uint256",
          "name": "",
          "type": "uint256"
        }
      ],
      "stateMutability": "view",
      "type": "function"
    },
    {
      "inputs": [
        {
          "internalType": "address",
          "name": "staker",
          "type": "address"
        }
      ],
      "name": "getStakeInfo",
      "outputs": [
        {
          "internalType": "uint256",
          "name": "activeStakes",
          "type": "uint256"
        },
        {
          "internalType": "uint256",
          "name": "totalLocked",
          "type": "uint256"
        },
        {
          "internalType": "uint256",
          "name": "pendingBonus",
          "type": "uint256"
        }
      ],
      "stateMutability": "view",
      "type": "function"
    },
    {
      "inputs": [
        {
          "internalType": "address",
          "name": "staker",
          "type": "address"
        },
        {
          "internalType": "uint256",
          "name": "index",
          "type": "uint256"
        }
      ],
      "name": "getStakeLock",
      "outputs": [
        {
          "internalType": "uint256",
          "name": "amount",
          "type": "uint256"
        },
        {
          "internalType": "uint256",
          "name": "lockTime",
          "type": "uint256"
        },
        {
          "internalType": "uint256",
          "name": "unlockTime",
          "type": "uint256"
        },
        {
          "internalType": "uint256",
          "name": "bonusRate",
          "type": "uint256"
        },
        {
          "internalType": "bool",
          "name": "withdrawn",
          "type": "bool"
        },
        {
          "internalType": "bool",
          "name": "canUnlock",
          "type": "bool"
        }
      ],
      "stateMutability": "view",
      "type": "function"
    },
    {
      "inputs": [
        {
          "internalType": "uint256",
          "name": "amount",
          "type": "uint256"
        },
        {
          "internalType": "uint256",
          "name": "lockDays",
          "type": "uint256"
        }
      ],
      "name": "lock",
      "outputs": [],
      "stateMutability": "nonpayable",
      "type": "function"
    },
    {
      "inputs": [
        {
          "internalType": "uint256",
          "name": "amount",
          "type": "uint256"
        },
        {
          "internalType": "uint256",
          "name": "lockSeconds_",
          "type": "uint256"
        }
      ],
      "name": "lockSeconds",
      "outputs": [],
      "stateMutability": "nonpayable",
      "type": "function"
    },
    {
      "inputs": [],
      "name": "owner",
      "outputs": [
        {
          "internalType": "address",
          "name": "",
          "type": "address"
        }
      ],
      "stateMutability": "view",
      "type": "function"
    },
    {
      "inputs": [],
      "name": "renounceOwnership",
      "outputs": [],
      "stateMutability": "nonpayable",
      "type": "function"
    },
    {
      "inputs": [
        {
          "internalType": "address",
          "name": "",
          "type": "address"
        },
        {
          "internalType": "uint256",
          "name": "",
          "type": "uint256"
        }
      ],
      "name": "stakeLocks",
      "outputs": [
        {
          "internalType": "uint256",
          "name": "amount",
          "type": "uint256"
        },
        {
          "internalType": "uint256",
          "name": "lockTime",
          "type": "uint256"
        },
        {
          "internalType": "uint256",
          "name": "unlockTime",
          "type": "uint256"
        },
        {
          "internalType": "uint256",
          "name": "bonusRate",
          "type": "uint256"
        },
        {
          "internalType": "bool",
          "name": "withdrawn",
          "type": "bool"
        }
      ],
      "stateMutability": "view",
      "type": "function"
    },
    {
      "inputs": [],
      "name": "token",
      "outputs": [
        {
          "internalType": "contract IERC20",
          "name": "",
          "type": "address"
        }
      ],
      "stateMutability": "view",
      "type": "function"
    },
    {
      "inputs": [],
      "name": "totalBonusPaid",
      "outputs": [
        {
          "internalType": "uint256",
          "name": "",
          "type": "uint256"
        }
      ],
      "stateMutability": "view",
      "type": "function"
    },
    {
      "inputs": [],
      "name": "totalStaked",
      "outputs": [
        {
          "internalType": "uint256",
          "name": "",
          "type": "uint256"
        }
      ],
      "stateMutability": "view",
      "type": "function"
    },
    {
      "inputs": [
        {
          "internalType": "address",
          "name": "newOwner",
          "type": "address"
        }
      ],
      "name": "transferOwnership",
      "outputs": [],
      "stateMutability": "nonpayable",
      "type": "function"
    },
    {
      "inputs": [
        {
          "internalType": "uint256",
          "name": "index",
          "type": "uint256"
        }
      ],
      "name": "unlock",
      "outputs": [],
      "stateMutability": "nonpayable",
      "type": "function"
    }
  ],
  "bytecode": "0x60a060405234801561001057600080fd5b5060405161109f38038061109f83398101604081905261002f9161010b565b338061005657604051631e4fbdf760e01b8152600060048201526024015b60405180910390fd5b61005f816100bb565b50600180556001600160a01b0381166100aa5760405162461bcd60e51b815260206004820152600d60248201526c24b73b30b634b2103a37b5b2b760991b604482015260640161004d565b6001600160a01b031660805261013b565b600080546001600160a01b038381166001600160a01b0319831681178455604051919092169283917f8be0079c531659141344cd1fd0a4f28419497f9722a3daafe3b4186f6b6457e09190a35050565b60006020828403121561011d57600080fd5b81516001600160a01b038116811461013457600080fd5b9392505050565b608051610f2d6101726000396000818161029d015281816103af0152818161050b015281816106db0152610a1d0152610f2d6000f3fe608060405234801561001057600080fd5b50600436106100f55760003560e01c8063971fe93711610097578063cf57ee6911610066578063cf57ee6914610249578063e37cd20214610272578063f2fde38b14610285578063fc0c546a1461029857600080fd5b8063971fe93714610187578063a458bd3e146101c4578063c345315314610208578063cb44acc61461023657600080fd5b8063715018a6116100d3578063715018a614610135578063817b1cd21461013d5780638325263c146101595780638da5cb5b1461016257600080fd5b80631338736f146100fa5780634b7aeb211461010f5780636198e33914610122575b600080fd5b61010d610108366004610daa565b6102bf565b005b61010d61011d366004610dcc565b6104f6565b61010d610130366004610dcc565b610536565b61010d610752565b61014660035481565b6040519081526020015b60405180910390f35b61014660045481565b6000546001600160a01b03165b6040516001600160a01b039091168152602001610150565b61019a610195366004610e01565b610766565b6040805195865260208601949094529284019190915260608301521515608082015260a001610150565b6101d76101d2366004610e01565b6107b7565b60408051968752602087019590955293850192909252606084015215156080830152151560a082015260c001610150565b61021b610216366004610e2b565b61089f565b60408051938452602084019290925290820152606001610150565b61010d610244366004610daa565b610973565b610146610257366004610e2b565b6001600160a01b031660009081526002602052604090205490565b610146610280366004610dcc565b610b65565b61010d610293366004610e2b565b610bb4565b61016f7f000000000000000000000000000000000000000000000000000000000000000081565b6102c7610bef565b600082116103115760405162461bcd60e51b81526020600482015260126024820152710416d6f756e74206d757374206265203e20360741b60448201526064015b60405180910390fd5b600081116103595760405162461bcd60e51b815260206004820152601560248201527404c6f636b2064617973206d757374206265203e203605c1b6044820152606401610308565b61016d8111156103a25760405162461bcd60e51b81526020600482015260146024820152734d6178206c6f636b20697320333635206461797360601b6044820152606401610308565b6103d76001600160a01b037f000000000000000000000000000000000000000000000000000000000000000016333085610c19565b60006103e282610b65565b905060006103f38362015180610e63565b6103fd9042610e80565b336000908152600260208181526040808420815160a0810183528a815242818501908152928101878152606082018a815260808301888152845460018082018755958a52968920935160059097029093019586559351928501929092559051938301939093555160038083019190915591516004909101805460ff191691151591909117905580549293508692909190610498908490610e80565b909155505060408051858152602081018590529081018390526060810182905233907f9cfd25589d1eb8ad71e342a86a8524e83522e3936c0803048c08f6d9ad974f409060800160405180910390a250506104f260018055565b5050565b6104fe610c86565b6105336001600160a01b037f000000000000000000000000000000000000000000000000000000000000000016333084610c19565b50565b61053e610bef565b33600090815260026020526040902054811061058c5760405162461bcd60e51b815260206004820152600d60248201526c092dcecc2d8d2c840d2dcc8caf609b1b6044820152606401610308565b3360009081526002602052604081208054839081106105ad576105ad610e93565b60009182526020909120600590910201600481015490915060ff16156106095760405162461bcd60e51b815260206004820152601160248201527020b63932b0b23c903bb4ba34323930bbb760791b6044820152606401610308565b80600201544210156106505760405162461bcd60e51b815260206004820152601060248201526f131bd8dac81b9bdd08195e1c1a5c995960821b6044820152606401610308565b6000612710826003015483600001546106699190610e63565b6106739190610ea9565b905060008183600001546106879190610e80565b60048401805460ff1916600117905583546003805492935090916000906106af908490610ecb565b9250508190555081600460008282546106c89190610e80565b9091555061070290506001600160a01b037f0000000000000000000000000000000000000000000000000000000000000000163383610cb3565b82546040805191825260208201849052810182905233907f204fccf0d92ed8d48f204adb39b2e81e92bad0dedb93f5716ca9478cfb57de009060600160405180910390a250505061053360018055565b61075a610c86565b6107646000610ce9565b565b6002602052816000526040600020818154811061078257600080fd5b600091825260209091206005909102018054600182015460028301546003840154600490940154929550909350919060ff1685565b6001600160a01b0382166000908152600260205260408120548190819081908190819087106108185760405162461bcd60e51b815260206004820152600d60248201526c092dcecc2d8d2c840d2dcc8caf609b1b6044820152606401610308565b6001600160a01b038816600090815260026020526040812080548990811061084257610842610e93565b600091825260209091206005909102018054600182015460028301546003840154600485015494955092939192909160ff164283118015906108895750600486015460ff16155b949e939d50919b50995097509095509350505050565b60008080805b6001600160a01b03851660009081526002602052604090205481101561096b576001600160a01b03851660009081526002602052604081208054839081106108ef576108ef610e93565b60009182526020909120600590910201600481015490915060ff16610958578461091881610ede565b8254909650610928915085610e80565b9350612710816003015482600001546109419190610e63565b61094b9190610ea9565b6109559084610e80565b92505b508061096381610ede565b9150506108a5565b509193909250565b61097b610bef565b600082116109c05760405162461bcd60e51b81526020600482015260126024820152710416d6f756e74206d757374206265203e20360741b6044820152606401610308565b60008111610a105760405162461bcd60e51b815260206004820152601860248201527f4c6f636b207365636f6e6473206d757374206265203e203000000000000000006044820152606401610308565b610a456001600160a01b037f000000000000000000000000000000000000000000000000000000000000000016333085610c19565b6000610a546201518083610ea9565b90506000610a6182610b65565b90506000610a6f8442610e80565b336000908152600260208181526040808420815160a0810183528b815242818501908152928101878152606082018a815260808301888152845460018082018755958a52968920935160059097029093019586559351928501929092559051938301939093555160038083019190915591516004909101805460ff191691151591909117905580549293508792909190610b0a908490610e80565b909155505060408051868152602081018590529081018390526060810182905233907f9cfd25589d1eb8ad71e342a86a8524e83522e3936c0803048c08f6d9ad974f409060800160405180910390a25050506104f260018055565b600061016d8210610b795750612710919050565b60b48210610b8a5750611388919050565b605a8210610b9b57506109c4919050565b601e8210610bac57506103e8919050565b506000919050565b610bbc610c86565b6001600160a01b038116610be657604051631e4fbdf760e01b815260006004820152602401610308565b61053381610ce9565b600260015403610c1257604051633ee5aeb560e01b815260040160405180910390fd5b6002600155565b6040516001600160a01b038481166024830152838116604483015260648201839052610c809186918216906323b872dd906084015b604051602081830303815290604052915060e01b6020820180516001600160e01b038381831617835250505050610d39565b50505050565b6000546001600160a01b031633146107645760405163118cdaa760e01b8152336004820152602401610308565b6040516001600160a01b03838116602483015260448201839052610ce491859182169063a9059cbb90606401610c4e565b505050565b600080546001600160a01b038381166001600160a01b0319831681178455604051919092169283917f8be0079c531659141344cd1fd0a4f28419497f9722a3daafe3b4186f6b6457e09190a35050565b600080602060008451602086016000885af180610d5c576040513d6000823e3d81fd5b50506000513d91508115610d74578060011415610d81565b6001600160a01b0384163b155b15610c8057604051635274afe760e01b81526001600160a01b0385166004820152602401610308565b60008060408385031215610dbd57600080fd5b50508035926020909101359150565b600060208284031215610dde57600080fd5b5035919050565b80356001600160a01b0381168114610dfc57600080fd5b919050565b60008060408385031215610e1457600080fd5b610e1d83610de5565b946020939093013593505050565b600060208284031215610e3d57600080fd5b610e4682610de5565b9392505050565b634e487b7160e01b600052601160045260246000fd5b8082028115828204841417610e7a57610e7a610e4d565b92915050565b80820180821115610e7a57610e7a610e4d565b634e487b7160e01b600052603260045260246000fd5b600082610ec657634e487b7160e01b600052601260045260246000fd5b500490565b81810381811115610e7a57610e7a610e4d565b600060018201610ef057610ef0610e4d565b506001019056fea264697066735822122043c39a423bd4827a745b111fb9f5c5ab6be6b10be33fc7d4f0f300a31ea57e8064736f6c63430008140033",
  "linkReferences": {},
  "deployedLinkReferences": {}
}