{
  "_format": "hh-sol-artifact-1",
  "contractName": "MDTStaking",
  "sourceName": "src/MDTStaking.sol",
  "abi": [
    {
      "inputs": [
        {
          "internalType": "address",
          "name": "_token",
          "type": "address"
        }
      ],
      "stateMutability": "nonpayable",
      "type": "constructor"
    },
    {
      "inputs": [
        {
          "internalType": "address",
          "name": "owner",
          "type": "address"
        }
      ],
      "name": "OwnableInvalidOwner",
      "type": "error"
    },
    {
      "inputs": [
        {
          "internalType": "address",
          "name": "account",
          "type": "address"
        }
      ],
      "name": "OwnableUnauthorizedAccount",
      "type": "error"
    },
    {
      "inputs": [],
      "name": "ReentrancyGuardReentrantCall",
      "type": "error"
    },
    {
      "inputs": [
        {
          "internalType": "address",
          "name": "token",
          "type": "address"
        }
      ],
      "name": "SafeERC20FailedOperation",
      "type": "error"
    },
    {
      "anonymous": false,
      "inputs": [
        {
          "indexed": true,
          "internalType": "address",
          "name": "previousOwner",
          "type": "address"
        },
        {
          "indexed": true,
          "internalType": "address",
          "name": "newOwner",
          "type": "address"
        }
      ],
      "name": "OwnershipTransferred",
      "type": "event"
    },
    {
      "anonymous": false,
      "inputs": [
        {
          "indexed": true,
          "internalType": "address",
          "name": "staker",
          "type": "address"
        },
        {
          "indexed": false,
          "internalType": "uint256",
          "name": "amount",
          "type": "uint256"
        },
        {
          "indexed": false,
          "internalType": "uint256",
          "name": "lockDays",
          "type": "uint256"
        },
        {
          "indexed": false,
          "internalType": "uint256",
          "name": "bonusRate",
          "type": "uint256"
        },
        {
          "indexed": false,
          "internalType": "uint256",
          "name": "unlockTime",
          "type": "uint256"
        }
      ],
      "name": "Staked",
      "type": "event"
    },
    {
      "anonymous": false,
      "inputs": [
        {
          "indexed": true,
          "internalType": "address",
          "name": "staker",
          "type": "address"
        },
        {
          "indexed": false,
          "internalType": "uint256",
          "name": "amount",
          "type": "uint256"
        },
        {
          "indexed": false,
          "internalType": "uint256",
          "name": "bonus",
          "type": "uint256"
        },
        {
          "indexed": false,
          "internalType": "uint256",
          "name": "totalReturned",
          "type": "uint256"
        }
      ],
      "name": "Unstaked",
      "type": "event"
    },
    {
      "inputs": [
        {
          "internalType": "uint256",
          "name": "amount",
          "type": "uint256"
        }
      ],
      "name": "fundBonusPool",
      "outputs": [],
      "stateMutability": "nonpayable",
      "type": "function"
    },
    {
      "inputs": [
        {
          "internalType": "uint256",
          "name": "lockDays",
          "type": "uint256"
        }
      ],
      "name": "getBonusRate",
      "outputs": [
        {
          "internalType": "uint256",
          "name": "",
          "type": "uint256"
        }
      ],
      "stateMutability": "pure",
      "type": "function"
    },
    {
      "inputs": [
        {
          "internalType": "address",
          "name": "staker",
          "type": "address"
        }
      ],
      "name": "getStakeCount",
      "outputs": [
        {
          "internalType": "uint256",
          "name": "",
          "type": "uint256"
        }
      ],
      "stateMutability": "view",
      "type": "function"
    },
    {
      "inputs": [
        {
          "internalType": "address",
          "name": "staker",
          "type": "address"
        }
      ],
      "name": "getStakeInfo",
      "outputs": [
        {
          "internalType": "uint256",
          "name": "activeStakes",
          "type": "uint256"
        },
        {
          "internalType": "uint256",
          "name": "totalLocked",
          "type": "uint256"
        },
        {
          "internalType": "uint256",
          "name": "pendingBonus",
          "type": "uint256"
        }
      ],
      "stateMutability": "view",
      "type": "function"
    },
    {
      "inputs": [
        {
          "internalType": "address",
          "name": "staker",
          "type": "address"
        },
        {
          "internalType": "uint256",
          "name": "index",
          "type": "uint256"
        }
      ],
      "name": "getStakeLock",
      "outputs": [
        {
          "internalType": "uint256",
          "name": "amount",
          "type": "uint256"
        },
        {
          "internalType": "uint256",
          "name": "lockTime",
          "type": "uint256"
        },
        {
          "internalType": "uint256",
          "name": "unlockTime",
          "type": "uint256"
        },
        {
          "internalType": "uint256",
          "name": "bonusRate",
          "type": "uint256"
        },
        {
          "internalType": "bool",
          "name": "withdrawn",
          "type": "bool"
        },
        {
          "internalType": "bool",
          "name": "canUnlock",
          "type": "bool"
        }
      ],
      "stateMutability": "view",
      "type": "function"
    },
    {
      "inputs": [
        {
          "internalType": "uint256",
          "name": "amount",
          "type": "uint256"
        },
        {
          "internalType": "uint256",
          "name": "lockDays",
          "type": "uint256"
        }
      ],
      "name": "lock",
      "outputs": [],
      "stateMutability": "nonpayable",
      "type": "function"
    },
    {
      "inputs": [
        {
          "internalType": "uint256",
          "name": "amount",
          "type": "uint256"
        },
        {
          "internalType": "uint256",
          "name": "lockSeconds_",
          "type": "uint256"
        }
      ],
      "name": "lockSeconds",
      "outputs": [],
      "stateMutability": "nonpayable",
      "type": "function"
    },
    {
      "inputs": [],
      "name": "owner",
      "outputs": [
        {
          "internalType": "address",
          "name": "",
          "type": "address"
        }
      ],
      "stateMutability": "view",
      "type": "function"
    },
    {
      "inputs": [],
      "name": "renounceOwnership",
      "outputs": [],
      "stateMutability": "nonpayable",
      "type": "function"
    },
    {
      "inputs": [
        {
          "internalType": "address",
          "name": "",
          "type": "address"
        },
        {
          "internalType": "uint256",
          "name": "",
          "type": "uint256"
        }
      ],
      "name": "stakeLocks",
      "outputs": [
        {
          "internalType": "uint256",
          "name": "amount",
          "type": "uint256"
        },
        {
          "internalType": "uint256",
          "name": "lockTime",
          "type": "uint256"
        },
        {
          "internalType": "uint256",
          "name": "unlockTime",
          "type": "uint256"
        },
        {
          "internalType": "uint256",
          "name": "bonusRate",
          "type": "uint256"
        },
        {
          "internalType": "bool",
          "name": "withdrawn",
          "type": "bool"
        }
      ],
      "stateMutability": "view",
      "type": "function"
    },
    {
      "inputs": [],
      "name": "token",
      "outputs": [
        {
          "internalType": "contract IERC20",
          "name": "",
          "type": "address"
        }
      ],
      "stateMutability": "view",
      "type": "function"
    },
    {
      "inputs": [],
      "name": "totalBonusPaid",
      "outputs": [
        {
          "internalType": "uint256",
          "name": "",
          "type": "uint256"
        }
      ],
      "stateMutability": "view",
      "type": "function"
    },
    {
      "inputs": [],
      "name": "totalStaked",
      "outputs": [
        {
          "internalType": "uint256",
          "name": "",
          "type": "uint256"
        }
      ],
      "stateMutability": "view",
      "type": "function"
    },
    {
      "inputs": [
        {
          "internalType": "address",
          "name": "newOwner",
          "type": "address"
        }
      ],
      "name": "transferOwnership",
      "outputs": [],
      "stateMutability": "nonpayable",
      "type": "function"
    },
    {
      "inputs": [
        {
          "internalType": "uint256",
          "name": "index",
          "type": "uint256"
        }
      ],
      "name": "unlock",
      "outputs": [],
      "stateMutability": "nonpayable",
      "type": "function"
    }
  ],
  "bytecode": "0x60a03461012257601f610dee38819003918201601f19168301916001600160401b038311848410176101275780849260209460405283398101031261012257516001600160a01b0380821691829003610122573315610109576000543360018060a01b0319821617600055604051913391167f8be0079c531659141344cd1fd0a4f28419497f9722a3daafe3b4186f6b6457e0600080a36001805581156100d75750608052604051610cb0908161013e823960805181818160db01528181610254015281816107120152818161080a015261086e0152f35b62461bcd60e51b815260206004820152600d60248201526c24b73b30b634b2103a37b5b2b760991b6044820152606490fd5b604051631e4fbdf760e01b815260006004820152602490fd5b600080fd5b634e487b7160e01b600052604160045260246000fdfe6040608081526004908136101561001557600080fd5b600091823560e01c9081631338736f146108315781634b7aeb21146107e65781636198e33914610606578163715018a6146105ac578163817b1cd21461058d5781638325263c1461056f5781638da5cb5b14610547578163971fe937146104c7578163a458bd3e14610420578163c34531531461034d578163cb44acc6146101fb578163cf57ee69146101c3578163e37cd20214610199578163f2fde38b1461010e575063fc0c546a146100c857600080fd5b3461010a578160031936011261010a57517f00000000000000000000000000000000000000000000000000000000000000006001600160a01b03168152602090f35b5080fd5b90503461019557602036600319011261019557610129610983565b906101326109cb565b6001600160a01b0391821692831561017f57505082546001600160a01b0319811683178455167f8be0079c531659141344cd1fd0a4f28419497f9722a3daafe3b4186f6b6457e08380a380f35b51631e4fbdf760e01b8152908101849052602490fd5b8280fd5b8284346101c05760203660031901126101c057506101b9602092356109f7565b9051908152f35b80fd5b50503461010a57602036600319011261010a5760209181906001600160a01b036101eb610983565b1681526002845220549051908152f35b919050346101955761020c36610968565b919092610217610c0c565b610222841515610a3b565b821561030b5750907f9cfd25589d1eb8ad71e342a86a8524e83522e3936c0803048c08f6d9ad974f40916102788430337f0000000000000000000000000000000000000000000000000000000000000000610b5b565b6103016201518083049161029561028e846109f7565b9442610aa5565b9033885260026020526102cf8189208251906102b082610ab2565b89825242602083015284848301528760608301528a6080830152610ae4565b6102db87600354610aa5565b600355519384933397859094939260609260808301968352602083015260408201520152565b0390a26001805580f35b6020606492519162461bcd60e51b8352820152601860248201527f4c6f636b207365636f6e6473206d757374206265203e203000000000000000006044820152fd5b905082346101c05760208060031936011261010a5761036a610983565b6001600160a01b03169282918291908290815b878352600282528883208054821015610408579061039e818b959493610999565b5060ff8682015416156103c3575b50906103b9600292610c6b565b915091925061037d565b976103ff60029392986127106103f86103b99460036103ef8f9d6103e690610c6b565b9d548093610aa5565b9e015490610a7c565b0490610aa5565b979192506103ac565b89518681526020810189905260408101889052606090f35b90503461019557816003193601126101955761047460c09383610441610983565b6001600160a01b0316808352600260205281832054602435939190610467908510610c2f565b8152600260205220610999565b509182549260018101549260ff600283015491600384015493015416928142101594856104be575b81519687526020870152850152606084015215156080830152151560a0820152f35b8415955061049c565b919050346101955780600319360112610195576104e2610983565b6001600160a01b031683526002602052808320805460243594908510156101c0575060a09361051091610999565b5080549260018201549260ff6002840154926003850154940154169381519586526020860152840152606083015215156080820152f35b50503461010a578160031936011261010a57905490516001600160a01b039091168152602090f35b90503461019557826003193601126101955760209250549051908152f35b50503461010a578160031936011261010a576020906003549051908152f35b83346101c057806003193601126101c0576105c56109cb565b80546001600160a01b03198116825581906001600160a01b03167f8be0079c531659141344cd1fd0a4f28419497f9722a3daafe3b4186f6b6457e08280a380f35b83833461010a576020806003193601126101955761064b8435610627610c0c565b3385526002835261063c848620548210610c2f565b33855260028352838520610999565b508481019081549260ff84166107b0576002820154421061077b578154612710610679600385015483610a7c565b049360016106878684610aa5565b9660ff1916179055600354908103908111610768576003556106aa838854610aa5565b875584519063a9059cbb60e01b90820152336024820152836044820152604481526080810181811067ffffffffffffffff8211176107555791610736610301927f204fccf0d92ed8d48f204adb39b2e81e92bad0dedb93f5716ca9478cfb57de0096959488527f0000000000000000000000000000000000000000000000000000000000000000610ba4565b5494519283923396846040919493926060820195825260208201520152565b634e487b7160e01b875260418852602487fd5b634e487b7160e01b875260118852602487fd5b8660649186519162461bcd60e51b8352820152601060248201526f131bd8dac81b9bdd08195e1c1a5c995960821b6044820152fd5b8660649186519162461bcd60e51b8352820152601160248201527020b63932b0b23c903bb4ba34323930bbb760791b6044820152fd5b83903461010a57602036600319011261010a5761082e906108056109cb565b3530337f0000000000000000000000000000000000000000000000000000000000000000610b5b565b80f35b83833461010a5761084136610968565b61084c929192610c0c565b610857831515610a3b565b801561092d5761016d81116108f3576108928330337f0000000000000000000000000000000000000000000000000000000000000000610b5b565b61089b816109f7565b916201518082026201517f19838204016108e0577f9cfd25589d1eb8ad71e342a86a8524e83522e3936c0803048c08f6d9ad974f409392916102956103019242610aa5565b634e487b7160e01b865260118752602486fd5b815162461bcd60e51b815260208187015260146024820152734d6178206c6f636b20697320333635206461797360601b6044820152606490fd5b815162461bcd60e51b8152602081870152601560248201527404c6f636b2064617973206d757374206265203e203605c1b6044820152606490fd5b604090600319011261097e576004359060243590565b600080fd5b600435906001600160a01b038216820361097e57565b80548210156109b5576000526005602060002091020190600090565b634e487b7160e01b600052603260045260246000fd5b6000546001600160a01b031633036109df57565b60405163118cdaa760e01b8152336004820152602490fd5b61016d811015610a345760b4811015610a2d57605a811015610a2657601e1115610a2057600090565b6103e890565b506109c490565b5061138890565b5061271090565b15610a4257565b60405162461bcd60e51b81526020600482015260126024820152710416d6f756e74206d757374206265203e20360741b6044820152606490fd5b81810292918115918404141715610a8f57565b634e487b7160e01b600052601160045260246000fd5b91908201809211610a8f57565b60a0810190811067ffffffffffffffff821117610ace57604052565b634e487b7160e01b600052604160045260246000fd5b805468010000000000000000811015610ace57610b0691600182018155610999565b610b455760046080918351815560208401516001820155604084015160028201556060840151600382015501910151151560ff80198354169116179055565b634e487b7160e01b600052600060045260246000fd5b6040516323b872dd60e01b60208201526001600160a01b039283166024820152929091166044830152606480830193909352918152610ba291610b9d82610ab2565b610ba4565b565b906000602091828151910182855af115610c00576000513d610bf757506001600160a01b0381163b155b610bd55750565b604051635274afe760e01b81526001600160a01b039091166004820152602490fd5b60011415610bce565b6040513d6000823e3d90fd5b600260015414610c1d576002600155565b604051633ee5aeb560e01b8152600490fd5b15610c3657565b60405162461bcd60e51b815260206004820152600d60248201526c092dcecc2d8d2c840d2dcc8caf609b1b6044820152606490fd5b6000198114610a8f576001019056fea2646970667358221220bd8bc4f5d26ecdf4d65ab4261641b89b4dc56c5656a527f2dcf4e255bb63f85b64736f6c63430008140033",
  "linkReferences": {},
  "deployedLinkReferences": {}
}