{
  "_format": "hh-sol-artifact-1",
  "contractName": "MDTStaking",
  "sourceName": "src/MDTStaking.sol",
  "abi": [
    {
      "inputs": [
        {
          "internalType": "address",
          "name": "_token",
          "type": "address"
        }
      ],
      "stateMutability": "nonpayable",
      "type": "constructor"
    },
    {
      "inputs": [
        {
          "internalType": "address",
          "name": "owner",
          "type": "address"
        }
      ],
      "name": "OwnableInvalidOwner",
      "type": "error"
    },
    {
      "inputs": [
        {
          "internalType": "address",
          "name": "account",
          "type": "address"
        }
      ],
      "name": "OwnableUnauthorizedAccount",
      "type": "error"
    },
    {
      "inputs": [],
      "name": "ReentrancyGuardReentrantCall",
      "type": "error"
    },
    {
      "inputs": [
        {
          "internalType": "address",
          "name": "token",
          "type": "address"
        }
      ],
      "name": "SafeERC20FailedOperation",
      "type": "error"
    },
    {
      "anonymous": false,
      "inputs": [
        {
          "indexed": true,
          "internalType": "address",
          "name": "previousOwner",
          "type": "address"
        },
        {
          "indexed": true,
          "internalType": "address",
          "name": "newOwner",
          "type": "address"
        }
      ],
      "name": "OwnershipTransferred",
      "type": "event"
    },
    {
      "anonymous": false,
      "inputs": [
        {
          "indexed": true,
          "internalType": "address",
          "name": "staker",
          "type": "address"
        },
        {
          "indexed": false,
          "internalType": "uint256",
          "name": "amount",
          "type": "uint256"
        },
        {
          "indexed": false,
          "internalType": "uint256",
          "name": "lockDays",
          "type": "uint256"
        },
        {
          "indexed": false,
          "internalType": "uint256",
          "name": "bonusRate",
          "type": "uint256"
        },
        {
          "indexed": false,
          "internalType": "uint256",
          "name": "unlockTime",
          "type": "uint256"
        }
      ],
      "name": "Staked",
      "type": "event"
    },
    {
      "anonymous": false,
      "inputs": [
        {
          "indexed": true,
          "internalType": "address",
          "name": "staker",
          "type": "address"
        },
        {
          "indexed": false,
          "internalType": "uint256",
          "name": "amount",
          "type": "uint256"
        },
        {
          "indexed": false,
          "internalType": "uint256",
          "name": "bonus",
          "type": "uint256"
        },
        {
          "indexed": false,
          "internalType": "uint256",
          "name": "totalReturned",
          "type": "uint256"
        }
      ],
      "name": "Unstaked",
      "type": "event"
    },
    {
      "inputs": [],
      "name": "MAX_LOCKS_PER_STAKER",
      "outputs": [
        {
          "internalType": "uint256",
          "name": "",
          "type": "uint256"
        }
      ],
      "stateMutability": "view",
      "type": "function"
    },
    {
      "inputs": [
        {
          "internalType": "uint256",
          "name": "amount",
          "type": "uint256"
        }
      ],
      "name": "fundBonusPool",
      "outputs": [],
      "stateMutability": "nonpayable",
      "type": "function"
    },
    {
      "inputs": [
        {
          "internalType": "uint256",
          "name": "lockDays",
          "type": "uint256"
        }
      ],
      "name": "getBonusRate",
      "outputs": [
        {
          "internalType": "uint256",
          "name": "",
          "type": "uint256"
        }
      ],
      "stateMutability": "pure",
      "type": "function"
    },
    {
      "inputs": [
        {
          "internalType": "address",
          "name": "staker",
          "type": "address"
        }
      ],
      "name": "getStakeCount",
      "outputs": [
        {
          "internalType": "uint256",
          "name": "",
          "type": "uint256"
        }
      ],
      "stateMutability": "view",
      "type": "function"
    },
    {
      "inputs": [
        {
          "internalType": "address",
          "name": "staker",
          "type": "address"
        }
      ],
      "name": "getStakeInfo",
      "outputs": [
        {
          "internalType": "uint256",
          "name": "activeStakes",
          "type": "uint256"
        },
        {
          "internalType": "uint256",
          "name": "totalLocked",
          "type": "uint256"
        },
        {
          "internalType": "uint256",
          "name": "pendingBonus",
          "type": "uint256"
        }
      ],
      "stateMutability": "view",
      "type": "function"
    },
    {
      "inputs": [
        {
          "internalType": "address",
          "name": "staker",
          "type": "address"
        },
        {
          "internalType": "uint256",
          "name": "index",
          "type": "uint256"
        }
      ],
      "name": "getStakeLock",
      "outputs": [
        {
          "internalType": "uint256",
          "name": "amount",
          "type": "uint256"
        },
        {
          "internalType": "uint256",
          "name": "lockTime",
          "type": "uint256"
        },
        {
          "internalType": "uint256",
          "name": "unlockTime",
          "type": "uint256"
        },
        {
          "internalType": "uint256",
          "name": "bonusRate",
          "type": "uint256"
        },
        {
          "internalType": "bool",
          "name": "withdrawn",
          "type": "bool"
        },
        {
          "internalType": "bool",
          "name": "canUnlock",
          "type": "bool"
        }
      ],
      "stateMutability": "view",
      "type": "function"
    },
    {
      "inputs": [
        {
          "internalType": "uint256",
          "name": "amount",
          "type": "uint256"
        },
        {
          "internalType": "uint256",
          "name": "lockDays",
          "type": "uint256"
        }
      ],
      "name": "lock",
      "outputs": [],
      "stateMutability": "nonpayable",
      "type": "function"
    },
    {
      "inputs": [
        {
          "internalType": "uint256",
          "name": "amount",
          "type": "uint256"
        },
        {
          "internalType": "uint256",
          "name": "lockSeconds_",
          "type": "uint256"
        }
      ],
      "name": "lockSeconds",
      "outputs": [],
      "stateMutability": "nonpayable",
      "type": "function"
    },
    {
      "inputs": [],
      "name": "owner",
      "outputs": [
        {
          "internalType": "address",
          "name": "",
          "type": "address"
        }
      ],
      "stateMutability": "view",
      "type": "function"
    },
    {
      "inputs": [],
      "name": "renounceOwnership",
      "outputs": [],
      "stateMutability": "nonpayable",
      "type": "function"
    },
    {
      "inputs": [
        {
          "internalType": "address",
          "name": "",
          "type": "address"
        },
        {
          "internalType": "uint256",
          "name": "",
          "type": "uint256"
        }
      ],
      "name": "stakeLocks",
      "outputs": [
        {
          "internalType": "uint256",
          "name": "amount",
          "type": "uint256"
        },
        {
          "internalType": "uint256",
          "name": "lockTime",
          "type": "uint256"
        },
        {
          "internalType": "uint256",
          "name": "unlockTime",
          "type": "uint256"
        },
        {
          "internalType": "uint256",
          "name": "bonusRate",
          "type": "uint256"
        },
        {
          "internalType": "bool",
          "name": "withdrawn",
          "type": "bool"
        }
      ],
      "stateMutability": "view",
      "type": "function"
    },
    {
      "inputs": [],
      "name": "token",
      "outputs": [
        {
          "internalType": "contract IERC20",
          "name": "",
          "type": "address"
        }
      ],
      "stateMutability": "view",
      "type": "function"
    },
    {
      "inputs": [],
      "name": "totalBonusLiability",
      "outputs": [
        {
          "internalType": "uint256",
          "name": "",
          "type": "uint256"
        }
      ],
      "stateMutability": "view",
      "type": "function"
    },
    {
      "inputs": [],
      "name": "totalBonusPaid",
      "outputs": [
        {
          "internalType": "uint256",
          "name": "",
          "type": "uint256"
        }
      ],
      "stateMutability": "view",
      "type": "function"
    },
    {
      "inputs": [],
      "name": "totalStaked",
      "outputs": [
        {
          "internalType": "uint256",
          "name": "",
          "type": "uint256"
        }
      ],
      "stateMutability": "view",
      "type": "function"
    },
    {
      "inputs": [
        {
          "internalType": "address",
          "name": "newOwner",
          "type": "address"
        }
      ],
      "name": "transferOwnership",
      "outputs": [],
      "stateMutability": "nonpayable",
      "type": "function"
    },
    {
      "inputs": [
        {
          "internalType": "uint256",
          "name": "index",
          "type": "uint256"
        }
      ],
      "name": "unlock",
      "outputs": [],
      "stateMutability": "nonpayable",
      "type": "function"
    }
  ],
  "bytecode": "0x60a03461012257601f6110b838819003918201601f19168301916001600160401b038311848410176101275780849260209460405283398101031261012257516001600160a01b0380821691829003610122573315610109576000543360018060a01b0319821617600055604051913391167f8be0079c531659141344cd1fd0a4f28419497f9722a3daafe3b4186f6b6457e0600080a36001805581156100d75750608052604051610f7a908161013e823960805181818160f301528181610281015281816107c7015281816109f30152610a6a0152f35b62461bcd60e51b815260206004820152600d60248201526c24b73b30b634b2103a37b5b2b760991b6044820152606490fd5b604051631e4fbdf760e01b815260006004820152602490fd5b600080fd5b634e487b7160e01b600052604160045260246000fdfe608060408181526004918236101561001657600080fd5b600092833560e01c9182630509b93014610b58575081631338736f14610a1a5781634b7aeb21146109cf5781636198e33914610731578163715018a6146106d7578163817b1cd2146106b85781638325263c1461069a5781638da5cb5b14610672578163971fe937146105f2578163a458bd3e1461054b578163c345315314610478578163cb44acc614610232578163cf57ee69146101fa578163e37cd202146101d0578163e44df161146101b1578163f2fde38b14610126575063fc0c546a146100e057600080fd5b34610122578160031936011261012257517f00000000000000000000000000000000000000000000000000000000000000006001600160a01b03168152602090f35b5080fd5b9050346101ad5760203660031901126101ad57610141610b8e565b9061014a610bd6565b6001600160a01b0391821692831561019757505082546001600160a01b0319811683178455167f8be0079c531659141344cd1fd0a4f28419497f9722a3daafe3b4186f6b6457e08380a380f35b51631e4fbdf760e01b8152908101849052602490fd5b8280fd5b5050346101225781600319360112610122576020906005549051908152f35b8284346101f75760203660031901126101f757506101f060209235610c02565b9051908152f35b80fd5b5050346101225760203660031901126101225760209181906001600160a01b03610222610b8e565b1681526002845220549051908152f35b9050346101ad5761024236610b73565b91909261024d610bd6565b610255610ec9565b610260841515610c46565b8215610435573385526020926002845261027f60328388205410610c87565b7f0000000000000000000000000000000000000000000000000000000000000000916102ad86303386610e18565b620151808204926102bd84610c02565b94866102e36102da6127106102d28a8d610ccb565b049642610cf4565b95600554610cf4565b918260055560248551809581936370a0823160e01b8352309083015260018060a01b03165afa91821561042b5789926103d2575b507f9cfd25589d1eb8ad71e342a86a8524e83522e3936c0803048c08f6d9ad974f40966103626103c895949361035b610396946103568d600354610cf4565b610cf4565b1115610d55565b338a5260028152828a2083519161037883610d01565b8a8352429083015284848301528760608301528a6080830152610da1565b6103a287600354610cf4565b600355519384933397859094939260609260808301968352602083015260408201520152565b0390a26001805580f35b939291508684813d8311610424575b6103eb8183610d33565b8101031261042057925191929091907f9cfd25589d1eb8ad71e342a86a8524e83522e3936c0803048c08f6d9ad974f40610317565b8880fd5b503d6103e1565b83513d8b823e3d90fd5b906020606492519162461bcd60e51b8352820152601860248201527f4c6f636b207365636f6e6473206d757374206265203e203000000000000000006044820152fd5b905082346101f75760208060031936011261012257610495610b8e565b6001600160a01b03169282918291908290815b87835260028252888320805482101561053357906104c9818b959493610ba4565b5060ff8682015416156104ee575b50906104e4600292610f35565b91509192506104a8565b9761052a60029392986127106105236104e494600361051a8f9d61051190610f35565b9d548093610cf4565b9e015490610ccb565b0490610cf4565b979192506104d7565b89518681526020810189905260408101889052606090f35b9050346101ad57816003193601126101ad5761059f60c0938361056c610b8e565b6001600160a01b0316808352600260205281832054602435939190610592908510610eec565b8152600260205220610ba4565b509182549260018101549260ff600283015491600384015493015416928142101594856105e9575b81519687526020870152850152606084015215156080830152151560a0820152f35b841595506105c7565b919050346101ad57806003193601126101ad5761060d610b8e565b6001600160a01b031683526002602052808320805460243594908510156101f7575060a09361063b91610ba4565b5080549260018201549260ff6002840154926003850154940154169381519586526020860152840152606083015215156080820152f35b505034610122578160031936011261012257905490516001600160a01b039091168152602090f35b9050346101ad57826003193601126101ad5760209250549051908152f35b5050346101225781600319360112610122576020906003549051908152f35b83346101f757806003193601126101f7576106f0610bd6565b80546001600160a01b03198116825581906001600160a01b03167f8be0079c531659141344cd1fd0a4f28419497f9722a3daafe3b4186f6b6457e08280a380f35b838334610122576020806003193601126101ad576107768435610752610ec9565b33855260028352610767848620548210610eec565b33855260028352838520610ba4565b50908482019182549160ff83166109995760028201544210610964578154926127106107a6600385015486610ccb565b04936107b28582610cf4565b87516370a0823160e01b8152308b82015290967f000000000000000000000000000000000000000000000000000000000000000093909185816024816001600160a01b0389165afa90811561095a579089918c91610925575b50106108e25760ff191660011790556003546108279190610f28565b600355610835848954610cf4565b885561084384600554610f28565b60055585519163a9059cbb60e01b90830152336024830152846044830152604482526080820182811067ffffffffffffffff8211176108cf576103c8927f204fccf0d92ed8d48f204adb39b2e81e92bad0dedb93f5716ca9478cfb57de00969594926108b0928952610e61565b5494519283923396846040919493926060820195825260208201520152565b634e487b7160e01b885260418952602488fd5b885162461bcd60e51b8152808c01869052601f60248201527f496e73756666696369656e7420626f6e757320706f6f6c2062616c616e6365006044820152606490fd5b809250878092503d8311610953575b61093e8183610d33565b8101031261094f578890518d61080b565b8a80fd5b503d610934565b8a513d8d823e3d90fd5b8660649186519162461bcd60e51b8352820152601060248201526f131bd8dac81b9bdd08195e1c1a5c995960821b6044820152fd5b8660649186519162461bcd60e51b8352820152601160248201527020b63932b0b23c903bb4ba34323930bbb760791b6044820152fd5b83903461012257602036600319011261012257610a17906109ee610bd6565b3530337f0000000000000000000000000000000000000000000000000000000000000000610e18565b80f35b9050346101ad57610a2a36610b73565b610a35939193610ec9565b610a40841515610c46565b8015610b1d5761016d8111610ae35733855260209260028452610a6860328488205410610c87565b7f000000000000000000000000000000000000000000000000000000000000000092610a9686303387610e18565b610a9f83610c02565b93612710610aad8689610ccb565b04926201518085026201517f1986820401610ad0576102e36102da899242610cf4565b634e487b7160e01b8a526011825260248afd5b815162461bcd60e51b815260208185015260146024820152734d6178206c6f636b20697320333635206461797360601b6044820152606490fd5b815162461bcd60e51b8152602081850152601560248201527404c6f636b2064617973206d757374206265203e203605c1b6044820152606490fd5b84903461012257816003193601126101225780603260209252f35b6040906003190112610b89576004359060243590565b600080fd5b600435906001600160a01b0382168203610b8957565b8054821015610bc0576000526005602060002091020190600090565b634e487b7160e01b600052603260045260246000fd5b6000546001600160a01b03163303610bea57565b60405163118cdaa760e01b8152336004820152602490fd5b61016d811015610c3f5760b4811015610c3857605a811015610c3157601e1115610c2b57600090565b6103e890565b506109c490565b5061138890565b5061271090565b15610c4d57565b60405162461bcd60e51b81526020600482015260126024820152710416d6f756e74206d757374206265203e20360741b6044820152606490fd5b15610c8e57565b60405162461bcd60e51b8152602060048201526015602482015274546f6f206d616e7920616374697665206c6f636b7360581b6044820152606490fd5b81810292918115918404141715610cde57565b634e487b7160e01b600052601160045260246000fd5b91908201809211610cde57565b60a0810190811067ffffffffffffffff821117610d1d57604052565b634e487b7160e01b600052604160045260246000fd5b90601f8019910116810190811067ffffffffffffffff821117610d1d57604052565b15610d5c57565b60405162461bcd60e51b815260206004820152601760248201527f496e73756666696369656e7420626f6e757320706f6f6c0000000000000000006044820152606490fd5b805468010000000000000000811015610d1d57610dc391600182018155610ba4565b610e025760046080918351815560208401516001820155604084015160028201556060840151600382015501910151151560ff80198354169116179055565b634e487b7160e01b600052600060045260246000fd5b6040516323b872dd60e01b60208201526001600160a01b039283166024820152929091166044830152606480830193909352918152610e5f91610e5a82610d01565b610e61565b565b906000602091828151910182855af115610ebd576000513d610eb457506001600160a01b0381163b155b610e925750565b604051635274afe760e01b81526001600160a01b039091166004820152602490fd5b60011415610e8b565b6040513d6000823e3d90fd5b600260015414610eda576002600155565b604051633ee5aeb560e01b8152600490fd5b15610ef357565b60405162461bcd60e51b815260206004820152600d60248201526c092dcecc2d8d2c840d2dcc8caf609b1b6044820152606490fd5b91908203918211610cde57565b6000198114610cde576001019056fea2646970667358221220c5a402b03f461565b4fc33cde12e127d3a65f0d31b50ee51b3227f6992b7656864736f6c63430008140033",
  "linkReferences": {},
  "deployedLinkReferences": {}
}