{
  "_format": "hh-sol-artifact-1",
  "contractName": "MDTStaking",
  "sourceName": "src/MDTStaking.sol",
  "abi": [
    {
      "inputs": [
        {
          "internalType": "address",
          "name": "_token",
          "type": "address"
        }
      ],
      "stateMutability": "nonpayable",
      "type": "constructor"
    },
    {
      "inputs": [
        {
          "internalType": "address",
          "name": "owner",
          "type": "address"
        }
      ],
      "name": "OwnableInvalidOwner",
      "type": "error"
    },
    {
      "inputs": [
        {
          "internalType": "address",
          "name": "account",
          "type": "address"
        }
      ],
      "name": "OwnableUnauthorizedAccount",
      "type": "error"
    },
    {
      "inputs": [],
      "name": "ReentrancyGuardReentrantCall",
      "type": "error"
    },
    {
      "inputs": [
        {
          "internalType": "address",
          "name": "token",
          "type": "address"
        }
      ],
      "name": "SafeERC20FailedOperation",
      "type": "error"
    },
    {
      "anonymous": false,
      "inputs": [
        {
          "indexed": true,
          "internalType": "address",
          "name": "previousOwner",
          "type": "address"
        },
        {
          "indexed": true,
          "internalType": "address",
          "name": "newOwner",
          "type": "address"
        }
      ],
      "name": "OwnershipTransferred",
      "type": "event"
    },
    {
      "anonymous": false,
      "inputs": [
        {
          "indexed": true,
          "internalType": "address",
          "name": "staker",
          "type": "address"
        },
        {
          "indexed": false,
          "internalType": "uint256",
          "name": "amount",
          "type": "uint256"
        },
        {
          "indexed": false,
          "internalType": "uint256",
          "name": "lockDays",
          "type": "uint256"
        },
        {
          "indexed": false,
          "internalType": "uint256",
          "name": "bonusRate",
          "type": "uint256"
        },
        {
          "indexed": false,
          "internalType": "uint256",
          "name": "unlockTime",
          "type": "uint256"
        }
      ],
      "name": "Staked",
      "type": "event"
    },
    {
      "anonymous": false,
      "inputs": [
        {
          "indexed": true,
          "internalType": "address",
          "name": "staker",
          "type": "address"
        },
        {
          "indexed": false,
          "internalType": "uint256",
          "name": "amount",
          "type": "uint256"
        },
        {
          "indexed": false,
          "internalType": "uint256",
          "name": "bonus",
          "type": "uint256"
        },
        {
          "indexed": false,
          "internalType": "uint256",
          "name": "totalReturned",
          "type": "uint256"
        }
      ],
      "name": "Unstaked",
      "type": "event"
    },
    {
      "inputs": [
        {
          "internalType": "uint256",
          "name": "amount",
          "type": "uint256"
        }
      ],
      "name": "fundBonusPool",
      "outputs": [],
      "stateMutability": "nonpayable",
      "type": "function"
    },
    {
      "inputs": [
        {
          "internalType": "uint256",
          "name": "lockDays",
          "type": "uint256"
        }
      ],
      "name": "getBonusRate",
      "outputs": [
        {
          "internalType": "uint256",
          "name": "",
          "type": "uint256"
        }
      ],
      "stateMutability": "pure",
      "type": "function"
    },
    {
      "inputs": [
        {
          "internalType": "address",
          "name": "staker",
          "type": "address"
        }
      ],
      "name": "getStakeCount",
      "outputs": [
        {
          "internalType": "uint256",
          "name": "",
          "type": "uint256"
        }
      ],
      "stateMutability": "view",
      "type": "function"
    },
    {
      "inputs": [
        {
          "internalType": "address",
          "name": "staker",
          "type": "address"
        }
      ],
      "name": "getStakeInfo",
      "outputs": [
        {
          "internalType": "uint256",
          "name": "activeStakes",
          "type": "uint256"
        },
        {
          "internalType": "uint256",
          "name": "totalLocked",
          "type": "uint256"
        },
        {
          "internalType": "uint256",
          "name": "pendingBonus",
          "type": "uint256"
        }
      ],
      "stateMutability": "view",
      "type": "function"
    },
    {
      "inputs": [
        {
          "internalType": "address",
          "name": "staker",
          "type": "address"
        },
        {
          "internalType": "uint256",
          "name": "index",
          "type": "uint256"
        }
      ],
      "name": "getStakeLock",
      "outputs": [
        {
          "internalType": "uint256",
          "name": "amount",
          "type": "uint256"
        },
        {
          "internalType": "uint256",
          "name": "lockTime",
          "type": "uint256"
        },
        {
          "internalType": "uint256",
          "name": "unlockTime",
          "type": "uint256"
        },
        {
          "internalType": "uint256",
          "name": "bonusRate",
          "type": "uint256"
        },
        {
          "internalType": "bool",
          "name": "withdrawn",
          "type": "bool"
        },
        {
          "internalType": "bool",
          "name": "canUnlock",
          "type": "bool"
        }
      ],
      "stateMutability": "view",
      "type": "function"
    },
    {
      "inputs": [
        {
          "internalType": "uint256",
          "name": "amount",
          "type": "uint256"
        },
        {
          "internalType": "uint256",
          "name": "lockDays",
          "type": "uint256"
        }
      ],
      "name": "lock",
      "outputs": [],
      "stateMutability": "nonpayable",
      "type": "function"
    },
    {
      "inputs": [
        {
          "internalType": "uint256",
          "name": "amount",
          "type": "uint256"
        },
        {
          "internalType": "uint256",
          "name": "lockSeconds_",
          "type": "uint256"
        }
      ],
      "name": "lockSeconds",
      "outputs": [],
      "stateMutability": "nonpayable",
      "type": "function"
    },
    {
      "inputs": [],
      "name": "owner",
      "outputs": [
        {
          "internalType": "address",
          "name": "",
          "type": "address"
        }
      ],
      "stateMutability": "view",
      "type": "function"
    },
    {
      "inputs": [],
      "name": "renounceOwnership",
      "outputs": [],
      "stateMutability": "nonpayable",
      "type": "function"
    },
    {
      "inputs": [
        {
          "internalType": "address",
          "name": "",
          "type": "address"
        },
        {
          "internalType": "uint256",
          "name": "",
          "type": "uint256"
        }
      ],
      "name": "stakeLocks",
      "outputs": [
        {
          "internalType": "uint256",
          "name": "amount",
          "type": "uint256"
        },
        {
          "internalType": "uint256",
          "name": "lockTime",
          "type": "uint256"
        },
        {
          "internalType": "uint256",
          "name": "unlockTime",
          "type": "uint256"
        },
        {
          "internalType": "uint256",
          "name": "bonusRate",
          "type": "uint256"
        },
        {
          "internalType": "bool",
          "name": "withdrawn",
          "type": "bool"
        }
      ],
      "stateMutability": "view",
      "type": "function"
    },
    {
      "inputs": [],
      "name": "token",
      "outputs": [
        {
          "internalType": "contract IERC20",
          "name": "",
          "type": "address"
        }
      ],
      "stateMutability": "view",
      "type": "function"
    },
    {
      "inputs": [],
      "name": "totalBonusLiability",
      "outputs": [
        {
          "internalType": "uint256",
          "name": "",
          "type": "uint256"
        }
      ],
      "stateMutability": "view",
      "type": "function"
    },
    {
      "inputs": [],
      "name": "totalBonusPaid",
      "outputs": [
        {
          "internalType": "uint256",
          "name": "",
          "type": "uint256"
        }
      ],
      "stateMutability": "view",
      "type": "function"
    },
    {
      "inputs": [],
      "name": "totalStaked",
      "outputs": [
        {
          "internalType": "uint256",
          "name": "",
          "type": "uint256"
        }
      ],
      "stateMutability": "view",
      "type": "function"
    },
    {
      "inputs": [
        {
          "internalType": "address",
          "name": "newOwner",
          "type": "address"
        }
      ],
      "name": "transferOwnership",
      "outputs": [],
      "stateMutability": "nonpayable",
      "type": "function"
    },
    {
      "inputs": [
        {
          "internalType": "uint256",
          "name": "index",
          "type": "uint256"
        }
      ],
      "name": "unlock",
      "outputs": [],
      "stateMutability": "nonpayable",
      "type": "function"
    }
  ],
  "bytecode": "0x60a03461012257601f61101a38819003918201601f19168301916001600160401b038311848410176101275780849260209460405283398101031261012257516001600160a01b0380821691829003610122573315610109576000543360018060a01b0319821617600055604051913391167f8be0079c531659141344cd1fd0a4f28419497f9722a3daafe3b4186f6b6457e0600080a36001805581156100d75750608052604051610edc908161013e823960805181818160e601528181610253015281816107a2015281816109ce0152610a2c0152f35b62461bcd60e51b815260206004820152600d60248201526c24b73b30b634b2103a37b5b2b760991b6044820152606490fd5b604051631e4fbdf760e01b815260006004820152602490fd5b600080fd5b634e487b7160e01b600052604160045260246000fdfe6040608081526004908136101561001557600080fd5b600091823560e01c9081631338736f146109f55781634b7aeb21146109aa5781636198e3391461070c578163715018a6146106b2578163817b1cd2146106935781638325263c146106755781638da5cb5b1461064d578163971fe937146105cd578163a458bd3e14610526578163c345315314610453578163cb44acc614610225578163cf57ee69146101ed578163e37cd202146101c3578163e44df161146101a4578163f2fde38b14610119575063fc0c546a146100d357600080fd5b34610115578160031936011261011557517f00000000000000000000000000000000000000000000000000000000000000006001600160a01b03168152602090f35b5080fd5b9050346101a05760203660031901126101a057610134610b34565b9061013d610b7c565b6001600160a01b0391821692831561018a57505082546001600160a01b0319811683178455167f8be0079c531659141344cd1fd0a4f28419497f9722a3daafe3b4186f6b6457e08380a380f35b51631e4fbdf760e01b8152908101849052602490fd5b8280fd5b5050346101155781600319360112610115576020906005549051908152f35b8284346101ea5760203660031901126101ea57506101e360209235610ba8565b9051908152f35b80fd5b5050346101155760203660031901126101155760209181906001600160a01b03610215610b34565b1681526002845220549051908152f35b9050346101a05761023536610b19565b919092610240610e2b565b61024b841515610bec565b8215610410577f00000000000000000000000000000000000000000000000000000000000000009261027f85303387610d7a565b6201518081049161028f83610ba8565b936102b46102ab6127106102a3888b610c2d565b049442610c56565b93600554610c56565b600581905582516370a0823160e01b815230928101929092526020968790839060249082906001600160a01b03165afa9182156104065789926103ad575b507f9cfd25589d1eb8ad71e342a86a8524e83522e3936c0803048c08f6d9ad974f409661033d6103a3959493610336610371946103318d600354610c56565b610c56565b1115610cb7565b338a5260028152828a2083519161035383610c63565b8a8352429083015284848301528760608301528a6080830152610d03565b61037d87600354610c56565b600355519384933397859094939260609260808301968352602083015260408201520152565b0390a26001805580f35b939291508684813d83116103ff575b6103c68183610c95565b810103126103fb57925191929091907f9cfd25589d1eb8ad71e342a86a8524e83522e3936c0803048c08f6d9ad974f406102f2565b8880fd5b503d6103bc565b83513d8b823e3d90fd5b906020606492519162461bcd60e51b8352820152601860248201527f4c6f636b207365636f6e6473206d757374206265203e203000000000000000006044820152fd5b905082346101ea5760208060031936011261011557610470610b34565b6001600160a01b03169282918291908290815b87835260028252888320805482101561050e57906104a4818b959493610b4a565b5060ff8682015416156104c9575b50906104bf600292610e97565b9150919250610483565b9761050560029392986127106104fe6104bf9460036104f58f9d6104ec90610e97565b9d548093610c56565b9e015490610c2d565b0490610c56565b979192506104b2565b89518681526020810189905260408101889052606090f35b9050346101a057816003193601126101a05761057a60c09383610547610b34565b6001600160a01b031680835260026020528183205460243593919061056d908510610e4e565b8152600260205220610b4a565b509182549260018101549260ff600283015491600384015493015416928142101594856105c4575b81519687526020870152850152606084015215156080830152151560a0820152f35b841595506105a2565b919050346101a057806003193601126101a0576105e8610b34565b6001600160a01b031683526002602052808320805460243594908510156101ea575060a09361061691610b4a565b5080549260018201549260ff6002840154926003850154940154169381519586526020860152840152606083015215156080820152f35b505034610115578160031936011261011557905490516001600160a01b039091168152602090f35b9050346101a057826003193601126101a05760209250549051908152f35b5050346101155781600319360112610115576020906003549051908152f35b83346101ea57806003193601126101ea576106cb610b7c565b80546001600160a01b03198116825581906001600160a01b03167f8be0079c531659141344cd1fd0a4f28419497f9722a3daafe3b4186f6b6457e08280a380f35b838334610115576020806003193601126101a057610751843561072d610e2b565b33855260028352610742848620548210610e4e565b33855260028352838520610b4a565b50908482019182549160ff8316610974576002820154421061093f57815492612710610781600385015486610c2d565b049361078d8582610c56565b87516370a0823160e01b8152308b82015290967f000000000000000000000000000000000000000000000000000000000000000093909185816024816001600160a01b0389165afa908115610935579089918c91610900575b50106108bd5760ff191660011790556003546108029190610e8a565b600355610810848954610c56565b885561081e84600554610e8a565b60055585519163a9059cbb60e01b90830152336024830152846044830152604482526080820182811067ffffffffffffffff8211176108aa576103a3927f204fccf0d92ed8d48f204adb39b2e81e92bad0dedb93f5716ca9478cfb57de009695949261088b928952610dc3565b5494519283923396846040919493926060820195825260208201520152565b634e487b7160e01b885260418952602488fd5b885162461bcd60e51b8152808c01869052601f60248201527f496e73756666696369656e7420626f6e757320706f6f6c2062616c616e6365006044820152606490fd5b809250878092503d831161092e575b6109198183610c95565b8101031261092a578890518d6107e6565b8a80fd5b503d61090f565b8a513d8d823e3d90fd5b8660649186519162461bcd60e51b8352820152601060248201526f131bd8dac81b9bdd08195e1c1a5c995960821b6044820152fd5b8660649186519162461bcd60e51b8352820152601160248201527020b63932b0b23c903bb4ba34323930bbb760791b6044820152fd5b839034610115576020366003190112610115576109f2906109c9610b7c565b3530337f0000000000000000000000000000000000000000000000000000000000000000610d7a565b80f35b9050346101a057610a0536610b19565b610a10939193610e2b565b610a1b841515610bec565b8015610ade5761016d8111610aa4577f000000000000000000000000000000000000000000000000000000000000000092610a5885303387610d7a565b610a6182610ba8565b92612710610a6f8588610c2d565b04916201518084026201517f1985820401610a91576102ab6102b49142610c56565b634e487b7160e01b895260118252602489fd5b815162461bcd60e51b815260208185015260146024820152734d6178206c6f636b20697320333635206461797360601b6044820152606490fd5b815162461bcd60e51b8152602081850152601560248201527404c6f636b2064617973206d757374206265203e203605c1b6044820152606490fd5b6040906003190112610b2f576004359060243590565b600080fd5b600435906001600160a01b0382168203610b2f57565b8054821015610b66576000526005602060002091020190600090565b634e487b7160e01b600052603260045260246000fd5b6000546001600160a01b03163303610b9057565b60405163118cdaa760e01b8152336004820152602490fd5b61016d811015610be55760b4811015610bde57605a811015610bd757601e1115610bd157600090565b6103e890565b506109c490565b5061138890565b5061271090565b15610bf357565b60405162461bcd60e51b81526020600482015260126024820152710416d6f756e74206d757374206265203e20360741b6044820152606490fd5b81810292918115918404141715610c4057565b634e487b7160e01b600052601160045260246000fd5b91908201809211610c4057565b60a0810190811067ffffffffffffffff821117610c7f57604052565b634e487b7160e01b600052604160045260246000fd5b90601f8019910116810190811067ffffffffffffffff821117610c7f57604052565b15610cbe57565b60405162461bcd60e51b815260206004820152601760248201527f496e73756666696369656e7420626f6e757320706f6f6c0000000000000000006044820152606490fd5b805468010000000000000000811015610c7f57610d2591600182018155610b4a565b610d645760046080918351815560208401516001820155604084015160028201556060840151600382015501910151151560ff80198354169116179055565b634e487b7160e01b600052600060045260246000fd5b6040516323b872dd60e01b60208201526001600160a01b039283166024820152929091166044830152606480830193909352918152610dc191610dbc82610c63565b610dc3565b565b906000602091828151910182855af115610e1f576000513d610e1657506001600160a01b0381163b155b610df45750565b604051635274afe760e01b81526001600160a01b039091166004820152602490fd5b60011415610ded565b6040513d6000823e3d90fd5b600260015414610e3c576002600155565b604051633ee5aeb560e01b8152600490fd5b15610e5557565b60405162461bcd60e51b815260206004820152600d60248201526c092dcecc2d8d2c840d2dcc8caf609b1b6044820152606490fd5b91908203918211610c4057565b6000198114610c40576001019056fea26469706673582212203cdb951a6aadd19a1b0ff630624bee63ef82dc55a76db86cb3d340204cf8111864736f6c63430008140033",
  "linkReferences": {},
  "deployedLinkReferences": {}
}