{
  "_format": "hh-sol-artifact-1",
  "contractName": "GradientAggregator",
  "sourceName": "src/GradientAggregator.sol",
  "abi": [
    {
      "inputs": [
        {
          "internalType": "address",
          "name": "_mdtToken",
          "type": "address"
        }
      ],
      "stateMutability": "nonpayable",
      "type": "constructor"
    },
    {
      "inputs": [],
      "name": "AlreadyRegistered",
      "type": "error"
    },
    {
      "inputs": [],
      "name": "AlreadySubmitted",
      "type": "error"
    },
    {
      "inputs": [],
      "name": "InsufficientDeposit",
      "type": "error"
    },
    {
      "inputs": [],
      "name": "InsufficientSubmissions",
      "type": "error"
    },
    {
      "inputs": [],
      "name": "InvalidParameters",
      "type": "error"
    },
    {
      "inputs": [],
      "name": "JobNotOpen",
      "type": "error"
    },
    {
      "inputs": [],
      "name": "JobNotTraining",
      "type": "error"
    },
    {
      "inputs": [],
      "name": "MaxParticipantsReached",
      "type": "error"
    },
    {
      "inputs": [],
      "name": "NotJobCreator",
      "type": "error"
    },
    {
      "inputs": [],
      "name": "NotRegistered",
      "type": "error"
    },
    {
      "inputs": [
        {
          "internalType": "address",
          "name": "owner",
          "type": "address"
        }
      ],
      "name": "OwnableInvalidOwner",
      "type": "error"
    },
    {
      "inputs": [
        {
          "internalType": "address",
          "name": "account",
          "type": "address"
        }
      ],
      "name": "OwnableUnauthorizedAccount",
      "type": "error"
    },
    {
      "inputs": [],
      "name": "ReentrancyGuardReentrantCall",
      "type": "error"
    },
    {
      "inputs": [],
      "name": "RoundNotActive",
      "type": "error"
    },
    {
      "inputs": [
        {
          "internalType": "address",
          "name": "token",
          "type": "address"
        }
      ],
      "name": "SafeERC20FailedOperation",
      "type": "error"
    },
    {
      "anonymous": false,
      "inputs": [
        {
          "indexed": true,
          "internalType": "uint256",
          "name": "jobId",
          "type": "uint256"
        },
        {
          "indexed": true,
          "internalType": "uint256",
          "name": "round",
          "type": "uint256"
        },
        {
          "indexed": true,
          "internalType": "address",
          "name": "trainer",
          "type": "address"
        },
        {
          "indexed": false,
          "internalType": "bytes32",
          "name": "gradientHash",
          "type": "bytes32"
        }
      ],
      "name": "GradientSubmitted",
      "type": "event"
    },
    {
      "anonymous": false,
      "inputs": [
        {
          "indexed": true,
          "internalType": "uint256",
          "name": "jobId",
          "type": "uint256"
        },
        {
          "indexed": false,
          "internalType": "uint256",
          "name": "refundAmount",
          "type": "uint256"
        }
      ],
      "name": "JobCancelled",
      "type": "event"
    },
    {
      "anonymous": false,
      "inputs": [
        {
          "indexed": true,
          "internalType": "uint256",
          "name": "jobId",
          "type": "uint256"
        },
        {
          "indexed": false,
          "internalType": "uint256",
          "name": "totalRounds",
          "type": "uint256"
        }
      ],
      "name": "JobCompleted",
      "type": "event"
    },
    {
      "anonymous": false,
      "inputs": [
        {
          "indexed": true,
          "internalType": "uint256",
          "name": "jobId",
          "type": "uint256"
        },
        {
          "indexed": true,
          "internalType": "bytes32",
          "name": "modelId",
          "type": "bytes32"
        },
        {
          "indexed": false,
          "internalType": "address",
          "name": "creator",
          "type": "address"
        },
        {
          "indexed": false,
          "internalType": "uint256",
          "name": "totalRounds",
          "type": "uint256"
        },
        {
          "indexed": false,
          "internalType": "uint256",
          "name": "rewardPerRound",
          "type": "uint256"
        }
      ],
      "name": "JobCreated",
      "type": "event"
    },
    {
      "anonymous": false,
      "inputs": [
        {
          "indexed": true,
          "internalType": "address",
          "name": "previousOwner",
          "type": "address"
        },
        {
          "indexed": true,
          "internalType": "address",
          "name": "newOwner",
          "type": "address"
        }
      ],
      "name": "OwnershipTransferred",
      "type": "event"
    },
    {
      "anonymous": false,
      "inputs": [
        {
          "indexed": true,
          "internalType": "uint256",
          "name": "jobId",
          "type": "uint256"
        },
        {
          "indexed": true,
          "internalType": "uint256",
          "name": "round",
          "type": "uint256"
        },
        {
          "indexed": true,
          "internalType": "address",
          "name": "trainer",
          "type": "address"
        },
        {
          "indexed": false,
          "internalType": "uint256",
          "name": "amount",
          "type": "uint256"
        }
      ],
      "name": "RewardDistributed",
      "type": "event"
    },
    {
      "anonymous": false,
      "inputs": [
        {
          "indexed": true,
          "internalType": "uint256",
          "name": "jobId",
          "type": "uint256"
        },
        {
          "indexed": true,
          "internalType": "uint256",
          "name": "round",
          "type": "uint256"
        },
        {
          "indexed": false,
          "internalType": "bytes32",
          "name": "aggregatedCheckpoint",
          "type": "bytes32"
        },
        {
          "indexed": false,
          "internalType": "uint256",
          "name": "submissionCount",
          "type": "uint256"
        }
      ],
      "name": "RoundCompleted",
      "type": "event"
    },
    {
      "anonymous": false,
      "inputs": [
        {
          "indexed": true,
          "internalType": "uint256",
          "name": "jobId",
          "type": "uint256"
        },
        {
          "indexed": true,
          "internalType": "address",
          "name": "trainer",
          "type": "address"
        }
      ],
      "name": "TrainerRegistered",
      "type": "event"
    },
    {
      "anonymous": false,
      "inputs": [
        {
          "indexed": true,
          "internalType": "uint256",
          "name": "jobId",
          "type": "uint256"
        },
        {
          "indexed": false,
          "internalType": "uint256",
          "name": "participantCount",
          "type": "uint256"
        }
      ],
      "name": "TrainingStarted",
      "type": "event"
    },
    {
      "inputs": [],
      "name": "MAX_PARTICIPANTS",
      "outputs": [
        {
          "internalType": "uint256",
          "name": "",
          "type": "uint256"
        }
      ],
      "stateMutability": "view",
      "type": "function"
    },
    {
      "inputs": [
        {
          "internalType": "uint256",
          "name": "jobId",
          "type": "uint256"
        }
      ],
      "name": "cancelJob",
      "outputs": [],
      "stateMutability": "nonpayable",
      "type": "function"
    },
    {
      "inputs": [
        {
          "internalType": "bytes32",
          "name": "modelId",
          "type": "bytes32"
        },
        {
          "internalType": "bytes32",
          "name": "datasetRef",
          "type": "bytes32"
        },
        {
          "internalType": "uint256",
          "name": "totalRounds",
          "type": "uint256"
        },
        {
          "internalType": "uint256",
          "name": "minParticipants",
          "type": "uint256"
        },
        {
          "internalType": "uint256",
          "name": "rewardPerRound",
          "type": "uint256"
        }
      ],
      "name": "createJob",
      "outputs": [
        {
          "internalType": "uint256",
          "name": "jobId",
          "type": "uint256"
        }
      ],
      "stateMutability": "nonpayable",
      "type": "function"
    },
    {
      "inputs": [],
      "name": "getActiveJobsCount",
      "outputs": [
        {
          "internalType": "uint256",
          "name": "count",
          "type": "uint256"
        }
      ],
      "stateMutability": "view",
      "type": "function"
    },
    {
      "inputs": [
        {
          "internalType": "uint256",
          "name": "jobId",
          "type": "uint256"
        }
      ],
      "name": "getJob",
      "outputs": [
        {
          "components": [
            {
              "internalType": "bytes32",
              "name": "modelId",
              "type": "bytes32"
            },
            {
              "internalType": "bytes32",
              "name": "datasetRef",
              "type": "bytes32"
            },
            {
              "internalType": "uint256",
              "name": "totalRounds",
              "type": "uint256"
            },
            {
              "internalType": "uint256",
              "name": "currentRound",
              "type": "uint256"
            },
            {
              "internalType": "uint256",
              "name": "minParticipants",
              "type": "uint256"
            },
            {
              "internalType": "uint256",
              "name": "rewardPerRound",
              "type": "uint256"
            },
            {
              "internalType": "address",
              "name": "creator",
              "type": "address"
            },
            {
              "internalType": "enum GradientAggregator.JobStatus",
              "name": "status",
              "type": "uint8"
            },
            {
              "internalType": "uint256",
              "name": "createdAt",
              "type": "uint256"
            },
            {
              "internalType": "uint256",
              "name": "depositedRewards",
              "type": "uint256"
            }
          ],
          "internalType": "struct GradientAggregator.TrainingJob",
          "name": "",
          "type": "tuple"
        }
      ],
      "stateMutability": "view",
      "type": "function"
    },
    {
      "inputs": [
        {
          "internalType": "uint256",
          "name": "jobId",
          "type": "uint256"
        }
      ],
      "name": "getJobTrainers",
      "outputs": [
        {
          "internalType": "address[]",
          "name": "",
          "type": "address[]"
        }
      ],
      "stateMutability": "view",
      "type": "function"
    },
    {
      "inputs": [
        {
          "internalType": "uint256",
          "name": "jobId",
          "type": "uint256"
        },
        {
          "internalType": "uint256",
          "name": "round",
          "type": "uint256"
        }
      ],
      "name": "getRoundSubmissions",
      "outputs": [
        {
          "components": [
            {
              "internalType": "address",
              "name": "trainer",
              "type": "address"
            },
            {
              "internalType": "bytes32",
              "name": "gradientHash",
              "type": "bytes32"
            },
            {
              "internalType": "bytes32",
              "name": "checkpointHash",
              "type": "bytes32"
            },
            {
              "internalType": "uint256",
              "name": "timestamp",
              "type": "uint256"
            },
            {
              "internalType": "bool",
              "name": "verified",
              "type": "bool"
            }
          ],
          "internalType": "struct GradientAggregator.GradientSubmission[]",
          "name": "",
          "type": "tuple[]"
        }
      ],
      "stateMutability": "view",
      "type": "function"
    },
    {
      "inputs": [
        {
          "internalType": "uint256",
          "name": "",
          "type": "uint256"
        },
        {
          "internalType": "address",
          "name": "",
          "type": "address"
        }
      ],
      "name": "isTrainer",
      "outputs": [
        {
          "internalType": "bool",
          "name": "",
          "type": "bool"
        }
      ],
      "stateMutability": "view",
      "type": "function"
    },
    {
      "inputs": [
        {
          "internalType": "uint256",
          "name": "",
          "type": "uint256"
        },
        {
          "internalType": "uint256",
          "name": "",
          "type": "uint256"
        }
      ],
      "name": "jobTrainers",
      "outputs": [
        {
          "internalType": "address",
          "name": "",
          "type": "address"
        }
      ],
      "stateMutability": "view",
      "type": "function"
    },
    {
      "inputs": [
        {
          "internalType": "uint256",
          "name": "",
          "type": "uint256"
        }
      ],
      "name": "jobs",
      "outputs": [
        {
          "internalType": "bytes32",
          "name": "modelId",
          "type": "bytes32"
        },
        {
          "internalType": "bytes32",
          "name": "datasetRef",
          "type": "bytes32"
        },
        {
          "internalType": "uint256",
          "name": "totalRounds",
          "type": "uint256"
        },
        {
          "internalType": "uint256",
          "name": "currentRound",
          "type": "uint256"
        },
        {
          "internalType": "uint256",
          "name": "minParticipants",
          "type": "uint256"
        },
        {
          "internalType": "uint256",
          "name": "rewardPerRound",
          "type": "uint256"
        },
        {
          "internalType": "address",
          "name": "creator",
          "type": "address"
        },
        {
          "internalType": "enum GradientAggregator.JobStatus",
          "name": "status",
          "type": "uint8"
        },
        {
          "internalType": "uint256",
          "name": "createdAt",
          "type": "uint256"
        },
        {
          "internalType": "uint256",
          "name": "depositedRewards",
          "type": "uint256"
        }
      ],
      "stateMutability": "view",
      "type": "function"
    },
    {
      "inputs": [],
      "name": "mdtToken",
      "outputs": [
        {
          "internalType": "contract IERC20",
          "name": "",
          "type": "address"
        }
      ],
      "stateMutability": "view",
      "type": "function"
    },
    {
      "inputs": [],
      "name": "nextJobId",
      "outputs": [
        {
          "internalType": "uint256",
          "name": "",
          "type": "uint256"
        }
      ],
      "stateMutability": "view",
      "type": "function"
    },
    {
      "inputs": [],
      "name": "owner",
      "outputs": [
        {
          "internalType": "address",
          "name": "",
          "type": "address"
        }
      ],
      "stateMutability": "view",
      "type": "function"
    },
    {
      "inputs": [
        {
          "internalType": "uint256",
          "name": "jobId",
          "type": "uint256"
        }
      ],
      "name": "registerAsTrainer",
      "outputs": [],
      "stateMutability": "nonpayable",
      "type": "function"
    },
    {
      "inputs": [],
      "name": "renounceOwnership",
      "outputs": [],
      "stateMutability": "nonpayable",
      "type": "function"
    },
    {
      "inputs": [
        {
          "internalType": "uint256",
          "name": "",
          "type": "uint256"
        },
        {
          "internalType": "uint256",
          "name": "",
          "type": "uint256"
        }
      ],
      "name": "roundCheckpoints",
      "outputs": [
        {
          "internalType": "bytes32",
          "name": "",
          "type": "bytes32"
        }
      ],
      "stateMutability": "view",
      "type": "function"
    },
    {
      "inputs": [
        {
          "internalType": "uint256",
          "name": "",
          "type": "uint256"
        },
        {
          "internalType": "uint256",
          "name": "",
          "type": "uint256"
        },
        {
          "internalType": "uint256",
          "name": "",
          "type": "uint256"
        }
      ],
      "name": "roundSubmissions",
      "outputs": [
        {
          "internalType": "address",
          "name": "trainer",
          "type": "address"
        },
        {
          "internalType": "bytes32",
          "name": "gradientHash",
          "type": "bytes32"
        },
        {
          "internalType": "bytes32",
          "name": "checkpointHash",
          "type": "bytes32"
        },
        {
          "internalType": "uint256",
          "name": "timestamp",
          "type": "uint256"
        },
        {
          "internalType": "bool",
          "name": "verified",
          "type": "bool"
        }
      ],
      "stateMutability": "view",
      "type": "function"
    },
    {
      "inputs": [
        {
          "internalType": "uint256",
          "name": "jobId",
          "type": "uint256"
        },
        {
          "internalType": "bytes32",
          "name": "gradientHash",
          "type": "bytes32"
        },
        {
          "internalType": "bytes32",
          "name": "checkpointHash",
          "type": "bytes32"
        }
      ],
      "name": "submitGradient",
      "outputs": [],
      "stateMutability": "nonpayable",
      "type": "function"
    },
    {
      "inputs": [
        {
          "internalType": "address",
          "name": "newOwner",
          "type": "address"
        }
      ],
      "name": "transferOwnership",
      "outputs": [],
      "stateMutability": "nonpayable",
      "type": "function"
    }
  ],
  "bytecode": "0x60a0346100f957601f6115a338819003918201601f19168301916001600160401b038311848410176100fe578084926020946040528339810103126100f957516001600160a01b03808216918290036100f95733156100e0576000543360018060a01b0319821617600055604051913391167f8be0079c531659141344cd1fd0a4f28419497f9722a3daafe3b4186f6b6457e0600080a36001805581156100d1575060805260405161148e90816101158239608051818181610108015281816105ac01528181610a430152610e740152f35b630e52390960e41b8152600490fd5b604051631e4fbdf760e01b815260006004820152602490fd5b600080fd5b634e487b7160e01b600052604160045260246000fdfe608080604052600436101561001357600080fd5b60e0600035811c918263044abddc146110c1575081630479376f1461107757816304d555b8146110445781630950c0d714610b2d578163180aedf314610a8b5781631dffa3dc1461096f57816342f4e58e1461082d5781635b7c278e14610777578163715018a61461071e578163828ad2321461052c5781638da5cb5b14610503578163a0b7171c1461047a578163b0c2aa5e1461045c578163bf22c457146102f357508063c79a35e81461023b578063e8471056146101e9578063f2fde38b14610159578063f3baf0701461013c5763f70b5c06146100f257600080fd5b34610137576000366003190112610137576040517f00000000000000000000000000000000000000000000000000000000000000006001600160a01b03168152602090f35b600080fd5b346101375760003660031901126101375760206040516103e88152f35b34610137576020366003190112610137576004356001600160a01b0381811691829003610137576101886112c5565b81156101d057600054826bffffffffffffffffffffffff60a01b821617600055167f8be0079c531659141344cd1fd0a4f28419497f9722a3daafe3b4186f6b6457e0600080a3005b604051631e4fbdf760e01b815260006004820152602490fd5b34610137576040366003190112610137576024356001600160a01b03811690819003610137576004356000526005602052604060002090600052602052602060ff604060002054166040519015158152f35b34610137576020806003193601126101375760043560005260048152604060002060405190818382549182815201908192600052846000209060005b868282106102d657868661028d8288038361134c565b604051928392818401908285525180915260408401929160005b8281106102b657505050500390f35b83516001600160a01b0316855286955093810193928101926001016102a7565b83546001600160a01b031685529093019260019283019201610277565b34610137576020366003190112610137576040516103108161132f565b6000815260006020820152600060408201526000606082015260006080820152600060a0820152600060c08201526000828201526101006000818301526000610120809301526004356000526003602052604060002090604051916103748361132f565b805483526001810154946020840195865260028201546040850190815260038301546060860190815260048401549060808701918252600585015460a0880190815260068601549260c089019260ff60018060a01b0395868116865260a01c1695878b019660058110156104465787526007890154988a8c01998a52600801549a8c81019b8c526040519d8e915182525190602001525160408d01525160608c01525160808b01525160a08a0152511660c0880152519086016104369161129c565b5190840152519082015261014090f35b634e487b7160e01b600052602160045260246000fd5b34610137576000366003190112610137576020600254604051908152f35b346101375760603660031901126101375760443560043560005260066020526040600020602435600052602052604060002080548210156101375760a0916104c1916112a9565b50600180831b0381541690600181015490600281015460ff60046003840154930154169260405194855260208501526040840152606083015215156080820152f35b34610137576000366003190112610137576000546040516001600160a01b039091168152602090f35b346101375760a0366003190112610137576004356044359060643592608435936105546113d6565b82158015610716575b801561070e575b6106fc5761057285856112f1565b80156106fc576105d06040516323b872dd60e01b6020820152336024820152306044820152826064820152606481526105aa81611313565b7f000000000000000000000000000000000000000000000000000000000000000061136e565b600254946105dd86611304565b600255604051966105ed8861132f565b8588526020880197602435895260408101948386526060820190600082526080830190815260a083019184835260c0840198338a528401976000895261010085019c8d42905261012086019889528c6000526003602052604060002095518655516001860155516002850155516003840155516004830155516005820155600681019560018060a01b0390511693865495519060058210156104465760209a8a987f9bfedd04b6c27312c6ab4f6dc3bc5c815049dfe048f506054cb0a1c5dabecf139860609860089560ff60a01b9060a01b16916affffffffffffffffffffff60a81b16171790555160078401555191015560405191338352888301526040820152a360018055604051908152f35b604051630e52390960e41b8152600490fd5b508015610564565b50831561055d565b34610137576000366003190112610137576107376112c5565b600080546001600160a01b0319811682556001600160a01b03167f8be0079c531659141344cd1fd0a4f28419497f9722a3daafe3b4186f6b6457e08280a3005b3461013757600036600319011261013757600080600254905b8181106107a257602083604051908152f35b80600052600360209080825260ff60068060406000200154908260a092831c1693600594858110156104465715958615610805575b5050505050506107f0575b6107eb90611304565b610790565b916107fd6107eb91611304565b9290506107e2565b6000888152919052604090200154901c169150811015610446576001148480808080806107d7565b346101375761083b36611258565b90600052602090600682526040600020906000528152604060002090815467ffffffffffffffff81116109595760405190600561087c8483831b018461134c565b8183528383018095600052846000206000915b84831061090457604080518881528751818a018190528a928201908a60005b8281106108bb5784840385f35b855180516001600160a01b03168552808301518584015260408082015190860152606080820151908601526080908101511515908501529481019460a0909301926001016108ae565b838760019260405161091581611313565b848060a01b0386541681528486015483820152600286015460408201526003860154606082015260ff6004870154161515608082015281520192019201919061088f565b634e487b7160e01b600052604160045260246000fd5b346101375760203660031901126101375760043561098b6113d6565b80600052600360205260406000206006810190815460018060a01b038116803303610a795760ff8260a01c1660058110156104465760038114908115610a6e575b506106fc577f7e3805011acb8d49832d7ef085841e251e66267c06e54e0ac20cb09f3c696d3b93610a16846008610a0e600360209801546005840154906112f1565b9101546113f9565b60ff60a01b19909316600160a21b1790558180610a3d575b5050604051908152a260018055005b610a67917f0000000000000000000000000000000000000000000000000000000000000000611406565b8481610a2e565b6004915014866109cc565b604051639b1606c560e01b8152600490fd5b3461013757602036600319011261013757610140906004356000526003602052604060002090815491610b1f60018201549260ff60028401549160038501546004860154600587015491600688015495600860078a0154990154996040519b8c5260208c015260408b015260608a0152608089015260a088015260018060a01b03831660c088015286019160a01c1661129c565b610100830152610120820152f35b3461013757606036600319011261013757610b466113d6565b6004356000526003602052604060002060ff600682015460a01c1660058110156104465760010361103257600435600052600560205260406000203360005260205260ff6040600020541615611020576003810154600435600052600660205260406000208160005260205260406000206000918154925b838110610fe5575060405192610bd384611313565b3384526024356020850152604435604085015242606085015260016080850152600160401b81101561095957806001610c0f92018455836112a9565b939093610fcf5760806004809560018060a01b038451166bffffffffffffffffffffffff60a01b82541617815560208401516001820155604084015160028201556060840151600382015501910151151560ff8019835416911617905560405190602435825233917fc3684a0c96ca113990e886787446fa758a79eff57dafb63fa2a86c04346f79566020863592a4549101541115610caf575b60018055005b6004356000908152600360208181526040808420928301546006835281852081865290925283208054929391929091606091835b818310610f665750505060208151910120906004356000526007602052604060002083600052602052816040600020556000808254905b818110610f2c5750508015908115610dd7575b50505460405191825260208201527f3fce885e3ed0732a07628600cae71c392194073c4b3d2e41ccef82c8cf7f07a3604060043592a3610d706003820154611304565b90816003820155600281015480921015610d8c575b5050610ca9565b600601805460ff60a01b1916600360a01b179055604051908152600435907f152d31e943f2d79d470375c901f5a6cfb7d465ee4969db651885948d3b6015b890602090a28080610d85565b909460058195939495015495610f16576000805b8554811015610f085760ff6004610e0283896112a9565b50015416610e19575b610e1490611304565b610deb565b90610e2390611304565b90838203610efc5760058301549084600019810111610ee657610e59610e1492610e536000198801888d046112f1565b906113f9565b610e9881610e67848b6112a9565b50546001600160a01b03167f0000000000000000000000000000000000000000000000000000000000000000611406565b86610ea3838a6112a9565b50546040519283526001600160a01b031691600435907f683b5b362bae69cad1afded62ff468e9b9ea9df8ab2303d0018e71125ad2ef6390602090a49050610e0b565b634e487b7160e01b600052601160045260246000fd5b610e1490848904610e59565b505094505091908480610d2d565b634e487b7160e01b600052601260045260246000fd5b60ff6004610f3a83876112a9565b50015416610f51575b610f4c90611304565b610d1a565b91610f5e610f4c91611304565b929050610f43565b9091926001610f7585846112a9565b5001546040519180519060005b828110610fba5750506040838093610fad93610fb3960190602082015203602081018452018261134c565b93611304565b9190610ce3565b80602080928401015182828801015201610f82565b634e487b7160e01b600052600060045260246000fd5b610fef81846112a9565b50546001600160a01b0316331461100e5761100990611304565b610bbe565b604051639fbfc58960e01b8152600490fd5b60405163aba4733960e01b8152600490fd5b604051633c6e2e4b60e11b8152600490fd5b346101375761105236611258565b9060005260076020526040600020906000526020526020604060002054604051908152f35b346101375761108536611258565b90600052600460205260406000208054821015610137576020916110a89161126e565b905460405160039290921b1c6001600160a01b03168152f35b346101375760209081600319360112610137576004359182600052600381526040600020600681019260ff845460a01c1660058110156104465761124957508360005260058252604060002033600052825260ff604060002054166112375783600052600482526103e8604060002054101561122557836000526005825260406000203360005282526040600020600160ff19825416179055836000526004825260406000208054600160401b811015610959576111849160018201815561126e565b81546001600160a01b0360039290921b91821b1916339182901b17909155847f38a7ff6902e6a8b42654af26677e2f0ca190d5d044b0d1bb76d8b597cf4665d2600080a383600052600482526040600020906004825491015411156111e557005b825460ff60a01b1916600160a01b1790925590546040519081527f9d5819c7ffd7580f18ec65632cf8672da6a217ee456af540fff3b0ea800c63059190a2005b604051636c8c8d2160e01b8152600490fd5b604051630ea075bf60e21b8152600490fd5b63d76ebd0f60e01b8152600490fd5b6040906003190112610137576004359060243590565b80548210156112865760005260206000200190600090565b634e487b7160e01b600052603260045260246000fd5b9060058210156104465752565b8054821015611286576000526005602060002091020190600090565b6000546001600160a01b031633036112d957565b60405163118cdaa760e01b8152336004820152602490fd5b81810292918115918404141715610ee657565b6000198114610ee65760010190565b60a0810190811067ffffffffffffffff82111761095957604052565b610140810190811067ffffffffffffffff82111761095957604052565b90601f8019910116810190811067ffffffffffffffff82111761095957604052565b906000602091828151910182855af1156113ca576000513d6113c157506001600160a01b0381163b155b61139f5750565b604051635274afe760e01b81526001600160a01b039091166004820152602490fd5b60011415611398565b6040513d6000823e3d90fd5b6002600154146113e7576002600155565b604051633ee5aeb560e01b8152600490fd5b91908203918211610ee657565b60405163a9059cbb60e01b60208201526001600160a01b039092166024830152604480830193909352918152608081019167ffffffffffffffff831182841017610959576114569260405261136e565b56fea26469706673582212207376ebe69c869b33aabf1c46f418aca9d937b28ae39c3c6eb8a23d966b7f8c0964736f6c63430008140033",
  "linkReferences": {},
  "deployedLinkReferences": {}
}