{
  "_format": "hh-sol-artifact-1",
  "contractName": "GradientAggregator",
  "sourceName": "src/GradientAggregator.sol",
  "abi": [
    {
      "inputs": [
        {
          "internalType": "address",
          "name": "_mdtToken",
          "type": "address"
        }
      ],
      "stateMutability": "nonpayable",
      "type": "constructor"
    },
    {
      "inputs": [],
      "name": "AlreadyRegistered",
      "type": "error"
    },
    {
      "inputs": [],
      "name": "AlreadySubmitted",
      "type": "error"
    },
    {
      "inputs": [],
      "name": "InsufficientDeposit",
      "type": "error"
    },
    {
      "inputs": [],
      "name": "InsufficientSubmissions",
      "type": "error"
    },
    {
      "inputs": [],
      "name": "InvalidParameters",
      "type": "error"
    },
    {
      "inputs": [],
      "name": "JobNotOpen",
      "type": "error"
    },
    {
      "inputs": [],
      "name": "JobNotTraining",
      "type": "error"
    },
    {
      "inputs": [],
      "name": "MaxParticipantsReached",
      "type": "error"
    },
    {
      "inputs": [],
      "name": "NotJobCreator",
      "type": "error"
    },
    {
      "inputs": [],
      "name": "NotRegistered",
      "type": "error"
    },
    {
      "inputs": [
        {
          "internalType": "address",
          "name": "owner",
          "type": "address"
        }
      ],
      "name": "OwnableInvalidOwner",
      "type": "error"
    },
    {
      "inputs": [
        {
          "internalType": "address",
          "name": "account",
          "type": "address"
        }
      ],
      "name": "OwnableUnauthorizedAccount",
      "type": "error"
    },
    {
      "inputs": [],
      "name": "ReentrancyGuardReentrantCall",
      "type": "error"
    },
    {
      "inputs": [],
      "name": "RoundNotActive",
      "type": "error"
    },
    {
      "inputs": [
        {
          "internalType": "address",
          "name": "token",
          "type": "address"
        }
      ],
      "name": "SafeERC20FailedOperation",
      "type": "error"
    },
    {
      "anonymous": false,
      "inputs": [
        {
          "indexed": true,
          "internalType": "uint256",
          "name": "jobId",
          "type": "uint256"
        },
        {
          "indexed": true,
          "internalType": "uint256",
          "name": "round",
          "type": "uint256"
        },
        {
          "indexed": true,
          "internalType": "address",
          "name": "trainer",
          "type": "address"
        },
        {
          "indexed": false,
          "internalType": "bytes32",
          "name": "gradientHash",
          "type": "bytes32"
        }
      ],
      "name": "GradientSubmitted",
      "type": "event"
    },
    {
      "anonymous": false,
      "inputs": [
        {
          "indexed": true,
          "internalType": "uint256",
          "name": "jobId",
          "type": "uint256"
        },
        {
          "indexed": false,
          "internalType": "uint256",
          "name": "refundAmount",
          "type": "uint256"
        }
      ],
      "name": "JobCancelled",
      "type": "event"
    },
    {
      "anonymous": false,
      "inputs": [
        {
          "indexed": true,
          "internalType": "uint256",
          "name": "jobId",
          "type": "uint256"
        },
        {
          "indexed": false,
          "internalType": "uint256",
          "name": "totalRounds",
          "type": "uint256"
        }
      ],
      "name": "JobCompleted",
      "type": "event"
    },
    {
      "anonymous": false,
      "inputs": [
        {
          "indexed": true,
          "internalType": "uint256",
          "name": "jobId",
          "type": "uint256"
        },
        {
          "indexed": true,
          "internalType": "bytes32",
          "name": "modelId",
          "type": "bytes32"
        },
        {
          "indexed": false,
          "internalType": "address",
          "name": "creator",
          "type": "address"
        },
        {
          "indexed": false,
          "internalType": "uint256",
          "name": "totalRounds",
          "type": "uint256"
        },
        {
          "indexed": false,
          "internalType": "uint256",
          "name": "rewardPerRound",
          "type": "uint256"
        }
      ],
      "name": "JobCreated",
      "type": "event"
    },
    {
      "anonymous": false,
      "inputs": [
        {
          "indexed": true,
          "internalType": "address",
          "name": "previousOwner",
          "type": "address"
        },
        {
          "indexed": true,
          "internalType": "address",
          "name": "newOwner",
          "type": "address"
        }
      ],
      "name": "OwnershipTransferred",
      "type": "event"
    },
    {
      "anonymous": false,
      "inputs": [
        {
          "indexed": true,
          "internalType": "uint256",
          "name": "jobId",
          "type": "uint256"
        },
        {
          "indexed": true,
          "internalType": "uint256",
          "name": "round",
          "type": "uint256"
        },
        {
          "indexed": true,
          "internalType": "address",
          "name": "trainer",
          "type": "address"
        },
        {
          "indexed": false,
          "internalType": "uint256",
          "name": "amount",
          "type": "uint256"
        }
      ],
      "name": "RewardDistributed",
      "type": "event"
    },
    {
      "anonymous": false,
      "inputs": [
        {
          "indexed": true,
          "internalType": "uint256",
          "name": "jobId",
          "type": "uint256"
        },
        {
          "indexed": true,
          "internalType": "uint256",
          "name": "round",
          "type": "uint256"
        },
        {
          "indexed": false,
          "internalType": "bytes32",
          "name": "aggregatedCheckpoint",
          "type": "bytes32"
        },
        {
          "indexed": false,
          "internalType": "uint256",
          "name": "submissionCount",
          "type": "uint256"
        }
      ],
      "name": "RoundCompleted",
      "type": "event"
    },
    {
      "anonymous": false,
      "inputs": [
        {
          "indexed": true,
          "internalType": "uint256",
          "name": "jobId",
          "type": "uint256"
        },
        {
          "indexed": true,
          "internalType": "address",
          "name": "trainer",
          "type": "address"
        }
      ],
      "name": "TrainerRegistered",
      "type": "event"
    },
    {
      "anonymous": false,
      "inputs": [
        {
          "indexed": true,
          "internalType": "uint256",
          "name": "jobId",
          "type": "uint256"
        },
        {
          "indexed": false,
          "internalType": "uint256",
          "name": "participantCount",
          "type": "uint256"
        }
      ],
      "name": "TrainingStarted",
      "type": "event"
    },
    {
      "inputs": [],
      "name": "MAX_PARTICIPANTS",
      "outputs": [
        {
          "internalType": "uint256",
          "name": "",
          "type": "uint256"
        }
      ],
      "stateMutability": "view",
      "type": "function"
    },
    {
      "inputs": [
        {
          "internalType": "uint256",
          "name": "jobId",
          "type": "uint256"
        }
      ],
      "name": "cancelJob",
      "outputs": [],
      "stateMutability": "nonpayable",
      "type": "function"
    },
    {
      "inputs": [
        {
          "internalType": "bytes32",
          "name": "modelId",
          "type": "bytes32"
        },
        {
          "internalType": "bytes32",
          "name": "datasetRef",
          "type": "bytes32"
        },
        {
          "internalType": "uint256",
          "name": "totalRounds",
          "type": "uint256"
        },
        {
          "internalType": "uint256",
          "name": "minParticipants",
          "type": "uint256"
        },
        {
          "internalType": "uint256",
          "name": "rewardPerRound",
          "type": "uint256"
        }
      ],
      "name": "createJob",
      "outputs": [
        {
          "internalType": "uint256",
          "name": "jobId",
          "type": "uint256"
        }
      ],
      "stateMutability": "nonpayable",
      "type": "function"
    },
    {
      "inputs": [],
      "name": "getActiveJobsCount",
      "outputs": [
        {
          "internalType": "uint256",
          "name": "count",
          "type": "uint256"
        }
      ],
      "stateMutability": "view",
      "type": "function"
    },
    {
      "inputs": [
        {
          "internalType": "uint256",
          "name": "jobId",
          "type": "uint256"
        }
      ],
      "name": "getJob",
      "outputs": [
        {
          "components": [
            {
              "internalType": "bytes32",
              "name": "modelId",
              "type": "bytes32"
            },
            {
              "internalType": "bytes32",
              "name": "datasetRef",
              "type": "bytes32"
            },
            {
              "internalType": "uint256",
              "name": "totalRounds",
              "type": "uint256"
            },
            {
              "internalType": "uint256",
              "name": "currentRound",
              "type": "uint256"
            },
            {
              "internalType": "uint256",
              "name": "minParticipants",
              "type": "uint256"
            },
            {
              "internalType": "uint256",
              "name": "rewardPerRound",
              "type": "uint256"
            },
            {
              "internalType": "address",
              "name": "creator",
              "type": "address"
            },
            {
              "internalType": "enum GradientAggregator.JobStatus",
              "name": "status",
              "type": "uint8"
            },
            {
              "internalType": "uint256",
              "name": "createdAt",
              "type": "uint256"
            },
            {
              "internalType": "uint256",
              "name": "depositedRewards",
              "type": "uint256"
            }
          ],
          "internalType": "struct GradientAggregator.TrainingJob",
          "name": "",
          "type": "tuple"
        }
      ],
      "stateMutability": "view",
      "type": "function"
    },
    {
      "inputs": [
        {
          "internalType": "uint256",
          "name": "jobId",
          "type": "uint256"
        }
      ],
      "name": "getJobTrainers",
      "outputs": [
        {
          "internalType": "address[]",
          "name": "",
          "type": "address[]"
        }
      ],
      "stateMutability": "view",
      "type": "function"
    },
    {
      "inputs": [
        {
          "internalType": "uint256",
          "name": "jobId",
          "type": "uint256"
        },
        {
          "internalType": "uint256",
          "name": "round",
          "type": "uint256"
        }
      ],
      "name": "getRoundSubmissions",
      "outputs": [
        {
          "components": [
            {
              "internalType": "address",
              "name": "trainer",
              "type": "address"
            },
            {
              "internalType": "bytes32",
              "name": "gradientHash",
              "type": "bytes32"
            },
            {
              "internalType": "bytes32",
              "name": "checkpointHash",
              "type": "bytes32"
            },
            {
              "internalType": "uint256",
              "name": "timestamp",
              "type": "uint256"
            },
            {
              "internalType": "bool",
              "name": "verified",
              "type": "bool"
            }
          ],
          "internalType": "struct GradientAggregator.GradientSubmission[]",
          "name": "",
          "type": "tuple[]"
        }
      ],
      "stateMutability": "view",
      "type": "function"
    },
    {
      "inputs": [
        {
          "internalType": "uint256",
          "name": "",
          "type": "uint256"
        },
        {
          "internalType": "address",
          "name": "",
          "type": "address"
        }
      ],
      "name": "isTrainer",
      "outputs": [
        {
          "internalType": "bool",
          "name": "",
          "type": "bool"
        }
      ],
      "stateMutability": "view",
      "type": "function"
    },
    {
      "inputs": [
        {
          "internalType": "uint256",
          "name": "",
          "type": "uint256"
        },
        {
          "internalType": "uint256",
          "name": "",
          "type": "uint256"
        }
      ],
      "name": "jobTrainers",
      "outputs": [
        {
          "internalType": "address",
          "name": "",
          "type": "address"
        }
      ],
      "stateMutability": "view",
      "type": "function"
    },
    {
      "inputs": [
        {
          "internalType": "uint256",
          "name": "",
          "type": "uint256"
        }
      ],
      "name": "jobs",
      "outputs": [
        {
          "internalType": "bytes32",
          "name": "modelId",
          "type": "bytes32"
        },
        {
          "internalType": "bytes32",
          "name": "datasetRef",
          "type": "bytes32"
        },
        {
          "internalType": "uint256",
          "name": "totalRounds",
          "type": "uint256"
        },
        {
          "internalType": "uint256",
          "name": "currentRound",
          "type": "uint256"
        },
        {
          "internalType": "uint256",
          "name": "minParticipants",
          "type": "uint256"
        },
        {
          "internalType": "uint256",
          "name": "rewardPerRound",
          "type": "uint256"
        },
        {
          "internalType": "address",
          "name": "creator",
          "type": "address"
        },
        {
          "internalType": "enum GradientAggregator.JobStatus",
          "name": "status",
          "type": "uint8"
        },
        {
          "internalType": "uint256",
          "name": "createdAt",
          "type": "uint256"
        },
        {
          "internalType": "uint256",
          "name": "depositedRewards",
          "type": "uint256"
        }
      ],
      "stateMutability": "view",
      "type": "function"
    },
    {
      "inputs": [],
      "name": "mdtToken",
      "outputs": [
        {
          "internalType": "contract IERC20",
          "name": "",
          "type": "address"
        }
      ],
      "stateMutability": "view",
      "type": "function"
    },
    {
      "inputs": [],
      "name": "nextJobId",
      "outputs": [
        {
          "internalType": "uint256",
          "name": "",
          "type": "uint256"
        }
      ],
      "stateMutability": "view",
      "type": "function"
    },
    {
      "inputs": [],
      "name": "owner",
      "outputs": [
        {
          "internalType": "address",
          "name": "",
          "type": "address"
        }
      ],
      "stateMutability": "view",
      "type": "function"
    },
    {
      "inputs": [
        {
          "internalType": "uint256",
          "name": "jobId",
          "type": "uint256"
        }
      ],
      "name": "registerAsTrainer",
      "outputs": [],
      "stateMutability": "nonpayable",
      "type": "function"
    },
    {
      "inputs": [],
      "name": "renounceOwnership",
      "outputs": [],
      "stateMutability": "nonpayable",
      "type": "function"
    },
    {
      "inputs": [
        {
          "internalType": "uint256",
          "name": "",
          "type": "uint256"
        },
        {
          "internalType": "uint256",
          "name": "",
          "type": "uint256"
        }
      ],
      "name": "roundCheckpoints",
      "outputs": [
        {
          "internalType": "bytes32",
          "name": "",
          "type": "bytes32"
        }
      ],
      "stateMutability": "view",
      "type": "function"
    },
    {
      "inputs": [
        {
          "internalType": "uint256",
          "name": "",
          "type": "uint256"
        },
        {
          "internalType": "uint256",
          "name": "",
          "type": "uint256"
        },
        {
          "internalType": "uint256",
          "name": "",
          "type": "uint256"
        }
      ],
      "name": "roundSubmissions",
      "outputs": [
        {
          "internalType": "address",
          "name": "trainer",
          "type": "address"
        },
        {
          "internalType": "bytes32",
          "name": "gradientHash",
          "type": "bytes32"
        },
        {
          "internalType": "bytes32",
          "name": "checkpointHash",
          "type": "bytes32"
        },
        {
          "internalType": "uint256",
          "name": "timestamp",
          "type": "uint256"
        },
        {
          "internalType": "bool",
          "name": "verified",
          "type": "bool"
        }
      ],
      "stateMutability": "view",
      "type": "function"
    },
    {
      "inputs": [
        {
          "internalType": "uint256",
          "name": "jobId",
          "type": "uint256"
        },
        {
          "internalType": "bytes32",
          "name": "gradientHash",
          "type": "bytes32"
        },
        {
          "internalType": "bytes32",
          "name": "checkpointHash",
          "type": "bytes32"
        }
      ],
      "name": "submitGradient",
      "outputs": [],
      "stateMutability": "nonpayable",
      "type": "function"
    },
    {
      "inputs": [
        {
          "internalType": "address",
          "name": "newOwner",
          "type": "address"
        }
      ],
      "name": "transferOwnership",
      "outputs": [],
      "stateMutability": "nonpayable",
      "type": "function"
    }
  ],
  "bytecode": "0x60a0346100f957601f6115d338819003918201601f19168301916001600160401b038311848410176100fe578084926020946040528339810103126100f957516001600160a01b03808216918290036100f95733156100e0576000543360018060a01b0319821617600055604051913391167f8be0079c531659141344cd1fd0a4f28419497f9722a3daafe3b4186f6b6457e0600080a36001805581156100d157506080526040516114be9081610115823960805181818161010b0152818161059c01528181610a7d0152610ebd0152f35b630e52390960e41b8152600490fd5b604051631e4fbdf760e01b815260006004820152602490fd5b600080fd5b634e487b7160e01b600052604160045260246000fdfe608060408181526004918236101561001657600080fd5b60009260e08435811c928363044abddc146110aa575082630479376f1461106257826304d555b8146110355782630950c0d714610b95578263180aedf314610af85782631dffa3dc1461099a57826342f4e58e146108555782635b7c278e14610782578263715018a614610728578263828ad232146105175782638da5cb5b146104ee578263a0b7171c1461046a578263b0c2aa5e1461044a578263bf22c457146102ef57508163c79a35e81461023c578163e8471056146101ed578163f2fde38b1461015a57508063f3baf0701461013e5763f70b5c06146100f857600080fd5b3461013a578160031936011261013a57517f00000000000000000000000000000000000000000000000000000000000000006001600160a01b03168152602090f35b5080fd5b503461013a578160031936011261013a57602090516103e88152f35b919050346101e95760203660031901126101e9576001600160a01b038235818116939192908490036101e55761018e6112d6565b83156101cf57505082546001600160a01b0319811683178455167f8be0079c531659141344cd1fd0a4f28419497f9722a3daafe3b4186f6b6457e08380a380f35b51631e4fbdf760e01b8152908101849052602490fd5b8480fd5b8280fd5b9050346101e957816003193601126101e9576024356001600160a01b03811691908290036102385760209360ff92849235825260058652828220908252855220541690519015158152f35b8380fd5b905082346102ec576020918260031936011261013a57809392933582528352818120908251808584549182815201908194845286842090845b8181106102cf575050508161028b910382611389565b83519485948186019282875251809352850193925b8281106102af57505050500390f35b83516001600160a01b0316855286955093810193928101926001016102a0565b82546001600160a01b031684529288019260019283019201610275565b80fd5b9092915034610238576020366003190112610238578151926103108461136c565b84845284602085015284838501528460608501528460808501528460a08501528460c085015284828501526101009185838601528561012080960152813586526003602052838620918451946103658661136c565b8354865260018401549760208701988952600285015491808801928352600386015460608901908152848701549060808a0191825260058801549260a08b019384526006890154958b60c08101968a60ff60018060a01b039a8b81168b5260a01c169201996005831015610437575050885260078a0154998b8d019a8b52600801549b8d81019c8d5282519e8f9151825251906020015251908d01525160608c01525160808b01525160a08a0152511660c08801525190860161042791611297565b5190840152519082015261014090f35b634e487b7160e01b825260219052602490fd5b5050503461013a578160031936011261013a576020906002549051908152f35b848285346101e95760603660031901126101e9576044359282358152600660205281812060243582526020528181209081548510156102ec575060a0936104b0916112ba565b50600180851b038154169260018201549260ff6002840154926003850154940154169381519586526020860152840152606083015215156080820152f35b5050503461013a578160031936011261013a57905490516001600160a01b039091168152602090f35b8484913461013a5760a036600319011261013a578291843591604435916084359160643591610544611413565b85158015610720575b8015610718575b610708576105628486611302565b9182156106f8576105c088516323b872dd60e01b60208201523360248201523060448201528460648201526064815261059a8161133a565b7f00000000000000000000000000000000000000000000000000000000000000006113ab565b6002549889926105cf8461132b565b6002558151956105de8761136c565b898752602087019060243582528388018a8152606089019084825260808a0192835260a08a01938b855260c08b01973389528b01968688526101008c0199428b526101208d019b8c528752600360205286209a518b555160018b01555160028a0155516003890155518d880155516005870155600686019260018060a01b0390511690835492519060058210156106e5575060209c5093606096936008938d9a97937f9bfedd04b6c27312c6ab4f6dc3bc5c815049dfe048f506054cb0a1c5dabecf139a9760ff60a01b9060a01b16916affffffffffffffffffffff60a81b1617179055516007840155519101558651913383528983015286820152a36001805551908152f35b634e487b7160e01b815260218e52602490fd5b8751630e52390960e41b81528a90fd5b8651630e52390960e41b81528990fd5b508215610554565b50841561054d565b84346102ec57806003193601126102ec576107416112d6565b80546001600160a01b03198116825581906001600160a01b03167f8be0079c531659141344cd1fd0a4f28419497f9722a3daafe3b4186f6b6457e08280a380f35b5083833461013a578160031936011261013a5760025482805b8281106107ac576020858551908152f35b808252600360209080825260ff6006808887200154908260a092831c169360059485811015610842571595861561080c575b5050505050506107f7575b6107f29061132b565b61079b565b936108046107f29161132b565b9490506107e9565b878952528887200154901c16915081101561082f576001148780808080806107de565b634e487b7160e01b835260218752602483fd5b634e487b7160e01b895260218d52602489fd5b8385833461013a576108663661124e565b9190835260209160068352848420908452825283832091825467ffffffffffffffff81116109875785519194926005906108a483831b880185611389565b82845286840190819686528786209086925b85841061092b57505050505050845193808501918186525180925285850193925b8281106108e45785850386f35b835180516001600160a01b03168652808301518684015287810151888701526060808201519087015260809081015115159086015260a090940193928101926001016108d7565b848a6001928d809d9a9b9d51906109418261133a565b858060a01b03885416825285880154848301526002880154908201526003870154606082015260ff868801541615156080820152815201930193019291989695986108b6565b634e487b7160e01b855260418352602485fd5b509050346101e95760203660031901126101e9578035916109b9611413565b82845260036020528084206006810180546001600160a01b038116929133849003610ae85760ff8260a01c166005811015610ad5578660038214918215610acb575b5050610abb576008610a166003850154600586015490611302565b9301549183830396838811610aa8575060ff60a01b1916600160a21b1790557f7e3805011acb8d49832d7ef085841e251e66267c06e54e0ac20cb09f3c696d3b9460209490939092909184919003610a77575b505051908152a26001805580f35b610aa1917f0000000000000000000000000000000000000000000000000000000000000000611436565b3882610a69565b634e487b7160e01b8a5260119052602489fd5b8451630e52390960e41b81528690fd5b14905086386109fb565b634e487b7160e01b895260218752602489fd5b8451639b1606c560e01b81528690fd5b8491843461023857602036600319011261023857610b878161014095843581526003602052209160ff83549560018501549560028601549060038701549087015490600588015492600689015496600860078b01549a01549a81519c8d5260208d01528b015260608a0152608089015260a088015260018060a01b03831660c088015286019160a01c16611297565b610100830152610120820152f35b509050346101e95760603660031901126101e957803590602435610bb7611413565b828552602090600382528486209460ff80600688015460a01c169660058810156110225760018098036110125786895260058552828920338a52855281838a20541615611002576003810154878a5260068652838a20818b528652838a2080549590918b5b878110610fc957508a865197610c318961133a565b33895289890190848252888a01604435815260608b019142835260808c01948552600160401b811015610fb4578f90610c6e9181018955886112ba565b939093610fa057918f918e989796959492899460018060a01b039e8f9051166bffffffffffffffffffffffff60a01b865416178555519084015551600283015551600382015501905115158760ff19835416911617905586519182528a7fc3684a0c96ca113990e886787446fa758a79eff57dafb63fa2a86c04346f79568a3394a4549101541115610d02575b8787805580f35b858852600384528180892095600387019485549360068852838c20858d528852838c20928a8d52600689528c86868220915289528c8c86822060609183918054915b828410610f2057505050508a815191012095818d88935260078c528181208982528c52205560058a01548454908115610f0d57938d96938f9293888f98958e8c918e9a0496925b610e30575b505050505050507f3fce885e3ed0732a07628600cae71c392194073c4b3d2e41ccef82c8cf7f07a393945054825191825288820152a3610dd0825461132b565b809255600284015480921015610de7575b80610cfb565b600693909301805460ff60a01b1916600360a01b17905591519182527f152d31e943f2d79d470375c901f5a6cfb7d465ee4969db651885948d3b6015b891a23880808080610de1565b879a91929496989b9993959754851015610efe57908a85949392898b878b8b610e5c610e729c886112ba565b50015416610e84575b505050505050505061132b565b918d969391869895938a8e8d99610d8b565b84610ee1610ee69385610eb8857f683b5b362bae69cad1afded62ff468e9b9ea9df8ab2303d0018e71125ad2ef639a6112ba565b5054167f0000000000000000000000000000000000000000000000000000000000000000611436565b6112ba565b50541694518b8152a48a8f8b908f8b90898b87610e65565b83999b985082919a9750610d90565b634e487b7160e01b8f526012835260248ffd5b94819492958f949798999a9b9288610f37916112ba565b500154908251938051915b828110610f805750509383610f6a9392610f7096820190838201520390810184520182611389565b9361132b565b8f928f928b999897969593610d44565b9092949580929450818401015182828801015201918f9493918e93610f42565b5050634e487b7160e01b8f528e8c5260248ffd5b5050634e487b7160e01b8f5260418c5260248ffd5b610fd381856112ba565b50546001600160a01b03163314610ff257610fed9061132b565b610c1c565b8651639fbfc58960e01b81528a90fd5b825163aba4733960e01b81528690fd5b8251633c6e2e4b60e11b81528690fd5b634e487b7160e01b895260218652602489fd5b5050503461013a578060209261104a3661124e565b90825260078552828220908252845220549051908152f35b508284346102ec576110733661124e565b939082526020528181209081548410156102ec575060209261109491611269565b905491519160018060a01b039160031b1c168152f35b925050913461023857602090816003193601126101e55783359384865260038352818620600681019460ff865460a01c16600581101561123b5761122d575085875260058452828720338852845260ff838820541661121e578587528184526103e883882054101561120f57858752600584528287203388528452828720805460ff19166001179055858752818452828720805490600160401b8210156111fc579061115b91600182018155611269565b81546001600160a01b0360039290921b91821b1916339182901b17909155867f38a7ff6902e6a8b42654af26677e2f0ca190d5d044b0d1bb76d8b597cf4665d28980a385875281845282872091825491015411156111b7578580f35b835460ff60a01b1916600160a01b17909355915491519182527f9d5819c7ffd7580f18ec65632cf8672da6a217ee456af540fff3b0ea800c630591a238808080808580f35b634e487b7160e01b895260418452602489fd5b509051636c8c8d2160e01b8152fd5b509051630ea075bf60e21b8152fd5b63d76ebd0f60e01b81529050fd5b634e487b7160e01b895260218452602489fd5b6040906003190112611264576004359060243590565b600080fd5b80548210156112815760005260206000200190600090565b634e487b7160e01b600052603260045260246000fd5b9060058210156112a45752565b634e487b7160e01b600052602160045260246000fd5b8054821015611281576000526005602060002091020190600090565b6000546001600160a01b031633036112ea57565b60405163118cdaa760e01b8152336004820152602490fd5b8181029291811591840414171561131557565b634e487b7160e01b600052601160045260246000fd5b60001981146113155760010190565b60a0810190811067ffffffffffffffff82111761135657604052565b634e487b7160e01b600052604160045260246000fd5b610140810190811067ffffffffffffffff82111761135657604052565b90601f8019910116810190811067ffffffffffffffff82111761135657604052565b906000602091828151910182855af115611407576000513d6113fe57506001600160a01b0381163b155b6113dc5750565b604051635274afe760e01b81526001600160a01b039091166004820152602490fd5b600114156113d5565b6040513d6000823e3d90fd5b600260015414611424576002600155565b604051633ee5aeb560e01b8152600490fd5b60405163a9059cbb60e01b60208201526001600160a01b039092166024830152604480830193909352918152608081019167ffffffffffffffff83118284101761135657611486926040526113ab565b56fea26469706673582212201d9e8dd5fc3a2115eefbbc58f27afc7b697890ca730d4325424c2bba8cdf93cd64736f6c63430008140033",
  "linkReferences": {},
  "deployedLinkReferences": {}
}