{
  "_format": "hh-sol-artifact-1",
  "contractName": "GradientAggregator",
  "sourceName": "src/GradientAggregator.sol",
  "abi": [
    {
      "inputs": [
        {
          "internalType": "address",
          "name": "_mdtToken",
          "type": "address"
        }
      ],
      "stateMutability": "nonpayable",
      "type": "constructor"
    },
    {
      "inputs": [],
      "name": "AlreadyRegistered",
      "type": "error"
    },
    {
      "inputs": [],
      "name": "AlreadySubmitted",
      "type": "error"
    },
    {
      "inputs": [],
      "name": "InsufficientDeposit",
      "type": "error"
    },
    {
      "inputs": [],
      "name": "InsufficientSubmissions",
      "type": "error"
    },
    {
      "inputs": [],
      "name": "InvalidParameters",
      "type": "error"
    },
    {
      "inputs": [],
      "name": "JobNotOpen",
      "type": "error"
    },
    {
      "inputs": [],
      "name": "JobNotTraining",
      "type": "error"
    },
    {
      "inputs": [],
      "name": "MaxParticipantsReached",
      "type": "error"
    },
    {
      "inputs": [],
      "name": "NotJobCreator",
      "type": "error"
    },
    {
      "inputs": [],
      "name": "NotRegistered",
      "type": "error"
    },
    {
      "inputs": [
        {
          "internalType": "address",
          "name": "owner",
          "type": "address"
        }
      ],
      "name": "OwnableInvalidOwner",
      "type": "error"
    },
    {
      "inputs": [
        {
          "internalType": "address",
          "name": "account",
          "type": "address"
        }
      ],
      "name": "OwnableUnauthorizedAccount",
      "type": "error"
    },
    {
      "inputs": [],
      "name": "ReentrancyGuardReentrantCall",
      "type": "error"
    },
    {
      "inputs": [],
      "name": "RoundNotActive",
      "type": "error"
    },
    {
      "inputs": [
        {
          "internalType": "address",
          "name": "token",
          "type": "address"
        }
      ],
      "name": "SafeERC20FailedOperation",
      "type": "error"
    },
    {
      "anonymous": false,
      "inputs": [
        {
          "indexed": true,
          "internalType": "uint256",
          "name": "jobId",
          "type": "uint256"
        },
        {
          "indexed": true,
          "internalType": "uint256",
          "name": "round",
          "type": "uint256"
        },
        {
          "indexed": true,
          "internalType": "address",
          "name": "trainer",
          "type": "address"
        },
        {
          "indexed": false,
          "internalType": "bytes32",
          "name": "gradientHash",
          "type": "bytes32"
        }
      ],
      "name": "GradientSubmitted",
      "type": "event"
    },
    {
      "anonymous": false,
      "inputs": [
        {
          "indexed": true,
          "internalType": "uint256",
          "name": "jobId",
          "type": "uint256"
        },
        {
          "indexed": false,
          "internalType": "uint256",
          "name": "refundAmount",
          "type": "uint256"
        }
      ],
      "name": "JobCancelled",
      "type": "event"
    },
    {
      "anonymous": false,
      "inputs": [
        {
          "indexed": true,
          "internalType": "uint256",
          "name": "jobId",
          "type": "uint256"
        },
        {
          "indexed": false,
          "internalType": "uint256",
          "name": "totalRounds",
          "type": "uint256"
        }
      ],
      "name": "JobCompleted",
      "type": "event"
    },
    {
      "anonymous": false,
      "inputs": [
        {
          "indexed": true,
          "internalType": "uint256",
          "name": "jobId",
          "type": "uint256"
        },
        {
          "indexed": true,
          "internalType": "bytes32",
          "name": "modelId",
          "type": "bytes32"
        },
        {
          "indexed": false,
          "internalType": "address",
          "name": "creator",
          "type": "address"
        },
        {
          "indexed": false,
          "internalType": "uint256",
          "name": "totalRounds",
          "type": "uint256"
        },
        {
          "indexed": false,
          "internalType": "uint256",
          "name": "rewardPerRound",
          "type": "uint256"
        }
      ],
      "name": "JobCreated",
      "type": "event"
    },
    {
      "anonymous": false,
      "inputs": [
        {
          "indexed": true,
          "internalType": "address",
          "name": "previousOwner",
          "type": "address"
        },
        {
          "indexed": true,
          "internalType": "address",
          "name": "newOwner",
          "type": "address"
        }
      ],
      "name": "OwnershipTransferred",
      "type": "event"
    },
    {
      "anonymous": false,
      "inputs": [
        {
          "indexed": true,
          "internalType": "uint256",
          "name": "jobId",
          "type": "uint256"
        },
        {
          "indexed": true,
          "internalType": "uint256",
          "name": "round",
          "type": "uint256"
        },
        {
          "indexed": true,
          "internalType": "address",
          "name": "trainer",
          "type": "address"
        },
        {
          "indexed": false,
          "internalType": "uint256",
          "name": "amount",
          "type": "uint256"
        }
      ],
      "name": "RewardDistributed",
      "type": "event"
    },
    {
      "anonymous": false,
      "inputs": [
        {
          "indexed": true,
          "internalType": "uint256",
          "name": "jobId",
          "type": "uint256"
        },
        {
          "indexed": true,
          "internalType": "uint256",
          "name": "round",
          "type": "uint256"
        },
        {
          "indexed": false,
          "internalType": "bytes32",
          "name": "aggregatedCheckpoint",
          "type": "bytes32"
        },
        {
          "indexed": false,
          "internalType": "uint256",
          "name": "submissionCount",
          "type": "uint256"
        }
      ],
      "name": "RoundCompleted",
      "type": "event"
    },
    {
      "anonymous": false,
      "inputs": [
        {
          "indexed": true,
          "internalType": "uint256",
          "name": "jobId",
          "type": "uint256"
        },
        {
          "indexed": true,
          "internalType": "address",
          "name": "trainer",
          "type": "address"
        }
      ],
      "name": "TrainerRegistered",
      "type": "event"
    },
    {
      "anonymous": false,
      "inputs": [
        {
          "indexed": true,
          "internalType": "uint256",
          "name": "jobId",
          "type": "uint256"
        },
        {
          "indexed": false,
          "internalType": "uint256",
          "name": "participantCount",
          "type": "uint256"
        }
      ],
      "name": "TrainingStarted",
      "type": "event"
    },
    {
      "inputs": [],
      "name": "MAX_PARTICIPANTS",
      "outputs": [
        {
          "internalType": "uint256",
          "name": "",
          "type": "uint256"
        }
      ],
      "stateMutability": "view",
      "type": "function"
    },
    {
      "inputs": [],
      "name": "activeJobCount",
      "outputs": [
        {
          "internalType": "uint256",
          "name": "",
          "type": "uint256"
        }
      ],
      "stateMutability": "view",
      "type": "function"
    },
    {
      "inputs": [
        {
          "internalType": "uint256",
          "name": "jobId",
          "type": "uint256"
        }
      ],
      "name": "cancelJob",
      "outputs": [],
      "stateMutability": "nonpayable",
      "type": "function"
    },
    {
      "inputs": [
        {
          "internalType": "bytes32",
          "name": "modelId",
          "type": "bytes32"
        },
        {
          "internalType": "bytes32",
          "name": "datasetRef",
          "type": "bytes32"
        },
        {
          "internalType": "uint256",
          "name": "totalRounds",
          "type": "uint256"
        },
        {
          "internalType": "uint256",
          "name": "minParticipants",
          "type": "uint256"
        },
        {
          "internalType": "uint256",
          "name": "rewardPerRound",
          "type": "uint256"
        }
      ],
      "name": "createJob",
      "outputs": [
        {
          "internalType": "uint256",
          "name": "jobId",
          "type": "uint256"
        }
      ],
      "stateMutability": "nonpayable",
      "type": "function"
    },
    {
      "inputs": [],
      "name": "getActiveJobsCount",
      "outputs": [
        {
          "internalType": "uint256",
          "name": "",
          "type": "uint256"
        }
      ],
      "stateMutability": "view",
      "type": "function"
    },
    {
      "inputs": [
        {
          "internalType": "uint256",
          "name": "jobId",
          "type": "uint256"
        }
      ],
      "name": "getJob",
      "outputs": [
        {
          "components": [
            {
              "internalType": "bytes32",
              "name": "modelId",
              "type": "bytes32"
            },
            {
              "internalType": "bytes32",
              "name": "datasetRef",
              "type": "bytes32"
            },
            {
              "internalType": "uint256",
              "name": "totalRounds",
              "type": "uint256"
            },
            {
              "internalType": "uint256",
              "name": "currentRound",
              "type": "uint256"
            },
            {
              "internalType": "uint256",
              "name": "minParticipants",
              "type": "uint256"
            },
            {
              "internalType": "uint256",
              "name": "rewardPerRound",
              "type": "uint256"
            },
            {
              "internalType": "address",
              "name": "creator",
              "type": "address"
            },
            {
              "internalType": "enum GradientAggregator.JobStatus",
              "name": "status",
              "type": "uint8"
            },
            {
              "internalType": "uint256",
              "name": "createdAt",
              "type": "uint256"
            },
            {
              "internalType": "uint256",
              "name": "depositedRewards",
              "type": "uint256"
            }
          ],
          "internalType": "struct GradientAggregator.TrainingJob",
          "name": "",
          "type": "tuple"
        }
      ],
      "stateMutability": "view",
      "type": "function"
    },
    {
      "inputs": [
        {
          "internalType": "uint256",
          "name": "jobId",
          "type": "uint256"
        }
      ],
      "name": "getJobTrainers",
      "outputs": [
        {
          "internalType": "address[]",
          "name": "",
          "type": "address[]"
        }
      ],
      "stateMutability": "view",
      "type": "function"
    },
    {
      "inputs": [
        {
          "internalType": "uint256",
          "name": "jobId",
          "type": "uint256"
        },
        {
          "internalType": "uint256",
          "name": "round",
          "type": "uint256"
        }
      ],
      "name": "getRoundSubmissions",
      "outputs": [
        {
          "components": [
            {
              "internalType": "address",
              "name": "trainer",
              "type": "address"
            },
            {
              "internalType": "bytes32",
              "name": "gradientHash",
              "type": "bytes32"
            },
            {
              "internalType": "bytes32",
              "name": "checkpointHash",
              "type": "bytes32"
            },
            {
              "internalType": "uint256",
              "name": "timestamp",
              "type": "uint256"
            },
            {
              "internalType": "bool",
              "name": "verified",
              "type": "bool"
            }
          ],
          "internalType": "struct GradientAggregator.GradientSubmission[]",
          "name": "",
          "type": "tuple[]"
        }
      ],
      "stateMutability": "view",
      "type": "function"
    },
    {
      "inputs": [
        {
          "internalType": "uint256",
          "name": "",
          "type": "uint256"
        },
        {
          "internalType": "address",
          "name": "",
          "type": "address"
        }
      ],
      "name": "hasSubmitted",
      "outputs": [
        {
          "internalType": "bool",
          "name": "",
          "type": "bool"
        }
      ],
      "stateMutability": "view",
      "type": "function"
    },
    {
      "inputs": [
        {
          "internalType": "uint256",
          "name": "",
          "type": "uint256"
        },
        {
          "internalType": "address",
          "name": "",
          "type": "address"
        }
      ],
      "name": "isTrainer",
      "outputs": [
        {
          "internalType": "bool",
          "name": "",
          "type": "bool"
        }
      ],
      "stateMutability": "view",
      "type": "function"
    },
    {
      "inputs": [
        {
          "internalType": "uint256",
          "name": "",
          "type": "uint256"
        },
        {
          "internalType": "uint256",
          "name": "",
          "type": "uint256"
        }
      ],
      "name": "jobTrainers",
      "outputs": [
        {
          "internalType": "address",
          "name": "",
          "type": "address"
        }
      ],
      "stateMutability": "view",
      "type": "function"
    },
    {
      "inputs": [
        {
          "internalType": "uint256",
          "name": "",
          "type": "uint256"
        }
      ],
      "name": "jobs",
      "outputs": [
        {
          "internalType": "bytes32",
          "name": "modelId",
          "type": "bytes32"
        },
        {
          "internalType": "bytes32",
          "name": "datasetRef",
          "type": "bytes32"
        },
        {
          "internalType": "uint256",
          "name": "totalRounds",
          "type": "uint256"
        },
        {
          "internalType": "uint256",
          "name": "currentRound",
          "type": "uint256"
        },
        {
          "internalType": "uint256",
          "name": "minParticipants",
          "type": "uint256"
        },
        {
          "internalType": "uint256",
          "name": "rewardPerRound",
          "type": "uint256"
        },
        {
          "internalType": "address",
          "name": "creator",
          "type": "address"
        },
        {
          "internalType": "enum GradientAggregator.JobStatus",
          "name": "status",
          "type": "uint8"
        },
        {
          "internalType": "uint256",
          "name": "createdAt",
          "type": "uint256"
        },
        {
          "internalType": "uint256",
          "name": "depositedRewards",
          "type": "uint256"
        }
      ],
      "stateMutability": "view",
      "type": "function"
    },
    {
      "inputs": [],
      "name": "mdtToken",
      "outputs": [
        {
          "internalType": "contract IERC20",
          "name": "",
          "type": "address"
        }
      ],
      "stateMutability": "view",
      "type": "function"
    },
    {
      "inputs": [],
      "name": "nextJobId",
      "outputs": [
        {
          "internalType": "uint256",
          "name": "",
          "type": "uint256"
        }
      ],
      "stateMutability": "view",
      "type": "function"
    },
    {
      "inputs": [],
      "name": "owner",
      "outputs": [
        {
          "internalType": "address",
          "name": "",
          "type": "address"
        }
      ],
      "stateMutability": "view",
      "type": "function"
    },
    {
      "inputs": [
        {
          "internalType": "uint256",
          "name": "jobId",
          "type": "uint256"
        }
      ],
      "name": "registerAsTrainer",
      "outputs": [],
      "stateMutability": "nonpayable",
      "type": "function"
    },
    {
      "inputs": [],
      "name": "renounceOwnership",
      "outputs": [],
      "stateMutability": "nonpayable",
      "type": "function"
    },
    {
      "inputs": [
        {
          "internalType": "uint256",
          "name": "",
          "type": "uint256"
        },
        {
          "internalType": "uint256",
          "name": "",
          "type": "uint256"
        }
      ],
      "name": "roundCheckpoints",
      "outputs": [
        {
          "internalType": "bytes32",
          "name": "",
          "type": "bytes32"
        }
      ],
      "stateMutability": "view",
      "type": "function"
    },
    {
      "inputs": [
        {
          "internalType": "uint256",
          "name": "",
          "type": "uint256"
        },
        {
          "internalType": "uint256",
          "name": "",
          "type": "uint256"
        },
        {
          "internalType": "uint256",
          "name": "",
          "type": "uint256"
        }
      ],
      "name": "roundSubmissions",
      "outputs": [
        {
          "internalType": "address",
          "name": "trainer",
          "type": "address"
        },
        {
          "internalType": "bytes32",
          "name": "gradientHash",
          "type": "bytes32"
        },
        {
          "internalType": "bytes32",
          "name": "checkpointHash",
          "type": "bytes32"
        },
        {
          "internalType": "uint256",
          "name": "timestamp",
          "type": "uint256"
        },
        {
          "internalType": "bool",
          "name": "verified",
          "type": "bool"
        }
      ],
      "stateMutability": "view",
      "type": "function"
    },
    {
      "inputs": [
        {
          "internalType": "uint256",
          "name": "jobId",
          "type": "uint256"
        },
        {
          "internalType": "bytes32",
          "name": "gradientHash",
          "type": "bytes32"
        },
        {
          "internalType": "bytes32",
          "name": "checkpointHash",
          "type": "bytes32"
        }
      ],
      "name": "submitGradient",
      "outputs": [],
      "stateMutability": "nonpayable",
      "type": "function"
    },
    {
      "inputs": [
        {
          "internalType": "address",
          "name": "newOwner",
          "type": "address"
        }
      ],
      "name": "transferOwnership",
      "outputs": [],
      "stateMutability": "nonpayable",
      "type": "function"
    }
  ],
  "bytecode": "0x60a0346100f257601f6118c938819003918201601f19168301916001600160401b038311848410176100f7578084926020946040528339810103126100f257516001600160a01b03808216918290036100f25733156100d9576000543360018060a01b0319821617600055604051913391167f8be0079c531659141344cd1fd0a4f28419497f9722a3daafe3b4186f6b6457e0600080a36001805581156100ca57506080526040516117bb908161010e82396080518181816107a501528181610a3f0152610fc50152f35b630e52390960e41b8152600490fd5b604051631e4fbdf760e01b815260006004820152602490fd5b600080fd5b634e487b7160e01b600052604160045260246000fdfe6080604052600436101561001257600080fd5b60003560e01c8063044abddc146101625780630479376f1461015d57806304d555b8146101585780630950c0d714610153578063180aedf31461014e5780631dffa3dc1461014957806342f4e58e146101445780635b7c278e14610117578063715018a61461013f578063828ad2321461013a5780638da5cb5b14610135578063a0b7171c14610130578063a57d38061461012b578063b0c2aa5e14610126578063bf22c45714610121578063c79a35e81461011c578063ca32b5c714610117578063e847105614610112578063f2fde38b1461010d578063f3baf070146101085763f70b5c061461010357600080fd5b610faf565b610f92565b610f07565b610ec1565b61094b565b610e42565b610d0a565b610c73565b610c21565b610b75565b610b30565b6109c7565b610969565b61087c565b610699565b610624565b6103ff565b6103c5565b610373565b3461033b57602036600319011261033b5760043561018a816000526003602052604060002090565b600681019061019e825460ff9060a01c1690565b6101a7816105a3565b610329576101df6101d86101c5856000526005602052604060002090565b3360009081526020919091526040902090565b5460ff1690565b610317576103e86101fa846000526004602052604060002090565b541015610305576102406102333361021c866000526005602052604060002090565b9060018060a01b0316600052602052604060002090565b805460ff19166001179055565b61025d33610258856000526004602052604060002090565b611299565b33837f38a7ff6902e6a8b42654af26677e2f0ca190d5d044b0d1bb76d8b597cf4665d2600080a3600461029a846000526004602052604060002090565b5491015411156102a657005b805460ff60a01b1916600160a01b1790557f9d5819c7ffd7580f18ec65632cf8672da6a217ee456af540fff3b0ea800c63056103006102ef836000526004602052604060002090565b546040519081529081906020820190565b0390a2005b604051636c8c8d2160e01b8152600490fd5b604051630ea075bf60e21b8152600490fd5b60405163d76ebd0f60e01b8152600490fd5b600080fd5b634e487b7160e01b600052603260045260246000fd5b805482101561036e5760005260206000200190600090565b610340565b3461033b57604036600319011261033b5760243560043560005260046020526040600020805482101561033b576020916103ac91610356565b905460405160039290921b1c6001600160a01b03168152f35b3461033b57604036600319011261033b57600435600052600760205260406000206024356000526020526020604060002054604051908152f35b3461033b57606036600319011261033b5760043560243561041e611276565b610432826000526003602052604060002090565b906001610447600684015460ff9060a01c1690565b610450816105a3565b03610591576104766104726101d86101c5866000526005602052604060002090565b1590565b61057f576004906003830154906104aa8261049b876000526006602052604060002090565b90600052602052604060002090565b916104d16104cc6104726101d83361021c8b6000526008602052604060002090565b6112d4565b6104ec6102333361021c896000526008602052604060002090565b6105216104f76110e4565b338152836020820152604435604082015242606082015261051b6080820160019052565b84611314565b857fc3684a0c96ca113990e886787446fa758a79eff57dafb63fa2a86c04346f7956604051806105573396829190602083019252565b0390a4549101541115610570575b61056e60018055565b005b610579906113f0565b38610565565b60405163aba4733960e01b8152600490fd5b604051633c6e2e4b60e11b8152600490fd5b600511156105ad57565b634e487b7160e01b600052602160045260246000fd5b9060058210156105ad5752565b969293610120989461061a96929c9b9a97936101408a019d8a5260208a015260408901526060880152608087015260a086015260018060a01b031660c085015260e08401906105c3565b6101008201520152565b3461033b57602036600319011261033b5760043560005260036020526040600020805461069560018301549160028401549360038101549160048201549060058301546006840154926008600786015495015495604051998a9960ff8760a01c169660018060a01b0316958b6105d0565b0390f35b3461033b57602036600319011261033b576004356106b5611276565b6106c9816000526003602052604060002090565b6006810180549091906001600160a01b03811633036107f65760a01c60ff166106f1816105a3565b600381149081156107e2575b506107d0577f7e3805011acb8d49832d7ef085841e251e66267c06e54e0ac20cb09f3c696d3b916107488260086107406003610786960154600584015490611051565b9101546113d6565b815460ff60a01b1916600160a21b1782559061076d6107686009546113e3565b600955565b8180610792575b50506040519081529081906020820190565b0390a261056e60018055565b90546107c991906001600160a01b03165b7f0000000000000000000000000000000000000000000000000000000000000000611666565b3881610774565b604051630e52390960e41b8152600490fd5b600491506107ef816105a3565b14386106fd565b604051639b1606c560e01b8152600490fd5b60208082019080835283518092528060408094019401926000905b83821061083257505050505090565b845180516001600160a01b03168752808401518785015280820151878301526060808201519088015260809081015115159087015260a09095019493820193600190910190610823565b3461033b5760408060031936011261033b5760049060009082358252602091600683528181206024358252835281812080549167ffffffffffffffff831161094657908351946005926108d38286861b01886110c2565b8487529182528082208187015b8584106108f4578651806106958a82610808565b8483600192895161090481611089565b848060a01b038654168152848601548382015260028601548b8201526003860154606082015260ff8d87015416151560808201528152019201930192906108e0565b611073565b3461033b57600036600319011261033b576020600954604051908152f35b3461033b576000806003193601126109c457610983610ff4565b80546001600160a01b03198116825581906001600160a01b03167f8be0079c531659141344cd1fd0a4f28419497f9722a3daafe3b4186f6b6457e08280a380f35b80fd5b3461033b5760a036600319011261033b576084356064356004356044356109ec611276565b81158015610b28575b8015610b20575b6107d057610a0a8482611051565b9081156107d057610695947f9bfedd04b6c27312c6ab4f6dc3bc5c815049dfe048f506054cb0a1c5dabecf1391610a638430337f00000000000000000000000000000000000000000000000000000000000000006111cc565b610ae0600254968795610a7d610a7888611064565b600255565b610a856110f3565b88815260243560208201526040810185905260006060820152608081019290925260a082018590523360c0830152600060e083015242610100830152610120820152610adb866000526003602052604060002090565b611130565b610aee610768600954611064565b604080513381526020810192909252810191909152606090a3610b1060018055565b6040519081529081906020820190565b5082156109fc565b5080156109f5565b3461033b57600036600319011261033b576000546040516001600160a01b039091168152602090f35b805482101561036e576000526005602060002091020190600090565b3461033b57606036600319011261033b5760443560009060043582526006602052604082206024358352602052604082208054821015610c0757610bb99250610b59565b508054600182015460028301546003840154600490940154604080516001600160a01b039095168552602085019390935291830152606082019290925260ff9091161515608082015260a090f35b8280fd5b602435906001600160a01b038216820361033b57565b3461033b57604036600319011261033b57602060ff610c67610c41610c0b565b6004356000526008845260406000209060018060a01b0316600052602052604060002090565b54166040519015158152f35b3461033b57600036600319011261033b576020600254604051908152f35b815181526020808301519082015260408083015190820152606080830151908201526080808301519082015260a0808301519082015260c0808301516001600160a01b03169082015261014081019291610cf360e082015160e08401906105c3565b610100808201519083015261012080910151910152565b3461033b57602036600319011261033b57610695604051610d2a816110a5565b6000908181528160208201528160408201528160608201528160808201528160a08201528160c08201528160e08201526008604061010093808585015280610120809501526004358152600360205220610d826110f3565b8154815260018201546020820152600282015460408201526003820154606082015260048201546080820152600582015460a082015260068201546001600160a01b03811660c0830152909490610de39060ff9060a01c1660e08701611100565b60078201549085015201549082015260405191829182610c91565b6020908160408183019282815285518094520193019160005b828110610e25575050505090565b83516001600160a01b031685529381019392810192600101610e17565b3461033b5760208060031936011261033b5760043560005260048152604060002090604051908181845491828152019360005281600020916000905b828210610ea15761069585610e95818903826110c2565b60405191829182610dfe565b83546001600160a01b031686529485019460019384019390910190610e7e565b3461033b57604036600319011261033b57602060ff610c67610ee1610c0b565b6004356000526005845260406000209060018060a01b0316600052602052604060002090565b3461033b57602036600319011261033b576001600160a01b036004358181169081900361033b57610f36610ff4565b8015610f7957600080546001600160a01b03198116831782559092167f8be0079c531659141344cd1fd0a4f28419497f9722a3daafe3b4186f6b6457e08380a380f35b604051631e4fbdf760e01b815260006004820152602490fd5b3461033b57600036600319011261033b5760206040516103e88152f35b3461033b57600036600319011261033b576040517f00000000000000000000000000000000000000000000000000000000000000006001600160a01b03168152602090f35b6000546001600160a01b0316330361100857565b60405163118cdaa760e01b8152336004820152602490fd5b634e487b7160e01b600052601160045260246000fd5b908160051b918083046020149015171561104c57565b611020565b8181029291811591840414171561104c57565b600019811461104c5760010190565b634e487b7160e01b600052604160045260246000fd5b60a0810190811067ffffffffffffffff82111761094657604052565b610140810190811067ffffffffffffffff82111761094657604052565b90601f8019910116810190811067ffffffffffffffff82111761094657604052565b604051906110f182611089565b565b604051906110f1826110a5565b60058210156105ad5752565b9060058110156105ad57815460ff60a01b191660a09190911b60ff60a01b16179055565b90610120600891805184556020810151600185015560408101516002850155606081015160038501556080810151600485015560a081015160058501556111ba600685016111a661118a60c085015160018060a01b031690565b82546001600160a01b0319166001600160a01b03909116178255565b60e0830151906111b5826105a3565b61110c565b61010081015160078501550151910155565b6040516323b872dd60e01b60208201526001600160a01b0392831660248201529290911660448301526064808301939093529181526110f19161120e82611089565b906000602091828151910182855af11561126a576000513d61126157506001600160a01b0381163b155b61123f5750565b604051635274afe760e01b81526001600160a01b039091166004820152602490fd5b60011415611238565b6040513d6000823e3d90fd5b600260015414611287576002600155565b604051633ee5aeb560e01b8152600490fd5b8054600160401b811015610946576112b691600182018155610356565b819291549060031b9160018060a01b03809116831b921b1916179055565b156112db57565b60405162461bcd60e51b8152602060048201526011602482015270105b1c9958591e481cdd589b5a5d1d1959607a1b6044820152606490fd5b8054600160401b8110156109465761133191600182018155610b59565b61139157815181546001600160a01b0319166001600160a01b03919091161781556110f1916004906080906020810151600185015560408101516002850155606081015160038501550151151591019060ff801983541691151516179055565b634e487b7160e01b600052600060045260246000fd5b81156113b1570490565b634e487b7160e01b600052601260045260246000fd5b60001981019190821161104c57565b9190820391821161104c57565b801561104c576000190190565b611404816000526003602052604060002090565b600381019081546114238161049b866000526006602052604060002090565b61142d8286611704565b90816114478461049b896000526007602052604060002090565b556000808254905b81811061162f57505080611501575b505460408051928352602083019190915285917f3fce885e3ed0732a07628600cae71c392194073c4b3d2e41ccef82c8cf7f07a39190a361149f8254611064565b8092556002810191825411156114b457505050565b600601805460ff60a01b1916600360a01b1790557f152d31e943f2d79d470375c901f5a6cfb7d465ee4969db651885948d3b6015b8906114fc906102ef6107686009546113e3565b0390a2565b919592936005819892969801916115198484546113a7565b98600092835b8954811015611618578b8a8a8a611544600461153b8786610b59565b50015460ff1690565b61155b575b5050505061155690611064565b61151f565b611566859499611064565b988b8b818c14600014977f683b5b362bae69cad1afded62ff468e9b9ea9df8ab2303d0018e71125ad2ef6393611602936115e6936115569b611610576115c0926115b46115ba9254936113c7565b90611051565b906113d6565b965b6115e1886107a36115d38585610b59565b50546001600160a01b031690565b610b59565b50546040519586526001600160a01b0316949081906020820190565b0390a490508b8a8a8a611549565b5050966115c2565b50919950949794969095949350915086905061145e565b61163e600461153b8387610b59565b611651575b61164c90611064565b61144f565b9161165e61164c91611064565b929050611643565b60405163a9059cbb60e01b60208201526001600160a01b039092166024830152604480830193909352918152608081019167ffffffffffffffff831182841017610946576110f19260405261120e565b67ffffffffffffffff811161094657601f01601f191660200190565b906116dc826116b6565b6116e960405191826110c2565b82815280926116fa601f19916116b6565b0190602036910137565b91909160009081526020926006845260408220908252835260408120928354801561177e578060051b818104830361104c5761173f906116d2565b925b81811061175357505081519101209150565b8060016117636117799389610b59565b5001548461177083611036565b87010152611064565b611741565b509092505056fea264697066735822122074f755fad43622770263a7271fb7d4d0a4fa078f0f5366fb8642340cb72528ff64736f6c63430008140033",
  "linkReferences": {},
  "deployedLinkReferences": {}
}