{
  "_format": "hh-sol-artifact-1",
  "contractName": "SemanticMatchmaker",
  "sourceName": "src/examples/SemanticMatchmaker.sol",
  "abi": [
    {
      "inputs": [
        {
          "internalType": "uint256",
          "name": "dimension_",
          "type": "uint256"
        }
      ],
      "stateMutability": "nonpayable",
      "type": "constructor"
    },
    {
      "inputs": [
        {
          "internalType": "address",
          "name": "player",
          "type": "address"
        }
      ],
      "name": "AlreadyInQueue",
      "type": "error"
    },
    {
      "inputs": [],
      "name": "InsufficientGas",
      "type": "error"
    },
    {
      "inputs": [
        {
          "internalType": "uint256",
          "name": "min",
          "type": "uint256"
        },
        {
          "internalType": "uint256",
          "name": "max",
          "type": "uint256"
        }
      ],
      "name": "InvalidPlayerCount",
      "type": "error"
    },
    {
      "inputs": [
        {
          "internalType": "uint256",
          "name": "matchId",
          "type": "uint256"
        }
      ],
      "name": "MatchNotFound",
      "type": "error"
    },
    {
      "inputs": [],
      "name": "NoSuitableMatch",
      "type": "error"
    },
    {
      "inputs": [
        {
          "internalType": "address",
          "name": "owner",
          "type": "address"
        }
      ],
      "name": "OwnableInvalidOwner",
      "type": "error"
    },
    {
      "inputs": [
        {
          "internalType": "address",
          "name": "account",
          "type": "address"
        }
      ],
      "name": "OwnableUnauthorizedAccount",
      "type": "error"
    },
    {
      "inputs": [
        {
          "internalType": "address",
          "name": "precompile",
          "type": "address"
        }
      ],
      "name": "PrecompileCallFailed",
      "type": "error"
    },
    {
      "inputs": [
        {
          "internalType": "uint256",
          "name": "unlocksAt",
          "type": "uint256"
        }
      ],
      "name": "ProfileCooldown",
      "type": "error"
    },
    {
      "inputs": [
        {
          "internalType": "address",
          "name": "player",
          "type": "address"
        }
      ],
      "name": "ProfileNotFound",
      "type": "error"
    },
    {
      "inputs": [],
      "name": "ReentrancyGuardReentrantCall",
      "type": "error"
    },
    {
      "anonymous": false,
      "inputs": [
        {
          "indexed": true,
          "internalType": "uint256",
          "name": "matchId",
          "type": "uint256"
        },
        {
          "indexed": false,
          "internalType": "address",
          "name": "winner",
          "type": "address"
        }
      ],
      "name": "MatchCompleted",
      "type": "event"
    },
    {
      "anonymous": false,
      "inputs": [
        {
          "indexed": true,
          "internalType": "uint256",
          "name": "matchId",
          "type": "uint256"
        },
        {
          "indexed": false,
          "internalType": "address[]",
          "name": "players",
          "type": "address[]"
        },
        {
          "indexed": false,
          "internalType": "uint256",
          "name": "averageRating",
          "type": "uint256"
        }
      ],
      "name": "MatchCreated",
      "type": "event"
    },
    {
      "anonymous": false,
      "inputs": [
        {
          "indexed": true,
          "internalType": "address",
          "name": "player",
          "type": "address"
        },
        {
          "indexed": false,
          "internalType": "uint256",
          "name": "queuePosition",
          "type": "uint256"
        }
      ],
      "name": "MatchRequested",
      "type": "event"
    },
    {
      "anonymous": false,
      "inputs": [
        {
          "indexed": true,
          "internalType": "address",
          "name": "previousOwner",
          "type": "address"
        },
        {
          "indexed": true,
          "internalType": "address",
          "name": "newOwner",
          "type": "address"
        }
      ],
      "name": "OwnershipTransferred",
      "type": "event"
    },
    {
      "anonymous": false,
      "inputs": [
        {
          "indexed": true,
          "internalType": "address",
          "name": "player",
          "type": "address"
        },
        {
          "indexed": false,
          "internalType": "uint64",
          "name": "vectorId",
          "type": "uint64"
        },
        {
          "indexed": false,
          "internalType": "uint256",
          "name": "initialRating",
          "type": "uint256"
        }
      ],
      "name": "ProfileRegistered",
      "type": "event"
    },
    {
      "anonymous": false,
      "inputs": [
        {
          "indexed": true,
          "internalType": "address",
          "name": "player",
          "type": "address"
        },
        {
          "indexed": false,
          "internalType": "uint64",
          "name": "newVectorId",
          "type": "uint64"
        }
      ],
      "name": "ProfileUpdated",
      "type": "event"
    },
    {
      "inputs": [],
      "name": "MAX_PLAYERS_PER_MATCH",
      "outputs": [
        {
          "internalType": "uint256",
          "name": "",
          "type": "uint256"
        }
      ],
      "stateMutability": "view",
      "type": "function"
    },
    {
      "inputs": [],
      "name": "MAX_SIMILARITY",
      "outputs": [
        {
          "internalType": "uint256",
          "name": "",
          "type": "uint256"
        }
      ],
      "stateMutability": "view",
      "type": "function"
    },
    {
      "inputs": [],
      "name": "MIN_SIMILARITY",
      "outputs": [
        {
          "internalType": "uint256",
          "name": "",
          "type": "uint256"
        }
      ],
      "stateMutability": "view",
      "type": "function"
    },
    {
      "inputs": [],
      "name": "PROFILE_COOLDOWN",
      "outputs": [
        {
          "internalType": "uint256",
          "name": "",
          "type": "uint256"
        }
      ],
      "stateMutability": "view",
      "type": "function"
    },
    {
      "inputs": [
        {
          "internalType": "address",
          "name": "player",
          "type": "address"
        }
      ],
      "name": "classifyTier",
      "outputs": [
        {
          "internalType": "uint32",
          "name": "tier",
          "type": "uint32"
        },
        {
          "internalType": "uint256",
          "name": "confidence",
          "type": "uint256"
        }
      ],
      "stateMutability": "view",
      "type": "function"
    },
    {
      "inputs": [],
      "name": "embeddingDimension",
      "outputs": [
        {
          "internalType": "uint256",
          "name": "",
          "type": "uint256"
        }
      ],
      "stateMutability": "view",
      "type": "function"
    },
    {
      "inputs": [
        {
          "internalType": "address",
          "name": "player",
          "type": "address"
        },
        {
          "internalType": "uint256",
          "name": "count",
          "type": "uint256"
        }
      ],
      "name": "findSimilarPlayers",
      "outputs": [
        {
          "internalType": "address[]",
          "name": "similarPlayers",
          "type": "address[]"
        },
        {
          "internalType": "uint256[]",
          "name": "similarities",
          "type": "uint256[]"
        }
      ],
      "stateMutability": "view",
      "type": "function"
    },
    {
      "inputs": [
        {
          "internalType": "uint256",
          "name": "matchId",
          "type": "uint256"
        }
      ],
      "name": "getMatch",
      "outputs": [
        {
          "components": [
            {
              "internalType": "uint256",
              "name": "matchId",
              "type": "uint256"
            },
            {
              "internalType": "address[]",
              "name": "players",
              "type": "address[]"
            },
            {
              "internalType": "uint64[]",
              "name": "profileIds",
              "type": "uint64[]"
            },
            {
              "internalType": "uint256",
              "name": "averageRating",
              "type": "uint256"
            },
            {
              "internalType": "uint256",
              "name": "createdAt",
              "type": "uint256"
            },
            {
              "internalType": "enum SemanticMatchmaker.MatchStatus",
              "name": "status",
              "type": "uint8"
            }
          ],
          "internalType": "struct SemanticMatchmaker.Match",
          "name": "",
          "type": "tuple"
        }
      ],
      "stateMutability": "view",
      "type": "function"
    },
    {
      "inputs": [
        {
          "internalType": "address",
          "name": "player",
          "type": "address"
        }
      ],
      "name": "getProfile",
      "outputs": [
        {
          "components": [
            {
              "internalType": "uint64",
              "name": "vectorId",
              "type": "uint64"
            },
            {
              "internalType": "uint256",
              "name": "skillRating",
              "type": "uint256"
            },
            {
              "internalType": "uint256",
              "name": "matchesPlayed",
              "type": "uint256"
            },
            {
              "internalType": "uint256",
              "name": "lastUpdated",
              "type": "uint256"
            },
            {
              "internalType": "bool",
              "name": "isActive",
              "type": "bool"
            }
          ],
          "internalType": "struct SemanticMatchmaker.PlayerProfile",
          "name": "",
          "type": "tuple"
        }
      ],
      "stateMutability": "view",
      "type": "function"
    },
    {
      "inputs": [],
      "name": "getQueueLength",
      "outputs": [
        {
          "internalType": "uint256",
          "name": "",
          "type": "uint256"
        }
      ],
      "stateMutability": "view",
      "type": "function"
    },
    {
      "inputs": [
        {
          "internalType": "address",
          "name": "",
          "type": "address"
        }
      ],
      "name": "isInQueue",
      "outputs": [
        {
          "internalType": "bool",
          "name": "",
          "type": "bool"
        }
      ],
      "stateMutability": "view",
      "type": "function"
    },
    {
      "inputs": [
        {
          "internalType": "uint256",
          "name": "",
          "type": "uint256"
        }
      ],
      "name": "matchQueue",
      "outputs": [
        {
          "internalType": "address",
          "name": "player",
          "type": "address"
        },
        {
          "internalType": "uint64",
          "name": "profileId",
          "type": "uint64"
        },
        {
          "internalType": "uint256",
          "name": "requestedAt",
          "type": "uint256"
        },
        {
          "internalType": "uint256",
          "name": "minPlayers",
          "type": "uint256"
        },
        {
          "internalType": "uint256",
          "name": "maxPlayers",
          "type": "uint256"
        }
      ],
      "stateMutability": "view",
      "type": "function"
    },
    {
      "inputs": [
        {
          "internalType": "uint256",
          "name": "",
          "type": "uint256"
        }
      ],
      "name": "matches",
      "outputs": [
        {
          "internalType": "uint256",
          "name": "matchId",
          "type": "uint256"
        },
        {
          "internalType": "uint256",
          "name": "averageRating",
          "type": "uint256"
        },
        {
          "internalType": "uint256",
          "name": "createdAt",
          "type": "uint256"
        },
        {
          "internalType": "enum SemanticMatchmaker.MatchStatus",
          "name": "status",
          "type": "uint8"
        }
      ],
      "stateMutability": "view",
      "type": "function"
    },
    {
      "inputs": [],
      "name": "nextMatchId",
      "outputs": [
        {
          "internalType": "uint256",
          "name": "",
          "type": "uint256"
        }
      ],
      "stateMutability": "view",
      "type": "function"
    },
    {
      "inputs": [],
      "name": "owner",
      "outputs": [
        {
          "internalType": "address",
          "name": "",
          "type": "address"
        }
      ],
      "stateMutability": "view",
      "type": "function"
    },
    {
      "inputs": [
        {
          "internalType": "address",
          "name": "",
          "type": "address"
        }
      ],
      "name": "profiles",
      "outputs": [
        {
          "internalType": "uint64",
          "name": "vectorId",
          "type": "uint64"
        },
        {
          "internalType": "uint256",
          "name": "skillRating",
          "type": "uint256"
        },
        {
          "internalType": "uint256",
          "name": "matchesPlayed",
          "type": "uint256"
        },
        {
          "internalType": "uint256",
          "name": "lastUpdated",
          "type": "uint256"
        },
        {
          "internalType": "bool",
          "name": "isActive",
          "type": "bool"
        }
      ],
      "stateMutability": "view",
      "type": "function"
    },
    {
      "inputs": [
        {
          "internalType": "int256[]",
          "name": "embedding",
          "type": "int256[]"
        },
        {
          "internalType": "bytes32[]",
          "name": "tags",
          "type": "bytes32[]"
        }
      ],
      "name": "registerProfile",
      "outputs": [
        {
          "internalType": "uint64",
          "name": "vectorId",
          "type": "uint64"
        }
      ],
      "stateMutability": "nonpayable",
      "type": "function"
    },
    {
      "inputs": [],
      "name": "renounceOwnership",
      "outputs": [],
      "stateMutability": "nonpayable",
      "type": "function"
    },
    {
      "inputs": [
        {
          "internalType": "uint256",
          "name": "minPlayers",
          "type": "uint256"
        },
        {
          "internalType": "uint256",
          "name": "maxPlayers",
          "type": "uint256"
        }
      ],
      "name": "requestMatch",
      "outputs": [
        {
          "internalType": "uint256",
          "name": "queuePosition",
          "type": "uint256"
        }
      ],
      "stateMutability": "nonpayable",
      "type": "function"
    },
    {
      "inputs": [
        {
          "internalType": "address",
          "name": "newOwner",
          "type": "address"
        }
      ],
      "name": "transferOwnership",
      "outputs": [],
      "stateMutability": "nonpayable",
      "type": "function"
    },
    {
      "inputs": [
        {
          "internalType": "int256[]",
          "name": "embedding",
          "type": "int256[]"
        },
        {
          "internalType": "bytes32[]",
          "name": "tags",
          "type": "bytes32[]"
        }
      ],
      "name": "updateProfile",
      "outputs": [
        {
          "internalType": "uint64",
          "name": "newVectorId",
          "type": "uint64"
        }
      ],
      "stateMutability": "nonpayable",
      "type": "function"
    }
  ],
  "bytecode": "0x6080346100bf57601f611fc838819003918201601f19168301916001600160401b038311848410176100c4578084926020946040528339810103126100bf575133156100a65760008054336001600160a01b0319821681178355604051939290916001600160a01b0316907f8be0079c531659141344cd1fd0a4f28419497f9722a3daafe3b4186f6b6457e09080a3600180556007556001600555611eed90816100db8239f35b604051631e4fbdf760e01b815260006004820152602490fd5b600080fd5b634e487b7160e01b600052604160045260246000fdfe608080604052600436101561001357600080fd5b60003560e01c9081630f53a470146110925750806317d6457214610f4b578063205a6d87146101295780633d092b3d14610c7d578063423f4943146109365780634768d4ef146108dd5780636a4f29c214610870578063715018a614610817578063826a0a53146107145780638da5cb5b146106eb5780639752d538146104e0578063ac01d9ea146104bd578063b0f9c410146102ce578063b8f77005146102b0578063bbe156271461023c578063c5adf7c91461021e578063d71437cb146101df578063edb18822146101bc578063f2fde38b1461012e578063f3226aa4146101295763fd7288c01461010657600080fd5b34610124576000366003190112610124576020600754604051908152f35b600080fd5b6111ea565b346101245760203660031901126101245761014761115a565b61014f6112a0565b6001600160a01b039081169081156101a357600054826bffffffffffffffffffffffff60a01b821617600055167f8be0079c531659141344cd1fd0a4f28419497f9722a3daafe3b4186f6b6457e0600080a3005b604051631e4fbdf760e01b815260006004820152602490fd5b34610124576000366003190112610124576020604051670c7d713b49da00008152f35b34610124576020366003190112610124576001600160a01b0361020061115a565b166000526006602052602060ff604060002054166040519015158152f35b34610124576000366003190112610124576020600554604051908152f35b34610124576020366003190112610124576001600160a01b0361025d61115a565b16600052600260205260a060406000206001600160401b0381541690600181015490600281015460ff60046003840154930154169260405194855260208501526040840152606083015215156080820152f35b34610124576000366003190112610124576020600454604051908152f35b346101245760403660031901126101245760043560248035906102ef6113c8565b33600052602091600283526001600160401b0393846040600020541680156104a65760028210801561049c575b8015610493575b61047657336000526006855260ff6040600020541661045f57604051906103498261130c565b33825285820190815260408201914283526060810193845260808101948552600454600160401b81101561044a578060016103879201600455611250565b969096610436575051855491516001600160e01b03199092166001600160a01b039190911617961660a01b67ffffffffffffffff60a01b16959095178355929391926003925160018501555160028401555191015533600052600681526040600020600160ff198254161790556004546040518181527f49baa19ed9cd5bcae46a58df453f160f8137c1a83be313b6e6a09230cff90944833392a261042a6114dd565b60018055604051908152f35b634e487b7160e01b60005260006004526000fd5b86634e487b7160e01b60005260416004526000fd5b604051639d53ec3d60e01b81523360048201528490fd5b509060449260405192632f6ff7c960e11b84526004840152820152fd5b50828211610323565b506064831161031c565b60405163c23cb52560e01b81523360048201528490fd5b34610124576000366003190112610124576020604051670429d069189e00008152f35b3461012457602080600319360112610124576001600160a01b0361050261115a565b1680600052600282526001600160401b039081604060002054169081156106d3575061053061053791611c8a565b91906113f8565b60405161054381611327565b6005815260005b60a0811061068e5750805192606484029380850460641490151715610678576161a893840180941161067857835a10610666576040519161059686840194606086526080850190611c17565b91601f1992838582030160408601528780845192838152019301916000905b8983831061063a576000808b8b60228c6105de8d828e6003606083015203908101835282611342565b5192fa906105ea611c4b565b91156106215760408280518101031261012457808201519063ffffffff821680920361012457604080930151908351928352820152f35b604051636f99e79360e01b815260226004820152602490fd5b6040859663ffffffff8360019596979851878151168452015116838201520195019201909291926105b5565b6040516307099c5360e21b8152600490fd5b634e487b7160e01b600052601160045260246000fd5b604051906040820191808310868411176106bd578692604052600081526000838201528282850101520161054a565b634e487b7160e01b600052604160045260246000fd5b6024906040519063c23cb52560e01b82526004820152fd5b34610124576000366003190112610124576000546040516001600160a01b039091168152602090f35b3461012457610722366111a0565b9261072e9291926113c8565b3360005260026020526040600020926001600160401b039182855416156107ff576003850193845460648101809111610678578043106107e7575061079a9261078c602098936107949361078560075482146112cc565b369161137a565b92369161137a565b90611d9e565b501691826001600160401b03198254161790554390556040518181527f60e38dce54e6442f7beb13b209e159ef09a633a0f904742643b3832a0c52401a833392a260018055604051908152f35b6024906040519063e9dc722560e01b82526004820152fd5b60405163c23cb52560e01b8152336004820152602490fd5b34610124576000366003190112610124576108306112a0565b600080546001600160a01b0319811682556001600160a01b03167f8be0079c531659141344cd1fd0a4f28419497f9722a3daafe3b4186f6b6457e08280a3005b34610124576020366003190112610124576004356004548110156101245761089960a091611250565b5080549060018101549060036002820154910154916001600160401b0360405194600180881b0381168652861c166020850152604084015260608301526080820152f35b346101245760203660031901126101245760043560005260036020526080604060002061093481549160038101549060ff600560048301549201541691604051948552602085015260408401526060830190611206565bf35b346101245760403660031901126101245761094f61115a565b6024359060018060a01b0316806000526020600281526001600160401b039182604060002054169081156106d3575061098a61053082611c8a565b6001948581018091116106785761ea60805a1061066657600092602884936109d960405180926109c58b830196604088526060840190611c17565b90604083015203601f198101835282611342565b5192fa6109e4611c4b565b9015610c6457805181019360608285870196031261012457838201518181116101245782019480603f87011215610124578486015195610a2387611363565b96610a316040519889611342565b80885260408789019160051b83010191838311610124576040889101915b838310610c4c575050505060408301518281116101245783019281603f85011215610124578584015193610a8285611363565b94610a906040519687611342565b80865260408887019160051b83010191848311610124576040899101915b838310610c3c5750505050606081015190838211610124570181603f82011215610124578581015190604087610ae384611363565b610aef83519182611342565b848152019260051b82010192831161012457959795604001905b828210610c1e57505050600094846000905b610b83575b5050505050610b37610b3183611474565b92611474565b92610b4d60405193604085526040850190611213565b8381038285015281808651928381520195019160005b828110610b705785870386f35b8351875295810195928101928401610b63565b908597959392918151811015610c15578583610b9f8385611460565b5116141580610bf9575b80610bdd575b610bc8575b610bbd90611444565b909192939597610b1b565b96610bd5610bbd91611444565b979050610bb4565b50670c7d713b49da0000610bf18286611460565b511115610baf565b50670429d069189e0000610c0d8286611460565b511015610ba9565b50969496610b20565b81989698516008811015610124578152959795908801908801610b09565b8251815291810191899101610aae565b8190610c5784611d8a565b8152019101908790610a4f565b604051636f99e79360e01b815260286004820152602490fd5b3461012457602036600319011261012457604051610c9a81611327565b60008152606060208201526060604082015260006060820152600060a06080928284820152015260043560005260036020526040600020604051610cdd81611327565b81548152600182016040518082602082945493848152019060005260206000209260005b818110610f29575050610d1692500382611342565b60208201526002820191604051808460208296549384815201906000526020600020926000905b88816003840110610ee75750610d75945491818110610ecd575b818110610eb0575b818110610e94575b10610e86575b500384611342565b604082019283526003810154936060830194855260ff60056004840154938386019485520154169460a08401956004811015610e705786526040519460208652602060e087019580518289015201519460c0604088015285518091526020610100880196019060005b818110610e51575050505193601f198682030160608701526020808651928381520195019060005b818110610e325750505091849591610e2e9351908601525160a08501525160c0840190611206565b0390f35b82516001600160401b0316875260209687019690920191600101610e06565b82516001600160a01b0316885260209788019790920191600101610dde565b634e487b7160e01b600052602160045260246000fd5b60c01c815260200187610d6d565b9260206001916001600160401b03858d1c168152019301610d67565b9260206001916001600160401b038560401c168152019301610d5f565b9260206001916001600160401b0385168152019301610d57565b60049294506001919386546001600160401b038082168352808260401c16602084015281841c16604083015260c01c6060820152019401920186929391610d3d565b84546001600160a01b0316835260019485019486945060209093019201610d01565b3461012457610f59366111a0565b90610f626113c8565b610f6f60075484146112cc565b33600052602093600285526001600160401b0393846040600020541661105c579161078c61079492610fa39594369161137a565b508160405191610fb28361130c565b16918282526004848301926103e893848152604082016000815260608301914383526080840195600187523360005260028a5260406000209451166001600160401b0319855416178455516001840155516002830155516003820155019051151560ff8019835416911617905560405190828252838201527fdb0a5a669a79b0982489666081a121b5c52945aa94bd37dbfec4a851e2f758c560403392a260018055604051908152f35b60405162461bcd60e51b815260048101879052600e60248201526d50726f66696c652065786973747360901b6044820152606490fd5b3461012457602036600319011261012457600060806110af61115a565b926110b98161130c565b828152826020820152826040820152826060820152015260018060a01b0316600052600260205260a060406000206040516110f38161130c565b6001600160401b038254169182825260018101546020830190815260028201549060408401918252608060ff600460038601549560608801968752015416940193151584526040519485525160208501525160408401525160608301525115156080820152f35b600435906001600160a01b038216820361012457565b9181601f84011215610124578235916001600160401b038311610124576020808501948460051b01011161012457565b6040600319820112610124576001600160401b039160043583811161012457826111cc91600401611170565b93909392602435918211610124576111e691600401611170565b9091565b3461012457600036600319011261012457602060405160648152f35b906004821015610e705752565b90815180825260208080930193019160005b828110611233575050505090565b83516001600160a01b031685529381019392810192600101611225565b60045481101561128a57600460005260021b7f8a35acfbc15ff81a39ae7d344fd709f28e8600b4aa8c65c6b64bfe7fe36bd19b0190600090565b634e487b7160e01b600052603260045260246000fd5b6000546001600160a01b031633036112b457565b60405163118cdaa760e01b8152336004820152602490fd5b156112d357565b60405162461bcd60e51b815260206004820152601160248201527024b73b30b634b2103234b6b2b739b4b7b760791b6044820152606490fd5b60a081019081106001600160401b038211176106bd57604052565b60c081019081106001600160401b038211176106bd57604052565b90601f801991011681019081106001600160401b038211176106bd57604052565b6001600160401b0381116106bd5760051b60200190565b929161138582611363565b916113936040519384611342565b829481845260208094019160051b810192831161012457905b8282106113b95750505050565b813581529083019083016113ac565b6002600154146113d9576002600155565b604051633ee5aeb560e01b8152600490fd5b9190820180921161067857565b156113ff57565b60405162461bcd60e51b815260206004820152601860248201527f50726f66696c6520766563746f72206e6f7420666f756e6400000000000000006044820152606490fd5b60001981146106785760010190565b80511561128a5760200190565b805182101561128a5760209160051b010190565b9061147e82611363565b61148b6040519182611342565b828152809261149c601f1991611363565b0190602036910137565b81156114b0570490565b634e487b7160e01b600052601260045260246000fd5b8181106114d1575050565b600081556001016114c6565b60045460028110611c1457801561128a576004600052604051916115008361130c565b7f8a35acfbc15ff81a39ae7d344fd709f28e8600b4aa8c65c6b64bfe7fe36bd19b546001600160a01b038116845260a01c6001600160401b031660208401527f8a35acfbc15ff81a39ae7d344fd709f28e8600b4aa8c65c6b64bfe7fe36bd19c5460408401527f8a35acfbc15ff81a39ae7d344fd709f28e8600b4aa8c65c6b64bfe7fe36bd19d5460608401527f8a35acfbc15ff81a39ae7d344fd709f28e8600b4aa8c65c6b64bfe7fe36bd19e54608084018190526115bf90611474565b6115cc6080850151611474565b84519091906001906001600160a01b03166115e683611453565b526001600160401b036020870151166115fe84611453565b5261160885611474565b928194600061161686611453565b52825b87811080611c07575b156116f45761163081611250565b506040519061163e8261130c565b80549060018060a01b03821683526001600160401b038260a01c1660208401526001810154604084015260036002820154918260608601520154608084015260808c01511015611699575b505061169490611444565b611619565b9194611694926116d7926001600160401b0391602091906001600160a01b03166116c3858c611460565b520151166116d18287611460565b52611444565b93806116ec6116e58a611444565b9989611460565b529038611689565b50966060919294959650015183101561170f575b5050505050565b9061171983611474565b9361172384611474565b916000936000915b868310611b84575050506005549561174287611444565b60055561174f85856114a6565b6040519361175c85611327565b88855287602086015260408501526060840152426080840152600060a084015286600052600360205260406000208351815560208401518051906001600160401b0382116106bd57600160401b82116106bd57602060018401918254848455808510611b67575b500190600052602060002060005b838110611b4a575050505060408401518051906001600160401b0382116106bd57600160401b82116106bd576020906002840154836002860155808410611af9575b5001906002830160005260206000209060005b8160021c8110611ab3575060031981168103611a53575b505050600560a091606086015160038201556080860151600482015501930151926004841015610e705760ff199360ff858354169116179055805b6118d557505050916118ae6118c2927fed8df6391a376fae78c8518bb7f495881599d1990b44fba5e78b192cb9df32ea946114a6565b604051928392604084526040840190611213565b9060208301520390a23880808080611708565b600019818101828111610678576118ec9084611460565b51600454811015611a1e5761190081611250565b50546001600160a01b031660009081526006602052604090208054861690556004548281019081116106785761193861193f91611250565b5091611250565b919091611990578082036119bc575b505060045480156119a6570161196381611250565b61199057600381600080935582600182015582600282015501556004558015610678576000190180611878565b634e487b7160e01b600052600060045260246000fd5b634e487b7160e01b600052603160045260246000fd5b805482546001600160a01b039091166001600160a01b0319821681178455825467ffffffffffffffff60a01b166001600160e01b031990921617178255600390819060018101546001850155600281015460028501550154910155388061194e565b60405162461bcd60e51b815260206004820152600d60248201526c092dcecc2d8d2c840d2dcc8caf609b1b6044820152606490fd5b60009260005b600319831683038110611a7757505060021c0155600560a03861183d565b90936020611aaa6001926001600160401b03885116908560031b60031b916001600160401b03809116831b921b19161790565b95019101611a59565b6000805b60048110611acc575083820155600101611826565b85519095916001916020916001600160401b0360068a901b81811b199092169216901b1792019501611ab7565b611b2b906002860160005283600020600380870160021c820192601888831b1680611b31575b500160021c01906114c6565b38611813565b60001990818601918254918a03851b1c16905538611b1f565b82516001600160a01b0316818301556020909201916001016117d1565b611b7e9084600052858460002091820191016114c6565b386117c3565b9194909190611c0090611bfa906001600160a01b03611ba38986611460565b5116611baf898c611460565b526001600160401b03611bc28987611460565b5116611bce8989611460565b526001600160a01b03611be18986611460565b51166000526002602052600160406000200154906113eb565b95611444565b919061172b565b5060808901518410611622565b50565b90815180825260208080930193019160005b828110611c37575050505090565b835185529381019392810192600101611c29565b3d15611c85573d906001600160401b0382116106bd5760405191611c79601f8201601f191660200184611342565b82523d6000602084013e565b606090565b614e2090815a1061066657604091825191602091828401936001600160401b03809316855283815285810191818310848411176106bd576026928752600095869384935192fa93611cd9611c4b565b9415611d735784518501918186858501940312611d6b5783860151958615158703611d6f5782810151918211611d6f57019082603f83011215611d6b578382015191611d2483611363565b95611d3183519788611342565b838752828688019460051b830101948511611d68575001905b828210611d5957505050509091565b81518152908301908301611d4a565b80fd5b8480fd5b8580fd5b51636f99e79360e01b815260266004820152602490fd5b51906001600160401b038216820361012457565b9190918051603281029080820460321490151715610678576188b890810180911161067857835160c881029080820460c8149015171561067857611de1916113eb565b805a106106665760405191602092611e0b84820192600284526080604084015260a0830190611c17565b95601f19968783820301606084015285808351928381520192019060005b818110611ea357505050602782611e5760009798998289989796958960808198015203908101835282611342565b5193f190611e63611c4b565b9115611e8a5760408280518101031261012457611e836040918301611d8a565b9101519091565b604051636f99e79360e01b815260276004820152602490fd5b825184529287019291870191600101611e2956fea264697066735822122024575ac1041fd8adae4f5880511b2017eb12f317cf1ffa7e0931e0dd18b9cf3464736f6c63430008140033",
  "linkReferences": {},
  "deployedLinkReferences": {}
}