{
  "_format": "hh-sol-artifact-1",
  "contractName": "SemanticMatchmaker",
  "sourceName": "src/examples/SemanticMatchmaker.sol",
  "abi": [
    {
      "inputs": [
        {
          "internalType": "uint256",
          "name": "dimension_",
          "type": "uint256"
        }
      ],
      "stateMutability": "nonpayable",
      "type": "constructor"
    },
    {
      "inputs": [
        {
          "internalType": "address",
          "name": "player",
          "type": "address"
        }
      ],
      "name": "AlreadyInQueue",
      "type": "error"
    },
    {
      "inputs": [],
      "name": "InsufficientGas",
      "type": "error"
    },
    {
      "inputs": [
        {
          "internalType": "uint256",
          "name": "min",
          "type": "uint256"
        },
        {
          "internalType": "uint256",
          "name": "max",
          "type": "uint256"
        }
      ],
      "name": "InvalidPlayerCount",
      "type": "error"
    },
    {
      "inputs": [
        {
          "internalType": "uint256",
          "name": "matchId",
          "type": "uint256"
        }
      ],
      "name": "MatchNotFound",
      "type": "error"
    },
    {
      "inputs": [],
      "name": "NoSuitableMatch",
      "type": "error"
    },
    {
      "inputs": [
        {
          "internalType": "address",
          "name": "owner",
          "type": "address"
        }
      ],
      "name": "OwnableInvalidOwner",
      "type": "error"
    },
    {
      "inputs": [
        {
          "internalType": "address",
          "name": "account",
          "type": "address"
        }
      ],
      "name": "OwnableUnauthorizedAccount",
      "type": "error"
    },
    {
      "inputs": [
        {
          "internalType": "address",
          "name": "precompile",
          "type": "address"
        }
      ],
      "name": "PrecompileCallFailed",
      "type": "error"
    },
    {
      "inputs": [
        {
          "internalType": "uint256",
          "name": "unlocksAt",
          "type": "uint256"
        }
      ],
      "name": "ProfileCooldown",
      "type": "error"
    },
    {
      "inputs": [
        {
          "internalType": "address",
          "name": "player",
          "type": "address"
        }
      ],
      "name": "ProfileNotFound",
      "type": "error"
    },
    {
      "inputs": [],
      "name": "ReentrancyGuardReentrantCall",
      "type": "error"
    },
    {
      "anonymous": false,
      "inputs": [
        {
          "indexed": true,
          "internalType": "uint256",
          "name": "matchId",
          "type": "uint256"
        },
        {
          "indexed": false,
          "internalType": "address",
          "name": "winner",
          "type": "address"
        }
      ],
      "name": "MatchCompleted",
      "type": "event"
    },
    {
      "anonymous": false,
      "inputs": [
        {
          "indexed": true,
          "internalType": "uint256",
          "name": "matchId",
          "type": "uint256"
        },
        {
          "indexed": false,
          "internalType": "address[]",
          "name": "players",
          "type": "address[]"
        },
        {
          "indexed": false,
          "internalType": "uint256",
          "name": "averageRating",
          "type": "uint256"
        }
      ],
      "name": "MatchCreated",
      "type": "event"
    },
    {
      "anonymous": false,
      "inputs": [
        {
          "indexed": true,
          "internalType": "address",
          "name": "player",
          "type": "address"
        },
        {
          "indexed": false,
          "internalType": "uint256",
          "name": "queuePosition",
          "type": "uint256"
        }
      ],
      "name": "MatchRequested",
      "type": "event"
    },
    {
      "anonymous": false,
      "inputs": [
        {
          "indexed": true,
          "internalType": "address",
          "name": "previousOwner",
          "type": "address"
        },
        {
          "indexed": true,
          "internalType": "address",
          "name": "newOwner",
          "type": "address"
        }
      ],
      "name": "OwnershipTransferred",
      "type": "event"
    },
    {
      "anonymous": false,
      "inputs": [
        {
          "indexed": true,
          "internalType": "address",
          "name": "player",
          "type": "address"
        },
        {
          "indexed": false,
          "internalType": "uint64",
          "name": "vectorId",
          "type": "uint64"
        },
        {
          "indexed": false,
          "internalType": "uint256",
          "name": "initialRating",
          "type": "uint256"
        }
      ],
      "name": "ProfileRegistered",
      "type": "event"
    },
    {
      "anonymous": false,
      "inputs": [
        {
          "indexed": true,
          "internalType": "address",
          "name": "player",
          "type": "address"
        },
        {
          "indexed": false,
          "internalType": "uint64",
          "name": "newVectorId",
          "type": "uint64"
        }
      ],
      "name": "ProfileUpdated",
      "type": "event"
    },
    {
      "inputs": [],
      "name": "MAX_PLAYERS_PER_MATCH",
      "outputs": [
        {
          "internalType": "uint256",
          "name": "",
          "type": "uint256"
        }
      ],
      "stateMutability": "view",
      "type": "function"
    },
    {
      "inputs": [],
      "name": "MAX_SIMILARITY",
      "outputs": [
        {
          "internalType": "uint256",
          "name": "",
          "type": "uint256"
        }
      ],
      "stateMutability": "view",
      "type": "function"
    },
    {
      "inputs": [],
      "name": "MIN_SIMILARITY",
      "outputs": [
        {
          "internalType": "uint256",
          "name": "",
          "type": "uint256"
        }
      ],
      "stateMutability": "view",
      "type": "function"
    },
    {
      "inputs": [],
      "name": "PROFILE_COOLDOWN",
      "outputs": [
        {
          "internalType": "uint256",
          "name": "",
          "type": "uint256"
        }
      ],
      "stateMutability": "view",
      "type": "function"
    },
    {
      "inputs": [
        {
          "internalType": "address",
          "name": "player",
          "type": "address"
        }
      ],
      "name": "classifyTier",
      "outputs": [
        {
          "internalType": "uint32",
          "name": "tier",
          "type": "uint32"
        },
        {
          "internalType": "uint256",
          "name": "confidence",
          "type": "uint256"
        }
      ],
      "stateMutability": "view",
      "type": "function"
    },
    {
      "inputs": [],
      "name": "embeddingDimension",
      "outputs": [
        {
          "internalType": "uint256",
          "name": "",
          "type": "uint256"
        }
      ],
      "stateMutability": "view",
      "type": "function"
    },
    {
      "inputs": [
        {
          "internalType": "address",
          "name": "player",
          "type": "address"
        },
        {
          "internalType": "uint256",
          "name": "count",
          "type": "uint256"
        }
      ],
      "name": "findSimilarPlayers",
      "outputs": [
        {
          "internalType": "address[]",
          "name": "similarPlayers",
          "type": "address[]"
        },
        {
          "internalType": "uint256[]",
          "name": "similarities",
          "type": "uint256[]"
        }
      ],
      "stateMutability": "view",
      "type": "function"
    },
    {
      "inputs": [
        {
          "internalType": "uint256",
          "name": "matchId",
          "type": "uint256"
        }
      ],
      "name": "getMatch",
      "outputs": [
        {
          "components": [
            {
              "internalType": "uint256",
              "name": "matchId",
              "type": "uint256"
            },
            {
              "internalType": "address[]",
              "name": "players",
              "type": "address[]"
            },
            {
              "internalType": "uint64[]",
              "name": "profileIds",
              "type": "uint64[]"
            },
            {
              "internalType": "uint256",
              "name": "averageRating",
              "type": "uint256"
            },
            {
              "internalType": "uint256",
              "name": "createdAt",
              "type": "uint256"
            },
            {
              "internalType": "enum SemanticMatchmaker.MatchStatus",
              "name": "status",
              "type": "uint8"
            }
          ],
          "internalType": "struct SemanticMatchmaker.Match",
          "name": "",
          "type": "tuple"
        }
      ],
      "stateMutability": "view",
      "type": "function"
    },
    {
      "inputs": [
        {
          "internalType": "address",
          "name": "player",
          "type": "address"
        }
      ],
      "name": "getProfile",
      "outputs": [
        {
          "components": [
            {
              "internalType": "uint64",
              "name": "vectorId",
              "type": "uint64"
            },
            {
              "internalType": "uint256",
              "name": "skillRating",
              "type": "uint256"
            },
            {
              "internalType": "uint256",
              "name": "matchesPlayed",
              "type": "uint256"
            },
            {
              "internalType": "uint256",
              "name": "lastUpdated",
              "type": "uint256"
            },
            {
              "internalType": "bool",
              "name": "isActive",
              "type": "bool"
            }
          ],
          "internalType": "struct SemanticMatchmaker.PlayerProfile",
          "name": "",
          "type": "tuple"
        }
      ],
      "stateMutability": "view",
      "type": "function"
    },
    {
      "inputs": [],
      "name": "getQueueLength",
      "outputs": [
        {
          "internalType": "uint256",
          "name": "",
          "type": "uint256"
        }
      ],
      "stateMutability": "view",
      "type": "function"
    },
    {
      "inputs": [
        {
          "internalType": "uint256",
          "name": "",
          "type": "uint256"
        }
      ],
      "name": "matchQueue",
      "outputs": [
        {
          "internalType": "address",
          "name": "player",
          "type": "address"
        },
        {
          "internalType": "uint64",
          "name": "profileId",
          "type": "uint64"
        },
        {
          "internalType": "uint256",
          "name": "requestedAt",
          "type": "uint256"
        },
        {
          "internalType": "uint256",
          "name": "minPlayers",
          "type": "uint256"
        },
        {
          "internalType": "uint256",
          "name": "maxPlayers",
          "type": "uint256"
        }
      ],
      "stateMutability": "view",
      "type": "function"
    },
    {
      "inputs": [
        {
          "internalType": "uint256",
          "name": "",
          "type": "uint256"
        }
      ],
      "name": "matches",
      "outputs": [
        {
          "internalType": "uint256",
          "name": "matchId",
          "type": "uint256"
        },
        {
          "internalType": "uint256",
          "name": "averageRating",
          "type": "uint256"
        },
        {
          "internalType": "uint256",
          "name": "createdAt",
          "type": "uint256"
        },
        {
          "internalType": "enum SemanticMatchmaker.MatchStatus",
          "name": "status",
          "type": "uint8"
        }
      ],
      "stateMutability": "view",
      "type": "function"
    },
    {
      "inputs": [],
      "name": "nextMatchId",
      "outputs": [
        {
          "internalType": "uint256",
          "name": "",
          "type": "uint256"
        }
      ],
      "stateMutability": "view",
      "type": "function"
    },
    {
      "inputs": [],
      "name": "owner",
      "outputs": [
        {
          "internalType": "address",
          "name": "",
          "type": "address"
        }
      ],
      "stateMutability": "view",
      "type": "function"
    },
    {
      "inputs": [
        {
          "internalType": "address",
          "name": "",
          "type": "address"
        }
      ],
      "name": "profiles",
      "outputs": [
        {
          "internalType": "uint64",
          "name": "vectorId",
          "type": "uint64"
        },
        {
          "internalType": "uint256",
          "name": "skillRating",
          "type": "uint256"
        },
        {
          "internalType": "uint256",
          "name": "matchesPlayed",
          "type": "uint256"
        },
        {
          "internalType": "uint256",
          "name": "lastUpdated",
          "type": "uint256"
        },
        {
          "internalType": "bool",
          "name": "isActive",
          "type": "bool"
        }
      ],
      "stateMutability": "view",
      "type": "function"
    },
    {
      "inputs": [
        {
          "internalType": "int256[]",
          "name": "embedding",
          "type": "int256[]"
        },
        {
          "internalType": "bytes32[]",
          "name": "tags",
          "type": "bytes32[]"
        }
      ],
      "name": "registerProfile",
      "outputs": [
        {
          "internalType": "uint64",
          "name": "vectorId",
          "type": "uint64"
        }
      ],
      "stateMutability": "nonpayable",
      "type": "function"
    },
    {
      "inputs": [],
      "name": "renounceOwnership",
      "outputs": [],
      "stateMutability": "nonpayable",
      "type": "function"
    },
    {
      "inputs": [
        {
          "internalType": "uint256",
          "name": "minPlayers",
          "type": "uint256"
        },
        {
          "internalType": "uint256",
          "name": "maxPlayers",
          "type": "uint256"
        }
      ],
      "name": "requestMatch",
      "outputs": [
        {
          "internalType": "uint256",
          "name": "queuePosition",
          "type": "uint256"
        }
      ],
      "stateMutability": "nonpayable",
      "type": "function"
    },
    {
      "inputs": [
        {
          "internalType": "address",
          "name": "newOwner",
          "type": "address"
        }
      ],
      "name": "transferOwnership",
      "outputs": [],
      "stateMutability": "nonpayable",
      "type": "function"
    },
    {
      "inputs": [
        {
          "internalType": "int256[]",
          "name": "embedding",
          "type": "int256[]"
        },
        {
          "internalType": "bytes32[]",
          "name": "tags",
          "type": "bytes32[]"
        }
      ],
      "name": "updateProfile",
      "outputs": [
        {
          "internalType": "uint64",
          "name": "newVectorId",
          "type": "uint64"
        }
      ],
      "stateMutability": "nonpayable",
      "type": "function"
    }
  ],
  "bytecode": "0x6080346100bf57601f611f5e38819003918201601f19168301916001600160401b038311848410176100c4578084926020946040528339810103126100bf575133156100a65760008054336001600160a01b0319821681178355604051939290916001600160a01b0316907f8be0079c531659141344cd1fd0a4f28419497f9722a3daafe3b4186f6b6457e09080a3600180556006556001600555611e8390816100db8239f35b604051631e4fbdf760e01b815260006004820152602490fd5b600080fd5b634e487b7160e01b600052604160045260246000fdfe608080604052600436101561001357600080fd5b60003560e01c9081630f53a4701461104d5750806317d6457214610f06578063205a6d871461011e5780633d092b3d14610c38578063423f4943146108f15780634768d4ef146108985780636a4f29c21461082b578063715018a6146107d2578063826a0a53146106cf5780638da5cb5b146106a65780639752d5381461049b578063ac01d9ea14610478578063b0f9c41014610284578063b8f7700514610266578063bbe15627146101f2578063c5adf7c9146101d4578063edb18822146101b1578063f2fde38b14610123578063f3226aa41461011e5763fd7288c0146100fb57600080fd5b34610119576000366003190112610119576020600654604051908152f35b600080fd5b6111a5565b346101195760203660031901126101195761013c611115565b61014461125b565b6001600160a01b0390811690811561019857600054826bffffffffffffffffffffffff60a01b821617600055167f8be0079c531659141344cd1fd0a4f28419497f9722a3daafe3b4186f6b6457e0600080a3005b604051631e4fbdf760e01b815260006004820152602490fd5b34610119576000366003190112610119576020604051670c7d713b49da00008152f35b34610119576000366003190112610119576020600554604051908152f35b34610119576020366003190112610119576001600160a01b03610213611115565b16600052600260205260a060406000206001600160401b0381541690600181015490600281015460ff60046003840154930154169260405194855260208501526040840152606083015215156080820152f35b34610119576000366003190112610119576020600454604051908152f35b3461011957604036600319011261011957600435602480356102a4611383565b3360005260026020526001600160401b03928360406000205416801561046157600282108015610457575b801561044e575b610431576004549060005b8281106103f257506040516102f5816112c7565b3381526020810191825260408101924284526060820194855260808201958652600160401b8110156103dd57806001610331920160045561120b565b9690966103c9575051855491516001600160e01b03199092166001600160a01b039190911617951660a01b67ffffffffffffffff60a01b169490941783559192600392905160018501555160028401555191015560206004546040518181527f49baa19ed9cd5bcae46a58df453f160f8137c1a83be313b6e6a09230cff90944833392a26103bd611498565b60018055604051908152f35b634e487b7160e01b60005260006004526000fd5b86634e487b7160e01b60005260416004526000fd5b6103fb8161120b565b50546001600160a01b0316331461041a57610415906113b3565b6102e1565b604051639d53ec3d60e01b81523360048201528690fd5b509060449260405192632f6ff7c960e11b84526004840152820152fd5b508282116102d6565b50606483116102cf565b60405163c23cb52560e01b81523360048201528490fd5b34610119576000366003190112610119576020604051670429d069189e00008152f35b3461011957602080600319360112610119576001600160a01b036104bd611115565b1680600052600282526001600160401b0390816040600020541690811561068e57506104eb6104f291611c20565b91906113c2565b6040516104fe816112e2565b6005815260005b60a081106106495750805192606484029380850460641490151715610633576161a893840180941161063357835a10610621576040519161055186840194606086526080850190611bad565b91601f1992838582030160408601528780845192838152019301916000905b898383106105f5576000808b8b60228c6105998d828e60036060830152039081018352826112fd565b5192fa906105a5611be1565b91156105dc5760408280518101031261011957808201519063ffffffff821680920361011957604080930151908351928352820152f35b604051636f99e79360e01b815260226004820152602490fd5b6040859663ffffffff836001959697985187815116845201511683820152019501920190929192610570565b6040516307099c5360e21b8152600490fd5b634e487b7160e01b600052601160045260246000fd5b604051906040820191808310868411176106785786926040526000815260008382015282828501015201610505565b634e487b7160e01b600052604160045260246000fd5b6024906040519063c23cb52560e01b82526004820152fd5b34610119576000366003190112610119576000546040516001600160a01b039091168152602090f35b34610119576106dd3661115b565b926106e9929192611383565b3360005260026020526040600020926001600160401b039182855416156107ba576003850193845460648101809111610633578043106107a25750610755926107476020989361074f936107406006548214611287565b3691611335565b923691611335565b90611d34565b501691826001600160401b03198254161790554390556040518181527f60e38dce54e6442f7beb13b209e159ef09a633a0f904742643b3832a0c52401a833392a260018055604051908152f35b6024906040519063e9dc722560e01b82526004820152fd5b60405163c23cb52560e01b8152336004820152602490fd5b34610119576000366003190112610119576107eb61125b565b600080546001600160a01b0319811682556001600160a01b03167f8be0079c531659141344cd1fd0a4f28419497f9722a3daafe3b4186f6b6457e08280a3005b34610119576020366003190112610119576004356004548110156101195761085460a09161120b565b5080549060018101549060036002820154910154916001600160401b0360405194600180881b0381168652861c166020850152604084015260608301526080820152f35b34610119576020366003190112610119576004356000526003602052608060406000206108ef81549160038101549060ff6005600483015492015416916040519485526020850152604084015260608301906111c1565bf35b346101195760403660031901126101195761090a611115565b6024359060018060a01b0316806000526020600281526001600160401b0391826040600020541690811561068e57506109456104eb82611c20565b6001948581018091116106335761ea60805a10610621576000926028849361099460405180926109808b830196604088526060840190611bad565b90604083015203601f1981018352826112fd565b5192fa61099f611be1565b9015610c1f57805181019360608285870196031261011957838201518181116101195782019480603f870112156101195784860151956109de8761131e565b966109ec60405198896112fd565b80885260408789019160051b83010191838311610119576040889101915b838310610c07575050505060408301518281116101195783019281603f85011215610119578584015193610a3d8561131e565b94610a4b60405196876112fd565b80865260408887019160051b83010191848311610119576040899101915b838310610bf75750505050606081015190838211610119570181603f82011215610119578581015190604087610a9e8461131e565b610aaa835191826112fd565b848152019260051b82010192831161011957959795604001905b828210610bd957505050600094846000905b610b3e575b5050505050610af2610aec8361142f565b9261142f565b92610b08604051936040855260408501906111ce565b8381038285015281808651928381520195019160005b828110610b2b5785870386f35b8351875295810195928101928401610b1e565b908597959392918151811015610bd0578583610b5a838561141b565b5116141580610bb4575b80610b98575b610b83575b610b78906113b3565b909192939597610ad6565b96610b90610b78916113b3565b979050610b6f565b50670c7d713b49da0000610bac828661141b565b511115610b6a565b50670429d069189e0000610bc8828661141b565b511015610b64565b50969496610adb565b81989698516008811015610119578152959795908801908801610ac4565b8251815291810191899101610a69565b8190610c1284611d20565b8152019101908790610a0a565b604051636f99e79360e01b815260286004820152602490fd5b3461011957602036600319011261011957604051610c55816112e2565b60008152606060208201526060604082015260006060820152600060a06080928284820152015260043560005260036020526040600020604051610c98816112e2565b81548152600182016040518082602082945493848152019060005260206000209260005b818110610ee4575050610cd1925003826112fd565b60208201526002820191604051808460208296549384815201906000526020600020926000905b88816003840110610ea25750610d30945491818110610e88575b818110610e6b575b818110610e4f575b10610e41575b5003846112fd565b604082019283526003810154936060830194855260ff60056004840154938386019485520154169460a08401956004811015610e2b5786526040519460208652602060e087019580518289015201519460c0604088015285518091526020610100880196019060005b818110610e0c575050505193601f198682030160608701526020808651928381520195019060005b818110610ded5750505091849591610de99351908601525160a08501525160c08401906111c1565b0390f35b82516001600160401b0316875260209687019690920191600101610dc1565b82516001600160a01b0316885260209788019790920191600101610d99565b634e487b7160e01b600052602160045260246000fd5b60c01c815260200187610d28565b9260206001916001600160401b03858d1c168152019301610d22565b9260206001916001600160401b038560401c168152019301610d1a565b9260206001916001600160401b0385168152019301610d12565b60049294506001919386546001600160401b038082168352808260401c16602084015281841c16604083015260c01c6060820152019401920186929391610cf8565b84546001600160a01b0316835260019485019486945060209093019201610cbc565b3461011957610f143661115b565b90610f1d611383565b610f2a6006548414611287565b33600052602093600285526001600160401b03938460406000205416611017579161074761074f92610f5e95943691611335565b508160405191610f6d836112c7565b16918282526004848301926103e893848152604082016000815260608301914383526080840195600187523360005260028a5260406000209451166001600160401b0319855416178455516001840155516002830155516003820155019051151560ff8019835416911617905560405190828252838201527fdb0a5a669a79b0982489666081a121b5c52945aa94bd37dbfec4a851e2f758c560403392a260018055604051908152f35b60405162461bcd60e51b815260048101879052600e60248201526d50726f66696c652065786973747360901b6044820152606490fd5b34610119576020366003190112610119576000608061106a611115565b92611074816112c7565b828152826020820152826040820152826060820152015260018060a01b0316600052600260205260a060406000206040516110ae816112c7565b6001600160401b038254169182825260018101546020830190815260028201549060408401918252608060ff600460038601549560608801968752015416940193151584526040519485525160208501525160408401525160608301525115156080820152f35b600435906001600160a01b038216820361011957565b9181601f84011215610119578235916001600160401b038311610119576020808501948460051b01011161011957565b6040600319820112610119576001600160401b039160043583811161011957826111879160040161112b565b93909392602435918211610119576111a19160040161112b565b9091565b3461011957600036600319011261011957602060405160648152f35b906004821015610e2b5752565b90815180825260208080930193019160005b8281106111ee575050505090565b83516001600160a01b0316855293810193928101926001016111e0565b60045481101561124557600460005260021b7f8a35acfbc15ff81a39ae7d344fd709f28e8600b4aa8c65c6b64bfe7fe36bd19b0190600090565b634e487b7160e01b600052603260045260246000fd5b6000546001600160a01b0316330361126f57565b60405163118cdaa760e01b8152336004820152602490fd5b1561128e57565b60405162461bcd60e51b815260206004820152601160248201527024b73b30b634b2103234b6b2b739b4b7b760791b6044820152606490fd5b60a081019081106001600160401b0382111761067857604052565b60c081019081106001600160401b0382111761067857604052565b90601f801991011681019081106001600160401b0382111761067857604052565b6001600160401b0381116106785760051b60200190565b92916113408261131e565b9161134e60405193846112fd565b829481845260208094019160051b810192831161011957905b8282106113745750505050565b81358152908301908301611367565b600260015414611394576002600155565b604051633ee5aeb560e01b8152600490fd5b9190820180921161063357565b60001981146106335760010190565b156113c957565b60405162461bcd60e51b815260206004820152601860248201527f50726f66696c6520766563746f72206e6f7420666f756e6400000000000000006044820152606490fd5b8051156112455760200190565b80518210156112455760209160051b010190565b906114398261131e565b61144660405191826112fd565b8281528092611457601f199161131e565b0190602036910137565b811561146b570490565b634e487b7160e01b600052601260045260246000fd5b81811061148c575050565b60008155600101611481565b60045460028110611baa578015611245576004600052604051916114bb836112c7565b7f8a35acfbc15ff81a39ae7d344fd709f28e8600b4aa8c65c6b64bfe7fe36bd19b546001600160a01b038116845260a01c6001600160401b031660208401527f8a35acfbc15ff81a39ae7d344fd709f28e8600b4aa8c65c6b64bfe7fe36bd19c5460408401527f8a35acfbc15ff81a39ae7d344fd709f28e8600b4aa8c65c6b64bfe7fe36bd19d5460608401527f8a35acfbc15ff81a39ae7d344fd709f28e8600b4aa8c65c6b64bfe7fe36bd19e546080840181905261157a9061142f565b611587608085015161142f565b84519091906001906001600160a01b03166115a18361140e565b526001600160401b036020870151166115b98461140e565b526115c38561142f565b92819460006115d18661140e565b52825b87811080611b9d575b156116af576115eb8161120b565b50604051906115f9826112c7565b80549060018060a01b03821683526001600160401b038260a01c1660208401526001810154604084015260036002820154918260608601520154608084015260808c01511015611654575b505061164f906113b3565b6115d4565b919461164f92611692926001600160401b0391602091906001600160a01b031661167e858c61141b565b5201511661168c828761141b565b526113b3565b93806116a76116a08a6113b3565b998961141b565b529038611644565b5096606091965093919301518310156116ca575b5050505050565b6116d68395929561142f565b936116e08461142f565b956000936000915b868310611b1a57505050600554956116ff876113b3565b60055561170c8585611461565b906040519161171a836112e2565b888352602083019188835260408401526060830152426080830152600060a083015287600052600360205260406000209082518255518051906001600160401b03821161067857600160401b8211610678576020906001840154836001860155808410611afa575b500160018301600052602060002060005b838110611add575050505060408201518051906001600160401b03821161067857600160401b8211610678576020906002840154836002860155808410611a8c575b5001906002830160005260206000209060005b8160021c8110611a465750600319811681036119e6575b505050600560a0916060840151600382015560808401516004820155019101516004811015610e2b5760ff80198354169116179055805b6118925750509161186b61187f927fed8df6391a376fae78c8518bb7f495881599d1990b44fba5e78b192cb9df32ea94611461565b6040519283926040845260408401906111ce565b9060208301520390a238808080806116c3565b600019818101828111610633576118a9908461141b565b51600454808210156119b157828101908111610633576118cb6118d29161120b565b509161120b565b9190916119235780820361194f575b5050600454801561193957016118f68161120b565b61192357600381600080935582600182015582600282015501556004558015610633576000190180611836565b634e487b7160e01b600052600060045260246000fd5b634e487b7160e01b600052603160045260246000fd5b805482546001600160a01b039091166001600160a01b0319821681178455825467ffffffffffffffff60a01b166001600160e01b03199092161717825560039081906001810154600185015560028101546002850155015491015538806118e1565b60405162461bcd60e51b815260206004820152600d60248201526c092dcecc2d8d2c840d2dcc8caf609b1b6044820152606490fd5b60009260005b600319831683038110611a0a57505060021c0155600560a0386117ff565b90936020611a3d6001926001600160401b03885116908560031b60031b916001600160401b03809116831b921b19161790565b950191016119ec565b6000805b60048110611a5f5750838201556001016117e8565b85519095916001916020916001600160401b0360068a901b81811b199092169216901b1792019501611a4a565b611abe906002860160005283600020600380870160021c820192601888831b1680611ac4575b500160021c0190611481565b386117d5565b60001990818601918254918a03851b1c16905538611ab2565b82516001600160a01b031681830155602090920191600101611793565b611b14906001860160005284846000209182019101611481565b38611782565b9194909190611b9690611b90906001600160a01b03611b39898661141b565b5116611b45898c61141b565b526001600160401b03611b58898761141b565b5116611b64898d61141b565b526001600160a01b03611b77898661141b565b51166000526002602052600160406000200154906113a6565b956113b3565b91906116e8565b50608089015184106115dd565b50565b90815180825260208080930193019160005b828110611bcd575050505090565b835185529381019392810192600101611bbf565b3d15611c1b573d906001600160401b0382116106785760405191611c0f601f8201601f1916602001846112fd565b82523d6000602084013e565b606090565b614e2090815a1061062157604091825191602091828401936001600160401b0380931685528381528581019181831084841117610678576026928752600095869384935192fa93611c6f611be1565b9415611d095784518501918186858501940312611d015783860151958615158703611d055782810151918211611d0557019082603f83011215611d01578382015191611cba8361131e565b95611cc7835197886112fd565b838752828688019460051b830101948511611cfe575001905b828210611cef57505050509091565b81518152908301908301611ce0565b80fd5b8480fd5b8580fd5b51636f99e79360e01b815260266004820152602490fd5b51906001600160401b038216820361011957565b9190918051603281029080820460321490151715610633576188b890810180911161063357835160c881029080820460c8149015171561063357611d77916113a6565b805a106106215760405191602092611da184820192600284526080604084015260a0830190611bad565b95601f19968783820301606084015285808351928381520192019060005b818110611e3957505050602782611ded600097989982899897969589608081980152039081018352826112fd565b5193f190611df9611be1565b9115611e205760408280518101031261011957611e196040918301611d20565b9101519091565b604051636f99e79360e01b815260276004820152602490fd5b825184529287019291870191600101611dbf56fea264697066735822122077499050afd77f7f4375a9343d49092dfdce75e241b69d793edd2623cf39ddfd64736f6c63430008140033",
  "linkReferences": {},
  "deployedLinkReferences": {}
}