{
  "_format": "hh-sol-artifact-1",
  "contractName": "TrustGraph",
  "sourceName": "src/examples/TrustGraph.sol",
  "abi": [
    {
      "inputs": [
        {
          "internalType": "uint256",
          "name": "dimension_",
          "type": "uint256"
        },
        {
          "internalType": "uint256",
          "name": "minConfidence_",
          "type": "uint256"
        }
      ],
      "stateMutability": "nonpayable",
      "type": "constructor"
    },
    {
      "inputs": [
        {
          "internalType": "address",
          "name": "user",
          "type": "address"
        }
      ],
      "name": "AlreadyVerified",
      "type": "error"
    },
    {
      "inputs": [
        {
          "internalType": "address",
          "name": "user",
          "type": "address"
        }
      ],
      "name": "InsufficientData",
      "type": "error"
    },
    {
      "inputs": [],
      "name": "InsufficientGas",
      "type": "error"
    },
    {
      "inputs": [
        {
          "internalType": "uint256",
          "name": "confidence",
          "type": "uint256"
        }
      ],
      "name": "InvalidConfidence",
      "type": "error"
    },
    {
      "inputs": [
        {
          "internalType": "address",
          "name": "user",
          "type": "address"
        }
      ],
      "name": "MaxAttestationsReached",
      "type": "error"
    },
    {
      "inputs": [
        {
          "internalType": "address",
          "name": "owner",
          "type": "address"
        }
      ],
      "name": "OwnableInvalidOwner",
      "type": "error"
    },
    {
      "inputs": [
        {
          "internalType": "address",
          "name": "account",
          "type": "address"
        }
      ],
      "name": "OwnableUnauthorizedAccount",
      "type": "error"
    },
    {
      "inputs": [
        {
          "internalType": "address",
          "name": "precompile",
          "type": "address"
        }
      ],
      "name": "PrecompileCallFailed",
      "type": "error"
    },
    {
      "inputs": [
        {
          "internalType": "address",
          "name": "user",
          "type": "address"
        }
      ],
      "name": "ProfileNotFound",
      "type": "error"
    },
    {
      "inputs": [],
      "name": "ReentrancyGuardReentrantCall",
      "type": "error"
    },
    {
      "inputs": [
        {
          "internalType": "address",
          "name": "attester",
          "type": "address"
        }
      ],
      "name": "UnauthorizedAttester",
      "type": "error"
    },
    {
      "anonymous": false,
      "inputs": [
        {
          "indexed": true,
          "internalType": "address",
          "name": "user",
          "type": "address"
        },
        {
          "indexed": true,
          "internalType": "address",
          "name": "attester",
          "type": "address"
        },
        {
          "indexed": false,
          "internalType": "enum TrustGraph.TrustLevel",
          "name": "level",
          "type": "uint8"
        }
      ],
      "name": "AttestationReceived",
      "type": "event"
    },
    {
      "anonymous": false,
      "inputs": [
        {
          "indexed": true,
          "internalType": "address",
          "name": "previousOwner",
          "type": "address"
        },
        {
          "indexed": true,
          "internalType": "address",
          "name": "newOwner",
          "type": "address"
        }
      ],
      "name": "OwnershipTransferred",
      "type": "event"
    },
    {
      "anonymous": false,
      "inputs": [
        {
          "indexed": true,
          "internalType": "address",
          "name": "user",
          "type": "address"
        },
        {
          "indexed": false,
          "internalType": "uint64",
          "name": "vectorId",
          "type": "uint64"
        }
      ],
      "name": "ProfileCreated",
      "type": "event"
    },
    {
      "anonymous": false,
      "inputs": [
        {
          "indexed": false,
          "internalType": "enum TrustGraph.TrustLevel",
          "name": "level",
          "type": "uint8"
        },
        {
          "indexed": false,
          "internalType": "uint64",
          "name": "vectorId",
          "type": "uint64"
        }
      ],
      "name": "ReferenceProfileAdded",
      "type": "event"
    },
    {
      "anonymous": false,
      "inputs": [
        {
          "indexed": true,
          "internalType": "address",
          "name": "user",
          "type": "address"
        },
        {
          "indexed": false,
          "internalType": "enum TrustGraph.TrustLevel",
          "name": "level",
          "type": "uint8"
        },
        {
          "indexed": false,
          "internalType": "uint256",
          "name": "confidence",
          "type": "uint256"
        }
      ],
      "name": "TrustClassified",
      "type": "event"
    },
    {
      "anonymous": false,
      "inputs": [
        {
          "indexed": true,
          "internalType": "address",
          "name": "user",
          "type": "address"
        },
        {
          "indexed": false,
          "internalType": "enum TrustGraph.TrustLevel",
          "name": "from",
          "type": "uint8"
        },
        {
          "indexed": false,
          "internalType": "enum TrustGraph.TrustLevel",
          "name": "to",
          "type": "uint8"
        }
      ],
      "name": "TrustLevelDowngraded",
      "type": "event"
    },
    {
      "anonymous": false,
      "inputs": [
        {
          "indexed": true,
          "internalType": "address",
          "name": "user",
          "type": "address"
        },
        {
          "indexed": false,
          "internalType": "enum TrustGraph.TrustLevel",
          "name": "from",
          "type": "uint8"
        },
        {
          "indexed": false,
          "internalType": "enum TrustGraph.TrustLevel",
          "name": "to",
          "type": "uint8"
        }
      ],
      "name": "TrustLevelUpgraded",
      "type": "event"
    },
    {
      "inputs": [],
      "name": "MAX_ATTESTATIONS",
      "outputs": [
        {
          "internalType": "uint256",
          "name": "",
          "type": "uint256"
        }
      ],
      "stateMutability": "view",
      "type": "function"
    },
    {
      "inputs": [],
      "name": "WEIGHT_THRESHOLD",
      "outputs": [
        {
          "internalType": "uint256",
          "name": "",
          "type": "uint256"
        }
      ],
      "stateMutability": "view",
      "type": "function"
    },
    {
      "inputs": [
        {
          "internalType": "enum TrustGraph.TrustLevel",
          "name": "level",
          "type": "uint8"
        },
        {
          "internalType": "int256[]",
          "name": "embedding",
          "type": "int256[]"
        },
        {
          "internalType": "uint256",
          "name": "weight",
          "type": "uint256"
        }
      ],
      "name": "addReferenceProfile",
      "outputs": [
        {
          "internalType": "uint64",
          "name": "vectorId",
          "type": "uint64"
        }
      ],
      "stateMutability": "nonpayable",
      "type": "function"
    },
    {
      "inputs": [
        {
          "internalType": "address",
          "name": "attester",
          "type": "address"
        }
      ],
      "name": "approveAttester",
      "outputs": [],
      "stateMutability": "nonpayable",
      "type": "function"
    },
    {
      "inputs": [
        {
          "internalType": "address",
          "name": "",
          "type": "address"
        }
      ],
      "name": "approvedAttesters",
      "outputs": [
        {
          "internalType": "bool",
          "name": "",
          "type": "bool"
        }
      ],
      "stateMutability": "view",
      "type": "function"
    },
    {
      "inputs": [
        {
          "internalType": "address",
          "name": "user",
          "type": "address"
        },
        {
          "internalType": "enum TrustGraph.TrustLevel",
          "name": "level",
          "type": "uint8"
        },
        {
          "internalType": "uint256",
          "name": "weight",
          "type": "uint256"
        },
        {
          "internalType": "string",
          "name": "reason",
          "type": "string"
        }
      ],
      "name": "attest",
      "outputs": [],
      "stateMutability": "nonpayable",
      "type": "function"
    },
    {
      "inputs": [
        {
          "internalType": "address",
          "name": "",
          "type": "address"
        },
        {
          "internalType": "uint256",
          "name": "",
          "type": "uint256"
        }
      ],
      "name": "attestations",
      "outputs": [
        {
          "internalType": "address",
          "name": "attester",
          "type": "address"
        },
        {
          "internalType": "enum TrustGraph.TrustLevel",
          "name": "attestedLevel",
          "type": "uint8"
        },
        {
          "internalType": "uint256",
          "name": "weight",
          "type": "uint256"
        },
        {
          "internalType": "uint256",
          "name": "timestamp",
          "type": "uint256"
        },
        {
          "internalType": "string",
          "name": "reason",
          "type": "string"
        }
      ],
      "stateMutability": "view",
      "type": "function"
    },
    {
      "inputs": [
        {
          "internalType": "address",
          "name": "user",
          "type": "address"
        }
      ],
      "name": "classifyTrust",
      "outputs": [
        {
          "internalType": "enum TrustGraph.TrustLevel",
          "name": "level",
          "type": "uint8"
        },
        {
          "internalType": "uint256",
          "name": "confidence",
          "type": "uint256"
        }
      ],
      "stateMutability": "nonpayable",
      "type": "function"
    },
    {
      "inputs": [],
      "name": "embeddingDimension",
      "outputs": [
        {
          "internalType": "uint256",
          "name": "",
          "type": "uint256"
        }
      ],
      "stateMutability": "view",
      "type": "function"
    },
    {
      "inputs": [
        {
          "internalType": "address",
          "name": "user",
          "type": "address"
        }
      ],
      "name": "getAttestationScore",
      "outputs": [
        {
          "internalType": "uint256",
          "name": "totalWeight",
          "type": "uint256"
        },
        {
          "internalType": "uint256",
          "name": "avgLevel",
          "type": "uint256"
        }
      ],
      "stateMutability": "view",
      "type": "function"
    },
    {
      "inputs": [
        {
          "internalType": "address",
          "name": "user",
          "type": "address"
        }
      ],
      "name": "getAttestations",
      "outputs": [
        {
          "components": [
            {
              "internalType": "address",
              "name": "attester",
              "type": "address"
            },
            {
              "internalType": "enum TrustGraph.TrustLevel",
              "name": "attestedLevel",
              "type": "uint8"
            },
            {
              "internalType": "uint256",
              "name": "weight",
              "type": "uint256"
            },
            {
              "internalType": "uint256",
              "name": "timestamp",
              "type": "uint256"
            },
            {
              "internalType": "string",
              "name": "reason",
              "type": "string"
            }
          ],
          "internalType": "struct TrustGraph.Attestation[]",
          "name": "",
          "type": "tuple[]"
        }
      ],
      "stateMutability": "view",
      "type": "function"
    },
    {
      "inputs": [
        {
          "internalType": "address",
          "name": "user",
          "type": "address"
        }
      ],
      "name": "getProfile",
      "outputs": [
        {
          "components": [
            {
              "internalType": "uint64",
              "name": "vectorId",
              "type": "uint64"
            },
            {
              "internalType": "enum TrustGraph.TrustLevel",
              "name": "level",
              "type": "uint8"
            },
            {
              "internalType": "uint256",
              "name": "confidence",
              "type": "uint256"
            },
            {
              "internalType": "uint256",
              "name": "positiveActions",
              "type": "uint256"
            },
            {
              "internalType": "uint256",
              "name": "negativeActions",
              "type": "uint256"
            },
            {
              "internalType": "uint256",
              "name": "lastUpdated",
              "type": "uint256"
            },
            {
              "internalType": "bool",
              "name": "isVerified",
              "type": "bool"
            }
          ],
          "internalType": "struct TrustGraph.TrustProfile",
          "name": "",
          "type": "tuple"
        }
      ],
      "stateMutability": "view",
      "type": "function"
    },
    {
      "inputs": [
        {
          "internalType": "address",
          "name": "user",
          "type": "address"
        }
      ],
      "name": "getTrustLevel",
      "outputs": [
        {
          "internalType": "enum TrustGraph.TrustLevel",
          "name": "level",
          "type": "uint8"
        },
        {
          "internalType": "uint256",
          "name": "confidence",
          "type": "uint256"
        },
        {
          "internalType": "bool",
          "name": "isStale",
          "type": "bool"
        }
      ],
      "stateMutability": "view",
      "type": "function"
    },
    {
      "inputs": [
        {
          "internalType": "address",
          "name": "attester",
          "type": "address"
        }
      ],
      "name": "isApprovedAttester",
      "outputs": [
        {
          "internalType": "bool",
          "name": "",
          "type": "bool"
        }
      ],
      "stateMutability": "view",
      "type": "function"
    },
    {
      "inputs": [
        {
          "internalType": "address",
          "name": "user",
          "type": "address"
        },
        {
          "internalType": "enum TrustGraph.TrustLevel",
          "name": "minLevel",
          "type": "uint8"
        }
      ],
      "name": "meetsTrustRequirement",
      "outputs": [
        {
          "internalType": "bool",
          "name": "meets",
          "type": "bool"
        },
        {
          "internalType": "enum TrustGraph.TrustLevel",
          "name": "actual",
          "type": "uint8"
        }
      ],
      "stateMutability": "view",
      "type": "function"
    },
    {
      "inputs": [],
      "name": "minConfidence",
      "outputs": [
        {
          "internalType": "uint256",
          "name": "",
          "type": "uint256"
        }
      ],
      "stateMutability": "view",
      "type": "function"
    },
    {
      "inputs": [],
      "name": "owner",
      "outputs": [
        {
          "internalType": "address",
          "name": "",
          "type": "address"
        }
      ],
      "stateMutability": "view",
      "type": "function"
    },
    {
      "inputs": [
        {
          "internalType": "address",
          "name": "",
          "type": "address"
        }
      ],
      "name": "profiles",
      "outputs": [
        {
          "internalType": "uint64",
          "name": "vectorId",
          "type": "uint64"
        },
        {
          "internalType": "enum TrustGraph.TrustLevel",
          "name": "level",
          "type": "uint8"
        },
        {
          "internalType": "uint256",
          "name": "confidence",
          "type": "uint256"
        },
        {
          "internalType": "uint256",
          "name": "positiveActions",
          "type": "uint256"
        },
        {
          "internalType": "uint256",
          "name": "negativeActions",
          "type": "uint256"
        },
        {
          "internalType": "uint256",
          "name": "lastUpdated",
          "type": "uint256"
        },
        {
          "internalType": "bool",
          "name": "isVerified",
          "type": "bool"
        }
      ],
      "stateMutability": "view",
      "type": "function"
    },
    {
      "inputs": [
        {
          "internalType": "enum TrustGraph.TrustLevel",
          "name": "",
          "type": "uint8"
        },
        {
          "internalType": "uint256",
          "name": "",
          "type": "uint256"
        }
      ],
      "name": "referenceProfiles",
      "outputs": [
        {
          "internalType": "uint64",
          "name": "vectorId",
          "type": "uint64"
        },
        {
          "internalType": "enum TrustGraph.TrustLevel",
          "name": "level",
          "type": "uint8"
        },
        {
          "internalType": "uint256",
          "name": "weight",
          "type": "uint256"
        }
      ],
      "stateMutability": "view",
      "type": "function"
    },
    {
      "inputs": [
        {
          "internalType": "address",
          "name": "user",
          "type": "address"
        },
        {
          "internalType": "int256[]",
          "name": "behaviorEmbedding",
          "type": "int256[]"
        },
        {
          "internalType": "bytes32[]",
          "name": "tags",
          "type": "bytes32[]"
        }
      ],
      "name": "registerProfile",
      "outputs": [
        {
          "internalType": "uint64",
          "name": "vectorId",
          "type": "uint64"
        }
      ],
      "stateMutability": "nonpayable",
      "type": "function"
    },
    {
      "inputs": [],
      "name": "renounceOwnership",
      "outputs": [],
      "stateMutability": "nonpayable",
      "type": "function"
    },
    {
      "inputs": [
        {
          "internalType": "address",
          "name": "attester",
          "type": "address"
        }
      ],
      "name": "revokeAttester",
      "outputs": [],
      "stateMutability": "nonpayable",
      "type": "function"
    },
    {
      "inputs": [
        {
          "internalType": "uint256",
          "name": "newMinConfidence",
          "type": "uint256"
        }
      ],
      "name": "setMinConfidence",
      "outputs": [],
      "stateMutability": "nonpayable",
      "type": "function"
    },
    {
      "inputs": [
        {
          "internalType": "address",
          "name": "newOwner",
          "type": "address"
        }
      ],
      "name": "transferOwnership",
      "outputs": [],
      "stateMutability": "nonpayable",
      "type": "function"
    },
    {
      "inputs": [
        {
          "internalType": "address",
          "name": "user",
          "type": "address"
        }
      ],
      "name": "verifyUser",
      "outputs": [],
      "stateMutability": "nonpayable",
      "type": "function"
    }
  ],
  "bytecode": "0x6080346100c257601f611fef38819003918201601f19168301916001600160401b038311848410176100c75780849260409485528339810103126100c2576020815191015133156100a95760008054336001600160a01b0319821681178355604051949290916001600160a01b0316907f8be0079c531659141344cd1fd0a4f28419497f9722a3daafe3b4186f6b6457e09080a360018055600655600755611f1190816100de8239f35b604051631e4fbdf760e01b815260006004820152602490fd5b600080fd5b634e487b7160e01b600052604160045260246000fdfe6080604052600436101561001257600080fd5b60003560e01c80630178a0971461131d5780630d859d4f146111155780630f53a4701461100457806311b0c89e14610fd5578063206df50914610f935780634d81312014610ea857806355b3a48914610e385780635764390c14610dce5780635e7cf5ab14610d895780636a4b783d14610d4a578063715018a614610cf15780637a6cfe4c146104fd578063883c27f114610cd55780638da5cb5b14610cac5780639447fc8014610752578063a37e7e9c14610735578063aba6466c146105cf578063bbe156271461053c578063bcb3e5c2146104fd578063c657c6a514610459578063d18eae1814610248578063d292b610146101fe578063d52b7a14146101e0578063f2fde38b146101525763fd7288c01461012f57600080fd5b3461014d57600036600319011261014d576020600654604051908152f35b600080fd5b3461014d57602036600319011261014d5761016b611727565b610173611973565b6001600160a01b039081169081156101c757600054826bffffffffffffffffffffffff60a01b821617600055167f8be0079c531659141344cd1fd0a4f28419497f9722a3daafe3b4186f6b6457e0600080a3005b604051631e4fbdf760e01b815260006004820152602490fd5b3461014d57600036600319011261014d576020600754604051908152f35b3461014d57604036600319011261014d57610217611727565b602435600581101561014d5761023261024691604093611b12565b83929192519215158352602083019061176d565bf35b3461014d57606036600319011261014d57610261611727565b6001600160401b0360243581811161014d5761028190369060040161173d565b9260443583811161014d5761029a90369060040161173d565b90916102a4611a73565b6102b1600654871461199f565b60018060a01b0316928360005260209560028752856040600020541661042357906102dd9136916119f6565b906102e7816119df565b926102f560405194856118ac565b8184528684019160051b81019136831161014d578791905b83821061041457505050509061032291611dba565b5091806040519361033285611876565b16928381528481019060008252604081019160008352606082016000815260808301906000825260a084019242845260c0850196600088528860005260028b5260406000209551166001600160401b0319865416178555519460058610156103fe576103a060059686611a50565b516001850155516002840155516003830155516004820155019051151560ff801983541691161790557f078d4fa2486395cfaad46f60a48aa1cc44d49e22b87dffce4804d31f2265f8f283604051848152a260018055604051908152f35b634e487b7160e01b600052602160045260246000fd5b8135815290820190820161030d565b60405162461bcd60e51b815260048101889052600e60248201526d50726f66696c652065786973747360901b6044820152606490fd5b3461014d57604036600319011261014d57610472611727565b6001600160a01b03908116600090815260036020526040902080546024359081101561014d576104a191611805565b50906104f98254926001810154906104c06003600283015492016118cd565b916104de6040519687968116875260ff602088019160a01c1661176d565b6040850152606084015260a0608084015260a08301906117c5565b0390f35b3461014d57602036600319011261014d576001600160a01b0361051e611727565b166000526004602052602060ff604060002054166040519015158152f35b3461014d57602036600319011261014d576001600160a01b0361055d611727565b16600052600260205260e06040600020805490600181015490600281015460038201549060ff6005600485015494015416936105b2604051966001600160401b038116885260ff602089019160401c1661176d565b60408601526060850152608084015260a0830152151560c0820152f35b3461014d5760208060031936011261014d576001600160a01b0390816105f3611727565b16600052600390818152604060002090815461060e816119df565b9361061c60405195866118ac565b81855260009384528284208386019491855b8484106106d2575050505050604051928184019082855251809152604084019160408260051b86010193926000965b83881061066a5786860387f35b909192939483806106c1600193603f198b82030187528951868151168252610698848201518584019061176d565b60408101516040830152606080820151908301526080809101519160a0809282015201906117c5565b97019301970196909392919361065d565b6004866001928b61070160ff60409d9b9d51926106ee8461185b565b8954908116845260a01c16848301611a44565b8487015460408201526002870154606082015261071f8688016118cd565b608082015281520193019301929196949661062e565b3461014d57600036600319011261014d5760206040516103e88152f35b3461014d57602036600319011261014d5761076b611727565b610773611a73565b6001600160a01b0381166000908152600260205260409020805491906001600160401b0383168015610c8b57614e2090815a10610bbb576000918291602660405160208101928352602081526107c881611891565b5192fa916107d4611d8a565b9215610c725782518301926040816020860195031261014d5760208101519081159182150361014d576040810151906001600160401b03821161014d57019380603f8601121561014d57602085015161082c816119df565b9561083a60405197886118ac565b8187526040602088019260051b82010192831161014d57604001905b828210610c6257505050610c2a57600361086e611cfc565b10610c085761087b611cfc565b90610885826119df565b9161089360405193846118ac565b8083526108a2601f19916119df565b0160005b818110610be357505060009260005b60ff8116600481116109525760058110156103fe576108d38161177a565b906000918054915b8284106108f457505050506108ef90611ceb565b6108b5565b9091929761094461094a916001600160401b036109118c87611793565b5054166040519061092182611891565b8152846020820152610933828c611cd7565b5261093e818b611cd7565b50611bb4565b98611bb4565b9291906108db565b50508585848051606481029080820460641490151715610bcd576161a8918183018311610bcd578183015a10610bbb5761099a60405194606060208701526080860190611d56565b601f198582030160408601526020808351928381520192019060005b818110610b8a5750505091602284926109e38460009796600560608a99015203601f1981018652856118ac565b6020845194019201fa916109f5611d8a565b9215610b715760408380518101031261014d5760208301519263ffffffff841680940361014d57604001519160058410156103fe57600754831015610a4f575b600180556040805184610a48828861176d565b6020820152f35b60401c60ff1690610a608482611a50565b826001820155600442910155604051610a79818561176d565b602081018390526001600160a01b038516907fa39921d83bfe9a4d65a5f7b2cec562272a07adc77d548d61778393b77f462f4190604090a260058110156103fe5760409381841115610b1457847f114d7c5d0b4becadc8a15a2e15ba583cf837f45c56074a00d9654db70d22af6e91610af48251809561176d565b610b01602085018761176d565b6001600160a01b031692a25b8380610a35565b818410610b23575b5050610b0d565b847f4c400b95222c423e9a56d24277ad5f9e543875db4c7a1a709bea2bedb580096e91610b528251809561176d565b610b5f602085018761176d565b6001600160a01b031692a28380610b1c565b604051636f99e79360e01b815260226004820152602490fd5b825180516001600160401b0316855260209081015163ffffffff1681860152604090940193909201916001016109b6565b6040516307099c5360e21b8152600490fd5b634e487b7160e01b600052601160045260246000fd5b602090604051610bf281611891565b60008152600083820152828287010152016108a6565b604051636d50816b60e01b81526001600160a01b039091166004820152602490fd5b60405162461bcd60e51b815260206004820152601060248201526f159958dd1bdc881b9bdd08199bdd5b9960821b6044820152606490fd5b8151815260209182019101610856565b604051636f99e79360e01b815260266004820152602490fd5b60405163c23cb52560e01b81526001600160a01b0384166004820152602490fd5b3461014d57600036600319011261014d576000546040516001600160a01b039091168152602090f35b3461014d57600036600319011261014d57602060405160648152f35b3461014d57600036600319011261014d57610d0a611973565b600080546001600160a01b0319811682556001600160a01b03167f8be0079c531659141344cd1fd0a4f28419497f9722a3daafe3b4186f6b6457e08280a3005b3461014d57602036600319011261014d576060610d6d610d68611727565b611aa3565b90610d7b604051809461176d565b602083015215156040820152f35b3461014d57602036600319011261014d57610da2611727565b610daa611973565b6001600160a01b03166000908152600460205260409020805460ff19166001179055005b3461014d57602036600319011261014d57600435610dea611973565b670de0b6b3a76400008111610dfe57600755005b60405162461bcd60e51b8152602060048201526012602482015271496e76616c696420636f6e666964656e636560701b6044820152606490fd5b3461014d57604036600319011261014d57600435600581101561014d57610e616024359161177a565b805482101561014d57606091610e7691611793565b5060018154910154610ea1604051926001600160401b038116845260ff602085019160401c1661176d565b6040820152f35b3461014d57602036600319011261014d57610ec1611727565b610ec9611973565b6001600160a01b0316600081815260026020526040902080546001600160401b03811615610f7a5760058201805460ff8116610f61579268040000000000000000604093600193847fa39921d83bfe9a4d65a5f7b2cec562272a07adc77d548d61778393b77f462f419760ff191617905560ff60401b1916178155670de0b6b3a76400009182910155815190600482526020820152a2005b6040516341b77a2960e11b815260048101869052602490fd5b60405163c23cb52560e01b815260048101849052602490fd5b3461014d57602036600319011261014d57610fac611727565b610fb4611973565b6001600160a01b03166000908152600460205260409020805460ff19169055005b3461014d57602036600319011261014d576040610ff8610ff3611727565b611bc3565b82519182526020820152f35b3461014d57602036600319011261014d5761101d611727565b600060c060405161102d81611876565b8281528260208201528260408201528260608201528260808201528260a0820152015260018060a01b0316600052600260205260e060406000206040519061107482611876565b8054906001600160401b0391828116845261109960ff602086019260401c1682611a44565b600182015460408501908152600283015490606086019182526110f36003850154936080880194855260ff600560048801549760a08b019889520154169660c089019715158852604051985116885251602088019061176d565b5160408601525160608501525160808401525160a083015251151560c0820152f35b3461014d57606036600319011261014d57600435600581101561014d576024906001600160401b0390823582811161014d5761115590369060040161173d565b939061115f611973565b61116c600654861461199f565b6040519061117982611891565b6001825260209586830187368237604051888101906040825260096060820152687265666572656e636560b81b608082015260ff88166040820152608081526111c18161185b565b5190209084511561130857526111e292916111dd9136916119f6565b611dba565b50906111ed8361177a565b906040519260608401848110878211176112f357604052851680845294868401906112188683611a44565b60408501936044358552805490600160401b8210156112de579061124191600182018155611793565b9590956112c95751166001600160401b0319855416178455519060058210156112b557509160017fae7149c1d2998704319bd4f12fa88b5554082076e576ceecc66ed848f273b877949261129760409584611a50565b519101556112a78251809261176d565b8385820152a1604051908152f35b634e487b7160e01b60009081526021600452fd5b83634e487b7160e01b60005260006004526000fd5b84634e487b7160e01b60005260416004526000fd5b82634e487b7160e01b60005260416004526000fd5b85634e487b7160e01b60005260326004526000fd5b3461014d57608036600319011261014d57611336611727565b6005602435101561014d576001600160401b036064351161014d5736602360643501121561014d576001600160401b03606435600401351161014d573660246064356004013560643501011161014d5761138e611a73565b33600052600460205260ff604060002054161561170f5760018060a01b03811660005260026020526040600020906001600160401b03825416156116ed576001600160a01b038116600090815260036020526040902054606411156116cb5760018060a01b0381166000526003602052604060002091604051926114118461185b565b33845261142360243560208601611a44565b604435604085015242606085015261144060643560040135611b99565b61144d60405191826118ac565b606435600481013580835290602401602083013760006020606435600401358301015260808501528054600160401b81101561169f5761149291600182018155611805565b6116b557835181546001600160a01b039091166001600160a01b031982168117835560208601519092909160058310156103fe5760809360039360ff60a01b9060a01b16916affffffffffffffffffffff60a81b16171781556040860151600182015560608601516002820155019301519283516001600160401b03811161169f5761151e8254611821565b601f8111611657575b50602094601f82116001146115f1579481929394956000926115e6575b50508160011b916000199060031b1c19161790555b6003602435106115bd576002016115736044358254611a96565b90555b6040516115858160243561176d565b33916001600160a01b0316907f27748f6f2821deda758d99e06b4fb87ea481ca59635389b92420b29f0f58982e90602090a360018055005b6001602435146115ce575b50611576565b6003016115de6044358254611a96565b9055816115c8565b015190508580611544565b601f198216958360005260206000209160005b88811061163f57508360019596979810611626575b505050811b019055611559565b015160001960f88460031b161c19169055858080611619565b91926020600181928685015181550194019201611604565b826000526020600020601f830160051c81019160208410611695575b601f0160051c01905b8181106116895750611527565b6000815560010161167c565b9091508190611673565b634e487b7160e01b600052604160045260246000fd5b634e487b7160e01b600052600060045260246000fd5b604051630c806faf60e31b81526001600160a01b039091166004820152602490fd5b60405163c23cb52560e01b81526001600160a01b039091166004820152602490fd5b6040516349b49dbd60e11b8152336004820152602490fd5b600435906001600160a01b038216820361014d57565b9181601f8401121561014d578235916001600160401b03831161014d576020808501948460051b01011161014d57565b9060058210156103fe5752565b60058110156103fe576000526005602052604060002090565b80548210156117af5760005260206000209060011b0190600090565b634e487b7160e01b600052603260045260246000fd5b919082519283825260005b8481106117f1575050826000602080949584010152601f8019910116010190565b6020818301810151848301820152016117d0565b80548210156117af5760005260206000209060021b0190600090565b90600182811c92168015611851575b602083101461183b57565b634e487b7160e01b600052602260045260246000fd5b91607f1691611830565b60a081019081106001600160401b0382111761169f57604052565b60e081019081106001600160401b0382111761169f57604052565b604081019081106001600160401b0382111761169f57604052565b90601f801991011681019081106001600160401b0382111761169f57604052565b90604051918260008254926118e184611821565b908184526001948581169081600014611950575060011461190d575b505061190b925003836118ac565b565b9093915060005260209081600020936000915b81831061193857505061190b935082010138806118fd565b85548884018501529485019487945091830191611920565b91505061190b94506020925060ff191682840152151560051b82010138806118fd565b6000546001600160a01b0316330361198757565b60405163118cdaa760e01b8152336004820152602490fd5b156119a657565b60405162461bcd60e51b815260206004820152601160248201527024b73b30b634b2103234b6b2b739b4b7b760791b6044820152606490fd5b6001600160401b03811161169f5760051b60200190565b9291611a01826119df565b91611a0f60405193846118ac565b829481845260208094019160051b810192831161014d57905b828210611a355750505050565b81358152908301908301611a28565b60058210156103fe5752565b9060058110156103fe5760ff60401b82549160401b169060ff60401b1916179055565b600260015414611a84576002600155565b604051633ee5aeb560e01b8152600490fd5b91908201809211610bcd57565b6001600160a01b031660009081526002602052604081208054919290916001600160401b03811615611b095760ff9060401c1692600460018401549301549062093a808201809211611af55750421190565b634e487b7160e01b81526011600452602490fd5b50829150600190565b6001600160a01b03166000908152600260205260408120549091906001600160401b03811615611b735760401c60ff16916005831015611b5f576005821015611b5f575060ff1681101591565b634e487b7160e01b81526021600452602490fd5b506005819392931015611b8557159190565b634e487b7160e01b83526021600452602483fd5b6001600160401b03811161169f57601f01601f191660200190565b6000198114610bcd5760010190565b6001600160a01b0316600090815260036020526040812080549192919083908215611ccf5791819282915b808310611c3357505050670de0b6b3a764000091828102928184041490151715611af5578315611c1f575082900490565b634e487b7160e01b81526012600452602490fd5b90919395611c52611c448685611805565b509160018093015490611a96565b9660ff611c5f8786611805565b505460a01c16916005831015611cbb57611c798786611805565b50015491828102928184041490151715611ca757611ca091611c9a91611a96565b94611bb4565b9190611bee565b634e487b7160e01b85526011600452602485fd5b634e487b7160e01b86526021600452602486fd5b509250508190565b80518210156117af5760209160051b010190565b60ff1660ff8114610bcd5760010190565b600080805b60ff82166004808211611d4e576005821015611d3b5750611d3591611d28611d2f9261177a565b5490611a96565b91611ceb565b90611d01565b634e487b7160e01b855260219052602484fd5b505092915050565b90815180825260208080930193019160005b828110611d76575050505090565b835185529381019392810192600101611d68565b3d15611db5573d90611d9b82611b99565b91611da960405193846118ac565b82523d6000602084013e565b606090565b9190918051603281029080820460321490151715610bcd576188b8908101809111610bcd57835160c881029080820460c81490151715610bcd57611dfd91611a96565b805a10610bbb5760405191602092611e2784820192600384526080604084015260a0830190611d56565b95601f19968783820301606084015285808351928381520192019060005b818110611ec757505050602782611e73600097989982899897969589608081980152039081018352826118ac565b5193f190611e7f611d8a565b9115611eae5760408280518101031261014d57810151906001600160401b038216820361014d57604001519091565b604051636f99e79360e01b815260276004820152602490fd5b825184529287019291870191600101611e4556fea26469706673582212201663ac471ac8b583ee7a1cb7f11ca74dd78f0a69c6c5f315873d8afe4345d86f64736f6c63430008140033",
  "linkReferences": {},
  "deployedLinkReferences": {}
}