{
  "_format": "hh-sol-artifact-1",
  "contractName": "MDTToken",
  "sourceName": "src/MDTToken.sol",
  "abi": [
    {
      "inputs": [],
      "stateMutability": "nonpayable",
      "type": "constructor"
    },
    {
      "inputs": [],
      "name": "ECDSAInvalidSignature",
      "type": "error"
    },
    {
      "inputs": [
        {
          "internalType": "uint256",
          "name": "length",
          "type": "uint256"
        }
      ],
      "name": "ECDSAInvalidSignatureLength",
      "type": "error"
    },
    {
      "inputs": [
        {
          "internalType": "bytes32",
          "name": "s",
          "type": "bytes32"
        }
      ],
      "name": "ECDSAInvalidSignatureS",
      "type": "error"
    },
    {
      "inputs": [
        {
          "internalType": "address",
          "name": "spender",
          "type": "address"
        },
        {
          "internalType": "uint256",
          "name": "allowance",
          "type": "uint256"
        },
        {
          "internalType": "uint256",
          "name": "needed",
          "type": "uint256"
        }
      ],
      "name": "ERC20InsufficientAllowance",
      "type": "error"
    },
    {
      "inputs": [
        {
          "internalType": "address",
          "name": "sender",
          "type": "address"
        },
        {
          "internalType": "uint256",
          "name": "balance",
          "type": "uint256"
        },
        {
          "internalType": "uint256",
          "name": "needed",
          "type": "uint256"
        }
      ],
      "name": "ERC20InsufficientBalance",
      "type": "error"
    },
    {
      "inputs": [
        {
          "internalType": "address",
          "name": "approver",
          "type": "address"
        }
      ],
      "name": "ERC20InvalidApprover",
      "type": "error"
    },
    {
      "inputs": [
        {
          "internalType": "address",
          "name": "receiver",
          "type": "address"
        }
      ],
      "name": "ERC20InvalidReceiver",
      "type": "error"
    },
    {
      "inputs": [
        {
          "internalType": "address",
          "name": "sender",
          "type": "address"
        }
      ],
      "name": "ERC20InvalidSender",
      "type": "error"
    },
    {
      "inputs": [
        {
          "internalType": "address",
          "name": "spender",
          "type": "address"
        }
      ],
      "name": "ERC20InvalidSpender",
      "type": "error"
    },
    {
      "inputs": [
        {
          "internalType": "uint256",
          "name": "deadline",
          "type": "uint256"
        }
      ],
      "name": "ERC2612ExpiredSignature",
      "type": "error"
    },
    {
      "inputs": [
        {
          "internalType": "address",
          "name": "signer",
          "type": "address"
        },
        {
          "internalType": "address",
          "name": "owner",
          "type": "address"
        }
      ],
      "name": "ERC2612InvalidSigner",
      "type": "error"
    },
    {
      "inputs": [
        {
          "internalType": "address",
          "name": "account",
          "type": "address"
        },
        {
          "internalType": "uint256",
          "name": "currentNonce",
          "type": "uint256"
        }
      ],
      "name": "InvalidAccountNonce",
      "type": "error"
    },
    {
      "inputs": [],
      "name": "InvalidShortString",
      "type": "error"
    },
    {
      "inputs": [
        {
          "internalType": "address",
          "name": "owner",
          "type": "address"
        }
      ],
      "name": "OwnableInvalidOwner",
      "type": "error"
    },
    {
      "inputs": [
        {
          "internalType": "address",
          "name": "account",
          "type": "address"
        }
      ],
      "name": "OwnableUnauthorizedAccount",
      "type": "error"
    },
    {
      "inputs": [
        {
          "internalType": "string",
          "name": "str",
          "type": "string"
        }
      ],
      "name": "StringTooLong",
      "type": "error"
    },
    {
      "anonymous": false,
      "inputs": [
        {
          "indexed": true,
          "internalType": "address",
          "name": "owner",
          "type": "address"
        },
        {
          "indexed": true,
          "internalType": "address",
          "name": "spender",
          "type": "address"
        },
        {
          "indexed": false,
          "internalType": "uint256",
          "name": "value",
          "type": "uint256"
        }
      ],
      "name": "Approval",
      "type": "event"
    },
    {
      "anonymous": false,
      "inputs": [
        {
          "indexed": true,
          "internalType": "enum MDTToken.Category",
          "name": "category",
          "type": "uint8"
        },
        {
          "indexed": true,
          "internalType": "address",
          "name": "to",
          "type": "address"
        },
        {
          "indexed": false,
          "internalType": "uint256",
          "name": "amount",
          "type": "uint256"
        }
      ],
      "name": "CategoryMinted",
      "type": "event"
    },
    {
      "anonymous": false,
      "inputs": [],
      "name": "EIP712DomainChanged",
      "type": "event"
    },
    {
      "anonymous": false,
      "inputs": [
        {
          "indexed": false,
          "internalType": "uint256",
          "name": "timestamp",
          "type": "uint256"
        }
      ],
      "name": "MintingFinished",
      "type": "event"
    },
    {
      "anonymous": false,
      "inputs": [
        {
          "indexed": true,
          "internalType": "address",
          "name": "previousOwner",
          "type": "address"
        },
        {
          "indexed": true,
          "internalType": "address",
          "name": "newOwner",
          "type": "address"
        }
      ],
      "name": "OwnershipTransferred",
      "type": "event"
    },
    {
      "anonymous": false,
      "inputs": [
        {
          "indexed": false,
          "internalType": "uint256",
          "name": "timestamp",
          "type": "uint256"
        },
        {
          "indexed": false,
          "internalType": "uint256",
          "name": "totalMinted",
          "type": "uint256"
        }
      ],
      "name": "TGEExecuted",
      "type": "event"
    },
    {
      "anonymous": false,
      "inputs": [
        {
          "indexed": true,
          "internalType": "address",
          "name": "from",
          "type": "address"
        },
        {
          "indexed": true,
          "internalType": "address",
          "name": "to",
          "type": "address"
        },
        {
          "indexed": false,
          "internalType": "uint256",
          "name": "value",
          "type": "uint256"
        }
      ],
      "name": "Transfer",
      "type": "event"
    },
    {
      "inputs": [],
      "name": "DOMAIN_SEPARATOR",
      "outputs": [
        {
          "internalType": "bytes32",
          "name": "",
          "type": "bytes32"
        }
      ],
      "stateMutability": "view",
      "type": "function"
    },
    {
      "inputs": [],
      "name": "MAX_SUPPLY",
      "outputs": [
        {
          "internalType": "uint256",
          "name": "",
          "type": "uint256"
        }
      ],
      "stateMutability": "view",
      "type": "function"
    },
    {
      "inputs": [],
      "name": "allCategoriesMinted",
      "outputs": [
        {
          "internalType": "bool",
          "name": "",
          "type": "bool"
        }
      ],
      "stateMutability": "view",
      "type": "function"
    },
    {
      "inputs": [
        {
          "internalType": "address",
          "name": "owner",
          "type": "address"
        },
        {
          "internalType": "address",
          "name": "spender",
          "type": "address"
        }
      ],
      "name": "allowance",
      "outputs": [
        {
          "internalType": "uint256",
          "name": "",
          "type": "uint256"
        }
      ],
      "stateMutability": "view",
      "type": "function"
    },
    {
      "inputs": [
        {
          "internalType": "address",
          "name": "spender",
          "type": "address"
        },
        {
          "internalType": "uint256",
          "name": "value",
          "type": "uint256"
        }
      ],
      "name": "approve",
      "outputs": [
        {
          "internalType": "bool",
          "name": "",
          "type": "bool"
        }
      ],
      "stateMutability": "nonpayable",
      "type": "function"
    },
    {
      "inputs": [
        {
          "internalType": "address",
          "name": "account",
          "type": "address"
        }
      ],
      "name": "balanceOf",
      "outputs": [
        {
          "internalType": "uint256",
          "name": "",
          "type": "uint256"
        }
      ],
      "stateMutability": "view",
      "type": "function"
    },
    {
      "inputs": [
        {
          "internalType": "uint256",
          "name": "value",
          "type": "uint256"
        }
      ],
      "name": "burn",
      "outputs": [],
      "stateMutability": "nonpayable",
      "type": "function"
    },
    {
      "inputs": [
        {
          "internalType": "address",
          "name": "account",
          "type": "address"
        },
        {
          "internalType": "uint256",
          "name": "value",
          "type": "uint256"
        }
      ],
      "name": "burnFrom",
      "outputs": [],
      "stateMutability": "nonpayable",
      "type": "function"
    },
    {
      "inputs": [
        {
          "internalType": "enum MDTToken.Category",
          "name": "",
          "type": "uint8"
        }
      ],
      "name": "categoryAllocation",
      "outputs": [
        {
          "internalType": "uint256",
          "name": "",
          "type": "uint256"
        }
      ],
      "stateMutability": "view",
      "type": "function"
    },
    {
      "inputs": [
        {
          "internalType": "enum MDTToken.Category",
          "name": "",
          "type": "uint8"
        }
      ],
      "name": "categoryMinted",
      "outputs": [
        {
          "internalType": "uint256",
          "name": "",
          "type": "uint256"
        }
      ],
      "stateMutability": "view",
      "type": "function"
    },
    {
      "inputs": [],
      "name": "decimals",
      "outputs": [
        {
          "internalType": "uint8",
          "name": "",
          "type": "uint8"
        }
      ],
      "stateMutability": "view",
      "type": "function"
    },
    {
      "inputs": [],
      "name": "eip712Domain",
      "outputs": [
        {
          "internalType": "bytes1",
          "name": "fields",
          "type": "bytes1"
        },
        {
          "internalType": "string",
          "name": "name",
          "type": "string"
        },
        {
          "internalType": "string",
          "name": "version",
          "type": "string"
        },
        {
          "internalType": "uint256",
          "name": "chainId",
          "type": "uint256"
        },
        {
          "internalType": "address",
          "name": "verifyingContract",
          "type": "address"
        },
        {
          "internalType": "bytes32",
          "name": "salt",
          "type": "bytes32"
        },
        {
          "internalType": "uint256[]",
          "name": "extensions",
          "type": "uint256[]"
        }
      ],
      "stateMutability": "view",
      "type": "function"
    },
    {
      "inputs": [
        {
          "internalType": "enum MDTToken.Category",
          "name": "category",
          "type": "uint8"
        },
        {
          "internalType": "address",
          "name": "to",
          "type": "address"
        }
      ],
      "name": "executeTGE",
      "outputs": [],
      "stateMutability": "nonpayable",
      "type": "function"
    },
    {
      "inputs": [],
      "name": "finishMinting",
      "outputs": [],
      "stateMutability": "nonpayable",
      "type": "function"
    },
    {
      "inputs": [],
      "name": "getAllocations",
      "outputs": [
        {
          "internalType": "uint256",
          "name": "emissionRewards",
          "type": "uint256"
        },
        {
          "internalType": "uint256",
          "name": "ecosystemGrants",
          "type": "uint256"
        },
        {
          "internalType": "uint256",
          "name": "teamCoreDev",
          "type": "uint256"
        },
        {
          "internalType": "uint256",
          "name": "privateSale",
          "type": "uint256"
        },
        {
          "internalType": "uint256",
          "name": "ido",
          "type": "uint256"
        },
        {
          "internalType": "uint256",
          "name": "daoTreasury",
          "type": "uint256"
        },
        {
          "internalType": "uint256",
          "name": "initialLiquidity",
          "type": "uint256"
        },
        {
          "internalType": "uint256",
          "name": "foundationReserve",
          "type": "uint256"
        }
      ],
      "stateMutability": "view",
      "type": "function"
    },
    {
      "inputs": [
        {
          "internalType": "enum MDTToken.Category",
          "name": "category",
          "type": "uint8"
        },
        {
          "internalType": "address",
          "name": "to",
          "type": "address"
        },
        {
          "internalType": "uint256",
          "name": "amount",
          "type": "uint256"
        }
      ],
      "name": "mintCategory",
      "outputs": [],
      "stateMutability": "nonpayable",
      "type": "function"
    },
    {
      "inputs": [],
      "name": "mintingFinished",
      "outputs": [
        {
          "internalType": "bool",
          "name": "",
          "type": "bool"
        }
      ],
      "stateMutability": "view",
      "type": "function"
    },
    {
      "inputs": [],
      "name": "name",
      "outputs": [
        {
          "internalType": "string",
          "name": "",
          "type": "string"
        }
      ],
      "stateMutability": "view",
      "type": "function"
    },
    {
      "inputs": [
        {
          "internalType": "address",
          "name": "owner",
          "type": "address"
        }
      ],
      "name": "nonces",
      "outputs": [
        {
          "internalType": "uint256",
          "name": "",
          "type": "uint256"
        }
      ],
      "stateMutability": "view",
      "type": "function"
    },
    {
      "inputs": [],
      "name": "owner",
      "outputs": [
        {
          "internalType": "address",
          "name": "",
          "type": "address"
        }
      ],
      "stateMutability": "view",
      "type": "function"
    },
    {
      "inputs": [
        {
          "internalType": "address",
          "name": "owner",
          "type": "address"
        },
        {
          "internalType": "address",
          "name": "spender",
          "type": "address"
        },
        {
          "internalType": "uint256",
          "name": "value",
          "type": "uint256"
        },
        {
          "internalType": "uint256",
          "name": "deadline",
          "type": "uint256"
        },
        {
          "internalType": "uint8",
          "name": "v",
          "type": "uint8"
        },
        {
          "internalType": "bytes32",
          "name": "r",
          "type": "bytes32"
        },
        {
          "internalType": "bytes32",
          "name": "s",
          "type": "bytes32"
        }
      ],
      "name": "permit",
      "outputs": [],
      "stateMutability": "nonpayable",
      "type": "function"
    },
    {
      "inputs": [
        {
          "internalType": "enum MDTToken.Category",
          "name": "category",
          "type": "uint8"
        }
      ],
      "name": "remainingAllocation",
      "outputs": [
        {
          "internalType": "uint256",
          "name": "",
          "type": "uint256"
        }
      ],
      "stateMutability": "view",
      "type": "function"
    },
    {
      "inputs": [],
      "name": "renounceOwnership",
      "outputs": [],
      "stateMutability": "nonpayable",
      "type": "function"
    },
    {
      "inputs": [],
      "name": "symbol",
      "outputs": [
        {
          "internalType": "string",
          "name": "",
          "type": "string"
        }
      ],
      "stateMutability": "view",
      "type": "function"
    },
    {
      "inputs": [],
      "name": "tgeTimestamp",
      "outputs": [
        {
          "internalType": "uint256",
          "name": "",
          "type": "uint256"
        }
      ],
      "stateMutability": "view",
      "type": "function"
    },
    {
      "inputs": [],
      "name": "totalSupply",
      "outputs": [
        {
          "internalType": "uint256",
          "name": "",
          "type": "uint256"
        }
      ],
      "stateMutability": "view",
      "type": "function"
    },
    {
      "inputs": [
        {
          "internalType": "address",
          "name": "to",
          "type": "address"
        },
        {
          "internalType": "uint256",
          "name": "value",
          "type": "uint256"
        }
      ],
      "name": "transfer",
      "outputs": [
        {
          "internalType": "bool",
          "name": "",
          "type": "bool"
        }
      ],
      "stateMutability": "nonpayable",
      "type": "function"
    },
    {
      "inputs": [
        {
          "internalType": "address",
          "name": "from",
          "type": "address"
        },
        {
          "internalType": "address",
          "name": "to",
          "type": "address"
        },
        {
          "internalType": "uint256",
          "name": "value",
          "type": "uint256"
        }
      ],
      "name": "transferFrom",
      "outputs": [
        {
          "internalType": "bool",
          "name": "",
          "type": "bool"
        }
      ],
      "stateMutability": "nonpayable",
      "type": "function"
    },
    {
      "inputs": [
        {
          "internalType": "address",
          "name": "newOwner",
          "type": "address"
        }
      ],
      "name": "transferOwnership",
      "outputs": [],
      "stateMutability": "nonpayable",
      "type": "function"
    }
  ],
  "bytecode": "0x6101606040526008805460ff60a01b191690553480156200001f57600080fd5b50336040518060400160405280600c81526020016b26b7b232b9372a32b739b7b960a11b81525080604051806040016040528060018152602001603160f81b8152506040518060400160405280600c81526020016b26b7b232b9372a32b739b7b960a11b8152506040518060400160405280600381526020016213511560ea1b8152508160039081620000b39190620005c7565b506004620000c28282620005c7565b50620000d49150839050600562000454565b61012052620000e581600662000454565b61014052815160208084019190912060e052815190820120610100524660a0526200017360e05161010051604080517f8b73c3c69bb8fe3d512ecc4cf759cc79239f7b179b0ffacaa9a75d522b39400f60208201529081019290925260608201524660808201523060a082015260009060c00160405160208183030381529060405280519060200120905090565b60805250503060c052506001600160a01b038116620001ad57604051631e4fbdf760e01b8152600060048201526024015b60405180910390fd5b620001b8816200048d565b506064620001d36a115eec47f6cf7e35000000602d62000693565b620001df9190620006b9565b60008052600b6020527fdf7de25b7f1fd6d0b5205f0e18f1f35bd7b8d84cce336588d184533ce43a6f76556064620002246a115eec47f6cf7e35000000600c62000693565b620002309190620006b9565b6001600052600b6020527f72c6bfb7988af3a1efa6568f02a999bc52252641c659d85961ca3d372b57d5cf556064620002766a115eec47f6cf7e35000000600a62000693565b620002829190620006b9565b6002600052600b6020527fa50eece07c7db1631545c0069bd8f5f54d5935e215d59097edf258a44ba91634556064620002c86a115eec47f6cf7e35000000600862000693565b620002d49190620006b9565b6003600052600b6020527f64c15cc42be7899b001f818cf4433057002112c418d1d3a67cd5cb453051d33e5560646200031a6a115eec47f6cf7e35000000600562000693565b620003269190620006b9565b6004600052600b6020527f12d0c11577e2f0950f57c455c117796550b79f444811db8ba2f69c57b646c7845560646200036c6a115eec47f6cf7e35000000600a62000693565b620003789190620006b9565b60056000819052600b6020527febae6141bae5521e99e0a8d610356b0f501fea54980b59c84841db43ba7204f491909155606490620003c4906a115eec47f6cf7e350000009062000693565b620003d09190620006b9565b6006600052600b6020527f0387e9d1203691d8e3362a7e4c6723de358a4010d7f31ecbec3fbfc61d1c75fc556064620004166a115eec47f6cf7e35000000600562000693565b620004229190620006b9565b6007600052600b6020527ff5559028dc9ba50d75343c779b2f75e13a84a14662932fc67a486f263ca31a965562000751565b600060208351101562000474576200046c83620004df565b905062000487565b81620004818482620005c7565b5060ff90505b92915050565b600880546001600160a01b038381166001600160a01b0319831681179093556040519116919082907f8be0079c531659141344cd1fd0a4f28419497f9722a3daafe3b4186f6b6457e090600090a35050565b600080829050601f815111156200050d578260405163305a27a960e01b8152600401620001a49190620006dc565b80516200051a826200072c565b179392505050565b634e487b7160e01b600052604160045260246000fd5b600181811c908216806200054d57607f821691505b6020821081036200056e57634e487b7160e01b600052602260045260246000fd5b50919050565b601f821115620005c257600081815260208120601f850160051c810160208610156200059d5750805b601f850160051c820191505b81811015620005be57828155600101620005a9565b5050505b505050565b81516001600160401b03811115620005e357620005e362000522565b620005fb81620005f4845462000538565b8462000574565b602080601f8311600181146200063357600084156200061a5750858301515b600019600386901b1c1916600185901b178555620005be565b600085815260208120601f198616915b82811015620006645788860151825594840194600190910190840162000643565b5085821015620006835787850151600019600388901b60f8161c191681555b5050505050600190811b01905550565b80820281158282048414176200048757634e487b7160e01b600052601160045260246000fd5b600082620006d757634e487b7160e01b600052601260045260246000fd5b500490565b600060208083528351808285015260005b818110156200070b57858101830151858201604001528201620006ed565b506000604082860101526040601f19601f8301168501019250505092915050565b805160208083015191908110156200056e5760001960209190910360031b1b16919050565b60805160a05160c05160e051610100516101205161014051611d66620007ac600039600061149b0152600061146e0152600061138e01526000611366015260006112c1015260006112eb015260006113150152611d666000f3fe608060405234801561001057600080fd5b50600436106101cf5760003560e01c806370a082311161010457806395d89b41116100a2578063d505accf11610071578063d505accf14610513578063da6ea4d714610526578063dd62ed3e1461052e578063f2fde38b1461056757600080fd5b806395d89b41146104dc578063a4317ef4146104e4578063a9059cbb146104ed578063c0f3cb751461050057600080fd5b80637d64bcb4116100de5780637d64bcb41461048b5780637ecebe001461049357806384b0196e146104a65780638da5cb5b146104c157600080fd5b806370a0823114610447578063715018a61461047057806379cc67901461047857600080fd5b806323ecb4f1116101715780633644e5151161014b5780633644e515146102b757806342966c68146102bf578063503bf615146102d257806365ed6e23146102f257600080fd5b806323ecb4f114610283578063313ce5671461029657806332cb6b0c146102a557600080fd5b80630c086039116101ad5780630c0860391461022557806318160ddd146102535780632335ba171461025b57806323b872dd1461027057600080fd5b806305d2035b146101d457806306fdde03146101fd578063095ea7b314610212575b600080fd5b6008546101e890600160a01b900460ff1681565b60405190151581526020015b60405180910390f35b61020561057a565b6040516101f491906119ee565b6101e8610220366004611a24565b61060c565b610245610233366004611a5d565b600a6020526000908152604090205481565b6040519081526020016101f4565b600254610245565b61026e610269366004611a78565b610626565b005b6101e861027e366004611aab565b610827565b61026e610291366004611ae7565b61084b565b604051601281526020016101f4565b6102456a115eec47f6cf7e3500000081565b610245610a69565b61026e6102cd366004611b05565b610a78565b6102456102e0366004611a5d565b600b6020526000908152604090205481565b600b6020527fdf7de25b7f1fd6d0b5205f0e18f1f35bd7b8d84cce336588d184533ce43a6f76547f72c6bfb7988af3a1efa6568f02a999bc52252641c659d85961ca3d372b57d5cf547fa50eece07c7db1631545c0069bd8f5f54d5935e215d59097edf258a44ba91634547f64c15cc42be7899b001f818cf4433057002112c418d1d3a67cd5cb453051d33e547f12d0c11577e2f0950f57c455c117796550b79f444811db8ba2f69c57b646c784547febae6141bae5521e99e0a8d610356b0f501fea54980b59c84841db43ba7204f4547f0387e9d1203691d8e3362a7e4c6723de358a4010d7f31ecbec3fbfc61d1c75fc5460076000527ff5559028dc9ba50d75343c779b2f75e13a84a14662932fc67a486f263ca31a9654604080519889526020890197909752958701949094526060860192909252608085015260a084015260c083015260e0820152610100016101f4565b610245610455366004611b1e565b6001600160a01b031660009081526020819052604090205490565b61026e610a85565b61026e610486366004611a24565b610a99565b61026e610ab2565b6102456104a1366004611b1e565b610c40565b6104ae610c5e565b6040516101f49796959493929190611b39565b6008546040516001600160a01b0390911681526020016101f4565b610205610ca4565b61024560095481565b6101e86104fb366004611a24565b610cb3565b61024561050e366004611a5d565b610cc1565b61026e610521366004611bcf565b610d39565b6101e8610e73565b61024561053c366004611c42565b6001600160a01b03918216600090815260016020908152604080832093909416825291909152205490565b61026e610575366004611b1e565b611126565b60606003805461058990611c5e565b80601f01602080910402602001604051908101604052809291908181526020018280546105b590611c5e565b80156106025780601f106105d757610100808354040283529160200191610602565b820191906000526020600020905b8154815290600101906020018083116105e557829003601f168201915b5050505050905090565b60003361061a818585611161565b60019150505b92915050565b61062e611173565b600854600160a01b900460ff16156106615760405162461bcd60e51b815260040161065890611c98565b60405180910390fd5b6001600160a01b0381166106b75760405162461bcd60e51b815260206004820152601e60248201527f4d4454546f6b656e3a206d696e7420746f207a65726f206164647265737300006044820152606401610658565b600a60008360078111156106cd576106cd611cde565b60078111156106de576106de611cde565b8152602001908152602001600020546000146107465760405162461bcd60e51b815260206004820152602160248201527f4d4454546f6b656e3a2063617465676f727920616c7265616479206d696e74656044820152601960fa1b6064820152608401610658565b6000600b600084600781111561075e5761075e611cde565b600781111561076f5761076f611cde565b815260200190815260200160002054905080600a600085600781111561079757610797611cde565b60078111156107a8576107a8611cde565b81526020810191909152604001600020556107c382826111a0565b6009546000036107d257426009555b816001600160a01b03168360078111156107ee576107ee611cde565b6040518381527fd18d0b722b1799afc328cfd48dbc75998dc5e1f5c85d21be72ae6f90de992f04906020015b60405180910390a3505050565b6000336108358582856111d6565b610840858585611255565b506001949350505050565b610853611173565b600854600160a01b900460ff161561087d5760405162461bcd60e51b815260040161065890611c98565b6001600160a01b0382166108d35760405162461bcd60e51b815260206004820152601e60248201527f4d4454546f6b656e3a206d696e7420746f207a65726f206164647265737300006044820152606401610658565b600b60008460078111156108e9576108e9611cde565b60078111156108fa576108fa611cde565b81526020019081526020016000205481600a600086600781111561092057610920611cde565b600781111561093157610931611cde565b81526020019081526020016000205461094a9190611d0a565b11156109a65760405162461bcd60e51b815260206004820152602560248201527f4d4454546f6b656e3a20657863656564732063617465676f727920616c6c6f6360448201526430ba34b7b760d91b6064820152608401610658565b6a115eec47f6cf7e35000000816109bc60025490565b6109c69190611d0a565b1115610a145760405162461bcd60e51b815260206004820152601c60248201527f4d4454546f6b656e3a2065786365656473206d617820737570706c79000000006044820152606401610658565b80600a6000856007811115610a2b57610a2b611cde565b6007811115610a3c57610a3c611cde565b81526020019081526020016000206000828254610a599190611d0a565b909155506107d2905082826111a0565b6000610a736112b4565b905090565b610a8233826113df565b50565b610a8d611173565b610a976000611415565b565b610aa48233836111d6565b610aae82826113df565b5050565b610aba611173565b600854600160a01b900460ff1615610ae45760405162461bcd60e51b815260040161065890611c98565b610aec610e73565b610b445760405162461bcd60e51b815260206004820152602360248201527f4d4454546f6b656e3a206e6f7420616c6c2063617465676f72696573206d696e6044820152621d195960ea1b6064820152608401610658565b6a115eec47f6cf7e35000000610b5960025490565b14610ba65760405162461bcd60e51b815260206004820152601960248201527f4d4454546f6b656e3a20737570706c79206d69736d61746368000000000000006044820152606401610658565b6008805460ff60a01b1916600160a01b1790556040517ff6af8e1d23f8a5997a11116c1e59bd11c947226b74890b8e0fde60d95a7c076a90610beb9042815260200190565b60405180910390a17f7a1be65236fa43f4bd450d67219d65a9f1f3d51aae0d62d70758463c9a316a76600954610c2060025490565b6040805192835260208301919091520160405180910390a1610a97610a85565b6001600160a01b038116600090815260076020526040812054610620565b600060608060008060006060610c72611467565b610c7a611494565b60408051600080825260208201909252600f60f81b9b939a50919850469750309650945092509050565b60606004805461058990611c5e565b60003361061a818585611255565b6000600a6000836007811115610cd957610cd9611cde565b6007811115610cea57610cea611cde565b815260200190815260200160002054600b6000846007811115610d0f57610d0f611cde565b6007811115610d2057610d20611cde565b8152602001908152602001600020546106209190611d1d565b83421115610d5d5760405163313c898160e11b815260048101859052602401610658565b60007f6e71edae12b1b97f4d1f60370fef10105fa2faae0126114a169c64845d6126c9888888610daa8c6001600160a01b0316600090815260076020526040902080546001810190915590565b6040805160208101969096526001600160a01b0394851690860152929091166060840152608083015260a082015260c0810186905260e0016040516020818303038152906040528051906020012090506000610e05826114c1565b90506000610e15828787876114ee565b9050896001600160a01b0316816001600160a01b031614610e5c576040516325c0072360e11b81526001600160a01b0380831660048301528b166024820152604401610658565b610e678a8a8a611161565b50505050505050505050565b60008080527fdf7de25b7f1fd6d0b5205f0e18f1f35bd7b8d84cce336588d184533ce43a6f7654600a6020527f13da86008ba1c6922daee3e07db95305ef49ebced9f5467a0b8613fcc6b343e354148015610f19575060016000527f72c6bfb7988af3a1efa6568f02a999bc52252641c659d85961ca3d372b57d5cf54600a6020527fbbc70db1b6c7afd11e79c0fb0051300458f1a3acb8ee9789d9b6b26c61ad9bc754145b8015610f70575060026000527fa50eece07c7db1631545c0069bd8f5f54d5935e215d59097edf258a44ba9163454600a6020527fbff4442b8ed600beeb8e26b1279a0f0d14c6edfaec26d968ee13c86f7d4c2ba854145b8015610fc7575060036000527f64c15cc42be7899b001f818cf4433057002112c418d1d3a67cd5cb453051d33e54600a6020527fa856840544dc26124927add067d799967eac11be13e14d82cc281ea46fa3975954145b801561101e575060046000527f12d0c11577e2f0950f57c455c117796550b79f444811db8ba2f69c57b646c78454600a6020527fe1eb2b2161a492c07c5a334e48012567cba93ec021043f53c1955516a3c5a84154145b8015611075575060056000527febae6141bae5521e99e0a8d610356b0f501fea54980b59c84841db43ba7204f454600a6020527ff35035bc2b01d44bd35a1dcdc552315cffb73da35cfd60570b7b777f98036f9f54145b80156110cc575060066000527f0387e9d1203691d8e3362a7e4c6723de358a4010d7f31ecbec3fbfc61d1c75fc54600a6020527f10d9dd018e4cae503383c9f804c1c1603ada5856ee7894375d9b97cd8c8b27db54145b8015610a7357505060076000527ff5559028dc9ba50d75343c779b2f75e13a84a14662932fc67a486f263ca31a9654600a6020527f22e39f61d1e4986b4f116cea9067f62cc77d74dff1780ae9c8b5166d1dd28829541490565b61112e611173565b6001600160a01b03811661115857604051631e4fbdf760e01b815260006004820152602401610658565b610a8281611415565b61116e838383600161151c565b505050565b6008546001600160a01b03163314610a975760405163118cdaa760e01b8152336004820152602401610658565b6001600160a01b0382166111ca5760405163ec442f0560e01b815260006004820152602401610658565b610aae600083836115f1565b6001600160a01b0383811660009081526001602090815260408083209386168352929052205460001981101561124f578181101561124057604051637dc7a0d960e11b81526001600160a01b03841660048201526024810182905260448101839052606401610658565b61124f8484848403600061151c565b50505050565b6001600160a01b03831661127f57604051634b637e8f60e11b815260006004820152602401610658565b6001600160a01b0382166112a95760405163ec442f0560e01b815260006004820152602401610658565b61116e8383836115f1565b6000306001600160a01b037f00000000000000000000000000000000000000000000000000000000000000001614801561130d57507f000000000000000000000000000000000000000000000000000000000000000046145b1561133757507f000000000000000000000000000000000000000000000000000000000000000090565b610a73604080517f8b73c3c69bb8fe3d512ecc4cf759cc79239f7b179b0ffacaa9a75d522b39400f60208201527f0000000000000000000000000000000000000000000000000000000000000000918101919091527f000000000000000000000000000000000000000000000000000000000000000060608201524660808201523060a082015260009060c00160405160208183030381529060405280519060200120905090565b6001600160a01b03821661140957604051634b637e8f60e11b815260006004820152602401610658565b610aae826000836115f1565b600880546001600160a01b038381166001600160a01b0319831681179093556040519116919082907f8be0079c531659141344cd1fd0a4f28419497f9722a3daafe3b4186f6b6457e090600090a35050565b6060610a737f0000000000000000000000000000000000000000000000000000000000000000600561170e565b6060610a737f0000000000000000000000000000000000000000000000000000000000000000600661170e565b60006106206114ce6112b4565b8360405161190160f01b8152600281019290925260228201526042902090565b600080600080611500888888886117b9565b9250925092506115108282611888565b50909695505050505050565b6001600160a01b0384166115465760405163e602df0560e01b815260006004820152602401610658565b6001600160a01b03831661157057604051634a1406b160e11b815260006004820152602401610658565b6001600160a01b038085166000908152600160209081526040808320938716835292905220829055801561124f57826001600160a01b0316846001600160a01b03167f8c5be1e5ebec7d5bd14f71427d1e84f3dd0314c0f7b2291e5b200ac8c7c3b925846040516115e391815260200190565b60405180910390a350505050565b6001600160a01b03831661161c5780600260008282546116119190611d0a565b9091555061168e9050565b6001600160a01b0383166000908152602081905260409020548181101561166f5760405163391434e360e21b81526001600160a01b03851660048201526024810182905260448101839052606401610658565b6001600160a01b03841660009081526020819052604090209082900390555b6001600160a01b0382166116aa576002805482900390556116c9565b6001600160a01b03821660009081526020819052604090208054820190555b816001600160a01b0316836001600160a01b03167fddf252ad1be2c89b69c2b068fc378daa952ba7f163c4a11628f55a4df523b3ef8360405161081a91815260200190565b606060ff83146117285761172183611941565b9050610620565b81805461173490611c5e565b80601f016020809104026020016040519081016040528092919081815260200182805461176090611c5e565b80156117ad5780601f10611782576101008083540402835291602001916117ad565b820191906000526020600020905b81548152906001019060200180831161179057829003601f168201915b50505050509050610620565b600080807f7fffffffffffffffffffffffffffffff5d576e7357a4501ddfe92f46681b20a08411156117f4575060009150600390508261187e565b604080516000808252602082018084528a905260ff891692820192909252606081018790526080810186905260019060a0016020604051602081039080840390855afa158015611848573d6000803e3d6000fd5b5050604051601f1901519150506001600160a01b0381166118745750600092506001915082905061187e565b9250600091508190505b9450945094915050565b600082600381111561189c5761189c611cde565b036118a5575050565b60018260038111156118b9576118b9611cde565b036118d75760405163f645eedf60e01b815260040160405180910390fd5b60028260038111156118eb576118eb611cde565b0361190c5760405163fce698f760e01b815260048101829052602401610658565b600382600381111561192057611920611cde565b03610aae576040516335e2f38360e21b815260048101829052602401610658565b6060600061194e83611980565b604080516020808252818301909252919250600091906020820181803683375050509182525060208101929092525090565b600060ff8216601f81111561062057604051632cd44ac360e21b815260040160405180910390fd5b6000815180845260005b818110156119ce576020818501810151868301820152016119b2565b506000602082860101526020601f19601f83011685010191505092915050565b602081526000611a0160208301846119a8565b9392505050565b80356001600160a01b0381168114611a1f57600080fd5b919050565b60008060408385031215611a3757600080fd5b611a4083611a08565b946020939093013593505050565b803560088110611a1f57600080fd5b600060208284031215611a6f57600080fd5b611a0182611a4e565b60008060408385031215611a8b57600080fd5b611a9483611a4e565b9150611aa260208401611a08565b90509250929050565b600080600060608486031215611ac057600080fd5b611ac984611a08565b9250611ad760208501611a08565b9150604084013590509250925092565b600080600060608486031215611afc57600080fd5b611ac984611a4e565b600060208284031215611b1757600080fd5b5035919050565b600060208284031215611b3057600080fd5b611a0182611a08565b60ff60f81b881681526000602060e081840152611b5960e084018a6119a8565b8381036040850152611b6b818a6119a8565b606085018990526001600160a01b038816608086015260a0850187905284810360c0860152855180825283870192509083019060005b81811015611bbd57835183529284019291840191600101611ba1565b50909c9b505050505050505050505050565b600080600080600080600060e0888a031215611bea57600080fd5b611bf388611a08565b9650611c0160208901611a08565b95506040880135945060608801359350608088013560ff81168114611c2557600080fd5b9699959850939692959460a0840135945060c09093013592915050565b60008060408385031215611c5557600080fd5b611a9483611a08565b600181811c90821680611c7257607f821691505b602082108103611c9257634e487b7160e01b600052602260045260246000fd5b50919050565b60208082526026908201527f4d4454546f6b656e3a204d696e74696e67207065726d616e656e746c792066696040820152651b9a5cda195960d21b606082015260800190565b634e487b7160e01b600052602160045260246000fd5b634e487b7160e01b600052601160045260246000fd5b8082018082111561062057610620611cf4565b8181038181111561062057610620611cf456fea26469706673582212206749dbd2396e3608aa0011316315017ad645eb04d8f93a76631b296e8cccb3d364736f6c63430008140033",
  "linkReferences": {},
  "deployedLinkReferences": {}
}