{
  "_format": "hh-sol-artifact-1",
  "contractName": "MDTToken",
  "sourceName": "src/MDTToken.sol",
  "abi": [
    {
      "inputs": [],
      "stateMutability": "nonpayable",
      "type": "constructor"
    },
    {
      "inputs": [],
      "name": "ECDSAInvalidSignature",
      "type": "error"
    },
    {
      "inputs": [
        {
          "internalType": "uint256",
          "name": "length",
          "type": "uint256"
        }
      ],
      "name": "ECDSAInvalidSignatureLength",
      "type": "error"
    },
    {
      "inputs": [
        {
          "internalType": "bytes32",
          "name": "s",
          "type": "bytes32"
        }
      ],
      "name": "ECDSAInvalidSignatureS",
      "type": "error"
    },
    {
      "inputs": [
        {
          "internalType": "address",
          "name": "spender",
          "type": "address"
        },
        {
          "internalType": "uint256",
          "name": "allowance",
          "type": "uint256"
        },
        {
          "internalType": "uint256",
          "name": "needed",
          "type": "uint256"
        }
      ],
      "name": "ERC20InsufficientAllowance",
      "type": "error"
    },
    {
      "inputs": [
        {
          "internalType": "address",
          "name": "sender",
          "type": "address"
        },
        {
          "internalType": "uint256",
          "name": "balance",
          "type": "uint256"
        },
        {
          "internalType": "uint256",
          "name": "needed",
          "type": "uint256"
        }
      ],
      "name": "ERC20InsufficientBalance",
      "type": "error"
    },
    {
      "inputs": [
        {
          "internalType": "address",
          "name": "approver",
          "type": "address"
        }
      ],
      "name": "ERC20InvalidApprover",
      "type": "error"
    },
    {
      "inputs": [
        {
          "internalType": "address",
          "name": "receiver",
          "type": "address"
        }
      ],
      "name": "ERC20InvalidReceiver",
      "type": "error"
    },
    {
      "inputs": [
        {
          "internalType": "address",
          "name": "sender",
          "type": "address"
        }
      ],
      "name": "ERC20InvalidSender",
      "type": "error"
    },
    {
      "inputs": [
        {
          "internalType": "address",
          "name": "spender",
          "type": "address"
        }
      ],
      "name": "ERC20InvalidSpender",
      "type": "error"
    },
    {
      "inputs": [
        {
          "internalType": "uint256",
          "name": "deadline",
          "type": "uint256"
        }
      ],
      "name": "ERC2612ExpiredSignature",
      "type": "error"
    },
    {
      "inputs": [
        {
          "internalType": "address",
          "name": "signer",
          "type": "address"
        },
        {
          "internalType": "address",
          "name": "owner",
          "type": "address"
        }
      ],
      "name": "ERC2612InvalidSigner",
      "type": "error"
    },
    {
      "inputs": [
        {
          "internalType": "address",
          "name": "account",
          "type": "address"
        },
        {
          "internalType": "uint256",
          "name": "currentNonce",
          "type": "uint256"
        }
      ],
      "name": "InvalidAccountNonce",
      "type": "error"
    },
    {
      "inputs": [],
      "name": "InvalidShortString",
      "type": "error"
    },
    {
      "inputs": [
        {
          "internalType": "address",
          "name": "owner",
          "type": "address"
        }
      ],
      "name": "OwnableInvalidOwner",
      "type": "error"
    },
    {
      "inputs": [
        {
          "internalType": "address",
          "name": "account",
          "type": "address"
        }
      ],
      "name": "OwnableUnauthorizedAccount",
      "type": "error"
    },
    {
      "inputs": [
        {
          "internalType": "string",
          "name": "str",
          "type": "string"
        }
      ],
      "name": "StringTooLong",
      "type": "error"
    },
    {
      "anonymous": false,
      "inputs": [
        {
          "indexed": true,
          "internalType": "address",
          "name": "owner",
          "type": "address"
        },
        {
          "indexed": true,
          "internalType": "address",
          "name": "spender",
          "type": "address"
        },
        {
          "indexed": false,
          "internalType": "uint256",
          "name": "value",
          "type": "uint256"
        }
      ],
      "name": "Approval",
      "type": "event"
    },
    {
      "anonymous": false,
      "inputs": [
        {
          "indexed": true,
          "internalType": "enum MDTToken.Category",
          "name": "category",
          "type": "uint8"
        },
        {
          "indexed": true,
          "internalType": "address",
          "name": "to",
          "type": "address"
        },
        {
          "indexed": false,
          "internalType": "uint256",
          "name": "amount",
          "type": "uint256"
        }
      ],
      "name": "CategoryMinted",
      "type": "event"
    },
    {
      "anonymous": false,
      "inputs": [],
      "name": "EIP712DomainChanged",
      "type": "event"
    },
    {
      "anonymous": false,
      "inputs": [
        {
          "indexed": false,
          "internalType": "uint256",
          "name": "timestamp",
          "type": "uint256"
        }
      ],
      "name": "MintingFinished",
      "type": "event"
    },
    {
      "anonymous": false,
      "inputs": [
        {
          "indexed": true,
          "internalType": "address",
          "name": "previousOwner",
          "type": "address"
        },
        {
          "indexed": true,
          "internalType": "address",
          "name": "newOwner",
          "type": "address"
        }
      ],
      "name": "OwnershipTransferred",
      "type": "event"
    },
    {
      "anonymous": false,
      "inputs": [
        {
          "indexed": false,
          "internalType": "uint256",
          "name": "timestamp",
          "type": "uint256"
        },
        {
          "indexed": false,
          "internalType": "uint256",
          "name": "totalMinted",
          "type": "uint256"
        }
      ],
      "name": "TGEExecuted",
      "type": "event"
    },
    {
      "anonymous": false,
      "inputs": [
        {
          "indexed": true,
          "internalType": "address",
          "name": "from",
          "type": "address"
        },
        {
          "indexed": true,
          "internalType": "address",
          "name": "to",
          "type": "address"
        },
        {
          "indexed": false,
          "internalType": "uint256",
          "name": "value",
          "type": "uint256"
        }
      ],
      "name": "Transfer",
      "type": "event"
    },
    {
      "inputs": [],
      "name": "DOMAIN_SEPARATOR",
      "outputs": [
        {
          "internalType": "bytes32",
          "name": "",
          "type": "bytes32"
        }
      ],
      "stateMutability": "view",
      "type": "function"
    },
    {
      "inputs": [],
      "name": "MAX_SUPPLY",
      "outputs": [
        {
          "internalType": "uint256",
          "name": "",
          "type": "uint256"
        }
      ],
      "stateMutability": "view",
      "type": "function"
    },
    {
      "inputs": [],
      "name": "allCategoriesMinted",
      "outputs": [
        {
          "internalType": "bool",
          "name": "",
          "type": "bool"
        }
      ],
      "stateMutability": "view",
      "type": "function"
    },
    {
      "inputs": [
        {
          "internalType": "address",
          "name": "owner",
          "type": "address"
        },
        {
          "internalType": "address",
          "name": "spender",
          "type": "address"
        }
      ],
      "name": "allowance",
      "outputs": [
        {
          "internalType": "uint256",
          "name": "",
          "type": "uint256"
        }
      ],
      "stateMutability": "view",
      "type": "function"
    },
    {
      "inputs": [
        {
          "internalType": "address",
          "name": "spender",
          "type": "address"
        },
        {
          "internalType": "uint256",
          "name": "value",
          "type": "uint256"
        }
      ],
      "name": "approve",
      "outputs": [
        {
          "internalType": "bool",
          "name": "",
          "type": "bool"
        }
      ],
      "stateMutability": "nonpayable",
      "type": "function"
    },
    {
      "inputs": [
        {
          "internalType": "address",
          "name": "account",
          "type": "address"
        }
      ],
      "name": "balanceOf",
      "outputs": [
        {
          "internalType": "uint256",
          "name": "",
          "type": "uint256"
        }
      ],
      "stateMutability": "view",
      "type": "function"
    },
    {
      "inputs": [
        {
          "internalType": "uint256",
          "name": "value",
          "type": "uint256"
        }
      ],
      "name": "burn",
      "outputs": [],
      "stateMutability": "nonpayable",
      "type": "function"
    },
    {
      "inputs": [
        {
          "internalType": "address",
          "name": "account",
          "type": "address"
        },
        {
          "internalType": "uint256",
          "name": "value",
          "type": "uint256"
        }
      ],
      "name": "burnFrom",
      "outputs": [],
      "stateMutability": "nonpayable",
      "type": "function"
    },
    {
      "inputs": [
        {
          "internalType": "enum MDTToken.Category",
          "name": "",
          "type": "uint8"
        }
      ],
      "name": "categoryAllocation",
      "outputs": [
        {
          "internalType": "uint256",
          "name": "",
          "type": "uint256"
        }
      ],
      "stateMutability": "view",
      "type": "function"
    },
    {
      "inputs": [
        {
          "internalType": "enum MDTToken.Category",
          "name": "",
          "type": "uint8"
        }
      ],
      "name": "categoryMinted",
      "outputs": [
        {
          "internalType": "uint256",
          "name": "",
          "type": "uint256"
        }
      ],
      "stateMutability": "view",
      "type": "function"
    },
    {
      "inputs": [],
      "name": "decimals",
      "outputs": [
        {
          "internalType": "uint8",
          "name": "",
          "type": "uint8"
        }
      ],
      "stateMutability": "view",
      "type": "function"
    },
    {
      "inputs": [],
      "name": "eip712Domain",
      "outputs": [
        {
          "internalType": "bytes1",
          "name": "fields",
          "type": "bytes1"
        },
        {
          "internalType": "string",
          "name": "name",
          "type": "string"
        },
        {
          "internalType": "string",
          "name": "version",
          "type": "string"
        },
        {
          "internalType": "uint256",
          "name": "chainId",
          "type": "uint256"
        },
        {
          "internalType": "address",
          "name": "verifyingContract",
          "type": "address"
        },
        {
          "internalType": "bytes32",
          "name": "salt",
          "type": "bytes32"
        },
        {
          "internalType": "uint256[]",
          "name": "extensions",
          "type": "uint256[]"
        }
      ],
      "stateMutability": "view",
      "type": "function"
    },
    {
      "inputs": [
        {
          "internalType": "enum MDTToken.Category",
          "name": "category",
          "type": "uint8"
        },
        {
          "internalType": "address",
          "name": "to",
          "type": "address"
        }
      ],
      "name": "executeTGE",
      "outputs": [],
      "stateMutability": "nonpayable",
      "type": "function"
    },
    {
      "inputs": [],
      "name": "finishMinting",
      "outputs": [],
      "stateMutability": "nonpayable",
      "type": "function"
    },
    {
      "inputs": [],
      "name": "getAllocations",
      "outputs": [
        {
          "internalType": "uint256",
          "name": "emissionRewards",
          "type": "uint256"
        },
        {
          "internalType": "uint256",
          "name": "ecosystemGrants",
          "type": "uint256"
        },
        {
          "internalType": "uint256",
          "name": "teamCoreDev",
          "type": "uint256"
        },
        {
          "internalType": "uint256",
          "name": "privateSale",
          "type": "uint256"
        },
        {
          "internalType": "uint256",
          "name": "ido",
          "type": "uint256"
        },
        {
          "internalType": "uint256",
          "name": "daoTreasury",
          "type": "uint256"
        },
        {
          "internalType": "uint256",
          "name": "initialLiquidity",
          "type": "uint256"
        },
        {
          "internalType": "uint256",
          "name": "foundationReserve",
          "type": "uint256"
        }
      ],
      "stateMutability": "view",
      "type": "function"
    },
    {
      "inputs": [
        {
          "internalType": "enum MDTToken.Category",
          "name": "category",
          "type": "uint8"
        },
        {
          "internalType": "address",
          "name": "to",
          "type": "address"
        },
        {
          "internalType": "uint256",
          "name": "amount",
          "type": "uint256"
        }
      ],
      "name": "mintCategory",
      "outputs": [],
      "stateMutability": "nonpayable",
      "type": "function"
    },
    {
      "inputs": [],
      "name": "mintingFinished",
      "outputs": [
        {
          "internalType": "bool",
          "name": "",
          "type": "bool"
        }
      ],
      "stateMutability": "view",
      "type": "function"
    },
    {
      "inputs": [],
      "name": "name",
      "outputs": [
        {
          "internalType": "string",
          "name": "",
          "type": "string"
        }
      ],
      "stateMutability": "view",
      "type": "function"
    },
    {
      "inputs": [
        {
          "internalType": "address",
          "name": "owner",
          "type": "address"
        }
      ],
      "name": "nonces",
      "outputs": [
        {
          "internalType": "uint256",
          "name": "",
          "type": "uint256"
        }
      ],
      "stateMutability": "view",
      "type": "function"
    },
    {
      "inputs": [],
      "name": "owner",
      "outputs": [
        {
          "internalType": "address",
          "name": "",
          "type": "address"
        }
      ],
      "stateMutability": "view",
      "type": "function"
    },
    {
      "inputs": [
        {
          "internalType": "address",
          "name": "owner",
          "type": "address"
        },
        {
          "internalType": "address",
          "name": "spender",
          "type": "address"
        },
        {
          "internalType": "uint256",
          "name": "value",
          "type": "uint256"
        },
        {
          "internalType": "uint256",
          "name": "deadline",
          "type": "uint256"
        },
        {
          "internalType": "uint8",
          "name": "v",
          "type": "uint8"
        },
        {
          "internalType": "bytes32",
          "name": "r",
          "type": "bytes32"
        },
        {
          "internalType": "bytes32",
          "name": "s",
          "type": "bytes32"
        }
      ],
      "name": "permit",
      "outputs": [],
      "stateMutability": "nonpayable",
      "type": "function"
    },
    {
      "inputs": [
        {
          "internalType": "enum MDTToken.Category",
          "name": "category",
          "type": "uint8"
        }
      ],
      "name": "remainingAllocation",
      "outputs": [
        {
          "internalType": "uint256",
          "name": "",
          "type": "uint256"
        }
      ],
      "stateMutability": "view",
      "type": "function"
    },
    {
      "inputs": [],
      "name": "renounceOwnership",
      "outputs": [],
      "stateMutability": "nonpayable",
      "type": "function"
    },
    {
      "inputs": [],
      "name": "symbol",
      "outputs": [
        {
          "internalType": "string",
          "name": "",
          "type": "string"
        }
      ],
      "stateMutability": "view",
      "type": "function"
    },
    {
      "inputs": [],
      "name": "tgeTimestamp",
      "outputs": [
        {
          "internalType": "uint256",
          "name": "",
          "type": "uint256"
        }
      ],
      "stateMutability": "view",
      "type": "function"
    },
    {
      "inputs": [],
      "name": "totalSupply",
      "outputs": [
        {
          "internalType": "uint256",
          "name": "",
          "type": "uint256"
        }
      ],
      "stateMutability": "view",
      "type": "function"
    },
    {
      "inputs": [
        {
          "internalType": "address",
          "name": "to",
          "type": "address"
        },
        {
          "internalType": "uint256",
          "name": "value",
          "type": "uint256"
        }
      ],
      "name": "transfer",
      "outputs": [
        {
          "internalType": "bool",
          "name": "",
          "type": "bool"
        }
      ],
      "stateMutability": "nonpayable",
      "type": "function"
    },
    {
      "inputs": [
        {
          "internalType": "address",
          "name": "from",
          "type": "address"
        },
        {
          "internalType": "address",
          "name": "to",
          "type": "address"
        },
        {
          "internalType": "uint256",
          "name": "value",
          "type": "uint256"
        }
      ],
      "name": "transferFrom",
      "outputs": [
        {
          "internalType": "bool",
          "name": "",
          "type": "bool"
        }
      ],
      "stateMutability": "nonpayable",
      "type": "function"
    },
    {
      "inputs": [
        {
          "internalType": "address",
          "name": "newOwner",
          "type": "address"
        }
      ],
      "name": "transferOwnership",
      "outputs": [],
      "stateMutability": "nonpayable",
      "type": "function"
    }
  ],
  "bytecode": "0x610160604081815234620005255762000018826200052a565b600c8252602091828101916b26b7b232b9372a32b739b7b960a11b80845281519062000044826200052a565b600c825285820152815162000059816200052a565b6003918282526213511560ea1b8783015283519662000078886200052a565b6001808952603160f81b828a01908152835191936001600160401b039283811162000425578754918683811c931680156200051a575b8684101462000504578190601f93848111620004ae575b50869084831160011462000447576000926200043b575b5050600019828a1b1c191690861b1787555b855190838211620004255760049687548781811c911680156200041a575b87821014620004055790818385949311620003ad575b508691831160011462000346576000926200033a575b505060001982891b1c191690851b1785555b620001558862000546565b98610120998a52620001678b6200070a565b98610140998a52519020998a60e05251902061010099818b524660a052875191848301917f8b73c3c69bb8fe3d512ecc4cf759cc79239f7b179b0ffacaa9a75d522b39400f83528984015260608301524660808301523060a083015260a0825260c0820192828410908411176200032557828852815190206080523060c05233156200030e575050600854600b9190336001600160a01b0382167f8be0079c531659141344cd1fd0a4f28419497f9722a3daafe3b4186f6b6457e0600080a360ff60a01b1933169060018060a81b0319161760085560008052526a07d11d86c8aa2bfe40000084600020556000526a0215a1794693c777000000836000205560026000526a01bcb13a657b2638800000918284600020556000526a0163c0fb846284fa000000836000205560005269de589d32bd931c400000908183600020556005600052826000205560066000528082600020556007600052816000205551916119629384620008c385396080518461143d015260a05184611509015260c05184611407015260e0518461148c015251836114b2015251826105ab015251816105d50152f35b631e4fbdf760e01b8252600060c490910152602490fd5b604186634e487b7160e01b6000525260246000fd5b01519050388062000138565b90879350601f1983169189600052876000209260005b898282106200039657505084116200037d575b505050811b0185556200014a565b0151600019838b1b60f8161c191690553880806200036f565b8385015186558b979095019493840193016200035c565b9091925088600052866000208380860160051c820192898710620003fb575b9186958b929594930160051c01915b828110620003eb57505062000122565b600081558695508a9101620003db565b92508192620003cc565b602289634e487b7160e01b6000525260246000fd5b90607f16906200010c565b634e487b7160e01b600052604160045260246000fd5b015190503880620000dc565b90889350601f198316918b600052886000209260005b8a8282106200049757505084116200047e575b505050811b018755620000ee565b0151600019838c1b60f8161c1916905538808062000470565b8385015186558c979095019493840193016200045d565b90915089600052866000208480850160051c820192898610620004fa575b918a91869594930160051c01915b828110620004ea575050620000c5565b600081558594508a9101620004da565b92508192620004cc565b634e487b7160e01b600052602260045260246000fd5b92607f1692620000ae565b600080fd5b604081019081106001600160401b038211176200042557604052565b80516020919082811015620005e5575090601f8251116200058457808251920151908083106200057557501790565b82600019910360031b1b161790565b90604051809263305a27a960e01b82528060048301528251908160248401526000935b828510620005cb575050604492506000838284010152601f80199101168101030190fd5b8481018201518686016044015293810193859350620005a7565b6001600160401b03811162000425576005928354926001938481811c91168015620006ff575b838210146200050457601f8111620006c8575b5081601f84116001146200065e575092829391839260009462000652575b50501b916000199060031b1c191617905560ff90565b0151925038806200063c565b919083601f1981168760005284600020946000905b88838310620006ad575050501062000693575b505050811b01905560ff90565b015160001960f88460031b161c1916905538808062000686565b85870151885590960195948501948793509081019062000673565b8560005284601f846000209201871c820191601f8601881c015b828110620006f25750506200061e565b60008155018590620006e2565b90607f16906200060b565b805160209081811015620007985750601f8251116200073757808251920151908083106200057557501790565b90604051809263305a27a960e01b82528060048301528251908160248401526000935b8285106200077e575050604492506000838284010152601f80199101168101030190fd5b84810182015186860160440152938101938593506200075a565b906001600160401b0382116200042557600654926001938481811c91168015620008b7575b838210146200050457601f81116200087d575b5081601f841160011462000811575092829391839260009462000805575b50501b916000199060031b1c19161760065560ff90565b015192503880620007ee565b919083601f198116600660005284600020946000905b8883831062000862575050501062000848575b505050811b0160065560ff90565b015160001960f88460031b161c191690553880806200083a565b85870151885590960195948501948793509081019062000827565b600660005284601f84600020920160051c820191601f860160051c015b828110620008aa575050620007d0565b600081550185906200089a565b90607f1690620007bd56fe6080604081815260048036101561001557600080fd5b60009260e08435811c91826305d2035b14610e245750816306fdde0314610d50578163095ea7b314610d255781630c08603914610cfb57816318160ddd14610cdb5781632335ba1714610bcb57816323b872dd14610b8d57816323ecb4f114610a0f578163313ce567146109f257816332cb6b0c146109cb5781633644e515146109a657816342966c6814610988578163503bf6151461095657816365ed6e23146108cd57816370a0823114610895578163715018a61461087c57816379cc67901461084b5781637d64bcb4146106e75781637ecebe00146106ae57816384b0196e146105935781638da5cb5b1461056957816395d89b411461047e578163a4317ef41461045e578163a9059cbb1461042c578163c0f3cb75146103cf578163d505accf1461026957508063da6ea4d714610243578063dd62ed3e146101f65763f2fde38b1461016457600080fd5b346101f25760203660031901126101f25761017d610e88565b90610186610f01565b6001600160a01b039182169283156101dc575050600854826bffffffffffffffffffffffff60a01b821617600855167f8be0079c531659141344cd1fd0a4f28419497f9722a3daafe3b4186f6b6457e08380a380f35b51631e4fbdf760e01b8152908101849052602490fd5b8280fd5b50503461023f578060031936011261023f5780602092610214610e88565b61021c610ea3565b6001600160a01b0391821683526001865283832091168252845220549051908152f35b5080fd5b50503461023f578160031936011261023f576020906102606117ea565b90519015158152f35b90508391346101f257816003193601126101f257610285610e88565b61028d610ea3565b916044359360643560843560ff811681036103cb578142116103b4578860018060a01b039283871694858b526007602052828b20918254926001840190558351928760208501957f6e71edae12b1b97f4d1f60370fef10105fa2faae0126114a169c64845d6126c98752850152868b1660608501528b608085015260a084015260c083015260c08252810181811067ffffffffffffffff8211176103a1578b5251902061036f9161036691610340611404565b908c519161190160f01b83526002830152602282015260c43591604260a4359220611305565b90929192611395565b168181036103865786610383878787611100565b80f35b87516325c0072360e11b815292830152602482015260449150fd5b634e487b7160e01b8b526041875260248bfd5b885163313c898160e11b8152808501839052602490fd5b8780fd5b8285853461023f57602036600319011261023f578235916008831015610429576104026103fb84610ee8565b5493610eb9565b548303928311610416576020838351908152f35b634e487b7160e01b815260118452602490fd5b80fd5b5050503461023f578060031936011261023f5760209061045761044d610e88565b6024359033610fff565b5160018152f35b5050503461023f578160031936011261023f576020906009549051908152f35b505090346101f257826003193601126101f257805191838154906104a182610f71565b8086529260019280841690811561053e57506001146104e2575b6104de86866104cc828b0383610fdd565b51918291602083526020830190610e48565b0390f35b815294507f8a35acfbc15ff81a39ae7d344fd709f28e8600b4aa8c65c6b64bfe7fe36bd19b5b828610610526575050506104cc8260206104de9582010194386104bb565b80546020878701810191909152909501948101610508565b90506104de9750869350602092506104cc94915060ff191682840152151560051b82010194386104bb565b5050503461023f578160031936011261023f5760085490516001600160a01b039091168152602090f35b828486346104295780600319360112610429576105cf7f000000000000000000000000000000000000000000000000000000000000000061152f565b906105f97f000000000000000000000000000000000000000000000000000000000000000061162b565b928051936020938486019686881067ffffffffffffffff89111761069b57509593610651838293878b99965286865261064482519a8b9a600f60f81b8c5280878d01528b0190610e48565b91898303908a0152610e48565b924660608801523060808801528460a088015286840360c088015251928381520193925b82811061068457505050500390f35b835185528695509381019392810192600101610675565b634e487b7160e01b855260419052602484fd5b5050503461023f57602036600319011261023f5760209181906001600160a01b036106d7610e88565b1681526007845220549051908152f35b8285853461023f578160031936011261023f57610702610f01565b6008549261071660ff8560a01c16156116e5565b61071e6117ea565b156107fd57600254906a115eec47f6cf7e3500000082036107ba575060ff60a01b19909316600160a01b17600855805142815291927f7a1be65236fa43f4bd450d67219d65a9f1f3d51aae0d62d70758463c9a316a76927ff6af8e1d23f8a5997a11116c1e59bd11c947226b74890b8e0fde60d95a7c076a90602090a16009549082519182526020820152a16107b2610f01565b610383610f2d565b606490602084519162461bcd60e51b8352820152601960248201527f4d4454546f6b656e3a20737570706c79206d69736d61746368000000000000006044820152fd5b6020608492519162461bcd60e51b8352820152602360248201527f4d4454546f6b656e3a206e6f7420616c6c2063617465676f72696573206d696e6044820152621d195960ea1b6064820152fd5b5050503461023f5736600319011261042957610383610868610e88565b60243590610877823383611193565b611266565b84346104295780600319360112610429576107b2610f01565b5050503461023f57602036600319011261023f5760209181906001600160a01b036108be610e88565b16815280845220549051908152f35b90503461095257836003193601126109525783806101009552600b60205283812054936001825280822054936002835281832054906003845282842054908452828420549160058552838520549360068652808087205496600781522054978151998a5260208a01528801526060870152608086015260a085015260c0840152820152f35b8380fd5b5050346101f25760203660031901126101f257359160088310156104295750610980602092610ee8565b549051908152f35b84833461023f57602036600319011261023f57610383903533611266565b5050503461023f578160031936011261023f576020906109c4611404565b9051908152f35b5050503461023f578160031936011261023f57602090516a115eec47f6cf7e350000008152f35b5050503461023f578160031936011261023f576020905160128152f35b505090346101f25760603660031901126101f257813590600882101561095257610a37610ea3565b9060443591610a44610f01565b610a5660ff60085460a01c16156116e5565b6001600160a01b03811694610a6c861515611740565b610a7f84610a7987610eb9565b546110dd565b610a8886610ee8565b5410610b3c576a115eec47f6cf7e35000000610aa6856002546110dd565b11610af9575091602091610af1827fd18d0b722b1799afc328cfd48dbc75998dc5e1f5c85d21be72ae6f90de992f0495610adf88610eb9565b610aea8382546110dd565b905561178c565b51908152a380f35b606490602084519162461bcd60e51b8352820152601c60248201527f4d4454546f6b656e3a2065786365656473206d617820737570706c79000000006044820152fd5b608490602084519162461bcd60e51b8352820152602560248201527f4d4454546f6b656e3a20657863656564732063617465676f727920616c6c6f6360448201526430ba34b7b760d91b6064820152fd5b5050503461023f57606036600319011261023f57602090610457610baf610e88565b610bb7610ea3565b60443591610bc6833383611193565b610fff565b505090346101f257806003193601126101f257813590600882101561095257610bf2610ea3565b90610bfb610f01565b610c0d60ff60085460a01c16156116e5565b6001600160a01b03821693610c23851515611740565b610c2c84610eb9565b54610c8f57507fd18d0b722b1799afc328cfd48dbc75998dc5e1f5c85d21be72ae6f90de992f0491602091610c76610c6386610ee8565b54809381610c7089610eb9565b5561178c565b60095415610c865751908152a380f35b42600955610af1565b6020608492519162461bcd60e51b8352820152602160248201527f4d4454546f6b656e3a2063617465676f727920616c7265616479206d696e74656044820152601960fa1b6064820152fd5b5050503461023f578160031936011261023f576020906002549051908152f35b5050346101f25760203660031901126101f257359160088310156104295750610980602092610eb9565b5050503461023f578060031936011261023f57602090610457610d46610e88565b6024359033611100565b5050503461023f578160031936011261023f5780519082600354610d7381610f71565b80855291600191808316908115610dfc5750600114610d9f575b5050506104cc826104de940383610fdd565b9450600385527fc2575a0e9e593c00f959f8c92f12db2869c3395a3b0502d05e2516446f71f85b5b828610610de4575050506104cc8260206104de9582010194610d8d565b80546020878701810191909152909501948101610dc7565b6104de9750869350602092506104cc94915060ff191682840152151560051b82010194610d8d565b85903461023f578160031936011261023f5760209060ff60085460a01c1615158152f35b919082519283825260005b848110610e74575050826000602080949584010152601f8019910116010190565b602081830181015184830182015201610e53565b600435906001600160a01b0382168203610e9e57565b600080fd5b602435906001600160a01b0382168203610e9e57565b6008811015610ed257600052600a602052604060002090565b634e487b7160e01b600052602160045260246000fd5b6008811015610ed257600052600b602052604060002090565b6008546001600160a01b03163303610f1557565b60405163118cdaa760e01b8152336004820152602490fd5b600880546001600160a01b031981169091556000906001600160a01b03167f8be0079c531659141344cd1fd0a4f28419497f9722a3daafe3b4186f6b6457e08280a3565b90600182811c92168015610fa1575b6020831014610f8b57565b634e487b7160e01b600052602260045260246000fd5b91607f1691610f80565b6040810190811067ffffffffffffffff821117610fc757604052565b634e487b7160e01b600052604160045260246000fd5b90601f8019910116810190811067ffffffffffffffff821117610fc757604052565b916001600160a01b038084169283156110c457169283156110ab5760009083825281602052604082205490838210611079575091604082827fddf252ad1be2c89b69c2b068fc378daa952ba7f163c4a11628f55a4df523b3ef958760209652828652038282205586815220818154019055604051908152a3565b60405163391434e360e21b81526001600160a01b03919091166004820152602481019190915260448101839052606490fd5b60405163ec442f0560e01b815260006004820152602490fd5b604051634b637e8f60e11b815260006004820152602490fd5b919082018092116110ea57565b634e487b7160e01b600052601160045260246000fd5b6001600160a01b0390811691821561117a57169182156111615760207f8c5be1e5ebec7d5bd14f71427d1e84f3dd0314c0f7b2291e5b200ac8c7c3b925918360005260018252604060002085600052825280604060002055604051908152a3565b604051634a1406b160e11b815260006004820152602490fd5b60405163e602df0560e01b815260006004820152602490fd5b9160018060a01b0380931691600093838552600160205260409384862091831691828752602052848620549260001984106111d2575b50505050505050565b8484106112365750801561121e578115611206578552600160205283852090855260205203912055388080808080806111c9565b8451634a1406b160e11b815260048101879052602490fd5b845163e602df0560e01b815260048101879052602490fd5b8551637dc7a0d960e11b81526001600160a01b039190911660048201526024810184905260448101859052606490fd5b906001600160a01b0382169081156110c457600092828452836020526040842054908282106112d35750817fddf252ad1be2c89b69c2b068fc378daa952ba7f163c4a11628f55a4df523b3ef926020928587528684520360408620558060025403600255604051908152a3565b60405163391434e360e21b81526001600160a01b03919091166004820152602481019190915260448101829052606490fd5b91907f7fffffffffffffffffffffffffffffff5d576e7357a4501ddfe92f46681b20a0841161138957926020929160ff608095604051948552168484015260408301526060820152600092839182805260015afa1561137d5780516001600160a01b0381161561137457918190565b50809160019190565b604051903d90823e3d90fd5b50505060009160039190565b6004811015610ed257806113a7575050565b600181036113c15760405163f645eedf60e01b8152600490fd5b600281036113e25760405163fce698f760e01b815260048101839052602490fd5b6003146113ec5750565b602490604051906335e2f38360e21b82526004820152fd5b307f00000000000000000000000000000000000000000000000000000000000000006001600160a01b03161480611506575b1561145f577f000000000000000000000000000000000000000000000000000000000000000090565b60405160208101907f8b73c3c69bb8fe3d512ecc4cf759cc79239f7b179b0ffacaa9a75d522b39400f82527f000000000000000000000000000000000000000000000000000000000000000060408201527f000000000000000000000000000000000000000000000000000000000000000060608201524660808201523060a082015260a0815260c0810181811067ffffffffffffffff821117610fc75760405251902090565b507f00000000000000000000000000000000000000000000000000000000000000004614611436565b60ff811461156d5760ff811690601f821161155b576040519161155183610fab565b8252602082015290565b604051632cd44ac360e21b8152600490fd5b5060405160055481600061158083610f71565b8083529260019081811690811561160957506001146115aa575b506115a792500382610fdd565b90565b6005600090815291507f036b6384b5eca791c62761152d0c79bb0604c104a5fb6f4eb0703f3154bb3db05b8483106115ee57506115a793505081016020013861159a565b819350908160209254838589010152019101909184926115d5565b9050602092506115a794915060ff191682840152151560051b8201013861159a565b60ff811461164d5760ff811690601f821161155b576040519161155183610fab565b5060405160065481600061166083610f71565b80835292600190818116908115611609575060011461168657506115a792500382610fdd565b6006600090815291507ff652222313e28459528d920b65115c16c04f3efc82aaedc97be59f3f377c0d3f5b8483106116ca57506115a793505081016020013861159a565b819350908160209254838589010152019101909184926116b1565b156116ec57565b60405162461bcd60e51b815260206004820152602660248201527f4d4454546f6b656e3a204d696e74696e67207065726d616e656e746c792066696044820152651b9a5cda195960d21b6064820152608490fd5b1561174757565b60405162461bcd60e51b815260206004820152601e60248201527f4d4454546f6b656e3a206d696e7420746f207a65726f206164647265737300006044820152606490fd5b6001600160a01b03169081156110ab577fddf252ad1be2c89b69c2b068fc378daa952ba7f163c4a11628f55a4df523b3ef6020826117ce6000946002546110dd565b60025584845283825260408420818154019055604051908152a3565b60008080527f13da86008ba1c6922daee3e07db95305ef49ebced9f5467a0b8613fcc6b343e354600b60208181527fdf7de25b7f1fd6d0b5205f0e18f1f35bd7b8d84cce336588d184533ce43a6f765490921492604091600a85611912575b856118f8575b856118de575b856118c4575b856118aa575b85611890575b85611875575b505050505090565b6007835284528282205493522054149050388080808061186d565b600683528085528383205482865284842054149550611867565b600583528085528383205482865284842054149550611861565b60048352808552838320548286528484205414955061185b565b600383528085528383205482865284842054149550611855565b60028352808552838320548286528484205414955061184f565b60018352808552838320548286528484205414955061184956fea2646970667358221220fbaff6579d5ae94b64f7039421c23ab9d294234a0d608dcdc13573bd929e9a3264736f6c63430008140033",
  "linkReferences": {},
  "deployedLinkReferences": {}
}